:100000000C9446000C9465000C9465000C946500FB
:100010000C9465000C9465000C9465000C94851F8D
:100020000C9465000C9465000C94741F0C9465008E
:100030000C9465000C9465000C9465000C946500AC
:100040000C9498060C9465000C9465000C94650063
:100050000C9465000C9491030C9465000C9465005D
:100060000C9465000C9465000C9465000C9465007C
:100070000C9465000C9465000C9465000C9465006C
:100080000C9465000C9465000C94650011241FBE4F
:10009000CFEFD0E1DEBFCDBF15E0A0E0B1E0E0E8FA
:1000A000FCE400E00BBF02C007900D92AA34B10738
:1000B000D9F71EE0AAE4B5E001C01D92A635B1074C
:1000C000E1F70E9475010C943E260C940000982FD5
:1000D00080919B0085FFFCCF90939C0008955D9BD1
:1000E000FECF8CB9089593E09BBB8CEF8ABB18BA06
:1000F00084E787BB15BA40E844BB92BB11BA80E7DE
:1001000083B988E082B91092620010926100109267
:10011000650084E08093640010BE83BF12BE11BEF0
:100120001FBC85E08EBD1DBC1CBC17BC16BC1BBC17
:100130001ABC19BC18BC109279001092780085BDC9
:1001400014BC13BC10928B0090938A00109289000B
:100150001092880010928100109280001092870007
:1001600010928600109285001092840010928300F5
:100170001092820010926A0030E23ABF80E489BF98
:1001800017BE10927D001BB888E58AB926E020933F
:1001900095001092900097E099B910929B0088E921
:1001A00080939A0020939D0010929800909399005C
:1001B00048B910BC37B916B8109274000895DA9A8D
:1001C000DB9ADC9AE5E6F0E0808184608083AF9A78
:1001D000DD9ADE9ADF9AC5980895C69884E190E08A
:1001E0000E94EF04C69A08951F93182F5D9BFECFBF
:1001F0008FEF8CB981E090E00E94EF045D9BFECF11
:100200008DE18CB981E090E00E94EF045D9BFECF10
:100210001CB981E090E00E94EF045D9BFECF8DE170
:1002200018271F771CB91F91089589B383708130F7
:1002300049F48AE090E00E94EF04C89B03C081E08B
:100240008093560589B38370823059F48AE090E038
:100250000E94EF0489B38370823019F483E08093A5
:1002600056050895CF93DF93809156058130D1F5DF
:100270001092560580E091E00E94190FC0E0D0E096
:10028000AF9882E390E00E94EF040E94C4040E94B1
:10029000FA0480916805909169050E94F00E86E14C
:1002A00091E00E94190FAF9A82E390E00E94EF0460
:1002B0002196CA30D10521F780918205882369F003
:1002C0008AE191E00E94190F0E9444070E94C00534
:1002D00080E391E00E94190F05C089E391E00E943C
:1002E000190FAF98DF91CF9108950E9473000E947B
:1002F000DF00789487B7816087BFE5E6F0E0808112
:100300008B7F80830E94ED000E9466020E94470559
:100310000E9415010E9432010E94801B80E090E043
:100320000895149A159A1D9A1C9A000000001D98B1
:10033000000000001C98000000000895149A159A0F
:100340001D981C9A000000001D9A000000001498DF
:1003500015980895159880E090E0880F000000003F
:10036000000000001C9A000000000D998160000050
:1003700000001C989F5F983081F7159A0895159A90
:1003800090E087FF02C01D9A01C01D980000000088
:100390001C9A00000000000000001C9800000000F3
:1003A0009F5F983011F0880FECCF089515980000EA
:1003B00000001D9A000000001C9A000000001C981C
:1003C00000000000159A000000000895159A000032
:1003D00000001D98000000001C9A000000001C98FE
:1003E000000000001D9A000000000895159A00000A
:1003F00000001D9A000000001C9A000000001C98DC
:10040000000000000895282F30E087FF02C0205030
:100410003140C90108950E94910180E70E94BF0107
:100420000E94D60182E00E94BF010E94D6010E9474
:100430009E0100000000000000000E94910181E781
:100440000E94BF010E94D6010E94AA010E94E601FB
:100450000E94AA01282F30E087FF04C0C901805004
:10046000914001C0C90190935D0580935C050E9495
:10047000E6010E94AA010E94E6010E94AA01282F1B
:1004800030E087FF04C0C9018050914001C0C9011C
:1004900090935F0580935E050E94E6010E94AA0189
:1004A0000E94E6010E94AA01282F30E087FF04C0C5
:1004B000C9018050914001C0C901909367058093A4
:1004C00066050E94F6010E949E0108950E94910116
:1004D00080E70E94BF010E94D60184E10E94BF0113
:1004E0000E94D60183E00E94BF010E94D6010E94B3
:1004F0009E010895159A149A1D9A1C9A00000000F6
:100500001D98000000001C98000000000895159A36
:10051000149A1D981C9A000000001D9A000000000B
:10052000159814980895159A90E087FF02C01D9AB7
:1005300001C01D98000000001C9A0000000000008F
:1005400000001C98000000009F5F983011F0880F99
:10055000ECCF0895159890E080E0880F000000002F
:10056000000000001C9A000000000D99816000004E
:1005700000001C989F5F983081F7159A0895159890
:10058000000000001D9A000000001C9A00000000FE
:100590001C9800000000159A000000000895159AAC
:1005A000000000001D98000000001C9A00000000E0
:1005B0001C98000000001D9A000000000895159A84
:1005C000000000001D9A000000001C9A00000000BE
:1005D0001C980000000008950E947A0280E70E94A3
:1005E00093020E94BF0284E10E9493020E94BF0214
:1005F00083E00E9493020E94BF020E948702089536
:100600000F931F930E947A0280E70E9493020E9438
:10061000BF0282E00E9493020E94BF020E948702F2
:1006200000000000000000000E947A0281E70E94A2
:1006300093020E94BF020E94AA020E94CF020E945F
:10064000AA02082F0E94CF02112707FD10951093D0
:100650006105009360050E94AA020E94CF020E94D9
:10066000AA02082F0E94CF02112707FD10951093B0
:100670006305009362050E94AA020E94CF020E94B5
:10068000AA02082F0E94DF02112707FD1095109380
:100690006505009364050E9487021F910F910895DC
:1006A0009C01DD9ADE9ADF9A8091650084608093D8
:1006B0006500AF9A22303105ACF0DF982930310562
:1006C0008CF0DD98213131056CF0DE982132310556
:1006D0004CF0809165008B7F80936500213431055B
:1006E0000CF0AF980895892B79F010928005109244
:1006F0007F0587B7816087BF89B7806489BFDD9830
:1007000081E080934B05089587B78E7F87BF89B7B7
:100710008F7B89BF80E090E00E94500310924B05D0
:1007200008951F920F920FB60F920BB60F921124DD
:100730002F933F934F935F936F937F938F939F93E9
:10074000AF93BF93EF93FF9395B190937B05809107
:100750007C05813041F0813018F08F3091F50CC06C
:1007600090937A052EC089E3989FC001112490933D
:1007700069058093680525C0963E18F490937D0521
:1007800002C010927D0580917D0590E00E9450038B
:1007900080917F0590918005FC01E659FA4F4081D8
:1007A00020917D0530E0240F311D3595279520835C
:1007B000019660E170E00E94E025909380058093AF
:1007C0007F05FF91EF91BF91AF919F918F917F91A5
:1007D0006F915F914F913F912F910F900BBE0F90B2
:1007E0000FBE0F901F90189590917C05906297B95D
:1007F00086B90895C59A84EF91E020E731E0F901C8
:100800003197F1F70197D9F70895C5980895EF92B8
:10081000FF920F931F93C5990AC0C59A84EF91E088
:1008200020E731E0F9013197F1F70197D9F789B75E
:100830008F7B89BF10927C0580E287B98CED86B9E9
:100840003699FECF60917A0570E0882777FD809514
:10085000982F0E94242320E030E040E050E00E94E6
:10086000BD2121EE3AE74CED50E40E948C219B0122
:10087000AC0166E676EA8BE894E40E94EA217B010B
:100880008C0120E030E040E050E00E94F422882318
:10089000FCF020E030E040E251E4C801B7010E94E2
:1008A000F42288235CF40F2EF0E0EF2EF0E0FF2E10
:1008B000F0E20F2FF1E41F2FF02D14C020E030E004
:1008C00048E452E4C801B7010E949422181654F477
:1008D0000F2EF0E0EF2EF0E0FF2EF8E40F2FF2E401
:1008E0001F2FF02DC801B7010E94142060938105CD
:1008F0001F910F91FF90EF900895CF92DF92EF92AA
:10090000FF920F931F93CF93DF938FE080937C052B
:10091000C0E0D0E00F2EF0E0EF2EF0E0FF2EF0E090
:100920000F2FF0E01F2FF02D6FE2C62E5CEDD52EBD
:10093000C7B8D6B83699FECF60917D0570E088279C
:1009400077FD8095982F0E9424239B01AC01C8015C
:10095000B7010E94BD217B018C012196C233D105D4
:1009600039F720E030E040E251E40E94EA210E94A1
:10097000142060937E05DF91CF911F910F91FF901E
:10098000EF90DF90CF90089581E080937C05809375
:100990004A0581E287B98CED86B93699FECF089574
:1009A00080918C0590918D05883C910510F4DA9822
:1009B00013C080918C0590918D05893C910558F06C
:1009C00080918C0590918D058059914020F4DA9AA0
:1009D000DB9ADC980895DA9ADB9ADC9A0895909372
:1009E0008905809388058091880590918905892BD8
:1009F000D1F7089580918205882311F180916805CF
:100A0000909169058C51954228F0109296051092AC
:100A1000950509C080919505909196050196909352
:100A20009605809395058091950590919605079779
:100A300068F110928205109296051092950508951E
:100A400080916805909169058C51954270F01092E3
:100A500096051092950580918A0590918B050196D7
:100A600090938B0580938A0504C010928B05109299
:100A70008A0580918A0590918B05039738F081E073
:100A80008093820510928B0510928A0508958091BB
:100A900065008B7F809365008CE390E090938905DF
:100AA000809388058091880590918905892BD1F7DD
:100AB00080916500846080936500AF988CE390E03E
:100AC0009093890580938805809188059091890588
:100AD000892BD1F7AF9ADD988CE390E0909389054C
:100AE000809388058091880590918905892BD1F79D
:100AF000DD9ADE988CE390E09093890580938805D9
:100B00008091880590918905892BD1F7DE9ADF982D
:100B10008CE390E090938905809388058091880507
:100B200090918905892BD1F7DF9ADC988CE390E0CE
:100B30009093890580938805809188059091890517
:100B4000892BD1F7DC9ADB988CE390E090938905B0
:100B5000809388058091880590918905892BD1F72C
:100B6000DB9ADA988CE390E090938905809388056E
:100B70008091880590918905892BD1F7DA9A08959B
:100B8000EF92FF920F931F93CF93DF9381E08093B7
:100B9000840585E090E0909394058093930588E226
:100BA000E82EF12C0CEC11E0C4EFD1E059C080919B
:100BB0008E0565E00E94D4259923B9F480918305C0
:100BC00040E362E070E00E94860E88E491E00E94BB
:100BD000F60E80918E0540E362E070E090E00E94A6
:100BE000860E8AE491E00E94190FAF9A8091650009
:100BF0008B7F809365000E94C4040E94FA04809158
:100C000082058823A1F1C49AF0928905E0928805B3
:100C10008091880590918905892BD1F7C49810930C
:100C20008905009388058091880590918905892B15
:100C3000D1F7809165008460809365000E94C404B0
:100C40000E94FA0480918205882389F0D093890557
:100C5000C09388058091880590918905892BD1F7EB
:100C60008091930590919405892B09F0A0CF85E59B
:100C700090E0909394058093930545C080918E05F4
:100C800065E00E94D4259923B9F48091830540E35F
:100C900062E070E00E94860E88E491E00E94F60E09
:100CA00080918E0540E362E070E090E00E94860E45
:100CB00084E691E00E94190FAF9A80918C05909183
:100CC0008D05855F914020F0809165008B7F03C08A
:100CD0008091650084608093650080918C0590917F
:100CE0008D05892B39F080918C0590918D05845F5D
:100CF000914021F40E94C4040E94FA04809182056C
:100D0000882341F0C49A8091930590919405892B92
:100D100009F0B4CFC4981092840587E791E00E944F
:100D2000190FDF91CF911F910F91FF90EF900895D0
:100D30001F920F920FB60F920BB60F9211242F93A2
:100D40003F934F935F936F937F938F939F93AF9353
:100D5000BF93EF93FF9389E182BF809185059091C6
:100D60008605019690938605809385058091880578
:100D700090918905892B49F080918805909189058A
:100D80000197909389058093880580914B0588236E
:100D900071F080918C0590918D0583709070892BF6
:100DA00031F48FE080937C058CED0E94F4038091F8
:100DB0004B05882311F40E94D00480918C059091FA
:100DC0008D05019690938D0580938C0580918C05FF
:100DD00090918D05885E934008F443C010928D0574
:100DE00010928C0580918F0590919005892B49F088
:100DF00080918F0590919005019790939005809335
:100E00008F0580918E058F5F80938E0580918E0572
:100E10008C3338F110928E05809193059091940552
:100E2000892B49F0809193059091940501979093B7
:100E3000940580939305809183058F5F809383054C
:100E4000809183058C3368F010928305809187052B
:100E50008F5F8093870580918705883110F010920D
:100E60008705FF91EF91BF91AF919F918F917F91F6
:100E70006F915F914F913F912F910F900BBE0F900B
:100E80000FBE0F901F9018958FEF90E00E946700A3
:100E90008FED90E00E94670080E290E00E94670082
:100EA0008FE790E00E946700089580916805909117
:100EB00069058959914258F0809165008B7F809334
:100EC0006500AF9A10929205109291050895809155
:100ED000680590916905855A9F41F0F08091650001
:100EE000846080936500AF98809191059091920500
:100EF0000196909392058093910580919105909130
:100F000092058958934108F43FC0109292051092BF
:100F100091050E9444070895809165008460809344
:100F2000650080918C0590918D05499768F08091BE
:100F30008C0590918D05C29780F080918C059091E1
:100F40008D058B34910510F4AF9808C080918C0505
:100F500090918D058436910508F4AF9A80919105A2
:100F600090919205019690939205809391058091BE
:100F7000910590919205895B9B4030F0109292050B
:100F8000109291050E944407089580919B0087FF6D
:100F9000FCCF80919C0090E0089590938905809308
:100FA000880509C08091880590918905892B19F4DD
:100FB0002FEF3FEF05C05F9BF5CF8CB1282F30E0BE
:100FC000C9010895E091490EF0914A0E9DE0E53E79
:100FD000F90739F030F03197F0934A0EE093490E5B
:100FE00080830895E091490EF0914A0E8081882314
:100FF00019F42FEF3FEF07C0282F30E03196F09320
:101000004A0EE093490EC901089540914E05509152
:101010004F05433651051CF020E030E013C09A0123
:10102000220F331FCA0163E0880F991F6A95E1F709
:10103000280F391F25503A4F4F5F5F4F50934F0590
:1010400040934E05C90108950895DC01FB01CA01D2
:1010500002C02D93319697FD04C020810197222371
:10106000C1F71C920895FC0182918F7780830895C7
:10107000E091490EF0914A0E8081882361F031960B
:10108000F0934A0EE093490E8B32B1F08D3229F481
:10109000AFEFBFEF13C08FEF9FEFE091490EF091DC
:1010A0004A0E2DE0E53EF20739F030F03197F0932B
:1010B0004A0EE093490E8083A1E0B0E040E050E0AA
:1010C0001CC09C01205330402A30310550F0655E31
:1010D0007D4021F118F1F0934A0EE093490E808390
:1010E0001DC0CA01F3E0880F991FFA95E1F7440F7C
:1010F000551F480F591F420F531FE091490EF091A1
:101100004A0E8081882351F090E0BF016F5F7F4FCE
:1011100070934A0E6093490E009799F64A9F90018A
:101120004B9F300D5A9F300D1124C9010895803214
:10113000910551F08930910539F08D30910521F0FC
:1011400020E030E00A9711F421E030E0C901089571
:101150009C01815490404A9760F0C90181569040AB
:101160004A9738F040E050E0205330402A303105B3
:1011700010F441E050E0CA0108958B32910551F01E
:101180008D32910539F08F35910521F020E030E066
:101190008E9711F421E030E0C9010895E091490EE5
:1011A000F0914A0E8081882319F42FEF3FEF16C08B
:1011B000282F30E03196F0934A0EE093490E211526
:1011C000310561F0C9018032910541F38930910503
:1011D00029F38D30910511F30A9701F3E091490E3F
:1011E000F0914A0E8DE0E53EF80739F030F0319786
:1011F000F0934A0EE093490E20830895DF93CF9336
:10120000CDB7DEB760970FB6F894DEBF0FBECDBF87
:101210009E838D8389E090E09A838983DE0119960D
:10122000FE01319688E001900D928150E1F7298509
:101230003A854B855C856D857E858F85988960961E
:101240000FB6F894DEBF0FBECDBFCF91DF910895EA
:10125000DF93CF93CDB7DEB760970FB6F894DEBFBC
:101260000FBECDBFFC01808191819E01275F3F4F62
:10127000079759F4D901848195819C01F90188E08F
:1012800001900D928150E1F70CC088E090E09A83C4
:101290008983D901FE01319688E001900D92815039
:1012A000E1F729853A854B855C856D857E858F853F
:1012B000988960960FB6F894DEBF0FBECDBFCF9170
:1012C000DF910895DF93CF93CDB7DEB760970FB668
:1012D000F894DEBF0FBECDBFFC01808191810797DE
:1012E00019F088E090E009C00480F581E02D808548
:1012F00091859E838D8387E090E09A838983DE01C8
:101300001996FE01319688E001900D928150E1F727
:1013100029853A854B855C856D857E858F85988985
:1013200060960FB6F894DEBF0FBECDBFCF91DF91B0
:101330000895DF93CF93CDB7DEB7E8970FB6F89453
:10134000DEBF0FBECDBFFC0180819181079719F0F0
:1013500088E090E009C00480F581E02D80859185CA
:101360009E8F8D8F87E090E09A8F898FDE01919616
:10137000FE01799688E001900D928150E1F7DE013F
:101380001996FE01B19688E001900D928150E1F727
:10139000ED85FE85808191819E012F5C3F4F0797EF
:1013A00059F4D901848195819C01F90188E001906B
:1013B0000D928150E1F70CC088E090E09AA789A7D0
:1013C000D901FE01B99688E001900D928150E1F7B4
:1013D000DE011196FE01F19688E001900D92815098
:1013E000E1F7DE015196FE01319688E001900D9201
:1013F0008150E1F729893A894B895C896D897E8919
:101400008F89988DE8960FB6F894DEBF0FBECDBFDA
:10141000CF91DF910895DF93CF93CDB7DEB7A0973B
:101420000FB6F894DEBF0FBECDBFFC018081918165
:101430000797F1F082E090E09E8B8D8B89E090E041
:101440009A8B898BDE015996FE01719688E0019096
:101450000D928150E1F7DE011196FE01799688E048
:1014600001900D928150E1F789819A819C0111C010
:10147000848195819C01F90180E090E004C001968F
:101480000084F185E02D3097D1F79E838D8321E094
:1014900030E03A832983DE011996FE01319688E017
:1014A00001900D928150E1F729853A854B855C8545
:1014B0006D857E858F859889A0960FB6F894DEBFDE
:1014C0000FBECDBFCF91DF910895DF93CF93CDB7FE
:1014D000DEB7A0970FB6F894DEBF0FBECDBFFC01FC
:1014E0009E01275F3F4FAC0188E0DA010D90AD010E
:1014F000D9010D929D018150C1F749855A85DE01C0
:101500005196808591859C01F90188E001900D92AA
:101510008150E1F789899A8947305105B9F10797D8
:10152000A9F520914E0530914F05233631051CF069
:10153000E0E0F0E013C0F901EE0FFF1FC901A3E0E6
:10154000880F991FAA95E1F7E80FF91FE550FA4FA8
:101550002F5F3F4F30934F0520934E055A874987A1
:101560009F01AE01475F5F4F88E0DA010D90AD014A
:10157000D9010D929D018150C1F78D899E89918776
:101580008087FE83ED8387E090E002C088E090E0F2
:101590009A838983DE015996FE01319688E0019095
:1015A0000D928150E1F7298D3A8D4B8D5C8D6D8DBB
:1015B0007E8D8F8D98A1A0960FB6F894DEBF0FBEDA
:1015C000CDBFCF91DF910895DF93CF93CDB7DEB735
:1015D00060970FB6F894DEBF0FBECDBF9E838D839C
:1015E00087E090E09A838983DE011996FE013196A7
:1015F00088E001900D928150E1F729853A854B856D
:101600005C856D857E858F85988960960FB6F89488
:10161000DEBF0FBECDBFCF91DF9108950F931F9313
:10162000DF93CF93CDB7DEB7A0970FB6F894DEBFA8
:101630000FBECDBFFC0180819181019719F080E040
:1016400090E01BC004811581808591850E940E0B5E
:10165000298F3A8F4B8F5C8F6D8F7E8F8F8F98A3E2
:10166000DE011996FE01799688E001900D92815075
:10167000E1F78D859E85800F911F9E838D8381E08C
:1016800090E09A838983DE015196FE01319688E0CD
:1016900001900D928150E1F729893A894B895C8943
:1016A0006D897E898F89988DA0960FB6F894DEBFDC
:1016B0000FBECDBFCF91DF911F910F910895EF9293
:1016C000FF920F931F93CF93DF938C01009719F430
:1016D000EE24FF2443C0E0E0F0E0EE24FF2420915C
:1016E0004E0530914F05233631051CF0C0E0D0E0A7
:1016F00013C0E901CC0FDD1FC90143E0880F991F1A
:101700004A95E1F7C80FD91FC550DA4F2F5F3F4FF9
:1017100030934F0520934E05E114F10409F47E0146
:10172000309711F0D187C087DE01F80188E0019081
:101730000D928150E1F7F80180819181079731F492
:10174000848195810E945F0B9D838C83F8010085C5
:101750001185FE010115110509F0C1CFC701DF9107
:10176000CF911F910F91FF90EF900895DF93CF934A
:10177000CDB7DEB760970FB6F894DEBF0FBECDBF12
:101780000E945F0B9E838D8387E090E09A8389831C
:10179000DE011996FE01319688E001900D9281508C
:1017A000E1F729853A854B855C856D857E858F853A
:1017B000988960960FB6F894DEBF0FBECDBFCF916B
:1017C000DF9108950F931F93DF93CF93CDB7DEB7CB
:1017D00068970FB6F894DEBF0FBECDBF29873A8752
:1017E0004B875C876D877E878F87988B89859A85E5
:1017F0008E010F5F1F4F87309105A9F48D859E855F
:101800000E94B60B298B3A8B4B8B5C8B6D8B7E8B3E
:101810008F8B988FD801FE01719688E001900D9210
:101820008150E1F70AC09A878987D801FE0139966D
:1018300088E001900D928150E1F729813A814B8136
:101840005C816D817E818F81988568960FB6F89452
:10185000DEBF0FBECDBFCF91DF911F910F910895D5
:10186000DF93CF93CDB7DEB760970FB6F894DEBFA6
:101870000FBECDBF009719F428E030E00BC0DE01A9
:101880001196FC0188E001900D928150E1F7898169
:101890009A819C013A832983DE011996FE013196D3
:1018A00088E001900D928150E1F729853A854B85BA
:1018B0005C856D857E858F85988960960FB6F894D6
:1018C000DEBF0FBECDBFCF91DF910895DF93CF93E1
:1018D000CDB7DEB760970FB6F894DEBF0FBECDBFB1
:1018E000FC0188E090E0AE014F5F5F4F10C09A01AD
:1018F000BF0188E0DB010D90BD01D9010D929D0172
:101900008150C1F70084F185E02D89819A8130975B
:1019100071F79A838983DE011996FA0188E00190B4
:101920000D928150E1F729853A854B855C856D855F
:101930007E858F85988960960FB6F894DEBF0FBEBE
:10194000CDBFCF91DF910895DF93CF93CDB7DEB7B1
:1019500060970FB6F894DEBF0FBECDBF0E94052082
:101960009E838D8381E090E09A838983DE011996BE
:10197000FE01319688E001900D928150E1F72985B2
:101980003A854B855C856D857E858F8598896096C7
:101990000FB6F894DEBF0FBECDBFCF91DF91089593
:1019A000DF93CF93CDB7DEB760970FB6F894DEBF65
:1019B0000FBECDBFFC0180819181019721F484810C
:1019C00095810E94EF0488E090E09A838983DE018C
:1019D0001996FE01319688E001900D928150E1F751
:1019E00029853A854B855C856D857E858F859889AF
:1019F00060960FB6F894DEBF0FBECDBFCF91DF91DA
:101A00000895AF92BF92CF92DF92EF92FF920F9321
:101A10001F93DF93CF93CDB7DEB728970FB6F89417
:101A2000DEBF0FBECDBF5C0109831A832B833C83CD
:101A30004D835E836F837887E0905005F090510569
:101A400027E9C22E25E0D22E00E010E022C0F601E8
:101A500060817181C5010E94CB259C018AE090E0E4
:101A6000C80ED91E232B99F4F801EE0FFF1FEE0FBD
:101A7000FF1FE00FF11FEE0FFF1FE756FA4FDE01C9
:101A8000119688E00D9001928150E1F735C00F5F0B
:101A90001F4F0E151F05DCF29AE0E916F10444F51C
:101AA000F701EE0FFF1FC701A3E0880F991FAA954A
:101AB000E1F7E80FF91FE956FA4FB182A082F7016A
:101AC000EE0FFF1FEE0FFF1FEE0DFF1DEE0FFF1FAE
:101AD000E756FA4FDE01119688E00D900192815091
:101AE000E1F70894E11CF11CF0925105E0925005D9
:101AF0000091500510915105C80128960FB6F89431
:101B0000DEBF0FBECDBFCF91DF911F910F91FF9030
:101B1000EF90DF90CF90BF90AF900895AF92BF92BB
:101B2000CF92DF92EF92FF920F931F93DF93CF93A9
:101B3000CDB7DEB760970FB6F894DEBF0FBECDBF4E
:101B40005C01C0905005D090510557E9E52E55E055
:101B5000F52E00E010E022C0F70160817181C5011F
:101B60000E94CB259C018AE090E0E80EF91E232B11
:101B700099F4F801EE0FFF1FEE0FFF1FE00FF11FAA
:101B8000EE0FFF1FDE011996E756FA4F88E001902D
:101B90000D928150E1F712C00F5F1F4F0C151D050C
:101BA000DCF288E090E09A838983DE011996FE01D9
:101BB000319688E001900D928150E1F729853A85B0
:101BC0004B855C856D857E858F85988960960FB67F
:101BD000F894DEBF0FBECDBFCF91DF911F910F9163
:101BE000FF90EF90DF90CF90BF90AF9008950F934C
:101BF0001F93DF93CF93CDB7DEB7A0970FB6F894BE
:101C0000DEBF0FBECDBFFC011E821D829E01275F7D
:101C10003F4FAC0188E0DA010D90AD01D9010D9282
:101C20009D018150C1F709851A85DE015196808595
:101C300091859C01F90188E001900D928150E1F7B6
:101C400089899A890817190709F03DC006301105DE
:101C500019F00115110571F46D897E898D859E85B8
:101C60000E94CB251E821D82009721F481E090E026
:101C70009E838D83C8010197029768F41E821D829E
:101C80002D853E858D899E892817390721F481E0AD
:101C900090E09E838D83C8010397029768F41E82AB
:101CA0001D822D853E858D899E892817390721F44F
:101CB00081E090E09E838D830830110521F481E05E
:101CC00090E09E838D8382E090E09A838983DE0199
:101CD0005996FE01319688E001900D928150E1F70E
:101CE000298D3A8D4B8D5C8D6D8D7E8D8F8D98A15C
:101CF000A0960FB6F894DEBF0FBECDBFCF91DF9197
:101D00001F910F9108950E9467000895CF92DF926E
:101D1000EF92FF920F931F93DF93CF93CDB7DEB770
:101D20002A970FB6F894DEBF0FBECDBF7C016B01C2
:101D30009C0197FF04C022273327281B390B8E01F3
:101D40000F5F1F4F12C0C9016AE070E00E94E025DA
:101D5000805DD8018C938F01C9016AE070E00E9418
:101D6000E0259B010894C108D108F80131962A307A
:101D700031054CF7C9016AE070E00E94E025805D02
:101D8000D8018C938F01F7FE04C08DE280830F5F32
:101D90001F4FB60103C0F80141938F01615070409D
:101DA00016161706C4F306C0D8018E918D010E9445
:101DB000670004C07E010894E11CF11CE016F106E6
:101DC00098F32A960FB6F894DEBF0FBECDBFCF9121
:101DD000DF911F910F91FF90EF90DF90CF900895CA
:101DE00040E060E070E00E94860E0895CF93DF939C
:101DF000EC0102C00E94670089918823D9F7DF9126
:101E0000CF9108950E94F60E8091830540E362E031
:101E100070E090E00E94860E8CE791E00E94F60E42
:101E200080918E0540E362E070E090E00E94860EB3
:101E300008950E94F60E8DE00E9467008AE00E94DD
:101E4000670008950F931F93DF93CF93CDB7DEB74D
:101E500028970FB6F894DEBF0FBECDBF29833A8313
:101E60004B835C836D837E838F83988729813A813E
:101E70008B819C812730310509F5019721F48EE78C
:101E800091E00E94F60E80E891E00E94F60E2D810E
:101E90003E812115310579F02B5F35403595279529
:101EA0008DEC9CECAC01249FC001259F900D349FCC
:101EB000900D112408C086E891E04BC02130310517
:101EC00029F48D819E810E94F00E4AC02630310592
:101ED00049F02115310549F4019721F48EE791E08D
:101EE0000E94F60E8D819E8134C02230310551F45E
:101EF0008D819E81892B19F48BE891E02AC081E9BC
:101F000091E027C02830310519F486E991E021C01D
:101F1000C9010397029718F48AE991E01AC02930A1
:101F20003105D1F483EA91E00E94F60E0D811E8105
:101F3000C8010E94F00E8BEA91E00E94F60E0C3070
:101F4000110570F4000F111F0D5F1C4FF801808107
:101F500091810E94F60E04C081EB91E00E94190F5E
:101F600028960FB6F894DEBF0FBECDBFCF91DF919C
:101F70001F910F910895EF92FF920F931F93DF939C
:101F8000CF93CDB7DEB7E0970FB6F894DEBF0FBEA4
:101F9000CDBF7C01DE011996FC0188E001900D9215
:101FA0008150E1F749855A8541155105E1F5D70181
:101FB0001896ED91FC91199700811181228133814E
:101FC00044815581668177818D859E850E94010DB2
:101FD000F70120853185DE011196F90188E0019035
:101FE0000D928150E1F749815A81D90118968D915E
:101FF0009C911997009719F4942F852F42C00E9445
:10200000BB0F29A73AA74BA75CA76DA77EA78FA7F1
:1020100098ABDE015196FE01B99688E001900D92D1
:102020008150E1F739C080914C0590914D05892B85
:1020300061F0242F5A8749873A854B855C856D85E9
:102040007E858F8598890E94220F84E090E09E8F84
:102050008D8F89E090E09A8F898FDE019196FE0145
:10206000799688E001900D928150E1F7DE0111969A
:10207000FE01B19688E001900D928150E1F79981BF
:102080008A8199838A83DE015196FE01319688E028
:1020900001900D928150E1F729893A894B895C8939
:1020A0006D897E898F89988DE0960FB6F894DEBF92
:1020B0000FBECDBFCF91DF911F910F91FF90EF9099
:1020C0000895CF92DF92EF92FF920F931F93DF93C9
:1020D000CF93CDB7DEB760970FB6F894DEBF0FBED3
:1020E000CDBF29873A874B875C876D877E878F872F
:1020F000988BC984DA84EB84FC8487E0C816D10409
:1021000039F50D851E85E1E0EE16F10421F48EE728
:1021100091E00E94F60E81EC91E002C083EC91E028
:102120000E94F60EF8012081318142815381648141
:102130007581868197810E946110F8010085118563
:102140000115110559F785EC91E00E94F60E0EC0BD
:102150002C2DDA86C9864E2DFC86EB863A855C8569
:102160006D857E858F8598890E94220FDA86C986C3
:10217000FC86EB86DE011196FE01399688E001901F
:102180000D928150E1F729813A814B815C816D810B
:102190007E818F81988560960FB6F894DEBF0FBE62
:1021A000CDBFCF91DF911F910F91FF90EF90DF9006
:1021B000CF9008950F931F93DF93CF93CDB7DEB7E2
:1021C00068970FB6F894DEBF0FBECDBF8C01FC013F
:1021D000208131814281538164817581868197811B
:1021E0000E946110F80180859185009741F4DE011D
:1021F000199688E001900D928150E1F71CC00E9471
:10220000DA10298B3A8B4B8B5C8B6D8B7E8B8F8B93
:10221000988FDE011196FE01719688E001900D9273
:102220008150E1F7DE011996FE01319688E00190B8
:102230000D928150E1F729853A854B855C856D8546
:102240007E858F85988968960FB6F894DEBF0FBE9D
:10225000CDBFCF91DF911F910F9108958F929F92E3
:10226000AF92BF92CF92DF92EF92FF920F931F93A4
:10227000DF93CF93CDB7DEB7C05CD1400FB6F894F3
:10228000DEBF0FBECDBF8E010F541E4FD8012C9361
:1022900011963C93119712964C93129713965C9358
:1022A000139714966C93149715967C93159716961E
:1022B0008C93169717969C9317971296CD90DC9057
:1022C0001397ED90FC9080914C0590914D05892BD2
:1022D000B9F087EC91E00E94F60E4C2DF801D38204
:1022E000C2822E2DF182E082318153816481758119
:1022F000868197810E94220F81ED91E00E94190F43
:10230000F1E0CF16D104C9F480914C0590914D05B0
:10231000892B21F083ED91E00E94190FFE01EF540B
:10232000FE4F13821282F182E082DE01199688E06C
:1023300001900D928150E1F754C187E0E816F10455
:1023400009F45FC0E114F10409F04CC0FE01EF5440
:10235000FE4F04811581C8010E948E0DDE01A75435
:10236000BE4F2C93FE01E654FE4F3083FE01E55430
:10237000FE4F4083FE01E454FE4F5083FE01E354C0
:10238000FE4F6083FE01E254FE4F7083FE01E15474
:10239000FE4F8083FE01E054FE4F90839E012F5F2D
:1023A0003F4FFD0188E00190D9010D929D018150C0
:1023B000D1F789819A818830910541F489ED91E0C6
:1023C0000E94F60EC8010E94190F0CC09A838983DF
:1023D000DE011996FE01319688E001900D92815040
:1023E000E1F7FFC0FE01EF54FE4FD382C282F182BB
:1023F000E082DE01199688E001900D928150E1F7AC
:10240000F0C0FE01EF54FE4F04811581D80188E031
:102410000D9001928150E1F7FE01EF54FE4F2281B1
:10242000338160817181CB010397029708F09FC0CF
:10243000A480B580F801908481846330710519F01F
:10244000CC24DD2443C0E1E2EE2EF12CEC0EFD1E87
:10245000CC24DD242FC0D701F80188E001900D9233
:102460008150E1F7D8012C9111963C911197129669
:102470004C91129713965C91139714966C91149744
:1024800015967C91159716968C91169717969C9198
:102490000E942E11F8012083318342835383648389
:1024A0007583868397830894C11CD11C88E090E0D3
:1024B000E80EF91ED80118960D911C911997011577
:1024C000110521F0B1E3CB16D10429F6892D982D01
:1024D000F5010995DE01A754BE4F2C93FE01E65489
:1024E000FE4F3083FE01E554FE4F4083FE01E4546D
:1024F000FE4F5083FE01E354FE4F6083FE01E25421
:10250000FE4F7083FE01E154FE4F8083FE01E054D4
:10251000FE4F90839E012F5F3F4FFD0188E00190A9
:10252000D9010D929D018150D1F709811A81BE0117
:102530006F5D7F4F892D982D9C01F90120E030E0DF
:1025400012C0AF017B0188E0D7010D907D01DA0157
:102550000D92AD018150C1F70084F185E02D2F5F10
:102560003F4F685F7F4F2C153D055CF32FC0809176
:102570004C0590914D05892B71F0422F22833383B6
:10258000262F7183608331815381648175818681B7
:1025900097810E94220F85E090E09E8B8D8B89E0D1
:1025A00090E09A8B898BDE015996FE01719688E046
:1025B00001900D928150E1F7DE011996FE017996A6
:1025C00088E001900D928150E1F70BC01A830983D6
:1025D000DE011996FE01319688E001900D9281503E
:1025E000E1F729853A854B855C856D857E858F85EC
:1025F0009889C054DE4F0FB6F894DEBF0FBECDBF32
:10260000CF91DF911F910F91FF90EF90DF90CF90CE
:10261000BF90AF909F908F9008950F931F93DF937B
:10262000CF93CDB7DEB768970FB6F894DEBF0FBE75
:10263000CDBF8C01FC0120813181428153816481B5
:102640007581868197810E942E11298B3A8B4B8B45
:102650005C8B6D8B7E8B8F8B988FDE011196FE01CC
:10266000719688E001900D928150E1F7F801808524
:1026700091858E01075F1F4F009799F00E940D13FF
:10268000298B3A8B4B8B5C8B6D8B7E8B8F8B988FD2
:10269000D801FE01719688E001900D928150E1F71A
:1026A00008C0D801FE01319688E001900D9281505A
:1026B000E1F729853A854B855C856D857E858F851B
:1026C000988968960FB6F894DEBF0FBECDBFCF9144
:1026D000DF911F910F910895DF93CF93CDB7DEB7B0
:1026E00060970FB6F894DEBF0FBECDBFFC0110920D
:1026F0008605109285052081318142815381648154
:102700007581868197810E942E1180918505909117
:1027100086059E838D8381E090E09A838983DE0124
:102720001996FE01319688E001900D928150E1F7F3
:1027300029853A854B855C856D857E858F85988951
:1027400060960FB6F894DEBF0FBECDBFCF91DF917C
:102750000895AF92BF92CF92DF92EF92FF920F93C4
:102760001F93DF93CF93CDB7DEB7E0970FB6F89402
:10277000DEBF0FBECDBFFC019E012F5F3F4FAC01FE
:1027800088E0DA010D90AD01D9010D929D018150D3
:10279000C1F7DE011996808591859C01F90188E0D9
:1027A00001900D928150E1F729813A814B815C8142
:1027B0006D817E818F8198850E942E1129A73AA76D
:1027C0004BA75CA76DA77EA78FA798ABDE01599694
:1027D000FE01B99688E001900D928150E1F7498D94
:1027E0005A8D28E030E0B1E1AB2EB12CAC0EBD1E0D
:1027F000A9E2EA2EF12CEC0EFD1EF9E1CF2ED12C30
:10280000CC0EDD1E39C029853A854B855C856D85EA
:102810007E858F8598890E942E1129A73AA74BA7FC
:102820005CA76DA77EA78FA798ABD501F70188E0BD
:1028300001900D928150E1F719890A8929813A8125
:102840004B815C816D817E818F8198850E942E11E4
:1028500029A73AA74BA75CA76DA77EA78FA798AB20
:10286000D601F70188E001900D928150E1F7498D82
:102870005A8D812F902F9C014230510529F48D8D66
:102880009E8D019709F4BFCFCA010897029720F0E7
:102890004230510509F0B7CF3A8B298BDE01919672
:1028A000FE01719688E001900D928150E1F729A117
:1028B0003AA14BA15CA16DA17EA18FA198A5E09644
:1028C0000FB6F894DEBF0FBECDBFCF91DF911F9141
:1028D0000F91FF90EF90DF90CF90BF90AF90089551
:1028E000EF92FF920F931F93DF93CF93CDB7DEB795
:1028F00068970FB6F894DEBF0FBECDBF8C017E0186
:102900000894E11CF11C009769F488E090E09A8338
:102910008983DE011996F70188E001900D928150BC
:10292000E1F78EC0DC012C9111963C911197129623
:102930004C91129713965C91139714966C9114977F
:1029400015967C91159716968C91169717969C91D3
:102950000E942E11298B3A8B4B8B5C8B6D8B7E8B5F
:102960008F8B988FD701FE01719688E001900D92B0
:102970008150E1F729813A812230310521F48D819E
:102980009E81019739F0C90108970297B0F1223072
:10299000310599F1D8011896ED91FC91199730976E
:1029A00019F4922F832F1DC02081318142815381E0
:1029B00064817581868197810E942E11298B3A8BC3
:1029C0004B8B5C8B6D8B7E8B8F8B988FDE01119682
:1029D000FE01719688E001900D928150E1F7998196
:1029E0008A8199838A83DE011996FE01319688E0F7
:1029F00001900D928150E1F723C0D8011896ED9116
:102A0000FC911997808591850E947014298B3A8BCF
:102A10004B8B5C8B6D8B7E8B8F8B988FDE01119631
:102A2000FE01719688E001900D928150E1F7DE0180
:102A30001996FE01319688E001900D928150E1F7E0
:102A400029853A854B855C856D857E858F8598893E
:102A500068960FB6F894DEBF0FBECDBFCF91DF9161
:102A60001F910F91FF90EF900895EF92FF920F93B7
:102A70001F93DF93CF93CDB7DEB7E8970FB6F894E7
:102A8000DEBF0FBECDBF7C01DE011996FC0188E0E0
:102A900001900D928150E1F749855A854115510504
:102AA00009F057C0D7011896ED91FC911997208134
:102AB00031814281538164817581868197810E9431
:102AC0002E1129AB3AAB4BAB5CAB6DAB7EAB8FAB96
:102AD00098AFDE015196FE01F19688E001900D92CB
:102AE0008150E1F709891A892B893C894D895E89D2
:102AF0006F89788D8D859E850E94010DF701208557
:102B00003185DE011196F90188E001900D92815026
:102B1000E1F749815A81D90118968D919C911997B5
:102B2000009719F4942F852F42C00E94351529ABC8
:102B30003AAB4BAB5CAB6DAB7EAB8FAB98AFDE0112
:102B40005996FE01F19688E001900D928150E1F7CF
:102B500039C080914C0590914D05892B61F0242F4F
:102B60005A8749873A854B855C856D857E858F853B
:102B700098890E94220F84E090E09EA38DA389E0B3
:102B800090E09AA389A3DE019996FE01B19688E0B0
:102B900001900D928150E1F7DE011196FE01B99688
:102BA00088E001900D928150E1F799818A819983A3
:102BB0008A83DE015996FE01319688E001900D92DC
:102BC0008150E1F7298D3A8D4B8D5C8D6D8D7E8D19
:102BD0008F8D98A1E8960FB6F894DEBF0FBECDBFDB
:102BE000CF91DF911F910F91FF90EF900895DF93A8
:102BF000CF93CDB7DEB768970FB6F894DEBF0FBEA0
:102C0000CDBF0E94DA10298B3A8B4B8B5C8B6D8B7E
:102C10007E8B8F8B988FDE011196FE01719688E076
:102C200001900D928150E1F78AEE91E00E94190F18
:102C3000DE011996FE01319688E001900D928150D7
:102C4000E1F729853A854B855C856D857E858F8585
:102C5000988968960FB6F894DEBF0FBECDBFCF91AE
:102C6000DF910895CF92DF92EF92FF920F931F931F
:102C7000CF93DF9380913F0490914004835E99400D
:102C80000E94F00E8BEE91E00E94190F80914C058E
:102C900090914D05892B09F482C0C3EED9E018C08C
:102CA000CE01835E99400E94F00E82EF91E00E9477
:102CB000F60ECE0101960E94F60E86EF91E00E947C
:102CC000190F888190E08F7790700396C80FD91FF5
:102CD00080913F0490914004C817D90708F3809170
:102CE0004E0590914F050E94F00E88EF91E00E94F2
:102CF000190F53E0E52E56E0F52E00E010E04DEC04
:102D0000C42E4CECD42E43C0C8010E94F00E8FEFAD
:102D100091E00E94F60EF801EE0FFF1FC80123E0BC
:102D2000880F991F2A95E1F7E80FF91FE550FA4F30
:102D300020813181428153816481758186819781AF
:102D40000E94220FF701C081D181209791F081E08C
:102D500092E00E94F60ECB5FD540D595C795CC9DED
:102D6000C001CD9D900DDC9D900D11240E94F00EB0
:102D700004C085E092E00E94F60E8AEE91E00E9487
:102D8000190F0F5F1F4F8AE090E0E80EF91E809147
:102D90004E0590914F05081719070CF4B5CFDF9138
:102DA000CF911F910F91FF90EF90DF90CF900895FA
:102DB0000F931F93CF93DF938CE092E00E94F60E67
:102DC0008091A3039091A4030E94F60EC9EAD3E078
:102DD00009C087E192E00E94F60E888199810E94E5
:102DE000F60E269684E0CF33D80799F78AEE91E065
:102DF0000E94190F809150059091510518161906DF
:102E000034F58AE192E00E94F60E80919705909148
:102E100098050E94F60E01EA15E0C1E0D0E00CC072
:102E200087E192E00E94F60EF801808191810E9474
:102E3000F60E2196065F1F4F809150059091510527
:102E4000C817D9076CF38AEE91E00E94190F84E24B
:102E500092E00E94020F8AEE91E00E94190F0E94F8
:102E60003216DF91CF911F910F910895DF93CF9389
:102E7000CDB7DEB760970FB6F894DEBF0FBECDBFFB
:102E8000FC01009751F080819181019731F4848198
:102E9000958190934D0580934C050E94D81688E04B
:102EA00090E09A838983DE011996FE01319688E0CD
:102EB00001900D928150E1F729853A854B855C851B
:102EC0006D857E858F85988960960FB6F894DEBFF4
:102ED0000FBECDBFCF91DF910895CF93DF939C01BB
:102EE000EB01E0913F04F0914004CF01835E9940F3
:102EF000820F931F8E5F93401CF08BE292E005C01F
:102F0000203831053CF088E392E00E94190FA0E0E0
:102F1000B0E02CC0C90160E071E00E94E02580684B
:102F2000DF018D932E5F3F4F80913F0490914004CD
:102F3000820F931F225030409093400480933F04AF
:102F4000FD0102C08193219637FD05C08881215083
:102F500030408823B9F71082E0913F04F09140049B
:102F600084E28193F0934004E0933F04CD01DF912C
:102F7000CF9108958F929F92AF92BF92CF92DF929E
:102F8000EF92FF920F931F93DF93CF93CDB7DEB7EE
:102F9000A4970FB6F894DEBF0FBECDBFDE015196E9
:102FA000882499241DC0C901815490404A9748F053
:102FB000C901815690404A9720F0C901C0970A97ED
:102FC00028F42D930894811C911C0AC0455E5D4035
:102FD000F1F0E8F0F0934A0EE093490E208317C019
:102FE000E091490EF0914A0E8081882381F0282FCC
:102FF00030E0AF014F5F5F4F50934A0E4093490E50
:103000002115310521F094E18916910461F61C9295
:1030100001E1A02EB12CAC0EBD1E60E472E0C50132
:103020000E94CB25009729F481E090E09E838D8358
:1030300013C065E472E0C5010E94CB25009751F0F2
:1030400013EAC12E13E0D12EEE24EA94FE2C00E008
:1030500010E005C01E821D8222E030E041C0B501B3
:10306000F601808191810E94CB25009709F47801B7
:103070000F5F1F4F86E090E0C80ED91E0A31110580
:1030800071F79FEFE9169FEFF90601F1F701EE0FD7
:10309000FF1FEE0DFF1DEE0FFF1FED55FC4F84814E
:1030A0009581892B19F024E030E002C023E030E064
:1030B000F701EE0FFF1FEE0DFF1DEE0FFF1FEB558B
:1030C000FC4F808191819E838D830AC0BE016F5E1B
:1030D0007F4FC4010E946D179E838D8320E030E0F6
:1030E0001C821B823A832983DE011996FE013196E8
:1030F00088E001900D928150E1F729853A854B8552
:103100005C856D857E858F859889A4960FB6F89429
:10311000DEBF0FBECDBFCF91DF911F910F91FF900A
:10312000EF90DF90CF90BF90AF909F908F900895D9
:10313000DF93CF93CDB7DEB764970FB6F894DEBFB9
:103140000FBECDBFDE01119680E090E00DC02232AF
:10315000310541F41C92BE016F5F7F4F0E946D17D5
:103160009C0117C02D930196E091490EF0914A0EF3
:103170002081222361F030E03196F0934A0EE093F3
:10318000490E2115310519F08431910501F720E030
:1031900030E0C90164960FB6F894DEBF0FBECDBF14
:1031A000CF91DF9108950F931F93DF93CF93CDB706
:1031B000DEB768970FB6F894DEBF0FBECDBF11C063
:1031C000422F822F90E08032910549F0893091059D
:1031D00031F08D30910519F00A9709F0C6C00E94B0
:1031E000CE0800E010E08DC02D32310521F0C9017C
:1031F000C0970A97F8F48DE0E53EF80739F030F013
:103200003197F0934A0EE093490E40830E943808AC
:103210009E838D8381E090E09A8389831C821B8248
:10322000DE011996FE01319688E001900D928150E1
:10323000E1F788C022323105A1F40E9498189E83DC
:103240008D8386E090E09A8389831C821B82DE0155
:103250001996FE01319688E001900D928150E1F7B8
:1032600071C027323105B9F028323105B1F40E941E
:10327000591A9E838D8387E090E09A8389831C830B
:103280000B83DE011996FE01319688E001900D92C4
:103290008150E1F757C001E010E0C901815490402E
:1032A0004A9728F0215630402A31310550F58DE0FB
:1032B000E53EF80739F030F03197F0934A0EE0938D
:1032C000490E40830E94BA17298B3A8B4B8B5C8B3B
:1032D0006D8B7E8B8F8B988FDE011196FE01719620
:1032E00088E001900D928150E1F71C830B83DE0191
:1032F0001996FE01319688E001900D928150E1F718
:1033000021C0E091490EF0914A0E8081882359F046
:10331000282F30E03196F0934A0EE093490E2115A4
:10332000310509F04DCF88E090E09A8389831C82B3
:103330001B82DE011996FE01319688E001900D9204
:103340008150E1F729853A854B855C856D857E85C1
:103350008F85988968960FB6F894DEBF0FBECDBFF3
:10336000CF91DF911F910F9108952B32310509F014
:103370003BCF41CFDF93CF93CDB7DEB768970FB682
:10338000F894DEBF0FBECDBF0E94D318298B3A8BB5
:103390004B8B5C8B6D8B7E8B8F8B988FDE011196A8
:1033A000FE01719688E001900D928150E1F729812C
:1033B0003A814B815C816D817E818F8198850E94ED
:1033C0002E11298B3A8B4B8B5C8B6D8B7E8B8F8B6D
:1033D000988FDE011996FE01719688E001900D929A
:1033E0008150E1F729853A854B855C856D857E8521
:1033F0008F85988968960FB6F894DEBF0FBECDBF53
:10340000CF91DF910895DF93CF93CDB7DEB760976B
:103410000FB6F894DEBF0FBECDBFDC011092E40DF5
:103420001092E30D8091E30D9091E40D2D91FC013C
:10343000EB51F24F2083FC013196F093E40DE093C1
:10344000E30D222379F7EB51F24F108285EE9DE0D8
:1034500090934A0E8093490E0E94BA1929873A87A1
:103460004B875C876D877E878F87988BDE011196EF
:10347000FE01399688E001900D928150E1F7298193
:103480003A814B815C816D817E818F8198856096C8
:103490000FB6F894DEBF0FBECDBFCF91DF91089578
:1034A0008BE492E00E94031A86E592E00E94031AE0
:1034B00008950F931F93CF93DF9320914E05309182
:1034C0004F05233631051CF000E010E013C08901E0
:1034D000000F111FC90163E0880F991F6A95E1F77A
:1034E000080F191F05501A4F2F5F3F4F30934F059C
:1034F00020934E05E801A0E0B0E03CC0893209F419
:103500004BC0255E3D4031F028F0F0934A0EE09329
:10351000490E8083109709F120914E0530914F0597
:10352000233631051CF0C0E0D0E013C0E901CC0F18
:10353000DD1FC90143E0880F991F4A95E1F7C80FC5
:10354000D91FC550DA4F2F5F3F4F30934F0520935F
:103550004E051996DC93CE9318970E94D3182883B2
:1035600039834A835B836C837D838E839F83198633
:103570001886DE01E091490EF0914A0E8081882381
:1035800059F090E09F012F5F3F4F30934A0E2093F8
:10359000490E009709F0B2CFC801DF91CF911F917A
:1035A0000F91089581E892E00E94190FDD98DE984E
:1035B00088E180939A008AB980914C0590914D05DD
:1035C000892B11F00E94501A0E94D81608951F935B
:1035D0001092E40D1092E30D85EE9DE090934A0E5B
:1035E0008093490E34C080919B0087FFFCCF1091DF
:1035F0009C00812F90E08D30910539F48DE00E9480
:1036000067008AE00E94670029C08830910519F0A0
:103610008F37910561F412161306CCF4812F0E94A6
:1036200067008091E30D9091E40D01970CC0812F0C
:103630000E9467008091E30D9091E40DFC01EB5135
:10364000F24F108301969093E40D8093E30D209147
:10365000E30D3091E40D233631052CF2E091E30DBA
:10366000F091E40DEB51F24F10821F910895EF920B
:10367000FF920F931F93DF93CF93CDB7DEB7609781
:103680000FB6F894DEBF0FBECDBF7E010894E11CDB
:10369000F11C8E01075F1F4F83E992E00E94F60E36
:1036A0000E94E71A1FC00E94BA1929873A874B87E0
:1036B0005C876D877E878F87988BD701F80188E0BC
:1036C00001900D928150E1F729813A814B815C8113
:1036D0006D817E818F8198850E9461108AEE91E0D4
:1036E0000E94190F8091490E90914A0E855E9D406F
:1036F0002091E30D3091E40D821793076CF6D3CF40
:103700000E94D21A0E94371B0895CF92DF92EF9247
:10371000FF920F931F93CF93DF93E82EF62E6A014B
:10372000022F8FEF0E946F00F294FF0CE0EEFE225A
:103730008F2D8F610E946F008E2D8F5F0E946F0012
:10374000FF2410E00894E11CF11C0E9DC0010F9DA8
:10375000900D1E9D900D11240894E108F108C80EEB
:10376000D91EC0E0D0E000E0F60180810E946F0029
:10377000F60181916F0108272196EC16FD06A4F74A
:10378000802F8F770E946F00DF91CF911F910F9153
:10379000FF90EF90DF90CF9008952F923F925F922D
:1037A0006F927F928F929F92AF92BF92CF92DF9251
:1037B000EF92FF920F931F93DF93CF93CDB7DEB7B6
:1037C000C054D0400FB6F894DEBF0FBECDBFFC0191
:1037D0002DB63EB624810084F185E02DC48000849E
:1037E000F185E02D80819181079709F09FC0AFE1BD
:1037F0007A2E72226DB65EB6A72CBB24C501029646
:103800002DB73EB7281B390B0FB6F8943EBF0FBE3D
:103810002DBF8DB69EB60894811C911C24813581E4
:10382000C9018C01EE24FF2401151105C9F41E8A7B
:103830001D8A89E090E09A8B898BDE015996FE0102
:10384000719688E001900D928150E1F7DE011996A2
:10385000FE01799688E001900D928150E1F75DC0FC
:10386000F801808191810197F9F4D48025818091BC
:103870004C0590914D05892B41F08D2D922F0E9482
:10388000F00E8FEF91E00E94F60EF401EE0DFF1D99
:10389000D082F801008511850894E11CF11CAE145A
:1038A000BF040CF0C1CF1BC081E090E09EA38DA3AC
:1038B00089E090E09AA389A3DE019996FE01B19672
:1038C00088E001900D928150E1F7DE011996FE012A
:1038D000B99688E001900D928150E1F71EC0F3E0A7
:1038E000CF2220E0A4016C2D872D0E94851B262D60
:1038F000352DC9010FB6F8949EBF0FBE8DBF88E06D
:1039000090E09A838983DE011996FE01319688E062
:1039100001900D928150E1F723C0862D952D9C01D9
:103920000FB6F8943EBF0FBE2DBF1AC082E090E0E4
:103930009EAB8DAB89E090E09AAB89ABDE01D99666
:10394000FE01F19688E001900D928150E1F7DE01D1
:103950001996FE01F99688E001900D928150E1F7E9
:1039600029853A854B855C856D857E858F8598890F
:103970000FB6F8943EBE0FBE2DBEC05CDF4F0FB633
:10398000F894DEBF0FBECDBFCF91DF911F910F9195
:10399000FF90EF90DF90CF90BF90AF909F908F906F
:1039A0007F906F905F903F902F900895EF92FF92DD
:1039B0000F931F93E82E162F042FF22E8FEF0E94E5
:1039C0006F008E2D0E946F00812F0E946F00802F4C
:1039D0000E946F008F2D0E946F001E2510271F254B
:1039E000812F8F770E946F001F910F91FF90EF90B2
:1039F0000895DF93CF93CDB7DEB7C054D0400FB654
:103A0000F894DEBF0FBECDBFFC018081918101978C
:103A100009F099C02481358137FD95C020323105E8
:103A20000CF091C00084F185E02D80819181029796
:103A3000D9F083E090E09E8B8D8B89E090E09A8BAB
:103A4000898BDE015996FE01719688E001900D92F6
:103A50008150E1F7DE011996FE01799688E0019028
:103A60000D928150E1F79AC0648175810084F185DF
:103A7000E02D808191810297D9F083E090E09EA3B0
:103A80008DA389E090E09AA389A3DE019996FE01B7
:103A9000B19688E001900D928150E1F7DE01199610
:103AA000FE01B99688E001900D928150E1F776C051
:103AB00084819581892B11F440E001C042E080E0CF
:103AC000672B09F081E0482BC9016FE170E00E948B
:103AD000E02520E064E6806E0E94D61C84E690E03B
:103AE000909389058093880509C0809188059091FD
:103AF0008905892B19F42FEF3FEF05C05F9BF5CFA8
:103B00008CB1282F30E084E690E090938905809373
:103B1000880509C08091880590918905892B19F441
:103B20008FEF9FEF04C05F9BF5CF8CB190E02F5FCC
:103B30003F4F39F12FEF8F3F920719F19E838D830D
:103B400021E030E020C083E090E09EAB8DAB89E0C7
:103B500090E09AAB89ABDE01D996FE01F19688E040
:103B600001900D928150E1F7DE011196FE01F99668
:103B700088E001900D928150E1F789819A819C0142
:103B800002C028E030E03A832983DE011996FE0165
:103B9000319688E001900D928150E1F729853A85B0
:103BA0004B855C856D857E858F859889C05CDF4FF0
:103BB0000FB6F894DEBF0FBECDBFCF91DF91089551
:103BC0000F931F93082F162F8FEF0E946F00802FE7
:103BD0000E946F00812F0E946F001027812F8F7726
:103BE0000E946F001F910F910895DF93CF93CDB77F
:103BF000DEB7A0970FB6F894DEBF0FBECDBFFC01B5
:103C0000248135810084F185E02D648175810084F3
:103C1000F185E02D848195812F31310550F477FDB8
:103C200008C06F3F71052CF497FD03C085309105E6
:103C3000F4F083E090E09E8B8D8B89E090E09A8B8E
:103C4000898BDE015996FE01719688E001900D92F4
:103C50008150E1F7DE011196FE01799688E001902E
:103C60000D928150E1F789819A819C0145C035E030
:103C7000880F991F3A95E1F7822B0E94E01D84E698
:103C800090E0909389058093880509C0809188050C
:103C900090918905892B19F44FEF5FEF05C05F9B69
:103CA000F5CF8CB1482F50E084E690E090938905E1
:103CB0008093880509C08091880590918905892B9A
:103CC00019F42FEF3FEF05C05F9BF5CF8CB1282F84
:103CD00030E08FEF4F3F580769F08FEF2F3F3807E5
:103CE00049F0942F8827282B392B3E832D8321E000
:103CF00030E002C028E030E03A832983DE011996E3
:103D0000FE01319688E001900D928150E1F72985FE
:103D10003A854B855C856D857E858F859889A096D3
:103D20000FB6F894DEBF0FBECDBFCF91DF910895DF
:103D3000DF93CF93CDB7DEB760970FB6F894DEBFB1
:103D40000FBECDBFFC0180819181019709F040C079
:103D50008481958197FD3CC080329105CCF560E16E
:103D6000806C0E94E01D84E690E09093890580932A
:103D7000880509C08091880590918905892B19F4DF
:103D80002FEF3FEF05C05F9BF5CF8CB1282F30E0C0
:103D900084E690E0909389058093880509C080911E
:103DA000880590918905892B19F48FEF9FEF04C046
:103DB0005F9BF5CF8CB190E02F5F3F4F49F02FEF25
:103DC0008F3F920729F09E838D8381E090E002C0AF
:103DD00088E090E09A838983DE011996FE0131968E
:103DE00088E001900D928150E1F729853A854B8555
:103DF0005C856D857E858F85988960960FB6F89471
:103E0000DEBF0FBECDBFCF91DF910895DF93CF937B
:103E1000CDB7DEB760970FB6F894DEBF0FBECDBF4B
:103E2000FC0180819181019709F040C084819581D6
:103E300097FD3CC080329105CCF560E0806A0E941D
:103E4000E01D84E690E0909389058093880509C081
:103E50008091880590918905892B19F42FEF3FEF08
:103E600005C05F9BF5CF8CB1282F30E084E690E051
:103E7000909389058093880509C080918805909169
:103E80008905892B19F48FEF9FEF04C05F9BF5CF55
:103E90008CB190E02F5F3F4F49F02FEF8F3F92079B
:103EA00029F09E838D8381E090E002C088E090E05D
:103EB0009A838983DE011996FE01319688E001908C
:103EC0000D928150E1F729853A854B855C856D859A
:103ED0007E858F85988960960FB6F894DEBF0FBEF9
:103EE000CDBFCF91DF9108951F920F920FB60F9221
:103EF00011248F9387B78F7B87BF1092500E8F91BD
:103F00000F900FBE0F901F9018951F920F920FB633
:103F10000F920BB60F9211248F939F93EF93FF9301
:103F20008091500E813059F0813020F0823009F0BC
:103F300061C023C014BC81E08093500E55C084B58D
:103F400080934D0E14BC8A53893108F04AC01092F8
:103F50004C0E10924F0E82E08093500E86B7806414
:103F600086BF87B7806487BF1092520E1092530E9F
:103F70001092540E1092550E3DC094B590934D0E74
:103F800014BC892F8D508E3060F5E0914F0E943126
:103F900038F0F0E0EE5AF14F80818695806805C0D8
:103FA000F0E0EE5AF14F80818695808380914C0E2F
:103FB0008F5F80934C0E8830B9F410924C0E809134
:103FC0004F0E8F5F80934F0E843071F48091520EAC
:103FD00080934B0E8091550E8093510E8FEF8093FE
:103FE0004E0E1092500E06C086B7806486BF87B70B
:103FF000806487BFFF91EF919F918F910F900BBECF
:104000000F900FBE0F901F90189580914E0E882331
:1040100019F42FEF3FEF06C010924E0E8091510E13
:10402000282F30E0C9010895EF92FF920F931F935C
:104030007B018C0120E030E040E05FE40E94C4227C
:1040400088238CF020E030E040E05FE4C801B70155
:104050000E948C210E9482239B01AC0120503040A1
:104060004040504806C0C801B7010E9482239B010E
:10407000AC01B901CA011F910F91FF90EF90089513
:10408000A0E0B0E0E6E4F0E20C940726DC012B01AE
:10409000FA019C91923008F439C1EB018881823099
:1040A00008F433C1943069F4843009F02FC11196BB
:1040B0009C9111978981981709F428C1A1E4B4E073
:1040C00025C1843009F421C18230A9F4923009F06D
:1040D0001DC19A01AD0188E0EA010990AE01E90134
:1040E00009929E018150C1F7E201898111969C914C
:1040F0008923818308C1923009F407C112962D905B
:104100003C901397EB018A819B811496AD90BD90F2
:10411000CD90DC901797EC80FD800E811F8191017E
:10412000281B390BB90137FF04C066277727621BAC
:10413000730B603271050CF061C0121613066CF53A
:1041400037014801062E04C09694879477946794AB
:104150000A94D2F721E030E040E050E004C0220FA2
:10416000331F441F551F6A95D2F7215030404040FD
:1041700050402E213F214023512321153105410577
:10418000510521F021E030E040E050E079018A0162
:10419000E628F728082919293CC0232BD1F1260E3F
:1041A000371E35014601062E04C0969487947794F5
:1041B00067940A94D2F721E030E040E050E004C078
:1041C000220F331F441F551F6A95D2F721503040EC
:1041D000404050402A213B214C215D2121153105D1
:1041E0004105510521F021E030E040E050E0590167
:1041F0006A01A628B728C828D9280BC082159305BC
:104200002CF01C01AA24BB24650103C0EE24FF246A
:10421000870111969C91D20111968C91981709F4FF
:1042200045C0992339F0A80197012A193B094C0987
:104230005D0906C0A60195012E193F09400B510BDF
:1042400057FD08C01182338222822483358346833E
:1042500057831DC081E0818333822282882799277A
:10426000DC01821B930BA40BB50B84839583A6837F
:10427000B7830DC0220F331F441F551F248335837E
:10428000468357838281938101979383828324811C
:10429000358146815781DA01C9010197A109B10928
:1042A0008F5F9F4FAF4FBF4328F30BC09183338283
:1042B0002282EA0CFB1C0C1D1D1DE482F582068384
:1042C000178383E08083248135814681578157FF9E
:1042D0001AC0C901AA2797FDA095BA2F81709070C6
:1042E000A070B0705695479537952795822B932BE4
:1042F000A42BB52B84839583A683B7838281938176
:10430000019693838283DF0101C0D201CD01CDB735
:10431000DEB7E2E10C942326A0E2B0E0E2E9F1E2AC
:104320000C94132669837A838B839C832D833E832D
:104330004F835887E9E0EE2EF12CEC0EFD1EB701FD
:10434000CE0101960E94FA248E010F5E1F4FB80124
:10435000CE0105960E94FA248A8991E089278A8BEA
:10436000AE01475E5F4FB801C7010E9440200E9426
:104370002524A096E6E00C942F26A0E2B0E0E3EC22
:10438000F1E20C94132669837A838B839C832D83BB
:104390003E834F835887F9E0EF2EF12CEC0EFD1E83
:1043A000B701CE0101960E94FA248E010F5E1F4FC5
:1043B000B801CE0105960E94FA24AE01475E5F4F18
:1043C000B801C7010E9440200E942524A096E6E083
:1043D0000C942F26A8E1B0E0E0EFF1E20C940F2658
:1043E00069837A838B839C832D833E834F83588795
:1043F000B9E0EB2EF12CEC0EFD1EB701CE010196BB
:104400000E94FA248E010F5E1F4FB801CE0105965F
:104410000E94FA242985223008F47CC03989323080
:1044200010F4B8017AC08A859A8989278A8724304E
:1044300011F0223031F4231709F06CC061E474E00C
:104440006CC0343039F41D861E861F86188A1C867F
:104450001B8604C0323021F484E08987B7015DC037
:104460002B853C858B899C89281B390B3C872B87A6
:10447000ED84FE840F851889AD88BE88CF88D88CDE
:10448000EA14FB040C051D0540F4EE0CFF1C001F94
:10449000111F215030403C872B8720E030E040E066
:1044A00050E080E090E0A0E0B0E46FE170E0EA145A
:1044B000FB040C051D0540F0282B392B4A2B5B2BE8
:1044C000EA18FB080C091D09B695A79597958795DD
:1044D000EE0CFF1C001F111F6150704041F7DA0104
:1044E000C9018F779070A070B07080349105A105DC
:1044F000B10561F427FD0AC0E114F10401051105BD
:1045000029F0205C3F4F4F4F5F4F20782D873E872B
:104510004F87588BBE01675F7F4FCB010E942524D8
:104520006896EAE00C942B26A8E1B0E0EAE9F2E212
:104530000C94132669837A838B839C832D833E831B
:104540004F83588789E0E82EF12CEC0EFD1EB70151
:10455000CE0101960E94FA248E010F5E1F4FB80112
:10456000CE0105960E94FA248985823040F089891F
:10457000823028F0B801C7010E94722501C08FEF78
:104580006896E6E00C942F26A8E1B0E0EAECF2E2AF
:104590000C94132669837A838B839C832D833E83BB
:1045A0004F83588789E0E82EF12CEC0EFD1EB701F1
:1045B000CE0101960E94FA248E010F5E1F4FB801B2
:1045C000CE0105960E94FA248985823040F08989BF
:1045D000823028F0B801C7010E94722501C08FEF18
:1045E0006896E6E00C942F26A8E1B0E0EAEFF2E24C
:1045F0000C94132669837A838B839C832D833E835B
:104600004F83588789E0E82EF12CEC0EFD1EB70190
:10461000CE0101960E94FA248E010F5E1F4FB80151
:10462000CE0105960E94FA248985823040F089895E
:10463000823028F0B801C7010E94722501C081E0D4
:104640006896E6E00C942F26A8E0B0E0EAE2F3E2F8
:104650000C9410269B01AC0183E08983DA01C90127
:104660008827B7FD83959927AA27BB27B82E211540
:1046700031054105510519F482E089833AC0882348
:10468000A9F0203080E0380780E0480780E858072C
:1046900029F460E070E080E09FEC30C0EE24FF245D
:1046A0008701E21AF30A040B150B02C079018A0193
:1046B0008EE1C82ED12CDC82CB82ED82FE820F836C
:1046C0001887C801B7010E94D6230197181619064A
:1046D00084F4082E04C0EE0CFF1C001F111F0A9466
:1046E000D2F7ED82FE820F831887C81AD90ADC82BE
:1046F000CB82BA82CE0101960E9425242896E9E059
:104700000C942C26ACE0B0E0E8E8F3E20C94172619
:1047100069837A838B839C83BE016B5F7F4FCE015D
:1047200001960E94FA248D81823061F1823050F12D
:10473000843021F48E81882351F12EC02F81388559
:1047400037FD20C06E812F3131051CF06623F9F052
:1047500023C08EE190E0821B930B29853A854B851F
:104760005C8504C056954795379527958A95D2F76D
:104770006623B1F050954095309521953F4F4F4FAE
:104780005F4F0EC020E030E040E050E009C02FEF66
:104790003FEF4FEF5FE704C020E030E040E050E83B
:1047A000B901CA012C96E2E00C943326EF92FF92F5
:1047B0000F931F937B018C0180E0E81680E0F806E0
:1047C00081E0080780E0180788F48FEFE816F1040D
:1047D0000105110531F028F088E090E0A0E0B0E09C
:1047E00017C080E090E0A0E0B0E012C080E0E816E2
:1047F00080E0F80680E0080781E0180728F088E1EB
:1048000090E0A0E0B0E004C080E190E0A0E0B0E083
:1048100020E230E040E050E0281B390B4A0B5B0BF4
:1048200004C016950795F794E7948A95D2F7F70197
:10483000E75BFB4F8081281B310941095109C90100
:104840001F910F91FF90EF900895DF92EF92FF92EA
:104850000F931F93FC01E480F58006811781D180BE
:104860008081823048F480E090E0A0E1B0E0E82A66
:10487000F92A0A2B1B2BA5C0843009F49FC0823073
:1048800021F4EE24FF24870105C0E114F1040105A1
:10489000110519F4E0E0F0E096C0628173819FEFAA
:1048A000623879070CF05BC022E83FEF261B370B1C
:1048B0002A3131052CF020E030E040E050E02AC001
:1048C000B801A701022E04C07695679557954795C4
:1048D0000A94D2F781E090E0A0E0B0E004C0880F35
:1048E000991FAA1FBB1F2A95D2F70197A109B109E9
:1048F0008E219F21A023B1230097A105B10521F0AE
:1049000081E090E0A0E0B0E09A01AB01282B392BC8
:104910004A2B5B2BDA01C9018F779070A070B070C1
:1049200080349105A105B10539F427FF09C0205C49
:104930003F4F4F4F5F4F04C0215C3F4F4F4F5F4F82
:10494000E0E0F0E02030A0E03A07A0E04A07A0E471
:104950005A0710F0E1E0F0E079018A0127C06038E1
:10496000710564F5FB01E158FF4FD801C7018F774E
:104970009070A070B07080349105A105B10539F434
:10498000E7FE0DC080E490E0A0E0B0E004C08FE35B
:1049900090E0A0E0B0E0E80EF91E0A1F1B1F17FF11
:1049A00005C016950795F794E794319687E016951C
:1049B0000795F794E7948A95D1F705C0EE24FF2474
:1049C0008701EFEFF0E06E2F679566276795902FD0
:1049D0009F77D794DD24D7948E2F8695492F462B29
:1049E000582F5D29B701CA011F910F91FF90EF90D9
:1049F000DF900895FC01DB01408151812281622F0B
:104A00006F7770E0221F2227221F9381892F880F42
:104A1000822B282F30E0991F9927991F11969C937C
:104A2000119721153105A9F541155105610571054C
:104A300011F482E037C082E89FEF13969C938E9327
:104A400012979A01AB0167E0220F331F441F551FD5
:104A50006A95D1F783E08C930DC0220F331F441F5A
:104A6000551F12968D919C911397019713969C93C5
:104A70008E931297203080E0380780E0480780E46A
:104A8000580758F314962D933D934D935C931797C5
:104A900008952F3F310579F44115510561057105E0
:104AA00019F484E08C93089564FF03C081E08C9333
:104AB00012C01C9210C02F57304013963C932E9377
:104AC000129783E08C9387E0440F551F661F771F72
:104AD0008A95D1F7706414964D935D936D937C9392
:104AE000179708951F93DC01FB019C91923008F405
:104AF00047C08081823008F443C0943051F411964D
:104B00001C91843099F58181682F70E0611B7109D7
:104B10003FC0843021F0923031F48230B9F181818C
:104B2000882389F12DC011961C9111978230F1F0E4
:104B300081811817D9F412962D913C911397828197
:104B400093818217930794F028173907BCF01496C5
:104B50008D919D910D90BC91A02D24813581468130
:104B60005781281739074A075B0718F4112341F0CA
:104B70000AC082179307A407B50740F4112319F060
:104B800061E070E005C06FEF7FEF02C060E070E0B1
:104B9000CB011F910895FB01DC018D9101908019DB
:104BA0000110D9F3990B0895991B79E004C0991F5E
:104BB000961708F0961B881F7A95C9F78095089577
:104BC00097FB092E07260AD077FD04D00CD006D01B
:104BD00000201AF4709561957F4F0895F6F790952F
:104BE00081959F4F0895AA1BBB1B51E107C0AA1FC7
:104BF000BB1FA617B70710F0A61BB70B881F991F7E
:104C00005A95A9F780959095BC01CD0108952F92F2
:104C10003F924F925F926F927F928F929F92AF924C
:104C2000BF92CF92DF92EF92FF920F931F93CF9399
:104C3000DF93CDB7DEB7CA1BDB0B0FB6F894DEBF30
:104C40000FBECDBF09942A88398848885F846E8456
:104C50007D848C849B84AA84B984C884DF80EE80A0
:104C6000FD800C811B81AA81B981CE0FD11D0FB6A9
:104C7000F894DEBF0FBECDBFED010895F894FFCFCD
:104C8000636861726765206D6F6465202D207465AF
:104C90007374696E6700206D5600506C75676765A8
:104CA0006420696E202D206368617267696E6700F9
:104CB000436F6D706C657465004E6F7420706C7519
:104CC0006767656420696E003A002073686F7274CC
:104CD0002034306D73206368617267652070756C75
:104CE000736573002066756C6C206368617267651C
:104CF00020706F77657200446F6E65003A00270080
:104D000043454C4C23006E756C6C0046616C7365BA
:104D10000054727565004E494C0046554E43544947
:104D20004F4E004572726F72205B005D203A3A2050
:104D3000003F206572726F72202D2074797065209B
:104D40000028002000290044454255473A3A205B9C
:104D5000005D0051554F5445004E6F7420646566E8
:104D6000696E65643F203A3A2000002062797465DC
:104D700073005D203C003E002063656C6C73002D69
:104D8000002D3E23002D3E6E756C6C00436F6D6DE3
:104D9000616E64733A20002C200053796D626F6C51
:104DA000733A200054696D653A2000616C6C6F6342
:104DB000206661696C656400746F6F2062696700CA
:104DC000747275650066616C736500287365742084
:104DD000276120312900286966202865712061201B
:104DE0003129202870726E20226F6E65222920746E
:104DF000727565202870726E20226869222929291F
:104E00000046656D746F20245265763A2031353244
:104E10002024003E20006E6F7420656E6F756768F9
:104E2000206974656D73006D757374206265206E02
:104E3000756D626572006D757374206265206C69B2
:104E4000737400696E636F7272656374207061724F
:104E5000616D657465727320706173736564006D54
:104E600075737420626520612073796D626F6C00C8
:104E70006D75737420626520612066756E63746958
:104E80006F6E009602A702B602C302DF02F002654F
:104E90006E760074696D6500736C656570006361A2
:104EA0007200706C757300636F6E73006C6973745D
:104EB000006C656E677468006364720070720073E2
:104EC000657400736574710070726E0065710069BD
:104ED00066006576616C00646F3100646F00636C1E
:104EE0006F6E650073656E64536572766F006765FB
:104EF00074536572766F0070617373536572766F69
:104F00000073796E63536572766F0077636B7772A7
:104F1000697465494F007265616449520077686938
:104F20006C65000F033617000013036C13010018A3
:104F300003D00C00001E032809000022030E0B0002
:104F4000002703650A00002C03E40A000031030B6C
:104F50000A00003803620900003C03DA1000003F39
:104F600003BB0F00004303351501004803F715008C
:104F7000004C03F70D00004F037014010052030DA5
:104F80001300005703300C00005B03660C00005E4A
:104F900003B60B00006403F51D00006E03061F003E
:104FA000007703981E00008103CD1B00008B03F9DE
:104FB0001C00009603A40C00009D03A9130100E34C
:104FC00009000000000000000000010202030303CA
:104FD000030404040404040404050505050505058B
:104FE000050505050505050505060606060606066A
:104FF0000606060606060606060606060606060651
:105000000606060606060606060707070707070739
:105010000707070707070707070707070707070720
:105020000707070707070707070707070707070710
:105030000707070707070707070707070707070700
:1050400007070707070707070708080808080808E9
:1050500008080808080808080808080808080808D0
:1050600008080808080808080808080808080808C0
:1050700008080808080808080808080808080808B0
:1050800008080808080808080808080808080808A0
:105090000808080808080808080808080808080890
:1050A0000808080808080808080808080808080880
:1050B0000808080808080808080808080808080870
:0A50C000080808080808080808009E
:00000001FF
