:100000000C94B81D0C94D71D0C94D71D0C94D71DBF
:100010000C94D71D0C94D71D0C94D71D0C946B2CED
:100020000C94D71D0C94D71D0C945A2C0C94D71DEE
:100030000C94D71D0C94D71D0C94C21E0C94D71D84
:100040000C943F1E0C94D71D0C940E1E0C94D71DBF
:100050000C94D91D0C94992A0C94D71D0C94D71D7F
:100060000C94D71D0C94D71D0C94D71D0C94D71D40
:100070000C94D71D0C94D71D0C949C200C94D71D68
:100080000C94E6200C94D71D0C94D71D4D6B332097
:10009000282452657624290D0A00526F626F73205E
:1000A000007DC9A3436C7D3059B88E59277CA2D3FB
:1000B0007F7DB3C7586C7E4831A38D332F31C7CDB8
:1000C000CD04040404040404040404040404040427
:1000D0000402020202020202020202000000000008
:1000E0000001010101010101010101010101010101
:1000F00001020202020202020202020202020202E1
:1001000002040404040404040404040404040404B1
:1001100004010101010100000000000101010000D3
:1001200000010101010100000000000101010000C7
:1001300000030303030300000000000303030000A7
:100140000003030303030000000000030303000097
:10015000000000000000000000000000000000009F
:10016000002828282828282828282814141414149B
:10017000143C3C3C3C3C3C3C3C3C3C1E1E1E1E1E7D
:100180001E00000000000000000000000000000051
:100190000001000800010005000F0046003601A420
:1001A00001C8002C017DB3C7586C7E4831A38D3344
:1001B0002F31C7CDCD7DB3C7586C7E4831A38D3369
:1001C0002F31C7CDCD6BA4E96A5F6C501D9B813880
:1001D0003E28A6CED06BA4E96A5F914A28A39A75FF
:1001E0007C72A6CED07EA4DE646B7D501D9B8E4FAC
:1001F0002C28A6CED07DB3C7586C7E4831A38D3352
:100200002F31C7CDCD040404040404040404040401
:1002100004040404040202020202020202020200B6
:1002200000000000000101010101010101010101C3
:1002300001010101010202020202020202020202A3
:100240000202020202040404040404040404040478
:100250000404040404000000000001010101010085
:100260000000010101000000000002020202020081
:10027000000002020200000000000303030302006A
:100280000000030303000000000003030303030056
:100290000000030303000000000000000000000055
:1002A00000000000002828282828282828282814AA
:1002B00014141414143C3C3C3C3C3C3C3C3C3C1E64
:1002C0001E1E1E1E1E000000000000000000000098
:1002D000000000000001000800010005000F0046BA
:1002E000003601A401C8002C017DB3C7586C7E48BC
:1002F00031A38D332F31C7CDCD7DB3C7586C7E4828
:1003000031A38D332F31C7CDCD8BA3E664788E57C3
:100310000E969F4F2C28B7BCD06CA4E0616A975012
:100320001C99A74F2C289170837EA4DE646B7D50AE
:100330001D9B8E4F2C28A6CED07DB3C7586C7E480F
:1003400031A38D332F31C7CDCD040404040404043C
:10035000040404040404040404040404040404045D
:10036000040404040404040404020202020202025B
:10037000020202000000000000020202020200006D
:10038000000000030303030303000000000000005B
:10039000000000040404040403040404040404042A
:1003A0000404040404040404040000000000000029
:1003B0000000000000000000000101010101000038
:1003C000000000010101000000000000000000002A
:1003D0000000000000000000000101010101000018
:1003E000000000010101000000000000000000000A
:1003F00000000000000000000000000000000000FD
:1004000000000000000000000028282828282828D4
:100410002828281414141414143C3C3C3C3C3C3C48
:100420003C3C3C1E1E1E1E1E1E0000000000000064
:1004300000000000000000000001000500080003AB
:100440000001000F00460096003601FA0078002CEB
:10045000017DB3C7586C7E4831A38D332F31C7CD92
:10046000CD7DB3C7586C7E4831A38D332F31C7CDB6
:10047000CD7EA7DE626E7D541D9B8E4F2C28A6CEAE
:10048000D06BA4E9665F6C501D9B81383E28A6CED8
:10049000D06BA4E9695F914A289D9A383E28A6CE80
:1004A000D07EA4DE5F6B7D541D9B8E4F2C28A6CE84
:1004B000D07DB3C7586C7E4831A38D332F31C7CD63
:1004C000CD04040404040404040404040404040423
:1004D00004040404040404040404040404040404DC
:1004E00004020202020202020202020404040404E0
:1004F00004000000000002020202020404040404DA
:1005000004000000000002020202020404040404C9
:10051000040404040404040404040404040404049B
:1005200004000000000000000000000000000000C7
:1005300000000000000001010101010000000101B4
:1005400001000000000000000000000000000000AA
:100550000000000000000101010101000000010194
:10056000010000000000000000000000000000008A
:10057000000000000000000000000000000000007B
:100580000028282828282828282828141414141477
:10059000143C3C3C3C3C3C3C3C3C3C1E1E1E1E1E59
:1005A0001E0000000000000000000000000000002D
:1005B00000010005000800030001000F004600963E
:1005C000003601C80078002C017DB3C7586C7E4806
:1005D00031A38D332F31C7CDCD7DB3C7586C7E4845
:1005E00031A38D332F31C7CDCD7EA7DE626E7D5412
:1005F0001D9B8E4F2C28A6CED08BA3E664788E57F9
:100600000E969F4F2C28B7BCD06CA4E0616A97501F
:100610001C99A74F2C28B7BCD07EA6DE62717D54F2
:100620001D9B8E4F2C28A6CED07DB3C7586C7E481C
:1006300031A38D332F31C7CDCD0404040404040449
:10064000040404040404040404010101010101017F
:100650000101010404040404040101010101010178
:100660000101010404040404040202020202020261
:100670000202020404040404040101010101010155
:10068000010101040404040404030303030303033A
:100690000303030404040404040101010101000034
:1006A0000000000101010000000101010101000042
:1006B0000000000101010000000000000000000037
:1006C000000000000000000000000000000000002A
:1006D000000000000000000000000000000000001A
:1006E000000000000000000000000000000000000A
:1006F000000000000000000000141414141414146E
:100700001414141414141414141E1E1E1E1E1E1E63
:100710001E1E1E1E1E1E1E1E1E00000000000000CB
:100720000000000000000000000A0005000A0001AF
:100730000005000A00C800C80090017800C80090B9
:10074000017DB3C7586C7E4831A38D332F31C7CD9F
:10075000CD7DB3C7586C7E4831A38D332F31C7CDC3
:10076000CD7DA2C7486C7E3B31978D332F31C7CDED
:10077000CD88A9D25D798B243D909D332F31C7CD93
:10078000CD7DADD25D7B8B500E899D332F31C7CD92
:10079000CD86ADD25D7B8B501F9D9D332F31C7CD54
:1007A000CD7DB3C7586C7E4831A38D332F31C7CD73
:1007B000CD04040404040404040404040404040430
:1007C0000401010101010101010101040404040407
:1007D00004010101010101010101010404040404F7
:1007E00004020202020202020202020404040404DD
:1007F00004020202020202020202020404040404CD
:1008000004030303030303030303030303030303B7
:1008100003000000000001010101010000000101CE
:1008200001000000000001010101010000000101C0
:1008300000000000000000000000000000000000B8
:1008400000000000000000000000000000000000A8
:100850000000000000000000000000000000000098
:100860000000000000000000000000000000000088
:10087000001414141414141414141414141414144C
:10088000141E1E1E1E1E1E1E1E1E1E1E1E1E1E1E92
:100890001E0000000000000000000000000000003A
:1008A000000A0005000A00010005000A00C800C88F
:1008B0000090017800C80090017DB3C7586C7E4855
:1008C00031A38D332F31C7CDCD7DB3C7586C7E4852
:1008D00031A38D332F31C7CDCD7DC1CD6B6C7E590A
:1008E00031B48D332F31C7CDCD77D1C36A60775105
:1008F0001F9D84332F31C7CDCD75A2E362677D4E36
:1009000031A37F332F31C7CDCD6EA8CC555C755147
:1009100031A380332F31C7CDCD7DB3C7586C7E480E
:1009200031A38D332F31C7CDCD0404040404040456
:100930000404040404040404040404040404040477
:10094000040404040404040404030303030303036E
:10095000030303030303030303000000000000007C
:10096000000000040404040404030303030303035A
:10097000030303030303030303020202020202024E
:10098000020202040404040404020202020202023B
:10099000020202040404040404020202020202022B
:1009A000020202040404040404020202020202021B
:1009B0000202020404040404040303030303030304
:1009C000030303030303030303000000000000000C
:1009D0000000000000000000000303030303030302
:1009E00003030303030303030300000000000000EC
:1009F00000000000000000000002020202020202E9
:100A000002020202020202020200000000000000D4
:100A100000000000000000000001010101010101CF
:100A200001010101010101010100000000000000BD
:100A300000000000000000000003030303030303A1
:100A4000030303030303030303000000000000008B
:100A50000000000000000000000000000000000096
:100A6000000000000000000000282828282828286E
:100A70002828281E1E1E1E1E1E3C3C3C3C3C3C3CA6
:100A80003C3C3C3232323232320000000000000086
:100A90000000000000000000000F001E002D002DCF
:100AA000002D001E001E001E001E001E002C0158FE
:100AB00002840384038403580258025802580258DF
:100AC000027DB3C7586C7E4831A38D332F31C7CD1B
:100AD000CD7DB3C7586C7E4831A38D332F31C7CD40
:100AE000CD7CDCF77D6C7E1D047F8C332F31C7CD30
:100AF000CD7BDCF656707E1D07A98B013B4AFDBFFE
:100B0000B58253903F6C7DAA67BF8B013BA3FDBFAD
:100B1000588253903F6C7DAA67BF8BEA7D5A05814E
:100B2000A6815EB7646E80A26EBA88A02D515ACDA0
:100B3000A78157BF3C6E80A23BC1888A2E5974CBD7
:100B4000A78181BE416E80783BBB8C852D5174CBD3
:100B5000A781A1C5476E805935B58F8F245974CBB5
:100B6000A77DB3C7586C7E4831A38D332F31C7CDD5
:100B7000CD0404040404040404040404040404046C
:100B80000401010101010101010101040404040443
:100B90000404040404040404040404040404040415
:100BA0000401010101010101010101010101010132
:100BB0000101010101010101010101010101010125
:100BC0000102020202020202020202020202020206
:100BD00002020202020202020202020202020202F5
:100BE00002020202020202020202020202020202E5
:100BF00002040404040404040404040404040404B7
:100C000004000000000000000000000000000000E0
:100C100000030303030303030303030303030303A7
:100C200003000000000000000000000000000000C1
:100C30000002020202020202020202020202020296
:100C400002000000000000000000000000000000A2
:100C50000001010101010101010101010101010185
:100C60000100000000000000000000000000000083
:100C70000003030303030303030303030303030347
:100C80000300000000000000000000000000000061
:100C90000028282828282828282828141414141460
:100CA000143C3C3C3C3C3C3C3C3C3C1E1E1E1E1E42
:100CB0001E00000000000000000000000000000016
:100CC000000A000A000A000A00010023001E002892
:100CD000001E002C01F401F401BC023403BC0258D4
:100CE00002200358027DB3C7586C7E4831A38D3370
:100CF0002F31C7CDCD7DB3C7586C7E4831A38D331E
:100D00002F31C7CDCD7D52D6596C7E4831A38D8F02
:100D10002F3172CDCD7D52DA65727DA622978F8DEF
:100D20002F3172CDCD7DD2E450717C2319AC8EA7CA
:100D30002F2F52CDCC7DDAF756717B1F05A88D0978
:100D40005792FEA26C7DDCF47A6D7B1D05808D21AF
:100D50002A92DED26C7DDCDE7A717B1D1C878D626F
:100D6000324E92C5A97DA0F272717B5708878D52D1
:100D70002F45ADCDBF7DB3C7586C7E4831A38D33B1
:100D80002F31C7CDCD030303030303030303030381
:100D90000303030303030303030303030303030323
:100DA0000303030303030303030303030303030313
:100DB000030303030302020202020202020202020E
:100DC000020202020201010101010101010101010E
:100DD000010101010100000000000000000000000E
:100DE0000000000000000000000000000000000003
:100DF00000000000000101010101010101010101E8
:100E000001010101010202020202020202020202C7
:100E100002020202020303030303030303030303A7
:100E20000303030303030303030303030303030392
:100E30000303030303030303030303030303030382
:100E4000030303030302020202020202020202027D
:100E5000020202020201010101010101010101017D
:100E6000010101010100000000000000000000007D
:100E70000000000000000000000000000000000072
:100E80000000000000010101010101010101010157
:100E90000101010101020202020202020202020237
:100EA0000202020202030303030303030303030317
:100EB0000303030303030303030303030303030302
:100EC00003030303030202020202020202020202FD
:100ED00002020202020101010101010101010101FD
:100EE00001010101010000000000000000000000FD
:100EF00000000000000000000000000000000000F2
:100F000000000000000101010101010101010101D6
:100F100001010101010202020202020202020202B6
:100F20000202020202030303030303030303030396
:100F30000303030303030303030303030303030381
:100F40000303030303030303030303030303030371
:100F5000030303030302020202020202020202026C
:100F6000020202020201010101010101010101016C
:100F7000010101010100000000000000000000006C
:100F80000000000000000000000000000000000061
:100F90000000000000010101010101010101010146
:100FA0000101010101020202020202020202020226
:100FB0000202020202030303030303030303030306
:100FC00003030303030303030303030303030303F1
:100FD00003030303030202020202020202020202EC
:100FE00002020202020101010101010101010101EC
:100FF00001010101010404040404040404040404C0
:1010000004040404040000000000000000000000CC
:1010100000000000000303030303030303030303AF
:101020000303030303030303030303030303030390
:10103000030303030302020202020202020202028B
:10104000020202020201010101010101010101018B
:10105000010101010100000000000000000000008B
:101060000000000000000000000000000000000080
:101070000000000000010101010101010101010165
:101080000101010101020202020202020202020245
:101090000202020202030303030303030303030325
:1010A0000303030303030303030303030303030310
:1010B0000303030303030303030303030303030300
:1010C00003030303030202020202020202020202FB
:1010D00002020202020101010101010101010101FB
:1010E00001010101010000000000000000000000FB
:1010F00000000000000000000000000000000000F0
:1011000000000000000101010101010101010101D4
:1011100001010101010202020202020202020202B4
:101120000202020202030303030303030303030394
:10113000030303030303030303030303030303037F
:10114000030303030302020202020202020202027A
:10115000020202020201010101010101010101017A
:10116000010101010100000000000000000000007A
:10117000000000000000000000000000000000006F
:101180000000000000010101010101010101010154
:101190000101010101020202020202020202020234
:1011A0000202020202030303030303030303030314
:1011B00003030303030303030303030303030303FF
:1011C00003030303030303030303030303030303EF
:1011D00003030303030202020202020202020202EA
:1011E00002020202020101010101010101010101EA
:1011F00001010101010000000000000000000000EA
:1012000000000000000000000000000000000000DE
:1012100000000000000101010101010101010101C3
:1012200001010101010202020202020202020202A3
:101230000202020202030303030303030303030383
:10124000030303030303030303030303030303036E
:101250000303030303020202020202020202020269
:101260000202020202010101010101010101010169
:101270000101010101000000000000000000000069
:1012800000000000002929292929292929292914B0
:1012900014141414143D3D3D3D3D3D3D3D3D3D1E6A
:1012A0001E1E1E1E1E0000000000000000000000A8
:1012B0000000000000050001000100010001000124
:1012C0000001000100010001000100010001000116
:1012D0000001000100010001000100010001000106
:1012E00000010001000100010001000100010001F6
:1012F00000010001000100010001000100010001E6
:10130000000A000F00C8001900190019001900197F
:101310000019001900190019001900190019001905
:1013200000190019001900190019001900190019F5
:1013300000190019001900190019001900190019E5
:1013400000190019001900190019001900190019D5
:1013500000C8002C017DB3C7586C7E4831A38D3383
:101360002F31C7CDCD7DB3C7586C7E4831A38D33A7
:101370002F31C7CDCD7DB3C7586C7E4831A38D3397
:101380002F31C7CDCD82A5C9517386511F93954882
:101390002C2891D1C984ABC5537589561C94984E9D
:1013A0002B299AD1CE84AFC357758B5B1B989A5764
:1013B0002B2BA4D1D384B2C55B75895F1C9D98612A
:1013C0002B30ACD1D582B3C95F7386601FA19569FC
:1013D0002B35B3D2D67FB2CE6270825F23A6916FD7
:1013E0002A39B6D2D67CAFD4646D7F5C28AA8E71C0
:1013F0002A3BB7D2D67CAFD4646D7F5C28AA8E71AD
:101400002A3BB7D2D678ACD966697B582EAA8A6FA8
:101410002A39B6D2D674A7DD6765785333A9876AAF
:101420002B35B3D2D671A2E06662764D37A78561BF
:101430002B30ADD1D56F9DE16260764939A38557D8
:101440002B2BA4D1D37199E05D627646379F854FEF
:101450002B299AD1CE7498DD59657845339B8748FE
:101460002C2892D1C97899D954697B462E988A45FF
:101470002C288CD0C57B9CD4506C7E4928968D44FA
:101480002C288AD0C37B9CD4506C7E4928968D44EE
:101490002C288AD0C382A5C9517386511F939548C1
:1014A0002C2891D1C984ABC5537589561C94984E8C
:1014B0002B299AD1CE84AFC357758B5B1B989A5753
:1014C0002B2BA4D1D384B2C55B75895F1C9D986119
:1014D0002B30ACD1D582B3C95F7386601FA19569EB
:1014E0002B35B3D2D67FB2CE6270825F23A6916FC6
:1014F0002A39B6D2D67CAFD4646D7F5C28AA8E71AF
:101500002A3BB7D2D67CAFD4646D7F5C28AA8E719B
:101510002A3BB7D2D678ACD966697B582EAA8A6F97
:101520002A39B6D2D674A7DD6765785333A9876A9E
:101530002B35B3D2D671A2E06662764D37A78561AE
:101540002B30ADD1D56F9DE16260764939A38557C7
:101550002B2BA4D1D37199E05D627646379F854FDE
:101560002B299AD1CE7498DD59657845339B8748ED
:101570002C2892D1C97899D954697B462E988A45EE
:101580002C288CD0C57B9CD4506C7E4928968D44E9
:101590002C288AD0C37B9CD4506C7E4928968D44DD
:1015A0002C288AD0C382A5C9517386511F939548B0
:1015B0002C2891D1C984ABC5537589561C94984E7B
:1015C0002B299AD1CE7DA6E56A6C7E5617968D336F
:1015D0002F31C7CDCD7DB3C7586C7E4831A38D3335
:1015E0002F31C7CDCD04040404040404040404040E
:1015F00004040404040303030303030303030303B6
:1016000003030303030202020202020202020202B5
:10161000020202020203030303030303030303039F
:101620000303030303020202020202020202020295
:101630000202020202010101010101010101010195
:101640000101010101000000000000000000000095
:10165000000000000000000000000000000000008A
:10166000000000000001010101010101010101016F
:10167000010101010102020202020202020202024F
:10168000020202020203030303030303030303032F
:10169000030303030303030303030303030303031A
:1016A000030303030303030303030303030303030A
:1016B0000303030303020202020202020202020205
:1016C0000202020202010101010101010101010105
:1016D0000101010101000000000000000000000005
:1016E00000000000000000000000000000000000FA
:1016F00000000000000101010101010101010101DF
:1017000001010101010202020202020202020202BE
:10171000020202020203030303030303030303039E
:101720000303030303030303030303030303030389
:101730000303030303020202020202020202020284
:101740000202020202010101010101010101010184
:101750000101010101000000000000000000000084
:101760000000000000000000000000000000000079
:10177000000000000001010101010101010101015E
:10178000010101010102020202020202020202023E
:10179000020202020203030303030303030303031E
:1017A0000303030303030303030303030303030309
:1017B00003030303030303030303030303030303F9
:1017C00003030303030202020202020202020202F4
:1017D00002020202020101010101010101010101F4
:1017E00001010101010000000000000000000000F4
:1017F00000000000000000000000000000000000E9
:1018000000000000000101010101010101010101CD
:1018100001010101010202020202020202020202AD
:10182000020202020203030303030303030303038D
:101830000303030303030303030303030303030378
:101840000303030303020202020202020202020273
:101850000202020202010101010101010101010173
:10186000010101010102020202020202020202025D
:101870000202020202040404040404040404040432
:101880000404040404000000000000000000000044
:101890000000000000000000000000000000000048
:1018A0000000000000000000000000000000000038
:1018B0000000000000030303030303030303030307
:1018C00003030303030202020202020202020202F3
:1018D00002020202020101010101010101010101F3
:1018E00001010101010000000000000000000000F3
:1018F00000000000000000000000000000000000E8
:1019000000000000000101010101010101010101CC
:1019100001010101010202020202020202020202AC
:10192000020202020203030303030303030303038C
:101930000303030303030303030303030303030377
:101940000303030303030303030303030303030367
:101950000303030303020202020202020202020262
:101960000202020202010101010101010101010162
:101970000101010101000000000000000000000062
:101980000000000000000000000000000000000057
:10199000000000000001010101010101010101013C
:1019A000010101010102020202020202020202021C
:1019B00002020202020303030303030303030303FC
:1019C00003030303030303030303030303030303E7
:1019D00003030303030202020202020202020202E2
:1019E00002020202020101010101010101010101E2
:1019F00001010101010000000000000000000000E2
:101A000000000000000000000000000000000000D6
:101A100000000000000101010101010101010101BB
:101A2000010101010102020202020202020202029B
:101A3000020202020203030303030303030303037B
:101A40000303030303030303030303030303030366
:101A50000303030303030303030303030303030356
:101A60000303030303020202020202020202020251
:101A70000202020202010101010101010101010151
:101A80000101010101000000000000000000000051
:101A90000000000000000000000000000000000046
:101AA000000000000001010101010101010101012B
:101AB000010101010102020202020202020202020B
:101AC00002020202020303030303030303030303EB
:101AD00003030303030303030303030303030303D6
:101AE00003030303030202020202020202020202D1
:101AF00002020202020101010101010101010101D1
:101B000001010101010000000000000000000000D0
:101B100000000000000000000000000000000000C5
:101B20000000000000292929292929292929291407
:101B300014141414143D3D3D3D3D3D3D3D3D3D1EC1
:101B40001E1E1E1E1E0000000000000000000000FF
:101B50000000000000050014000100010001000168
:101B6000000100010001000100010001000100016D
:101B7000000100010001000100010001000100015D
:101B8000000100010001000100010001000100014D
:101B9000000100010001000100010001000100013D
:101BA00000010001000A0014002C01900119001925
:101BB000001900190019001900190019001900195D
:101BC000001900190019001900190019001900194D
:101BD000001900190019001900190019001900193D
:101BE000001900190019001900190019001900192D
:101BF000001900190019001900900190017DB3C768
:101C0000586C7E4831A38D332F31C7CDCD7DB3C7FE
:101C1000586C7E4831A38D332F31C7CDCD7DA0DCEC
:101C20006B6C7E581F928D332F31C7CDCD7899DAEA
:101C300058697B482E978A392B33AED2D67497DFFA
:101C40005B657846349B873A2B30B1D2D67098E2E8
:101C50005E61774639A0863B2B2DB6D2D66F9BE3CB
:101C6000636076483CA5853F2B29BCD1D570A0E2A6
:101C70006661764C3AA785442C28BFD1D173A5DF85
:101C80006864785234A887492C28C1D1CE78A9DA63
:101C900068697B582EA78A4D2C28C2D1CB7BADD446
:101CA000676C7E5C28A58D4E2B28C2D1CA7BADD433
:101CB000676C7E5C28A58D4E2B28C2D1CA7FB0CE22
:101CC0006370825F22A2914D2C28C2D1CB82B2C810
:101CD0005F7386611D9F954A2C28C1D1CE83B2C304
:101CE0005A748A601A9C99452C28C0D1D184B0C0FE
:101CF00055758B5D19979A3F2B29BCD1D584ACC201
:101D000053758A581A94993C2B2DB7D2D682A6C8FF
:101D1000527387531D92963A2B30B2D2D67FA0CE03
:101D20005370824F229291392B33AED2D67C9CD401
:101D3000556D7F4B28938E392B34ADD1D67C9CD4F6
:101D4000556D7F4B28938E392B34ADD1D67497DFE8
:101D50005B657846349B873A2B30B1D2D67098E2D7
:101D60005E61774639A0863B2B2DB6D2D66F9BE3BA
:101D7000636076483CA5853F2B29BCD1D570A0E295
:101D80006661764C3AA785442C28BFD1D173A5DF74
:101D90006864785234A887492C28C1D1CE78A9DA52
:101DA00068697B582EA78A4D2C28C2D1CB7BADD435
:101DB000676C7E5C28A58D4E2B28C2D1CA7BADD422
:101DC000676C7E5C28A58D4E2B28C2D1CA7FB0CE11
:101DD0006370825F22A2914D2C28C2D1CB82B2C8FF
:101DE0005F7386611D9F954A2C28C1D1CE83B2C3F3
:101DF0005A748A601A9C99452C28C0D1D184B0C0ED
:101E000055758B5D19979A3F2B29BCD1D584ACC2EF
:101E100053758A581A94993C2B2DB7D2D682A6C8EE
:101E2000527387531D92963A2B30B2D2D67FA0CEF2
:101E30005370824F229291392B33AED2D67C9CD4F0
:101E4000556D7F4B28938E392B34ADD1D67C9CD4E5
:101E5000556D7F4B28938E392B34ADD1D67497DFD7
:101E60005B657846349B873A2B30B1D2D67098E2C6
:101E70005E61774639A0863B2B2DB6D2D66F9BE3A9
:101E8000636076483CA5853F2B29BCD1D56F9BE389
:101E900062607659199B853F2B29BCD1D57DB3C78C
:101EA000586C7E4831A38D332F31C7CDCD14141417
:101EB000141414141414141414141414141E1E1EC4
:101EC0001E1E1E1E1E1E1E1E1E1E1E1E1E0000008C
:101ED0000000000000000000000000000001000100
:101EE0000001000100010001001400140040011471
:101EF00000400114007DB3C7586C7E4831A38D3378
:101F00002F31C7CDCD7DB3C7586C7E4831A38D33FB
:101F10002F31C7CDCD73B3C7585F744831A3803319
:101F20002F31C7CDCD63DBCE8254724339A17B22E2
:101F3000556E76C3C96581CB2B55782451B47E820A
:101F4000314CCFC7E46581CB2A55782451B47B82CC
:101F5000314CCFC7E47DB3C7586C7E4831A38D3375
:101F60002F31C7CDCD02020202020202020202029A
:101F70000202020202020202020200020202000245
:101F80000202020202000000000000000000000047
:101F90000000000000000000000000000000000041
:101FA0000000000000000000000000000000000031
:101FB000000000000002020202020202020202020B
:101FC0000202020202000000000000000000000007
:101FD0000000000000000000000000000000000001
:101FE00000000000000000000000000000000000F1
:101FF00000000000000000000000000000000000E1
:1020000000000000000000000000000000000000D0
:1020100000000000000000000000000000000000C0
:1020200000000000001414141414141414141414D4
:1020300014141414141E1E1E1E1E1E1E1E1E1E1EF2
:102040001E1E1E1E1E0000000000000000000000FA
:102050000000000000010001000100010001000A71
:10206000001400140040011400A401DC007DB3C77B
:10207000586C7E4831A38D332F31C7CDCD7DB3C78A
:10208000586C7E4831A38D332F31C7CDCD87B3C770
:102090005879884831A39A332F31C7CDCD89B8BF3D
:1020A0005A7E98202A78A5843935D8A79083C4B65B
:1020B0004F7A967A2DD0A42B355078CBB283C4B604
:1020C0004F80967A2DD0A42B355078CBB27DB3C7F4
:1020D000586C7E4831A38D332F31C7CDCD0202021B
:1020E00002020202020202020202020202020202D0
:1020F00002020202020202020202020202000202C2
:1021000002000202020202020202020202000000B7
:1021100000000000000000000000000000000000BF
:1021200000000000000000000000000000020202A9
:102130000202020202020202020202020200000085
:10214000000000000000000000000000000000008F
:10215000000000000000000000000000000000007F
:10216000000000000000000000000000000000006F
:10217000000000000000000000000000000000005F
:10218000000000000000000000000000000000004F
:1021900000000000000000000000000000282828C7
:1021A000282828282828281414141414143C3C3CEB
:1021B0003C3C3C3C3C3C3C1E1E1E1E1E1E000000C7
:1021C0000000000000000000000000000005000109
:1021D00000010003006400DC0064003C007DA8C72F
:1021E000556C7E532FA78F332F31C7CDCD6B92E91E
:1021F000635F6C641B9F83383E28A6CED06B96E944
:10220000665F8F5726A18C383E28A6CED07E96DEFC
:102210005C6B7D621B9F904F2C28A6CED07DA5C7FE
:10222000556C7E552FA78F332F31C7CDCD020202BB
:10223000020202020202020202020202020202027E
:102240000202000000000003030303030300000078
:10225000000000000000000404040404030404045B
:10226000040404040404040404040404040000003A
:10227000000000000000000000000000000101015B
:102280000101000000000001010100000000000049
:10229000000000000000000000000000000000003E
:1022A00000000000000000000000000000282828B6
:1022B000282828282828281414141414143C3C3CDA
:1022C0003C3C3C3C3C3C3C1E1E1E1E1E1E000000B6
:1022D00000000000000000000000000000050001F8
:1022E00000010003006400DC0064003C007DA5C721
:1022F000556C7E572FA78F332F31C7CDCD8B96E6E8
:1023000061788E65109A9C4F2C28B7BCD0649AE0F7
:10231000616B8E64139AA14F2C28B7BCD0799ADEDA
:102320005F5D7D5E209C904F2C28A6CED07DA7C7F8
:10233000556C7E542FA78F332F31C7CDCD020202AB
:102340000202020202020202020202020200000073
:10235000000002020202020404040404040000005B
:10236000000002020202020404040404040404043F
:102370000404040404040404040404040400000029
:10238000000000000000000000000000000000004D
:102390000000010101010100000001010100000035
:1023A000000000000000000000000000000000002D
:1023B00000000000000000000000000000141414E1
:1023C000141414141414141414141414141E1E1EAF
:1023D0001E1E1E1E1E1E1E1E1E1E1E1E1E00000077
:1023E00000000000000000000000000000010001EB
:1023F0000001000A000A001400080240012C010834
:10240000027DB3C7586C7E4831A38D332F31C7CDC1
:10241000CD7DB3C7586C7E4831A38D332F31C7CDE6
:10242000CD7D5ECD596C7A9933A88C0A6769F1929B
:102430008F77DFF9726B7C1D028E8F0B3169E9CAD1
:102440008B7DB9F9826C7C43017C912D4145C9BDDE
:10245000AF7DB3C7586C7E4831A38D332F31C7CDC4
:10246000CD02020202020202020202020202020281
:10247000020202020202020202020202020202023C
:10248000020000000000000000000000000000004A
:10249000000000000000000000000000000000003C
:1024A000000202020202020202020202020202020E
:1024B000020000000000000000000000000000001A
:1024C000000000000000000000000000000000000C
:1024D00000000000000000000000000000000000FC
:1024E00000000000000000000000000000000000EC
:1024F00000000000000000000000000000000000DC
:10250000001414141414141414141414141414149F
:10251000141E1E1E1E1E1E1E1E1E1E1E1E1E1E1EE5
:102520001E0000000000000000000000000000008D
:102530000001000100010001001E001400DC00A4E5
:10254000015E0158027DB3C7586C7E4831A38D33BC
:102550002F31C7CDCD7DB3C7586C7E4831A38D33A5
:102560002F31C7CDCD7AB3C8576C7A4630A38D14BE
:10257000832AEE6FC97A85C86E6780762F8D8D1697
:10258000C86CE82F857459ED516884A010AD920194
:10259000D277FE27797DB3C7586C7E4831A38D333F
:1025A0002F31C7CDCD020202020202020202020254
:1025B0000202020202000000000000000000000011
:1025C000000000000000000000000000000000000B
:1025D00000000000000000000000000000000000FB
:1025E00000000000000202020202020202020202D5
:1025F00002020202020000000000000000000000D1
:1026000000000000000000000000000000000000CA
:1026100000000000000000000000000000000000BA
:1026200000000000000000000000000000000000AA
:10263000000000000000000000000000000000009A
:1026400000000000001414141414141414141414AE
:1026500014141414141E1E1E1E1E1E1E1E1E1E1ECC
:102660001E1E1E1E1E0000000000000000000000D4
:1026700000000000000A0028000A002800F401E819
:1026800003D007E8037DB3C7586C7E4831A38D3370
:102690002F31C7CDCD7DB3C7586C7E4831A38D3364
:1026A0002F31C7CDCD7D93F76A6C7E6604918D3353
:1026B0002F31C7CDCD7D93F76A6C7E6604918D3343
:1026C0002F31C7CDCD7DB3C7586C7E4831A38D3334
:1026D0002F31C7CDCD020202020202020202020223
:1026E00002020202020202020202020202020202CA
:1026F00002020202020000000000000000000000D0
:10270000000000000004040404040404040404049D
:1027100004040404040000000000000000000000A5
:10272000000000000001010101010101010101019E
:102730000101010101030303030303030303030373
:10274000030303030300000000000000000000007A
:10275000000000000014141414141414141414149D
:1027600014141414141E1E1E1E1E1E1E1E1E1E1EBB
:102770001E1E1E1E1E0000000000000000000000C3
:1027800000000000000A0028000A000A002800F4E7
:1027900001E803F401F401E8037DB3C7586C7E48F7
:1027A00031A38D332F31C7CDCD7DB3C7586C7E4853
:1027B00031A38D332F31C7CDCD7DB3C7586C7E4843
:1027C00031A38DBB3A2EC7CDCD7DB3C7586C7E48A3
:1027D00031A38DBA672EC7CDCD7DB3C7586C7E4867
:1027E00031A38DBB3A2EC7CDCD7DB3C7586C7E4883
:1027F00031A38D332F31C7CDCD0202020202020276
:1028000002020202020202020202020202020202A8
:102810000202020202020202020202020202020298
:102820000202020202020202020202020202020288
:10283000020202020202020202040404040404046A
:102840000404040404040404040000000000000064
:102850000000000000000000000000000000000078
:102860000000000000000000000000000000000068
:102870000000000000000000000000000000000058
:102880000000000000000000000000000000000048
:1028900000000000000000000014141414141414AC
:1028A0001414141414141414141E1E1E1E1E1E1EA2
:1028B0001E1E1E1E1E1E1E1E1E000000000000000A
:1028C00000000000000000000028000A00140014AE
:1028D00000010001000A000A001900140014001E83
:1028E000008403C8009001900178000802900190D4
:1028F00001F4019001900158027DB3C7586C7E48E5
:1029000031A38D332F31C7CDCD7DB3C7586C7E48F1
:1029100031A38D332F31C7CDCD7DB0F7796C7E4794
:1029200002828D332F31C7CDCD81B4EC6A4B8B47FA
:1029300002827403324DEF9DA033B4EC6A5F8B4783
:1029400002827401324AE89EA03398ED2D5F8B47D6
:10295000028274023231E898A03385952D5F8B474F
:10296000028274023233E88FA0338EEA305F8B47E5
:10297000028274023231E89AA07BC2D256528B474F
:10298000028274023231E895A084CADC695B903F10
:10299000047D8A443431E8AAA07BAEF8766A814C83
:1029A00004878F343231DBC2D57B9BF8766A815F36
:1029B00004878F343231DBC2D57DB3C7586C7E4873
:1029C00031A38D332F31C7CDCD0404040404040496
:1029D00004040404040404040404040404040404B7
:1029E00004040404040404040404040404040404A7
:1029F0000404040404040404040404040404040497
:102A0000040404040404040404000000000004049A
:102A1000040404040404040404000000000004048A
:102A2000040404040404040404000000000004047A
:102A30000404040404040404040404040304040457
:102A40000404040404040404040404040304040447
:102A50000404040404040404040404040304040437
:102A60000404040404040404040404040304040427
:102A70000404040404040404040404040404040416
:102A80000404040404040404040000000000000022
:102A9000000000000000000000020202020200002C
:102AA0000000000000000000000000000000000026
:102AB000000000000000000000020202020200000C
:102AC00000000000000000000003030303030000F7
:102AD00000000000000000000003030303030000E7
:102AE00000000000000000000002020202020000DC
:102AF00000000000000000000002020202020000CC
:102B000000000000000000000000000000000000C5
:102B100000000000000000000000000000000000B5
:102B200000000000000000000000000000000000A5
:102B30000000000000000000000000000000000095
:102B4000000000000000000000282828282828286D
:102B50002828281414141414143C3C3C3C3C3C3CE1
:102B60003C3C3C1E1E1E1E1E1E00000000000000FD
:102B70000000000000000000001400140014001405
:102B800000140014001400010001000A0028000FC6
:102B9000000F00050032003200320001002D002D30
:102BA000000A000A000A000A002D000A000A000AB2
:102BB000000A002D0050001E000F000F000F000F34
:102BC000000F000F000F000F0084038403840384B0
:102BD0000384038403840308020802F401400658B6
:102BE0000258023408FC03FC03FC03E4078403845A
:102BF00003F401F401F401F4018403F401F401F499
:102C000001F4018403400640065802580258025855
:102C10000258025802580258027DB3C7586C7E48C9
:102C200031A38D332F31C7CDCD7DB3C7586C7E48CE
:102C300031A38D332F31C7CDCD7CB5F77C6C7E476A
:102C4000047F8D332F31C7CDCD7C77F77C6C7E83AD
:102C5000047F8D87304C6CCDA77C4EF77C6C7EB9A1
:102C6000047F8D8730046CCDEF79DDFA686C7E9F30
:102C7000429B8DBE300436CDEF79DDFA686C7E9FC5
:102C80005AC68DCE390835B6F479DDFA686C7E9F68
:102C900042B98DBE30040F5E8D79DDFA686C7E9F7F
:102CA00042B98DBE3004AE7D8D79DDFA686C7E9FB1
:102CB00042B98DBE3004B472E379DDFA686C7E9F50
:102CC0006CCA8DCD3004AB32CA369FFA686C7E1C5C
:102CD0000E9C8DCD3004AB32CA7E9FFA686C811C8D
:102CE0000E9C8DCD2B049728E67EC6C66D6C813771
:102CF0003E9C8DCD2B049728E658D9817E6CA71C6D
:102D0000717F8DCD2B049728E635D9897E6CC41C44
:102D1000717F8DCD2B049728E616D98A7E6CEA1C2C
:102D2000717F8DCD2B049728E658D9867E6CA71C21
:102D3000717F8DCD2B049728E658D9867E6CA71C11
:102D4000717F8DCD2B049728E67CC2F76D6B81389F
:102D5000049390CD2B049728E67CCBD96D6B812F03
:102D6000239390CD2B049728E67CB0B2616B811D34
:102D7000149390CF2B048F28E67CBDCB616B81161A
:102D8000319390CD2B049728E67CD8C9626B813CA7
:102D90002A9F90CD2B049728E67CE4D2686B815360
:102DA0003AB390CD2B049728E67CCBD96D6B812F5D
:102DB000239390CD2B049728E67CB0B2616B811DE4
:102DC000149390CF2B048F28E67CBDCB616B8116CA
:102DD000319390CD2B049728E67CD8C9626B813C57
:102DE0002A9F90CD2B049728E67CE4D2686B815310
:102DF0003AB390CD2B049728E67CCBD96D6B812F0D
:102E0000239390CD2B049728E681BFF76D6B829AB0
:102E1000798390CD2B049728E6815E813A6E80A25B
:102E200071C488CD4E049779E6815E8A3B6E8099A5
:102E300078C488CD4E04C2848D815C81396E80A2B5
:102E400079C488CD4E0440848D815A84386E80A226
:102E500079C488D0242E34D0DE815EB7646E80A21F
:102E60006EBA88A72D575ACAA78157C5476E80A248
:102E700039BA8F822D5374CBA7817DC5476E807878
:102E80003BB88F8F245974CBA77BA6DF5E6A7D5138
:102E900023A28D8F245974CBA77DB3C7586C7E486D
:102EA00031A38D332F31C7CDCD04040404040404B1
:102EB00004040404040404040404040404040404D2
:102EC00004040404040404040404040404040404C2
:102ED00004040404040404040404040404040404B2
:102EE00004040404040404040404040404040404A2
:102EF000040000040404040404040404040404049A
:102F00000400000404040404040404040404040489
:102F10000400000404040404040404040404040479
:102F2000040000010101010101040404040404047B
:102F3000040000010101010101040404040404046B
:102F40000400000101010101010101010101010170
:102F50000100000101010101010101010101010163
:102F6000010000010101010101040404040404043E
:102F70000400000404040404040404040404040419
:102F80000400000101010101010000000000000037
:102F90000000000000000000000000000000000031
:102FA0000000000000000000000000000000000021
:102FB0000000000000000000000000000000000011
:102FC00000000000000000000002020202020202F3
:102FD00002020204040404040402020202020202C5
:102FE00002020204040404040402020202020202B5
:102FF00002020204040404040402020202020202A5
:103000000202020404040404040202020202020294
:103010000202020404040404040202020202020284
:103020000202020404040404040202020202020274
:103030000202020404040404040202020202020264
:103040000202020404040404040202020202020254
:103050000202020404040404040202020202020244
:103060000202020404040404040202020202020234
:103070000202020404040404040202020202020224
:103080000202020404040404040202020202020214
:103090000202020404040404040202020202020204
:1030A00002020204040404040402020202020202F4
:1030B00002020204040404040402020202020202E4
:1030C00002020204040404040402020202020202D4
:1030D00002020204040404040402020202020202C4
:1030E00002020204040404040402020202020202B4
:1030F00002020204040404040402020202020202A4
:103100000202020404040404040202020202020293
:103110000202020404040404040202020202020283
:103120000202020404040404040000000000000081
:10313000000000000000000000000000000000008F
:10314000000000000000000000000000000000007F
:10315000000000000000000000000000000000006F
:10316000000000000000000000000000000000005F
:10317000000000000000000000000000000000004F
:10318000000000000000000000000000000000003F
:10319000000000000000000000000000000000002F
:1031A000000000000000000000000000000000001F
:1031B000000000000000000000000000000000000F
:1031C00000000000000000000000000000000000FF
:1031D00000000000000000000000000000000000EF
:1031E00000000000000000000000000000000000DF
:1031F00000000000000000000001010101010101C8
:1032000001010101010101010103030303030303A0
:10321000030303030303030303010101010101018C
:103220000101010101010101010000000000000095
:103230000000000000000000000303030303030379
:103240000303030303030303030000000000000063
:10325000000000000000000000000002000000006C
:10326000020000000000000000000000000000005C
:103270000000000000000000000003000003000345
:103280000000030000000000000200000000020037
:10329000000000000000000000000000000000002E
:1032A000000000000000000000000000000000001E
:1032B000000000000000000000000000000000000E
:1032C00000000000000000000000000000000000FE
:1032D00000000000000000000000000000000000EE
:1032E00000000000000000000000000000000000DE
:1032F00000000000000000000000000000000000CE
:1033000000000000000000000000000000000000BD
:1033100000000000000000000000000000000000AD
:10332000000000000000000000000000000000009D
:10333000000000000000000000000000000000008D
:10334000000000000000000000000000000000007D
:10335000000000000000000000000000000000006D
:10336000000000000000000000000000000000005D
:10337000000000000000000000000000000000004D
:10338000000000000000000000000000000000003D
:10339000000000000000000000000000000000002D
:1033A0000000000000000000000001020304050608
:1033B0000708090A0B0C0D0E0F0D0A0020256420CA
:1033C00025782C00303132333435363738394142A4
:1033D000434445460025640D0A00204D49433D0005
:1033E00025646D560020564F4C543D002578005002
:1033F00053443D00207A3D25640D0A002C20793D80
:1034000025642C0056616C75657320783D20256419
:10341000000A49646C65206D6F64650A0045787028
:103420006572696D656E74616C206D6F64650D0AFF
:1034300000656C700D0A4C20206C6566740D0A5294
:10344000202072696768740D0A462020666F7277C3
:103450006172640D0A4220206261636B0D0A7A205A
:103460002074696C74206F6E2F6F66660D0A692078
:1034700020414443207465737420285053442C2009
:103480004D69632C20426174204C6576656C290D72
:103490000A74202054696C74207465737420286C3D
:1034A0006F6F702073686F77696E67206163636503
:1034B0006C65726F6D657465722076616C7565738D
:1034C00020756E74696C2049522070726573736543
:1034D000640D0A702020426173696320706F736508
:1034E0000D0A712020446973706C617920616C6CE5
:1034F00020736572766F20706F736974696F6E7375
:103500000D0A7720206C65616E206677640D0A6174
:1035100020206C65616E206C6566740D0A64202045
:103520006C65616E2072696768740D0A7320206C87
:1035300065616E206261636B0D0A7620207665728C
:1035400073696F6E206E756D6265720D0A4D202075
:103550006D6F6469667920706172616D205B6E5D6C
:103560005B2B7C2D7C3D5D205B6E6E5D0D0A7220B9
:1035700020726573706F6E6420746F206576656E5F
:1035800074206F6E2F6F66660D0A6C20206C696761
:10359000687420666C61736820746573740D0A65C5
:1035A000095B6E6E5D2073657420616374696F6E74
:1035B000206576656E74206E6E202874776F2064A7
:1035C0006967697473290D0A78095B6E6E5D5B2EFD
:1035D0002E2E5D207472616E736D697420746F207D
:1035E00077434B20627573205B6E6E5D2062797449
:1035F000657320616E73207761697420666F722035
:1036000032206E79746520726573706F6E73650D0C
:103610000A580961732061626F76652062757420B3
:103620006E6F207265706F6E7365207061636B657D
:1036300074730D0A6D20206D6F7665202D207379CF
:103640006E6368726F6E6F7573206D6F7665202D77
:103650002061732073657269616C736C6176656556
:10366000206D6F6465206275742077616974730DD5
:103670000A262020456E7465722061206E657720D1
:1036800070726F6772616D0D0A3F2020446973701C
:103690006C61792063757272656E74206D6F6465FC
:1036A0000D0A21202052756E2063757272656E744A
:1036B0002070726F6772616D20696E206D656D6F2D
:1036C00072790D0A23202062696E617279206D6F14
:1036D00064650D0A000D0A00256420200025642C75
:1036E0000025642C0025642C0025642C0025642C06
:1036F0000025642C0025642C000D0A00257820206C
:1037000000257800257800257800257800257800A8
:1037100025780025782C004275696C743A204A752A
:103720006E20313220323031300D0A0065723D009A
:1037300044796E616D69632042616C616E636520DE
:1037400054657374204C2F5220282578290D0A00C7
:103750004D6F7665506F73202825642920202578C9
:10376000202D2025780D0A0052656164506F73206A
:10377000283229283729202578202D2025782C202B
:103780000044796E616D69632042616C616E6365AE
:10379000205465737420462F4220282578290D0A6D
:1037A00000526573706F6E736520282578290D0AA5
:1037B00000416363656C206F6E202D205A65726F27
:1037C0002825642C25642C2564290D0A0041636397
:1037D000656C206F66660D0A0054696C7420546530
:1037E0007374202D206C6F6F707320756E74696C0C
:1037F00020616E7920627574746F6E206F6E20493F
:103800005220707265737365640D0A004144432051
:1038100054657374202D206C6F6F707320756E74F7
:10382000696C20616E7920627574746F6E206F6EA2
:1038300020495220707265737365640D0A004E2F23
:10384000410D0A00426173696320506F73650D0A70
:103850000054696C74206576656E74207A205B254F
:10386000645D202825642C25642C2564290D0A001C
:1038700054696C74206576656E742079205B2564CC
:103880005D202825642C25642C2564290D0A00540C
:10389000696C74206576656E742058205B25645DC4
:1038A000202825642C25642C2564290D0A00446FEA
:1038B0006E650D0A0052656365697665642025644E
:1038C0002062797465730D0A005E0020505B2564E8
:1038D0005D3D25780D0A00256300205370656369FE
:1038E000616C206576656E74205B25785D0D0A003D
:1038F00025640D0A0025630077634B20696E7465AB
:1039000072616374697665202861742039363030BD
:1039100029203A2000206F6B0D0A003D257825787C
:103920000D0A004578706572696D656E74616C2072
:103930004D6F6465202827682720666F72206865B0
:103940006C70290D0A002563004D4943206576659A
:103950006E742025780D0A00204952205265636557
:10396000697665642025782066726F6D2025780D54
:103970000A0025630025630025643A25643A25641E
:103980002D256420004255533D25640D0A00566FD5
:103990006C74616765203D20256420282564290A10
:1039A00000436861726765206D6F64650A00457841
:1039B0006974696E6720636861726765206D6F6402
:1039C000650A00496E6974696174696E672063688D
:1039D00061726765206379636C650A00566F6C7469
:1039E000616765203D2025646D7620282564290ABD
:1039F00000436861726765206D6F64650A00436803
:103A0000617267696E6720636F6D706C65746520A5
:103A10002D2025646D560D0A00426174746572791B
:103A2000206368617267696E670D0A005365726989
:103A3000616C20536C617665206D6F64650A00BE11
:103A4000AD25632563256300426174746572792036
:103A5000766F6C746167653A202564206D560A00A4
:103A6000206F6B0A003D257825780A004C6F616451
:103A7000696E67206D6F74696F6E206275662025B0
:103A8000640A004E657874206D6F74696F6E2069EA
:103A90006E636F6D706C6574653A202564203C2000
:103AA00025640A004E6F206E657874206D6F74690E
:103AB0006F6E3B202564203D3D2025640A004E6F3B
:103AC00074206C6F6164696E67206D6F74696F6ECE
:103AD0002062656361757365207765277265206173
:103AE0006C726561647920696E206D6F74696F6EA8
:103AF000004C6F6164696E67206D6F74696F6E2032
:103B00006275662025640A0054696D6564206F75CE
:103B10007420616674657220726563656976696E8A
:103B2000672025642F25642062797465730A004537
:103B300072726F723A207265717565737465642074
:103B40006275666665722073697A65202825642926
:103B50002065786365656473206D6178202825642D
:103B6000290A006D6F74696F6E4275663A20000015
:103B700011241FBECFEFD0E1DEBFCDBF13E0A0E028
:103B8000B1E0EEEFF3EA00E00BBF02C007900D9248
:103B9000A63CB107D9F71CE0A6ECB3E001C01D922A
:103BA000AE34B107E1F70E94D31F0C94FD510C9481
:103BB00000001F920F920FB60F920BB60F921124B6
:103BC0008F939F93EF93FF939091F5088091BF0996
:103BD000981778F45D9BFECFE091F508F0E0ED5F7B
:103BE000F64F80818CB98091F5088F5F8093F5083E
:103BF0000AC09091F5088091BF09981721F410929E
:103C0000F5081092BF09FF91EF919F918F910F904E
:103C10000BBE0F900FBE0F901F9018951F920F9222
:103C20000FB60F920BB60F9211242F933F938F93E1
:103C30009F93EF93FF939CB18091FC088F5F8093DB
:103C4000FC0821E030E0F901EC52F74F8081F901E6
:103C5000ED52F74F80832F5F3F4F2830310599F7A2
:103C60009093DB08FF91EF919F918F913F912F915E
:103C70000F900BBE0F900FBE0F901F9018951F92C4
:103C80000F920FB60F9211242F935F936F937F9330
:103C90008F939F93AF93BF9389E182BF8091FF0879
:103CA000909100090196909300098093FF088091FC
:103CB000FF0890910009885E934008F443C0109279
:103CC00000091092FF088091FD089091FE08892B51
:103CD00049F08091FD089091FE0801979093FE08AD
:103CE0008093FD088091FB088F5F8093FB08809193
:103CF000FB088C3338F11092FB088091C209909137
:103D0000C309892B49F08091C2099091C309019799
:103D10009093C3098093C2098091DE088F5F8093DE
:103D2000DE088091DE088C3368F01092DE08809106
:103D3000F6088F5F8093F6088091F608883110F0BE
:103D40001092F6088091FF089091000964E670E0F7
:103D50000E944351892B49F48091C6039091C70377
:103D600001969093C7038093C603BF91AF919F9133
:103D70008F917F916F915F912F910F900FBE0F9058
:103D80001F9018951F920F920FB60F9211242F9328
:103D90003F938F939F9320914A0430914B048091DD
:103DA000DE099091DF092817390761F410924B045E
:103DB00010924A04DD9A1092C60987B78B7F87BF9D
:103DC0001EBC0FC080914C0490914D049DBD8CBDD4
:103DD00086B7846086BF87B7846087BF8FEF809384
:103DE000C7099F918F913F912F910F900FBE0F9018
:103DF0001F90189593E09BBB8CEF8ABB18BA84E7A1
:103E000087BB15BA40E844BB92BB11BA80E783B9BF
:103E100088E082B9109262001092610010926500F1
:103E200084E08093640010BE83BF12BE11BE1FBC2D
:103E300085E08EBD1DBC1CBC17BC16BC1BBC1ABCCF
:103E400019BC18BC109279001092780085BD14BC82
:103E500013BC10928B0090938A00109289001092EC
:103E600088001092810010928000109287001092BA
:103E700086001092850010928400109283001092A8
:103E8000820010926A0030E23ABF80E489BF17BE18
:103E900010927D001BB888E58AB926E02093950032
:103EA0001092900097E099B910929B0088E180935E
:103EB0009A0020939D00109298009093990048B921
:103EC00010BC37B916B8109274000895DA9ADB9ACC
:103ED000DC9AE5E6F0E0808184608083AF9ADD9A29
:103EE000DE9ADF9A1092C6091092C7091092BF0994
:103EF0001092F508C5981092DE0B1092E00B10920C
:103F000000091092FF081092FB081092DE08109230
:103F1000F608089584E190E09093E0088093DF082C
:103F200084E090E09093E2088093E10882E090E0E2
:103F30009093E4088093E3081092E6081092E50855
:103F40001092E8081092E7081092EA081092E90827
:103F500089E790E09093EC088093EB0889E990E082
:103F60009093EE088093ED0884EA9FE19093F20825
:103F70008093F1081092BE091092BD091092DD08DD
:103F80001092DC0808958AE990E09F938F9381E076
:103F90008F930E94EE298CE890E00E94E7280F9012
:103FA0000F900F9008950E94FA1E0E94661F0E94B3
:103FB000742160E072EC81E090E00E94602083E870
:103FC00090E20E949328789487B7816087BF0E940F
:103FD000C31F809165008B7F809365000E94742DC4
:103FE00080ED97E020E731E0F9013197F1F7019793
:103FF000D9F784E190E09093E0088093DF0884E0B3
:1040000090E09093E2088093E10882E090E0909342
:10401000E4088093E3081092E6081092E5081092F5
:10402000E8081092E7081092EA081092E90889E778
:1040300090E09093EC088093EB0889E990E09093EE
:10404000EE088093ED0884EA9FE19093F208809354
:10405000F1081092BE091092BD091092DD0810926D
:10406000DC081092C1091092C0098091C00990919A
:10407000C10982309105B1F08330910534F4009785
:1040800059F081309105A9F70AC08430910569F093
:104090008630910571F70CC00E94FB2EE6CF0E947E
:1040A000173AE3CF0E94903BE0CF0E94A140DDCFC2
:1040B0000E944049DACF90934904809348040895C0
:1040C0009B01AC016B54704E834E9F4FF3E0660F23
:1040D000771F881F991FFA95D1F7E4E0220F331F4D
:1040E000441F551FEA95D1F70E946A512150304074
:1040F0002093990030939800089589EC99E00895F1
:1041000082ED99E00895982F8091C8098823E1F302
:1041100090939C001092C80908951092CE091092B5
:10412000CD0908958091CD099091CE09892B11F088
:1041300080E008958FEF08951F920F920FB60F92AF
:104140000BB60F9211242F933F934F935F936F936E
:104150007F938F939F93AF93BF93EF93FF93609160
:104160009C008091480490914904892B39F0E0919A
:104170004804F0914904862F09950FC089EC99E015
:104180000E940422882349F48091DA099091DB0986
:1041900001969093DB098093DA09FF91EF91BF912B
:1041A000AF919F918F917F916F915F914F913F91CF
:1041B0002F910F900BBE0F900FBE0F901F90189570
:1041C000682F82ED99E00E94042208951F920F92B9
:1041D0000FB60F920BB60F9211242F933F934F936C
:1041E0005F936F937F938F939F93AF93BF93EF935F
:1041F000FF938091D109882379F08091D60990911D
:10420000D709892B39F082ED99E00E949B21809398
:104210009C0005C01092D1098FEF8093C809FF91CF
:10422000EF91BF91AF919F918F917F916F915F912E
:104230004F913F912F910F900BBE0F900FBE0F909B
:104240001F9018958FEF8093D10982ED99E00E941D
:104250009B21982F8091C8098823E1F390939C00BB
:104260001092C8090895CF93DF93EC018091CB0998
:104270009091CC09892B69F08091CD099091CE095C
:10428000892B39F089EC99E00E949B2188838FEF7C
:1042900001C080E0DF91CF910895DF93CF930F921B
:1042A000CDB7DEB7CE0101960E943321882319F4E1
:1042B0002FEF3FEF03C08981282F30E0C9010F9015
:1042C000CF91DF91089540E450E068EC73E089EC11
:1042D00099E00E948E2140E450E068E074E082EDB5
:1042E00099E00E948E2108950E9463211092490452
:1042F0001092480488ED80939A0060E875E280E0AF
:1043000090E00E9460208FEF8093C8091092D1093D
:104310001092DB091092DA0978940895FC018FB7A6
:10432000F8947183608353834283178216821582C7
:1043300014828FBF0895DC014FB7F89414968D91C5
:104340009C911597892B11F4E0E025C016968D916C
:104350009C911797ED91FC911197E80FF91FE0815F
:10436000019617969C938E93169712962D913C91D9
:1043700013978217930730F0821B930B17969C9329
:104380008E93169714968D919C911597019715967B
:104390009C938E9314974FBF8E2F0895FC014FB7B7
:1043A000F8948481958168177907B0F486819781A4
:1043B000860F971F97838683228133818217930705
:1043C00020F0821B930B9783868384819581861BC3
:1043D000970B9583848302C0158214824FBF089582
:1043E000FC01CB012FB7F8942FBF26813781628162
:1043F0007381820F931F0E9443510190F081E02D41
:10440000E80FF91F808108951F93CF93DF93EC018C
:10441000162F4FB7F8942C813D816A817B81261736
:10442000370798F48E819F81820F931F0E9443511A
:10443000E881F981E80FF91F10838C819D81019635
:104440009D838C834FBF8FEF02C04FBF80E0DF9111
:10445000CF911F910895FC018FB7F8948FBF2281EF
:10446000338184819581281B390BC9010895FC0192
:104470008FB7F894158214828FBF089580919202AD
:10448000909193028E54944019F02EE434E002C0CF
:1044900028E836E03093930220939202C9010895F0
:1044A0005D9BFECF8CB908952091FF0830910009E3
:1044B00017C08091FF08909100098217930738F484
:1044C0008091FF089091000988519C4F04C0809111
:1044D000FF0890910009821B930B8536910510F41B
:1044E0005F9BE7CF8CB108955D9BFECF8FEF8CB9BA
:1044F0005D9BFECF8FED8CB95D9BFECF80E28CB9CA
:104500005D9BFECF8FE78CB92091FF0830910009A9
:1045100017C08091FF08909100098217930738F423
:104520008091FF089091000988519C4F04C08091B0
:10453000FF0890910009821B930B8536910510F4BA
:104540005F9BE7CF8CB12091FF083091000917C025
:104550008091FF08909100098217930738F48091A9
:10456000FF089091000988519C4F04C08091FF087A
:1045700090910009821B930B8536910510F45F9B87
:10458000E7CF8CB10895EF92FF920F931F93CF93D3
:10459000DF932091340B3091350BC091320BD091C9
:1045A000330BC901BE010E94435164317105C8F14A
:1045B000B90180E090E00E94744E26E636E646E6B9
:1045C00051E40E948E4B7B018C01BE0180E090E0A3
:1045D0000E94744E9B01AC01C801B7010E94884C37
:1045E0000E94B84924ED3FEF261B370B30934D0452
:1045F00020934C04DD9881E08093C60985E08EBD50
:104600008FEF263E380718F4C9014A9602C08FEF93
:104610009FEF9DBD8CBD86B7846086BF87B78460E1
:1046200087BFDF91CF911F910F91FF90EF90089579
:104630004F925F926F927F928F929F92AF92BF92B2
:10464000CF92DF92EF92FF920F931F93CF93DF935E
:104650008091320B9091330B26E3C22E2BE0D22EA9
:10466000C0EBDAE04C01AA24BB240F2EF0E04F2E61
:10467000F0E05F2EFEE76F2EF3E47F2EF02DD601E3
:104680008C91882309F446C011968C91119712964B
:104690006C918617B9F170E0681B7109882777FD66
:1046A0008095982F0E94C24D7B018C01C501B401F9
:1046B0000E94744E9B01AC01C801B7010E94884C56
:1046C0007B018C01688379838A839B8320E030E0BF
:1046D0004DE753E40E94324D18162CF4488259825B
:1046E0006A827B8217C020E030E04DE753ECC801BE
:1046F000B7010E94924D88236CF480E090E0AEE711
:10470000B3EC04C080E090E0A0E0B0E0888399833F
:10471000AA83BB83A5E0B0E0CA0EDB1E2496B1EDF0
:10472000CB16BBE0DB0609F0AACF10924B04109227
:104730004A04DF91CF911F910F91FF90EF90DF908E
:10474000CF90BF90AF909F908F907F906F905F9031
:104750004F900895FF920F931F93CF93DF93809113
:10476000BF098823E1F780914A0490914B04019698
:1047700090934B0480934A049091390B9295990F32
:10478000907E9F61E091BF09F0E0ED5FF64F8FEF03
:1047900080838091BF098F5F8093BF09E091BF093B
:1047A000F0E0ED5FF64F90838091BF098F5F8093BB
:1047B000BF09E091BF09F0E0ED5FF64F80E1808333
:1047C0008091BF098F5F8093BF09C6E3DBE000EBF8
:1047D0001AE0FF248881882359F160914A0470917E
:1047E0004B0480E090E00E94744EF80120813181FA
:1047F000428153810E948E4B0E94204E8981680F16
:10480000711D6F3F71051CF06EEF70E005C016164C
:10481000170614F061E070E0E091BF09F0E0ED5F91
:10482000F64F60838091BF098F5F8093BF09F626A2
:1048300025960C5F1F4FFBE0C13DDF0759F68FE760
:10484000F822E091BF09F0E0ED5FF64FF082809131
:10485000BF098F5F8093BF09DF91CF911F910F91A7
:10486000FF900895EF92FF921F93CF93DF93FC0187
:1048700070930101609300014091F2095091F30996
:104880002091000130910101C0910001D0910101FE
:10489000CC0FDD1FCC0FDD1F2296CA01880F991F98
:1048A000840F951F2F5F3F4FBC01629FC001639F24
:1048B000900D729F900D1124C80FD91FCE0FDF1FCE
:1048C0008A819B819093330B8093320B9093DF0905
:1048D0008093DE09888199819093350B8093340B06
:1048E0008091000190910101892B71F47E01BE013C
:1048F000640F751FDA011296AA0FBB1FAC0FBD1F04
:1049000020E030E011E057C080910001909101015A
:104910002091000130910101BC01469FC001479FD9
:10492000900D569F900D1124DC01AA0FBB1FA80FFC
:10493000B91F2150304C220F331F220F331FA20FFB
:10494000B31F1296AE0FBF1F20E030E015C0F90173
:10495000E755FC4CE4918E2F90E0FC01EE0FFF1F19
:10496000EE0FFF1FE80FF91FE05DF44F13968C91D7
:10497000139787832F5F3F4F11962417350738F31E
:10498000B5CFF901E755FC4CE4918E2F90E0FC0186
:10499000EE0FFF1FEE0FFF1FE80FF91FE05DF44F52
:1049A0001683E7018B818087EB018B8181878D9155
:1049B00082872F5F3F4F0894E11CF11C6F5F7F4F90
:1049C00024173507F0F25798569A88EB92E1019731
:1049D000F1F70E94C3220E9418230E94AA2380910B
:1049E000BF09882371F08091F5088F5F8093F508E7
:1049F000E091F508F0E0EE5FF64FE0815D9BFECFC1
:104A0000ECB9DF91CF911F91FF90EF9008958091C5
:104A1000C7098823B1F00E94AA238091BF09882387
:104A200071F08091F5088F5F8093F508E091F508AB
:104A3000F0E0EE5FF64FE0815D9BFECFECB91092A7
:104A4000C70908950F931F93CF93DF93EC0106E6F8
:104A50001EE002C00E9407258091C6098823D1F775
:104A600020910001309101012F5F3F4F888190E03C
:104A70002817390768F460910001709101016F5F98
:104A80007F4FCE010E943224C8010197F1F7E4CF95
:104A9000DF91CF911F910F910895EF92FF920F93A5
:104AA0001F93CF93DF93DA985798569AE091BF09F6
:104AB000F0E0ED5FF64F8FEF80838091BF098F5F4D
:104AC0008093BF09E091BF09F0E0ED5FF64F8FE7FB
:104AD00080838091BF098F5F8093BF09E091BF09F8
:104AE000F0E0ED5FF64F80E180838091BF098F5F3A
:104AF0008093BF0910E0C0E0D0E0ECEBEE2EE3E3E2
:104B0000FE2E01E0FE01EF54FF4F9491E091BF09AA
:104B1000F0E0ED5FF64F90838091BF098F5F809347
:104B2000BF091927892F90E09F938F93DF93CF932D
:104B3000FF92EF920F930E94EE2921968DB79EB7B8
:104B400007960FB6F8949EBF0FBE8DBFC031D1053A
:104B5000C9F61F77E091BF09F0E0ED5FF64F1083D3
:104B60008091BF098F5F8093BF098091F5088F5FA7
:104B70008093F508E091F508F0E0EE5FF64FE081F4
:104B80005D9BFECFECB9DA9A89EB93E39F938F9309
:104B900081E08F930E94EE290F900F900F90DF918C
:104BA000CF911F910F91FF90EF9008951F93CF9396
:104BB000DF93C6E3DBE010E08881882379F04C8145
:104BC000242F64E6812F806E0E9401418AEF90E0DD
:104BD0000E94CF408AEF90E00E94CF4025961F5F51
:104BE0001F3151F7DF91CF911F9108950F931F93BC
:104BF000CF93DF93C4EFD9E000E088818823F1F000
:104C0000102F106E2A8149816BE0812F0E94014193
:104C10008AEF90E00E94CF408AEF90E00E94CF4060
:104C20004B81242F68E1812F0E9401418AEF90E09F
:104C30000E94CF408AEF90E00E94CF4026960F5FFF
:104C40000F31D9F6DF91CF911F910F910895DF9227
:104C5000EF92FF920F931F93CF93DF93DC01E4EF6A
:104C6000F9E0108211821282138214821582369624
:104C70008AE0EE3AF807A9F78C918093F009109238
:104C8000F10911968C911197482F50E05093F30938
:104C90004093F2091296BD01640F751F12977B01B4
:104CA000E40EF51E0091E8091091E909ED0120E0FC
:104CB00030E0DD24D3942FC0F901E755FC4CE4919A
:104CC0008E2F90E0DC01AA0FBB1FA80FB91FAA0FFF
:104CD000BB1FA651B64F1A96DC921A9789811B9674
:104CE0008C931B97FB01E20FF31F80811C968C9322
:104CF0001C97F701E20FF31F80811D968C931D977F
:104D00001E96DC921E97F801E20FF31FE4911F96A6
:104D1000EC932F5F3F4F21962417350768F2C0E0D0
:104D2000D0E014C0FE01E755FC4C1491812F0E9485
:104D30006741212F30E0F901EE0FFF1FEE0FFF1F3B
:104D4000E20FF31FE05DF44F878321968091F20913
:104D50009091F309C817D90728F30E94F625DF912F
:104D6000CF911F910F91FF90EF90DF900895BF9228
:104D7000CF92DF92EF92FF920F931F93CF93DF9327
:104D8000E4EFF9E0108211821282138214821582FC
:104D900036968AE0EE3AF807A9F7E090F209F0902B
:104DA000F30900912C0B10912D0BC091D10BD091D8
:104DB000D20B6091E0097091E1094091E8095091AE
:104DC000E90920E030E0DD24D39432C0F901E75551
:104DD000FC4CE4918E2F90E0DC01AA0FBB1FA80FC2
:104DE000B91FAA0FBB1FA651B64F1A96DC921A978D
:104DF000F801E20FF31FE4911B96EC931B97FE0161
:104E0000E20FF31FE4911C96EC931C97FB01E20F59
:104E1000F31FE4911D96EC931D971E96DC921E974E
:104E2000FA01E20FF31FE4911F96EC932F5F3F4FBF
:104E30002E153F0508F4CACF0E94F625C0E0D0E049
:104E4000BB24B39408EBC02E02E1D02ED8C0D0937F
:104E50000101C09300018091000190910101880F30
:104E6000991FE091DC09F091DD09E80FF91F8591A8
:104E700094919093330B8093320B9093DF0980933E
:104E8000DE098091000190910101880F991FE09146
:104E90002E0BF0912F0BE80FF91F859194919093B1
:104EA000350B8093340B4091F2095091F309E6E3FE
:104EB000FBE0CA01880F991F880F991F840F951F67
:104EC0008E0F9F1F06C010821182128213821482DD
:104ED0003596E817F907B9F76091E4097091E5098B
:104EE000E090E609F090E7090091E2091091E309EA
:104EF00020E030E060C0F901E755FC4CE4918E2FD2
:104F000090E0DC01AA0FBB1FAA0FBB1FA80FB91F9F
:104F1000A05DB44F1696BC921697809100019091B7
:104F20000101489FF001499FF00D589FF00D112499
:104F3000E20FF31FE60FF71FE4911796EC93179714
:104F400080910001909101010196849FF001859F5D
:104F5000F00D949FF00D1124E20FF31FE60FF71FE1
:104F6000E4911896EC9318978091000190910101BB
:104F7000489FF001499FF00D589FF00D1124E20F5A
:104F8000F31FEE0DFF1DE4911996EC931997809194
:104F9000000190910101489FF001499FF00D589F39
:104FA000F00D1124E20FF31FE00FF11FE4911A96A8
:104FB000EC932F5F3F4F2417350708F49CCF579889
:104FC000569AC6010197F1F70E94D6250E94C32286
:104FD0000E9418230E94AA238091BF09882371F0A0
:104FE0008091F5088F5F8093F508E091F508F0E077
:104FF000EE5FF64FE0815D9BFECFECB9219680918C
:10500000F0099091F109C817D90708F420CFDF9172
:10501000CF911F910F91FF90EF90DF90CF90BF90B5
:105020000895DC9842E051E024E130E0829FD00115
:10503000839FB00D929FB00D1124A40FB51F2D9129
:105040003C9111973093E7092093E609FC01EE0F9C
:10505000FF1F9C0163E0220F331F6A95E1F7E20F07
:10506000F31F3196EE0FFF1FE40FF51F20813181F2
:105070003093E3092093E2099C01220F331F220F92
:10508000331F280F391F2F5F3F4F220F331F220F6F
:10509000331F420F531FFA018081918190932D0B92
:1050A00080932C0B16968D919C9117979093D20B11
:1050B0008093D10B18968D919C9119979093E1094B
:1050C0008093E0091A968D919C911B979093DD092E
:1050D0008093DC091C968D919C911D9790932F0BCA
:1050E00080932E0B1E968D919C911F979093E509AE
:1050F0008093E40981EA90E09093E9098093E809BC
:1051000050968D919C9151979093F1098093F0095D
:1051100052968D919C9153979093F3098093F20945
:105120000E94B72608959093C3088093C2080895FB
:105130001F93182F8A3031F4E091C208F091C30810
:105140008DE00995E091C208F091C308812F09957F
:105150001F910895CF93DF93EC01009721F406C0CF
:1051600021960E94982888818823D1F7DF91CF91DA
:105170000895EF92FF920F931F93CF93DF938C01CB
:105180007A010097E9F020E030E02617370738F47D
:10519000F80181918F012F5F3F4F8823B1F7C0E065
:1051A000D0E00BC0F8018081882319F00F5F1F4FFA
:1051B00001C080E20E9498282196CE15DF0590F369
:1051C000DF91CF911F910F91FF90EF900895CF93B2
:1051D000DF93EC01009719F407C00E949828FE01A4
:1051E000219684918823C9F7DF91CF9108958AE0B1
:1051F0000E9498280895E82FF0E0EF70F070EC53CB
:10520000FC4CE4918E2F0E94982808951F93182F2C
:1052100082958F700E94FB28812F0E94FB281F918E
:1052200008951F93182F892F0E940629812F0E940D
:1052300006291F910895EF92FF920F931F937B0110
:105240008C01C801AA27BB270E941129C7010E940F
:1052500011291F910F91FF90EF9008952F923F9287
:105260004F925F926F927F928F929F92AF92BF9276
:10527000CF92DF92EF92FF920F931F93DF93CF9322
:10528000CDB7DEB7A3970FB6F894DEBF0FBECDBF84
:105290006AA3242E2BA337014801442351F017FFA2
:1052A00008C0EE24FF248701E618F7080809190949
:1052B00002C0840173012AA1215090E0211091E0E5
:1052C000291B29A318A2A82EBB24CC24DD24C801A5
:1052D000B701A60195010E946A51FB01EF70F070C1
:1052E000EC53FC4C64916F8FC801B701A601950186
:1052F0000E946A51C901DA017C018D019EE1492EAB
:10530000512C4C0E5D1E39A025C0E114F10401059D
:105310001105C9F0C801B701A60195010E946A51A3
:10532000FB01EF70F070EC53FC4C6491F201608370
:10533000C801B701A60195010E946A51C901DA01AD
:105340007C018D0103C02BA1F20120833A940894C3
:10535000410851083320C9F6CE014F968C01E9A1CE
:105360000E1B11092220F1F097FE05C08DE2F80115
:1053700082938F0117C0C8010197611471048104E1
:10538000910419F08C018BE202C08C0180E2F801DB
:10539000808308C0F80181918F010E949828FAA1AA
:1053A000F150FAA32AA12223A9F7A3960FB6F894E5
:1053B000DEBF0FBECDBFCF91DF911F910F91FF9048
:1053C000EF90DF90CF90BF90AF909F908F907F90A5
:1053D0006F905F904F903F902F9008957F928F92A3
:1053E0009F92AF92BF92CF92DF92EF92FF920F9374
:1053F0001F93DF93CF93CDB7DEB77888C988DA885B
:1054000053E1E52EF12CEC0EFD1E14C0882381F42F
:1054100080E090E0CF91DF911F910F91FF90EF908E
:10542000DF90CF90BF90AF909F908F907F90089526
:105430000E94982896012F5F3F4F772021F0F601B8
:105440006901849103C0F601808169018532F1F61A
:105450002F5F3F4F772021F0F6016901849103C04F
:10546000F60180816901843629F0883781F083361E
:10547000F9F606C000E117E24AE0A42EB12C0CC0F8
:10548000F701808122E030E0E20EF31ED1CF00E090
:1054900010E130E1A32EB12C22E0822E912C8E0C53
:1054A0009F1CF701E080F1808436B1F4F7FE11C053
:1054B000F094E194F108F3948DE20E94982809C0D9
:1054C000C8016AE070E00E9443518B0162307105AF
:1054D00018F0E016F106A0F3C701B8010E9443518D
:1054E000862F0E94FB28C701B8010E9443517C010E
:1054F000C801B5010E9443518B016115710561F727
:10550000740198CF8091C508882369F481E0809365
:10551000D70B8093C40881E287B98CED86B980915E
:10552000C4088823E1F72091D30B3091D40BC90133
:1055300008951F920F920FB60F9211248F939F938D
:1055400095B19093D60B8091D70B813041F081308B
:1055500018F08F30A1F40CC09093D50B10C089E3E4
:10556000989FC00111249093D40B8093D30B07C054
:10557000963E18F49093D80B02C01092D80B10925C
:10558000C4089F918F910F900FBE0F901F90189598
:105590009091D70B906297B986B90895C59A84EF18
:1055A00091E020E731E0F9013197F1F70197D9F760
:1055B0000895C5980895EF92FF920F931F9389B7AE
:1055C0008F7B89BF1092D70B81E08093C40880E263
:1055D00087B98CED86B98091C4088823E1F7609182
:1055E000D50B29B7206429BF70E0882777FD809507
:1055F000982F0E94C24D20E030E040E050E00E9431
:10560000614B21EE3AE74CED50E40E94304B9B0198
:10561000AC0166E676EA8BE894E40E94884C7B0154
:105620008C0120E030E040E050E00E94924D882361
:10563000FCF020E030E040E251E4C801B7010E94F4
:10564000924D88235CF40F2EF0E0EF2EF0E0FF2E59
:10565000F0E20F2FF1E41F2FF02D14C020E030E016
:1056600048E452E4C801B7010E94324D181654F4C0
:105670000F2EF0E0EF2EF0E0FF2EF8E40F2FF2E413
:105680001F2FF02DC801B7010E94B8496093DA0BB3
:105690001F910F91FF90EF900895C59A84EF91E0CC
:1056A00020E731E0F9013197F1F70197D9F70E942E
:1056B000DB2AC5988091DA0B0895BF92CF92DF92D2
:1056C000EF92FF920F931F93CF93DF938FE080931E
:1056D000D70BC0E0D0E00F2EF0E0EF2EF0E0FF2E71
:1056E000F0E00F2FF0E01F2FF02DBB24B3949FE2CA
:1056F000C92E8CEDD82EB092C408C7B8D6B8809108
:10570000C4088823E1F76091D80B70E0882777FD03
:105710008095982F0E94C24D9B01AC01C801B70132
:105720000E94614B7B018C012196C233D10519F790
:1057300020E030E040E251E40E94884C0E94B849E9
:105740006093D90BDF91CF911F910F91FF90EF9054
:10575000DF90CF90BF9008950E945D2B8091D90B70
:1057600008958091C508882369F481E08093D70B60
:105770008093C40881E287B98CED86B98091C40812
:105780008823E1F708951F93182F882359F08FEE8F
:1057900093E39F938F9381E08F930E94EE290F9064
:1057A0000F900F900E944D2B112391F08091DA0BF6
:1057B00090E09F938F938CEE93E39F938F9381E080
:1057C0008F930E94EE290F900F900F900F900F90E3
:1057D00084EF91E020E731E0F9013197F1F701978B
:1057E000D9F7112359F085EE93E39F938F9381E0CE
:1057F0008F930E94EE290F900F900F908091C50813
:10580000882369F481E08093D70B8093C40881E2F8
:1058100087B98CED86B98091C4088823E1F780911F
:10582000D30B9091D40B112399F08091D30B9091CD
:10583000D40B9F938F9380EE93E39F938F9381E09C
:105840008F930E94EE290F900F900F900F900F9062
:1058500084EF91E020E731E0F9013197F1F701970A
:10586000D9F7112359F08AED93E39F938F9381E049
:105870008F930E94EE290F900F900F900E945D2B46
:105880008091D90B112391F08091D90B90E09F93D7
:105890008F9385ED93E39F938F9381E08F930E9485
:1058A000EE290F900F900F900F900F9080E090E0F6
:1058B0001F9108951F920F920FB60F9211248F938C
:1058C00087B78F7B87BF1092E00B8F910F900FBE31
:1058D0000F901F9018951F920F920FB60F920BB654
:1058E0000F9211248F939F93EF93FF938091E00B7E
:1058F000813059F0813020F0823009F061C023C03E
:1059000014BC81E08093E00B55C084B58093DD0B1F
:1059100014BC8A53893108F04AC01092DC0B1092F3
:10592000DF0B82E08093E00B86B7806486BF87B789
:10593000806487BF1092E20B1092E30B1092E40B8D
:105940001092E50B3DC094B59093DD0B14BC892FEC
:105950008D508E3060F5E091DF0B943138F0F0E03F
:10596000EE51F44F80818695806805C0F0E0EE51DD
:10597000F44F8081869580838091DC0B8F5F8093CC
:10598000DC0B8830B9F41092DC0B8091DF0B8F5F59
:105990008093DF0B843071F48091E20B8093DB0BFA
:1059A0008091E50B8093E10B8FEF8093DE0B1092DB
:1059B000E00B06C086B7806486BF87B7806487BF68
:1059C000FF91EF919F918F910F900BBE0F900FBEA3
:1059D0000F901F9018958091DE0B882319F42FEFFC
:1059E0003FEF06C01092DE0B8091E10B282F30E0D4
:1059F000C9010895149A159A1D9A1C9A0000000076
:105A00001D98000000001C98000000000895149AE2
:105A1000159A1D981C9A000000001D9A00000000B5
:105A2000149815980895159890E080E0880F00006C
:105A30000000000000001C9A000000000D99816029
:105A4000000000001C989F5F983081F7159A089518
:105A5000159A90E087FF02C01D9A01C01D980000B2
:105A600000001C9A00000000000000001C980000CC
:105A700000009F5F983011F0880FECCF08951598C3
:105A8000000000001D9A000000001C9A00000000A9
:105A90001C9800000000159A000000000895159A57
:105AA000000000001D98000000001C9A000000008B
:105AB0001C98000000001D9A000000000895159A2F
:105AC000000000001D9A000000001C9A0000000069
:105AD0001C98000000000895282F30E087FF02C0C6
