:100000000C9446000C9465000C9465000C946500FB
:100010000C9465000C9465000C9465000C946500CC
:100020000C9465000C9465000C9465000C946500BC
:100030000C9465000C9465000C9465000C946500AC
:100040000C9465000C9465000C946F000C94650092
:100050000C9465000C94B1030C9465000C9465003D
:100060000C9465000C9465000C9465000C9465007C
:100070000C9465000C9465000C941A010C946500B6
:100080000C9465000C9465000C94650011241FBE4F
:10009000CFEFD0E1DEBFCDBF12E0A0E0B1E0E8E7F6
:1000A000F5E100E00BBF02C007900D92A830B10748
:1000B000D9F712E0A8E0B2E001C01D92A432B10766
:1000C000E1F70E94FF000C94BA0A0C940000982FEC
:1000D00080919B0085FFFCCF90939C0008951F9218
:1000E0000F920FB60F9211248F939F93DD9A9CB1BC
:1000F00080919B0085FFFCCF90939C009F918F91F6
:100100000F900FBE0F901F90189593E09BBB8CEF44
:100110008ABB18BA84E787BB15BA40E844BB92BBD8
:1001200011BA80E783B988E082B910926200109218
:1001300061001092650084E08093640010BE83BF6C
:1001400012BE11BE1FBC85E08EBD1DBC1CBC17BC01
:1001500016BC1BBC1ABC19BC18BC109279001092BA
:10016000780085BD14BC13BC10928B0090938A005C
:1001700010928900109288001092810010928000E5
:1001800010928700109286001092850010928400D1
:10019000109283001092820010926A0030E23ABFFF
:1001A00080E489BF17BE10927D001BB888E58AB92C
:1001B00026E0209395001092900097E099B9109254
:1001C0009B0088E980939A0020939D0010929800EC
:1001D0009093990048B910BC37B916B810927400C2
:1001E0000895DA9ADB9ADC9AE5E6F0E08081846093
:1001F0008083AF9ADD9ADE9ADF9AC59808950E94AF
:1002000085000E94F1007894809165008B7F809337
:1002100065000E94B602DE9A87B78E7F87BF89B7D6
:100220008F7B89BF579A5698DA98DB9ADC981092A0
:100230000D02FFCF1F920F920FB60F920BB60F92C7
:1002400011242F933F934F935F936F937F938F93DB
:100250009F93AF93BF93EF93FF93DD9B02C0DD9815
:1002600001C0DD9A40919C0040930F025D9BFECF40
:100270004CB94F3F49F481E090E090930A0280939B
:10028000090210920E028AC08091090290910A021E
:100290008230910581F083309105D9F0019709F002
:1002A0007DC04E3B19F482E090E009C010920A0232
:1002B0001092090208C040930D0283E090E09093F1
:1002C0000A028093090280910E02842780930E0215
:1002D00065C050910E02242F30E0852F90E08F777B
:1002E00090702817390709F047C080910D028330BC
:1002F00011F1843028F4813051F0823009F50EC0BC
:10030000853001F18530D0F08630D1F420C00E94D4
:100310005B02809112029091130206C00E945B0260
:100320008091100290911102282F80911A029091D1
:100330001B02982F14C00E94E60302C00E94F10322
:1003400020E00CC00E94F3032091230207C00E940A
:10035000C00480911C0290911D02282F90E0809192
:100360009B0085FFFCCF20939C0080919B0085FF24
:10037000FCCF90939C000CC080919B0085FFFCCF2C
:1003800050939C0080919B0085FFFCCF40939C0084
:1003900010920D0210920A0210920902FF91EF9141
:1003A000BF91AF919F918F917F916F915F914F918D
:1003B0003F912F910F900BBE0F900FBE0F901F908B
:1003C0001895149A159A1D9A1C9A000000001D9801
:1003D000000000001C98000000000895149A159A6F
:1003E0001D981C9A000000001D9A0000000014983F
:1003F00015980895159880E090E0880F000000009F
:10040000000000001C9A000000000D9981600000AF
:1004100000001C989F5F983081F7159A0895159AEF
:1004200090E087FF02C01D9A01C01D9800000000E7
:100430001C9A00000000000000001C980000000052
:100440009F5F983011F0880FECCF08951598000049
:1004500000001D9A000000001C9A000000001C987B
:1004600000000000159A000000000895159A000091
:1004700000001D98000000001C9A000000001C985D
:10048000000000001D9A000000000895159A000069
:1004900000001D9A000000001C9A000000001C983B
:1004A000000000000895282F30E087FF02C0205090
:1004B0003140C90108950E94E10180E70E940F02C6
:1004C0000E94260282E00E940F020E9426020E94E1
:1004D000EE0100000000000000000E94E10181E741
:1004E0000E940F020E9426020E94FA010E94360218
:1004F0000E94FA01282F30E087FF04C0C901805014
:10050000914001C0C90190931102809310020E9492
:1005100036020E94FA010E9436020E94FA01282F38
:1005200030E087FF04C0C9018050914001C0C9017B
:1005300090931302809312020E9436020E94FA01E5
:100540000E9436020E94FA01282F30E087FF04C083
:10055000C9018050914001C0C90190931B02809352
:100560001A020E9446020E94EE0108950E94E101D3
:1005700080E70E940F020E94260284E10E940F027F
:100580000E94260283E00E940F020E9426020E941F
:10059000EE010895159A149A1D9A1C9A0000000005
:1005A0001D98000000001C98000000000895159A96
:1005B000149A1D981C9A000000001D9A000000006B
:1005C000159814980895159A90E087FF02C01D9A17
:1005D00001C01D98000000001C9A000000000000EF
:1005E00000001C98000000009F5F983011F0880FF9
:1005F000ECCF0895159890E080E0880F000000008F
:10060000000000001C9A000000000D9981600000AD
:1006100000001C989F5F983081F7159A08951598EF
:10062000000000001D9A000000001C9A000000005D
:100630001C9800000000159A000000000895159A0B
:10064000000000001D98000000001C9A000000003F
:100650001C98000000001D9A000000000895159AE3
:10066000000000001D9A000000001C9A000000001D
:100670001C980000000008950E94CA0280E70E94B2
:10068000E3020E940F0384E10E94E3020E940F0331
:1006900083E00E94E3020E940F030E94D7020895A4
:1006A0000F931F930E94CA0280E70E94E3020E94F8
:1006B0000F0382E00E94E3020E940F030E94D70210
:1006C00000000000000000000E94CA0281E70E94B2
:1006D000E3020E940F030E94FA020E941F030E947D
:1006E000FA02082F0E941F03112707FD109510938F
:1006F0001502009314020E94FA020E941F030E9436
:10070000FA02082F0E941F03112707FD109510936E
:100710001702009316020E94FA020E941F030E9411
:10072000FA02082F0E942F03112707FD109510933E
:100730001902009318020E94D7021F910F91089589
:1007400081E0809320028093080281E287B98CEDDA
:1007500086B93699FECF20911C0230911D02C90145
:1007600008951F920F920FB60F9211248F939F93AB
:1007700095B190931F0280912002813041F0813029
:1007800018F08F30A1F40CC090931E0210C089E3C2
:10079000989FC001112490931D0280931C0207C0F2
:1007A000963E18F49093210202C0109221021092FA
:1007B00008029F918F910F900FBE0F901F90189578
:1007C00090912002906297B986B90895C59A84EFF6
:1007D00091E020E731E0F9013197F1F70197D9F77E
:1007E0000895C5980895EF92FF920F931F93C599AE
:1007F0000AC0C59A84EF91E020E731E0F901319712
:10080000F1F70197D9F789B78F7B89BF1092200242
:1008100081E08093080280E287B98CED86B9369931
:10082000FECF60911E0270E0882777FD8095982F9B
:100830000E94DC0720E030E040E050E00E947506B6
:1008400021EE3AE74CED50E40E9444069B01AC01D6
:1008500066E676EA8BE894E40E94A2067B018C01AE
:1008600020E030E040E050E00E94AC078823FCF03C
:1008700020E030E040E251E4C801B7010E94AC073B
:1008800088235CF40F2EF0E0EF2EF0E0FF2EF0E274
:100890000F2FF1E41F2FF02D14C020E030E048E4CA
:1008A00052E4C801B7010E944C07181654F40F2EE9
:1008B000F0E0EF2EF0E0FF2EF8E40F2FF2E41F2F10
:1008C000F02DC801B7010E94CC04609323021F9150
:1008D0000F91FF90EF900895BF92CF92DF92EF9229
:1008E000FF920F931F93CF93DF938FE080932002AB
:1008F000C0E0D0E00F2EF0E0EF2EF0E0FF2EF0E0B1
:100900000F2FF0E01F2FF02DBB24B3949FE2C92ED0
:100910008CEDD82EB0920802C7B8D6B880910802E4
:100920008823E1F76091210270E0882777FD8095A8
:10093000982F0E94DC079B01AC01C801B7010E94FF
:1009400075067B018C012196C233D10519F720E091
:1009500030E040E251E40E94A2060E94CC04609381
:100960002202DF91CF911F910F91FF90EF90DF90C6
:10097000CF90BF9008950E946C0480912202089548
:1009800081E0809320028093080281E287B98CED98
:1009900086B93699FECF0895EF92FF920F931F9379
:1009A0007B018C0120E030E040E05FE40E947C07A6
:1009B00088238CF020E030E040E05FE4C801B7011C
:1009C0000E9444060E943A089B01AC01205030402E
:1009D0004040504806C0C801B7010E943A089B0138
:1009E000AC01B901CA011F910F91FF90EF900895DA
:1009F000A0E0B0E0EEEFF4E00C94830ADC012B0100
:100A0000FA019C91923008F439C1EB01888182305F
:100A100008F433C1943069F4843009F02FC1119681
:100A20009C9111978981981709F428C1A0E0B1E041
:100A300025C1843009F421C18230A9F4923009F033
:100A40001DC19A01AD0188E0EA010990AE01E901FA
:100A500009929E018150C1F7E201898111969C9112
:100A60008923818308C1923009F407C112962D9021
:100A70003C901397EB018A819B811496AD90BD90B9
:100A8000CD90DC901797EC80FD800E811F81910145
:100A9000281B390BB90137FF04C066277727621B73
:100AA000730B603271050CF061C0121613066CF501
:100AB00037014801062E04C0969487947794679472
:100AC0000A94D2F721E030E040E050E004C0220F69
:100AD000331F441F551F6A95D2F7215030404040C4
:100AE00050402E213F21402351232115310541053E
:100AF000510521F021E030E040E050E079018A0129
:100B0000E628F728082919293CC0232BD1F1260E05
:100B1000371E35014601062E04C0969487947794BB
:100B200067940A94D2F721E030E040E050E004C03E
:100B3000220F331F441F551F6A95D2F721503040B2
:100B4000404050402A213B214C215D212115310597
:100B50004105510521F021E030E040E050E059012D
:100B60006A01A628B728C828D9280BC08215930582
:100B70002CF01C01AA24BB24650103C0EE24FF2431
:100B8000870111969C91D20111968C91981709F4C6
:100B900045C0992339F0A80197012A193B094C094E
:100BA0005D0906C0A60195012E193F09400B510BA6
:100BB00057FD08C011823382228224833583468305
:100BC00057831DC081E08183338222828827992741
:100BD000DC01821B930BA40BB50B84839583A68346
:100BE000B7830DC0220F331F441F551F2483358345
:100BF00046835783828193810197938382832481E3
:100C0000358146815781DA01C9010197A109B109EE
:100C10008F5F9F4FAF4FBF4328F30BC09183338249
:100C20002282EA0CFB1C0C1D1D1DE482F58206834A
:100C3000178383E08083248135814681578157FF64
:100C40001AC0C901AA2797FDA095BA2F817090708C
:100C5000A070B0705695479537952795822B932BAA
:100C6000A42BB52B84839583A683B783828193813C
:100C7000019693838283DF0101C0D201CD01CDB7FC
:100C8000DEB7E2E10C949F0AA0E2B0E0EAE4F6E00D
:100C90000C948F0A69837A838B839C832D833E8394
:100CA0004F835887E9E0EE2EF12CEC0EFD1EB701C4
:100CB000CE0101960E94B2098E010F5E1F4FB8014E
:100CC000CE0105960E94B2098A8991E089278A8B14
:100CD000AE01475E5F4FB801C7010E94F8040E9451
:100CE000DD08A096E6E00C94AB0AA0E2B0E0EBE7EA
:100CF000F6E00C948F0A69837A838B839C832D831F
:100D00003E834F835887F9E0EF2EF12CEC0EFD1E49
:100D1000B701CE0101960E94B2098E010F5E1F4FEE
:100D2000B801CE0105960E94B209AE01475E5F4F41
:100D3000B801C7010E94F8040E94DD08A096E6E011
:100D40000C94AB0AA8E1B0E0E8EAF6E00C948B0A58
:100D500069837A838B839C832D833E834F8358875B
:100D6000B9E0EB2EF12CEC0EFD1EB701CE01019681
:100D70000E94B2098E010F5E1F4FB801CE01059689
:100D80000E94B2092985223008F47CC039893230AA
:100D900010F4B8017AC08A859A8989278A87243015
:100DA00011F0223031F4231709F06CC060E071E0DB
:100DB0006CC0343039F41D861E861F86188A1C8646
:100DC0001B8604C0323021F484E08987B7015DC0FE
:100DD0002B853C858B899C89281B390B3C872B876D
:100DE000ED84FE840F851889AD88BE88CF88D88CA5
:100DF000EA14FB040C051D0540F4EE0CFF1C001F5B
:100E0000111F215030403C872B8720E030E040E02C
:100E100050E080E090E0A0E0B0E46FE170E0EA1420
:100E2000FB040C051D0540F0282B392B4A2B5B2BAE
:100E3000EA18FB080C091D09B695A79597958795A3
:100E4000EE0CFF1C001F111F6150704041F7DA01CA
:100E5000C9018F779070A070B07080349105A105A2
:100E6000B10561F427FD0AC0E114F1040105110583
:100E700029F0205C3F4F4F4F5F4F20782D873E87F2
:100E80004F87588BBE01675F7F4FCB010E94DD0803
:100E90006896EAE00C94A70AA8E1B0E0E2E5F7E082
:100EA0000C948F0A69837A838B839C832D833E8382
:100EB0004F83588789E0E82EF12CEC0EFD1EB70118
:100EC000CE0101960E94B2098E010F5E1F4FB8013C
:100ED000CE0105960E94B2098985823040F0898949
:100EE000823028F0B801C7010E942A0A01C08FEFA2
:100EF0006896E6E00C94AB0AA8E1B0E0E2E8F7E01F
:100F00000C948F0A69837A838B839C832D833E8321
:100F10004F83588789E0E82EF12CEC0EFD1EB701B7
:100F2000CE0101960E94B2098E010F5E1F4FB801DB
:100F3000CE0105960E94B2098985823040F08989E8
:100F4000823028F0B801C7010E942A0A01C08FEF41
:100F50006896E6E00C94AB0AA8E1B0E0E2EBF7E0BB
:100F60000C948F0A69837A838B839C832D833E83C1
:100F70004F83588789E0E82EF12CEC0EFD1EB70157
:100F8000CE0101960E94B2098E010F5E1F4FB8017B
:100F9000CE0105960E94B2098985823040F0898988
:100FA000823028F0B801C7010E942A0A01C081E0FE
:100FB0006896E6E00C94AB0AA8E0B0E0E2EEF7E059
:100FC0000C948C0A9B01AC0183E08983DA01C9018E
:100FD0008827B7FD83959927AA27BB27B82E211507
:100FE00031054105510519F482E089833AC088230F
:100FF000A9F0203080E0380780E0480780E85807F3
:1010000029F460E070E080E09FEC30C0EE24FF2423
:101010008701E21AF30A040B150B02C079018A0159
:101020008EE1C82ED12CDC82CB82ED82FE820F8332
:101030001887C801B7010E948E0801971816190673
:1010400084F4082E04C0EE0CFF1C001F111F0A942C
:10105000D2F7ED82FE820F831887C81AD90ADC8284
:10106000CB82BA82CE0101960E94DD082896E9E083
:101070000C94A80AACE0B0E0E0E4F8E00C94930A29
:1010800069837A838B839C83BE016B5F7F4FCE0124
:1010900001960E94B2098D81823061F1823050F157
:1010A000843021F48E81882351F12EC02F81388520
:1010B00037FD20C06E812F3131051CF06623F9F019
:1010C00023C08EE190E0821B930B29853A854B85E6
:1010D0005C8504C056954795379527958A95D2F734
:1010E0006623B1F050954095309521953F4F4F4F75
:1010F0005F4F0EC020E030E040E050E009C02FEF2D
:101100003FEF4FEF5FE704C020E030E040E050E801
:10111000B901CA012C96E2E00C94AF0AEF92FF925B
:101120000F931F937B018C0180E0E81680E0F806A6
:1011300081E0080780E0180788F48FEFE816F104D3
:101140000105110531F028F088E090E0A0E0B0E062
:1011500017C080E090E0A0E0B0E012C080E0E816A8
:1011600080E0F80680E0080781E0180728F088E1B1
:1011700090E0A0E0B0E004C080E190E0A0E0B0E04A
:1011800020E230E040E050E0281B390B4A0B5B0BBB
:1011900004C016950795F794E7948A95D2F7F7015E
:1011A000E85FFE4F8081281B310941095109C901BF
:1011B0001F910F91FF90EF900895DF92EF92FF92B1
:1011C0000F931F93FC01E480F58006811781D18085
:1011D0008081823048F480E090E0A0E1B0E0E82A2D
:1011E000F92A0A2B1B2BA5C0843009F49FC082303A
:1011F00021F4EE24FF24870105C0E114F104010568
:10120000110519F4E0E0F0E096C0628173819FEF70
:10121000623879070CF05BC022E83FEF261B370BE2
:101220002A3131052CF020E030E040E050E02AC0C7
:10123000B801A701022E04C076956795579547958A
:101240000A94D2F781E090E0A0E0B0E004C0880FFB
:10125000991FAA1FBB1F2A95D2F70197A109B109AF
:101260008E219F21A023B1230097A105B10521F074
:1012700081E090E0A0E0B0E09A01AB01282B392B8F
:101280004A2B5B2BDA01C9018F779070A070B07088
:1012900080349105A105B10539F427FF09C0205C10
:1012A0003F4F4F4F5F4F04C0215C3F4F4F4F5F4F49
:1012B000E0E0F0E02030A0E03A07A0E04A07A0E438
:1012C0005A0710F0E1E0F0E079018A0127C06038A8
:1012D000710564F5FB01E158FF4FD801C7018F7715
:1012E0009070A070B07080349105A105B10539F4FB
:1012F000E7FE0DC080E490E0A0E0B0E004C08FE322
:1013000090E0A0E0B0E0E80EF91E0A1F1B1F17FFD7
:1013100005C016950795F794E794319687E01695E2
:101320000795F794E7948A95D1F705C0EE24FF243A
:101330008701EFEFF0E06E2F679566276795902F96
:101340009F77D794DD24D7948E2F8695492F462BEF
:10135000582F5D29B701CA011F910F91FF90EF909F
:10136000DF900895FC01DB01408151812281622FD1
:101370006F7770E0221F2227221F9381892F880F09
:10138000822B282F30E0991F9927991F11969C9343
:10139000119721153105A9F5411551056105710513
:1013A00011F482E037C082E89FEF13969C938E93EE
:1013B00012979A01AB0167E0220F331F441F551F9C
:1013C0006A95D1F783E08C930DC0220F331F441F21
:1013D000551F12968D919C911397019713969C938C
:1013E0008E931297203080E0380780E0480780E431
:1013F000580758F314962D933D934D935C9317978C
:1014000008952F3F310579F44115510561057105A6
:1014100019F484E08C93089564FF03C081E08C93F9
:1014200012C01C9210C02F57304013963C932E933D
:10143000129783E08C9387E0440F551F661F771F38
:101440008A95D1F7706414964D935D936D937C9358
:10145000179708951F93DC01FB019C91923008F4CB
:1014600047C08081823008F443C0943051F4119613
:101470001C91843099F58181682F70E0611B71099E
:101480003FC0843021F0923031F48230B9F1818153
:10149000882389F12DC011961C9111978230F1F0AB
:1014A00081811817D9F412962D913C91139782815E
:1014B00093818217930794F028173907BCF014968C
:1014C0008D919D910D90BC91A02D248135814681F7
:1014D0005781281739074A075B0718F4112341F091
:1014E0000AC082179307A407B50740F4112319F027
:1014F00061E070E005C06FEF7FEF02C060E070E078
:10150000CB011F9108952F923F924F925F926F925D
:101510007F928F929F92AF92BF92CF92DF92EF9283
:10152000FF920F931F93CF93DF93CDB7DEB7CA1B04
:10153000DB0B0FB6F894DEBF0FBECDBF09942A882F
:10154000398848885F846E847D848C849B84AA84D7
:10155000B984C884DF80EE80FD800C811B81AA8164
:10156000B981CE0FD11D0FB6F894DEBF0FBECDBF2F
:08157000ED010895F894FFCF8E
:101578000000000000000000000102020303030352
:10158800040404040404040405050505050505050B
:1015980005050505050505050606060606060606EB
:1015A80006060606060606060606060606060606D3
:1015B80006060606060606060707070707070707BB
:1015C80007070707070707070707070707070707A3
:1015D8000707070707070707070707070707070793
:1015E8000707070707070707070707070707070783
:1015F800070707070707070708080808080808086B
:101608000808080808080808080808080808080852
:101618000808080808080808080808080808080842
:101628000808080808080808080808080808080832
:101638000808080808080808080808080808080822
:101648000808080808080808080808080808080812
:101658000808080808080808080808080808080802
:1016680008080808080808080808080808080808F2
:0816780008080808080808082A
:00000001FF
