:100000000C94A61B0C94C51B0C94C51B0C94C51B0F
:100010000C94C51B0C94C51B0C94C51B0C944A2551
:100020000C94C51B0C94C51B0C9439250C94C51B52
:100030000C94C51B0C94C51B0C94F11B0C94C51B94
:100040000C94CE1E0C94C51B0C94C51B0C94C51BA4
:100050000C94C51B0C94B8230C94C51B0C94C51BA5
:100060000C94C51B0C94C51B0C94C51B0C94C51B90
:100070000C94C51B0C94C51B0C94BA1F0C94C51B87
:100080000C9404200C94C51B0C94C51B5A30D93118
:10009000E231E931F831FD3104320B321B32A33247
:1000A0006C3060339332F5312F321E3212320E3300
:1000B0008432F031F5317130EC30C930AE3142323A
:1000C0005C32703271300C31BB329639A6380A3B43
:1000D0009A429A42103A203A9A4278390D3F943C1B
:1000E000A53CBD3C0139B5392D3B143F333F59394F
:1000F000FE398C3E293DC53CA53CDC3B1E3C7A3D8F
:10010000E93ECE3E933E933FC340AB3F5640943CC6
:100110004C3F5A455A4525477A477A475E47A54698
:100120007A47BF458047B14682475E4764475C4691
:1001300082475E4780479B4582475E4782478247AA
:100140008247824782475C4682478247824782478E
:10015000824782478247B14682474E6F7420706C57
:10016000756767656420696E0D0A00436F6D706C7A
:100170006574650D0A00506C756767656420696E6B
:10018000202D206368617267696E670D0A0025641F
:10019000206D5600636861726765206D6F6465202D
:1001A0002D2074657374696E670D0A00446F6E6567
:1001B0000D0A0025643A25642066756C6C2063681E
:1001C0006172676520706F7765720D0A0025643A69
:1001D00025642073686F72742034306D73206368F7
:1001E000617267652070756C7365730D0A0030313C
:1001F0003233343536373839414243444546002599
:10020000642C2025642C2025640A002564206C6958
:100210006E65732073746F7265640D0A0025642027
:10022000736572766F7320636F6E6E656374656459
:100230000D0A002564206C696E6573206C6F616423
:1002400065640D0A00456C61707365642054696DC6
:10025000652025646D730D0A002564206C696E6548
:100260007320696E206D656D6F72790D0A002564CB
:1002700020736572766F7320636F6E6E656374654D
:10028000640D0A000D0A002564002C256400256415
:100290000025630023200025633D0025643D0050B8
:1002A0004F52543A25633A2563002563203D2000D0
:1002B000200025642000257820002578200025785E
:1002C000200025782000256429203D202825642051
:1002D0002564292025640D0A0046465420282564FB
:1002E00029203D2025640D0A002C2564002564008A
:1002F000496E76616C69642073616D706C65207302
:10030000697A65206D757374206265206F6E652053
:100310006F6620382C31362C3332206F7220363401
:100320000A002C2564002564002564002563203D17
:100330002025640D0A005573657220427265616B59
:10034000206F6E206C696E652025640D0A00545282
:10035000414345203A3A202564202D200052756EF5
:1003600074696D65206572726F72202564206F6EEE
:10037000206C696E652025640D0A006576616C202D
:100380006572726F722025642C2025640D0A00703E
:10039000616E6963206572726F720D0A00456C614F
:1003A000707365642054696D652025646D730D0A52
:1003B000000D0A2564206C696E657320656E746596
:1003C0007265642C205B25642F25645D204279745E
:1003D00065730D0A0050616E69632025640D0A0083
:1003E000506F733D2564205B25635D0D0A005072DC
:1003F0006F6772616D20656E747279206D6F6465D0
:1004000020282E20746F2065786974290D0A000D4C
:100410000A004D6F74696F6E2072616E67653A20D5
:100420002030202D2031380D0A00506C6179204D8C
:100430006F74696F6E2025640D0A007DC9A3436C3B
:100440007D3059B88E59277CA2D37F7DB3C7586CB5
:100450007E4831A38D332F31C7CDCD04040404046D
:100460000404040404040404040404020202020256
:10047000020202020200000000000001010101016D
:100480000101010101010101010101020202020257
:100490000202020202020202020202040404040432
:1004A000040404040404040404040401010101011B
:1004B0000000000000010101000000010101010134
:1004C000000000000001010100000003030303031A
:1004D0000000000000030303000000030303030304
:1004E0000000000000030303000000000000000003
:1004F0000000000000000000000000282828282834
:1005000028282828281414141414143C3C3C3C3C7F
:100510003C3C3C3C3C1E1E1E1E1E1E0000000000FB
:1005200000000000000000000000000100080001C1
:100530000005000F0046003601A401C8002C017D13
:10054000B3C7586C7E4831A38D332F31C7CDCD7DD5
:10055000B3C7586C7E4831A38D332F31C7CDCD6BD7
:10056000A4E96A5F6C501D9B81383E28A6CED06BF3
:10057000A4E96A5F914A28A39A757C72A6CED07EC0
:10058000A4DE646B7D501D9B8E4F2C28A6CED07DA3
:10059000B3C7586C7E4831A38D332F31C7CDCD04FE
:1005A000040404040404040404040404040404020D
:1005B0000202020202020202020000000000000128
:1005C000010101010101010101010101010101021A
:1005D00002020202020202020202020202020204F9
:1005E00004040404040404040404040404040400CF
:1005F00000000000010101010100000001010100F3
:1006000000000000020202020200000002020200DA
:1006100000000000030303030200000003030300C3
:1006200000000000030303030300000003030300B2
:100630000000000000000000000000000000002892
:100640002828282828282828281414141414143C8E
:100650003C3C3C3C3C3C3C3C3C1E1E1E1E1E1E00CA
:100660000000000000000000000000000000000189
:10067000000800010005000F0046003601A401C873
:10068000002C017DB3C7586C7E4831A38D332F31C8
:10069000C7CDCD7DB3C7586C7E4831A38D332F3184
:1006A000C7CDCD8BA3E664788E570E969F4F2C282E
:1006B000B7BCD06CA4E0616A97501C99A74F2C2856
:1006C0009170837EA4DE646B7D501D9B8E4F2C2821
:1006D000A6CED07DB3C7586C7E4831A38D332F3161
:1006E000C7CDCD0404040404040404040404040475
:1006F00004040404040404040404040404040404BA
:1007000004040402020202020202020202000000C9
:1007100000000002020202020000000000030303C6
:1007200003030300000000000000000000040404B4
:10073000040403040404040404040404040404047A
:10074000040404000000000000000000000000009D
:100750000000000101010101000000000001010191
:100760000000000000000000000000000000000089
:100770000000000101010101000000000001010171
:100780000000000000000000000000000000000069
:100790000000000000000000000000000000000059
:1007A000000000282828282828282828281414147D
:1007B0001414143C3C3C3C3C3C3C3C3C3C1E1E1E4B
:1007C0001E1E1E00000000000000000000000000CF
:1007D000000000010005000800030001000F0046B2
:1007E0000096003601FA0078002C017DB3C7586CE2
:1007F0007E4831A38D332F31C7CDCD7DB3C7586C23
:100800007E4831A38D332F31C7CDCD7EA7DE626EFA
:100810007D541D9B8E4F2C28A6CED06BA4E9665F1D
:100820006C501D9B81383E28A6CED06BA4E9695F31
:10083000914A289D9A383E28A6CED07EA4DE5F6BD2
:100840007D541D9B8E4F2C28A6CED07DB3C7586CEF
:100850007E4831A38D332F31C7CDCD040404040469
:100860000404040404040404040404040404040448
:100870000404040404040404040404020202020242
:100880000202020202040404040404000000000046
:100890000202020202040404040404000000000036
:1008A0000202020202040404040404040404040412
:1008B000040404040404040404040400000000000C
:1008C0000000000000000000000000000000000028
:1008D0000101010101000000010101000000000010
:1008E0000000000000000000000000000000000008
:1008F00001010101010000000101010000000000F0
:1009000000000000000000000000000000000000E7
:10091000000000000000000000000028282828280F
:1009200028282828281414141414143C3C3C3C3C5B
:100930003C3C3C3C3C1E1E1E1E1E1E0000000000D7
:100940000000000000000000000000010005000899
:1009500000030001000F00460096003601C8007831
:10096000002C017DB3C7586C7E4831A38D332F31E5
:10097000C7CDCD7DB3C7586C7E4831A38D332F31A1
:10098000C7CDCD7EA7DE626E7D541D9B8E4F2C2879
:10099000A6CED08BA3E664788E570E969F4F2C2858
:1009A000B7BCD06CA4E0616A97501C99A74F2C2863
:1009B000B7BCD07EA6DE62717D541D9B8E4F2C2865
:1009C000A6CED07DB3C7586C7E4831A38D332F316E
:1009D000C7CDCD0404040404040404040404040482
:1009E00004040401010101010101010101040404E5
:1009F00004040401010101010101010101040404D5
:100A000004040402020202020202020202040404BA
:100A100004040401010101010101010101040404B4
:100A20000404040303030303030303030304040490
:100A300004040401010101010000000000010101A2
:100A4000000000010101010100000000000101019E
:100A50000000000000000000000000000000000096
:100A60000000000000000000000000000000000086
:100A70000000000000000000000000000000000076
:100A80000000000000000000000000000000000066
:100A90000000001414141414141414141414141452
:100AA0001414141E1E1E1E1E1E1E1E1E1E1E1E1E84
:100AB0001E1E1E00000000000000000000000000DC
:100AC0000000000A0005000A00010005000A00C835
:100AD00000C80090017800C80090017DB3C7586C31
:100AE0007E4831A38D332F31C7CDCD7DB3C7586C30
:100AF0007E4831A38D332F31C7CDCD7DA2C7486C41
:100B00007E3B31978D332F31C7CDCD88A9D25D790A
:100B10008B243D909D332F31C7CDCD7DADD25D7BF4
:100B20008B500E899D332F31C7CDCD86ADD25D7BE5
:100B30008B501F9D9D332F31C7CDCD7DB3C7586CD2
:100B40007E4831A38D332F31C7CDCD040404040476
:100B50000404040404040404040404010101010164
:100B60000101010101040404040404010101010163
:100B7000010101010104040404040402020202024E
:100B80000202020202040404040404020202020239
:100B90000202020202040404040404030303030324
:100BA0000303030303030303030303000000000024
:100BB000010101010100000001010100000000002D
:100BC000010101010100000001010000000000001E
:100BD0000000000000000000000000000000000015
:100BE0000000000000000000000000000000000005
:100BF00000000000000000000000000000000000F5
:100C00000000000000000000000000141414141480
:100C100014141414141414141414141E1E1E1E1E62
:100C20001E1E1E1E1E1E1E1E1E1E1E00000000007A
:100C300000000000000000000000000A0005000A9B
:100C400000010005000A00C800C80090017800C833
:100C50000090017DB3C7586C7E4831A38D332F318E
:100C6000C7CDCD7DB3C7586C7E4831A38D332F31AE
:100C7000C7CDCD7DC1CD6B6C7E5931B48D332F3155
:100C8000C7CDCD77D1C36A6077511F9D84332F3193
:100C9000C7CDCD75A2E362677D4E31A37F332F317F
:100CA000C7CDCD6EA8CC555C755131A380332F31A3
:100CB000C7CDCD7DB3C7586C7E4831A38D332F315E
:100CC000C7CDCD040404040404040404040404048F
:100CD00004040404040404040404040404040404D4
:100CE00004040403030303030303030303030303D1
:100CF00003030300000000000000000000040404DF
:100D000004040403030303030303030303030303B0
:100D100003030302020202020202020202040404AA
:100D20000404040202020202020202020204040497
:100D30000404040202020202020202020204040487
:100D40000404040202020202020202020204040477
:100D50000404040303030303030303030303030360
:100D6000030303000000000000000000000000007A
:100D7000000000030303030303030303030303034C
:100D8000030303000000000000000000000000005A
:100D90000000000202020202020202020202020239
:100DA000020202000000000000000000000000003D
:100DB0000000000101010101010101010101010126
:100DC0000101010000000000000000000000000020
:100DD00000000003030303030303030303030303EC
:100DE00003030300000000000000000000000000FA
:100DF00000000000000000000000000000000000F3
:100E0000000000282828282828282828281E1E1EF8
:100E10001E1E1E3C3C3C3C3C3C3C3C3C3C3232328A
:100E2000323232000000000000000000000000002C
:100E30000000000F001E002D002D002D001E001EC2
:100E4000001E001E001E002C01580284038403842F
:100E500003580258025802580258027DB3C7586C12
:100E60007E4831A38D332F31C7CDCD7DB3C7586CAC
:100E70007E4831A38D332F31C7CDCD7CDCF77D6C1F
:100E80007E1D047F8C332F31C7CDCD7BDCF65670B1
:100E90007E1D07A98B013B4AFDBFB58253903F6C75
:100EA0007DAA67BF8B013BA3FDBF588253903F6C67
:100EB0007DAA67BF8BEA7D5A0581A6815EB7646E05
:100EC00080A26EBA88A02D515ACDA78157BF3C6E23
:100ED00080A23BC1888A2E5974CBA78181BE416E06
:100EE00080783BBB8C852D5174CBA781A1C5476E03
:100EF000805935B58F8F245974CBA77DB3C7586CF3
:100F00007E4831A38D332F31C7CDCD0404040404B2
:100F100004040404040404040404040101010101A0
:100F20000101010101040404040404040404040490
:100F30000404040404040404040404010101010180
:100F40000101010101010101010101010101010191
:100F5000010101010101010101010102020202027C
:100F60000202020202020202020202020202020261
:100F70000202020202020202020202020202020251
:100F80000202020202020202020202040404040437
:100F90000404040404040404040404000000000025
:100FA0000000000000000000000000030303030332
:100FB0000303030303030303030303000000000010
:100FC0000000000000000000000000020202020217
:100FD00002020202020202020202020000000000FB
:100FE00000000000000000000000000101010101FC
:100FF00001010101010101010101010000000000E6
:1010000000000000000000000000000303030303D1
:1010100003030303030303030303030000000000AF
:1010200000000000000000000000002828282828F8
:1010300028282828281414141414143C3C3C3C3C44
:101040003C3C3C3C3C1E1E1E1E1E1E0000000000C0
:1010500000000000000000000000000A000A000A72
:10106000000A00010023001E0028001E002C01F4CD
:1010700001F401BC023403BC025802200358027D73
:10108000B3C7586C7E4831A38D332F31C7CDCD7D8A
:10109000B3C7586C7E4831A38D332F31C7CDCD7D7A
:1010A00052D6596C7E4831A38D8F2F3172CDCD7DB4
:1010B00052DA65727DA622978F8D2F3172CDCD7D4C
:1010C000D2E450717C2319AC8EA72F2F52CDCC7D4A
:1010D000DAF756717B1F05A88D095792FEA26C7D29
:1010E000DCF47A6D7B1D05808D212A92DED26C7D29
:1010F000DCDE7A717B1D1C878D62324E92C5A97D24
:10110000A0F272717B5708878D522F45ADCDBF7D00
:10111000B3C7586C7E4831A38D332F31C7CDCD0373
:10112000030303030303030303030303030303038F
:10113000030303030303030303030303030303037F
:101140000303030303030303030303030303030270
:101150000202020202020202020202020202020170
:101160000101010101010101010101010101010070
:10117000000000000000000000000000000000006F
:10118000000000000000000000000000000000015E
:10119000010101010101010101010101010101023E
:1011A000020202020202020202020202020202031E
:1011B00003030303030303030303030303030303FF
:1011C00003030303030303030303030303030303EF
:1011D00003030303030303030303030303030302E0
:1011E00002020202020202020202020202020201E0
:1011F00001010101010101010101010101010100E0
:1012000000000000000000000000000000000000DE
:1012100000000000000000000000000000000001CD
:1012200001010101010101010101010101010102AD
:10123000020202020202020202020202020202038D
:10124000030303030303030303030303030303036E
:10125000030303030303030303030303030303025F
:10126000020202020202020202020202020202015F
:10127000010101010101010101010101010101005F
:10128000000000000000000000000000000000005E
:10129000000000000000000000000000000000014D
:1012A000010101010101010101010101010101022D
:1012B000020202020202020202020202020202030D
:1012C00003030303030303030303030303030303EE
:1012D00003030303030303030303030303030303DE
:1012E00003030303030303030303030303030302CF
:1012F00002020202020202020202020202020201CF
:1013000001010101010101010101010101010100CE
:1013100000000000000000000000000000000000CD
:1013200000000000000000000000000000000001BC
:10133000010101010101010101010101010101029C
:10134000020202020202020202020202020202037C
:10135000030303030303030303030303030303035D
:10136000030303030303030303030303030303024E
:10137000020202020202020202020202020202014E
:10138000010101010101010101010101010101044A
:101390000404040404040404040404040404040011
:1013A000000000000000000000000000000000033A
:1013B00003030303030303030303030303030303FD
:1013C00003030303030303030303030303030302EE
:1013D00002020202020202020202020202020201EE
:1013E00001010101010101010101010101010100EE
:1013F00000000000000000000000000000000000ED
:1014000000000000000000000000000000000001DB
:1014100001010101010101010101010101010102BB
:10142000020202020202020202020202020202039B
:10143000030303030303030303030303030303037C
:10144000030303030303030303030303030303036C
:10145000030303030303030303030303030303025D
:10146000020202020202020202020202020202015D
:10147000010101010101010101010101010101005D
:10148000000000000000000000000000000000005C
:10149000000000000000000000000000000000014B
:1014A000010101010101010101010101010101022B
:1014B000020202020202020202020202020202030B
:1014C00003030303030303030303030303030303EC
:1014D00003030303030303030303030303030302DD
:1014E00002020202020202020202020202020201DD
:1014F00001010101010101010101010101010100DD
:1015000000000000000000000000000000000000DB
:1015100000000000000000000000000000000001CA
:1015200001010101010101010101010101010102AA
:10153000020202020202020202020202020202038A
:10154000030303030303030303030303030303036B
:10155000030303030303030303030303030303035B
:10156000030303030303030303030303030303024C
:10157000020202020202020202020202020202014C
:10158000010101010101010101010101010101004C
:10159000000000000000000000000000000000004B
:1015A000000000000000000000000000000000013A
:1015B000010101010101010101010101010101021A
:1015C00002020202020202020202020202020203FA
:1015D00003030303030303030303030303030303DB
:1015E00003030303030303030303030303030302CC
:1015F00002020202020202020202020202020201CC
:1016000001010101010101010101010101010100CB
:1016100000000000000000000000000000000029A1
:101620002929292929292929291414141414143D94
:101630003D3D3D3D3D3D3D3D3D1E1E1E1E1E1E00D1
:101640000000000000000000000000000000000595
:101650000001000100010001000100010001000182
:101660000001000100010001000100010001000172
:101670000001000100010001000100010001000162
:101680000001000100010001000100010001000152
:1016900000010001000100010001000A000F00C864
:1016A0000019001900190019001900190019001972
:1016B0000019001900190019001900190019001962
:1016C0000019001900190019001900190019001952
:1016D0000019001900190019001900190019001942
:1016E0000019001900190019001900C8002C017D0B
:1016F000B3C7586C7E4831A38D332F31C7CDCD7D14
:10170000B3C7586C7E4831A38D332F31C7CDCD7D03
:10171000B3C7586C7E4831A38D332F31C7CDCD82EE
:10172000A5C9517386511F9395482C2891D1C9841E
:10173000ABC5537589561C94984E2B299AD1CE84EB
:10174000AFC357758B5B1B989A572B2BA4D1D384AF
:10175000B2C55B75895F1C9D98612B30ACD1D58279
:10176000B3C95F7386601FA195692B35B3D2D67F4D
:10177000B2CE6270825F23A6916F2A39B6D2D67C30
:10178000AFD4646D7F5C28AA8E712A3BB7D2D67C19
:10179000AFD4646D7F5C28AA8E712A3BB7D2D6780D
:1017A000ACD966697B582EAA8A6F2A39B6D2D6740C
:1017B000A7DD6765785333A9876A2B35B3D2D67115
:1017C000A2E06662764D37A785612B30ADD1D56F2B
:1017D0009DE16260764939A385572B2BA4D1D37143
:1017E00099E05D627646379F854F2B299AD1CE745A
:1017F00098DD59657845339B87482C2892D1C97864
:1018000099D954697B462E988A452C288CD0C57B63
:101810009CD4506C7E4928968D442C288AD0C37B5A
:101820009CD4506C7E4928968D442C288AD0C38243
:10183000A5C9517386511F9395482C2891D1C9840D
:10184000ABC5537589561C94984E2B299AD1CE84DA
:10185000AFC357758B5B1B989A572B2BA4D1D3849E
:10186000B2C55B75895F1C9D98612B30ACD1D58268
:10187000B3C95F7386601FA195692B35B3D2D67F3C
:10188000B2CE6270825F23A6916F2A39B6D2D67C1F
:10189000AFD4646D7F5C28AA8E712A3BB7D2D67C08
:1018A000AFD4646D7F5C28AA8E712A3BB7D2D678FC
:1018B000ACD966697B582EAA8A6F2A39B6D2D674FB
:1018C000A7DD6765785333A9876A2B35B3D2D67104
:1018D000A2E06662764D37A785612B30ADD1D56F1A
:1018E0009DE16260764939A385572B2BA4D1D37132
:1018F00099E05D627646379F854F2B299AD1CE7449
:1019000098DD59657845339B87482C2892D1C97852
:1019100099D954697B462E988A452C288CD0C57B52
:101920009CD4506C7E4928968D442C288AD0C37B49
:101930009CD4506C7E4928968D442C288AD0C38232
:10194000A5C9517386511F9395482C2891D1C984FC
:10195000ABC5537589561C94984E2B299AD1CE7DD0
:10196000A6E56A6C7E5617968D332F31C7CDCD7D97
:10197000B3C7586C7E4831A38D332F31C7CDCD040A
:101980000404040404040404040404040404040318
:101990000303030303030303030303030303030218
:1019A0000202020202020202020202020202020316
:1019B00003030303030303030303030303030302F8
:1019C00002020202020202020202020202020201F8
:1019D00001010101010101010101010101010100F8
:1019E00000000000000000000000000000000000F7
:1019F00000000000000000000000000000000001E6
:101A000001010101010101010101010101010102C5
:101A100002020202020202020202020202020203A5
:101A20000303030303030303030303030303030386
:101A30000303030303030303030303030303030376
:101A40000303030303030303030303030303030267
:101A50000202020202020202020202020202020167
:101A60000101010101010101010101010101010067
:101A70000000000000000000000000000000000066
:101A80000000000000000000000000000000000155
:101A90000101010101010101010101010101010235
:101AA0000202020202020202020202020202020315
:101AB00003030303030303030303030303030303F6
:101AC00003030303030303030303030303030302E7
:101AD00002020202020202020202020202020201E7
:101AE00001010101010101010101010101010100E7
:101AF00000000000000000000000000000000000E6
:101B000000000000000000000000000000000001D4
:101B100001010101010101010101010101010102B4
:101B20000202020202020202020202020202020394
:101B30000303030303030303030303030303030375
:101B40000303030303030303030303030303030365
:101B50000303030303030303030303030303030256
:101B60000202020202020202020202020202020156
:101B70000101010101010101010101010101010056
:101B80000000000000000000000000000000000055
:101B90000000000000000000000000000000000144
:101BA0000101010101010101010101010101010224
:101BB0000202020202020202020202020202020304
:101BC00003030303030303030303030303030303E5
:101BD00003030303030303030303030303030302D6
:101BE00002020202020202020202020202020201D6
:101BF00001010101010101010101010101010102D4
:101C000002020202020202020202020202020204B2
:101C10000404040404040404040404040404040088
:101C200000000000000000000000000000000000B4
:101C300000000000000000000000000000000000A4
:101C40000000000000000000000000000000000391
:101C50000303030303030303030303030303030255
:101C60000202020202020202020202020202020155
:101C70000101010101010101010101010101010055
:101C80000000000000000000000000000000000054
:101C90000000000000000000000000000000000143
:101CA0000101010101010101010101010101010223
:101CB0000202020202020202020202020202020303
:101CC00003030303030303030303030303030303E4
:101CD00003030303030303030303030303030303D4
:101CE00003030303030303030303030303030302C5
:101CF00002020202020202020202020202020201C5
:101D000001010101010101010101010101010100C4
:101D100000000000000000000000000000000000C3
:101D200000000000000000000000000000000001B2
:101D30000101010101010101010101010101010292
:101D40000202020202020202020202020202020372
:101D50000303030303030303030303030303030353
:101D60000303030303030303030303030303030244
:101D70000202020202020202020202020202020144
:101D80000101010101010101010101010101010044
:101D90000000000000000000000000000000000043
:101DA0000000000000000000000000000000000132
:101DB0000101010101010101010101010101010212
:101DC00002020202020202020202020202020203F2
:101DD00003030303030303030303030303030303D3
:101DE00003030303030303030303030303030303C3
:101DF00003030303030303030303030303030302B4
:101E000002020202020202020202020202020201B3
:101E100001010101010101010101010101010100B3
:101E200000000000000000000000000000000000B2
:101E300000000000000000000000000000000001A1
:101E40000101010101010101010101010101010281
:101E50000202020202020202020202020202020361
:101E60000303030303030303030303030303030342
:101E70000303030303030303030303030303030233
:101E80000202020202020202020202020202020133
:101E90000101010101010101010101010101010033
:101EA0000000000000000000000000000000000032
:101EB00000000000000000000000000000000029F9
:101EC0002929292929292929291414141414143DEC
:101ED0003D3D3D3D3D3D3D3D3D1E1E1E1E1E1E0029
:101EE00000000000000000000000000000000005ED
:101EF00000140001000100010001000100010001C7
:101F000000010001000100010001000100010001C9
:101F100000010001000100010001000100010001B9
:101F200000010001000100010001000100010001A9
:101F30000001000100010001000100010001000A90
:101F40000014002C01900119001900190019001942
:101F500000190019001900190019001900190019B9
:101F600000190019001900190019001900190019A9
:101F70000019001900190019001900190019001999
:101F80000019001900190019001900190019001989
:101F9000001900900190017DB3C7586C7E4831A3B1
:101FA0008D332F31C7CDCD7DB3C7586C7E4831A35B
:101FB0008D332F31C7CDCD7DA0DC6B6C7E581F9249
:101FC0008D332F31C7CDCD7899DA58697B482E975C
:101FD0008A392B33AED2D67497DF5B657846349B53
:101FE000873A2B30B1D2D67098E25E61774639A03D
:101FF000863B2B2DB6D2D66F9BE3636076483CA51B
:10200000853F2B29BCD1D570A0E26661764C3AA7FA
:1020100085442C28BFD1D173A5DF6864785234A8D9
:1020200087492C28C1D1CE78A9DA68697B582EA7B8
:102030008A4D2C28C2D1CB7BADD4676C7E5C28A5A1
:102040008D4E2B28C2D1CA7BADD4676C7E5C28A58F
:102050008D4E2B28C2D1CA7FB0CE6370825F22A280
:10206000914D2C28C2D1CB82B2C85F7386611D9F6F
:10207000954A2C28C1D1CE83B2C35A748A601A9C67
:1020800099452C28C0D1D184B0C055758B5D199766
:102090009A3F2B29BCD1D584ACC253758A581A9467
:1020A000993C2B2DB7D2D682A6C8527387531D9266
:1020B000963A2B30B2D2D67FA0CE5370824F229266
:1020C00091392B33AED2D67C9CD4556D7F4B28935F
:1020D0008E392B34ADD1D67C9CD4556D7F4B289353
:1020E0008E392B34ADD1D67497DF5B657846349B3F
:1020F000873A2B30B1D2D67098E25E61774639A02C
:10210000863B2B2DB6D2D66F9BE3636076483CA509
:10211000853F2B29BCD1D570A0E26661764C3AA7E9
:1021200085442C28BFD1D173A5DF6864785234A8C8
:1021300087492C28C1D1CE78A9DA68697B582EA7A7
:102140008A4D2C28C2D1CB7BADD4676C7E5C28A590
:102150008D4E2B28C2D1CA7BADD4676C7E5C28A57E
:102160008D4E2B28C2D1CA7FB0CE6370825F22A26F
:10217000914D2C28C2D1CB82B2C85F7386611D9F5E
:10218000954A2C28C1D1CE83B2C35A748A601A9C56
:1021900099452C28C0D1D184B0C055758B5D199755
:1021A0009A3F2B29BCD1D584ACC253758A581A9456
:1021B000993C2B2DB7D2D682A6C8527387531D9255
:1021C000963A2B30B2D2D67FA0CE5370824F229255
:1021D00091392B33AED2D67C9CD4556D7F4B28934E
:1021E0008E392B34ADD1D67C9CD4556D7F4B289342
:1021F0008E392B34ADD1D67497DF5B657846349B2E
:10220000873A2B30B1D2D67098E25E61774639A01A
:10221000863B2B2DB6D2D66F9BE3636076483CA5F8
:10222000853F2B29BCD1D56F9BE362607659199B02
:10223000853F2B29BCD1D57DB3C7586C7E4831A3CF
:102240008D332F31C7CDCD14141414141414141459
:10225000141414141414141E1E1E1E1E1E1E1E1EE4
:102260001E1E1E1E1E1E1E0000000000000000009C
:102270000000000000000001000100010001000159
:102280000001001400140040011400400114007DFE
:10229000B3C7586C7E4831A38D332F31C7CDCD7D68
:1022A000B3C7586C7E4831A38D332F31C7CDCD7362
:1022B000B3C7585F744831A380332F31C7CDCD6386
:1022C000DBCE8254724339A17B22556E76C3C96539
:1022D00081CB2B55782451B47E82314CCFC7E46535
:1022E00081CB2A55782451B47B82314CCFC7E47D11
:1022F000B3C7586C7E4831A38D332F31C7CDCD0283
:1023000002020202020202020202020202020202AD
:1023100002020202000202020002020202020200A3
:1023200000000000000000000000000000000000AD
:10233000000000000000000000000000000000009D
:10234000000000000000000000000000000000028B
:10235000020202020202020202020202020202005F
:10236000000000000000000000000000000000006D
:10237000000000000000000000000000000000005D
:10238000000000000000000000000000000000004D
:10239000000000000000000000000000000000003D
:1023A000000000000000000000000000000000002D
:1023B0000000000000000000000000000000001409
:1023C0001414141414141414141414141414141EC3
:1023D0001E1E1E1E1E1E1E1E1E1E1E1E1E1E1E003B
:1023E00000000000000000000000000000000001EC
:1023F0000001000100010001000A00140014004067
:10240000011400A401DC007DB3C7586C7E4831A3E1
:102410008D332F31C7CDCD7DB3C7586C7E4831A3E6
:102420008D332F31C7CDCD87B3C75879884831A3B5
:102430009A332F31C7CDCD89B8BF5A7E98202A78DC
:10244000A5843935D8A79083C4B64F7A967A2DD013
:10245000A42B355078CBB283C4B64F80967A2DD05A
:10246000A42B355078CBB27DB3C7586C7E4831A3CE
:102470008D332F31C7CDCD020202020202020202C9
:10248000020202020202020202020202020202022C
:102490000202020202020200020202000202020220
:1024A000020202020202020000000000000000001E
:1024B000000000000000000000000000000000001C
:1024C00000000000000000020202020202020202FA
:1024D00002020202020202000000000000000000EE
:1024E00000000000000000000000000000000000EC
:1024F00000000000000000000000000000000000DC
:1025000000000000000000000000000000000000CB
:1025100000000000000000000000000000000000BB
:1025200000000000000000000000000000000000AB
:102530000000000000000028282828282828282833
:10254000281414141414143C3C3C3C3C3C3C3C3CCF
:102550003C1E1E1E1E1E1E0000000000000000008B
:1025600000000000000000050001000100030064FD
:1025700000DC0064003C007DA8C7556C7E532FA78B
:102580008F332F31C7CDCD6B92E9635F6C641B9F96
:1025900083383E28A6CED06B96E9665F8F5726A17A
:1025A0008C383E28A6CED07E96DE5C6B7D621B9F6B
:1025B000904F2C28A6CED07DA5C7556C7E552FA751
:1025C0008F332F31C7CDCD02020202020202020276
:1025D00002020202020202020202020200000000E3
:1025E00000030303030303000000000000000000D9
:1025F00000040404040403040404040404040404A0
:1026000004040404040404000000000000000000AE
:1026100000000000000000010101010100000000B5
:1026200000010101000000000000000000000000A7
:10263000000000000000000000000000000000009A
:102640000000000000000028282828282828282822
:10265000281414141414143C3C3C3C3C3C3C3C3CBE
:102660003C1E1E1E1E1E1E0000000000000000007A
:1026700000000000000000050001000100030064EC
:1026800000DC0064003C007DA5C7556C7E572FA779
:102690008F332F31C7CDCD8B96E661788E65109A3A
:1026A0009C4F2C28B7BCD0649AE0616B8E64139A5F
:1026B000A14F2C28B7BCD0799ADE5F5D7D5E209C4F
:1026C000904F2C28A6CED07DA7C7556C7E542FA73F
:1026D0008F332F31C7CDCD02020202020202020265
:1026E00002020202020202000000000002020202D4
:1026F00002040404040404000000000002020202B8
:10270000020404040404040404040404040404048B
:10271000040404040404040000000000000000009D
:1027200000000000000000000000000001010101A5
:102730000100000001010100000000000000000095
:102740000000000000000000000000000000000089
:1027500000000000000000141414141414141414C5
:10276000141414141414141E1E1E1E1E1E1E1E1ECF
:102770001E1E1E1E1E1E1E00000000000000000087
:10278000000000000000000100010001000A000A32
:10279000001400080240012C0108027DB3C7586CE8
:1027A0007E4831A38D332F31C7CDCD7DB3C7586C53
:1027B0007E4831A38D332F31C7CDCD7D5ECD596C91
:1027C0007A9933A88C0A6769F1928F77DFF9726B77
:1027D0007C1D028E8F0B3169E9CA8B7DB9F9826C41
:1027E0007C43017C912D4145C9BDAF7DB3C7586C79
:1027F0007E4831A38D332F31C7CDCD0202020202B4
:1028000002020202020202020202020202020202A8
:1028100002020202020202020202020000000000A2
:1028200000000000000000000000000000000000A8
:10283000000000000000000000000002020202028E
:102840000202020202020202020202000000000072
:102850000000000000000000000000000000000078
:102860000000000000000000000000000000000068
:102870000000000000000000000000000000000058
:102880000000000000000000000000000000000048
:1028900000000000000000000000001414141414D4
:1028A00014141414141414141414141E1E1E1E1EB6
:1028B0001E1E1E1E1E1E1E1E1E1E1E0000000000CE
:1028C0000000000000000000000000010001000105
:1028D0000001001E001400DC00A4015E0158027D0E
:1028E000B3C7586C7E4831A38D332F31C7CDCD7D12
:1028F000B3C7586C7E4831A38D332F31C7CDCD7A05
:10290000B3C8576C7A4630A38D14832AEE6FC97A08
:1029100085C86E6780762F8D8D16C86CE82F8574FC
:1029200059ED516884A010AD9201D277FE27797DD0
:10293000B3C7586C7E4831A38D332F31C7CDCD023C
:102940000202020202020202020202020202020069
:102950000000000000000000000000000000000077
:102960000000000000000000000000000000000067
:102970000000000000000000000000000000000255
:102980000202020202020202020202020202020029
:102990000000000000000000000000000000000037
:1029A0000000000000000000000000000000000027
:1029B0000000000000000000000000000000000017
:1029C0000000000000000000000000000000000007
:1029D00000000000000000000000000000000014E3
:1029E0001414141414141414141414141414141E9D
:1029F0001E1E1E1E1E1E1E1E1E1E1E1E1E1E1E0015
:102A00000000000000000000000000000000000ABC
:102A10000028000A002800F401E803D007E8037D3D
:102A2000B3C7586C7E4831A38D332F31C7CDCD7DD0
:102A3000B3C7586C7E4831A38D332F31C7CDCD7DC0
:102A400093F76A6C7E6604918D332F31C7CDCD7DAF
:102A500093F76A6C7E6604918D332F31C7CDCD7D9F
:102A6000B3C7586C7E4831A38D332F31C7CDCD020B
:102A70000202020202020202020202020202020236
:102A80000202020202020202020202020202020028
:102A90000000000000000000000000000000000432
:102AA00004040404040404040404040404040400EA
:102AB0000000000000000000000000000000000115
:102AC00001010101010101010101010101010103F4
:102AD00003030303030303030303030303030300C9
:102AE00000000000000000000000000000000014D2
:102AF0001414141414141414141414141414141E8C
:102B00001E1E1E1E1E1E1E1E1E1E1E1E1E1E1E0003
:102B10000000000000000000000000000000000AAB
:102B20000028000A000A002800F401E803F401F478
:102B300001E8037DB3C7586C7E4831A38D332F3134
:102B4000C7CDCD7DB3C7586C7E4831A38D332F31AF
:102B5000C7CDCD7DB3C7586C7E4831A38DBB3A2E0F
:102B6000C7CDCD7DB3C7586C7E4831A38DBA672ED3
:102B7000C7CDCD7DB3C7586C7E4831A38DBB3A2EEF
:102B8000C7CDCD7DB3C7586C7E4831A38D332F316F
:102B9000C7CDCD02020202020202020202020202BA
:102BA0000202020202020202020202020202020205
:102BB00002020202020202020202020202020202F5
:102BC00002020202020202020202020202020202E5
:102BD00002020204040404040404040404040404BB
:102BE00004040400000000000000000000000000D9
:102BF00000000000000000000000000000000000D5
:102C000000000000000000000000000000000000C4
:102C100000000000000000000000000000000000B4
:102C200000000000000000000000000000000000A4
:102C30000000001414141414141414141414141490
:102C40001414141E1E1E1E1E1E1E1E1E1E1E1E1EC2
:102C50001E1E1E000000000000000000000000001A
:102C600000000028000A0014001400010001000AFE
:102C7000000A001900140014001E008403C800900C
:102C80000190017800080290019001F401900190F8
:102C90000158027DB3C7586C7E4831A38D332F3164
:102CA000C7CDCD7DB3C7586C7E4831A38D332F314E
:102CB000C7CDCD7DB0F7796C7E4702828D332F3141
:102CC000C7CDCD81B4EC6A4B8B4702827403324D81
:102CD000EF9DA033B4EC6A5F8B4702827401324AE5
:102CE000E89EA03398ED2D5F8B470282740232314B
:102CF000E898A03385952D5F8B47028274023233AA
:102D0000E88FA0338EEA305F8B4702827402323143
:102D1000E89AA07BC2D256528B47028274023231AB
:102D2000E895A084CADC695B903F047D8A44343115
:102D3000E8AAA07BAEF8766A814C04878F343231E2
:102D4000DBC2D57B9BF8766A815F04878F34323192
:102D5000DBC2D57DB3C7586C7E4831A38D332F318C
:102D6000C7CDCD04040404040404040404040404CE
:102D70000404040404040404040404040404040413
:102D80000404040404040404040404040404040403
:102D900004040404040404040404040404040404F3
:102DA00004040400000000000404040404040404F7
:102DB00004040400000000000404040404040404E7
:102DC00004040400000000000404040404040404D7
:102DD00004040404040403040404040404040404B4
:102DE00004040404040403040404040404040404A4
:102DF0000404040404040304040404040404040494
:102E00000404040404040304040404040404040483
:102E10000404040404040404040404040404040472
:102E20000404040000000000000000000000000096
:102E30000000000202020202000000000000000088
:102E40000000000000000000000000000000000082
:102E50000000000202020202000000000000000068
:102E60000000000303030303000000000000000053
:102E70000000000303030303000000000000000043
:102E80000000000202020202000000000000000038
:102E90000000000202020202000000000000000028
:102EA0000000000000000000000000000000000022
:102EB0000000000000000000000000000000000012
:102EC0000000000000000000000000000000000002
:102ED00000000000000000000000000000000000F2
:102EE0000000002828282828282828282814141416
:102EF0001414143C3C3C3C3C3C3C3C3C3C1E1E1EE4
:102F00001E1E1E0000000000000000000000000067
:102F10000000001400140014001400140014001425
:102F200000010001000A0028000F000F0005003218
:102F3000003200320001002D002D000A000A000AB4
:102F4000000A002D000A000A000A000A002D0050A5
:102F5000001E000F000F000F000F000F000F000FEA
:102F6000000F0084038403840384038403840384A4
:102F70000308020802F4014006580258023408FC13
:102F800003FC03FC03E40784038403F401F401F469
:102F900001F4018403F401F401F401F40184034019
:102FA0000640065802580258025802580258025861
:102FB0000258027DB3C7586C7E4831A38D332F3140
:102FC000C7CDCD7DB3C7586C7E4831A38D332F312B
:102FD000C7CDCD7CB5F77C6C7E47047F8D332F3118
:102FE000C7CDCD7C77F77C6C7E83047F8D87304C9A
:102FF0006CCDA77C4EF77C6C7EB9047F8D87300446
:103000006CCDEF79DDFA686C7E9F429B8DBE3004FB
:1030100036CDEF79DDFA686C7E9F5AC68DCE3908C1
:1030200035B6F479DDFA686C7E9F42B98DBE300406
:103030000F5E8D79DDFA686C7E9F42B98DBE3004DB
:10304000AE7D8D79DDFA686C7E9F42B98DBE30040D
:10305000B472E379DDFA686C7E9F6CCA8DCD300462
:10306000AB32CA369FFA686C7E1C0E9C8DCD300444
:10307000AB32CA7E9FFA686C811C0E9C8DCD2B04EE
:103080009728E67EC6C66D6C81373E9C8DCD2B049D
:103090009728E658D9817E6CA71C717F8DCD2B04B3
:1030A0009728E635D9897E6CC41C717F8DCD2B04A1
:1030B0009728E616D98A7E6CEA1C717F8DCD2B0489
:1030C0009728E658D9867E6CA71C717F8DCD2B047E
:1030D0009728E658D9867E6CA71C717F8DCD2B046E
:1030E0009728E67CC2F76D6B8138049390CD2B0452
:1030F0009728E67CCBD96D6B812F239390CD2B0441
:103100009728E67CB0B2616B811D149390CF2B049D
:103110008F28E67CBDCB616B8116319390CD2B045B
:103120009728E67CD8C9626B813C2A9F90CD2B04FE
:103130009728E67CE4D2686B81533AB390CD2B0498
:103140009728E67CCBD96D6B812F239390CD2B04F0
:103150009728E67CB0B2616B811D149390CF2B044D
:103160008F28E67CBDCB616B8116319390CD2B040B
:103170009728E67CD8C9626B813C2A9F90CD2B04AE
:103180009728E67CE4D2686B81533AB390CD2B0448
:103190009728E67CCBD96D6B812F239390CD2B04A0
:1031A0009728E681BFF76D6B829A798390CD2B04C7
:1031B0009728E6815E813A6E80A271C488CD4E0464
:1031C0009779E6815E8A3B6E809978C488CD4E04FB
:1031D000C2848D815C81396E80A279C488CD4E0411
:1031E00040848D815A84386E80A279C488D0242E80
:1031F00034D0DE815EB7646E80A26EBA88A72D5788
:103200005ACAA78157C5476E80A239BA8F822D53FB
:1032100074CBA7817DC5476E80783BB88F8F2459CA
:1032200074CBA77BA6DF5E6A7D5123A28D8F2459C4
:1032300074CBA77DB3C7586C7E4831A38D332F3133
:10324000C7CDCD04040404040404040404040404E9
:10325000040404040404040404040404040404042E
:10326000040404040404040404040404040404041E
:10327000040404040404040404040404040404040E
:103280000404040404040404040404000004040406
:1032900004040404040404040404040000040404F6
:1032A00004040404040404040404040000040404E6
:1032B00004040404040404040404040000010101DF
:1032C00001010104040404040404040000010101D8
:1032D00001010104040404040404040000010101C8
:1032E00001010101010101010101010000010101D0
:1032F00001010101010101010101010000010101C0
:10330000010101040404040404040400000404048E
:10331000040404040404040404040400000101017E
:10332000010101000000000000000000000000009A
:10333000000000000000000000000000000000008D
:10334000000000000000000000000000000000007D
:10335000000000000000000000000000000000006D
:10336000000000020202020202020202020404043D
:103370000404040202020202020202020204040421
:103380000404040202020202020202020204040411
:103390000404040202020202020202020204040401
:1033A00004040402020202020202020202040404F1
:1033B00004040402020202020202020202040404E1
:1033C00004040402020202020202020202040404D1
:1033D00004040402020202020202020202040404C1
:1033E00004040402020202020202020202040404B1
:1033F00004040402020202020202020202040404A1
:103400000404040202020202020202020204040490
:103410000404040202020202020202020204040480
:103420000404040202020202020202020204040470
:103430000404040202020202020202020204040460
:103440000404040202020202020202020204040450
:103450000404040202020202020202020204040440
:103460000404040202020202020202020204040430
:103470000404040202020202020202020204040420
:103480000404040202020202020202020204040410
:103490000404040202020202020202020204040400
:1034A00004040402020202020202020202040404F0
:1034B00004040402020202020202020202040404E0
:1034C00004040400000000000000000000000000F0
:1034D00000000000000000000000000000000000EC
:1034E00000000000000000000000000000000000DC
:1034F00000000000000000000000000000000000CC
:1035000000000000000000000000000000000000BB
:1035100000000000000000000000000000000000AB
:10352000000000000000000000000000000000009B
:10353000000000000000000000000000000000008B
:10354000000000000000000000000000000000007B
:10355000000000000000000000000000000000006B
:10356000000000000000000000000000000000005B
:10357000000000000000000000000000000000004B
:10358000000000000000000000000000000000003B
:10359000000000010101010101010101010101011E
:1035A00001010103030303030303030303030303F1
:1035B00003030301010101010101010101010101F5
:1035C00001010100000000000000000000000000F8
:1035D00000000003030303030303030303030303C4
:1035E00003030300000000000000000000000000D2
:1035F00000000000000200000000020000000000C7
:1036000000000000000000000000000000000000BA
:10361000000000000300000300030000030000009E
:103620000000000200000000020000000000000096
:10363000000000000000000000000000000000008A
:10364000000000000000000000000000000000007A
:10365000000000000000000000000000000000006A
:10366000000000000000000000000000000000005A
:10367000000000000000000000000000000000004A
:10368000000000000000000000000000000000003A
:10369000000000000000000000000000000000002A
:1036A000000000000000000000000000000000001A
:1036B000000000000000000000000000000000000A
:1036C00000000000000000000000000000000000FA
:1036D00000000000000000000000000000000000EA
:1036E00000000000000000000000000000000000DA
:1036F00000000000000000000000000000000000CA
:1037000000000000000000000000000000000000B9
:1037100000000000000000000000000000000000A9
:103720000000000000000000000000000000000099
:103730000000000000000000000000000000000089
:103740000000004255533D25640D0A0011241FBEA0
:10375000CFEFD0E1DEBFCDBF17E0A0E0B1E0E4EEF7
:10376000F9EC00E00BBF02C007900D92A83DB10735
:10377000D9F71CE0A8EDB7E001C01D92A73DB10745
:10378000E1F70E94AC1E0C94F0640C940000809150
:10379000830890918408883C910510F4DA9813C04E
:1037A0008091830890918408893C910558F080911C
:1037B0008308909184088059914020F4DA9ADB9A2A
:1037C000DC980895DA9ADB9ADC9A08959093800841
:1037D00080937F0880917F0890918008892BD1F792
:1037E00008951F920F920FB60F9211240F900FBEE3
:1037F0000F901F90189580916F08882311F1809188
:10380000A7089091A8088C51954228F010928E0834
:1038100010928D0809C080918D0890918E080196B4
:1038200090938E0880938D0880918D0890918E08DA
:10383000079768F110926F0810928E0810928D0809
:1038400008958091A7089091A8088C51954270F036
:1038500010928E0810928D088091790890917A08C4
:10386000019690937A088093790804C010927A08A0
:10387000109279088091790890917A08039738F02E
:1038800081E080936F0810927A0810927908089569
:1038900089B38370813089F48AE090E09093800846
:1038A00080937F0880917F0890918008892BD1F7C1
:1038B000C89B03C081E080937B0889B3837082300A
:1038C00099F48AE090E09093800880937F0880913B
:1038D0007F0890918008892BD1F789B3837082305B
:1038E00019F483E080937B08089593E09BBB8CEFF1
:1038F0008ABB18BA84E787BB15BA40E844BB92BBC1
:1039000011BA80E783B988E082B910926200109200
:1039100061001092650084E08093640010BE83BF54
:1039200012BE11BE1FBC85E08EBD1DBC1CBC17BCE9
:1039300016BC1BBC1ABC19BC18BC109279001092A2
:10394000780085BD14BC13BC10928B0090938A0044
:1039500010928900109288001092810010928000CD
:1039600010928700109286001092850010928400B9
:10397000109283001092820010926A0030E23ABFE7
:1039800080E489BF17BE10927D001BB828E12AB9D8
:1039900096E0909395001092900087E089B910927C
:1039A0009B0020939A0090939D0010929800809322
:1039B000990048B910BC37B916B810927400089530
:1039C000DA9ADB9ADC9AE5E6F0E080818460808315
:1039D000AF9ADD9ADE9ADF9AC59810923409109258
:1039E0003609109284081092830810927E08109273
:1039F0007208109276080895BF92CF92DF92EF92EC
:103A0000FF920F931F93CF93DF9381E0809373080E
:103A100085E090E090938C0880938B08BB24B3944E
:103A20009DECC92E91E0D92E88E2E82EF12C0CEC09
:103A300011E0C4EFD1E066C080917E0865E00E948D
:103A4000FE5F992321F58091720890917E082DB731
:103A50003EB7275030400FB6F8943EBF0FBE2DBF83
:103A6000EDB7FEB73196ADB7BEB71196BC92D28214
:103A7000C18283831482958316820E94B722EDB798
:103A8000FEB737960FB6F894FEBF0FBEEDBFAF9AE4
:103A9000809165008B7F809365000E942F250E9496
:103AA000FB1B80916F088823A1F1C49AF0928008D3
:103AB000E0927F0880917F0890918008892BD1F750
:103AC000C4981093800800937F0880917F0890919C
:103AD0008008892BD1F78091650084608093650010
:103AE0000E942F250E94FB1B80916F08882389F07C
:103AF000D0938008C0937F0880917F0890918008C0
:103B0000892BD1F780918B0890918C08892B09F033
:103B100093CF85E590E090938C0880938B0811E01B
:103B2000C3EBD1E052C080917E0865E00E94FE5F49
:103B3000992321F58091720890917E082DB73EB7A8
:103B4000275030400FB6F8943EBF0FBE2DBFEDB7E3
:103B5000FEB73196ADB7BEB711961C93D283C18321
:103B600083831482958316820E94B722EDB7FEB735
:103B700037960FB6F894FEBF0FBEEDBFAF9A809197
:103B80007C0890917D08855F914020F080916500D0
:103B90008B7F03C080916500846080936500809175
:103BA0007C0890917D08892B39F080917C08909158
:103BB0007D08845F914021F40E942F250E94FB1B09
:103BC00080916F08882341F0C49A80918B0890916E
:103BD0008C08892B09F0A7CFC4981092730800D0E5
:103BE0000F9281E0ADB7BEB711968C9311978CEA16
:103BF00091E013969C938E9312970E94B7220F9098
:103C00000F900F90DF91CF911F910F91FF90EF9048
:103C1000DF90CF90BF900895DF92EF92FF920F93C5
:103C20001F93CF93DF9380917B08813009F08CC084
:103C300010927B0800D00F92ADB7BEB711968C934F
:103C4000119784E991E013969C938E9312970E94AA
:103C5000B722C0E0D0E00F900F900F9002E310E089
:103C6000DD24D3942EE8E22E21E0F22EAF981093BB
:103C7000800800937F0880917F0890918008892BAD
:103C8000D1F70E942F250E94FB1B8091A7089091DD
:103C9000A80800D000D00F92EDB7FEB73196ADB7AF
:103CA000BEB71196DC92F282E182948383830E94F4
:103CB000B722AF9A1093800800937F080F900F905F
:103CC0000F900F900F9080917F0890918008892B22
:103CD000D1F72196CA30D10549F680916F08882323
:103CE00019F100D00F9211E0EDB7FEB7118386E70E
:103CF00091E0938382830E94B7220F900F900F90E0
:103D00000E947C4D0E94FC1C00D00F92ADB7BEB744
:103D100011961C9311978BE691E013969C938E93CA
:103D200012970E94B7220DC000D00F9281E0EDB72C
:103D3000FEB781838AE591E0938382830E94B72254
:103D4000AF980F900F900F90DF91CF911F910F912F
:103D5000FF90EF90DF9008950E94751C0E94E01C78
:103D60000E94922060E072EC81E090E00E947E1F51
:103D700081EA9FE10E945C21789487B7816087BFC8
:103D8000809165008B7F809365000E94CE260E9403
:103D9000481C0E940C1E0E940748FFCF1F920F92E2
:103DA0000FB60F920BB60F9211242F933F934F93A0
:103DB0005F936F937F938F939F93AF93BF93EF9393
:103DC000FF9389E182BF80919108909192080196BA
:103DD000909392088093910880917F089091800839
:103DE000892B49F080917F089091800801979093EA
:103DF000800880937F080E94C71B80915D088823FC
:103E000089F080918308909184086091000170E0AE
:103E10000E940A60892B31F48FE080932B098CED8E
:103E20000E94572480918308909184080196909372
:103E30008408809383088091830890918408885E29
:103E4000934008F443C01092840810928308809134
:103E5000810890918208892B49F080918108909186
:103E600082080197909382088093810880917E0850
:103E70008F5F80937E0880917E088C3338F110929A
:103E80007E0880918B0890918C08892B49F0809155
:103E90008B0890918C08019790938C0880938B08E5
:103EA000809172088F5F80937208809172088C33C2
:103EB00068F010927208809176088F5F8093760880
:103EC00080917608883110F010927608FF91EF917A
:103ED000BF91AF919F918F917F916F915F914F9122
:103EE0003F912F910F900BBE0F900FBE0F901F9020
:103EF0001895909359088093580808959B01AC0138
:103F00006B54704E834E9F4FF3E0660F771F881FF0
:103F1000991FFA95D1F7E4E0220F331F441F551F74
:103F2000EA95D1F70E9431602150304020939900EA
:103F300030939800089584E998E008958DE998E019
:103F40000895982F809193088823E1F390939C0023
:103F50001092930808951092990810929808089565
:103F60008091980890919908892B11F080E008952C
:103F70008FEF08951F920F920FB60F920BB60F920C
:103F800011242F933F934F935F936F937F938F935E
:103F90009F93AF93BF93EF93FF9360919C008091A9
:103FA000580890915908892B39F0E0915808F09100
:103FB0005908862F09950FC084E998E00E942221B4
:103FC000882349F48091A5089091A60801969093C2
:103FD000A6088093A508FF91EF91BF91AF919F91A3
:103FE0008F917F916F915F914F913F912F910F90A2
:103FF0000BBE0F900FBE0F901F901895682F8DE984
:1040000098E00E94222108951F920F920FB60F92FE
:104010000BB60F9211242F933F934F935F936F939F
:104020007F938F939F93AF93BF93EF93FF93809171
:104030009C08882379F08091A1089091A208892B8F
:1040400039F08DE998E00E94B92080939C0005C06A
:1040500010929C088FEF80939308FF91EF91BF918E
:10406000AF919F918F917F916F915F914F913F9110
:104070002F910F900BBE0F900FBE0F901F901895B1
:104080008FEF80939C088DE998E00E94B920982FCB
:10409000809193088823E1F390939C0010929308F9
:1040A0000895CF93DF93EC01809196089091970843
:1040B000892B69F08091980890919908892B39F0A3
:1040C00084E998E00E94B92088838FEF01C080E0E6
:1040D000DF91CF910895DF93CF930F92CDB7DEB7E5
:1040E000CE0101960E945120882319F42FEF3FEF53
:1040F00003C08981282F30E0C9010F90CF91DF9153
:10410000089584E998E068ED77E040E450E00E948B
:10411000AC208DE998E068E178E040E450E00E944E
:10412000AC2008950E9481201092590810925808DE
:1041300088ED80939A0060E875E280E090E00E944C
:104140007E1F8FEF8093930810929C081092A60810
:104150001092A50878940895FC018FB7F8947183A4
:1041600060835383428317821682158214828FBF25
:104170000895DC014FB7F89414968D919C91159792
:10418000892B11F4E0E025C016968D919C9117972C
:10419000ED91FC911197E80FF91FE08101961796B8
:1041A0009C938E93169712962D913C91139782179C
:1041B000930730F0821B930B17969C938E93169760
:1041C00014968D919C911597019715969C938E93BB
:1041D00014974FBF8E2F0895FC014FB7F894848138
:1041E000958168177907B0F486819781860F971FAC
:1041F00097838683228133818217930720F0821B65
:10420000930B9783868384819581861B970B958377
:10421000848302C0158214824FBF0895FC01CB0134
:104220002FB7F8942FBF2681378162817381820F67
:10423000931F0E940A600190F081E02DE80FF91FA2
:10424000808108951F93CF93DF93EC01162F4FB712
:10425000F8942C813D816A817B812617370798F479
:104260008E819F81820F931F0E940A60E881F981ED
:10427000E80FF91F10838C819D8101969D838C83AB
:104280004FBF8FEF02C04FBF80E0DF91CF911F91F2
:104290000895FC018FB7F8948FBF22813381848108
:1042A0009581281B390BC9010895FC018FB7F8943B
:1042B000158214828FBF089590935B0880935A08EB
:1042C00008951F93182F8A3031F4E0915A08F09125
:1042D0005B088DE00995E0915A08F0915B08812F09
:1042E00009951F910895CF93DF93EC01009721F476
:1042F00006C021960E94612188818823D1F7DF9131
:10430000CF910895EF92FF920F931F93CF93DF9376
:104310008C017A010097E9F020E030E0261737079A
:1043200038F4F80181918F012F5F3F4F8823B1F757
:10433000C0E0D0E00BC0F8018081882319F00F5F46
:104340001F4F01C080E20E9461212196CE15DF053A
:1043500090F3DF91CF911F910F91FF90EF9008950F
:10436000CF93DF93EC01009719F407C00E946121FD
:10437000FE01219684918823C9F7DF91CF9108959A
:104380008AE00E9461210895E82FF0E0EF70F0705C
:10439000E251FE4FE4918E2F0E94612108951F93F8
:1043A000182F82958F700E94C421812F0E94C421F2
:1043B0001F9108951F93182F892F0E94CF21812FBD
:1043C0000E94CF211F910895EF92FF920F931F93A8
:1043D0007B018C01C801AA27BB270E94DA21C701F3
:1043E0000E94DA211F910F91FF90EF9008952F9274
:1043F0003F924F925F926F927F928F929F92AF9275
:10440000BF92CF92DF92EF92FF920F931F93DF93B1
:10441000CF93CDB7DEB7A3970FB6F894DEBF0FBE2C
:10442000CDBF6AA3242E2BA337014801442351F0AA
:1044300017FF08C0EE24FF248701E618F7080809D3
:10444000190902C0840173012AA1215090E02110B2
:1044500091E0291B29A318A2A82EBB24CC24DD247B
:10446000C801B701A60195010E943160FB01EF7000
:10447000F070E251FE4F64916F8FC801B701A60141
:1044800095010E943160C901DA017C018D019EE134
:10449000492E512C4C0E5D1E39A025C0E114F104AB
:1044A00001051105C9F0C801B701A60195010E94D7
:1044B0003160FB01EF70F070E251FE4F6491F20148
:1044C0006083C801B701A60195010E943160C9014E
:1044D000DA017C018D0103C02BA1F20120833A9403
:1044E0000894410851083320C9F6CE014F968C013B
:1044F000E9A10E1B11092220F1F097FE05C08DE203
:10450000F80182938F0117C0C801019761147104EB
:104510008104910419F08C018BE202C08C0180E2CD
:10452000F801808308C0F80181918F010E94612108
:10453000FAA1F150FAA32AA12223A9F7A3960FB654
:10454000F894DEBF0FBECDBFCF91DF911F910F91C9
:10455000FF90EF90DF90CF90BF90AF909F908F90A3
:104560007F906F905F904F903F902F9008957F9233
:104570008F929F92AF92BF92CF92DF92EF92FF9273
:104580000F931F93DF93CF93CDB7DEB77888C98899
:10459000DA8853E1E52EF12CEC0EFD1E14C08823C1
:1045A00081F480E090E0CF91DF911F910F91FF9017
:1045B000EF90DF90CF90BF90AF909F908F907F90C3
:1045C00008950E94612196012F5F3F4F772021F0CF
:1045D000F6016901849103C0F60180816901853289
:1045E000F1F62F5F3F4F772021F0F60169018491AA
:1045F00003C0F60180816901843629F0883781F093
:104600008336F9F606C000E117E24AE0A42EB12C89
:104610000CC0F701808122E030E0E20EF31ED1CF22
:1046200000E010E130E1A32EB12C22E0822E912C8B
:104630008E0C9F1CF701E080F1808436B1F4F7FE08
:1046400011C0F094E194F108F3948DE20E9461218D
:1046500009C0C8016AE070E00E940A608B01623004
:10466000710518F0E016F106A0F3C701B8010E9429
:104670000A60862F0E94C421C701B8010E940A6007
:104680007C01C801B5010E940A608B0161157105AA
:1046900061F7740198CF9C01FB01DD9ADE9ADF9AE5
:1046A00080916500846080936500AF9A80819181DC
:1046B000821793070CF4DF98828193818217930706
:1046C0000CF4DD9884819581821793070CF4DE98B1
:1046D00086819781821793072CF4809165008B7FE8
:1046E0008093650080859185821793070CF4AF98BD
:1046F0000895DF93CF93CDB7DEB72A970FB6F8941E
:10470000DEBF0FBECDBFDE011196E2E0F1E02AE090
:1047100001900D922150E1F7BE016F5F7F4F0E9423
:104720004B232A960FB6F894DEBF0FBECDBFCF91B4
:10473000DF910895892B79F010922F0910922E099C
:1047400087B7816087BF89B7806489BFDD9881E0C2
:1047500080935D08089587B78E7F87BF89B78F7B69
:1047600089BF80E090E00E94792310925D0808954F
:104770001F920F920FB60F920BB60F9211242F9328
:104780003F934F935F936F937F938F939F93AF93D9
:10479000BF93EF93FF9395B190932A0980912B09D2
:1047A000813049F0813020F08F3009F06BC00CC0AF
:1047B0009093290967C089E3989FC00111249093C1
:1047C000A8088093A7085EC0963E18F490932C0921
:1047D00002C010922C0980912C0990E00E9479234C
:1047E00040912E0950912F0941155105F1F4809106
:1047F0005E088823D1F090912C0980915E0889177A
:10480000A0F080915F0890916008019790936008F4
:1048100080935F0880915F0890916008892B91F5E3
:104820001092610810925D082DC080915E08FA0117
:10483000E755F74F882319F080912C0908C0208193
:1048400080912C0990E0820F911D9595879580832A
:104850008091010190E001974817590741F4809138
:104860006108813021F41092610810925D08609116
:104870000101CA01019670E00E941E6090932F0909
:1048800080932E0910925C08FF91EF91BF91AF9138
:104890009F918F917F916F915F914F913F912F9158
:1048A0000F900BBE0F900FBE0F901F901895909118
:1048B0002B09906297B986B90895C59A84EF91E063
:1048C00020E731E0F9013197F1F70197D9F7089521
:1048D000C5980895EF92FF920F931F93C5990AC050
:1048E000C59A84EF91E020E731E0F9013197F1F7C3
:1048F0000197D9F789B78F7B89BF10922B0980E286
:1049000087B98CED86B93699FECF6091290970E0A0
:10491000882777FD8095982F0E94385D20E030E051
:1049200040E050E00E94D55A21EE3AE74CED50E4C9
:104930000E94A45A9B01AC0166E676EA8BE894E4F7
:104940000E94FC5B7B018C0120E030E040E050E005
:104950000E94085D8823FCF0C801B70120E030E028
:1049600040E251E40E94085D88235CF40F2EF0E0E1
:10497000EF2EF0E0FF2EF0E20F2FF1E41F2FF02DCD
:1049800014C0C801B70120E030E048E452E40E94BE
:10499000A85C181654F40F2EF0E0EF2EF0E0FF2E76
:1049A000F8E40F2FF2E41F2FF02DC801B7010E9489
:1049B0002C59609330091F910F91FF90EF9008954B
:1049C000BF92CF92DF92EF92FF920F931F93CF93FC
:1049D000DF938FE080932B09C0E0D0E00F2EF0E052
:1049E000EF2EF0E0FF2EF0E00F2FF0E01F2FF02D64
:1049F000BB24B3944FE2C42E3CEDD32EB0925C089E
:104A0000C7B8D6B880915C088823E1F760912C097B
:104A100070E0882777FD8095982F0E94385D9B0174
:104A2000AC01C801B7010E94D55A7B018C012196C7
:104A3000C233D10519F720E030E040E251E40E9492
:104A4000FC5B0E942C5960932D09DF91CF911F913F
:104A50000F91FF90EF90DF90CF90BF90089581E08D
:104A600080932B0981E287B98CED86B93699FECF08
:104A700008951F920F920FB60F9211248F9387B74C
:104A80008F7B87BF109236098F910F900FBE0F90CA
:104A90001F9018951F920F920FB60F920BB60F92A0
:104AA00011248F939F93EF93FF9380913609813068
:104AB00059F0813020F0823009F061C023C014BC6D
:104AC00081E08093360955C084B58093330914BCC6
:104AD0008A53893108F04AC0109232091092350980
:104AE00082E08093360986B7806486BF87B780648A
:104AF00087BF109238091092390910923A09109222
:104B00003B093DC094B59093330914BC892F8D5057
:104B10008E3060F5E0913509943138F0F0E0E85CD2
:104B2000F64F80818695806805C0F0E0E85CF64F1E
:104B3000808186958083809132098F5F80933209CE
:104B40008830B9F410923209809135098F5F8093D3
:104B50003509843071F4809138098093310980914E
:104B60003B09809337098FEF8093340910923609FF
:104B700006C086B7806486BF87B7806487BFFF9111
:104B8000EF919F918F910F900BBE0F900FBE0F90E2
:104B90001F90189580913409882319F42FEF3FEF67
:104BA00006C01092340980913709282F30E0C901DE
:104BB0000895282F30E087FF02C020503140C901FE
:104BC0000895159A149A1D9A1C9A000000001D98C9
:104BD000000000001C98000000000895159A149A27
:104BE0001D981C9A000000001D9A000000001598F6
:104BF00014980895159A90E087FF02C01D9A01C08D
:104C00001D98000000001C9A000000000000000039
:104C10001C98000000009F5F983011F0880FECCFC7
:104C20000895159890E080E0880F000000000000D3
:104C300000001C9A000000000D9981600000000037
:104C40001C989F5F983081F7159A08951598000079
:104C500000001D9A000000001C9A000000001C9833
:104C600000000000159A000000000895159A000049
:104C700000001D98000000001C9A000000001C9815
:104C8000000000001D9A000000000895159A000021
:104C900000001D9A000000001C9A000000001C98F3
:104CA000000000000895CF92DF92EF92FF921F93D1
:104CB000CF93DF93182F6B017A010E94E125812F9A
:104CC0000E94FA250E942626C0E0D0E009C0F70124
:104CD000EC0FFD1F80810E94FA250E942626219656
:104CE000CC15DD05A4F30E94EE2581E090E0DF9174
:104CF000CF911F91FF90EF90DF90CF9008956F922A
:104D00007F928F929F92AF92BF92CF92DF92FF924B
:104D10000F931F93CF93DF93F82E5B016A01490134
:104D200038010E94E1258F2D0E94FA250E94262637
:104D3000C0E0D0E009C0F601EC0FFD1F80810E94A9
:104D4000FA250E9426262196CA15DB05A4F3C0E0A9
:104D5000D0E08401015010400CC00E941126F301E4
:104D6000EC0FFD1F8083C017D10714F40E94362674
:104D70002196C815D9058CF30E9446260E94EE257F
:104D8000DF91CF911F910F91FF90DF90CF90BF9057
:104D9000AF909F908F907F906F9008950E94E12533
:104DA00080E70E94FA250E94262684E10E94FA25C7
:104DB0000E94262683E00E94FA250E9426260E9451
:104DC000EE2508951F930E94E12580E70E94FA25B1
:104DD0000E94262682E00E94FA250E9426260E9432
:104DE000EE2500000000000000000E94E12581E7A0
:104DF0000E94FA250E9426260E9411260E9436262D
:104E00000E941126182F0E943626812F90E017FF4E
:104E100002C08050914090933D0980933C090E94CC
:104E200011260E9436260E941126182F0E9436262F
:104E3000812F90E017FF02C08050914090933F096E
:104E400080933E090E9411260E9436260E94112658
:104E5000182F0E944626812F90E017FF02C0805035
:104E6000914090934109809340090E94EE251F9143
:104E700008956F927F928F929F92AF92BF92CF923E
:104E8000DF92EF92FF920F931F93DF93CF93CDB7F3
:104E9000DEB764970FB6F894DEBF0FBECDBF8CE0CF
:104EA00091E00E94732184E1898383E08A8380E713
:104EB00090E062E070E08E010F5F1F4FA8010E943A
:104EC0005326EE24FF2422E0622E68019BE0892E07
:104ED000912C8C0E9D1E772473948FEFA82E81E069
:104EE000B82E698280E790E061E070E0A6010E9440
:104EF000532681E790E060E070E0A60126E030E014
:104F000084010E947F268C85282F30E087FF04C013
:104F1000B9016050714001C0B9018E85282F30E081
:104F200087FF04C0A9014050514001C0A9018889F0
:104F3000282F30E087FF04C0C9018050914001C094
:104F4000C9012DB73EB7295030400FB6F8943EBF87
:104F50000FBE2DBFEDB7FEB73196ADB7BEB71196F8
:104F60007C92B282A1827483638356834583908747
:104F700087830E94B7222DB73EB7275F3F4F0FB6FA
:104F8000F8943EBF0FBE2DBF8AEF90E00E94E61B53
:104F90000894E11CF11C34E1E316F10409F0A1CFFF
:104FA00064960FB6F894DEBF0FBECDBFCF91DF91F0
:104FB0001F910F91FF90EF90DF90CF90BF90AF9037
:104FC0009F908F907F906F900895DC01ED91FC9100
:104FD0001197E08109C0ED91FC91119731961196DE
:104FE000FC93EE933197E181E032A9F3EE2331F0A7
:104FF0008D919C91119701968D939C938E2F08957E
:10500000DC01ED91FC911197E08109C0ED91FC91DB
:10501000119731961196FC93EE933197E181E0322E
:10502000A9F3EE2331F08D919C91119701968D9308
:105030009C938E2F81548A3118F0EFEFFFEF03C05D
:10504000F0E0E154F040CF010895DC01ED91FC91D6
:105050001197408109C0ED91FC91119731961196FD
:10506000FC93EE93319741814032A9F3442339F008
:105070008D919C911197019611969C938E9320E0AF
:1050800030E012C0C90163E0880F991F6A95E1F70B
:10509000220F331F280F391F240F311D205330409A
:1050A00041911196FC93EE93842F8053ED91FC91E6
:1050B00011978A3038F33197ED93FC93C901089525
:1050C000FC01DB0120E030E00BC0892F81548A31E4
:1050D00018F08F5E8A3038F431969D932F5F3F4FE2
:1050E0009081992391F71C92C9010895AC012091F8
:1050F000640830916508AAEAB9E0E0E0F0E00FC08A
:105100008D919C91119714968417950739F4EE0FA1
:10511000FF1FE455F64F2081318106C03296E21719
:10512000F30774F320E030E0C9010895AC01209149
:10513000640830916508AAEAB9E0E0E0F0E011C047
:105140008D919C91119714968417950749F4EE0F51
:10515000FF1FE455F64F80819181892BE1F404C053
:105160003296E217F30764F322313105A4F4F90112
:10517000EE0FFF1FE655F64F51834083F901EE0F06
:10518000FF1FE455F64F718360832E5F3F4F3093CE
:105190006508209364080895FC01DB0120813181BA
:1051A0008D919C911197918380832D933C930895C9
:1051B000860F971F62E070E00E941E60CB01089589
:1051C000AF92BF92CF92DF92EF92FF920F931F9315
:1051D000CF93DF937C016B015A01CA14DB040CF0FE
:1051E0007AC08601000F111F0E0D1F1DC6018A0D0A
:1051F0009B1D62E070E00E941E60FB01EE0FFF1F2E
:10520000EE0DFF1DD8012D913C9111978081918168
:1052100011969C938E93318320834D915C919601DE
:105220002F5F3F4FE50133C02F5F3F4FA216B306FC
:105230003CF4B901FE01EE0FFF1FEE0DFF1D07C08C
:1052400081919191481759077CF7F3CF2197CC159D
:10525000DD0534F080819181329748175907B4F306
:105260002C173D079CF4D901AA0FBB1FAE0DBF1D23
:10527000FE01EE0FFF1FEE0DFF1D2D913C911197CA
:10528000808191818D939C93318320839B01C217F0
:10529000D30734F0F901EE0FFF1FEE0DFF1DC6CF4F
:1052A000FE01EE0FFF1FEE0DFF1DD8012D913C9169
:1052B0001197808191818D939C93318320832197D5
:1052C000C701B601AE010E94E02892E0C92ED12CA0
:1052D000CC0EDD1E82CFDF91CF911F910F91FF90F9
:1052E000EF90DF90CF90BF90AF90089583309105FD
:1052F000E9F0843091054CF48130910599F08230C9
:10530000910594F4892B61F008C08530910591F0E6
:10531000853091056CF0069779F020E030E01CC0F4
:1053200089B30CC086B30AC083B308C080B306C07B
:1053300081B104C080B102C080916300282F30E0A9
:10534000683071054CF481E090E002C0880F991F2D
:105350006A95E2F728233923C90108959C014D334A
:1053600009F472C04E33A8F44B3229F14C3240F4A8
:10537000463299F14A3229F1453209F06DC041C0F7
:105380004F3239F14C3309F447C04D3209F064C053
:1053900015C04C3609F446C04D3630F44E33B1F1E9
:1053A000473609F059C044C04E3609F447C04C375F
:1053B00009F052C01AC0260F371F4EC0261B370BEC
:1053C0004BC0869F9001879F300D969F300D112412
:1053D00043C00E941E609B0117C0672B19F420E098
:1053E00030E03AC00097C1F102C0009719F021E007
:1053F00030E032C06115710511F061E070E09B0191
:105400002BC00E941E609C01C90125C080E090E075
:105410006217730704F51DC080E090E02617370778
:10542000D4F417C080E090E062177307A4F011C0B5
:1054300080E090E02617370774F00BC080E090E022
:105440002617370731F407C080E090E06217730732
:1054500011F481E090E09C01C9010895DC018C9178
:10546000882319F420E030E009C0FD0101C0319625
:1054700080818232E1F79F012A1B3B0BC90108950D
:105480006930710508F054C083309105D9F084303B
:1054900091054CF48130910579F0823091057CF4CE
:1054A000892B61F11BC08530910591F08530910504
:1054B00064F0069799F40FC0E8E3F0E021C0E5E35B
:1054C000F0E01EC0E2E3F0E01BC0E3E2F0E018C051
:1054D000E2E6F0E015C0E5E6F0E012C000D00F9281
:1054E00081E0EDB7FEB781838FE893E093838283F9
:1054F0000E94B7220F900F900F900895EBE3F0E019
:105500006830710519F431974083089581E090E087
:1055100002C0880F991F6A95E2F7982F452B29F44E
:10552000808190958923808308958081892B808351
:105530000895CF93DF93FC01EB018E31910584F048
:105540004E976AE070E00E941E609B01CF016AE006
:1055500070E00E941E60BC01C901AE010E94402A99
:1055600080E090E0DF91CF910895EF92FF920F934A
:105570001F93E82EF62E05E610E0F80180818B7F60
:1055800080838AEE0E9461218E2D0E9461218F2DE1
:105590000E946121FE248F2D8F770E946121F801E6
:1055A0008081846080831F910F91FF90EF90089518
:1055B0002F923F924F925F926F927F928F929F9223
:1055C000AF92BF92CF92DF92EF92FF920F931F9311
:1055D000DF93CF93CDB7DEB7CC58D0400FB6F89459
:1055E000DEBF0FBECDBF10926D0810926C0885E132
:1055F00091E00E9473210E9464498A3A29F085E271
:1056000091E00E947321E4C10E94AB490E94644969
:10561000A82EBB24B39445E4242E4CE4342E43E559
:10562000442E45E4542E34E5632E38E4732E35E4DD
:10563000832E3EE4932EC1C1CE010196BE01655F6B
:105640007F4F0E94324AC984DA840E811D81E9802D
:10565000FA800E946449A82EE114F10409F4ADC156
:1056600000D000D00F92EDB7FEB73196ADB7BEB700
:105670001196BC9282EB92E092838183F482E38262
:105680000E94B7220F900F900F900F900F90E12F74
:10569000F0E0EE0FFF1FE751FD4F808191810E94E6
:1056A000732100D00F92ADB7BEB71196BC9211977F
:1056B000E0EBF2E01396FC93EE9312970E94B72270
:1056C0000F900F900F90112341F0173031F01130EF
:1056D00021F01A3011F01232D9F400D000D00F921C
:1056E000EDB7FEB73196ADB7BEB71196BC928AEA58
:1056F00092E092838183802F90E08F5B9F4F948311
:1057000083830E94B7220F900F900F900F900F90FD
:105710001830F1F5A02FB0E00E3148F4AA0FBB1FEE
:10572000A255BC4F8D919C910E9473212CC0EDB766
:10573000FEB737970FB6F894FEBF0FBEEDBF2DB77B
:105740003EB72F5F3F4FB1828FE992E0F90192831C
:105750008183CD014E976AE070E00E941E606F5B0E
:1057600063831482802F6AE00E94FE5F905D9583C0
:1057700016820E94B722ADB7BEB717960FB6F8943F
:10578000BEBF0FBEADBF89E391E00E94732100C18F
:105790001E3011F01A3179F5A02FB0E0003288F0F8
:1057A00000D000D00F922DB73EB72F5F3F4FEDB71F
:1057B000FEB7B1828BE992E0F901928381839097E1
:1057C00011C000D000D00F922DB73EB72F5F3F4FD2
:1057D000EDB7FEB7B18287E992E0F9019283818348
:1057E000AF5BBF4FB483A3830E94B7220F900F908B
:1057F0000F900F900F901630B1F4013009F0C8C02F
:1058000000D00F92ADB7BEB711960C931197E4E993
:10581000F2E01396FC93EE9312970E94B7220F903A
:105820000F900F90B5C01230E1F5D6010D90002019
:10583000E9F71197AC19BD09A330B105A4F012978F
:1058400096012A0F3B1F1296F90180818A3359F481
:10585000FD013197EC0DFD1D8081803321F480E244
:10586000D9018C938083C6016DE371E00E941861B9
:105870008C01C60162E471E00E941861FC0101150F
:10588000110531F0D8016D927D928D929C92139703
:10589000309721F02082318242825382C6010196E4
:1058A00078C01D3099F400D000D00F92EDB7FEB74C
:1058B0003196ADB7BEB71196BC9281E992E0928362
:1058C0008183802F90E08F5B9F4F58C01232E1F5AB
:1058D000D6011196EC9000D000D00F92EDB7FEB734
:1058E0003196ADB7BEB71196BC928EE892E0928326
:1058F0008183D60112968C91838314820E94B722F1
:105900008601FF24F39416C000D000D00F92EDB7AB
:10591000FEB73196ADB7BEB71196BC928AE892E059
:1059200092838183D80112968C91838314820E9482
:10593000B722F3940F900F900F900F900F900F5F7E
:105940001F4FFE1408F327C0113011F1153031F04C
:10595000103121F01C3011F01431D1F400D000D0FE
:105960000F92EDB7FEB73196ADB7BEB71196BC92A8
:1059700087E892E0928381838F81988594838383E3
:105980000E94B7220F900F900F900F900F9003C0BE
:10599000C6010E94732100D00F92ADB7BEB7119619
:1059A000BC921197E4E8F2E01396FC93EE93129701
:1059B0000E94B7220F900F900F90FCECAF1641F0B1
:1059C00080916C0890916D0880509C4008F434CE12
:1059D000C457DF4F0FB6F894DEBF0FBECDBFCF91D7
:1059E000DF911F910F91FF90EF90DF90CF90BF90CC
:1059F000AF909F908F907F906F905F904F903F906F
:105A00002F9008952F923F924F925F926F927F92C4
:105A10008F929F92AF92BF92CF92DF92EF92FF92BE
:105A20000F931F93DF93CF93CDB7DEB729970FB6B0
:105A3000F894DEBF0FBECDBFAA24BB24CC24C394F0
:105A4000EAEB2E2EE2E03E2E4E010894811C911CC2
:105A500076EB472E72E0572E69E0662E712C6C0EA5
:105A60007D1E00D000D00F92EDB7FEB73196ADB7D6
:105A7000BEB71196CC9232822182B482A3820E9458
:105A8000B72250E0E52E50E0F52EEA0CFB1C840115
:105A90000F900F900F900F900F90C7010E94C1635D
:105AA000D82E00D000D00F92EDB7FEB73196ADB72B
:105AB000BEB71196CC9252824182838314820E9497
:105AC000B7228D2D8C510F900F900F900F900F904B
:105AD000833618F4F801D08203C0EEE2D801EC93CB
