:100000000C94D31A0C94F21A0C94F21A0C94F21A5F
:100010000C94F21A0C94F21A0C94F21A0C94A02874
:100020000C94F21A0C94F21A0C948F280C94F21A75
:100030000C94F21A0C94F21A0C94AB1B0C94F21A56
:100040000C941E1B0C94F21A0C94F21A0C94F21AD3
:100050000C94F21A0C94CE260C94F21A0C94F21A08
:100060000C94F21A0C94F21A0C94F21A0C94F21AE0
:100070000C94F21A0C94F21A0C94D11C0C94F21AEF
:100080000C941B1D0C94F21A0C94F21AF434F434F0
:100090004436BE36BE367A363736F4347C35C4360E
:1000A00040367A367A368136173640367A36C43656
:1000B0005F35A9381C384939B33AB33ADE38E738E6
:1000C0006E3898387B3A493A723A763A3A38C138BB
:1000D0006639803A993A7D387DC9A3436C7D3059A1
:1000E000B88E59277CA2D37F7DB3C7586C7E483128
:1000F000A38D332F31C7CDCD0404040404040404BC
:1001000004040404040404040202020202020202BF
:1001100002020000000000000101010101010101D3
:1001200001010101010101010202020202020202B7
:10013000020202020202020204040404040404048F
:10014000040404040404040401010101010000008A
:100150000000010101000000010101010100000097
:10016000000001010100000003030303030000007D
:100170000000030303000000030303030300000067
:100180000000030303000000000000000000000066
:10019000000000000000000028282828282828281F
:1001A00028281414141414143C3C3C3C3C3C3C3CA7
:1001B0003C3C1E1E1E1E1E1E000000000000000013
:1001C0000000000000000000010008000100050020
:1001D0000F0046003601A401C8002C017DB3C758AA
:1001E0006C7E4831A38D332F31C7CDCD7DB3C75839
:1001F0006C7E4831A38D332F31C7CDCD6BA4E96A16
:100200005F6C501D9B81383E28A6CED06BA4E96A56
:100210005F914A28A39A757C72A6CED07EA4DE6434
:100220006B7D501D9B8E4F2C28A6CED07DB3C7581A
:100230006C7E4831A38D332F31C7CDCD0404040427
:100240000404040404040404040404040202020276
:10025000020202020202000000000000010101018E
:10026000010101010101010101010101020202027A
:100270000202020202020202020202020404040456
:10028000040404040404040404040404000000003E
:100290000001010101010000000101010000000056
:1002A000000202020202000000020202000000003E
:1002B0000003030303020000000303030000000027
:1002C0000003030303030000000303030000000016
:1002D000000000000000000000000000282828287E
:1002E0002828282828281414141414143C3C3C3CB6
:1002F0003C3C3C3C3C3C1E1E1E1E1E1E00000000E2
:1003000000000000000000000000000001000800E4
:10031000010005000F0046003601A401C8002C01B1
:100320007DB3C7586C7E4831A38D332F31C7CDCDF7
:100330007DB3C7586C7E4831A38D332F31C7CDCDE7
:100340008BA3E664788E570E969F4F2C28B7BCD0AF
:100350006CA4E0616A97501C99A74F2C2891708378
:100360007EA4DE646B7D501D9B8E4F2C28A6CED0C4
:100370007DB3C7586C7E4831A38D332F31C7CDCDA7
:10038000040404040404040404040404040404042D
:10039000040404040404040404040404040404041D
:1003A0000202020202020202020200000000000039
:1003B0000202020202000000000003030303030321
:1003C0000000000000000000000004040404040316
:1003D00004040404040404040404040404040404DD
:1003E000000000000000000000000000000000000D
:1003F00001010101010000000000010101000000F5
:1004000000000000000000000000000000000000EC
:1004100001010101010000000000010101000000D4
:1004200000000000000000000000000000000000CC
:1004300000000000000000000000000000000000BC
:1004400028282828282828282828141414141414A4
:100450003C3C3C3C3C3C3C3C3C3C1E1E1E1E1E1E90
:10046000000000000000000000000000000000008C
:10047000010005000800030001000F00460096007F
:100480003601FA0078002C017DB3C7586C7E4831E4
:10049000A38D332F31C7CDCD7DB3C7586C7E483186
:1004A000A38D332F31C7CDCD7EA7DE626E7D541D67
:1004B0009B8E4F2C28A6CED06BA4E9665F6C501D96
:1004C0009B81383E28A6CED06BA4E9695F914A286B
:1004D0009D9A383E28A6CED07EA4DE5F6B7D541D4B
:1004E0009B8E4F2C28A6CED07DB3C7586C7E48314A
:1004F000A38D332F31C7CDCD0404040404040404B8
:1005000004040404040404040404040404040404AB
:1005100004040404040404040202020202020202AB
:1005200002020404040404040000000000020202A9
:100530000202040404040404000000000002020299
:10054000020204040404040404040404040404046F
:10055000040404040404040400000000000000007B
:100560000000000000000000000000000001010188
:100570000101000000010101000000000000000076
:100580000000000000000000000000000001010168
:100590000101000000010101000000000000000056
:1005A000000000000000000000000000000000004B
:1005B00000000000000000002828282828282828FB
:1005C00028281414141414143C3C3C3C3C3C3C3C83
:1005D0003C3C1E1E1E1E1E1E0000000000000000EF
:1005E00000000000000000000100050008000300FA
:1005F00001000F00460096003601C80078002C016B
:100600007DB3C7586C7E4831A38D332F31C7CDCD14
:100610007DB3C7586C7E4831A38D332F31C7CDCD04
:100620007EA7DE626E7D541D9B8E4F2C28A6CED0F9
:100630008BA3E664788E570E969F4F2C28B7BCD0BC
:100640006CA4E0616A97501C99A74F2C28B7BCD0C6
:100650007EA6DE62717D541D9B8E4F2C28A6CED0C7
:100660007DB3C7586C7E4831A38D332F31C7CDCDB4
:10067000040404040404040404040404040404043A
:100680000101010101010101010104040404040448
:100690000101010101010101010104040404040438
:1006A000020202020202020202020404040404041E
:1006B0000101010101010101010104040404040418
:1006C00003030303030303030303040404040404F4
:1006D0000101010101000000000001010100000012
:1006E0000101010101000000000001010100000002
:1006F00000000000000000000000000000000000FA
:1007000000000000000000000000000000000000E9
:1007100000000000000000000000000000000000D9
:1007200000000000000000000000000000000000C9
:100730001414141414141414141414141414141479
:100740001E1E1E1E1E1E1E1E1E1E1E1E1E1E1E1EC9
:100750000000000000000000000000000000000099
:100760000A0005000A00010005000A00C800C800D0
:1007700090017800C80090017DB3C7586C7E483165
:10078000A38D332F31C7CDCD7DB3C7586C7E483193
:10079000A38D332F31C7CDCD7DA2C7486C7E3B31B1
:1007A000978D332F31C7CDCD88A9D25D798B243D6C
:1007B000909D332F31C7CDCD7DADD25D7B8B500E5B
:1007C000899D332F31C7CDCD86ADD25D7B8B501F38
:1007D0009D9D332F31C7CDCD7DB3C7586C7E483139
:1007E000A38D332F31C7CDCD0404040404040404C5
:1007F00004040404040404040101010101010101D1
:1008000001010404040404040101010101010101C6
:1008100001010404040404040202020202020202AE
:10082000020204040404040402020202020202029C
:100830000202040404040404030303030303030384
:10084000030303030303030300000000000101018D
:100850000101000000010101000000000001010190
:100860000101000000010100000000000000000084
:100870000000000000000000000000000000000078
:100880000000000000000000000000000000000068
:100890000000000000000000000000000000000058
:1008A00000000000000000001414141414141414A8
:1008B00014141414141414141E1E1E1E1E1E1E1EA8
:1008C0001E1E1E1E1E1E1E1E000000000000000038
:1008D00000000000000000000A0005000A000100FE
:1008E00005000A00C800C80090017800C800900107
:1008F0007DB3C7586C7E4831A38D332F31C7CDCD22
:100900007DB3C7586C7E4831A38D332F31C7CDCD11
:100910007DC1CD6B6C7E5931B48D332F31C7CDCDB8
:1009200077D1C36A6077511F9D84332F31C7CDCDF6
:1009300075A2E362677D4E31A37F332F31C7CDCDE2
:100940006EA8CC555C755131A380332F31C7CDCD06
:100950007DB3C7586C7E4831A38D332F31C7CDCDC1
:100960000404040404040404040404040404040447
:100970000404040404040404040404040404040437
:100980000303030303030303030303030303030337
:10099000000000000000000000000404040404043F
:1009A0000303030303030303030303030303030317
:1009B000020202020202020202020404040404040B
:1009C00002020202020202020202040404040404FB
:1009D00002020202020202020202040404040404EB
:1009E00002020202020202020202040404040404DB
:1009F00003030303030303030303030303030303C7
:100A000000000000000000000000000000000000E6
:100A100003030303030303030303030303030303A6
:100A200000000000000000000000000000000000C6
:100A30000202020202020202020202020202020296
:100A400000000000000000000000000000000000A6
:100A50000101010101010101010101010101010186
:100A60000000000000000000000000000000000086
:100A70000303030303030303030303030303030346
:100A80000000000000000000000000000000000066
:100A90000000000000000000000000000000000056
:100AA000282828282828282828281E1E1E1E1E1E02
:100AB0003C3C3C3C3C3C3C3C3C3C323232323232B2
:100AC0000000000000000000000000000000000026
:100AD0000F001E002D002D002D001E001E001E0008
:100AE0001E001E002C015802840384038403580254
:100AF00058025802580258027DB3C7586C7E4831DC
:100B0000A38D332F31C7CDCD7DB3C7586C7E48310F
:100B1000A38D332F31C7CDCD7CDCF77D6C7E1D04DA
:100B20007F8C332F31C7CDCD7BDCF656707E1D0711
:100B3000A98B013B4AFDBFB58253903F6C7DAA67EC
:100B4000BF8B013BA3FDBF588253903F6C7DAA67CA
:100B5000BF8BEA7D5A0581A6815EB7646E80A26E66
:100B6000BA88A02D515ACDA78157BF3C6E80A23BB9
:100B7000C1888A2E5974CBA78181BE416E80783B93
:100B8000BB8C852D5174CBA781A1C5476E8059358B
:100B9000B58F8F245974CBA77DB3C7586C7E48316D
:100BA000A38D332F31C7CDCD040404040404040401
:100BB000040404040404040401010101010101010D
:100BC00001010404040404040404040404040404EB
:100BD00004040404040404040101010101010101ED
:100BE00001010101010101010101010101010101F5
:100BF00001010101010101010202020202020202DD
:100C000002020202020202020202020202020202C4
:100C100002020202020202020202020202020202B4
:100C20000202020202020202040404040404040494
:100C30000404040404040404000000000000000094
:100C4000000000000000000003030303030303038C
:100C5000030303030303030300000000000000007C
:100C60000000000000000000020202020202020274
:100C70000202020202020202000000000000000064
:100C8000000000000000000001010101010101015C
:100C9000010101010101010100000000000000004C
:100CA000000000000000000003030303030303032C
:100CB000030303030303030300000000000000001C
:100CC00000000000000000002828282828282828E4
:100CD00028281414141414143C3C3C3C3C3C3C3C6C
:100CE0003C3C1E1E1E1E1E1E0000000000000000D8
:100CF00000000000000000000A000A000A000A00CC
:100D0000010023001E0028001E002C01F401F40144
:100D1000BC023403BC025802200358027DB3C758FA
:100D20006C7E4831A38D332F31C7CDCD7DB3C758ED
:100D30006C7E4831A38D332F31C7CDCD7D52D6592E
:100D40006C7E4831A38D8F2F3172CDCD7D52DA6507
:100D5000727DA622978F8D2F3172CDCD7DD2E4503A
:100D6000717C2319AC8EA72F2F52CDCC7DDAF7568C
:100D7000717B1F05A88D095792FEA26C7DDCF47A69
:100D80006D7B1D05808D212A92DED26C7DDCDE7AA2
:100D9000717B1D1C878D62324E92C5A97DA0F272B7
:100DA000717B5708878D522F45ADCDBF7DB3C75896
:100DB0006C7E4831A38D332F31C7CDCD03030303A0
:100DC00003030303030303030303030303030303F3
:100DD00003030303030303030303030303030303E3
:100DE00003030303030303030303030302020202D7
:100DF00002020202020202020202020201010101D7
:100E000001010101010101010101010100000000D6
:100E100000000000000000000000000000000000D2
:100E200000000000000000000000000001010101BE
:100E3000010101010101010101010101020202029E
:100E4000020202020202020202020202030303037E
:100E50000303030303030303030303030303030362
:100E60000303030303030303030303030303030352
:100E70000303030303030303030303030202020246
:100E80000202020202020202020202020101010146
:100E90000101010101010101010101010000000046
:100EA0000000000000000000000000000000000042
:100EB000000000000000000000000000010101012E
:100EC000010101010101010101010101020202020E
:100ED00002020202020202020202020203030303EE
:100EE00003030303030303030303030303030303D2
:100EF00003030303030303030303030302020202C6
:100F000002020202020202020202020201010101C5
:100F100001010101010101010101010100000000C5
:100F200000000000000000000000000000000000C1
:100F300000000000000000000000000001010101AD
:100F4000010101010101010101010101020202028D
:100F5000020202020202020202020202030303036D
:100F60000303030303030303030303030303030351
:100F70000303030303030303030303030303030341
:100F80000303030303030303030303030202020235
:100F90000202020202020202020202020101010135
:100FA0000101010101010101010101010000000035
:100FB0000000000000000000000000000000000031
:100FC000000000000000000000000000010101011D
:100FD00001010101010101010101010102020202FD
:100FE00002020202020202020202020203030303DD
:100FF00003030303030303030303030303030303C1
:1010000003030303030303030303030302020202B4
:1010100002020202020202020202020201010101B4
:1010200001010101010101010101010104040404A4
:101030000404040404040404040404040000000080
:101040000000000000000000000000000303030394
:101050000303030303030303030303030303030360
:101060000303030303030303030303030202020254
:101070000202020202020202020202020101010154
:101080000101010101010101010101010000000054
:101090000000000000000000000000000000000050
:1010A000000000000000000000000000010101013C
:1010B000010101010101010101010101020202021C
:1010C00002020202020202020202020203030303FC
:1010D00003030303030303030303030303030303E0
:1010E00003030303030303030303030303030303D0
:1010F00003030303030303030303030302020202C4
:1011000002020202020202020202020201010101C3
:1011100001010101010101010101010100000000C3
:1011200000000000000000000000000000000000BF
:1011300000000000000000000000000001010101AB
:10114000010101010101010101010101020202028B
:10115000020202020202020202020202030303036B
:10116000030303030303030303030303030303034F
:101170000303030303030303030303030202020243
:101180000202020202020202020202020101010143
:101190000101010101010101010101010000000043
:1011A000000000000000000000000000000000003F
:1011B000000000000000000000000000010101012B
:1011C000010101010101010101010101020202020B
:1011D00002020202020202020202020203030303EB
:1011E00003030303030303030303030303030303CF
:1011F00003030303030303030303030303030303BF
:1012000003030303030303030303030302020202B2
:1012100002020202020202020202020201010101B2
:1012200001010101010101010101010100000000B2
:1012300000000000000000000000000000000000AE
:10124000000000000000000000000000010101019A
:10125000010101010101010101010101020202027A
:10126000020202020202020202020202030303035A
:10127000030303030303030303030303030303033E
:101280000303030303030303030303030202020232
:101290000202020202020202020202020101010132
:1012A0000101010101010101010101010000000032
:1012B000000000000000000000000000292929298A
:1012C0002929292929291414141414143D3D3D3DBC
:1012D0003D3D3D3D3D3D1E1E1E1E1E1E00000000EC
:1012E00000000000000000000000000005000100F8
:1012F00001000100010001000100010001000100E6
:1013000001000100010001000100010001000100D5
:1013100001000100010001000100010001000100C5
:1013200001000100010001000100010001000100B5
:1013300001000100010001000A000F00C8001900AF
:1013400019001900190019001900190019001900D5
:1013500019001900190019001900190019001900C5
:1013600019001900190019001900190019001900B5
:1013700019001900190019001900190019001900A5
:101380001900190019001900C8002C017DB3C758B5
:101390006C7E4831A38D332F31C7CDCD7DB3C75877
:1013A0006C7E4831A38D332F31C7CDCD7DB3C75867
:1013B0006C7E4831A38D332F31C7CDCD82A5C95165
:1013C0007386511F9395482C2891D1C984ABC5537E
:1013D0007589561C94984E2B299AD1CE84AFC35749
:1013E000758B5B1B989A572B2BA4D1D384B2C55B0A
:1013F00075895F1C9D98612B30ACD1D582B3C95FD4
:101400007386601FA195692B35B3D2D67FB2CE62A9
:1014100070825F23A6916F2A39B6D2D67CAFD4648E
:101420006D7F5C28AA8E712A3BB7D2D67CAFD4647C
:101430006D7F5C28AA8E712A3BB7D2D678ACD9666C
:10144000697B582EAA8A6F2A39B6D2D674A7DD676F
:1014500065785333A9876A2B35B3D2D671A2E0667B
:1014600062764D37A785612B30ADD1D56F9DE16296
:1014700060764939A385572B2BA4D1D37199E05DB0
:10148000627646379F854F2B299AD1CE7498DD59C5
:10149000657845339B87482C2892D1C97899D954CF
:1014A000697B462E988A452C288CD0C57B9CD450CD
:1014B0006C7E4928968D442C288AD0C37B9CD450BE
:1014C0006C7E4928968D442C288AD0C382A5C951A8
:1014D0007386511F9395482C2891D1C984ABC5536D
:1014E0007589561C94984E2B299AD1CE84AFC35738
:1014F000758B5B1B989A572B2BA4D1D384B2C55BF9
:1015000075895F1C9D98612B30ACD1D582B3C95FC2
:101510007386601FA195692B35B3D2D67FB2CE6298
:1015200070825F23A6916F2A39B6D2D67CAFD4647D
:101530006D7F5C28AA8E712A3BB7D2D67CAFD4646B
:101540006D7F5C28AA8E712A3BB7D2D678ACD9665B
:10155000697B582EAA8A6F2A39B6D2D674A7DD675E
:1015600065785333A9876A2B35B3D2D671A2E0666A
:1015700062764D37A785612B30ADD1D56F9DE16285
:1015800060764939A385572B2BA4D1D37199E05D9F
:10159000627646379F854F2B299AD1CE7498DD59B4
:1015A000657845339B87482C2892D1C97899D954BE
:1015B000697B462E988A452C288CD0C57B9CD450BC
:1015C0006C7E4928968D442C288AD0C37B9CD450AD
:1015D0006C7E4928968D442C288AD0C382A5C95197
:1015E0007386511F9395482C2891D1C984ABC5535C
:1015F0007589561C94984E2B299AD1CE7DA6E56A02
:101600006C7E5617968D332F31C7CDCD7DB3C7581D
:101610006C7E4831A38D332F31C7CDCD0404040433
:10162000040404040404040404040404030303037E
:10163000030303030303030303030303020202027E
:101640000202020202020202020202020303030376
:10165000030303030303030303030303020202025E
:10166000020202020202020202020202010101015E
:10167000010101010101010101010101000000005E
:10168000000000000000000000000000000000005A
:101690000000000000000000000000000101010146
:1016A0000101010101010101010101010202020226
:1016B0000202020202020202020202020303030306
:1016C00003030303030303030303030303030303EA
:1016D00003030303030303030303030303030303DA
:1016E00003030303030303030303030302020202CE
:1016F00002020202020202020202020201010101CE
:1017000001010101010101010101010100000000CD
:1017100000000000000000000000000000000000C9
:1017200000000000000000000000000001010101B5
:101730000101010101010101010101010202020295
:101740000202020202020202020202020303030375
:101750000303030303030303030303030303030359
:10176000030303030303030303030303020202024D
:10177000020202020202020202020202010101014D
:10178000010101010101010101010101000000004D
:101790000000000000000000000000000000000049
:1017A0000000000000000000000000000101010135
:1017B0000101010101010101010101010202020215
:1017C00002020202020202020202020203030303F5
:1017D00003030303030303030303030303030303D9
:1017E00003030303030303030303030303030303C9
:1017F00003030303030303030303030302020202BD
:1018000002020202020202020202020201010101BC
:1018100001010101010101010101010100000000BC
:1018200000000000000000000000000000000000B8
:1018300000000000000000000000000001010101A4
:101840000101010101010101010101010202020284
:101850000202020202020202020202020303030364
:101860000303030303030303030303030303030348
:10187000030303030303030303030303020202023C
:10188000020202020202020202020202010101013C
:101890000101010101010101010101010202020234
:1018A0000202020202020202020202020404040410
:1018B00004040404040404040404040400000000F8
:1018C0000000000000000000000000000000000018
:1018D0000000000000000000000000000000000008
:1018E00000000000000000000000000003030303EC
:1018F00003030303030303030303030302020202BC
:1019000002020202020202020202020201010101BB
:1019100001010101010101010101010100000000BB
:1019200000000000000000000000000000000000B7
:1019300000000000000000000000000001010101A3
:101940000101010101010101010101010202020283
:101950000202020202020202020202020303030363
:101960000303030303030303030303030303030347
:101970000303030303030303030303030303030337
:10198000030303030303030303030303020202022B
:10199000020202020202020202020202010101012B
:1019A000010101010101010101010101000000002B
:1019B0000000000000000000000000000000000027
:1019C0000000000000000000000000000101010113
:1019D00001010101010101010101010102020202F3
:1019E00002020202020202020202020203030303D3
:1019F00003030303030303030303030303030303B7
:101A000003030303030303030303030302020202AA
:101A100002020202020202020202020201010101AA
:101A200001010101010101010101010100000000AA
:101A300000000000000000000000000000000000A6
:101A40000000000000000000000000000101010192
:101A50000101010101010101010101010202020272
:101A60000202020202020202020202020303030352
:101A70000303030303030303030303030303030336
:101A80000303030303030303030303030303030326
:101A9000030303030303030303030303020202021A
:101AA000020202020202020202020202010101011A
:101AB000010101010101010101010101000000001A
:101AC0000000000000000000000000000000000016
:101AD0000000000000000000000000000101010102
:101AE00001010101010101010101010102020202E2
:101AF00002020202020202020202020203030303C2
:101B000003030303030303030303030303030303A5
:101B10000303030303030303030303030202020299
:101B20000202020202020202020202020101010199
:101B30000101010101010101010101010000000099
:101B40000000000000000000000000000000000095
:101B500000000000000000000000000029292929E1
:101B60002929292929291414141414143D3D3D3D13
:101B70003D3D3D3D3D3D1E1E1E1E1E1E0000000043
:101B8000000000000000000000000000050014003C
:101B9000010001000100010001000100010001003D
:101BA000010001000100010001000100010001002D
:101BB000010001000100010001000100010001001D
:101BC000010001000100010001000100010001000D
:101BD0000100010001000100010001000A001400E1
:101BE0002C019001190019001900190019001900A1
:101BF000190019001900190019001900190019001D
:101C0000190019001900190019001900190019000C
:101C100019001900190019001900190019001900FC
:101C200019001900190019001900190019001900EC
:101C3000900190017DB3C7586C7E4831A38D332F3E
:101C400031C7CDCD7DB3C7586C7E4831A38D332FBE
:101C500031C7CDCD7DA0DC6B6C7E581F928D332FAC
:101C600031C7CDCD7899DA58697B482E978A392BC0
:101C700033AED2D67497DF5B657846349B873A2BB8
:101C800030B1D2D67098E25E61774639A0863B2BA0
:101C90002DB6D2D66F9BE3636076483CA5853F2B7B
:101CA00029BCD1D570A0E26661764C3AA785442C58
:101CB00028BFD1D173A5DF6864785234A887492C36
:101CC00028C1D1CE78A9DA68697B582EA78A4D2C15
:101CD00028C2D1CB7BADD4676C7E5C28A58D4E2B02
:101CE00028C2D1CA7BADD4676C7E5C28A58D4E2BF3
:101CF00028C2D1CA7FB0CE6370825F22A2914D2CE0
:101D000028C2D1CB82B2C85F7386611D9F954A2CD1
:101D100028C1D1CE83B2C35A748A601A9C99452CCB
:101D200028C0D1D184B0C055758B5D19979A3F2BCF
:101D300029BCD1D584ACC253758A581A94993C2BCE
:101D40002DB7D2D682A6C8527387531D92963A2BCE
:101D500030B2D2D67FA0CE5370824F229291392BCF
:101D600033AED2D67C9CD4556D7F4B28938E392BC5
:101D700034ADD1D67C9CD4556D7F4B28938E392BB6
:101D800034ADD1D67497DF5B657846349B873A2BA8
:101D900030B1D2D67098E25E61774639A0863B2B8F
:101DA0002DB6D2D66F9BE3636076483CA5853F2B6A
:101DB00029BCD1D570A0E26661764C3AA785442C47
:101DC00028BFD1D173A5DF6864785234A887492C25
:101DD00028C1D1CE78A9DA68697B582EA78A4D2C04
:101DE00028C2D1CB7BADD4676C7E5C28A58D4E2BF1
:101DF00028C2D1CA7BADD4676C7E5C28A58D4E2BE2
:101E000028C2D1CA7FB0CE6370825F22A2914D2CCE
:101E100028C2D1CB82B2C85F7386611D9F954A2CC0
:101E200028C1D1CE83B2C35A748A601A9C99452CBA
:101E300028C0D1D184B0C055758B5D19979A3F2BBE
:101E400029BCD1D584ACC253758A581A94993C2BBD
:101E50002DB7D2D682A6C8527387531D92963A2BBD
:101E600030B2D2D67FA0CE5370824F229291392BBE
:101E700033AED2D67C9CD4556D7F4B28938E392BB4
:101E800034ADD1D67C9CD4556D7F4B28938E392BA5
:101E900034ADD1D67497DF5B657846349B873A2B97
:101EA00030B1D2D67098E25E61774639A0863B2B7E
:101EB0002DB6D2D66F9BE3636076483CA5853F2B59
:101EC00029BCD1D56F9BE362607659199B853F2B66
:101ED00029BCD1D57DB3C7586C7E4831A38D332F33
:101EE00031C7CDCD14141414141414141414141470
:101EF000141414141E1E1E1E1E1E1E1E1E1E1E1E2A
:101F00001E1E1E1E00000000000000000000000059
:101F100000000000010001000100010001000100BB
:101F20001400140040011400400114007DB3C75890
:101F30006C7E4831A38D332F31C7CDCD7DB3C758CB
:101F40006C7E4831A38D332F31C7CDCD73B3C758C5
:101F50005F744831A380332F31C7CDCD63DBCE8290
:101F600054724339A17B22556E76C3C96581CB2B50
:101F700055782451B47E82314CCFC7E46581CB2A99
:101F800055782451B47B82314CCFC7E47DB3C75818
:101F90006C7E4831A38D332F31C7CDCD02020202B2
:101FA0000202020202020202020202020202020211
:101FB000020002020200020202020202000000000D
:101FC0000000000000000000000000000000000011
:101FD0000000000000000000000000000000000001
:101FE00000000000000000000000000002020202E9
:101FF00002020202020202020202020200000000C9
:1020000000000000000000000000000000000000D0
:1020100000000000000000000000000000000000C0
:1020200000000000000000000000000000000000B0
:1020300000000000000000000000000000000000A0
:102040000000000000000000000000000000000090
:102050000000000000000000000000001414141430
:102060001414141414141414141414141E1E1E1E08
:102070001E1E1E1E1E1E1E1E1E1E1E1E00000000F8
:10208000000000000000000000000000010001004E
:102090000100010001000A001400140040011400B6
:1020A000A401DC007DB3C7586C7E4831A38D332F6B
:1020B00031C7CDCD7DB3C7586C7E4831A38D332F4A
:1020C00031C7CDCD87B3C75879884831A39A332F0C
:1020D00031C7CDCD89B8BF5A7E98202A78A58439DA
:1020E00035D8A79083C4B64F7A967A2DD0A42B35D5
:1020F0005078CBB283C4B64F80967A2DD0A42B35BE
:102100005078CBB27DB3C7586C7E4831A38D332F46
:1021100031C7CDCD02020202020202020202020215
:10212000020202020202020202020202020202028F
:102130000202020200020202000202020202020283
:102140000202020200000000000000000000000087
:10215000000000000000000000000000000000007F
:102160000000000002020202020202020202020257
:102170000202020200000000000000000000000057
:10218000000000000000000000000000000000004F
:10219000000000000000000000000000000000003F
:1021A000000000000000000000000000000000002F
:1021B000000000000000000000000000000000001F
:1021C000000000000000000000000000000000000F
:1021D0000000000028282828282828282828141447
:1021E000141414143C3C3C3C3C3C3C3C3C3C1E1E0B
:1021F0001E1E1E1E00000000000000000000000067
:102200000000000005000100010003006400DC0084
:1022100064003C007DA8C7556C7E532FA78F332FD9
:1022200031C7CDCD6B92E9635F6C641B9F83383EF1
:1022300028A6CED06B96E9665F8F5726A18C383ED4
:1022400028A6CED07E96DE5C6B7D621B9F904F2CC5
:1022500028A6CED07DA5C7556C7E552FA78F332FCE
:1022600031C7CDCD020202020202020202020202C4
:102270000202020202020202020000000000030346
:10228000030303030000000000000000000004043A
:1022900004040403040404040404040404040404FF
:1022A000040404040000000000000000000000001E
:1022B0000000000001010101010000000000010117
:1022C000010000000000000000000000000000000D
:1022D00000000000000000000000000000000000FE
:1022E0000000000028282828282828282828141436
:1022F000141414143C3C3C3C3C3C3C3C3C3C1E1EFA
:102300001E1E1E1E00000000000000000000000055
:102310000000000005000100010003006400DC0073
:1023200064003C007DA5C7556C7E572FA78F332FC7
:1023300031C7CDCD8B96E661788E65109A9C4F2C77
:1023400028B7BCD0649AE0616B8E64139AA14F2CBD
:1023500028B7BCD0799ADE5F5D7D5E209C904F2CC3
:1023600028A6CED07DA7C7556C7E542FA78F332FBC
:1023700031C7CDCD020202020202020202020202B3
:102380000202020200000000000202020202040433
:10239000040404040000000000020202020204041B
:1023A00004040404040404040404040404040404ED
:1023B000040404040000000000000000000000000D
:1023C0000000000000000000000101010101000008
:1023D00000010101000000000000000000000000FA
:1023E00000000000000000000000000000000000ED
:1023F00000000000141414141414141414141414ED
:10240000141414141E1E1E1E1E1E1E1E1E1E1E1E14
:102410001E1E1E1E00000000000000000000000044
:10242000000000000100010001000A000A00140081
:10243000080240012C0108027DB3C7586C7E483168
:10244000A38D332F31C7CDCD7DB3C7586C7E4831B6
:10245000A38D332F31C7CDCD7D5ECD596C7A9933A5
:10246000A88C0A6769F1928F77DFF9726B7C1D0285
:102470008E8F0B3169E9CA8B7DB9F9826C7C43017F
:102480007C912D4145C9BDAF7DB3C7586C7E4831A5
:10249000A38D332F31C7CDCD020202020202020208
:1024A000020202020202020202020202020202020C
:1024B000020202020202020200000000000000000C
:1024C000000000000000000000000000000000000C
:1024D00000000000000000000202020202020202EC
:1024E00002020202020202020000000000000000DC
:1024F00000000000000000000000000000000000DC
:1025000000000000000000000000000000000000CB
:1025100000000000000000000000000000000000BB
:1025200000000000000000000000000000000000AB
:1025300000000000000000001414141414141414FB
:1025400014141414141414141E1E1E1E1E1E1E1EFB
:102550001E1E1E1E1E1E1E1E00000000000000008B
:102560000000000000000000010001000100010067
:102570001E001400DC00A4015E0158027DB3C758A0
:102580006C7E4831A38D332F31C7CDCD7DB3C75875
:102590006C7E4831A38D332F31C7CDCD7AB3C85768
:1025A0006C7A4630A38D14832AEE6FC97A85C86E83
:1025B0006780762F8D8D16C86CE82F857459ED5184
:1025C0006884A010AD9201D277FE27797DB3C758F9
:1025D0006C7E4831A38D332F31C7CDCD020202026C
:1025E00002020202020202020202020200000000D3
:1025F00000000000000000000000000000000000DB
:1026000000000000000000000000000000000000CA
:1026100000000000000000000000000002020202B2
:102620000202020202020202020202020000000092
:10263000000000000000000000000000000000009A
:10264000000000000000000000000000000000008A
:10265000000000000000000000000000000000007A
:10266000000000000000000000000000000000006A
:10267000000000000000000000000000141414140A
:102680001414141414141414141414141E1E1E1EE2
:102690001E1E1E1E1E1E1E1E1E1E1E1E00000000D2
:1026A0000000000000000000000000000A002800F8
:1026B0000A002800F401E803D007E8037DB3C758F7
:1026C0006C7E4831A38D332F31C7CDCD7DB3C75834
:1026D0006C7E4831A38D332F31C7CDCD7D93F76A02
:1026E0006C7E6604918D332F31C7CDCD7D93F76A13
:1026F0006C7E6604918D332F31C7CDCD7DB3C75825
:102700006C7E4831A38D332F31C7CDCD020202023A
:102710000202020202020202020202020202020299
:102720000202020202020202020202020000000091
:102730000000000000000000000000000404040489
:102740000404040404040404040404040000000059
:102750000000000000000000000000000101010175
:102760000101010101010101010101010303030351
:102770000303030303030303030303030000000035
:1027800000000000000000000000000014141414F9
:102790001414141414141414141414141E1E1E1ED1
:1027A0001E1E1E1E1E1E1E1E1E1E1E1E00000000C1
:1027B0000000000000000000000000000A002800E7
:1027C0000A000A002800F401E803F401F401E80318
:1027D0007DB3C7586C7E4831A38D332F31C7CDCD23
:1027E0007DB3C7586C7E4831A38D332F31C7CDCD13
:1027F0007DB3C7586C7E4831A38DBB3A2EC7CDCD73
:102800007DB3C7586C7E4831A38DBA672EC7CDCD36
:102810007DB3C7586C7E4831A38DBB3A2EC7CDCD52
:102820007DB3C7586C7E4831A38D332F31C7CDCDD2
:102830000202020202020202020202020202020278
:102840000202020202020202020202020202020268
:102850000202020202020202020202020202020258
:102860000202020202020202020202020202020248
:102870000404040404040404040404040404040418
:102880000000000000000000000000000000000048
:102890000000000000000000000000000000000038
:1028A0000000000000000000000000000000000028
:1028B0000000000000000000000000000000000018
:1028C0000000000000000000000000000000000008
:1028D00014141414141414141414141414141414B8
:1028E0001E1E1E1E1E1E1E1E1E1E1E1E1E1E1E1E08
:1028F00000000000000000000000000000000000D8
:1029000028000A0014001400010001000A000A0057
:102910001900140014001E008403C80090019001E7
:102920007800080290019001F40190019001580292
:102930007DB3C7586C7E4831A38D332F31C7CDCDC1
:102940007DB3C7586C7E4831A38D332F31C7CDCDB1
:102950007DB0F7796C7E4702828D332F31C7CDCDA4
:1029600081B4EC6A4B8B4702827403324DEF9DA019
:1029700033B4EC6A5F8B4702827401324AE89EA04E
:102980003398ED2D5F8B47028274023231E898A0B4
:102990003385952D5F8B47028274023233E88FA016
:1029A000338EEA305F8B47028274023231E89AA09C
:1029B0007BC2D256528B47028274023231E895A014
:1029C00084CADC695B903F047D8A443431E8AAA064
:1029D0007BAEF8766A814C04878F343231DBC2D506
:1029E0007B9BF8766A815F04878F343231DBC2D5F6
:1029F0007DB3C7586C7E4831A38D332F31C7CDCD01
:102A00000404040404040404040404040404040486
:102A10000404040404040404040404040404040476
:102A20000404040404040404040404040404040466
:102A30000404040404040404040404040404040456
:102A4000000000000004040404040404040404045A
:102A5000000000000004040404040404040404044A
:102A6000000000000004040404040404040404043A
:102A70000404040304040404040404040404040417
:102A80000404040304040404040404040404040407
:102A900004040403040404040404040404040404F7
:102AA00004040403040404040404040404040404E7
:102AB00004040404040404040404040404040404D6
:102AC0000000000000000000000000000000000006
:102AD00002020202020000000000000000000000EC
:102AE00000000000000000000000000000000000E6
:102AF00002020202020000000000000000000000CC
:102B000003030303030000000000000000000000B6
:102B100003030303030000000000000000000000A6
:102B2000020202020200000000000000000000009B
:102B3000020202020200000000000000000000008B
:102B40000000000000000000000000000000000085
:102B50000000000000000000000000000000000075
:102B60000000000000000000000000000000000065
:102B70000000000000000000000000000000000055
:102B8000282828282828282828281414141414143D
:102B90003C3C3C3C3C3C3C3C3C3C1E1E1E1E1E1E29
:102BA0000000000000000000000000000000000025
:102BB0001400140014001400140014001400010088
:102BC00001000A0028000F000F000500320032004B
:102BD000320001002D002D000A000A000A000A0040
:102BE0002D000A000A000A000A002D0050001E00F5
:102BF0000F000F000F000F000F000F000F000F005D
:102C00008403840384038403840384038403080209
:102C10000802F4014006580258023408FC03FC0381
:102C2000FC03E40784038403F401F401F401F401D8
:102C30008403F401F401F401F40184034006400626
:102C400058025802580258025802580258025802B4
:102C50007DB3C7586C7E4831A38D332F31C7CDCD9E
:102C60007DB3C7586C7E4831A38D332F31C7CDCD8E
:102C70007CB5F77C6C7E47047F8D332F31C7CDCD7B
:102C80007C77F77C6C7E83047F8D87304C6CCDA77E
:102C90007C4EF77C6C7EB9047F8D8730046CCDEF61
:102CA00079DDFA686C7E9F429B8DBE300436CDEF95
:102CB00079DDFA686C7E9F5AC68DCE390835B6F438
:102CC00079DDFA686C7E9F42B98DBE30040F5E8D4F
:102CD00079DDFA686C7E9F42B98DBE3004AE7D8D81
:102CE00079DDFA686C7E9F42B98DBE3004B472E320
:102CF00079DDFA686C7E9F6CCA8DCD3004AB32CA28
:102D0000369FFA686C7E1C0E9C8DCD3004AB32CAA7
:102D10007E9FFA686C811C0E9C8DCD2B049728E653
:102D20007EC6C66D6C81373E9C8DCD2B049728E600
:102D300058D9817E6CA71C717F8DCD2B049728E616
:102D400035D9897E6CC41C717F8DCD2B049728E604
:102D500016D98A7E6CEA1C717F8DCD2B049728E6EC
:102D600058D9867E6CA71C717F8DCD2B049728E6E1
:102D700058D9867E6CA71C717F8DCD2B049728E6D1
:102D80007CC2F76D6B8138049390CD2B049728E6B5
:102D90007CCBD96D6B812F239390CD2B049728E6A4
:102DA0007CB0B2616B811D149390CF2B048F28E609
:102DB0007CBDCB616B8116319390CD2B049728E6B7
:102DC0007CD8C9626B813C2A9F90CD2B049728E662
:102DD0007CE4D2686B81533AB390CD2B049728E6FC
:102DE0007CCBD96D6B812F239390CD2B049728E654
:102DF0007CB0B2616B811D149390CF2B048F28E6B9
:102E00007CBDCB616B8116319390CD2B049728E666
:102E10007CD8C9626B813C2A9F90CD2B049728E611
:102E20007CE4D2686B81533AB390CD2B049728E6AB
:102E30007CCBD96D6B812F239390CD2B049728E603
:102E400081BFF76D6B829A798390CD2B049728E62A
:102E5000815E813A6E80A271C488CD4E049779E676
:102E6000815E8A3B6E809978C488CD4E04C2848D81
:102E7000815C81396E80A279C488CD4E0440848DF6
:102E8000815A84386E80A279C488D0242E34D0DE52
:102E9000815EB7646E80A26EBA88A72D575ACAA702
:102EA0008157C5476E80A239BA8F822D5374CBA744
:102EB000817DC5476E80783BB88F8F245974CBA72E
:102EC0007BA6DF5E6A7D5123A28D8F245974CBA728
:102ED0007DB3C7586C7E4831A38D332F31C7CDCD1C
:102EE00004040404040404040404040404040404A2
:102EF0000404040404040404040404040404040492
:102F00000404040404040404040404040404040481
:102F10000404040404040404040404040404040471
:102F20000404040404040404000004040404040469
:102F30000404040404040404000004040404040459
:102F40000404040404040404000004040404040449
:102F5000040404040404040400000101010101014B
:102F6000040404040404040400000101010101013B
:102F7000040404040404040400000101010101012B
:102F80000101010101010101000001010101010133
:102F90000101010101010101000001010101010123
:102FA00004040404040404040000040404040404E9
:102FB00004040404040404040000010101010101EB
:102FC0000000000000000000000000000000000001
:102FD00000000000000000000000000000000000F1
:102FE00000000000000000000000000000000000E1
:102FF00000000000000000000000000000000000D1
:103000000202020202020202020204040404040494
:103010000202020202020202020204040404040484
:103020000202020202020202020204040404040474
:103030000202020202020202020204040404040464
:103040000202020202020202020204040404040454
:103050000202020202020202020204040404040444
:103060000202020202020202020204040404040434
:103070000202020202020202020204040404040424
:103080000202020202020202020204040404040414
:103090000202020202020202020204040404040404
:1030A00002020202020202020202040404040404F4
:1030B00002020202020202020202040404040404E4
:1030C00002020202020202020202040404040404D4
:1030D00002020202020202020202040404040404C4
:1030E00002020202020202020202040404040404B4
:1030F00002020202020202020202040404040404A4
:103100000202020202020202020204040404040493
:103110000202020202020202020204040404040483
:103120000202020202020202020204040404040473
:103130000202020202020202020204040404040463
:103140000202020202020202020204040404040453
:103150000202020202020202020204040404040443
:10316000000000000000000000000000000000005F
:10317000000000000000000000000000000000004F
:10318000000000000000000000000000000000003F
:10319000000000000000000000000000000000002F
:1031A000000000000000000000000000000000001F
:1031B000000000000000000000000000000000000F
:1031C00000000000000000000000000000000000FF
:1031D00000000000000000000000000000000000EF
:1031E00000000000000000000000000000000000DF
:1031F00000000000000000000000000000000000CF
:1032000000000000000000000000000000000000BE
:1032100000000000000000000000000000000000AE
:10322000000000000000000000000000000000009E
:10323000010101010101010101010101010101017E
:10324000030303030303030303030303030303034E
:10325000010101010101010101010101010101015E
:10326000000000000000000000000000000000005E
:10327000030303030303030303030303030303031E
:10328000000000000000000000000000000000003E
:10329000000002000000000200000000000000002A
:1032A000000000000000000000000000000000001E
:1032B0000003000003000300000300000000000002
:1032C00002000000000200000000000000000000FA
:1032D00000000000000000000000000000000000EE
:1032E00000000000000000000000000000000000DE
:1032F00000000000000000000000000000000000CE
:1033000000000000000000000000000000000000BD
:1033100000000000000000000000000000000000AD
:10332000000000000000000000000000000000009D
:10333000000000000000000000000000000000008D
:10334000000000000000000000000000000000007D
:10335000000000000000000000000000000000006D
:10336000000000000000000000000000000000005D
:10337000000000000000000000000000000000004D
:10338000000000000000000000000000000000003D
:10339000000000000000000000000000000000002D
:1033A000000000000000000000000000000000001D
:1033B000000000000000000000000000000000000D
:1033C00000000000000000000000000000000000FD
:1033D00000000000000000000000000000000000ED
:1033E000000102030405060708090A0B0C0D0E0F65
:1033F0000D0A002025642025782C0030313233342A
:1034000035363738394142434445460025640D0A74
:1034100000204D49433D0025646D560020564F4C19
:10342000543D002578005053443D00207A3D2564EA
:103430000D0A002C20793D25642C0056616C7565C1
:103440007320783D20256400536572766F733A20AF
:1034500025640D0A000D0A00256400256300232061
:10346000002564203D2000504F52543A25633A25F0
:1034700063002563203D200020002564200025787E
:103480002000257820002578200025782000436C36
:103490006561726564202564206279746573200D0E
:1034A0000A002564005573657220427265616B20C5
:1034B0006F6E206C696E652025640D0A003A202528
:1034C00064202D200052756E74696D6520657272DE
:1034D0006F722025640D0A003F2073706563696177
:1034E0006C2025642069732072656164206F6E6CA6
:1034F000790D0A00476F746F206C696E65206D69E5
:103500007373696E67203F3F0D0A006576616C201A
:103510006572726F722025642C2025640D0A00707C
:10352000616E6963206572726F720D0A000D0A2563
:1035300064206C696E657320656E74657265642CB9
:10354000205B25642F25645D2042797465730D0A24
:103550000050616E69632025640D0A00506F733D51
:103560002564205B25635D0D0A0050726F677261F0
:103570006D20656E747279206D6F646520282E2031
:10358000746F2065786974290D0A000D0A00446F74
:10359000204D6F74696F6E2025780D0A00425553D7
:1035A0003D25640D0A0011241FBECFEFD0E1DEBF20
:1035B000CDBF15E0A0E0B1E0E0E2F3E900E00BBF31
:1035C00002C007900D92A23BB107D9F71EE0A2EB13
:1035D000B5E001C01D92AD31B107E1F70E94721C48
:1035E0000C948E490C9400008091E60A9091E70AB1
:1035F000883C910510F4DA9813C08091E60A909106
:10360000E70A893C910558F08091E60A9091E70A13
:103610008059914020F4DA9ADB9ADC980895DA9A7E
:10362000DB9ADC9A08959093E30A8093E20A8091F2
:10363000E20A9091E30A892BD1F708951F920F9225
:103640000FB60F920BB60F9211242F933F934F9307
:103650005F936F937F938F939F93AF93BF93EF93FA
:10366000FF9389E182BF8091E20A9091E30A892B5E
:1036700049F08091E20A9091E30A01979093E30A5E
:103680008093E20A0E94F41A8091E60A9091E70A78
:1036900001969093E70A8093E60A8091E60A90915A
:1036A000E70A885E934008F443C01092E70A10923C
:1036B000E60A8091E40A9091E50A892B49F080910D
:1036C000E40A9091E50A01979093E50A8093E40A51
:1036D0008091E10A8F5F8093E10A8091E10A8C3347
:1036E00038F11092E10A8091EC0A9091ED0A892B51
:1036F00049F08091EC0A9091ED0A01979093ED0AC0
:103700008093EC0A8091D90A8F5F8093D90A8091C7
:10371000D90A8C3368F01092D90A8091DC0A8F5F45
:103720008093DC0A8091DC0A883110F01092DC0A68
:10373000FF91EF91BF91AF919F918F917F916F9189
:103740005F914F913F912F910F900BBE0F900FBE45
:103750000F901F9018951F920F920FB60F92112481
:103760002F933F938F939F9320913406309135068A
:103770008091100B9091110B2817390761F410926A
:10378000350610923406DD9A1092F00A87B78B7FC7
:1037900087BF1EBC0FC080913606909137069DBD35
:1037A0008CBD86B7846086BF87B7846087BF8FEF84
:1037B0008093F10A9F918F913F912F910F900FBEAF
:1037C0000F901F90189593E09BBB8CEF8ABB18BAA3
:1037D00084E787BB15BA40E844BB92BB11BA80E7C7
:1037E00083B988E082B91092620010926100109251
:1037F000650084E08093640010BE83BF12BE11BEDA
:103800001FBC85E08EBD1DBC1CBC17BC16BC1BBC00
:103810001ABC19BC18BC109279001092780085BDB2
:1038200014BC13BC10928B0090938A0010928900F4
:1038300010928800109281001092800010928700F0
:1038400010928600109285001092840010928300DE
:103850001092820010926A0030E23ABF80E489BF81
:1038600017BE10927D001BB828E12AB996E090930C
:1038700095001092900087E089B910929B002093E8
:103880009A0090939D00109298008093990048B9F7
:1038900010BC37B916B8109274000895DA9ADB9A02
:1038A000DC9AE5E6F0E0808184608083AF9ADD9A5F
:1038B000DE9ADF9A1092F00A1092F10A10921C0D13
:1038C0001092140BC5981092CD0D1092CF0D10923E
:1038D000E70A1092E60A1092E10A1092D90A1092B1
:1038E000DC0A08950E94E31B0E944E1C0E94A91D41
:1038F00060E072EC81E090E00E94951C88EB9CE116
:103900000E94C824789487B7816087BF8091650042
:103910008B7F809365000E94A9290E94E23AFFCF25
:10392000909333068093320608959B01AC016B544B
:10393000704E834E9F4FF3E0660F771F881F991FCD
:10394000FA95D1F7E4E0220F331F441F551FEA9583
:10395000D1F70E94FB4821503040209399003093CA
:103960009800089583EF9AE008958CEF9AE0089507
:10397000982F8091F20A8823E1F390939C00109293
:10398000F20A08951092F80A1092F70A08958091A9
:10399000F70A9091F80A892B11F080E008958FEFD3
:1039A00008951F920F920FB60F920BB60F9211242B
:1039B0002F933F934F935F936F937F938F939F9337
:1039C000AF93BF93EF93FF9360919C008091320679
:1039D00090913306892B39F0E0913206F09133064D
:1039E000862F09950FC083EF9AE00E94391E882325
:1039F00049F48091040B9091050B01969093050B6F
:103A00008093040BFF91EF91BF91AF919F918F91A4
:103A10007F916F915F914F913F912F910F900BBECE
:103A20000F900FBE0F901F901895682F8CEF9AE0A3
:103A30000E94391E08951F920F920FB60F920BB677
:103A40000F9211242F933F934F935F936F937F9324
:103A50008F939F93AF93BF93EF93FF938091FB0A54
:103A6000882379F08091000B9091010B892B39F01C
:103A70008CEF9AE00E94D01D80939C0005C01092AC
:103A8000FB0A8FEF8093F20AFF91EF91BF91AF9104
:103A90009F918F917F916F915F914F913F912F9166
:103AA0000F900BBE0F900FBE0F901F9018958FEFC9
:103AB0008093FB0A8CEF9AE00E94D01D982F809192
:103AC000F20A8823E1F390939C001092F20A089581
:103AD000CF93DF93EC018091F50A9091F60A892B40
:103AE00069F08091F70A9091F80A892B39F083EFF9
:103AF0009AE00E94D01D88838FEF01C080E0DF91A3
:103B0000CF910895DF93CF930F92CDB7DEB7CE015B
:103B100001960E94681D882319F42FEF3FEF03C020
:103B20008981282F30E0C9010F90CF91DF9108954E
:103B300040E450E062EB75E083EF9AE00E94C31D21
:103B400040E450E062EF75E08CEF9AE00E94C31D04
:103B500008950E94981D109233061092320688ED47
:103B600080939A0060E875E280E090E00E94951CE6
:103B70008FEF8093F20A1092FB0A1092050B1092BD
:103B8000040B78940895FC018FB7F89471836083D7
:103B90005383428317821682158214828FBF089541
:103BA000DC014FB7F89414968D919C911597892B51
:103BB00011F4E0E025C016968D919C911797ED9138
:103BC000FC911197E80FF91FE081019617969C93DD
:103BD0008E93169712962D913C9113978217930707
:103BE00030F0821B930B17969C938E931697149626
:103BF0008D919C911597019715969C938E93149790
:103C00004FBF8E2F0895FC014FB7F89484819581A2
:103C100068177907B0F486819781860F971F97837D
:103C20008683228133818217930720F0821B930BB6
:103C30009783868384819581861B970B95838483E4
:103C400002C0158214824FBF0895FC01CB012FB72B
:103C5000F8942FBF2681378162817381820F931F71
:103C60000E94D4480190F081E02DE80FF91F808177
:103C700008951F93CF93DF93EC01162F4FB7F8945D
:103C80002C813D816A817B812617370798F48E81CC
:103C90009F81820F931F0E94D448E881F981E80F29
:103CA000F91F10838C819D8101969D838C834FBF6A
:103CB0008FEF02C04FBF80E0DF91CF911F91089539
:103CC000FC018FB7F8948FBF228133818481958165
:103CD000281B390BC9010895FC018FB7F894158290
:103CE00014828FBF0895809192029091930288531D
:103CF000964019F028E336E002C022E738E030931E
:103D0000930220939202C90108955D9BFECF8CB966
:103D100008952091E60A3091E70A17C08091E60ADB
:103D20009091E70A8217930738F48091E60A909100
:103D3000E70A88519C4F04C08091E60A9091E70AF7
:103D4000821B930B8536910510F45F9BE7CF8CB1F6
:103D500008955D9BFECF8FEF8CB95D9BFECF8FEDFD
:103D60008CB95D9BFECF80E28CB95D9BFECF8FE767
:103D70008CB92091E60A3091E70A17C08091E60AD3
:103D80009091E70A8217930738F48091E60A9091A0
:103D9000E70A88519C4F04C08091E60A9091E70A97
:103DA000821B930B8536910510F45F9BE7CF8CB196
:103DB0002091E60A3091E70A17C08091E60A9091B7
:103DC000E70A8217930738F48091E60A9091E70A90
:103DD00088519C4F04C08091E60A9091E70A821BAB
:103DE000930B8536910510F45F9BE7CF8CB1089556
:103DF000EF92FF920F931F93CF93DF932091230DA8
:103E00003091240DC091210DD091220DC901BE0128
:103E10000E94D44864317105C8F1B90180E090E096
:103E20000E942C4526E636E646E651E40E944642CC
:103E30007B018C01BE0180E090E00E942C459B013B
:103E4000AC01C801B7010E9440430E94704024EDBC
:103E50003FEF261B370B3093370620933606DD984D
:103E600081E08093F00A85E08EBD8FEF263E380713
:103E700018F4C9014A9602C08FEF9FEF9DBD8CBD1B
:103E800086B7846086BF87B7846087BFDF91CF9194
:103E90001F910F91FF90EF9008954F925F926F9254
:103EA0007F928F929F92AF92BF92CF92DF92EF92CA
:103EB000FF920F931F93CF93DF938091210D9091E9
:103EC000220D25E2C22E2DE0D22EC4EEDBE04C0105
:103ED000AA24BB240F2EF0E04F2EF0E05F2EFEE769
:103EE0006F2EF3E47F2EF02DD6018C91882309F4F8
:103EF00046C011968C91119712966C918617B9F164
:103F000070E0681B7109882777FD8095982F0E94C3
:103F10007A447B018C01C501B4010E942C459B01B0
:103F2000AC01C801B7010E9440437B018C0168834A
:103F300079838A839B8320E030E04DE753E40E943D
:103F4000EA4318162CF4488259826A827B8217C091
:103F500020E030E04DE753ECC801B7010E944A442D
:103F600088236CF480E090E0AEE7B3EC04C080E01E
:103F700090E0A0E0B0E088839983AA83BB83A5E0AA
:103F8000B0E0CA0EDB1E2496B0ECCB16BDE0DB061B
:103F900009F0AACF1092350610923406DF91CF9126
:103FA0001F910F91FF90EF90DF90CF90BF90AF9057
:103FB0009F908F907F906F905F904F900895FF92A9
:103FC0000F931F93CF93DF9380911C0D8823E1F70C
:103FD0008091340690913506019690933506809332
:103FE00034069091280D9295990F907E9F61E091F3
:103FF0001C0DF0E0E05AF34F8FEF808380911C0D91
:104000008F5F80931C0DE0911C0DF0E0E05AF34FA0
:10401000908380911C0D8F5F80931C0DE0911C0D8F
:10402000F0E0E05AF34F80E1808380911C0D8F5FB8
:1040300080931C0DC5E2DDE004EE1BE0FF248881C7
:10404000882359F1609134067091350680E090E044
:104050000E942C45F80120813181428153810E94C8
:1040600046420E94D8448981680F711D6F3F7105D7
:104070001CF06EEF70E005C01616170614F061E034
:1040800070E0E0911C0DF0E0E05AF34F6083809106
:104090001C0D8F5F80931C0DF62625960C5F1F4F1D
:1040A000FDE0C03CDF0759F68FE7F822E0911C0DD8
:1040B000F0E0E05AF34FF08280911C0D8F5F809307
:1040C0001C0DDF91CF911F910F91FF900895EF92FA
:1040D000FF921F93CF93DF93FC01709301016093D4
:1040E00000014091260B5091270B20910001309147
:1040F0000101C0910001D0910101CC0FDD1FCC0F57
:10410000DD1F2296CA01880F991F840F951F2F5F0C
:104110003F4FBC01629FC001639F900D729F900D45
:104120001124C80FD91FCE0FDF1F8A819B81909366
:10413000220D8093210D9093110B8093100B888199
:1041400099819093240D8093230D8091000190918B
:104150000101892B71F47E01BE01640F751FDA0124
:104160001296AA0FBB1FAC0FBD1F20E030E011E07C
:1041700057C0809100019091010120910001309180
:104180000101BC01469FC001479F900D569F900DB5
:104190001124DC01AA0FBB1FA80FB91F2150304CFE
:1041A000220F331F220F331FA20FB31F1296AE0F21
:1041B000BF1F20E030E015C0F901E052FC4CE49153
:1041C0008E2F90E0FC01EE0FFF1FEE0FFF1FE80F98
:1041D000F91FE15EF24F13968C91139787832F5F3F
:1041E0003F4F11962417350738F3B5CFF901E05248
:1041F000FC4CE4918E2F90E0FC01EE0FFF1FEE0FC0
:10420000FF1FE80FF91FE15EF24F1683E7018B8174
:104210008087EB018B8181878D9182872F5F3F4F54
:104220000894E11CF11C6F5F7F4F24173507F0F2F3
:104230005798569A88EB92E10197F1F70E94F81E81
:104240000E944D1F0E94DF1F80911C0D882371F07A
:104250008091140B8F5F8093140BE091140BF0E0AE
:10426000E15AF34FE0815D9BFECFECB9DF91CF9136
:104270001F91FF90EF9008958091F10A8823B1F08B
:104280000E94DF1F80911C0D882371F08091140B18
:104290008F5F8093140BE091140BF0E0E15AF34F21
:1042A000E0815D9BFECFECB91092F10A08950F9367
:1042B0001F93CF93DF93EC0106E61EE002C00E943D
:1042C0003C218091F00A8823D1F7209100013091A0
:1042D00001012F5F3F4F888190E02817390768F46C
:1042E00060910001709101016F5F7F4FCE010E94CC
:1042F0006720C8010197F1F7E4CFDF91CF911F91BB
:104300000F910895EF92FF920F931F93CF93DF9336
:10431000DA985798569AE0911C0DF0E0E05AF34F66
:104320008FEF808380911C0D8F5F80931C0DE09137
:104330001C0DF0E0E05AF34F8FE7808380911C0D55
:104340008F5F80931C0DE0911C0DF0E0E05AF34F5D
:1043500080E1808380911C0D8F5F80931C0D10E0A5
:10436000C0E0D0E0E3EFEE2EE3E3FE2E01E0FE013D
:10437000E851FF4F9491E0911C0DF0E0E05AF34FAB
:10438000908380911C0D8F5F80931C0D1927892FBE
:1043900090E09F938F93DF93CF93FF92EF920F93D1
:1043A0000E94232621968DB79EB707960FB6F894E4
:1043B0009EBF0FBE8DBFC031D105C9F61F77E091FA
:1043C0001C0DF0E0E05AF34F108380911C0D8F5FBD
:1043D00080931C0D8091140B8F5F8093140BE091E0
:1043E000140BF0E0E15AF34FE0815D9BFECFECB996
:1043F000DA9A80EF93E39F938F9381E08F930E94EB
:1044000023260F900F900F90DF91CF911F910F9166
:10441000FF90EF9008951F93CF93DF93C5E2DDE007
:1044200010E08881882379F04C81242F64E6812F65
:10443000806E0E946D3B8AEF90E00E94473B8AEFBE
:1044400090E00E94473B25961F5F1F3151F7DF9197
:10445000CF911F9108950F931F93CF93DF93C8E2DD
:10446000DBE000E088818823F1F0102F106E2A81B4
:1044700049816BE0812F0E946D3B8AEF90E00E94A2
:10448000473B8AEF90E00E94473B4B81242F68E135
:10449000812F0E946D3B8AEF90E00E94473B8AEF9C
:1044A00090E00E94473B26960F5F0F31D9F6DF91CF
:1044B000CF911F910F910895DF92EF92FF920F938A
:1044C0001F93CF93DF93DC01E8E2FBE010821182BF
:1044D000128213821482158236968BE0E23EF80730
:1044E000A9F78C918093240B1092250B11968C9137
:1044F0001197482F50E05093270B4093260B1296AC
:10450000BD01640F751F12977B01E40EF51E00912B
:104510001C0B10911D0BED0120E030E0DD24D39445
:104520002FC0F901E052FC4CE4918E2F90E0DC01A9
:10453000AA0FBB1FA80FB91FAA0FBB1FA25EB44FC3
:104540001A96DC921A9789811B968C931B97FB0114
:10455000E20FF31F80811C968C931C97F701E20FEA
:10456000F31F80811D968C931D971E96DC921E97DB
:10457000F801E20FF31FE4911F96EC932F5F3F4F7A
:1045800021962417350768F2C0E0D0E014C0FE0180
:10459000E052FC4C1491812F0E94BD3B212F30E052
:1045A000F901EE0FFF1FEE0FFF1FE20FF31FE15E99
:1045B000F24F878321968091260B9091270BC81785
:1045C000D90728F30E942B22DF91CF911F910F91E1
:1045D000FF90EF90DF900895BF92CF92DF92EF921D
:1045E000FF920F931F93CF93DF93E8E2FBE01082DB
:1045F0001182128213821482158236968BE0E23E7B
:10460000F807A9F7E090260BF090270B00911A0D00
:1046100010911B0DC091C00DD091C10D6091120B76
:104620007091130B40911C0B50911D0B20E030E05A
:10463000DD24D39432C0F901E052FC4CE4918E2F7A
:1046400090E0DC01AA0FBB1FA80FB91FAA0FBB1F68
:10465000A25EB44F1A96DC921A97F801E20FF31F8C
:10466000E4911B96EC931B97FE01E20FF31FE4917C
:104670001C96EC931C97FB01E20FF31FE4911D962F
:10468000EC931D971E96DC921E97FA01E20FF31F22
:10469000E4911F96EC932F5F3F4F2E153F0508F4D2
:1046A000CACF0E942B22C0E0D0E0BB24B39408EB19
:1046B000C02E02E1D02ED8C0D0930101C0930001DA
:1046C0008091000190910101880F991FE0910E0BDC
:1046D000F0910F0BE80FF91F859194919093220DA3
:1046E0008093210D9093110B8093100B809100010A
:1046F00090910101880F991FE0911D0DF0911E0D01
:10470000E80FF91F859194919093240D8093230DC8
:104710004091260B5091270BE5E2FDE0CA01880F7E
:10472000991F880F991F840F951F8E0F9F1F06C01A
:10473000108211821282138214823596E817F907CB
:10474000B9F76091170B7091180BE0901A0BF0906D
:104750001B0B0091150B1091160B20E030E060C090
:10476000F901E052FC4CE4918E2F90E0DC01AA0F9D
:10477000BB1FAA0FBB1FA80FB91FA15EB24F169691
:10478000BC9216978091000190910101489FF00121
:10479000499FF00D589FF00D1124E20FF31FE60F13
:1047A000F71FE4911796EC93179780910001909171
:1047B00001010196849FF001859FF00D949FF00DFB
:1047C0001124E20FF31FE60FF71FE4911896EC9304
:1047D00018978091000190910101489FF001499F35
:1047E000F00D589FF00D1124E20FF31FEE0DFF1D89
:1047F000E4911996EC931997809100019091010131
:10480000489FF001499FF00D589FF00D1124E20FD1
:10481000F31FE00FF11FE4911A96EC932F5F3F4FC7
:104820002417350708F49CCF5798569AC60101976C
:10483000F1F70E940B220E94F81E0E944D1F0E9459
:10484000DF1F80911C0D882371F08091140B8F5F06
:104850008093140BE091140BF0E0E15AF34FE081E8
:104860005D9BFECFECB921968091240B9091250B96
:10487000C817D90708F420CFDF91CF911F910F916E
:10488000FF90EF90DF90CF90BF900895DC9842E0CA
:1048900051E024E130E0829FD001839FB00D929FD0
:1048A000B00D1124A40FB51F2D913C911197309399
:1048B0001B0B20931A0BFC01EE0FFF1F9C0163E002
:1048C000220F331F6A95E1F7E20FF31F3196EE0FC7
:1048D000FF1FE40FF51F208131813093160B2093C9
:1048E000150B9C01220F331F220F331F280F391F76
:1048F0002F5F3F4F220F331F220F331F420F531FD3
:10490000FA018081918190931B0D80931A0D169668
:104910008D919C9117979093C10D8093C00D18961F
:104920008D919C9119979093130B8093120B1A966B
:104930008D919C911B9790930F0B80930E0B1C965F
:104940008D919C911D9790931E0D80931D0D1E9629
:104950008D919C911F979093180B8093170B88ED66
:1049600090E090931D0B80931C0B50968D919C9121
:1049700051979093250B8093240B52968D919C9187
:1049800053979093270B8093260B0E94EC22089557
:104990009093AD0A8093AC0A08951F93182F8A3024
:1049A00031F4E091AC0AF091AD0A8DE00995E09107
:1049B000AC0AF091AD0A812F09951F910895CF930C
:1049C000DF93EC01009721F406C021960E94CD24CC
:1049D00088818823D1F7DF91CF910895EF92FF92DC
:1049E0000F931F93CF93DF938C017A010097E9F027
:1049F00020E030E02617370738F4F80181918F0165
:104A00002F5F3F4F8823B1F7C0E0D0E00BC0F80123
:104A10008081882319F00F5F1F4F01C080E20E9440
:104A2000CD242196CE15DF0590F3DF91CF911F9114
:104A30000F91FF90EF900895CF93DF93EC010097D3
:104A400019F407C00E94CD24FE0121968491882389
:104A5000C9F7DF91CF9108958AE00E94CD2408958F
:104A6000E82FF0E0EF70F070E550FC4CE4918E2FF1
:104A70000E94CD2408951F93182F82958F700E9455
:104A80003025812F0E9430251F9108951F93182FE4
:104A9000892F0E943B25812F0E943B251F9108955D
:104AA000EF92FF920F931F937B018C01C801AA27FD
:104AB000BB270E944625C7010E9446251F910F91E2
:104AC000FF90EF9008952F923F924F925F926F92D6
:104AD0007F928F929F92AF92BF92CF92DF92EF928E
:104AE000FF920F931F93DF93CF93CDB7DEB7A397BA
:104AF0000FB6F894DEBF0FBECDBF6AA3242E2BA342
:104B000037014801442351F017FF08C0EE24FF2469
:104B10008701E618F7080809190902C08401730122
:104B20002AA1215090E0211091E0291B29A318A26D
:104B3000A82EBB24CC24DD24C801B701A601950111
:104B40000E94FB48FB01EF70F070E550FC4C649153
:104B50006F8FC801B701A60195010E94FB48C901EA
:104B6000DA017C018D019EE1492E512C4C0E5D1E17
:104B700039A025C0E114F10401051105C9F0C801EF
:104B8000B701A60195010E94FB48FB01EF70F07090
:104B9000E550FC4C6491F2016083C801B701A601A5
:104BA00095010E94FB48C901DA017C018D0103C017
:104BB0002BA1F20120833A94089441085108332034
:104BC000C9F6CE014F968C01E9A10E1B11092220D6
:104BD000F1F097FE05C08DE2F80182938F0117C0B6
:104BE000C8010197611471048104910419F08C01CA
:104BF0008BE202C08C0180E2F801808308C0F801DA
:104C000081918F010E94CD24FAA1F150FAA32AA12B
:104C10002223A9F7A3960FB6F894DEBF0FBECDBF2F
:104C2000CF91DF911F910F91FF90EF90DF90CF9088
:104C3000BF90AF909F908F907F906F905F904F90BC
:104C40003F902F9008957F928F929F92AF92BF9244
:104C5000CF92DF92EF92FF920F931F93DF93CF9348
:104C6000CDB7DEB77888C988DA8853E1E52EF12C14
:104C7000EC0EFD1E14C0882381F480E090E0CF91FB
:104C8000DF911F910F91FF90EF90DF90CF90BF9039
:104C9000AF909F908F907F9008950E94CD249601B1
:104CA0002F5F3F4F772021F0F6016901849103C007
:104CB000F601808169018532F1F62F5F3F4F772041
:104CC00021F0F6016901849103C0F6018081690138
:104CD000843629F0883781F08336F9F606C000E182
:104CE00017E24AE0A42EB12C0CC0F701808122E02B
:104CF00030E0E20EF31ED1CF00E010E130E1A32E50
:104D0000B12C22E0822E912C8E0C9F1CF701E080AA
:104D1000F1808436B1F4F7FE11C0F094E194F1080B
:104D2000F3948DE20E94CD2409C0C8016AE070E0CE
:104D30000E94D4488B016230710518F0E016F1062C
:104D4000A0F3C701B8010E94D448862F0E943025E5
:104D5000C701B8010E94D4487C01C801B5010E9476
:104D6000D4488B016115710561F7740198CF80916A
:104D7000AF0A882369F481E08093C60D8093AE0A60
:104D800081E287B98CED86B98091AE0A8823E1F77C
:104D90002091C20D3091C30DC90108951F920F9249
:104DA0000FB60F9211248F939F9395B19093C50DD9
:104DB0008091C60D813041F0813018F08F30A1F420
:104DC0000CC09093C40D10C089E3989FC0011124BA
:104DD0009093C30D8093C20D07C0963E18F4909334
:104DE000C70D02C01092C70D1092AE0A9F918F910D
:104DF0000F900FBE0F901F9018959091C60D906266
:104E000097B986B90895C59A84EF91E020E731E01B
:104E1000F9013197F1F70197D9F70895C5980895E9
:104E2000EF92FF920F931F9389B78F7B89BF1092E8
:104E3000C60D81E08093AE0A80E287B98CED86B919
:104E40008091AE0A8823E1F76091C40D29B72064F0
:104E500029BF70E0882777FD8095982F0E947A44BB
:104E600020E030E040E050E00E94194221EE3AE7B5
:104E70004CED50E40E94E8419B01AC0166E676EA05
:104E80008BE894E40E9440437B018C0120E030E0F9
:104E900040E050E00E944A448823FCF020E030E0EB
:104EA00040E251E4C801B7010E944A4488235CF4FF
:104EB0000F2EF0E0EF2EF0E0FF2EF0E20F2FF1E4E6
:104EC0001F2FF02D14C020E030E048E452E4C80168
:104ED000B7010E94EA43181654F40F2EF0E0EF2EAB
:104EE000F0E0FF2EF8E40F2FF2E41F2FF02DC801A1
:104EF000B7010E9470406093C90D1F910F91FF9000
:104F0000EF900895C59A84EF91E020E731E0F90130
:104F10003197F1F70197D9F70E941027C598809132
:104F2000C90D0895BF92CF92DF92EF92FF920F9337
:104F30001F93CF93DF938FE08093C60DC0E0D0E046
:104F40000F2EF0E0EF2EF0E0FF2EF0E00F2FF0E05C
:104F50001F2FF02DBB24B3949FE2C92E8CEDD82EC9
:104F6000B092AE0AC7B8D6B88091AE0A8823E1F7EE
:104F70006091C70D70E0882777FD8095982F0E947B
:104F80007A449B01AC01C801B7010E9419427B0120
:104F90008C012196C233D10519F720E030E040E2C0
:104FA00051E40E9440430E9470406093C80DDF911D
:104FB000CF911F910F91FF90EF90DF90CF90BF9016
:104FC00008950E9492278091C80D08958091AF0A9C
:104FD000882369F481E08093C60D8093AE0A81E254
:104FE00087B98CED86B98091AE0A8823E1F70895E0
:104FF0001F93182F882359F086E294E39F938F9391
:1050000081E08F930E9423260F900F900F900E94B3
:105010008227112391F08091C90D90E09F938F9387
:1050200083E294E39F938F9381E08F930E942326E2
:105030000F900F900F900F900F9084EF91E020E76A
:1050400031E0F9013197F1F70197D9F7112359F0C0
:105050008CE194E39F938F9381E08F930E942326AA
:105060000F900F900F908091AF0A882369F481E030
:105070008093C60D8093AE0A81E287B98CED86B924
:105080008091AE0A8823E1F78091C20D9091C30D03
:10509000112399F08091C20D9091C30D9F938F932E
:1050A00087E194E39F938F9381E08F930E9423265F
:1050B0000F900F900F900F900F9084EF91E020E7EA
:1050C00031E0F9013197F1F70197D9F7112359F040
:1050D00081E194E39F938F9381E08F930E94232635
:1050E0000F900F900F900E9492278091C80D11236E
:1050F00091F08091C80D90E09F938F938CE094E3A2
:105100009F938F9381E08F930E9423260F900F909F
:105110000F900F900F9080E090E01F9108951F92E4
:105120000F920FB60F9211248F9387B78F7B87BF93
:105130001092CF0D8F910F900FBE0F901F9018956A
:105140001F920F920FB60F920BB60F9211248F93EE
:105150009F93EF93FF938091CF0D813059F0813071
:1051600020F0823009F061C023C014BC81E080933C
:10517000CF0D55C084B58093CC0D14BC8A538931B2
:1051800008F04AC01092CB0D1092CE0D82E08093B1
:10519000CF0D86B7806486BF87B7806487BF1092C3
:1051A000D10D1092D20D1092D30D1092D40D3DC09E
:1051B00094B59093CC0D14BC892F8D508E3060F532
:1051C000E091CE0D943138F0F0E0EF52F24F808153
:1051D0008695806805C0F0E0EF52F24F8081869599
:1051E00080838091CB0D8F5F8093CB0D8830B9F495
:1051F0001092CB0D8091CE0D8F5F8093CE0D8430B9
:1052000071F48091D10D8093CA0D8091D40D80935B
:10521000D00D8FEF8093CD0D1092CF0D06C086B7C5
:10522000806486BF87B7806487BFFF91EF919F91AD
:105230008F910F900BBE0F900FBE0F901F9018957F
:105240008091CD0D882319F42FEF3FEF06C0109207
:10525000CD0D8091D00D282F30E0C9010895149A0A
:10526000159A1D9A1C9A000000001D98000000006D
:105270001C98000000000895149A159A1D981C9A15
:10528000000000001D9A0000000014981598089571
:10529000159890E080E0880F0000000000000000FA
:1052A0001C9A000000000D998160000000001C980D
:1052B0009F5F983081F7159A0895159A90E087FFBF
:1052C00002C01D9A01C01D98000000001C9A000039
:1052D0000000000000001C98000000009F5F983054
:1052E00011F0880FECCF08951598000000001D9A6A
:1052F000000000001C9A000000001C980000000044
:10530000159A000000000895159A000000001D98ED
:10531000000000001C9A000000001C980000000023
:105320001D9A000000000895159A000000001D9AC3
:10533000000000001C9A000000001C980000000003
:105340000895282F30E087FF02C020503140C90166
:1053500008950E942F2980E70E945D290E947429E8
:1053600084E10E945D290E94742983E00E945D29E6
:105370000E9474290E943C290895159A149A1D9A36
:105380001C9A000000001D98000000001C980000FE
:1053900000000895159A149A1D981C9A00000000A8
:1053A0001D9A00000000159814980895159A90E031
:1053B00087FF02C01D9A01C01D98000000001C9AC2
:1053C00000000000000000001C98000000009F5F2B
:1053D000983011F0880FECCF0895159890E080E098
:1053E000880F00000000000000001C9A0000000070
:1053F0000D998160000000001C989F5F983081F734
:10540000159A08951598000000001D9A00000000EC
:105410001C9A000000001C9800000000159A000073
:1054200000000895159A000000001D98000000007B
:105430001C9A000000001C98000000001D9A00004B
:1054400000000895159A000000001D9A0000000059
:105450001C9A000000001C980000000008950E94A3
:10546000BD2980E70E94D6290E94022A84E10E9479
:10547000D6290E94022A83E00E94D6290E94022A8D
:105480000E94CA2908950F931F930E94BD2980E7A7
:105490000E94D6290E94022A82E00E94D6290E94F8
:1054A000022A0E94CA2900000000000000000E9499
:1054B000BD2981E70E94D6290E94022A0E94ED2977
:1054C0000E94122A0E94ED29082F0E94122A1127F9
:1054D00007FD10951093DA0D0093D90D0E94ED2968
:1054E0000E94122A0E94ED29082F0E94122A1127D9
:1054F00007FD10951093DC0D0093DB0D0E94ED2944
:105500000E94122A0E94ED29082F0E94222A1127A8
:1055100007FD10951093DE0D0093DD0D0E94CA2942
:105520001F910F9108951F93182F0E942F2980E734
:105530000E945D290E94742982E00E945D290E94D8
:1055400074290E943C2900000000000000000E9415
:105550002F2981E70E945D290E9474290E94482911
:105560000E9484290E944829282F30E087FF04C028
:10557000C9018050914001C0C9019093D60D80931C
:10558000D50D112399F08091D50D9091D60D9F9353
:105590008F938BE394E39F938F9381E08F930E948B
:1055A00023260F900F900F900F900F900E94842948
:1055B0000E9448290E9484290E944829282F30E00F
:1055C00087FF04C0C9018050914001C0C901909378
:1055D000D80D8093D70D112399F08091D70D90911C
:1055E000D80D9F938F9383E394E39F938F9381E0F0
:1055F0008F930E9423260F900F900F900F900F9083
:105600000E9484290E9448290E9484290E944829D6
:10561000282F30E087FF04C0C9018050914001C0AD
:10562000C9019093E00D8093DF0D0E9494290E94A0
:105630003C29112399F08091DF0D9091E00D9F930B
:105640008F938BE294E39F938F9381E08F930E94DB
:1056500023260F900F900F900F900F901F91089599
:10566000DC01ED91FC911197E08109C0ED91FC9175
:10567000119731961196FC93EE933197E181E032C8
:10568000A9F3EE2331F08D919C91119701968D93A2
:105690009C938E2F0895DC01ED91FC911197E08190
:1056A00009C0ED91FC91119731961196FC93EE9300
:1056B0003197E181E032A9F3EE2331F08D919C9195
:1056C000119701968D939C938E2F81548A3118F0F7
:1056D000EFEFFFEF03C0F0E0E154F040CF01089599
:1056E000DC01ED91FC911197408109C0ED91FC9195
:1056F000119731961196FC93EE9331974181403288
:10570000A9F3442339F08D919C911197019611963C
:105710009C938E9320E030E012C0C90163E0880FB3
:10572000991F6A95E1F7220F331F280F391F240FA5
:10573000311D2053304041911196FC93EE93842FFC
:105740008053ED91FC9111978A3038F33197ED93A6
:10575000FC93C9010895FC01DB0120E030E008C0A2
:10576000892F81548A3138F431969D932F5F3F4FB2
:1057700090819923A9F71C92C9010895833091055E
:10578000E9F0843091054CF48130910599F0823034
:10579000910594F4892B61F008C08530910591F052
:1057A000853091056CF0069779F020E030E01CC060
:1057B00089B30CC086B30AC083B308C080B306C0E7
:1057C00081B104C080B102C080916300282F30E015
:1057D000683071054CF481E090E002C0880F991F99
:1057E0006A95E2F728233923C90108959C014D33B6
:1057F00009F456C04E3390F44B32E9F04C3230F499
:10580000453259F14A3209F053C01BC04F3209F1F9
:105810004C3371F14D3209F04BC010C04C3671F170
:105820004D3630F44E33F1F0473609F041C02CC00C
:105830004E36F1F52FC0260F371F3AC0261B370B07
:1058400037C0869F9001879F300D969F300D1124A1
:105850002FC00E94E8489B0103C00E94E8489C01B9
:10586000C90125C080E090E06217730704F51DC0F0
:1058700080E090E026173707D4F417C080E090E06E
:1058800062177307A4F011C080E090E02617370775
:1058900074F00BC080E090E02617370731F407C0A2
:1058A00080E090E06217730711F481E090E09C01C2
:1058B000C90108959C01FC0101C0319680818232AA
:1058C000E1F7CF01821B930B0895EF92FF920F93A4
:1058D0001F93E82EF62E05E610E0F80180818B7FFD
:1058E00080838AEE0E94CD248E2D0E94CD248F2DA0
:1058F0000E94CD24FE248F2D8F770E94CD24F801A5
:105900008081846080831F910F91FF90EF900895B4
:105910001F93CF93DF93C3EBDAE010E0812F0E9457
:10592000BD3B8F3F910509F020F489931F5F1F3124
:10593000A9F7812F90E09F938F9388E494E39F933E
:105940008F9381E08F930E9423260F900F900F90EA
:105950000F900F90812FDF91CF911F9108952F927B
:105960003F924F925F926F927F928F929F92AF92EF
:10597000BF92CF92DF92EF92FF920F931F93DF932C
:10598000CF93CDB7DEB729970FB6F894DEBF0FBE21
:10599000CDBFAA24BB24A2E82A2EA4E33A2EEE24EB
:1059A000E3944E010894811C911CFEE74F2EF4E312
:1059B0005F2EE9E06E2E712C6C0E7D1EBF92AF92B1
:1059C0003F922F92EF920E942326840170E0C72E0F
:1059D00070E0D72ECA0CDB1C0F900F900F900F9029
:1059E0000F90E199FECFDFBACEBAE09AFDB28F2DCB
:1059F00090E09F938F935F924F92EF920E942326A5
:105A00008F2D8C510F900F900F900F900F90833629
:105A100018F4F801F08203C08EE2F80180830F5F72
:105A20001F4F0894C11CD11C06151705D1F6198605
:105A3000C4010E94DF2484E992E00E94DF24E8E0B0
:105A4000F0E0AE0EBF1EF0E4AF16B10409F0B6CF21
:105A500029960FB6F894DEBF0FBECDBFCF91DF9170
:105A60001F910F91FF90EF90DF90CF90BF90AF907C
:105A70009F908F907F906F905F904F903F902F906E
:105A800008952F923F924F925F926F927F928F92E2
:105A90009F92AF92BF92CF92DF92EF92FF920F93BD
:105AA0001F93DF93CF93CDB7DEB729970FB6F89446
:105AB000DEBF0FBECDBFAA24BB248AE8282E84E314
:105AC000382EEE24E3944E010894811C911C06E8C4
:105AD000402E04E3502E19E0612E712C6C0E7D1EB9
