:100000000C945B1B0C947A1B0C947A1B0C947A1B3B
:100010000C947A1B0C947A1B0C947A1B0C94C024BD
:100020000C947A1B0C947A1B0C94AF240C947A1BBE
:100030000C947A1B0C947A1B0C94A61B0C947A1BC0
:100040000C94451E0C947A1B0C947A1B0C947A1B0E
:100050000C947A1B0C942C230C947A1B0C947A1B12
:100060000C947A1B0C947A1B0C947A1B0C947A1BBC
:100070000C947A1B0C947A1B0C942E1F0C947A1BF4
:100080000C94781F0C947A1B0C947A1BA82E502F7A
:10009000592F602F6C2F732F7D2F842F942FF82FC3
:1000A000BA2E5730E42F7A2FA82F972F8B2F053099
:1000B000D52F672F7A2FBF2E052FE22E252FBB2F8E
:1000C00031355F348436253B253BA635B635D734EC
:1000D00014356B3A0E381F3837388B345035A73605
:1000E000723A913AEE349535EA39A3383F381F38E1
:1000F00055379737D838473A2C3AF139AA3A0F3B57
:10010000C23A453D453DE23E603F603F1B3FA63E53
:10011000453DC23D663FB23E683F1B3F223F5F3ECA
:10012000683F1B3F663FA13D683F1B3F683F683FFC
:10013000683F683F683F5F3E683F683F683F683F91
:10014000683F683F4E6F7420706C75676765642008
:10015000696E0D0A00436F6D706C6574650D0A0061
:10016000506C756767656420696E202D2063686137
:100170007267696E670D0A002564206D560063681A
:1001800061726765206D6F6465202D2074657374DE
:10019000696E670D0A00446F6E650D0A0025643AAA
:1001A00025642066756C6C206368617267652070D9
:1001B0006F7765720D0A0025643A25642073686FB5
:1001C00072742034306D73206368617267652070CB
:1001D000756C7365730D0A00303132333435363740
:1001E00038394142434445460025642C2025642C7F
:1001F0002025640A002564206C696E657320737481
:100200006F7265640D0A00256420736572766F73E2
:1002100020636F6E6E65637465640D0A002564204B
:100220006C696E6573206C6F616465640D0A0045CE
:100230006C61707365642054696D652025646D730D
:100240000D0A002564206C696E657320696E206D4F
:10025000656D6F72790D0A00256420736572766F83
:100260007320636F6E6E65637465640D0A000D0A1A
:100270000025640025630023200025633D002564DC
:100280003D00504F52543A25633A256300256320C0
:100290003D200020002564200025782000257820BE
:1002A0000025782000257820002C25640025640096
:1002B0002564005573657220427265616B206F6E14
:1002C000206C696E652025640D0A00545241434537
:1002D000203A3A202564202D200052756E74696DF5
:1002E00065206572726F72202564206F6E206C69C4
:1002F0006E652025640D0A006576616C206572725A
:100300006F722025642C2025640D0A0070616E69CF
:1003100063206572726F720D0A000D0A2564206CED
:10032000696E657320656E74657265642C205B254B
:10033000642F25645D2042797465730D0A00506155
:100340006E69632025640D0A00506F733D2564209B
:100350005B25635D0D0A0050726F6772616D2065E9
:100360006E747279206D6F646520282E20746F2062
:1003700065786974290D0A000D0A004D6F74696F64
:100380006E2072616E67653A202030202D20313852
:100390000D0A00506C6179204D6F74696F6E2025D5
:1003A000640D0A007DC9A3436C7D3059B88E59276E
:1003B0007CA2D37F7DB3C7586C7E4831A38D332F89
:1003C00031C7CDCD0404040404040404040404046B
:1003D00004040404020202020202020202020000F9
:1003E0000000000001010101010101010101010101
:1003F00001010101020202020202020202020202E1
:1004000002020202040404040404040404040404B4
:1004100004040404010101010100000000000101C5
:1004200001000000010101010100000000000101C4
:1004300001000000030303030300000000000303A6
:100440000300000003030303030000000000030394
:100450000300000000000000000000000000000099
:1004600000000000282828282828282828281414D4
:10047000141414143C3C3C3C3C3C3C3C3C3C1E1E98
:100480001E1E1E1E000000000000000000000000F4
:100490000000000001000800010005000F004600F8
:1004A0003601A401C8002C017DB3C7586C7E4831C9
:1004B000A38D332F31C7CDCD7DB3C7586C7E483166
:1004C000A38D332F31C7CDCD6BA4E96A5F6C501D6E
:1004D0009B81383E28A6CED06BA4E96A5F914A285A
:1004E000A39A757C72A6CED07EA4DE646B7D501D6F
:1004F0009B8E4F2C28A6CED07DB3C7586C7E48313A
:10050000A38D332F31C7CDCD0404040404040404A7
:1005100004040404040404040202020202020202AB
:1005200002020000000000000101010101010101BF
:1005300001010101010101010202020202020202A3
:10054000020202020202020204040404040404047B
:100550000404040404040404000000000001010178
:100560000101000000010101000000000002020280
:100570000202000000020202000000000003030368
:100580000302000000030303000000000003030354
:10059000030300000003030300000000000000004C
:1005A000000000000000000028282828282828280B
:1005B00028281414141414143C3C3C3C3C3C3C3C93
:1005C0003C3C1E1E1E1E1E1E0000000000000000FF
:1005D000000000000000000001000800010005000C
:1005E0000F0046003601A401C8002C017DB3C75896
:1005F0006C7E4831A38D332F31C7CDCD7DB3C75825
:100600006C7E4831A38D332F31C7CDCD8BA3E664EB
:10061000788E570E969F4F2C28B7BCD06CA4E06103
:100620006A97501C99A74F2C289170837EA4DE6492
:100630006B7D501D9B8E4F2C28A6CED07DB3C75806
:100640006C7E4831A38D332F31C7CDCD0404040413
:10065000040404040404040404040404040404045A
:100660000404040404040404040404040202020252
:100670000202020202020000000000000202020266
:100680000200000000000303030303030000000056
:100690000000000000000404040404030404040433
:1006A000040404040404040404040404000000001A
:1006B0000000000000000000000000000101010136
:1006C0000100000000000101010000000000000026
:1006D0000000000000000000000000000101010116
:1006E0000100000000000101010000000000000006
:1006F00000000000000000000000000000000000FA
:100700000000000000000000000000002828282849
:100710002828282828281414141414143C3C3C3C81
:100720003C3C3C3C3C3C1E1E1E1E1E1E00000000AD
:1007300000000000000000000000000001000500B3
:100740000800030001000F00460096003601FA0081
:1007500078002C017DB3C7586C7E4831A38D332FB0
:1007600031C7CDCD7DB3C7586C7E4831A38D332FB3
:1007700031C7CDCD7EA7DE626E7D541D9B8E4F2C82
:1007800028A6CED06BA4E9665F6C501D9B81383ED5
:1007900028A6CED06BA4E9695F914A289D9A383E7D
:1007A00028A6CED07EA4DE5F6B7D541D9B8E4F2C81
:1007B00028A6CED07DB3C7586C7E4831A38D332F89
:1007C00031C7CDCD04040404040404040404040467
:1007D00004040404040404040404040404040404D9
:1007E00004040404020202020202020202020404DD
:1007F00004040404000000000002020202020404D7
:1008000004040404000000000002020202020404C6
:100810000404040404040404040404040404040498
:1008200004040404000000000000000000000000B8
:1008300000000000000000000001010101010000B3
:1008400000010101000000000000000000000000A5
:100850000000000000000000000101010101000093
:100860000001010100000000000000000000000085
:100870000000000000000000000000000000000078
:1008800000000000282828282828282828281414B0
:10089000141414143C3C3C3C3C3C3C3C3C3C1E1E74
:1008A0001E1E1E1E000000000000000000000000D0
:1008B00000000000010005000800030001000F0017
:1008C000460096003601C80078002C017DB3C75859
:1008D0006C7E4831A38D332F31C7CDCD7DB3C75842
:1008E0006C7E4831A38D332F31C7CDCD7EA7DE621C
:1008F0006E7D541D9B8E4F2C28A6CED08BA3E66414
:10090000788E570E969F4F2C28B7BCD06CA4E06110
:100910006A97501C99A74F2C28B7BCD07EA6DE62E0
:10092000717D541D9B8E4F2C28A6CED07DB3C75809
:100930006C7E4831A38D332F31C7CDCD0404040420
:100940000404040404040404040404040101010173
:100950000101010101010404040404040101010175
:100960000101010101010404040404040202020261
:10097000020202020202040404040404010101014F
:10098000010101010101040404040404030303033D
:100990000303030303030404040404040101010129
:1009A000010000000000010101000000010101013F
:1009B0000100000000000101010000000000000033
:1009C0000000000000000000000000000000000027
:1009D0000000000000000000000000000000000017
:1009E0000000000000000000000000000000000007
:1009F00000000000000000000000000014141414A7
:100A00001414141414141414141414141E1E1E1E7E
:100A10001E1E1E1E1E1E1E1E1E1E1E1E000000006E
:100A20000000000000000000000000000A000500B7
:100A30000A00010005000A00C800C8009001780003
:100A4000C80090017DB3C7586C7E4831A38D332F09
:100A500031C7CDCD7DB3C7586C7E4831A38D332FC0
:100A600031C7CDCD7DA2C7486C7E3B31978D332FEA
:100A700031C7CDCD88A9D25D798B243D909D332F90
:100A800031C7CDCD7DADD25D7B8B500E899D332F8F
:100A900031C7CDCD86ADD25D7B8B501F9D9D332F51
:100AA00031C7CDCD7DB3C7586C7E4831A38D332F70
:100AB00031C7CDCD04040404040404040404040474
:100AC0000404040401010101010101010101040404
:100AD00004040404010101010101010101010404F4
:100AE00004040404020202020202020202020404DA
:100AF00004040404020202020202020202020404CA
:100B000004040404030303030303030303030303B1
:100B100003030303000000000001010101010000C4
:100B200000010101000000000001010101010000BD
:100B300000010100000000000000000000000000B3
:100B400000000000000000000000000000000000A5
:100B50000000000000000000000000000000000095
:100B60000000000000000000000000000000000085
:100B70000000000014141414141414141414141485
:100B8000141414141E1E1E1E1E1E1E1E1E1E1E1EAD
:100B90001E1E1E1E000000000000000000000000DD
:100BA000000000000A0005000A00010005000A001C
:100BB000C800C80090017800C80090017DB3C758F4
:100BC0006C7E4831A38D332F31C7CDCD7DB3C7584F
:100BD0006C7E4831A38D332F31C7CDCD7DC1CD6B18
:100BE0006C7E5931B48D332F31C7CDCD77D1C36AE7
:100BF0006077511F9D84332F31C7CDCD75A2E3623D
:100C0000677D4E31A37F332F31C7CDCD6EA8CC5534
:100C10005C755131A380332F31C7CDCD7DB3C7581B
:100C20006C7E4831A38D332F31C7CDCD040404042D
:100C30000404040404040404040404040404040474
:100C40000404040404040404040404040303030368
:100C50000303030303030303030303030000000070
:100C60000000000000000404040404040303030360
:100C70000303030303030303030303030202020248
:100C80000202020202020404040404040202020238
:100C90000202020202020404040404040202020228
:100CA0000202020202020404040404040202020218
:100CB0000202020202020404040404040303030304
:100CC0000303030303030303030303030000000000
:100CD0000000000000000000000000000303030308
:100CE00003030303030303030303030300000000E0
:100CF00000000000000000000000000002020202EC
:100D000002020202020202020202020200000000CB
:100D100000000000000000000000000001010101CF
:100D200001010101010101010101010100000000B7
:100D300000000000000000000000000003030303A7
:100D4000030303030303030303030303000000007F
:100D50000000000000000000000000000000000093
:100D600000000000000000000000000028282828E3
:100D70002828282828281E1E1E1E1E1E3C3C3C3CDF
:100D80003C3C3C3C3C3C32323232323200000000CF
:100D90000000000000000000000000000F001E0026
:100DA0002D002D002D001E001E001E001E001E0026
:100DB0002C01580284038403840358025802580209
:100DC000580258027DB3C7586C7E4831A38D332F2B
:100DD00031C7CDCD7DB3C7586C7E4831A38D332F3D
:100DE00031C7CDCD7CDCF77D6C7E1D047F8C332F2D
:100DF00031C7CDCD7BDCF656707E1D07A98B013B3C
:100E00004AFDBFB58253903F6C7DAA67BF8B013B03
:100E1000A3FDBF588253903F6C7DAA67BF8BEA7DCC
:100E20005A0581A6815EB7646E80A26EBA88A02D35
:100E3000515ACDA78157BF3C6E80A23BC1888A2EF4
:100E40005974CBA78181BE416E80783BBB8C852DC8
:100E50005174CBA781A1C5476E805935B58F8F24BA
:100E60005974CBA77DB3C7586C7E4831A38D332FFF
:100E700031C7CDCD040404040404040404040404B0
:100E80000404040401010101010101010101040440
:100E90000404040404040404040404040404040412
:100EA0000404040401010101010101010101010126
:100EB0000101010101010101010101010101010122
:100EC0000101010102020202020202020202020206
:100ED00002020202020202020202020202020202F2
:100EE00002020202020202020202020202020202E2
:100EF00002020202040404040404040404040404BA
:100F000004040404000000000000000000000000D1
:100F100000000000030303030303030303030303AD
:100F200003030303000000000000000000000000B5
:100F30000000000002020202020202020202020299
:100F40000202020200000000000000000000000099
:100F50000000000001010101010101010101010185
:100F6000010101010000000000000000000000007D
:100F7000000000000303030303030303030303034D
:100F80000303030300000000000000000000000055
:100F90000000000028282828282828282828141499
:100FA000141414143C3C3C3C3C3C3C3C3C3C1E1E5D
:100FB0001E1E1E1E000000000000000000000000B9
:100FC000000000000A000A000A000A0001002300D5
:100FD0001E0028001E002C01F401F401BC023403A1
:100FE000BC025802200358027DB3C7586C7E4831BA
:100FF000A38D332F31C7CDCD7DB3C7586C7E48311B
:10100000A38D332F31C7CDCD7D52D6596C7E48315B
:10101000A38D8F2F3172CDCD7D52DA65727DA622E0
:10102000978F8D2F3172CDCD7DD2E450717C2319F5
:10103000AC8EA72F2F52CDCC7DDAF756717B1F05D2
:10104000A88D095792FEA26C7DDCF47A6D7B1D059C
:10105000808D212A92DED26C7DDCDE7A717B1D1CB4
:10106000878D62324E92C5A97DA0F272717B5708BE
:10107000878D522F45ADCDBF7DB3C7586C7E4831AB
:10108000A38D332F31C7CDCD030303030303030324
:101090000303030303030303030303030303030320
:1010A0000303030303030303030303030303030310
:1010B0000303030303030303020202020202020208
:1010C0000202020202020202010101010101010108
:1010D0000101010101010101000000000000000008
:1010E0000000000000000000000000000000000000
:1010F00000000000000000000101010101010101E8
:1011000001010101010101010202020202020202C7
:1011100002020202020202020303030303030303A7
:10112000030303030303030303030303030303038F
:10113000030303030303030303030303030303037F
:101140000303030303030303020202020202020277
:101150000202020202020202010101010101010177
:101160000101010101010101000000000000000077
:10117000000000000000000000000000000000006F
:101180000000000000000000010101010101010157
:101190000101010101010101020202020202020237
:1011A0000202020202020202030303030303030317
:1011B00003030303030303030303030303030303FF
:1011C00003030303030303030202020202020202F7
:1011D00002020202020202020101010101010101F7
:1011E00001010101010101010000000000000000F7
:1011F00000000000000000000000000000000000EF
:1012000000000000000000000101010101010101D6
:1012100001010101010101010202020202020202B6
:101220000202020202020202030303030303030396
:10123000030303030303030303030303030303037E
:10124000030303030303030303030303030303036E
:101250000303030303030303020202020202020266
:101260000202020202020202010101010101010166
:101270000101010101010101000000000000000066
:10128000000000000000000000000000000000005E
:101290000000000000000000010101010101010146
:1012A0000101010101010101020202020202020226
:1012B0000202020202020202030303030303030306
:1012C00003030303030303030303030303030303EE
:1012D00003030303030303030202020202020202E6
:1012E00002020202020202020101010101010101E6
:1012F00001010101010101010404040404040404C6
:1013000004040404040404040000000000000000BD
:1013100000000000000000000303030303030303B5
:10132000030303030303030303030303030303038D
:101330000303030303030303020202020202020285
:101340000202020202020202010101010101010185
:101350000101010101010101000000000000000085
:10136000000000000000000000000000000000007D
:101370000000000000000000010101010101010165
:101380000101010101010101020202020202020245
:101390000202020202020202030303030303030325
:1013A000030303030303030303030303030303030D
:1013B00003030303030303030303030303030303FD
:1013C00003030303030303030202020202020202F5
:1013D00002020202020202020101010101010101F5
:1013E00001010101010101010000000000000000F5
:1013F00000000000000000000000000000000000ED
:1014000000000000000000000101010101010101D4
:1014100001010101010101010202020202020202B4
:101420000202020202020202030303030303030394
:10143000030303030303030303030303030303037C
:101440000303030303030303020202020202020274
:101450000202020202020202010101010101010174
:101460000101010101010101000000000000000074
:10147000000000000000000000000000000000006C
:101480000000000000000000010101010101010154
:101490000101010101010101020202020202020234
:1014A0000202020202020202030303030303030314
:1014B00003030303030303030303030303030303FC
:1014C00003030303030303030303030303030303EC
:1014D00003030303030303030202020202020202E4
:1014E00002020202020202020101010101010101E4
:1014F00001010101010101010000000000000000E4
:1015000000000000000000000000000000000000DB
:1015100000000000000000000101010101010101C3
:1015200001010101010101010202020202020202A3
:101530000202020202020202030303030303030383
:10154000030303030303030303030303030303036B
:101550000303030303030303020202020202020263
:101560000202020202020202010101010101010163
:101570000101010101010101000000000000000063
:101580000000000000000000292929292929292913
:1015900029291414141414143D3D3D3D3D3D3D3D99
:1015A0003D3D1E1E1E1E1E1E00000000000000000D
:1015B0000000000000000000050001000100010023
:1015C0000100010001000100010001000100010013
:1015D0000100010001000100010001000100010003
:1015E00001000100010001000100010001000100F3
:1015F00001000100010001000100010001000100E3
:10160000010001000A000F00C800190019001900AC
:101610001900190019001900190019001900190002
:1016200019001900190019001900190019001900F2
:1016300019001900190019001900190019001900E2
:1016400019001900190019001900190019001900D2
:1016500019001900C8002C017DB3C7586C7E4831B1
:10166000A38D332F31C7CDCD7DB3C7586C7E4831A4
:10167000A38D332F31C7CDCD7DB3C7586C7E483194
:10168000A38D332F31C7CDCD82A5C9517386511F8C
:101690009395482C2891D1C984ABC5537589561CA4
:1016A00094984E2B299AD1CE84AFC357758B5B1B70
:1016B000989A572B2BA4D1D384B2C55B75895F1C34
:1016C0009D98612B30ACD1D582B3C95F7386601F02
:1016D000A195692B35B3D2D67FB2CE6270825F23DB
:1016E000A6916F2A39B6D2D67CAFD4646D7F5C28C0
:1016F000AA8E712A3BB7D2D67CAFD4646D7F5C28AA
:10170000AA8E712A3BB7D2D678ACD966697B582E9F
:10171000AA8A6F2A39B6D2D674A7DD6765785333A3
:10172000A9876A2B35B3D2D671A2E06662764D37AF
:10173000A785612B30ADD1D56F9DE16260764939C7
:10174000A385572B2BA4D1D37199E05D62764637E0
:101750009F854F2B299AD1CE7498DD5965784533F2
:101760009B87482C2892D1C97899D954697B462EF9
:10177000988A452C288CD0C57B9CD4506C7E4928F7
:10178000968D442C288AD0C37B9CD4506C7E4928EB
:10179000968D442C288AD0C382A5C9517386511FC7
:1017A0009395482C2891D1C984ABC5537589561C93
:1017B00094984E2B299AD1CE84AFC357758B5B1B5F
:1017C000989A572B2BA4D1D384B2C55B75895F1C23
:1017D0009D98612B30ACD1D582B3C95F7386601FF1
:1017E000A195692B35B3D2D67FB2CE6270825F23CA
:1017F000A6916F2A39B6D2D67CAFD4646D7F5C28AF
:10180000AA8E712A3BB7D2D67CAFD4646D7F5C2898
:10181000AA8E712A3BB7D2D678ACD966697B582E8E
:10182000AA8A6F2A39B6D2D674A7DD676578533392
:10183000A9876A2B35B3D2D671A2E06662764D379E
:10184000A785612B30ADD1D56F9DE16260764939B6
:10185000A385572B2BA4D1D37199E05D62764637CF
:101860009F854F2B299AD1CE7498DD5965784533E1
:101870009B87482C2892D1C97899D954697B462EE8
:10188000988A452C288CD0C57B9CD4506C7E4928E6
:10189000968D442C288AD0C37B9CD4506C7E4928DA
:1018A000968D442C288AD0C382A5C9517386511FB6
:1018B0009395482C2891D1C984ABC5537589561C82
:1018C00094984E2B299AD1CE7DA6E56A6C7E561748
:1018D000968D332F31C7CDCD7DB3C7586C7E48313F
:1018E000A38D332F31C7CDCD0404040404040404B4
:1018F00004040404040404040303030303030303B0
:1019000003030303030303030202020202020202AF
:10191000020202020202020203030303030303039F
:10192000030303030303030302020202020202028F
:10193000020202020202020201010101010101018F
:10194000010101010101010100000000000000008F
:101950000000000000000000000000000000000087
:10196000000000000000000001010101010101016F
:10197000010101010101010102020202020202024F
:10198000020202020202020203030303030303032F
:101990000303030303030303030303030303030317
:1019A0000303030303030303030303030303030307
:1019B00003030303030303030202020202020202FF
:1019C00002020202020202020101010101010101FF
:1019D00001010101010101010000000000000000FF
:1019E00000000000000000000000000000000000F7
:1019F00000000000000000000101010101010101DF
:101A000001010101010101010202020202020202BE
:101A1000020202020202020203030303030303039E
:101A20000303030303030303030303030303030386
:101A3000030303030303030302020202020202027E
:101A4000020202020202020201010101010101017E
:101A5000010101010101010100000000000000007E
:101A60000000000000000000000000000000000076
:101A7000000000000000000001010101010101015E
:101A8000010101010101010102020202020202023E
:101A9000020202020202020203030303030303031E
:101AA0000303030303030303030303030303030306
:101AB00003030303030303030303030303030303F6
:101AC00003030303030303030202020202020202EE
:101AD00002020202020202020101010101010101EE
:101AE00001010101010101010000000000000000EE
:101AF00000000000000000000000000000000000E6
:101B000000000000000000000101010101010101CD
:101B100001010101010101010202020202020202AD
:101B2000020202020202020203030303030303038D
:101B30000303030303030303030303030303030375
:101B4000030303030303030302020202020202026D
:101B5000020202020202020201010101010101016D
:101B6000010101010101010102020202020202025D
:101B70000202020202020202040404040404040435
:101B80000404040404040404000000000000000035
:101B90000000000000000000000000000000000045
:101BA0000000000000000000000000000000000035
:101BB000000000000000000003030303030303030D
:101BC00003030303030303030202020202020202ED
:101BD00002020202020202020101010101010101ED
:101BE00001010101010101010000000000000000ED
:101BF00000000000000000000000000000000000E5
:101C000000000000000000000101010101010101CC
:101C100001010101010101010202020202020202AC
:101C2000020202020202020203030303030303038C
:101C30000303030303030303030303030303030374
:101C40000303030303030303030303030303030364
:101C5000030303030303030302020202020202025C
:101C6000020202020202020201010101010101015C
:101C7000010101010101010100000000000000005C
:101C80000000000000000000000000000000000054
:101C9000000000000000000001010101010101013C
:101CA000010101010101010102020202020202021C
:101CB00002020202020202020303030303030303FC
:101CC00003030303030303030303030303030303E4
:101CD00003030303030303030202020202020202DC
:101CE00002020202020202020101010101010101DC
:101CF00001010101010101010000000000000000DC
:101D000000000000000000000000000000000000D3
:101D100000000000000000000101010101010101BB
:101D2000010101010101010102020202020202029B
:101D3000020202020202020203030303030303037B
:101D40000303030303030303030303030303030363
:101D50000303030303030303030303030303030353
:101D6000030303030303030302020202020202024B
:101D7000020202020202020201010101010101014B
:101D8000010101010101010100000000000000004B
:101D90000000000000000000000000000000000043
:101DA000000000000000000001010101010101012B
:101DB000010101010101010102020202020202020B
:101DC00002020202020202020303030303030303EB
:101DD00003030303030303030303030303030303D3
:101DE00003030303030303030202020202020202CB
:101DF00002020202020202020101010101010101CB
:101E000001010101010101010000000000000000CA
:101E100000000000000000000000000000000000C2
:101E2000000000000000000029292929292929296A
:101E300029291414141414143D3D3D3D3D3D3D3DF0
:101E40003D3D1E1E1E1E1E1E000000000000000064
:101E50000000000000000000050014000100010067
:101E6000010001000100010001000100010001006A
:101E7000010001000100010001000100010001005A
:101E8000010001000100010001000100010001004A
:101E9000010001000100010001000100010001003A
:101EA00001000100010001000A0014002C01900152
:101EB000190019001900190019001900190019005A
:101EC000190019001900190019001900190019004A
:101ED000190019001900190019001900190019003A
:101EE000190019001900190019001900190019002A
:101EF000190019001900190019001900900190012A
:101F00007DB3C7586C7E4831A38D332F31C7CDCDFB
:101F10007DB3C7586C7E4831A38D332F31C7CDCDEB
:101F20007DA0DC6B6C7E581F928D332F31C7CDCDD9
:101F30007899DA58697B482E978A392B33AED2D6F6
:101F40007497DF5B657846349B873A2B30B1D2D6E5
:101F50007098E25E61774639A0863B2B2DB6D2D6CB
:101F60006F9BE3636076483CA5853F2B29BCD1D5A8
:101F700070A0E26661764C3AA785442C28BFD1D187
:101F800073A5DF6864785234A887492C28C1D1CE64
:101F900078A9DA68697B582EA78A4D2C28C2D1CB44
:101FA0007BADD4676C7E5C28A58D4E2B28C2D1CA30
:101FB0007BADD4676C7E5C28A58D4E2B28C2D1CA20
:101FC0007FB0CE6370825F22A2914D2C28C2D1CB0C
:101FD00082B2C85F7386611D9F954A2C28C1D1CEFD
:101FE00083B2C35A748A601A9C99452C28C0D1D1F7
:101FF00084B0C055758B5D19979A3F2B29BCD1D5FC
:1020000084ACC253758A581A94993C2B2DB7D2D6FA
:1020100082A6C8527387531D92963A2B30B2D2D6FD
:102020007FA0CE5370824F229291392B33AED2D6FD
:102030007C9CD4556D7F4B28938E392B34ADD1D6F3
:102040007C9CD4556D7F4B28938E392B34ADD1D6E3
:102050007497DF5B657846349B873A2B30B1D2D6D4
:102060007098E25E61774639A0863B2B2DB6D2D6BA
:102070006F9BE3636076483CA5853F2B29BCD1D597
:1020800070A0E26661764C3AA785442C28BFD1D176
:1020900073A5DF6864785234A887492C28C1D1CE53
:1020A00078A9DA68697B582EA78A4D2C28C2D1CB33
:1020B0007BADD4676C7E5C28A58D4E2B28C2D1CA1F
:1020C0007BADD4676C7E5C28A58D4E2B28C2D1CA0F
:1020D0007FB0CE6370825F22A2914D2C28C2D1CBFB
:1020E00082B2C85F7386611D9F954A2C28C1D1CEEC
:1020F00083B2C35A748A601A9C99452C28C0D1D1E6
:1021000084B0C055758B5D19979A3F2B29BCD1D5EA
:1021100084ACC253758A581A94993C2B2DB7D2D6E9
:1021200082A6C8527387531D92963A2B30B2D2D6EC
:102130007FA0CE5370824F229291392B33AED2D6EC
:102140007C9CD4556D7F4B28938E392B34ADD1D6E2
:102150007C9CD4556D7F4B28938E392B34ADD1D6D2
:102160007497DF5B657846349B873A2B30B1D2D6C3
:102170007098E25E61774639A0863B2B2DB6D2D6A9
:102180006F9BE3636076483CA5853F2B29BCD1D586
:102190006F9BE362607659199B853F2B29BCD1D593
:1021A0007DB3C7586C7E4831A38D332F31C7CDCD59
:1021B00014141414141414141414141414141414DF
:1021C0001E1E1E1E1E1E1E1E1E1E1E1E1E1E1E1E2F
:1021D00000000000000000000000000000000000FF
:1021E00001000100010001000100010014001400C1
:1021F00040011400400114007DB3C7586C7E483183
:10220000A38D332F31C7CDCD7DB3C7586C7E4831F8
:10221000A38D332F31C7CDCD73B3C7585F74483109
:10222000A380332F31C7CDCD63DBCE8254724339C7
:10223000A17B22556E76C3C96581CB2B557824517D
:10224000B47E82314CCFC7E46581CB2A55782451C6
:10225000B47B82314CCFC7E47DB3C7586C7E483124
:10226000A38D332F31C7CDCD02020202020202023A
:102270000202020202020202020202020200020240
:102280000200020202020202000000000000000040
:10229000000000000000000000000000000000003E
:1022A000000000000000000000000000000000002E
:1022B000000000000000000002020202020202020E
:1022C00002020202020202020000000000000000FE
:1022D00000000000000000000000000000000000FE
:1022E00000000000000000000000000000000000EE
:1022F00000000000000000000000000000000000DE
:1023000000000000000000000000000000000000CD
:1023100000000000000000000000000000000000BD
:10232000000000000000000014141414141414140D
:1023300014141414141414141E1E1E1E1E1E1E1E0D
:102340001E1E1E1E1E1E1E1E00000000000000009D
:102350000000000000000000010001000100010079
:1023600001000A001400140040011400A401DC0064
:102370007DB3C7586C7E4831A38D332F31C7CDCD87
:102380007DB3C7586C7E4831A38D332F31C7CDCD77
:1023900087B3C75879884831A39A332F31C7CDCD39
:1023A00089B8BF5A7E98202A78A5843935D8A79055
:1023B00083C4B64F7A967A2DD0A42B355078CBB201
:1023C00083C4B64F80967A2DD0A42B355078CBB2EB
:1023D0007DB3C7586C7E4831A38D332F31C7CDCD27
:1023E00002020202020202020202020202020202CD
:1023F00002020202020202020202020202020202BD
:1024000000020202000202020202020202020202B0
:1024100000000000000000000000000000000000BC
:1024200000000000000000000000000000000000AC
:10243000020202020202020202020202020202027C
:10244000000000000000000000000000000000008C
:10245000000000000000000000000000000000007C
:10246000000000000000000000000000000000006C
:10247000000000000000000000000000000000005C
:10248000000000000000000000000000000000004C
:10249000000000000000000000000000000000003C
:1024A0002828282828282828282814141414141424
:1024B0003C3C3C3C3C3C3C3C3C3C1E1E1E1E1E1E10
:1024C000000000000000000000000000000000000C
:1024D00005000100010003006400DC0064003C0012
:1024E0007DA8C7556C7E532FA78F332F31C7CDCD15
:1024F0006B92E9635F6C641B9F83383E28A6CED045
:102500006B96E9665F8F5726A18C383E28A6CED001
:102510007E96DE5C6B7D621B9F904F2C28A6CED0F2
:102520007DA5C7556C7E552FA78F332F31C7CDCDD5
:10253000020202020202020202020202020202027B
:10254000020202020200000000000303030303036F
:102550000000000000000000000004040404040364
:10256000040404040404040404040404040404042B
:10257000000000000000000000000000000000005B
:102580000101010101000000000001010100000043
:10259000000000000000000000000000000000003B
:1025A000000000000000000000000000000000002B
:1025B0002828282828282828282814141414141413
:1025C0003C3C3C3C3C3C3C3C3C3C1E1E1E1E1E1EFF
:1025D00000000000000000000000000000000000FB
:1025E00005000100010003006400DC0064003C0001
:1025F0007DA5C7556C7E572FA78F332F31C7CDCD03
:102600008B96E661788E65109A9C4F2C28B7BCD0CB
:10261000649AE0616B8E64139AA14F2C28B7BCD0EA
:10262000799ADE5F5D7D5E209C904F2C28A6CED0EF
:102630007DA7C7556C7E542FA78F332F31C7CDCDC3
:10264000020202020202020202020202020202026A
:102650000000000000020202020204040404040458
:102660000000000000020202020204040404040448
:10267000040404040404040404040404040404041A
:10268000000000000000000000000000000000004A
:102690000000000000010101010100000001010132
:1026A000000000000000000000000000000000002A
:1026B000000000000000000000000000000000001A
:1026C00014141414141414141414141414141414CA
:1026D0001E1E1E1E1E1E1E1E1E1E1E1E1E1E1E1E1A
:1026E00000000000000000000000000000000000EA
:1026F0000100010001000A000A0014000802400164
:102700002C0108027DB3C7586C7E4831A38D332F4E
:1027100031C7CDCD7DB3C7586C7E4831A38D332FE3
:1027200031C7CDCD7D5ECD596C7A9933A88C0A67BF
:1027300069F1928F77DFF9726B7C1D028E8F0B31FE
:1027400069E9CA8B7DB9F9826C7C43017C912D418A
:1027500045C9BDAF7DB3C7586C7E4831A38D332FBB
:1027600031C7CDCD020202020202020202020202BF
:102770000202020202020202020202020202020239
:102780000202020200000000000000000000000041
:102790000000000000000000000000000000000039
:1027A0000000000002020202020202020202020211
:1027B0000202020200000000000000000000000011
:1027C0000000000000000000000000000000000009
:1027D00000000000000000000000000000000000F9
:1027E00000000000000000000000000000000000E9
:1027F00000000000000000000000000000000000D9
:1028000000000000141414141414141414141414D8
:10281000141414141E1E1E1E1E1E1E1E1E1E1E1E00
:102820001E1E1E1E00000000000000000000000030
:102830000000000001000100010001001E00140062
:10284000DC00A4015E0158027DB3C7586C7E48319C
:10285000A38D332F31C7CDCD7DB3C7586C7E4831A2
:10286000A38D332F31C7CDCD7AB3C8576C7A46309C
:10287000A38D14832AEE6FC97A85C86E6780762F80
:102880008D8D16C86CE82F857459ED516884A010A1
:10289000AD9201D277FE27797DB3C7586C7E48315F
:1028A000A38D332F31C7CDCD0202020202020202F4
:1028B0000202020202020202000000000000000008
:1028C0000000000000000000000000000000000008
:1028D00000000000000000000000000000000000F8
:1028E00000000000000000000202020202020202D8
:1028F00002020202020202020000000000000000C8
:1029000000000000000000000000000000000000C7
:1029100000000000000000000000000000000000B7
:1029200000000000000000000000000000000000A7
:102930000000000000000000000000000000000097
:1029400000000000000000001414141414141414E7
:1029500014141414141414141E1E1E1E1E1E1E1EE7
:102960001E1E1E1E1E1E1E1E000000000000000077
:1029700000000000000000000A0028000A002800F3
:10298000F401E803D007E8037DB3C7586C7E4831F3
:10299000A38D332F31C7CDCD7DB3C7586C7E483161
:1029A000A38D332F31C7CDCD7D93F76A6C7E66043E
:1029B000918D332F31C7CDCD7D93F76A6C7E660440
:1029C000918D332F31C7CDCD7DB3C7586C7E483143
:1029D000A38D332F31C7CDCD0202020202020202C3
:1029E00002020202020202020202020202020202C7
:1029F00002020202020202020000000000000000C7
:102A000000000000000000000404040404040404A6
:102A10000404040404040404000000000000000096
:102A2000000000000000000001010101010101019E
:102A30000101010101010101030303030303030376
:102A4000030303030303030300000000000000006E
:102A500000000000000000001414141414141414D6
:102A600014141414141414141E1E1E1E1E1E1E1ED6
:102A70001E1E1E1E1E1E1E1E000000000000000066
:102A800000000000000000000A0028000A000A0000
:102A90002800F401E803F401F401E8037DB3C7580A
:102AA0006C7E4831A38D332F31C7CDCD7DB3C75850
:102AB0006C7E4831A38D332F31C7CDCD7DB3C75840
:102AC0006C7E4831A38DBB3A2EC7CDCD7DB3C758A0
:102AD0006C7E4831A38DBA672EC7CDCD7DB3C75864
:102AE0006C7E4831A38DBB3A2EC7CDCD7DB3C75880
:102AF0006C7E4831A38D332F31C7CDCD0202020247
:102B000002020202020202020202020202020202A5
:102B10000202020202020202020202020202020295
:102B20000202020202020202020202020202020285
:102B3000020202020202020202020202040404046D
:102B40000404040404040404040404040000000055
:102B50000000000000000000000000000000000075
:102B60000000000000000000000000000000000065
:102B70000000000000000000000000000000000055
:102B80000000000000000000000000000000000045
:102B900000000000000000000000000014141414E5
:102BA0001414141414141414141414141E1E1E1EBD
:102BB0001E1E1E1E1E1E1E1E1E1E1E1E00000000AD
:102BC00000000000000000000000000028000A00D3
:102BD00014001400010001000A000A00190014008A
:102BE00014001E008403C8009001900178000802C0
:102BF00090019001F4019001900158027DB3C758F3
:102C00006C7E4831A38D332F31C7CDCD7DB3C758EE
:102C10006C7E4831A38D332F31C7CDCD7DB0F77990
:102C20006C7E4702828D332F31C7CDCD81B4EC6AE3
:102C30004B8B4702827403324DEF9DA033B4EC6A94
:102C40005F8B4702827401324AE89EA03398ED2DD3
:102C50005F8B47028274023231E898A03385952D4C
:102C60005F8B47028274023233E88FA0338EEA30E2
:102C70005F8B47028274023231E89AA07BC2D2563F
:102C8000528B47028274023231E895A084CADC6913
:102C90005B903F047D8A443431E8AAA07BAEF8768D
:102CA0006A814C04878F343231DBC2D57B9BF87646
:102CB0006A815F04878F343231DBC2D57DB3C75858
:102CC0006C7E4831A38D332F31C7CDCD040404046D
:102CD00004040404040404040404040404040404B4
:102CE00004040404040404040404040404040404A4
:102CF0000404040404040404040404040404040494
:102D00000404040404040404040404040000000093
:102D10000004040404040404040404040000000087
:102D20000004040404040404040404040000000077
:102D30000004040404040404040404040404040358
:102D40000404040404040404040404040404040344
:102D50000404040404040404040404040404040334
:102D60000404040404040404040404040404040324
:102D70000404040404040404040404040404040413
:102D80000404040404040404040404040000000013
:102D9000000000000000000000000000020202022B
:102DA0000200000000000000000000000000000021
:102DB000000000000000000000000000020202020B
:102DC00002000000000000000000000003030303F5
:102DD00003000000000000000000000003030303E4
:102DE00003000000000000000000000002020202D8
:102DF00002000000000000000000000002020202C9
:102E000002000000000000000000000000000000C0
:102E100000000000000000000000000000000000B2
:102E200000000000000000000000000000000000A2
:102E30000000000000000000000000000000000092
:102E400000000000000000000000000028282828E2
:102E50002828282828281414141414143C3C3C3C1A
:102E60003C3C3C3C3C3C1E1E1E1E1E1E0000000046
:102E7000000000000000000000000000140014002A
:102E800014001400140014001400010001000A00D2
:102E900028000F000F000500320032003200010050
:102EA0002D002D000A000A000A000A002D000A0069
:102EB0000A000A000A002D0050001E000F000F003B
:102EC0000F000F000F000F000F000F00840384039A
:102ED0008403840384038403840308020802F40146
:102EE0004006580258023408FC03FC03FC03E407C4
:102EF00084038403F401F401F401F4018403F40174
:102F0000F401F401F401840340064006580258021B
:102F10005802580258025802580258027DB3C75846
:102F20006C7E4831A38D332F31C7CDCD7DB3C758CB
:102F30006C7E4831A38D332F31C7CDCD7CB5F77C66
:102F40006C7E47047F8D332F31C7CDCD7C77F77CE6
:102F50006C7E83047F8D87304C6CCDA77C4EF77CD4
:102F60006C7EB9047F8D8730046CCDEF79DDFA6813
:102F70006C7E9F429B8DBE300436CDEF79DDFA68C2
:102F80006C7E9F5AC68DCE390835B6F479DDFA6865
:102F90006C7E9F42B98DBE30040F5E8D79DDFA687C
:102FA0006C7E9F42B98DBE3004AE7D8D79DDFA68AE
:102FB0006C7E9F42B98DBE3004B472E379DDFA684D
:102FC0006C7E9F6CCA8DCD3004AB32CA369FFA68D6
:102FD0006C7E1C0E9C8DCD3004AB32CA7E9FFA688D
:102FE0006C811C0E9C8DCD2B049728E67EC6C66D89
:102FF0006C81373E9C8DCD2B049728E658D9817E75
:103000006CA71C717F8DCD2B049728E635D9897E5E
:103010006CC41C717F8DCD2B049728E616D98A7E4F
:103020006CEA1C717F8DCD2B049728E658D9867EDB
:103030006CA71C717F8DCD2B049728E658D9867E0E
:103040006CA71C717F8DCD2B049728E67CC2F76D91
:103050006B8138049390CD2B049728E67CCBD96DF7
:103060006B812F239390CD2B049728E67CB0B2611F
:103070006B811D149390CF2B048F28E67CBDCB6110
:103080006B8116319390CD2B049728E67CD8C962CA
:103090006B813C2A9F90CD2B049728E67CE4D26874
:1030A0006B81533AB390CD2B049728E67CCBD96D36
:1030B0006B812F239390CD2B049728E67CB0B261CF
:1030C0006B811D149390CF2B048F28E67CBDCB61C0
:1030D0006B8116319390CD2B049728E67CD8C9627A
:1030E0006B813C2A9F90CD2B049728E67CE4D26824
:1030F0006B81533AB390CD2B049728E67CCBD96DE6
:103100006B812F239390CD2B049728E681BFF76D19
:103110006B829A798390CD2B049728E6815E813A61
:103120006E80A271C488CD4E049779E6815E8A3B99
:103130006E809978C488CD4E04C2848D815C8139BB
:103140006E80A279C488CD4E0440848D815A843823
:103150006E80A279C488D0242E34D0DE815EB7641C
:103160006E80A26EBA88A72D575ACAA78157C54745
:103170006E80A239BA8F822D5374CBA7817DC5474B
:103180006E80783BB88F8F245974CBA77BA6DF5E07
:103190006A7D5123A28D8F245974CBA77DB3C75864
:1031A0006C7E4831A38D332F31C7CDCD0404040488
:1031B00004040404040404040404040404040404CF
:1031C00004040404040404040404040404040404BF
:1031D00004040404040404040404040404040404AF
:1031E000040404040404040404040404040404049F
:1031F0000404040400000404040404040404040497
:103200000404040400000404040404040404040486
:103210000404040400000404040404040404040476
:103220000404040400000101010101010404040478
:103230000404040400000101010101010404040468
:103240000404040400000101010101010101010164
:103250000101010100000101010101010101010160
:103260000101010100000101010101010404040444
:103270000404040400000404040404040404040416
:103280000404040400000101010101010000000028
:10329000000000000000000000000000000000002E
:1032A000000000000000000000000000000000001E
:1032B000000000000000000000000000000000000E
:1032C00000000000000000000000000002020202F6
:1032D00002020202020204040404040402020202C2
:1032E00002020202020204040404040402020202B2
:1032F00002020202020204040404040402020202A2
:103300000202020202020404040404040202020291
:103310000202020202020404040404040202020281
:103320000202020202020404040404040202020271
:103330000202020202020404040404040202020261
:103340000202020202020404040404040202020251
:103350000202020202020404040404040202020241
:103360000202020202020404040404040202020231
:103370000202020202020404040404040202020221
:103380000202020202020404040404040202020211
:103390000202020202020404040404040202020201
:1033A00002020202020204040404040402020202F1
:1033B00002020202020204040404040402020202E1
:1033C00002020202020204040404040402020202D1
:1033D00002020202020204040404040402020202C1
:1033E00002020202020204040404040402020202B1
:1033F00002020202020204040404040402020202A1
:103400000202020202020404040404040202020290
:103410000202020202020404040404040202020280
:103420000202020202020404040404040000000078
:10343000000000000000000000000000000000008C
:10344000000000000000000000000000000000007C
:10345000000000000000000000000000000000006C
:10346000000000000000000000000000000000005C
:10347000000000000000000000000000000000004C
:10348000000000000000000000000000000000003C
:10349000000000000000000000000000000000002C
:1034A000000000000000000000000000000000001C
:1034B000000000000000000000000000000000000C
:1034C00000000000000000000000000000000000FC
:1034D00000000000000000000000000000000000EC
:1034E00000000000000000000000000000000000DC
:1034F00000000000000000000000000001010101C8
:1035000001010101010101010101010103030303A3
:103510000303030303030303030303030101010183
:10352000010101010101010101010101000000008F
:10353000000000000000000000000000030303037F
:103540000303030303030303030303030000000057
:103550000000000000000000000000000000020069
:103560000000000200000000000000000000000059
:103570000000000000000000000000000003000048
:103580000300030000030000000000000200000030
:103590000002000000000000000000000000000029
:1035A000000000000000000000000000000000001B
:1035B000000000000000000000000000000000000B
:1035C00000000000000000000000000000000000FB
:1035D00000000000000000000000000000000000EB
:1035E00000000000000000000000000000000000DB
:1035F00000000000000000000000000000000000CB
:1036000000000000000000000000000000000000BA
:1036100000000000000000000000000000000000AA
:10362000000000000000000000000000000000009A
:10363000000000000000000000000000000000008A
:10364000000000000000000000000000000000007A
:10365000000000000000000000000000000000006A
:10366000000000000000000000000000000000005A
:10367000000000000000000000000000000000004A
:10368000000000000000000000000000000000003A
:10369000000000000000000000000000000000002A
:1036A0000000000000000000000000004255533DF3
:1036B00025640D0A000011241FBECFEFD0E1DEBF4C
:1036C000CDBF17E0A0E0B1E0E0E4F8EB00E00BBF15
:1036D00002C007900D92AA36B107D9F71AE0AAE600
:1036E000B7E001C01D92AB3EB107E1F70E94231E77
:1036F0000C941E5C0C9400008091130890911408A7
:10370000883C910510F4DA9813C0809113089091C9
:103710001408893C910558F0809113089091140881
:103720008059914020F4DA9ADB9ADC980895DA9A6D
:10373000DB9ADC9A08959093100880930F0880918B
:103740000F0890911008892BD1F708951F920F92BE
:103750000FB60F9211240F900FBE0F901F90189567
:103760008091FF07882311F18091370890913808E4
:103770008C51954228F010921E0810921D0809C025
:1037800080911D0890911E08019690931E088093C9
:103790001D0880911D0890911E08079768F11092EE
:1037A000FF0710921E0810921D0808958091370897
:1037B000909138088C51954270F010921E0810922A
:1037C0001D088091090890910A08019690930A08B3
:1037D0008093090804C010920A0810920908809189
:1037E000090890910A08039738F081E08093FF0759
:1037F00010920A0810920908089589B383708130E5
:1038000089F48AE090E09093100880930F088091EB
:103810000F0890911008892BD1F7C89B03C081E055
:1038200080930B0889B38370823099F48AE090E02A
:103830009093100880930F0880910F0890911008C2
:10384000892BD1F789B38370823019F483E0809398
:103850000B08089593E09BBB8CEF8ABB18BA84E7F2
:1038600087BB15BA40E844BB92BB11BA80E783B965
:1038700088E082B910926200109261001092650097
:1038800084E08093640010BE83BF12BE11BE1FBCD3
:1038900085E08EBD1DBC1CBC17BC16BC1BBC1ABC75
:1038A00019BC18BC109279001092780085BD14BC28
:1038B00013BC10928B0090938A0010928900109292
:1038C0008800109281001092800010928700109260
:1038D000860010928500109284001092830010924E
:1038E000820010926A0030E23ABF80E489BF17BEBE
:1038F00010927D001BB828E12AB996E090939500BC
:103900001092900087E089B910929B0020939A0052
:1039100090939D00109298008093990048B910BC34
:1039200037B916B8109274000895DA9ADB9ADC9AC7
:10393000E5E6F0E0808184608083AF9ADD9ADE9ACC
:10394000DF9AC598109254081092560810921408E5
:103950001092130810920E08109202081092060896
:103960000895BF92CF92DF92EF92FF920F931F9331
:10397000CF93DF9381E08093030885E090E09093FC
:103980001C0880931B0897EBC92E91E0D92EBB240D
:10399000B39488E2E82EF12C0CEC11E0C4EFD1E0F6
:1039A00059C080910E0865E00E94CE5A9923B9F45F
:1039B00080910E082091020890E09F938F9330E051
:1039C0003F932F93DF92CF92BF920E942B228DB70D
:1039D0009EB707960FB6F8949EBF0FBE8DBFAF9AE5
:1039E000809165008B7F809365000E94A5240E94D2
:1039F000B01B8091FF078823A1F1C49AF0921008B0
:103A0000E0920F0880910F0890911008892BD1F750
:103A1000C4981093100800930F0880910F0890919C
:103A20001008892BD1F78091650084608093650030
:103A30000E94A5240E94B01B8091FF07882389F073
:103A4000D0931008C0930F0880910F089091100830
:103A5000892BD1F780911B0890911C08892B09F0C4
:103A6000A0CF85E590E090931C0880931B08CDE9DA
:103A7000D1E011E045C080910E0865E00E94CE5A69
:103A80009923B9F480910E082091020890E09F9349
:103A90008F9330E03F932F93DF93CF931F930E9438
:103AA0002B228DB79EB707960FB6F8949EBF0FBE18
:103AB0008DBFAF9A80910C0890910D08855F914061
:103AC00020F0809165008B7F03C080916500846049
:103AD0008093650080910C0890910D08892B39F036
:103AE00080910C0890910D08845F914021F40E9410
:103AF000A5240E94B01B8091FF07882341F0C49A3F
:103B000080911B0890911C08892B09F0B4CFC498B0
:103B10001092030886E991E09F938F9381E08F9341
:103B20000E942B220F900F900F90DF91CF911F9149
:103B30000F91FF90EF90DF90CF90BF900895DF92AC
:103B4000EF92FF920F931F93CF93DF9320910B0877
:103B5000213009F070C010920B088EE791E09F931E
:103B60008F932F930E942B22C0E0D0E00F900F90F4
:103B70000F9002E310E028E7E22E21E0F22EDD2490
:103B8000D394AF981093100800930F0880910F08FA
:103B900090911008892BD1F70E94A5240E94B01B98
:103BA00080913708909138089F938F93FF92EF92FE
:103BB000DF920E942B22AF9A1093100800930F08F7
:103BC0000F900F900F900F900F9080910F08909191
:103BD0001008892BD1F72196CA30D10591F6809132
:103BE000FF078823E1F080E691E09F938F9311E037
:103BF0001F930E942B220E9448450E94B11C85E51C
:103C000091E09F938F931F930E942B228DB79EB7B5
:103C100006960FB6F8949EBF0FBE8DBF0CC084E40D
:103C200091E09F938F9381E08F930E942B22AF9816
:103C30000F900F900F90DF91CF911F910F91FF90F8
:103C4000EF90DF9008950E942A1C0E94951C0E940C
:103C5000062060E072EC81E090E00E94F21E85E1B7
:103C60009FE10E94D020789487B7816087BF8091C0
:103C700065008B7F809365000E9444260E94FD1B97
:103C80000E949F1D0E94BA3FFFCF1F920F920FB656
:103C90000F920BB60F9211242F933F934F935F9384
:103CA0006F937F938F939F93AF93BF93EF93FF9304
:103CB00089E182BF8091210890912208019690931A
:103CC00022088093210880910F0890911008892B79
:103CD00049F080910F089091100801979093100877
:103CE00080930F080E947C1B8091EF07882371F05E
:103CF000809113089091140883709070892B31F48F
:103D00008FE080934B088CED0E94CD2380911308A7
:103D10009091140801969093140880931308809151
:103D2000130890911408885E934008F443C01092E1
:103D30001408109213088091110890911208892B91
:103D400049F0809111089091120801979093120800
:103D50008093110880910E088F5F80930E088091E8
:103D60000E088C3338F110920E0880911B08909148
:103D70001C08892B49F080911B0890911C08019721
:103D800090931C0880931B08809102088F5F80939A
:103D90000208809102088C3368F01092020880912A
:103DA00006088F5F8093060880910608883110F01E
:103DB00010920608FF91EF91BF91AF919F918F9163
:103DC0007F916F915F914F913F912F910F900BBE1B
:103DD0000F900FBE0F901F9018959093EB07809354
:103DE000EA0708959B01AC016B54704E834E9F4FC0
:103DF000F3E0660F771F881F991FFA95D1F7E4E06B
:103E0000220F331F441F551FEA95D1F70E94015B13
:103E1000215030402093990030939800089584E217
:103E200098E008958DE298E00895982F80912308F6
:103E30008823E1F390939C00109223080895109238
:103E4000290810922808089580912808909129083F
:103E5000892B11F080E008958FEF08951F920F9243
:103E60000FB60F920BB60F9211242F933F934F93DF
:103E70005F936F937F938F939F93AF93BF93EF93D2
:103E8000FF9360919C008091EA079091EB07892B4A
:103E900039F0E091EA07F091EB07862F09950FC002
:103EA00084E298E00E949620882349F480913508A6
:103EB0009091360801969093360880933508FF91CB
:103EC000EF91BF91AF919F918F917F916F915F9192
:103ED0004F913F912F910F900BBE0F900FBE0F90FF
:103EE0001F901895682F8DE298E00E949620089503
:103EF0001F920F920FB60F920BB60F9211242F93B1
:103F00003F934F935F936F937F938F939F93AF9361
:103F1000BF93EF93FF9380912C08882379F08091D1
:103F2000310890913208892B39F08DE298E00E9497
:103F30002D2080939C0005C010922C088FEF809359
:103F40002308FF91EF91BF91AF919F918F917F9146
:103F50006F915F914F913F912F910F900BBE0F90FA
:103F60000FBE0F901F9018958FEF80932C088DE255
:103F700098E00E942D20982F809123088823E1F358
:103F800090939C00109223080895CF93DF93EC0147
:103F90008091260890912708892B69F08091280844
:103FA00090912908892B39F084E298E00E942D2015
:103FB00088838FEF01C080E0DF91CF910895DF9378
:103FC000CF930F92CDB7DEB7CE0101960E94C51FE9
:103FD000882319F42FEF3FEF03C08981282F30E0A9
:103FE000C9010F90CF91DF91089540E450E06AE657
:103FF00077E084E298E00E94202040E450E06AEA02
:1040000077E08DE298E00E94202008950E94F51F3D
:104010001092EB071092EA0788ED80939A0060E80F
:1040200075E280E090E00E94F21E8FEF80932308FB
:1040300010922C0810923608109235087894089542
:10404000FC018FB7F8947183608353834283178296
:104050001682158214828FBF0895DC014FB7F89441
:1040600014968D919C911597892B11F4E0E025C051
:1040700016968D919C911797ED91FC911197E80FF1
:10408000F91FE081019617969C938E9316971296CE
:104090002D913C9113978217930730F0821B930B5D
:1040A00017969C938E93169714968D919C911597C5
:1040B000019715969C938E9314974FBF8E2F08955A
:1040C000FC014FB7F8948481958168177907B0F4A3
:1040D00086819781860F971F9783868322813381FC
:1040E0008217930720F0821B930B9783868384812A
:1040F0009581861B970B9583848302C01582148259
:104100004FBF0895FC01CB012FB7F8942FBF268134
:10411000378162817381820F931F0E94DA5A019066
:10412000F081E02DE80FF91F808108951F93CF9350
:10413000DF93EC01162F4FB7F8942C813D816A81F3
:104140007B812617370798F48E819F81820F931FFA
:104150000E94DA5AE881F981E80FF91F10838C81F7
:104160009D8101969D838C834FBF8FEF02C04FBF0F
:1041700080E0DF91CF911F910895FC018FB7F894F3
:104180008FBF2281338184819581281B390BC9011E
:104190000895FC018FB7F894158214828FBF08959B
:1041A0009093ED078093EC0708951F93182F8A30A2
:1041B00031F4E091EC07F091ED078DE00995E09185
:1041C000EC07F091ED07812F09951F910895CF938A
:1041D000DF93EC01009721F406C021960E94D520C0
:1041E00088818823D1F7DF91CF910895EF92FF92D4
:1041F0000F931F93CF93DF938C017A010097E9F01F
:1042000020E030E02617370738F4F80181918F015C
:104210002F5F3F4F8823B1F7C0E0D0E00BC0F8011B
:104220008081882319F00F5F1F4F01C080E20E9438
:10423000D5202196CE15DF0590F3DF91CF911F9108
:104240000F91FF90EF900895CF93DF93EC010097CB
:1042500019F407C00E94D520FE012196849188237D
:10426000C9F7DF91CF9108958AE00E94D520089583
:10427000E82FF0E0EF70F070E852FE4FE4918E2FDF
:104280000E94D52008951F93182F82958F700E9449
:104290003821812F0E9438211F9108951F93182FD4
:1042A000892F0E944321812F0E9443211F9108954D
:1042B000EF92FF920F931F937B018C01C801AA27F5
:1042C000BB270E944E21C7010E944E211F910F91D2
:1042D000FF90EF9008952F923F924F925F926F92CE
:1042E0007F928F929F92AF92BF92CF92DF92EF9286
:1042F000FF920F931F93DF93CF93CDB7DEB7A397B2
:104300000FB6F894DEBF0FBECDBF6AA3242E2BA339
:1043100037014801442351F017FF08C0EE24FF2461
:104320008701E618F7080809190902C0840173011A
:104330002AA1215090E0211091E0291B29A318A265
:10434000A82EBB24CC24DD24C801B701A601950109
:104350000E94015BFB01EF70F070E852FE4F649128
:104360006F8FC801B701A60195010E94015BC901C9
:10437000DA017C018D019EE1492E512C4C0E5D1E0F
:1043800039A025C0E114F10401051105C9F0C801E7
:10439000B701A60195010E94015BFB01EF70F0706F
:1043A000E852FE4F6491F2016083C801B701A60193
:1043B00095010E94015BC901DA017C018D0103C0F6
:1043C0002BA1F20120833A9408944108510833202C
:1043D000C9F6CE014F968C01E9A10E1B11092220CE
:1043E000F1F097FE05C08DE2F80182938F0117C0AE
:1043F000C8010197611471048104910419F08C01C2
:104400008BE202C08C0180E2F801808308C0F801D1
:1044100081918F010E94D520FAA1F150FAA32AA11F
:104420002223A9F7A3960FB6F894DEBF0FBECDBF27
:10443000CF91DF911F910F91FF90EF90DF90CF9080
:10444000BF90AF909F908F907F906F905F904F90B4
:104450003F902F9008957F928F929F92AF92BF923C
:10446000CF92DF92EF92FF920F931F93DF93CF9340
:10447000CDB7DEB77888C988DA8853E1E52EF12C0C
:10448000EC0EFD1E14C0882381F480E090E0CF91F3
:10449000DF911F910F91FF90EF90DF90CF90BF9031
:1044A000AF909F908F907F9008950E94D5209601A5
:1044B0002F5F3F4F772021F0F6016901849103C0FF
:1044C000F601808169018532F1F62F5F3F4F772039
:1044D00021F0F6016901849103C0F6018081690130
:1044E000843629F0883781F08336F9F606C000E17A
:1044F00017E24AE0A42EB12C0CC0F701808122E023
:1045000030E0E20EF31ED1CF00E010E130E1A32E47
:10451000B12C22E0822E912C8E0C9F1CF701E080A2
:10452000F1808436B1F4F7FE11C0F094E194F10803
:10453000F3948DE20E94D52009C0C8016AE070E0C2
:104540000E94DA5A8B016230710518F0E016F1060C
:10455000A0F3C701B8010E94DA5A862F0E943821C1
:10456000C701B8010E94DA5A7C01C801B5010E9456
:10457000DA5A8B016115710561F7740198CF9C01BE
:10458000FB01DD9ADE9ADF9A80916500846080935A
:104590006500AF9A80819181821793070CF4DF98B0
:1045A00082819381821793070CF4DD988481958131
:1045B000821793070CF4DE98868197818217930700
:1045C0002CF4809165008B7F8093650080859185B8
:1045D000821793070CF4AF980895DF93CF93CDB76C
:1045E000DEB72A970FB6F894DEBF0FBECDBFDE014F
:1045F0001196E0E0F1E02AE001900D922150E1F700
:10460000BE016F5F7F4F0E94BF222A960FB6F894BB
:10461000DEBF0FBECDBFCF91DF910895892B79F01A
:1046200010924F0810924E0887B7816087BF89B7F4
:10463000806489BFDD9881E08093EF07089587B794
:104640008E7F87BF89B78F7B89BF80E090E00E9413
:10465000ED221092EF0708951F920F920FB60F925E
:104660000BB60F9211242F933F934F935F936F9349
:104670007F938F939F93AF93BF93EF93FF9395B1E6
:1046800090934A0880914B08813049F0813020F0A6
:104690008F3009F06DC00CC09093490869C089E360
:1046A000989FC0011124909338088093370860C008
:1046B000963E18F490934C0802C010924C088091DA
:1046C0004C0890E00E94ED2240914E0850914F0816
:1046D0004115510501F58091F0078823E1F0909193
:1046E0004C088091F0078917B0F08091F107909104
:1046F000F20701979093F2078093F1078091F107F9
:104700009091F207892BA1F51092F30780E090E0D9
:104710000E940E232DC08091F007FA01E75CF74F4D
:10472000882319F080914C0808C0208180914C08A2
:1047300090E0820F911D9595879580834F305105AC
:1047400051F48091F307813031F41092F30780E047
:1047500090E00E940E2380914E0890914F080196A0
:1047600060E170E00E94EE5A90934F0880934E08EB
:104770001092EE07FF91EF91BF91AF919F918F91B2
:104780007F916F915F914F913F912F910F900BBE51
:104790000F900FBE0F901F90189590914B0890624C
:1047A00097B986B90895C59A84EF91E020E731E082
:1047B000F9013197F1F70197D9F70895C598089550
:1047C000EF92FF920F931F93C5990AC0C59A84EF89
:1047D00091E020E731E0F9013197F1F70197D9F73E
:1047E00089B78F7B89BF10924B0880E287B98CED27
:1047F00086B93699FECF6091490870E0882777FD29
:104800008095982F0E94815420E030E040E050E0F5
:104810000E94205221EE3AE74CED50E40E94EF5105
:104820009B01AC0166E676EA8BE894E40E9447536C
:104830007B018C0120E030E040E050E00E945154C8
:104840008823FCF020E030E040E251E4C801B701E9
:104850000E94515488235CF40F2EF0E0EF2EF0E01C
:10486000FF2EF0E20F2FF1E41F2FF02D14C020E0F7
:1048700030E048E452E4C801B7010E94F153181631
:1048800054F40F2EF0E0EF2EF0E0FF2EF8E40F2F9F
:10489000F2E41F2FF02DC801B7010E9477506093FA
:1048A00050081F910F91FF90EF900895BF92CF9203
:1048B000DF92EF92FF920F931F93CF93DF938FE0DE
:1048C00080934B080F2EF0E0EF2EF0E0FF2EF0E08B
:1048D0000F2FF0E01F2FF02DC0E0D0E0BB24B394E9
:1048E0004FE2C42E3CEDD32EB092EE07C7B8D6B837
:1048F0008091EE078823E1F760914C0870E08827EB
:1049000077FD8095982F0E9481549B01AC01C801CE
:10491000B7010E9420527B018C012196C233D10540
:1049200019F720E030E040E251E40E9447530E9432
:10493000775060934D08DF91CF911F910F91FF90B9
:10494000EF90DF90CF90BF90089581E080934B0867
:1049500081E287B98CED86B93699FECF08951F9212
:104960000F920FB60F9211248F9387B78F7B87BF5B
:10497000109256088F910F900FBE0F901F901895B0
:104980001F920F920FB60F920BB60F9211248F93B6
:104990009F93EF93FF9380915608813059F08130B7
:1049A00020F0823009F061C023C014BC81E0809304
:1049B000560855C084B58093530814BC8A53893176
:1049C00008F04AC0109252081092550882E0809375
:1049D000560886B7806486BF87B7806487BF109209
:1049E00058081092590810925A0810925B083DC05E
:1049F00094B59093530814BC892F8D508E3060F578
:104A0000E0915508943138F0F0E0E85AF74F808192
:104A10008695806805C0F0E0E85AF74F808186955A
:104A20008083809152088F5F809352088830B9F458
:104A300010925208809155088F5F809355088430FA
:104A400071F4809158088093510880915B0880939D
:104A500057088FEF809354081092560806C086B707
:104A6000806486BF87B7806487BFFF91EF919F9175
:104A70008F910F900BBE0F900FBE0F901F90189547
:104A800080915408882319F42FEF3FEF06C010924D
:104A9000540880915708282F30E0C9010895282F25
:104AA00030E087FF02C020503140C9010895159AB7
:104AB000149A1D9A1C9A000000001D980000000026
:104AC0001C98000000000895159A149A1D981C9ACD
:104AD000000000001D9A0000000015981498089529
:104AE000159A90E087FF02C01D9A01C01D98000032
:104AF00000001C9A00000000000000001C9800004C
:104B000000009F5F983011F0880FECCF0895159842
:104B100090E080E0880F00000000000000001C9A78
:104B2000000000000D998160000000001C989F5F4C
:104B3000983081F7159A08951598000000001D9A85
:104B4000000000001C9A000000001C9800000000FB
:104B5000159A000000000895159A000000001D98A5
:104B6000000000001C9A000000001C9800000000DB
:104B70001D9A000000000895159A000000001D9A7B
:104B8000000000001C9A000000001C9800000000BB
:104B90000895CF92DF92EF92FF921F93CF93DF930E
:104BA000182F6B017A010E945725812F0E947025D2
:104BB0000E949C25C0E0D0E009C0F701EC0FFD1F6A
:104BC00080810E9470250E949C252196CC15DD05D0
:104BD000A4F30E94642581E090E0DF91CF911F91C2
:104BE000FF90EF90DF90CF9008956F927F928F9219
:104BF0009F92AF92BF92CF92DF92FF920F931F933B
:104C0000CF93DF93F82E5B016A01490138010E94BE
:104C100057258F2D0E9470250E949C25C0E0D0E072
:104C200009C0F601EC0FFD1F80810E9470250E94D3
:104C30009C252196CA15DB05A4F3C0E0D0E08401D1
:104C4000015010400CC00E948725F301EC0FFD1F9E
:104C50008083C017D10714F40E94AC252196C81593
:104C6000D9058CF30E94BC250E946425DF91CF9169
:104C70001F910F91FF90DF90CF90BF90AF909F90CA
:104C80008F907F906F9008950E94572580E70E9433
:104C900070250E949C2584E10E9470250E949C251D
:104CA00083E00E9470250E949C250E94642508953F
:104CB0001F930E94572580E70E9470250E949C2523
:104CC00082E00E9470250E949C250E9464250000BD
:104CD0000000000000000E94572581E70E94702517
:104CE0000E949C250E9487250E94AC250E94872552
:104CF000182F0E94AC25812F90E017FF02C0805032
:104D0000914090935D0880935C080E9487250E94E3
:104D1000AC250E948725182F0E94AC25812F90E09A
:104D200017FF02C08050914090935F0880935E0807
:104D30000E9487250E94AC250E948725182F0E947B
:104D4000BC25812F90E017FF02C0805091409093C6
:104D50006108809360080E9464251F9108956F92F6
:104D60007F928F929F92AF92BF92CF92DF92EF92FB
:104D7000FF920F931F93DF93CF93CDB7DEB7649766
:104D80000FB6F894DEBF0FBECDBF8AE091E00E945F
:104D9000E72084E1898383E08A838E010F5F1F4FC0
:104DA000A80162E070E080E790E00E94C925EE244F
:104DB000FF2422E0622E68019BE0892E912C8C0E4C
:104DC0009D1E89EEA82E81E0B82E77247394698207
:104DD000A60161E070E080E790E00E94C9258401AF
:104DE00026E030E0A60160E070E081E790E00E94FC
:104DF000F5258889282F30E087FF04C0B90160506D
:104E0000714001C0B9018E85282F30E087FF04C0B2
:104E1000A9014050514001C0A9018C85282F30E0E4
:104E200087FF04C0C9018050914001C0C9017F9330
:104E30006F935F934F939F938F93BF92AF927F92A5
:104E40000E942B228AEF90E00E949B1B0894E11C99
:104E5000F11C8DB79EB709960FB6F8949EBF0FBE92
:104E60008DBF94E1E916F10409F0B1CF64960FB655
:104E7000F894DEBF0FBECDBFCF91DF911F910F9190
:104E8000FF90EF90DF90CF90BF90AF909F908F906A
:104E90007F906F900895DC01ED91FC911197E08176
:104EA00009C0ED91FC91119731961196FC93EE9308
:104EB0003197E181E032A9F3EE2331F08D919C919D
:104EC000119701968D939C938E2F0895DC01ED919F
:104ED000FC911197E08109C0ED91FC9111973196F9
:104EE0001196FC93EE933197E181E032A9F3EE2322
:104EF00031F08D919C91119701968D939C938E2FFB
:104F000081548A3118F0EFEFFFEF03C0F0E0E15475
:104F1000F040CF010895DC01ED91FC9111974081A3
:104F200009C0ED91FC91119731961196FC93EE9387
:104F3000319741814032A9F3442339F08D919C91FE
:104F40001197019611969C938E9320E030E012C049
:104F5000C90163E0880F991F6A95E1F7220F331F9B
:104F6000280F391F240F311D2053304041911196D5
:104F7000FC93EE93842F8053ED91FC9111978A302E
:104F800038F33197ED93FC93C9010895FC01DB01DF
:104F900020E030E00BC0892F81548A3118F08F5EF9
:104FA0008A3038F431969D932F5F3F4F908199233B
:104FB00091F71C92C9010895FC01DB012081318128
:104FC0008D919C911197918380832D933C930895AB
:104FD000860F971F62E070E00E94EE5ACB010895A1
:104FE000AF92BF92CF92DF92EF92FF920F931F93F7
:104FF000CF93DF938C017B016A01EC14FD040CF06C
:105000007EC0C7018C0D9D1D62E070E00E94EE5ACB
:10501000FB01EE0FFF1FE00FF11FA701440F551F0B
:10502000400F511FDA012D913C91119780819181A0
:1050300011969C938E93318320836D917C9197017F
:105040002F5F3F4FE60137C02F5F3F4FC216D30699
:1050500044F4B22EA32EDE01AA0FBB1FA00FB11F76
:1050600007C0819191916817790774F7F2CF219762
:10507000CE15DF053CF08D919C9111971297681722
:105080007907ACF32C173D079CF4DE01AA0FBB1F78
:10509000A00FB11FF901EE0FFF1FE00FF11F2081DC
:1050A00031818D919C911197918380832D933C93B5
:1050B0008B2D9A2D9C01C217D30734F0F901EE0F06
:1050C000FF1FE00FF11FC2CFFE01EE0FFF1FE00F29
:1050D000F11FDA012D913C911197808191818D937F
:1050E0009C93318320832197AE01B701C8010E94B0
:1050F000F02772E0E72EF12CEC0EFD1E7ECFDF9143
:10510000CF911F910F91FF90EF90DF90CF90BF90C4
:10511000AF90089583309105E9F0843091054CF407
:105120008130910599F08230910594F4892B61F0DA
:1051300008C08530910591F0853091056CF0069797
:1051400079F020E030E01CC089B30CC086B30AC0FF
:1051500083B308C080B306C081B104C080B102C06F
:1051600080916300282F30E0683071054CF481E0B5
:1051700090E002C0880F991F6A95E2F7282339232F
:10518000C90108959C014D3309F472C04E33A8F44F
:105190004B3229F14C3240F4463299F14A3229F12E
:1051A000453209F06DC041C04F3239F14C3309F43A
:1051B00047C04D3209F064C015C04C3609F446C0F2
:1051C0004D3630F44E33B1F1473609F059C044C082
:1051D0004E3609F447C04C3709F052C01AC0260FAA
:1051E000371F4EC0261B370B4BC0869F9001879FF1
:1051F000300D969F300D112443C00E94EE5A9B0142
:1052000017C0672B19F420E030E03AC00097C1F1D5
:1052100002C0009719F021E030E032C0611571053D
:1052200011F061E070E09B012BC00E94EE5A9C01DE
:10523000C90125C080E090E06217730704F51DC026
:1052400080E090E026173707D4F417C080E090E0A4
:1052500062177307A4F011C080E090E026173707AB
:1052600074F00BC080E090E02617370731F407C0D8
:1052700080E090E06217730711F481E090E09C01F8
:10528000C9010895DC018C91882319F420E030E0F5
:1052900009C0FD0101C0319680818232E1F79F0192
:1052A0002A1B3B0BC90108952F923F924F925F92A8
:1052B0006F927F928F929F92AF92BF92CF92DF9226
:1052C000EF92FF920F931F93DF93CF93CDB7DEB78B
:1052D00029970FB6F894DEBF0FBECDBFAA24BB241A
:1052E0003DE9232E32E0332EEE24E3944E01089460
:1052F000811C911C29E9422E22E0522E99E0692E50
:10530000712C6C0E7D1EBF92AF923F922F92EF9246
:105310000E942B22840180E0C82E80E0D82ECA0C87
:10532000DB1C0F900F900F900F900F90E199FECF24
:10533000DFBACEBAE09AFDB28F2D90E09F938F93A3
:105340005F924F92EF920E942B228F2D8C510F90E3
:105350000F900F900F900F90833618F4F801F082A1
:1053600003C08EE2F80180830F5F1F4F0894C11CB9
:10537000D11C06151705D1F61986C4010E94E72035
:1053800083E191E00E94E720E8E0F0E0AE0EBF1E6E
:10539000F0E4AF16B10409F0B6CF29960FB6F89431
:1053A000DEBF0FBECDBFCF91DF911F910F91FF9058
:1053B000EF90DF90CF90BF90AF909F908F907F90B5
:1053C0006F905F904F903F902F9008952F923F9253
:1053D0004F925F926F927F928F929F92AF92BF9205
:1053E000CF92DF92EF92FF920F931F93DF93CF93B1
:1053F000CDB7DEB729970FB6F894DEBF0FBECDBF8D
:105400003C0188249924EE24E3942E010894411C45
:10541000511C51EA252E52E0352E9F928F9285EA3B
:1054200092E09F938F93EF920E942B2240E4A42E50
:1054300040E0B42EA80CB91C8201CC24DD240F90CE
:105440000F900F900F900F902AC0E199FECFBFBA36
:10545000AEBAE09AFDB28F2D90E09F938F933F926A
:105460002F92EF920E942B220F900F900F900F908F
:105470000F9098E06916710451F48F2D8C5183368A
:1054800018F4F801F08203C08EE2F80180830894DA
:10549000C11CD11C0894A11CB11C0F5F1F4FC61466
:1054A000D7049CF298E06916710421F41986C201B0
:1054B0000E94E72083E191E00E94E720860C971C80
:1054C000E0E08E16ECE09E060CF4A7CF29960FB60E
:1054D000F894DEBF0FBECDBFCF91DF911F910F912A
:1054E000FF90EF90DF90CF90BF90AF909F908F9004
:1054F0007F906F905F904F903F902F90089569300C
:10550000710508F050C083309105D9F084309105C1
:105510004CF48130910579F0823091057CF4892B2F
:1055200041F11BC08530910591F08530910564F003
:10553000069799F40FC0E8E3F0E01DC0E5E3F0E062
:105540001AC0E2E3F0E017C0E3E2F0E014C0E2E6E4
:10555000F0E011C0E5E6F0E00EC08CE093E09F9330
:105560008F9381E08F930E942B220F900F900F90CA
:105570000895EBE3F0E06830710519F4319740834A
:10558000089581E090E002C0880F991F6A95E2F7C4
:10559000982F452B29F48081909589238083089545
:1055A0008081892B80830895CF93DF93FC01EB01E9
:1055B0008E31910584F06AE070E00E94EE5A9C0101
:1055C000CF014E976AE070E00E94EE5ACB01AE0127
:1055D000B9010E947F2A80E090E0DF91CF91089589
:1055E000EF92FF920F931F93E82EF62E05E610E040
:1055F000F80180818B7F80838AEE0E94D5208E2DDA
:105600000E94D5208F2D0E94D520FE248F2D8F77CC
:105610000E94D520F8018081846080831F910F91C2
:10562000FF90EF9008952F923F924F925F926F926A
:105630007F928F929F92AF92BF92CF92DF92EF9222
:10564000FF920F931F93DF93CF93CDB7DEB7C45074
:10565000D1400FB6F894DEBF0FBECDBF1092FD074C
:105660001092FC0786E191E00E94E7200E94BA4078
:105670008A3A29F086E291E00E94E7207EC10E94EA
:1056800021410E94BA40A82EBB24B394F5E42F2EEA
:10569000FCE43F2EF3E54F2EF5E45F2EE4E56E2E9D
:1056A000E8E47E2EE5E48E2EEEE49E2E5BC1BE0184
:1056B00061597F4FCE0101960E94AC41C984DA84C2
:1056C000EE80FD8009811A810E94BA40A82E011542
:1056D000110509F447C11F930F9385E992E09F9349
:1056E0008F93BF920E942B22EF2DF0E0EE0FFF1F51
:1056F000E85EFC4F808191810E94E720A3E9B2E03F
:10570000BF93AF93BF920E942B22EDB7FEB738969E
:105710000FB6F894FEBF0FBEEDBFFF2049F0F7E0D3
:10572000FF1631F021E0F21619F08AE0F81691F434
:105730008E2D90E08F5B9F4F9F938F93ADE8B2E0EB
:10574000BF93AF93BF920E942B220F900F900F90A8
:105750000F900F90B8E0FB16A9F5EE2DF0E02DE1CB
:105760002E1548F0EE0FFF1FE054FC4F8081918111
:105770000E94E72022C08E2D6AE00E94CE5A892F17
:10578000805D90E09F938F93CF014E976AE070E029
:105790000E94EE5A6F5B70E07F936F9382E892E015
:1057A0009F938F93BF920E942B22ADB7BEB71796DF
:1057B0000FB6F894BEBF0FBEADBF8AE391E00E9462
:1057C000E720AAC0BEE0FB1619F0EAE1FE16E9F4F4
:1057D000EE2DF0E02FE12E1540F4B097FF93EF93FC
:1057E0008EE792E09F938F9308C0EF5BFF4FFF938C
:1057F000EF93AAE7B2E0BF93AF93BF920E942B2230
:105800000F900F900F900F900F90B6E0FB1679F469
:10581000E1E0EE1609F080C087E792E09F938F9356
:10582000EF920E942B220F900F900F9075C092E084
:10583000F916E1F5D6010D900020E9F71197AC19A2
:10584000BD09A330B105A4F0129796012A0F3B1FA2
:105850001296F90180818A3359F4FD013197EC0DDC
:10586000FD1D8081803321F480E2D9018C938083F7
:105870006EE371E0C6010E94A4578C0163E471E0FD
:10588000C6010E94A457FC010115110531F0D80191
:105890006D927D928D929C921397309721F0208289
:1058A000318242825382C601019650C0BDE0FB1690
:1058B00099F48E2D90E08F5B9F4F9F938F93E4E739
:1058C000F2E0FF93EF93BF920E942B220F900F9074
:1058D0000F900F900F903CC0F5E0FF1661F020E1B3
:1058E000F21649F08CE0F81631F093E1F91619F050
:1058F000A4E1FA1689F48F8198859F938F93E1E74D
:10590000F2E0FF93EF93BF920E942B220F900F9033
:105910000F900F900F9003C0C6010E94E720F1E0A6
:10592000FF16B1F46E2D70E08091FC079091FD0799
:105930000E94E240BE01655F7F4F08960E94CC4006
:1059400088E491E00E94E720CE010B960E94E720B8
:105950008EE692E09F938F93BF920E942B220F902E
:105960000F900F909CECA91641F08091FC0790914C
:10597000FD0780509C4008F49ACECC5FDE4F0FB6F6
:10598000F894DEBF0FBECDBFCF91DF911F910F9175
:10599000FF90EF90DF90CF90BF90AF909F908F904F
:1059A0007F906F905F904F903F902F9008958DE47F
:1059B00091E00E94E7200E945D42089580E490E01B
:1059C0002FEFE199FECF9FBB8EBB2DBB0FB6F89496
:1059D000E29AE19A0FBE01963CE08034930789F782
:1059E0000E94D72C0895AF92BF92CF92DF92EF9290
:1059F000FF920F931F93CF93DF936C018EE591E09D
:105A00000E94E7208601EE24FF24A1E0AA2EB12CFB
:105A10000E94DF1FEC0197FDFBCF0E94D520CD3007
:105A2000D10551F0C016D106C1F4CE32D105A9F48A
:105A30008EE2F60181938F01F0E2EF16F10411F48A
:105A400001501040F801108288E793E09F938F93F4
:105A500081E08F930E942B2219C0A114B10439F068
:105A6000C032D10521F4F0E2EF16F10471F2C01654
:105A7000D106F1F4CF33D105D9F487E593E09F93B4
:105A80008F9381E08F930E942B2286010F900F90BD
:105A90000F9098012C193D09C901DF91CF911F91F9
:105AA0000F91FF90EF90DF90CF90BF90AF9008954F
:105AB000C232D10539F480E090E0AB2811F481E0E6
:105AC00090E05C01CE01815690404A9720F4A114E9
:105AD000B10409F0A097C830D10519F0CF37D1052E
