:100000000C94C01C0C94DF1C0C94DF1C0C94DF1CA3
:100010000C94DF1C0C94DF1C0C94DF1C0C94CD267C
:100020000C94DF1C0C94DF1C0C94AC260C94DF1C8D
:100030000C94DF1C0C94DF1C0C940B1D0C94DF1C27
:100040000C942C200C94DF1C0C94DF1C0C94DF1CF3
:100050000C94DF1C0C9416250C94DF1C0C94DF1CF4
:100060000C94DF1C0C94DF1C0C94DF1C0C94DF1C24
:100070000C94DF1C0C94DF1C0C9418210C94DF1CD6
:100080000C9462210C94DF1C0C94DF1C2333B734D6
:10009000BE34C534D434D934E034E734F734D936F7
:1000A0003533A7377F36D13419366535EE344637C8
:1000B0007036CC34D1343A33C6339C3385342C3645
:1000C00046365A363A33ED33F33690357635C13508
:1000D000F9353F3EFA3C674026542654CA3EDA3E84
:1000E000F23C193EB5459342D642F6425A3D6A3E2D
:1000F000B840BD45DC45BA3DB33E0D457B431C438E
:10010000D642BB410D42CF4389456745154541471E
:1001100074494848FE489342C246C246FB45724B6A
:10012000D84DFB4513571357075955595559395948
:1001300051585D5970575B5969585D595D593F5920
:100140000B585D5939595B5950575D5939595D59AB
:100150005D595D595D595D590B585D595D595D5942
:1001600051585D595D595D5969585D595D595D59E1
:100170005D595D595D594E6F7420706C7567676588
:100180006420696E0D0A00436F6D706C6574650DB7
:100190000A00506C756767656420696E202D2063C6
:1001A00068617267696E670D0A002564206D560DDF
:1001B0000A00636861726765206D6F6465200D0ACF
:1001C00000446F6E652025646D560D0A0025643A63
:1001D00025642066756C6C206368617267652070A9
:1001E0006F7765722025646D560D0A0025643A25E7
:1001F000642073686F72742034306D73206368619B
:100200007267652070756C7365732025646D560D7B
:100210000A005374617274202E2E2025646D560DD1
:100220000A003031323334353637383941424344AD
:1002300045460025642C2025642C2025640A0045B1
:100240005849542044454D4F204D4F44450D0A0018
:1002500025640D0A003E3A200044454D4F204D4F85
:1002600044450D0A000D0A00557074696D653A2009
:10027000002564206C696E65732073746F72656409
:100280000D0A00256420736572766F7320636F6EAC
:100290006E65637465640D0A004445425547204FFE
:1002A0004E0A002564206C696E6573206C6F616472
:1002B00065640D0A0074657374696E672063686114
:1002C0007267650D0A00505344206F66660D0A0080
:1002D0006F6B0D0A005374616E642025640D0A0073
:1002E0003F204E6F2073756368206C696E65202512
:1002F000640A000D0A00456C6170736564205469DE
:100300006D6520002564206C696E657320696E2020
:100310006D656D6F72790D0A0025642073657276C4
:100320006F7320636F6E6E65637465640D0A00728F
:10033000657365740D0A000D0A002564002C2564A0
:100340000025640025630040200023200025633D34
:100350000025643D00504F52543A25633A2563000E
:100360002563203D20002000256420002578200002
:100370002578200025782000257820004F3D256431
:100380000A004F3D25640A0054683D2D2825642944
:100390000A00496E7075743D256420282564207814
:1003A000202564290A00496E7075743D2564202853
:1003B00025642078202564290A004F55545055544F
:1003C000204E4555524F4E203D2025640A004F3D9A
:1003D00025640A0054683D2D282564290A004849EF
:1003E0004444454E204E4555524F4E203D202564F5
:1003F0000A004F3D25640A0054683D2D28256429D4
:100400000A00496E7075743D2564202825642078A3
:10041000202564290A00494E505554204E45555216
:100420004F4E203D2025640A004F66667365742098
:100430003D2025640A0A004E4F204C33203D2025E4
:10044000640A0A004E4F204C32203D2025640A00E9
:100450004E4F204C31203D2025640A00466C6167D8
:1004600073203D2025640A004E4F4F2020203D2060
:1004700025640A004E4F492020203D2025640A00B3
:10048000434F20707432202020203D2025640A0034
:10049000434F20707431202020203D2025640A0025
:1004A0004D7574207261746520203D202564250AF5
:1004B0000047656E657261746520203D2025640AE1
:1004C000006C656E677468202020203D2025640A3A
:1004D00000547970652020202020203D2025640ACA
:1004E00000256429203D2028256420256429202515
:1004F000640D0A004646542028256429203D202505
:10050000640D0A002C256400256400496E76616C38
:1005100069642073616D706C652073697A65206D04
:10052000757374206265206F6E65206F6620382CAD
:1005300031362C3332206F722036340A0044424761
:100540003A3A204D4F56452025643D25640A002C3B
:100550002564002564002564002563203D20256472
:100560000D0A005573657220427265616B206F6ED3
:10057000206C696E652025640D0A00545241434584
:10058000203A3A202564202D2000456E640D0A0093
:1005900052756E74696D65206572726F7220256484
:1005A000206F6E206C696E652025640D0A006576EB
:1005B000616C206572726F722025642C2025640D99
:1005C0000A0070616E6963206572726F720D0A00B5
:1005D000456C61707365642054696D652025646D98
:1005E000730D0A000D0A2564206C696E6573206521
:1005F0006E74657265642C205B25642F25645D2014
:1006000042797465730D0A0050616E696320256438
:100610000D0A00506F733D2564205B25635D0D0A54
:100620000050726F6772616D20656E747279206D13
:100630006F646520282E20746F2065786974290DF9
:100640000A000D0A004D6F74696F6E2072616E674B
:10065000653A202030202D2031380D0A00506C6181
:1006600079204D6F74696F6E2025640D0A007DC975
:10067000A3436C7D3059B88E59277CA2D37F7DB3BC
:10068000C7586C7E4831A38D332F31C7CDCD0404BC
:10069000040404040404040404040404040402021E
:1006A0000202020202020202000000000000010138
:1006B0000101010101010101010101010101020228
:1006C0000202020202020202020202020202040406
:1006D00004040404040404040404040404040101E0
:1006E0000101010000000000010101000000010102
:1006F00001010100000000000101010000000303EE
:1007000003030300000000000303030000000303D1
:1007100003030300000000000303030000000000C7
:100720000000000000000000000000000000282879
:1007300028282828282828281414141414143C3C89
:100740003C3C3C3C3C3C3C3C1E1E1E1E1E1E000015
:100750000000000000000000000000000000010098
:100760000800010005000F0046003601A401C80082
:100770002C017DB3C7586C7E4831A38D332F31C710
:10078000CDCD7DB3C7586C7E4831A38D332F31C793
:10079000CDCD6BA4E96A5F6C501D9B81383E28A6C5
:1007A000CED06BA4E96A5F914A28A39A757C72A6A1
:1007B000CED07EA4DE646B7D501D9B8E4F2C28A670
:1007C000CED07DB3C7586C7E4831A38D332F31C74F
:1007D000CDCD040404040404040404040404040447
:1007E00004040202020202020202020200000000ED
:1007F00000000101010101010101010101010101EB
:1008000001010202020202020202020202020202CA
:10081000020204040404040404040404040404049C
:1008200004040000000000010101010100000001BA
:1008300001010000000000020202020200000002AA
:100840000202000000000003030303020000000393
:100850000303000000000003030303030000000380
:100860000303000000000000000000000000000082
:100870000000282828282828282828281414141498
:1008800014143C3C3C3C3C3C3C3C3C3C1E1E1E1E70
:100890001E1E00000000000000000000000000001C
:1008A000000001000800010005000F0046003601AD
:1008B000A401C8002C017DB3C7586C7E4831A38DBC
:1008C000332F31C7CDCD7DB3C7586C7E4831A38D52
:1008D000332F31C7CDCD8BA3E664788E570E969F0C
:1008E0004F2C28B7BCD06CA4E0616A97501C99A724
:1008F0004F2C289170837EA4DE646B7D501D9B8EEF
:100900004F2C28A6CED07DB3C7586C7E4831A38D1E
:10091000332F31C7CDCD04040404040404040404BB
:100920000404040404040404040404040404040487
:10093000040404040404020202020202020202028B
:10094000000000000000020202020200000000009D
:100950000303030303030000000000000000000085
:100960000404040404030404040404040404040448
:10097000040404040404000000000000000000005F
:100980000000000000000101010101000000000062
:100990000101010000000000000000000000000054
:1009A0000000000000000101010101000000000042
:1009B0000101010000000000000000000000000034
:1009C0000000000000000000000000000000000027
:1009D0000000000000002828282828282828282887
:1009E0001414141414143C3C3C3C3C3C3C3C3C3C37
:1009F0001E1E1E1E1E1E0000000000000000000043
:100A000000000000000001000500080003000100D4
:100A10000F00460096003601FA0078002C017DB3E5
:100A2000C7586C7E4831A38D332F31C7CDCD7DB3F0
:100A3000C7586C7E4831A38D332F31C7CDCD7EA7EB
:100A4000DE626E7D541D9B8E4F2C28A6CED06BA4EB
:100A5000E9665F6C501D9B81383E28A6CED06BA402
:100A6000E9695F914A289D9A383E28A6CED07EA497
:100A7000DE5F6B7D541D9B8E4F2C28A6CED07DB3A0
:100A8000C7586C7E4831A38D332F31C7CDCD0404B8
:100A90000404040404040404040404040404040416
:100AA000040404040404040404040404040402020A
:100AB000020202020202020204040404040400000E
:100AC0000000000202020202040404040404000004
:100AD00000000002020202020404040404040404EC
:100AE00004040404040404040404040404040000CE
:100AF00000000000000000000000000000000000F6
:100B000000000001010101010000000101010000DD
:100B100000000000000000000000000000000000D5
:100B200000000001010101010000000101010000BD
:100B300000000000000000000000000000000000B5
:100B40000000000000000000000000000000282855
:100B500028282828282828281414141414143C3C65
:100B60003C3C3C3C3C3C3C3C1E1E1E1E1E1E0000F1
:100B70000000000000000000000000000000010074
:100B800005000800030001000F0046009600360132
:100B9000C80078002C017DB3C7586C7E4831A38D06
:100BA000332F31C7CDCD7DB3C7586C7E4831A38D6F
:100BB000332F31C7CDCD7EA7DE626E7D541D9B8E57
:100BC0004F2C28A6CED08BA3E664788E570E969F26
:100BD0004F2C28B7BCD06CA4E0616A97501C99A731
:100BE0004F2C28B7BCD07EA6DE62717D541D9B8E33
:100BF0004F2C28A6CED07DB3C7586C7E4831A38D2C
:100C0000332F31C7CDCD04040404040404040404C8
:100C100004040404040401010101010101010101B2
:100C200004040404040401010101010101010101A2
:100C30000404040404040202020202020202020288
:100C40000404040404040101010101010101010182
:100C5000040404040404030303030303030303035E
:100C60000404040404040101010101000000000067
:100C7000010101000000010101010100000000006C
:100C80000101010000000000000000000000000061
:100C90000000000000000000000000000000000054
:100CA0000000000000000000000000000000000044
:100CB0000000000000000000000000000000000034
:100CC000000000000000141414141414141414145C
:100CD0001414141414141E1E1E1E1E1E1E1E1E1E70
:100CE0001E1E1E1E1E1E0000000000000000000050
:100CF0000000000000000A0005000A0001000500D5
:100D00000A00C800C80090017800C80090017DB3B7
:100D1000C7586C7E4831A38D332F31C7CDCD7DB3FD
:100D2000C7586C7E4831A38D332F31C7CDCD7DA2FE
:100D3000C7486C7E3B31978D332F31C7CDCD88A905
:100D4000D25D798B243D909D332F31C7CDCD7DADC4
:100D5000D25D7B8B500E899D332F31C7CDCD86ADB3
:100D6000D25D7B8B501F9D9D332F31C7CDCD7DB381
:100D7000C7586C7E4831A38D332F31C7CDCD0404C5
:100D80000404040404040404040404040404010129
:100D90000101010101010101040404040404010131
:100DA000010101010101010104040404040402021F
:100DB0000202020202020202040404040404020207
:100DC00002020202020202020404040404040303F5
:100DD00003030303030303030303030303030000E9
:100DE00000000001010101010000000101010000FB
:100DF00000000001010101010000000101000000EC
:100E000000000000000000000000000000000000E2
:100E100000000000000000000000000000000000D2
:100E200000000000000000000000000000000000C2
:100E3000000000000000000000000000000014148A
:100E400014141414141414141414141414141E1E4E
:100E50001E1E1E1E1E1E1E1E1E1E1E1E1E1E0000EE
:100E600000000000000000000000000000000A0078
:100E700005000A00010005000A00C800C800900132
:100E80007800C80090017DB3C7586C7E4831A38DAF
:100E9000332F31C7CDCD7DB3C7586C7E4831A38D7C
:100EA000332F31C7CDCD7DC1CD6B6C7E5931B48D23
:100EB000332F31C7CDCD77D1C36A6077511F9D8461
:100EC000332F31C7CDCD75A2E362677D4E31A37F4D
:100ED000332F31C7CDCD6EA8CC555C755131A38071
:100EE000332F31C7CDCD7DB3C7586C7E4831A38D2C
:100EF000332F31C7CDCD04040404040404040404D6
:100F000004040404040404040404040404040404A1
:100F1000040404040404030303030303030303039B
:100F200003030303030300000000000000000000AF
:100F3000040404040404030303030303030303037B
:100F4000030303030303020202020202020202027B
:100F50000404040404040202020202020202020265
:100F60000404040404040202020202020202020255
:100F70000404040404040202020202020202020245
:100F8000040404040404030303030303030303032B
:100F9000030303030303000000000000000000003F
:100FA0000000000000000303030303030303030323
:100FB000030303030303000000000000000000001F
:100FC000000000000000020202020202020202020D
:100FD0000202020202020000000000000000000005
:100FE00000000000000001010101010101010101F7
:100FF00001010101010100000000000000000000EB
:1010000000000000000003030303030303030303C2
:1010100003030303030300000000000000000000BE
:1010200000000000000000000000000000000000C0
:101030000000000000002828282828282828282820
:101040001E1E1E1E1E1E3C3C3C3C3C3C3C3C3C3C94
:101050003232323232320000000000000000000064
:101060000000000000000F001E002D002D002D00CC
:101070001E001E001E001E001E002C0158028403CC
:1010800084038403580258025802580258027DB360
:10109000C7586C7E4831A38D332F31C7CDCD7DB37A
:1010A000C7586C7E4831A38D332F31C7CDCD7CDC42
:1010B000F77D6C7E1D047F8C332F31C7CDCD7BDC5B
:1010C000F656707E1D07A98B013B4AFDBFB58253C2
:1010D000903F6C7DAA67BF8B013BA3FDBF58825335
:1010E000903F6C7DAA67BF8BEA7D5A0581A6815E21
:1010F000B7646E80A26EBA88A02D515ACDA78157D1
:10110000BF3C6E80A23BC1888A2E5974CBA78181D7
:10111000BE416E80783BBB8C852D5174CBA781A1DD
:10112000C5476E805935B58F8F245974CBA77DB3D1
:10113000C7586C7E4831A38D332F31C7CDCD040401
:101140000404040404040404040404040404010165
:101150000101010101010101040404040404040467
:101160000404040404040404040404040404010145
:10117000010101010101010101010101010101015F
:10118000010101010101010101010101010102024D
:10119000020202020202020202020202020202022F
:1011A000020202020202020202020202020202021F
:1011B000020202020202020202020202020204040B
:1011C00004040404040404040404040404040000E7
:1011D0000000000000000000000000000000030309
:1011E00003030303030303030303030303030000D5
:1011F00000000000000000000000000000000202EB
:1012000002020202020202020202020202020000C2
:1012100000000000000000000000000000000101CC
:1012200001010101010101010101010101010000B0
:1012300000000000000000000000000000000303A8
:101240000303030303030303030303030303000074
:10125000000000000000000000000000000028283E
:1012600028282828282828281414141414143C3C4E
:101270003C3C3C3C3C3C3C3C1E1E1E1E1E1E0000DA
:1012800000000000000000000000000000000A0054
:101290000A000A000A00010023001E0028001E00A8
:1012A0002C01F401F401BC023403BC0258022003F7
:1012B00058027DB3C7586C7E4831A38D332F31C798
:1012C000CDCD7DB3C7586C7E4831A38D332F31C748
:1012D000CDCD7D52D6596C7E4831A38D8F2F317282
:1012E000CDCD7D52DA65727DA622978F8D2F31721A
:1012F000CDCD7DD2E450717C2319AC8EA72F2F5217
:10130000CDCC7DDAF756717B1F05A88D095792FE6B
:10131000A26C7DDCF47A6D7B1D05808D212A92DE26
:10132000D26C7DDCDE7A717B1D1C878D62324E9221
:10133000C5A97DA0F272717B5708878D522F45ADEC
:10134000CDBF7DB3C7586C7E4831A38D332F31C7D5
:10135000CDCD0303030303030303030303030303C9
:10136000030303030303030303030303030303034D
:10137000030303030303030303030303030303033D
:10138000030302020202020202020202020202023B
:10139000020201010101010101010101010101013B
:1013A000010100000000000000000000000000003B
:1013B000000000000000000000000000000000002D
:1013C000000001010101010101010101010101010F
:1013D00001010202020202020202020202020202EF
:1013E00002020303030303030303030303030303CF
:1013F00003030303030303030303030303030303BD
:1014000003030303030303030303030303030303AC
:1014100003030202020202020202020202020202AA
:1014200002020101010101010101010101010101AA
:1014300001010000000000000000000000000000AA
:10144000000000000000000000000000000000009C
:10145000000001010101010101010101010101017E
:10146000010102020202020202020202020202025E
:10147000020203030303030303030303030303033E
:10148000030303030303030303030303030303032C
:10149000030302020202020202020202020202022A
:1014A000020201010101010101010101010101012A
:1014B000010100000000000000000000000000002A
:1014C000000000000000000000000000000000001C
:1014D00000000101010101010101010101010101FE
:1014E00001010202020202020202020202020202DE
:1014F00002020303030303030303030303030303BE
:1015000003030303030303030303030303030303AB
:10151000030303030303030303030303030303039B
:101520000303020202020202020202020202020299
:101530000202010101010101010101010101010199
:101540000101000000000000000000000000000099
:10155000000000000000000000000000000000008B
:10156000000001010101010101010101010101016D
:10157000010102020202020202020202020202024D
:10158000020203030303030303030303030303032D
:10159000030303030303030303030303030303031B
:1015A0000303020202020202020202020202020219
:1015B0000202010101010101010101010101010119
:1015C00001010404040404040404040404040404E1
:1015D0000404000000000000000000000000000003
:1015E00000000303030303030303030303030303D1
:1015F00003030303030303030303030303030303BB
:1016000003030202020202020202020202020202B8
:1016100002020101010101010101010101010101B8
:1016200001010000000000000000000000000000B8
:1016300000000000000000000000000000000000AA
:10164000000001010101010101010101010101018C
:10165000010102020202020202020202020202026C
:10166000020203030303030303030303030303034C
:10167000030303030303030303030303030303033A
:10168000030303030303030303030303030303032A
:101690000303020202020202020202020202020228
:1016A0000202010101010101010101010101010128
:1016B0000101000000000000000000000000000028
:1016C000000000000000000000000000000000001A
:1016D00000000101010101010101010101010101FC
:1016E00001010202020202020202020202020202DC
:1016F00002020303030303030303030303030303BC
:1017000003030303030303030303030303030303A9
:1017100003030202020202020202020202020202A7
:1017200002020101010101010101010101010101A7
:1017300001010000000000000000000000000000A7
:101740000000000000000000000000000000000099
:10175000000001010101010101010101010101017B
:10176000010102020202020202020202020202025B
:10177000020203030303030303030303030303033B
:101780000303030303030303030303030303030329
:101790000303030303030303030303030303030319
:1017A0000303020202020202020202020202020217
:1017B0000202010101010101010101010101010117
:1017C0000101000000000000000000000000000017
:1017D0000000000000000000000000000000000009
:1017E00000000101010101010101010101010101EB
:1017F00001010202020202020202020202020202CB
:1018000002020303030303030303030303030303AA
:101810000303030303030303030303030303030398
:101820000303020202020202020202020202020296
:101830000202010101010101010101010101010196
:101840000101000000000000000000000000000096
:10185000000029292929292929292929141414149E
:1018600014143D3D3D3D3D3D3D3D3D3D1E1E1E1E76
:101870001E1E00000000000000000000000000002C
:10188000000005000100010001000100010001004D
:101890000100010001000100010001000100010040
:1018A0000100010001000100010001000100010030
:1018B0000100010001000100010001000100010020
:1018C00001000100010001000100010001000A0007
:1018D0000F00C8001900190019001900190019009B
:1018E0001900190019001900190019001900190030
:1018F0001900190019001900190019001900190020
:10190000190019001900190019001900190019000F
:101910001900190019001900190019001900C80050
:101920002C017DB3C7586C7E4831A38D332F31C74E
:10193000CDCD7DB3C7586C7E4831A38D332F31C7D1
:10194000CDCD7DB3C7586C7E4831A38D332F31C7C1
:10195000CDCD82A5C9517386511F9395482C2891EE
:10196000D1C984ABC5537589561C94984E2B299ABE
:10197000D1CE84AFC357758B5B1B989A572B2BA482
:10198000D1D384B2C55B75895F1C9D98612B30AC47
:10199000D1D582B3C95F7386601FA195692B35B31A
:1019A000D2D67FB2CE6270825F23A6916F2A39B6FB
:1019B000D2D67CAFD4646D7F5C28AA8E712A3BB7E7
:1019C000D2D67CAFD4646D7F5C28AA8E712A3BB7D7
:1019D000D2D678ACD966697B582EAA8A6F2A39B6D6
:1019E000D2D674A7DD6765785333A9876A2B35B3E0
:1019F000D2D671A2E06662764D37A785612B30ADF5
:101A0000D1D56F9DE16260764939A385572B2BA410
:101A1000D1D37199E05D627646379F854F2B299A25
:101A2000D1CE7498DD59657845339B87482C289230
:101A3000D1C97899D954697B462E988A452C288C2F
:101A4000D0C57B9CD4506C7E4928968D442C288A26
:101A5000D0C37B9CD4506C7E4928968D442C288A18
:101A6000D0C382A5C9517386511F9395482C2891E4
:101A7000D1C984ABC5537589561C94984E2B299AAD
:101A8000D1CE84AFC357758B5B1B989A572B2BA471
:101A9000D1D384B2C55B75895F1C9D98612B30AC36
:101AA000D1D582B3C95F7386601FA195692B35B309
:101AB000D2D67FB2CE6270825F23A6916F2A39B6EA
:101AC000D2D67CAFD4646D7F5C28AA8E712A3BB7D6
:101AD000D2D67CAFD4646D7F5C28AA8E712A3BB7C6
:101AE000D2D678ACD966697B582EAA8A6F2A39B6C5
:101AF000D2D674A7DD6765785333A9876A2B35B3CF
:101B0000D2D671A2E06662764D37A785612B30ADE3
:101B1000D1D56F9DE16260764939A385572B2BA4FF
:101B2000D1D37199E05D627646379F854F2B299A14
:101B3000D1CE7498DD59657845339B87482C28921F
:101B4000D1C97899D954697B462E988A452C288C1E
:101B5000D0C57B9CD4506C7E4928968D442C288A15
:101B6000D0C37B9CD4506C7E4928968D442C288A07
:101B7000D0C382A5C9517386511F9395482C2891D3
:101B8000D1C984ABC5537589561C94984E2B299A9C
:101B9000D1CE7DA6E56A6C7E5617968D332F31C760
:101BA000CDCD7DB3C7586C7E4831A38D332F31C75F
:101BB000CDCD040404040404040404040404040453
:101BC00004040303030303030303030303030303E3
:101BD00003030202020202020202020202020202E3
:101BE00002020303030303030303030303030303C7
:101BF00003030202020202020202020202020202C3
:101C000002020101010101010101010101010101C2
:101C100001010000000000000000000000000000C2
:101C200000000000000000000000000000000000B4
:101C30000000010101010101010101010101010196
:101C40000101020202020202020202020202020276
:101C50000202030303030303030303030303030356
:101C60000303030303030303030303030303030344
:101C70000303030303030303030303030303030334
:101C80000303020202020202020202020202020232
:101C90000202010101010101010101010101010132
:101CA0000101000000000000000000000000000032
:101CB0000000000000000000000000000000000024
:101CC0000000010101010101010101010101010106
:101CD00001010202020202020202020202020202E6
:101CE00002020303030303030303030303030303C6
:101CF00003030303030303030303030303030303B4
:101D000003030202020202020202020202020202B1
:101D100002020101010101010101010101010101B1
:101D200001010000000000000000000000000000B1
:101D300000000000000000000000000000000000A3
:101D40000000010101010101010101010101010185
:101D50000101020202020202020202020202020265
:101D60000202030303030303030303030303030345
:101D70000303030303030303030303030303030333
:101D80000303030303030303030303030303030323
:101D90000303020202020202020202020202020221
:101DA0000202010101010101010101010101010121
:101DB0000101000000000000000000000000000021
:101DC0000000000000000000000000000000000013
:101DD00000000101010101010101010101010101F5
:101DE00001010202020202020202020202020202D5
:101DF00002020303030303030303030303030303B5
:101E000003030303030303030303030303030303A2
:101E100003030202020202020202020202020202A0
:101E200002020101010101010101010101010101A0
:101E30000101020202020202020202020202020284
:101E40000202040404040404040404040404040456
:101E5000040400000000000000000000000000007A
:101E60000000000000000000000000000000000072
:101E70000000000000000000000000000000000062
:101E80000000030303030303030303030303030328
:101E90000303020202020202020202020202020220
:101EA0000202010101010101010101010101010120
:101EB0000101000000000000000000000000000020
:101EC0000000000000000000000000000000000012
:101ED00000000101010101010101010101010101F4
:101EE00001010202020202020202020202020202D4
:101EF00002020303030303030303030303030303B4
:101F000003030303030303030303030303030303A1
:101F10000303030303030303030303030303030391
:101F2000030302020202020202020202020202028F
:101F3000020201010101010101010101010101018F
:101F4000010100000000000000000000000000008F
:101F50000000000000000000000000000000000081
:101F60000000010101010101010101010101010163
:101F70000101020202020202020202020202020243
:101F80000202030303030303030303030303030323
:101F90000303030303030303030303030303030311
:101FA000030302020202020202020202020202020F
:101FB000020201010101010101010101010101010F
:101FC000010100000000000000000000000000000F
:101FD0000000000000000000000000000000000001
:101FE00000000101010101010101010101010101E3
:101FF00001010202020202020202020202020202C3
:1020000002020303030303030303030303030303A2
:102010000303030303030303030303030303030390
:102020000303030303030303030303030303030380
:10203000030302020202020202020202020202027E
:10204000020201010101010101010101010101017E
:10205000010100000000000000000000000000007E
:102060000000000000000000000000000000000070
:102070000000010101010101010101010101010152
:102080000101020202020202020202020202020232
:102090000202030303030303030303030303030312
:1020A0000303030303030303030303030303030300
:1020B00003030202020202020202020202020202FE
:1020C00002020101010101010101010101010101FE
:1020D00001010000000000000000000000000000FE
:1020E00000000000000000000000000000000000F0
:1020F00000002929292929292929292914141414F6
:1021000014143D3D3D3D3D3D3D3D3D3D1E1E1E1ECD
:102110001E1E000000000000000000000000000083
:102120000000050014000100010001000100010091
:102130000100010001000100010001000100010097
:102140000100010001000100010001000100010087
:102150000100010001000100010001000100010077
:102160000100010001000100010001000100010067
:1021700001000A0014002C01900119001900190037
:102180001900190019001900190019001900190087
:102190001900190019001900190019001900190077
:1021A0001900190019001900190019001900190067
:1021B0001900190019001900190019001900190057
:1021C000190019001900900190017DB3C7586C7E69
:1021D0004831A38D332F31C7CDCD7DB3C7586C7E29
:1021E0004831A38D332F31C7CDCD7DA0DC6B6C7E04
:1021F000581F928D332F31C7CDCD7899DA58697B2E
:10220000482E978A392B33AED2D67497DF5B657828
:1022100046349B873A2B30B1D2D67098E25E617714
:102220004639A0863B2B2DB6D2D66F9BE3636076F2
:10223000483CA5853F2B29BCD1D570A0E2666176CC
:102240004C3AA785442C28BFD1D173A5DF686478A8
:102250005234A887492C28C1D1CE78A9DA68697B85
:10226000582EA78A4D2C28C2D1CB7BADD4676C7E6B
:102270005C28A58D4E2B28C2D1CA7BADD4676C7E5D
:102280005C28A58D4E2B28C2D1CA7FB0CE63708248
:102290005F22A2914D2C28C2D1CB82B2C85F738637
:1022A000611D9F954A2C28C1D1CE83B2C35A748A2E
:1022B000601A9C99452C28C0D1D184B0C055758B2B
:1022C0005D19979A3F2B29BCD1D584ACC253758A2E
:1022D000581A94993C2B2DB7D2D682A6C852738730
:1022E000531D92963A2B30B2D2D67FA0CE53708235
:1022F0004F229291392B33AED2D67C9CD4556D7F30
:102300004B28938E392B34ADD1D67C9CD4556D7F20
:102310004B28938E392B34ADD1D67497DF5B65781B
:1023200046349B873A2B30B1D2D67098E25E617703
:102330004639A0863B2B2DB6D2D66F9BE3636076E1
:10234000483CA5853F2B29BCD1D570A0E2666176BB
:102350004C3AA785442C28BFD1D173A5DF68647897
:102360005234A887492C28C1D1CE78A9DA68697B74
:10237000582EA78A4D2C28C2D1CB7BADD4676C7E5A
:102380005C28A58D4E2B28C2D1CA7BADD4676C7E4C
:102390005C28A58D4E2B28C2D1CA7FB0CE63708237
:1023A0005F22A2914D2C28C2D1CB82B2C85F738626
:1023B000611D9F954A2C28C1D1CE83B2C35A748A1D
:1023C000601A9C99452C28C0D1D184B0C055758B1A
:1023D0005D19979A3F2B29BCD1D584ACC253758A1D
:1023E000581A94993C2B2DB7D2D682A6C85273871F
:1023F000531D92963A2B30B2D2D67FA0CE53708224
:102400004F229291392B33AED2D67C9CD4556D7F1E
:102410004B28938E392B34ADD1D67C9CD4556D7F0F
:102420004B28938E392B34ADD1D67497DF5B65780A
:1024300046349B873A2B30B1D2D67098E25E6177F2
:102440004639A0863B2B2DB6D2D66F9BE3636076D0
:10245000483CA5853F2B29BCD1D56F9BE3626076B4
:1024600059199B853F2B29BCD1D57DB3C7586C7EAC
:102470004831A38D332F31C7CDCD14141414141447
:10248000141414141414141414141E1E1E1E1E1ED0
:102490001E1E1E1E1E1E1E1E1E1E00000000000010
:1024A0000000000000000000000001000100010029
:1024B000010001000100140014004001140040015B
:1024C00014007DB3C7586C7E4831A38D332F31C7BC
:1024D000CDCD7DB3C7586C7E4831A38D332F31C726
:1024E000CDCD73B3C7585F744831A380332F31C744
:1024F000CDCD63DBCE8254724339A17B22556E76FB
:10250000C3C96581CB2B55782451B47E82314CCF21
:10251000C7E46581CB2A55782451B47B82314CCFF6
:10252000C7E47DB3C7586C7E4831A38D332F31C7C4
:10253000CDCD0202020202020202020202020202E5
:10254000020202020202020002020200020202026F
:102550000202000000000000000000000000000077
:10256000000000000000000000000000000000006B
:10257000000000000000000000000000000000005B
:10258000000002020202020202020202020202022F
:102590000202000000000000000000000000000037
:1025A000000000000000000000000000000000002B
:1025B000000000000000000000000000000000001B
:1025C000000000000000000000000000000000000B
:1025D00000000000000000000000000000000000FB
:1025E00000000000000000000000000000000000EB
:1025F00000001414141414141414141414141414C3
:1026000014141E1E1E1E1E1E1E1E1E1E1E1E1E1EFE
:102610001E1E00000000000000000000000000007E
:102620000000010001000100010001000A00140087
:10263000140040011400A401DC007DB3C7586C7E77
:102640004831A38D332F31C7CDCD7DB3C7586C7EB4
:102650004831A38D332F31C7CDCD87B3C758798883
:102660004831A39A332F31C7CDCD89B8BF5A7E9850
:10267000202A78A5843935D8A79083C4B64F7A9696
:102680007A2DD0A42B355078CBB283C4B64F809628
:102690007A2DD0A42B355078CBB27DB3C7586C7E41
:1026A0004831A38D332F31C7CDCD02020202020281
:1026B00002020202020202020202020202020202FA
:1026C00002020202020202020202000202020002EE
:1026D00002020202020202020202000000000000E6
:1026E00000000000000000000000000000000000EA
:1026F00000000000000000000000020202020202CE
:1027000002020202020202020202000000000000B5
:1027100000000000000000000000000000000000B9
:1027200000000000000000000000000000000000A9
:102730000000000000000000000000000000000099
:102740000000000000000000000000000000000089
:102750000000000000000000000000000000000079
:102760000000000000000000000028282828282879
:10277000282828281414141414143C3C3C3C3C3CD9
:102780003C3C3C3C1E1E1E1E1E1E000000000000A5
:102790000000000000000000000005000100010032
:1027A00003006400DC0064003C007DA8C7556C7E1B
:1027B000532FA78F332F31C7CDCD6B92E9635F6C59
:1027C000641B9F83383E28A6CED06B96E9665F8F48
:1027D0005726A18C383E28A6CED07E96DE5C6B7D37
:1027E000621B9F904F2C28A6CED07DA5C7556C7E2E
:1027F000552FA78F332F31C7CDCD0202020202021F
:1028000002020202020202020202020202020200AA
:1028100000000000030303030303000000000000A6
:102820000000000004040404040304040404040479
:102830000404040404040404040400000000000070
:102840000000000000000000000001010101010083
:102850000000000001010100000000000000000075
:102860000000000000000000000000000000000068
:102870000000000000000000000028282828282868
:10288000282828281414141414143C3C3C3C3C3CC8
:102890003C3C3C3C1E1E1E1E1E1E00000000000094
:1028A0000000000000000000000005000100010021
:1028B00003006400DC0064003C007DA5C7556C7E0D
:1028C000572FA78F332F31C7CDCD8B96E661788EEA
:1028D00065109A9C4F2C28B7BCD0649AE0616B8E2F
:1028E00064139AA14F2C28B7BCD0799ADE5F5D7D26
:1028F0005E209C904F2C28A6CED07DA7C7556C7E1D
:10290000542FA78F332F31C7CDCD0202020202020E
:1029100002020202020202020202000000000002A1
:102920000202020204040404040400000000000285
:10293000020202020404040404040404040404045F
:10294000040404040404040404040000000000005F
:102950000000000000000000000000000000000176
:102960000101010100000001010100000000000060
:102970000000000000000000000000000000000057
:1029800000000000000000000000141414141414CF
:10299000141414141414141414141E1E1E1E1E1EBB
:1029A0001E1E1E1E1E1E1E1E1E1E000000000000FB
:1029B0000000000000000000000001000100010014
:1029C0000A000A001400080240012C0108027DB32D
:1029D000C7586C7E4831A38D332F31C7CDCD7DB321
:1029E000C7586C7E4831A38D332F31C7CDCD7D5E66
:1029F000CD596C7A9933A88C0A6769F1928F77DF89
:102A0000F9726B7C1D028E8F0B3169E9CA8B7DB91F
:102A1000F9826C7C43017C912D4145C9BDAF7DB3EA
:102A2000C7586C7E4831A38D332F31C7CDCD0202FC
:102A30000202020202020202020202020202020276
:102A4000020202020202020202020202020200006A
:102A50000000000000000000000000000000000076
:102A60000000000000000000000000000000020262
:102A7000020202020202020202020202020200003A
:102A80000000000000000000000000000000000046
:102A90000000000000000000000000000000000036
:102AA0000000000000000000000000000000000026
:102AB0000000000000000000000000000000000016
:102AC00000000000000000000000000000001414DE
:102AD00014141414141414141414141414141E1EA2
:102AE0001E1E1E1E1E1E1E1E1E1E1E1E1E1E000042
:102AF00000000000000000000000000000000100D5
:102B00000100010001001E001400DC00A4015E01B0
:102B100058027DB3C7586C7E4831A38D332F31C71F
:102B2000CDCD7DB3C7586C7E4831A38D332F31C7CF
:102B3000CDCD7AB3C8576C7A4630A38D14832AEE74
:102B40006FC97A85C86E6780762F8D8D16C86CE840
:102B50002F857459ED516884A010AD9201D277FE93
:102B600027797DB3C7586C7E4831A38D332F31C789
:102B7000CDCD02020202020202020202020202029F
:102B80000202000000000000000000000000000041
:102B90000000000000000000000000000000000035
:102BA0000000000000000000000000000000000025
:102BB00000000202020202020202020202020202F9
:102BC0000202000000000000000000000000000001
:102BD00000000000000000000000000000000000F5
:102BE00000000000000000000000000000000000E5
:102BF00000000000000000000000000000000000D5
:102C000000000000000000000000000000000000C4
:102C1000000014141414141414141414141414149C
:102C200014141E1E1E1E1E1E1E1E1E1E1E1E1E1ED8
:102C30001E1E000000000000000000000000000058
:102C400000000A0028000A002800F401E803D00769
:102C5000E8037DB3C7586C7E4831A38D332F31C74D
:102C6000CDCD7DB3C7586C7E4831A38D332F31C78E
:102C7000CDCD7D93F76A6C7E6604918D332F31C77D
:102C8000CDCD7D93F76A6C7E6604918D332F31C76D
:102C9000CDCD7DB3C7586C7E4831A38D332F31C75E
:102CA000CDCD02020202020202020202020202026E
:102CB00002020202020202020202020202020202F4
:102CC0000202000000000000000000000000000000
:102CD00000000404040404040404040404040404BC
:102CE00004040000000000000000000000000000DC
:102CF00000000101010101010101010101010101C6
:102D00000101030303030303030303030303030397
:102D100003030000000000000000000000000000AD
:102D2000000014141414141414141414141414148B
:102D300014141E1E1E1E1E1E1E1E1E1E1E1E1E1EC7
:102D40001E1E000000000000000000000000000047
:102D500000000A0028000A000A002800F401E80325
:102D6000F401F401E8037DB3C7586C7E4831A38DAC
:102D7000332F31C7CDCD7DB3C7586C7E4831A38D7D
:102D8000332F31C7CDCD7DB3C7586C7E4831A38D6D
:102D9000BB3A2EC7CDCD7DB3C7586C7E4831A38DCD
:102DA000BA672EC7CDCD7DB3C7586C7E4831A38D91
:102DB000BB3A2EC7CDCD7DB3C7586C7E4831A38DAD
:102DC000332F31C7CDCD02020202020202020202FB
:102DD00002020202020202020202020202020202D3
:102DE00002020202020202020202020202020202C3
:102DF00002020202020202020202020202020202B3
:102E0000020202020202040404040404040404048E
:102E1000040404040404000000000000000000009A
:102E200000000000000000000000000000000000A2
:102E30000000000000000000000000000000000092
:102E40000000000000000000000000000000000082
:102E50000000000000000000000000000000000072
:102E6000000000000000141414141414141414149A
:102E70001414141414141E1E1E1E1E1E1E1E1E1EAE
:102E80001E1E1E1E1E1E000000000000000000008E
:102E900000000000000028000A00140014000100D7
:102EA00001000A000A001900140014001E00840327
:102EB000C800900190017800080290019001F4018F
:102EC0009001900158027DB3C7586C7E4831A38DA4
:102ED000332F31C7CDCD7DB3C7586C7E4831A38D1C
:102EE000332F31C7CDCD7DB0F7796C7E4702828D0F
:102EF000332F31C7CDCD81B4EC6A4B8B470282743E
:102F000003324DEF9DA033B4EC6A5F8B47028274AD
:102F100001324AE89EA03398ED2D5F8B4702827400
:102F2000023231E898A03385952D5F8B4702827479
:102F3000023233E88FA0338EEA305F8B470282740F
:102F4000023231E89AA07BC2D256528B4702827479
:102F5000023231E895A084CADC695B903F047D8A27
:102F6000443431E8AAA07BAEF8766A814C04878F9E
:102F7000343231DBC2D57B9BF8766A815F04878F60
:102F8000343231DBC2D57DB3C7586C7E4831A38D56
:102F9000332F31C7CDCD0404040404040404040415
:102FA00004040404040404040404040404040404E1
:102FB00004040404040404040404040404040404D1
:102FC00004040404040404040404040404040404C1
:102FD00004040404040400000000000404040404C5
:102FE00004040404040400000000000404040404B5
:102FF00004040404040400000000000404040404A5
:103000000404040404040404040304040404040481
:103010000404040404040404040304040404040471
:103020000404040404040404040304040404040461
:103030000404040404040404040304040404040451
:103040000404040404040404040404040404040440
:103050000404040404040000000000000000000058
:103060000000000000000202020202000000000056
:103070000000000000000000000000000000000050
:103080000000000000000202020202000000000036
:103090000000000000000303030303000000000021
:1030A0000000000000000303030303000000000011
:1030B0000000000000000202020202000000000006
:1030C00000000000000002020202020000000000F6
:1030D00000000000000000000000000000000000F0
:1030E00000000000000000000000000000000000E0
:1030F00000000000000000000000000000000000D0
:1031000000000000000000000000000000000000BF
:10311000000000000000282828282828282828281F
:103120001414141414143C3C3C3C3C3C3C3C3C3CCF
:103130001E1E1E1E1E1E00000000000000000000DB
:10314000000000000000140014001400140014001B
:1031500014001400010001000A0028000F000F00F5
:10316000050032003200320001002D002D000A005F
:103170000A000A000A002D000A000A000A000A00DC
:103180002D0050001E000F000F000F000F000F0059
:103190000F000F000F00840384038403840384035F
:1031A0008403840308020802F4014006580258020E
:1031B0003408FC03FC03FC03E40784038403F401E8
:1031C000F401F401F4018403F401F401F401F401C5
:1031D000840340064006580258025802580258021A
:1031E0005802580258027DB3C7586C7E4831A38DEF
:1031F000332F31C7CDCD7DB3C7586C7E4831A38DF9
:10320000332F31C7CDCD7CB5F77C6C7E47047F8DE5
:10321000332F31C7CDCD7C77F77C6C7E83047F8DD7
:1032200087304C6CCDA77C4EF77C6C7EB9047F8DCB
:103230008730046CCDEF79DDFA686C7E9F429B8D00
:10324000BE300436CDEF79DDFA686C7E9F5AC68DAC
:10325000CE390835B6F479DDFA686C7E9F42B98DB7
:10326000BE30040F5E8D79DDFA686C7E9F42B98DA9
:10327000BE3004AE7D8D79DDFA686C7E9F42B98DDB
:10328000BE3004B472E379DDFA686C7E9F6CCA8D3F
:10329000CD3004AB32CA369FFA686C7E1C0E9C8D12
:1032A000CD3004AB32CA7E9FFA686C811C0E9C8DB7
:1032B000CD2B049728E67EC6C66D6C81373E9C8D6B
:1032C000CD2B049728E658D9817E6CA71C717F8D81
:1032D000CD2B049728E635D9897E6CC41C717F8D6F
:1032E000CD2B049728E616D98A7E6CEA1C717F8D57
:1032F000CD2B049728E658D9867E6CA71C717F8D4C
:10330000CD2B049728E658D9867E6CA71C717F8D3B
:10331000CD2B049728E67CC2F76D6B81380493901F
:10332000CD2B049728E67CCBD96D6B812F2393900E
:10333000CD2B049728E67CB0B2616B811D1493906D
:10334000CF2B048F28E67CBDCB616B811631939027
:10335000CD2B049728E67CD8C9626B813C2A9F90CC
:10336000CD2B049728E67CE4D2686B81533AB39066
:10337000CD2B049728E67CCBD96D6B812F239390BE
:10338000CD2B049728E67CB0B2616B811D1493901D
:10339000CF2B048F28E67CBDCB616B8116319390D7
:1033A000CD2B049728E67CD8C9626B813C2A9F907C
:1033B000CD2B049728E67CE4D2686B81533AB39016
:1033C000CD2B049728E67CCBD96D6B812F2393906E
:1033D000CD2B049728E681BFF76D6B829A79839095
:1033E000CD2B049728E6815E813A6E80A271C48855
:1033F000CD4E049779E6815E8A3B6E809978C488C9
:10340000CD4E04C2848D815C81396E80A279C488DE
:10341000CD4E0440848D815A84386E80A279C48850
:10342000D0242E34D0DE815EB7646E80A26EBA885E
:10343000A72D575ACAA78157C5476E80A239BA8FA0
:10344000822D5374CBA7817DC5476E80783BB88FA2
:103450008F245974CBA77BA6DF5E6A7D5123A28D92
:103460008F245974CBA77DB3C7586C7E4831A38D88
:10347000332F31C7CDCD0404040404040404040430
:1034800004040404040404040404040404040404FC
:1034900004040404040404040404040404040404EC
:1034A00004040404040404040404040404040404DC
:1034B00004040404040404040404040404040000D4
:1034C00004040404040404040404040404040000C4
:1034D00004040404040404040404040404040000B4
:1034E00004040404040404040404040404040000A4
:1034F00001010101010104040404040404040000A6
:103500000101010101010404040404040404000095
:10351000010101010101010101010101010100009D
:10352000010101010101010101010101010100008D
:103530000101010101010404040404040404000065
:103540000404040404040404040404040404000043
:103550000101010101010000000000000000000065
:10356000000000000000000000000000000000005B
:10357000000000000000000000000000000000004B
:10358000000000000000000000000000000000003B
:103590000000000000000202020202020202020217
:1035A00004040404040402020202020202020202EF
:1035B00004040404040402020202020202020202DF
:1035C00004040404040402020202020202020202CF
:1035D00004040404040402020202020202020202BF
:1035E00004040404040402020202020202020202AF
:1035F000040404040404020202020202020202029F
:10360000040404040404020202020202020202028E
:10361000040404040404020202020202020202027E
:10362000040404040404020202020202020202026E
:10363000040404040404020202020202020202025E
:10364000040404040404020202020202020202024E
:10365000040404040404020202020202020202023E
:10366000040404040404020202020202020202022E
:10367000040404040404020202020202020202021E
:10368000040404040404020202020202020202020E
:1036900004040404040402020202020202020202FE
:1036A00004040404040402020202020202020202EE
:1036B00004040404040402020202020202020202DE
:1036C00004040404040402020202020202020202CE
:1036D00004040404040402020202020202020202BE
:1036E00004040404040402020202020202020202AE
:1036F00004040404040400000000000000000000B2
:1037000000000000000000000000000000000000B9
:1037100000000000000000000000000000000000A9
:103720000000000000000000000000000000000099
:103730000000000000000000000000000000000089
:103740000000000000000000000000000000000079
:103750000000000000000000000000000000000069
:103760000000000000000000000000000000000059
:103770000000000000000000000000000000000049
:103780000000000000000000000000000000000039
:103790000000000000000000000000000000000029
:1037A0000000000000000000000000000000000019
:1037B0000000000000000000000000000000000009
:1037C00000000000000001010101010101010101EF
:1037D00001010101010103030303030303030303C5
:1037E00003030303030301010101010101010101BD
:1037F00001010101010100000000000000000000C3
:10380000000000000000030303030303030303039A
:103810000303030303030000000000000000000096
:103820000000000000000000020000000002000094
:103830000000000000000000000000000000000088
:10384000000000000000000300000300030000036C
:103850000000000000000200000000020000000064
:103860000000000000000000000000000000000058
:103870000000000000000000000000000000000048
:103880000000000000000000000000000000000038
:103890000000000000000000000000000000000028
:1038A0000000000000000000000000000000000018
:1038B0000000000000000000000000000000000008
:1038C00000000000000000000000000000000000F8
:1038D00000000000000000000000000000000000E8
:1038E00000000000000000000000000000000000D8
:1038F00000000000000000000000000000000000C8
:1039000000000000000000000000000000000000B7
:1039100000000000000000000000000000000000A7
:103920000000000000000000000000000000000097
:103930000000000000000000000000000000000087
:103940000000000000000000000000000000000077
:103950000000000000000000000000000000000067
:103960000000000000000000000000000000000057
:103970000000000000004255533D25640D0A000080
:1039800011241FBECFEFD0E1DEBFCDBF19E0A0E014
:10399000B1E0EAE4F3EF00E00BBF02C007900D9244
:1039A000A032B107D9F71EE0A0E2B9E001C01D9234
:1039B000AE31B107E1F70E940A200C94A3790C9470
:1039C00000008091D0099091D109883C910510F4B4
:1039D000DA9813C08091D0099091D109893C910562
:1039E00058F08091D0099091D1098059914020F4EC
:1039F000DA9ADB9ADC980895DA9ADB9ADC9A0895D1
:103A00009093CD098093CC098091CC099091CD09F8
:103A1000892BD1F708951F920F920FB60F921124A0
:103A20000F900FBE0F901F9018958091BC098823AE
:103A300011F18091F4099091F5098C51954228F08B
:103A40001092DB091092DA0909C08091DA0990918D
:103A5000DB0901969093DB098093DA098091DA09FA
:103A60009091DB09079768F11092BC091092DB096D
:103A70001092DA0908958091F4099091F5098C511A
:103A8000954270F01092DB091092DA098091C60914
:103A90009091C70901969093C7098093C60904C005
:103AA0001092C7091092C6098091C6099091C70962
:103AB000039738F081E08093BC091092C7091092F7
:103AC000C609089589B38370813089F48AE090E053
:103AD0009093CD098093CC098091CC099091CD0928
:103AE000892BD1F7C89B03C081E08093C80989B3B3
:103AF0008370823099F48AE090E09093CD098093AE
:103B0000CC098091CC099091CD09892BD1F789B34B
:103B10008370823019F483E08093C809089593E09C
:103B20009BBB8CEF8ABB18BA84E787BB15BA40E809
:103B300044BB83E882BB41BB80E383B988E082B9A0
:103B400010926200109261001092650084E08093F0
:103B5000640010BE83BF12BE11BE1FBC85E08EBDC7
:103B60001DBC1CBC17BC16BC1BBC1ABC19BC18BCA9
:103B7000109279001092780085BD14BC13BC10928D
:103B80008B0090938A001092890010928800109206
:103B9000810010928000109287001092860010928F
:103BA000850010928400109283001092820010927F
:103BB0006A0030E23ABF80E489BF17BE10927D00F0
:103BC0001BB828E12AB996E09093950010929000D6
:103BD00087E089B910929B0020939A0090939D00F2
:103BE000109298008093990048B910BC37B916B864
:103BF000109274000895DA9ADB9ADC9AE5E6F0E018
:103C0000808184608083AF9ADD9ADE9ADF9AC598BE
:103C10001092850A1092870A1092D1091092D00949
:103C20001092CB091092BF091092C3090895BF9258
:103C3000CF92DF92EF92FF920F931F93CF93DF9378
:103C400041E04093C00985E090E09093D9098093CA
:103C5000D8092091F4093091F50900D000D00F92D5
:103C6000EDB7FEB73196ADB7BEB711964C9382E172
:103C700092E092838183348323830E9415240F90E2
:103C80000F900F900F900F90BB24B3949CEEC92E11
:103C900091E0D92E88E2E82EF12C0CEC11E0C4EF73
:103CA000D1E075C00E94C92197FF78C00E946727A4
:103CB00097FF74C08091CB0965E00E94B17499238D
:103CC00059F52091BF093091CB098091F409909169
:103CD000F5094DB75EB7495050400FB6F8945EBF36
:103CE0000FBE4DBFEDB7FEB73196ADB7BEB711965B
:103CF000BC92D282C182238314823583168290873C
:103D000087830E9415244DB75EB7475F5F4F0FB69C
:103D1000F8945EBF0FBE4DBFAF9A809165008B7F58
:103D2000809365000E949C260E94151D8091BC090D
:103D30008823A1F1C49AF092CD09E092CC09809138
:103D4000CC099091CD09892BD1F7C4981093CD0956
:103D50000093CC098091CC099091CD09892BD1F7A2
:103D6000809165008460809365000E949C260E947B
:103D7000151D8091BC09882389F0D093CD09C0938B
:103D8000CC098091CC099091CD09892BD1F78091F4
:103D9000D8099091D909892B09F084CF85E590E065
:103DA0009093D9098093D80911E0CDECD1E061C09E
:103DB0000E94C92197FF64C00E94672797FF60C0D7
:103DC000AF9A8091C9099091CA09855F914020F00E
:103DD000809165008B7F03C0809165008460809333
:103DE00065008091C9099091CA09892B39F08091A9
:103DF000C9099091CA09845F9140B1F50E949C263F
:103E00000E94151D8091CB0965E00E94B174992331
:103E100059F52091BF093091CB098091F409909117
:103E2000F5094DB75EB7495050400FB6F8945EBFE4
:103E30000FBE4DBFEDB7FEB73196ADB7BEB7119609
:103E40001C93D283C1832383148235831682908787
:103E500087830E9415244DB75EB7475F5F4F0FB64B
:103E6000F8945EBF0FBE4DBF8091BC09882341F01E
:103E7000C49A8091D8099091D909892B09F098CFDB
:103E8000C4981092C0092091F4093091F50900D02E
:103E900000D00F92EDB7FEB7319681E0ADB7BEB757
:103EA00011968C9381EC91E09283818334832383F8
:103EB0000E9415240F900F900F900F900F90DF919C
:103EC000CF911F910F91FF90EF90DF90CF90BF9017
:103ED0000895DF92EF92FF920F931F93CF93DF939A
:103EE00000D00F9281E0ADB7BEB711968C931197B9
:103EF00082EB91E013969C938E9312970E94152467
:103F0000C0E0D0E00F900F900F9002E310E0DD24AE
:103F1000D3942AEAE22E21E0F22EAF981093CD0935
:103F20000093CC098091CC099091CD09892BD1F7D0
:103F30000E949C260E94151D8091F4099091F5091C
:103F400000D000D00F92EDB7FEB73196ADB7BEB737
:103F50001196DC92F282E182948383830E9415247D
:103F6000AF9A1093CD090093CC090F900F900F904A
:103F70000F900F908091CC099091CD09892BD1F7AA
:103F80002196CA30D10549F68091BC09882319F1E0
:103F900000D00F9211E0EDB7FEB7118382E991E0F6
:103FA000938382830E9415240F900F900F900E949C
:103FB00035610E94171E00D00F92ADB7BEB71196A3
:103FC0001C93119787E891E013969C938E93129718
:103FD0000E9415240DC000D00F9281E0EDB7FEB70E
:103FE000818386E791E0938382830E941524AF98B2
:103FF0000F900F900F90DF91CF911F910F91FF9035
:10400000EF90DF9008958091C809813011F40E94EB
:10401000691F08950E948F1D0E94FB1D0E94F021C0
:1040200060E072EC81E090E00E94DC208FEF90E293
:104030000E94BA22789487B7816087BF809165001B
:104040008B7F809365000E946B280E94621D0E94F6
:1040500003200E94E259FFCF1F920F920FB60F92DA
:104060000BB60F9211242F933F934F935F936F934F
:104070007F938F939F93AF93BF93EF93FF9389E1C8
:1040800082BF8091DE099091DF0901969093DF094C
:104090008093DE098091CC099091CD09892B49F05C
:1040A0008091CC099091CD0901979093CD0980938F
:1040B000CC090E94E11C8091A509882389F0809198
:1040C000D0099091D1096091000170E00E94BD7407
:1040D000892B31F48FE08093780A8CED0E94B5250E
:1040E0008091D0099091D10901969093D109809344
:1040F000D0098091D0099091D109885E934008F44D
:1041000043C01092D1091092D0098091CE099091AC
:10411000CF09892B49F08091CE099091CF09019761
:104120009093CF098093CE098091CB098F5F8093C4
:10413000CB098091CB098C3338F11092CB09809157
:10414000D8099091D909892B49F08091D80990918B
:10415000D90901979093D9098093D8098091BF0913
:104160008F5F8093BF098091BF098C3368F01092F4
:10417000BF098091C3098F5F8093C3098091C309F0
:10418000883110F01092C309FF91EF91BF91AF9168
:104190009F918F917F916F915F914F913F912F915F
:1041A0000F900BBE0F900FBE0F901F90189590931D
:1041B000A1098093A00908959B01AC016B54704E36
:1041C000834E9F4FF3E0660F771F881F991FFA9564
:1041D000D1F7E4E0220F331F441F551FEA95D1F7B2
:1041E0000E94E4742150304020939900309398004D
:1041F000089581EE99E008958AEE99E00895982F48
:104200008091E0098823E1F390939C001092E009EB
:1042100008951092E6091092E50908958091E50944
:104220009091E609892B11F080E008958FEF0895B1
:104230001F920F920FB60F920BB60F9211242F936D
:104240003F934F935F936F937F938F939F93AF931E
:10425000BF93EF93FF9360919C008091A009909190
:10426000A109892B39F0E091A009F091A109862FCD
:1042700009950FC081EE99E00E948022882349F4BD
:104280008091F2099091F30901969093F30980933C
:10429000F209FF91EF91BF91AF919F918F917F9123
:1042A0006F915F914F913F912F910F900BBE0F90A7
:1042B0000FBE0F901F901895682F8AEE99E00E940C
:1042C000802208951F920F920FB60F920BB60F9295
:1042D00011242F933F934F935F936F937F938F930B
:1042E0009F93AF93BF93EF93FF938091E909882346
:1042F00079F08091EE099091EF09892B39F08AEEDF
:1043000099E00E94172280939C0005C01092E90951
:104310008FEF8093E009FF91EF91BF91AF919F9153
:104320008F917F916F915F914F913F912F910F905E
:104330000BBE0F900FBE0F901F9018958FEF8093BC
:10434000E9098AEE99E00E941722982F8091E009EE
:104350008823E1F390939C001092E0090895CF9395
:10436000DF93EC018091E3099091E409892B69F0D6
:104370008091E5099091E609892B39F081EE99E069
:104380000E94172288838FEF01C080E0DF91CF91D8
:104390000895DF93CF930F92CDB7DEB7CE0101968C
:1043A0000E94AF21882319F42FEF3FEF03C08981CA
:1043B000282F30E0C9010F90CF91DF91089581EE51
:1043C00099E060E279E040E450E00E940A228AEE3F
:1043D00099E060E679E040E450E00E940A22089506
:1043E0000E94DF211092A1091092A00988ED80930C
:1043F0009A0060E875E280E090E00E94DC208FEF98
:104400008093E0091092E9091092F3091092F209E1
:1044100078940895FC018FB7F89471836083538377
:10442000428317821682158214828FBF0895DC01A1
:104430004FB7F89414968D919C911597892B11F490
:10444000E0E025C016968D919C911797ED91FC9117
:104450001197E80FF91FE081019617969C938E93B0
:10446000169712962D913C9113978217930730F06F
:10447000821B930B17969C938E93169714968D918F
:104480009C911597019715969C938E9314974FBF07
:104490008E2F0895FC014FB7F89484819581681799
:1044A0007907B0F486819781860F971F978386835B
:1044B000228133818217930720F0821B930B97830D
:1044C000868384819581861B970B9583848302C0A4
:1044D000158214824FBF0895FC01CB012FB7F894C9
:1044E0002FBF2681378162817381820F931F0E94C3
:1044F000BD740190F081E02DE80FF91F80810895CF
:104500001F93CF93DF93EC01162F4FB7F8942C81B4
:104510003D816A817B812617370798F48E819F81C0
:10452000820F931F0E94BD74E881F981E80FF91F83
:1045300010838C819D8101969D838C834FBF8FEF6B
:1045400002C04FBF80E0DF91CF911F910895FC0121
:104550008FB7F8948FBF2281338184819581281B86
:10456000390BC9010895FC018FB7F89415821482A4
:104570008FBF08959093A3098093A20908951F9374
:10458000182F8A3031F4E091A209F091A3098DE04F
:104590000995E091A209F091A309812F09951F9136
:1045A0000895CF93DF93EC01009721F406C0219684
:1045B0000E94BF2288818823D1F7DF91CF9108958F
:1045C000EF92FF920F931F93CF93DF938C017A01A9
:1045D0000097E9F020E030E02617370738F4F801BB
:1045E00081918F012F5F3F4F8823B1F7C0E0D0E06A
:1045F0000BC0F8018081882319F00F5F1F4F01C0A5
:1046000080E20E94BF222196CE15DF0590F3DF9154
:10461000CF911F910F91FF90EF900895CF93DF936B
:10462000EC01009719F407C00E94BF22FE012196F9
:1046300084918823C9F7DF91CF9108958AE00E9481
:10464000BF220895E82FF0E0EF70F070EE5DFD4FAF
:10465000E4918E2F0E94BF2208951F93182F8295F8
:104660008F700E942223812F0E9422231F91089580
:104670001F93182F892F0E942D23812F0E942D23F5
:104680001F910895EF92FF920F931F937B018C016E
:10469000C801AA27BB270E943823C7010E943823DC
:1046A0001F910F91FF90EF9008952F923F924F929C
:1046B0005F926F927F928F929F92AF92BF92CF92B2
:1046C000DF92EF92FF920F931F93DF93CF93CDB7BB
:1046D000DEB7A3970FB6F894DEBF0FBECDBF6AA3B7
:1046E000242E2BA337014801442351F017FF08C0A3
:1046F000EE24FF248701E618F7080809190902C00B
:10470000840173012AA1215090E0211091E0291B1E
:1047100029A318A2A82EBB24CC24DD24C801B701EC
:10472000A60195010E94E474FB01EF70F070EE5D4C
:10473000FD4F64916F8FC801B701A60195010E94DA
:10474000E474C901DA017C018D019EE1492E512CEE
:104750004C0E5D1E39A025C0E114F10401051105C0
:10476000C9F0C801B701A60195010E94E474FB01DC
:10477000EF70F070EE5DFD4F6491F2016083C8014F
:10478000B701A60195010E94E474C901DA017C0118
:104790008D0103C02BA1F20120833A9408944108B3
:1047A00051083320C9F6CE014F968C01E9A10E1BAA
:1047B00011092220F1F097FE05C08DE2F8018293E5
:1047C0008F0117C0C801019761147104810491041D
:1047D00019F08C018BE202C08C0180E2F801808329
:1047E00008C0F80181918F010E94BF22FAA1F15007
:1047F000FAA32AA12223A9F7A3960FB6F894DEBF45
:104800000FBECDBFCF91DF911F910F91FF90EF9021
:10481000DF90CF90BF90AF909F908F907F906F90E0
:104820005F904F903F902F9008957F928F929F922C
:10483000AF92BF92CF92DF92EF92FF920F931F93AE
:10484000DF93CF93CDB7DEB77888C988DA8853E194
:10485000E52EF12CEC0EFD1E14C0882381F480E0BF
:1048600090E0CF91DF911F910F91FF90EF90DF903B
:10487000CF90BF90AF909F908F907F9008950E94AF
:10488000BF2296012F5F3F4F772021F0F60169018B
:10489000849103C0F601808169018532F1F62F5FB2
:1048A0003F4F772021F0F6016901849103C0F601A2
:1048B00080816901843629F0883781F08336F9F6E2
:1048C00006C000E117E24AE0A42EB12C0CC0F701AB
:1048D000808122E030E0E20EF31ED1CF00E010E153
:1048E00030E1A32EB12C22E0822E912C8E0C9F1C45
:1048F000F701E080F1808436B1F4F7FE11C0F09446
:10490000E194F108F3948DE20E94BF2209C0C8012E
:104910006AE070E00E94BD748B016230710518F08E
:10492000E016F106A0F3C701B8010E94BD74862FFE
:104930000E942223C701B8010E94BD747C01C801F6
:10494000B5010E94BD748B016115710561F7740199
:1049500098CF9C01FB01DD9ADE9ADF9A8091650079
:10496000846080936500AF9A80819181821793075C
:104970000CF4DF9882819381821793070CF4DD9801
:1049800084819581821793070CF4DE988681978144
:10499000821793072CF4809165008B7F80936500CC
:1049A00080859185821793070CF4AF980895DF9363
:1049B000CF93CDB7DEB72A970FB6F894DEBF0FBE00
:1049C000CDBFDE011196E2E0F1E02AE001900D9208
:1049D0002150E1F7BE016F5F7F4F0E94A9242A9604
:1049E0000FB6F894DEBF0FBECDBFCF91DF91089513
:1049F000892B79F010927C0A10927B0A87B781602C
:104A000087BF89B7806489BFDD9881E08093A5095D
:104A1000089587B78E7F87BF89B78F7B89BF80E076
:104A200090E00E94D7241092A50908951F920F923A
:104A30000FB60F920BB60F9211242F933F934F9303
:104A40005F936F937F938F939F93AF93BF93EF93F6
:104A5000FF9395B19093770A8091780A813049F05D
:104A6000813020F08F3009F06BC00CC09093760A33
:104A700067C089E3989FC00111249093F509809342
:104A8000F4095EC0963E18F49093790A02C0109221
:104A9000790A8091790A90E00E94D72440917B0A9C
:104AA00050917C0A41155105F1F48091A6098823A3
:104AB000D1F09091790A8091A6098917A0F0809190
:104AC000A7099091A80901979093A8098093A70935
:104AD0008091A7099091A809892B91F51092A909B5
:104AE0001092A5092DC08091A609FA01EA50F64F4F
:104AF000882319F08091790A08C020818091790A71
:104B000090E0820F911D959587958083809101019A
:104B100090E001974817590741F48091A909813025
:104B200021F41092A9091092A50960910101CA010E
:104B3000019670E00E94D17490937C0A80937B0A66
:104B40001092A409FF91EF91BF91AF919F918F9126
:104B50007F916F915F914F913F912F910F900BBE7D
:104B60000F900FBE0F901F9018959091780A906249
:104B700097B986B90895C5990AC0C59A84EF91E09E
:104B800020E731E0F9013197F1F70197D9F708955E
:104B900088B30895EF92FF920F931F938091870A35
:104BA0008823E1F789B78F7B89BFC5990AC0C59A69
:104BB00084EF91E020E731E0F9013197F1F70197B7
:104BC000D9F71092780A81E08093A40980E287B92E
:104BD0008CED86B98091A4098823E1F76091760A6B
:104BE000C59829B7206429BF70E0882777FD809594
:104BF000982F0E94EB7120E030E040E050E00E94EE
:104C0000886F21EE3AE74CED50E40E94576F9B010C
:104C1000AC0166E676EA8BE894E40E94AF707B0113
:104C20008C0120E030E040E050E00E94BB7188231E
:104C3000FCF0C801B70120E030E040E251E40E94FE
:104C4000BB7188235CF40F2EF0E0EF2EF0E0FF2E16
:104C5000F0E20F2FF1E41F2FF02D14C0C801B701AF
:104C600020E030E048E452E40E945B71181654F4EE
:104C70000F2EF0E0EF2EF0E0FF2EF8E40F2FF2E41D
:104C80001F2FF02DC801B7010E94DF6D60937D0AD0
:104C90001F910F91FF90EF900895BF92CF92DF92F6
:104CA000EF92FF920F931F93CF93DF938FE0809348
:104CB000780AC0E0D0E00F2EF0E0EF2EF0E0FF2EFB
:104CC000F0E00F2FF0E01F2FF02DBB24B3944FE244
:104CD000C42E3CEDD32EB092A409C7B8D6B88091AB
:104CE000A4098823E1F76091790A70E0882777FDAD
:104CF0008095982F0E94EB719B01AC01C801B70110
:104D00000E94886F7B018C012196C233D10519F76F
:104D100020E030E040E251E40E94AF700E94DF6D7D
:104D200060937A0ADF91CF911F910F91FF90EF90DE
:104D3000DF90CF90BF9008959091A5091092A5099A
:104D400081E08093780A81E287B98CED86B9369943
:104D5000FECF9093A50908951F920F920FB60F9260
:104D60000BB60F9211248F93EF93FF9387B78F7B2E
:104D700087BF1092870AE5E6F0E080818460808337
:104D8000AF9ADD9ADE98FF91EF918F910F900BBE55
:104D90000F900FBE0F901F9018951F920F920FB695
:104DA0000F920BB60F9211248F939F93EF93FF9363
:104DB0008091870A8130B1F0813020F0823009F093
:104DC0007BC036C014BC81E08093870A86B78064BC
:104DD00086BF87B7806487BF809165008B7F809393
:104DE00065006AC084B58093840A14BC8A538931F3
:104DF00018F01092870A15C010927F0A1092860A46
:104E000082E08093870A86B7806486BF87B7806414
:104E100087BF1092890A10928A0A10928B0A109208
:104E20008C0A80916500846080936500AF9844C0CF
:104E3000DD9880916500846080936500AF9A94B599
:104E40009093840A14BC892F8D508E3060F5E091C8
:104E5000860A943138F0F0E0E757F54F8081869567
:104E6000806805C0F0E0E757F54F80818695808324
:104E700080917F0A8F5F80937F0A8830B9F4109207
:104E80007F0A8091860A8F5F8093860A843071F44E
:104E90008091890A80937E0A80918C0A8093880A87
:104EA0008FEF8093850A1092870A06C086B78064C8
:104EB00086BF87B7806487BFFF91EF919F918F91E5
:104EC0000F900BBE0F900FBE0F901F901895809102
:104ED000850A882319F42FEF3FEF06C01092850A48
:104EE0008091880A282F30E0C9010895282F30E0EA
:104EF00087FF02C020503140C9010895159A149AC5
:104F00001D9A1C9A000000001D98000000001C98CB
:104F1000000000000895159A149A1D981C9A00002C
:104F200000001D9A00000000159814980895159A25
:104F300090E087FF02C01D9A01C01D98000000008C
:104F40001C9A00000000000000001C9800000000F7
:104F50009F5F983011F0880FECCF0895159890E07E
:104F600080E0880F00000000000000001C9A000094
:104F700000000D998160000000001C989F5F983030
:104F800081F7159A08951598000000001D9A0000F9
:104F900000001C9A000000001C9800000000159AF8
:104FA000000000000895159A000000001D98000000
:104FB00000001C9A000000001C98000000001D9AD0
:104FC000000000000895159A000000001D9A0000DE
:104FD00000001C9A000000001C98000000000895CA
:104FE000CF92DF92EF92FF921F93CF93DF93182F10
:104FF0006B017A010E947E27812F0E9497270E94D1
:10500000C327C0E0D0E009C0F701EC0FFD1F80818D
:105010000E9497270E94C3272196CC15DD05A4F393
:105020000E948B2781E090E0DF91CF911F91FF904C
:10503000EF90DF90CF9008956F927F928F929F9222
:10504000AF92BF92CF92DF92FF920F931F93CF93B5
:10505000DF93F82E5B016A01490138010E947E2727
:105060008F2D0E9497270E94C327C0E0D0E009C07F
:10507000F601EC0FFD1F80810E9497270E94C32735
:105080002196CA15DB05A4F3C0E0D0E084010150ED
:1050900010400CC00E94AE27F301EC0FFD1F80836F
:1050A000C017D10714F40E94D3272196C815D9053B
:1050B0008CF30E94E3270E948B27DF91CF911F91F1
:1050C0000F91FF90DF90CF90BF90AF909F908F9007
:1050D0007F906F9008950E947E2780E70E94972717
:1050E0000E94C32784E10E9497270E94C32783E080
:1050F0000E9497270E94C3270E948B2708951F9321
:105100000E947E2780E70E9497270E94C32782E0A3
:105110000E9497270E94C3270E948B27000000004F
:10512000000000000E947E2781E70E9497270E94CE
:10513000C3270E94AE270E94D3270E94AE27182FB4
:105140000E94D327812F90E017FF02C0805091402A
:1051500090938E0A80938D0A0E94AE270E94D327D7
:105160000E94AE27182F0E94D327812F90E017FFAF
:1051700002C0805091409093900A80938F0A0E94C1
:10518000AE270E94D3270E94AE27182F0E94E32744
:10519000812F90E017FF02C0805091409093920AB7
:1051A0008093910A0E948B271F9108956F927F929E
:1051B0008F929F92AF92BF92CF92DF92EF92FF9227
:1051C0000F931F93DF93CF93CDB7DEB764970FB6DE
:1051D000F894DEBF0FBECDBF8CE091E00E94D122DB
:1051E00084E1898383E08A8380E790E062E070E075
:1051F0008E010F5F1F4FA8010E94F027EE24FF24AD
:1052000022E0622E68019BE0892E912C8C0E9D1E5F
:105210007724739483E3A82E82E0B82E698280E716
:1052200090E061E070E0A6010E94F02781E790E045
:1052300060E070E0A60126E030E084010E941C28B6
:105240008C85282F30E087FF04C0B9016050714081
:1052500001C0B9018E85282F30E087FF04C0A90165
:105260004050514001C0A9018889282F30E087FFB4
:1052700004C0C9018050914001C0C9012DB73EB79B
:10528000295030400FB6F8943EBF0FBE2DBFEDB78A
:10529000FEB73196ADB7BEB711967C92B282A182AD
:1052A0007483638356834583908787830E94152484
:1052B0002DB73EB7275F3F4F0FB6F8943EBF0FBEE6
:1052C0002DBF8AEF90E00E94001D0894E11CF11CA4
:1052D00034E1E316F10409F0A1CF64960FB6F89417
:1052E000DEBF0FBECDBFCF91DF911F910F91FF9019
:1052F000EF90DF90CF90BF90AF909F908F907F9076
:105300006F900895DC01ED91FC911197E08109C047
:10531000ED91FC91119731961196FC93EE93319794
:10532000E181E032A9F3EE2331F08D919C91119748
:1053300001968D939C938E2F0895DC01ED91FC9145
:105340001197E08109C0ED91FC911197319611966A
:10535000FC93EE933197E181E032A9F3EE2331F033
:105360008D919C91119701968D939C938E2F8154D2
:105370008A3118F0EFEFFFEF03C0F0E0E154F040A6
:10538000CF010895DC01ED91FC911197408109C096
:10539000ED91FC91119731961196FC93EE93319714
:1053A00041814032A9F3442339F08D919C911197AA
:1053B000019611969C938E9320E030E012C0C901B3
:1053C00063E0880F991F6A95E1F7220F331F280FBA
:1053D000391F240F311D2053304041911196FC9309
:1053E000EE93842F8053ED91FC9111978A3038F31E
:1053F0003197ED93FC93C9010895FC01DB0120E096
:1054000030E00BC0892F81548A3118F08F5E8A30CA
:1054100038F431969D932F5F3F4F9081992391F7F8
:105420001C92C9010895AC012091AD093091AE09DB
:10543000A1E1BBE0E0E0F0E00FC08D919C911197FD
:1054400014968417950739F4EE0FFF1FED5EF44FA5
:105450002081318106C03296E217F30774F320E011
:1054600030E0C9010895AC012091AD093091AE0939
:10547000A1E1BBE0E0E0F0E011C08D919C911197BB
:1054800014968417950749F4EE0FFF1FED5EF44F55
:1054900080819181892BE1F404C03296E217F307F1
:1054A00064F322313105A4F4F901EE0FFF1FEF5E22
:1054B000F44F51834083F901EE0FFF1FED5EF44F6F
:1054C000718360832E5F3F4F3093AE092093AD0907
:1054D0000895FC01DB01208131818D919C91119710
:1054E000918380832D933C930895860F971F62E0EC
:1054F00070E00E94D174CB010895AF92BF92CF9219
:10550000DF92EF92FF920F931F93CF93DF937C0173
:105510006B015A01CA14DB040CF07AC08601000F3B
:10552000111F0E0D1F1DC6018A0D9B1D62E070E04C
:105530000E94D174FB01EE0FFF1FEE0DFF1DD8017D
:105540002D913C9111978081918111969C938E931E
:10555000318320834D915C9196012F5F3F4FE50190
:1055600033C02F5F3F4FA216B3063CF4B901FE01D2
:10557000EE0FFF1FEE0DFF1D07C08191919148179F
:1055800059077CF7F3CF2197CC15DD0534F08081E6
:105590009181329748175907B4F32C173D079CF4B3
:1055A000D901AA0FBB1FAE0DBF1DFE01EE0FFF1FDD
:1055B000EE0DFF1D2D913C911197808191818D936E
:1055C0009C93318320839B01C217D30734F0F901E8
:1055D000EE0FFF1FEE0DFF1DC6CFFE01EE0FFF1FEA
:1055E000EE0DFF1DD8012D913C9111978081918185
:1055F0008D939C93318320832197C701B601AE011F
:105600000E947D2A92E0C92ED12CCC0EDD1E82CFC5
:10561000DF91CF911F910F91FF90EF90DF90CF908E
:10562000BF90AF900895FC0162307105B9F063300E
:1056300071053CF461157105D9F161307105A9F569
:1056400007C06330710581F06430710571F514C0D5
:10565000181619065CF1E0E0F0E02AC018161906E9
:105660002CF1E6EFFFEF24C080E090E01E161F064D
:10567000D4F481E090E017C08FEFEC3EF8071CF403
:10568000ECEEFFEF05C0E431F10514F0E3E1F0E0EA
:10569000EA5BFA4F848990E08F57904064E070E0B5
:1056A0000E94D174CB01FC0103C00895EAE0F0E050
:1056B000CF01089583309105E9F0843091054CF4D1
:1056C0008130910599F08230910594F4892B61F035
:1056D00008C08530910591F0853091056CF00697F2
:1056E00079F020E030E01CC089B30CC086B30AC05A
:1056F00083B308C080B306C081B104C080B102C0CA
:1057000080916300282F30E0683071054CF481E00F
:1057100090E002C0880F991F6A95E2F72823392389
:10572000C90108959C014D3309F472C04E33A8F4A9
:105730004B3229F14C3240F4463299F14A3229F188
:10574000453209F06DC041C04F3239F14C3309F494
:1057500047C04D3209F064C015C04C3609F446C04C
:105760004D3630F44E33B1F1473609F059C044C0DC
:105770004E3609F447C04C3709F052C01AC0260F04
:10578000371F4EC0261B370B4BC0869F9001879F4B
:10579000300D969F300D112443C00E94D1749B019F
:1057A00017C0672B19F420E030E03AC00097C1F130
:1057B00002C0009719F021E030E032C06115710598
:1057C00011F061E070E09B012BC00E94D1749C013C
:1057D000C90125C080E090E06217730704F51DC081
:1057E00080E090E026173707D4F417C080E090E0FF
:1057F00062177307A4F011C080E090E02617370706
:1058000074F00BC080E090E02617370731F407C032
:1058100080E090E06217730711F481E090E09C0152
:10582000C9010895DC018C91882319F420E030E04F
:1058300009C0FD0101C0319680818232E1F79F01EC
:105840002A1B3B0BC9010895E7E5FDE01192119277
:105850008DE0E737F807D1F70895FF920F931F9374
:10586000DF93CF9300D000D000D0CDB7DEB7F82EB5
:10587000492FFB016530710534F48E01060F171FA7
:1058800020E030E018C08FEF9FEF1FC08F2D942FC6
:105890006AE070E00E94D174805DD8018C938F2DF6
:1058A000942F6AE070E00E94D174F62E472F2F5F8C
:1058B0003F4F015010402E173F0744F3CE01019691
:1058C000E80FF91F10820E94D12226960FB6F89495
:1058D000DEBF0FBECDBFCF91DF911F910F91FF9023
:1058E00008956930710508F054C083309105D9F0EE
:1058F000843091054CF48130910579F08230910526
:105900007CF4892B61F11BC08530910591F08530C5
:10591000910564F0069799F40FC0E8E3F0E021C028
:10592000E5E3F0E01EC0E2E3F0E01BC0E3E2F0E0FC
:1059300018C0E2E6F0E015C0E5E6F0E012C000D0E5
:105940000F9281E0EDB7FEB7818382EC95E09383FF
:1059500082830E9415240F900F900F900895EBE31F
:10596000F0E06830710519F431974083089581E0C3
:1059700090E002C0880F991F6A95E2F7982F452B97
:1059800029F4808190958923808308958081892BD3
:1059900080830895CF93DF93FC01EB018E31910555
:1059A00084F04E976AE070E00E94D1749B01CF01B1
:1059B0006AE070E00E94D174BC01C901AE010E948E
:1059C000712C80E090E0DF91CF9108958091C30920
:1059D00090E062E070E00E942D2C8AE30E94BF22DA
:1059E0008091BF0990E062E070E00E942D2C8AE374
:1059F0000E94BF228091CB0990E062E070E00E949B
:105A00002D2C8DE20E94BF228091D0099091D10966
:105A100063E070E00E942D2C0895EF92FF920F93A7
:105A20001F93E82EF62E05E610E0F80180818B7FAB
:105A300080838AEE0E94BF228E2D0E94BF228F2D6E
:105A40000E94BF22FE248F2D8F770E94BF22F80173
:105A50008081846080831F910F91FF90EF90089563
:105A60002F923F924F925F926F927F928F929F926E
:105A7000AF92BF92CF92DF92EF92FF920F931F935C
:105A8000DF93CF93CDB7DEB7CC58D0400FB6F894A4
:105A9000DEBF0FBECDBF1092B8091092B70985E1E5
:105AA00091E00E94D1220E94165D8A3A29F085E297
:105AB00091E00E94D122EAC10E945D5D0E94165DC4
:105AC000A82EBB24B39467E4262E63E0362E51E55E
:105AD000852E53E0952E45E5642E43E0742E30E686
