:100000000C94B81A0C94D71A0C94D71A0C94D71ACB
:100010000C94D71A0C94D71A0C94D71A0C944D2818
:100020000C94D71A0C94D71A0C943C280C94D71A19
:100030000C94D71A0C94D71A0C94531B0C94D71AFF
:100040000C94DE1A0C94D71A0C94D71A0C94D71A65
:100050000C94D71A0C947B260C94D71A0C94D71AAC
:100060000C94D71A0C94D71A0C94D71A0C94D71A4C
:100070000C94D71A0C94D71A0C947E1C0C94D71A93
:100080000C94C81C0C94D71A0C94D71A7134713480
:10009000CB35473647360236BE357134F8344D36E7
:1000A000C735023602360A369D35C73502364D361B
:1000B000DA345665723D24526576240D0A007DC9F6
:1000C000A3436C7D3059B88E59277CA2D37F7DB372
:1000D000C7586C7E4831A38D332F31C7CDCD040472
:1000E00004040404040404040404040404040202D4
:1000F00002020202020202020000000000000101EE
:1001000001010101010101010101010101010202DD
:1001100002020202020202020202020202020404BB
:100120000404040404040404040404040404010195
:1001300001010100000000000101010000000101B7
:1001400001010100000000000101010000000303A3
:100150000303030000000000030303000000030387
:10016000030303000000000003030300000000007D
:10017000000000000000000000000000000028282F
:1001800028282828282828281414141414143C3C3F
:100190003C3C3C3C3C3C3C3C1E1E1E1E1E1E0000CB
:1001A000000000000000000000000000000001004E
:1001B0000800010005000F0046003601A401C80038
:1001C0002C017DB3C7586C7E4831A38D332F31C7C6
:1001D000CDCD7DB3C7586C7E4831A38D332F31C749
:1001E000CDCD6BA4E96A5F6C501D9B81383E28A67B
:1001F000CED06BA4E96A5F914A28A39A757C72A657
:10020000CED07EA4DE646B7D501D9B8E4F2C28A625
:10021000CED07DB3C7586C7E4831A38D332F31C704
:10022000CDCD0404040404040404040404040404FC
:1002300004040202020202020202020200000000A2
:1002400000000101010101010101010101010101A0
:100250000101020202020202020202020202020280
:100260000202040404040404040404040404040452
:100270000404000000000001010101010000000170
:100280000101000000000002020202020000000260
:100290000202000000000003030303020000000349
:1002A0000303000000000003030303030000000336
:1002B0000303000000000000000000000000000038
:1002C000000028282828282828282828141414144E
:1002D00014143C3C3C3C3C3C3C3C3C3C1E1E1E1E26
:1002E0001E1E0000000000000000000000000000D2
:1002F000000001000800010005000F004600360163
:10030000A401C8002C017DB3C7586C7E4831A38D71
:10031000332F31C7CDCD7DB3C7586C7E4831A38D07
:10032000332F31C7CDCD8BA3E664788E570E969FC1
:100330004F2C28B7BCD06CA4E0616A97501C99A7D9
:100340004F2C289170837EA4DE646B7D501D9B8EA4
:100350004F2C28A6CED07DB3C7586C7E4831A38DD4
:10036000332F31C7CDCD0404040404040404040471
:10037000040404040404040404040404040404043D
:100380000404040404040202020202020202020241
:100390000000000000000202020202000000000053
:1003A000030303030303000000000000000000003B
:1003B00004040404040304040404040404040404FE
:1003C0000404040404040000000000000000000015
:1003D0000000000000000101010101000000000018
:1003E000010101000000000000000000000000000A
:1003F00000000000000001010101010000000000F8
:1004000001010100000000000000000000000000E9
:1004100000000000000000000000000000000000DC
:10042000000000000000282828282828282828283C
:100430001414141414143C3C3C3C3C3C3C3C3C3CEC
:100440001E1E1E1E1E1E00000000000000000000F8
:10045000000000000000010005000800030001008A
:100460000F00460096003601FA0078002C017DB39B
:10047000C7586C7E4831A38D332F31C7CDCD7DB3A6
:10048000C7586C7E4831A38D332F31C7CDCD7EA7A1
:10049000DE626E7D541D9B8E4F2C28A6CED06BA4A1
:1004A000E9665F6C501D9B81383E28A6CED06BA4B8
:1004B000E9695F914A289D9A383E28A6CED07EA44D
:1004C000DE5F6B7D541D9B8E4F2C28A6CED07DB356
:1004D000C7586C7E4831A38D332F31C7CDCD04046E
:1004E00004040404040404040404040404040404CC
:1004F00004040404040404040404040404040202C0
:1005000002020202020202020404040404040000C3
:1005100000000002020202020404040404040000B9
:1005200000000002020202020404040404040404A1
:100530000404040404040404040404040404000083
:1005400000000000000000000000000000000000AB
:100550000000000101010101000000010101000093
:10056000000000000000000000000000000000008B
:100570000000000101010101000000010101000073
:10058000000000000000000000000000000000006B
:10059000000000000000000000000000000028280B
:1005A00028282828282828281414141414143C3C1B
:1005B0003C3C3C3C3C3C3C3C1E1E1E1E1E1E0000A7
:1005C000000000000000000000000000000001002A
:1005D00005000800030001000F00460096003601E8
:1005E000C80078002C017DB3C7586C7E4831A38DBC
:1005F000332F31C7CDCD7DB3C7586C7E4831A38D25
:10060000332F31C7CDCD7EA7DE626E7D541D9B8E0C
:100610004F2C28A6CED08BA3E664788E570E969FDB
:100620004F2C28B7BCD06CA4E0616A97501C99A7E6
:100630004F2C28B7BCD07EA6DE62717D541D9B8EE8
:100640004F2C28A6CED07DB3C7586C7E4831A38DE1
:10065000332F31C7CDCD040404040404040404047E
:100660000404040404040101010101010101010168
:100670000404040404040101010101010101010158
:10068000040404040404020202020202020202023E
:100690000404040404040101010101010101010138
:1006A0000404040404040303030303030303030314
:1006B000040404040404010101010100000000001D
:1006C0000101010000000101010101000000000022
:1006D0000101010000000000000000000000000017
:1006E000000000000000000000000000000000000A
:1006F00000000000000000000000000000000000FA
:1007000000000000000000000000000000000000E9
:100710000000000000001414141414141414141411
:100720001414141414141E1E1E1E1E1E1E1E1E1E25
:100730001E1E1E1E1E1E0000000000000000000005
:100740000000000000000A0005000A00010005008A
:100750000A00C800C80090017800C80090017DB36D
:10076000C7586C7E4831A38D332F31C7CDCD7DB3B3
:10077000C7586C7E4831A38D332F31C7CDCD7DA2B4
:10078000C7486C7E3B31978D332F31C7CDCD88A9BB
:10079000D25D798B243D909D332F31C7CDCD7DAD7A
:1007A000D25D7B8B500E899D332F31C7CDCD86AD69
:1007B000D25D7B8B501F9D9D332F31C7CDCD7DB337
:1007C000C7586C7E4831A38D332F31C7CDCD04047B
:1007D00004040404040404040404040404040101DF
:1007E00001010101010101010404040404040101E7
:1007F00001010101010101010404040404040202D5
:1008000002020202020202020404040404040202BC
:1008100002020202020202020404040404040303AA
:10082000030303030303030303030303030300009E
:1008300000000001010101010000000101010000B0
:1008400000000001010101010000000101000000A1
:100850000000000000000000000000000000000098
:100860000000000000000000000000000000000088
:100870000000000000000000000000000000000078
:100880000000000000000000000000000000141440
:1008900014141414141414141414141414141E1E04
:1008A0001E1E1E1E1E1E1E1E1E1E1E1E1E1E0000A4
:1008B00000000000000000000000000000000A002E
:1008C00005000A00010005000A00C800C8009001E8
:1008D0007800C80090017DB3C7586C7E4831A38D65
:1008E000332F31C7CDCD7DB3C7586C7E4831A38D32
:1008F000332F31C7CDCD7DC1CD6B6C7E5931B48DD9
:10090000332F31C7CDCD77D1C36A6077511F9D8416
:10091000332F31C7CDCD75A2E362677D4E31A37F02
:10092000332F31C7CDCD6EA8CC555C755131A38026
:10093000332F31C7CDCD7DB3C7586C7E4831A38DE1
:10094000332F31C7CDCD040404040404040404048B
:100950000404040404040404040404040404040457
:100960000404040404040303030303030303030351
:100970000303030303030000000000000000000065
:100980000404040404040303030303030303030331
:100990000303030303030202020202020202020231
:1009A000040404040404020202020202020202021B
:1009B000040404040404020202020202020202020B
:1009C00004040404040402020202020202020202FB
:1009D00004040404040403030303030303030303E1
:1009E00003030303030300000000000000000000F5
:1009F00000000000000003030303030303030303D9
:100A000003030303030300000000000000000000D4
:100A100000000000000002020202020202020202C2
:100A200002020202020200000000000000000000BA
:100A300000000000000001010101010101010101AC
:100A400001010101010100000000000000000000A0
:100A50000000000000000303030303030303030378
:100A60000303030303030000000000000000000074
:100A70000000000000000000000000000000000076
:100A800000000000000028282828282828282828D6
:100A90001E1E1E1E1E1E3C3C3C3C3C3C3C3C3C3C4A
:100AA000323232323232000000000000000000001A
:100AB0000000000000000F001E002D002D002D0082
:100AC0001E001E001E001E001E002C015802840382
:100AD00084038403580258025802580258027DB316
:100AE000C7586C7E4831A38D332F31C7CDCD7DB330
:100AF000C7586C7E4831A38D332F31C7CDCD7CDCF8
:100B0000F77D6C7E1D047F8C332F31C7CDCD7BDC10
:100B1000F656707E1D07A98B013B4AFDBFB5825377
:100B2000903F6C7DAA67BF8B013BA3FDBF588253EA
:100B3000903F6C7DAA67BF8BEA7D5A0581A6815ED6
:100B4000B7646E80A26EBA88A02D515ACDA7815786
:100B5000BF3C6E80A23BC1888A2E5974CBA781818D
:100B6000BE416E80783BBB8C852D5174CBA781A193
:100B7000C5476E805935B58F8F245974CBA77DB387
:100B8000C7586C7E4831A38D332F31C7CDCD0404B7
:100B9000040404040404040404040404040401011B
:100BA000010101010101010104040404040404041D
:100BB00004040404040404040404040404040101FB
:100BC0000101010101010101010101010101010115
:100BD0000101010101010101010101010101020203
:100BE00002020202020202020202020202020202E5
:100BF00002020202020202020202020202020202D5
:100C000002020202020202020202020202020404C0
:100C1000040404040404040404040404040400009C
:100C200000000000000000000000000000000303BE
:100C3000030303030303030303030303030300008A
:100C400000000000000000000000000000000202A0
:100C50000202020202020202020202020202000078
:100C60000000000000000000000000000000010182
:100C70000101010101010101010101010101000066
:100C8000000000000000000000000000000003035E
:100C9000030303030303030303030303030300002A
:100CA00000000000000000000000000000002828F4
:100CB00028282828282828281414141414143C3C04
:100CC0003C3C3C3C3C3C3C3C1E1E1E1E1E1E000090
:100CD00000000000000000000000000000000A000A
:100CE0000A000A000A00010023001E0028001E005E
:100CF0002C01F401F401BC023403BC0258022003AD
:100D000058027DB3C7586C7E4831A38D332F31C74D
:100D1000CDCD7DB3C7586C7E4831A38D332F31C7FD
:100D2000CDCD7D52D6596C7E4831A38D8F2F317237
:100D3000CDCD7D52DA65727DA622978F8D2F3172CF
:100D4000CDCD7DD2E450717C2319AC8EA72F2F52CC
:100D5000CDCC7DDAF756717B1F05A88D095792FE21
:100D6000A26C7DDCF47A6D7B1D05808D212A92DEDC
:100D7000D26C7DDCDE7A717B1D1C878D62324E92D7
:100D8000C5A97DA0F272717B5708878D522F45ADA2
:100D9000CDBF7DB3C7586C7E4831A38D332F31C78B
:100DA000CDCD03030303030303030303030303037F
:100DB0000303030303030303030303030303030303
:100DC00003030303030303030303030303030303F3
:100DD00003030202020202020202020202020202F1
:100DE00002020101010101010101010101010101F1
:100DF00001010000000000000000000000000000F1
:100E000000000000000000000000000000000000E2
:100E100000000101010101010101010101010101C4
:100E200001010202020202020202020202020202A4
:100E30000202030303030303030303030303030384
:100E40000303030303030303030303030303030372
:100E50000303030303030303030303030303030362
:100E60000303020202020202020202020202020260
:100E70000202010101010101010101010101010160
:100E80000101000000000000000000000000000060
:100E90000000000000000000000000000000000052
:100EA0000000010101010101010101010101010134
:100EB0000101020202020202020202020202020214
:100EC00002020303030303030303030303030303F4
:100ED00003030303030303030303030303030303E2
:100EE00003030202020202020202020202020202E0
:100EF00002020101010101010101010101010101E0
:100F000001010000000000000000000000000000DF
:100F100000000000000000000000000000000000D1
:100F200000000101010101010101010101010101B3
:100F30000101020202020202020202020202020293
:100F40000202030303030303030303030303030373
:100F50000303030303030303030303030303030361
:100F60000303030303030303030303030303030351
:100F7000030302020202020202020202020202024F
:100F8000020201010101010101010101010101014F
:100F9000010100000000000000000000000000004F
:100FA0000000000000000000000000000000000041
:100FB0000000010101010101010101010101010123
:100FC0000101020202020202020202020202020203
:100FD00002020303030303030303030303030303E3
:100FE00003030303030303030303030303030303D1
:100FF00003030202020202020202020202020202CF
:1010000002020101010101010101010101010101CE
:101010000101040404040404040404040404040496
:1010200004040000000000000000000000000000B8
:101030000000030303030303030303030303030386
:101040000303030303030303030303030303030370
:10105000030302020202020202020202020202026E
:10106000020201010101010101010101010101016E
:10107000010100000000000000000000000000006E
:101080000000000000000000000000000000000060
:101090000000010101010101010101010101010142
:1010A0000101020202020202020202020202020222
:1010B0000202030303030303030303030303030302
:1010C00003030303030303030303030303030303F0
:1010D00003030303030303030303030303030303E0
:1010E00003030202020202020202020202020202DE
:1010F00002020101010101010101010101010101DE
:1011000001010000000000000000000000000000DD
:1011100000000000000000000000000000000000CF
:1011200000000101010101010101010101010101B1
:101130000101020202020202020202020202020291
:101140000202030303030303030303030303030371
:10115000030303030303030303030303030303035F
:10116000030302020202020202020202020202025D
:10117000020201010101010101010101010101015D
:10118000010100000000000000000000000000005D
:10119000000000000000000000000000000000004F
:1011A0000000010101010101010101010101010131
:1011B0000101020202020202020202020202020211
:1011C00002020303030303030303030303030303F1
:1011D00003030303030303030303030303030303DF
:1011E00003030303030303030303030303030303CF
:1011F00003030202020202020202020202020202CD
:1012000002020101010101010101010101010101CC
:1012100001010000000000000000000000000000CC
:1012200000000000000000000000000000000000BE
:1012300000000101010101010101010101010101A0
:101240000101020202020202020202020202020280
:101250000202030303030303030303030303030360
:10126000030303030303030303030303030303034E
:10127000030302020202020202020202020202024C
:10128000020201010101010101010101010101014C
:10129000010100000000000000000000000000004C
:1012A0000000292929292929292929291414141454
:1012B00014143D3D3D3D3D3D3D3D3D3D1E1E1E1E2C
:1012C0001E1E0000000000000000000000000000E2
:1012D0000000050001000100010001000100010003
:1012E00001000100010001000100010001000100F6
:1012F00001000100010001000100010001000100E6
:1013000001000100010001000100010001000100D5
:1013100001000100010001000100010001000A00BC
:101320000F00C80019001900190019001900190050
:1013300019001900190019001900190019001900E5
:1013400019001900190019001900190019001900D5
:1013500019001900190019001900190019001900C5
:101360001900190019001900190019001900C80006
:101370002C017DB3C7586C7E4831A38D332F31C704
:10138000CDCD7DB3C7586C7E4831A38D332F31C787
:10139000CDCD7DB3C7586C7E4831A38D332F31C777
:1013A000CDCD82A5C9517386511F9395482C2891A4
:1013B000D1C984ABC5537589561C94984E2B299A74
:1013C000D1CE84AFC357758B5B1B989A572B2BA438
:1013D000D1D384B2C55B75895F1C9D98612B30ACFD
:1013E000D1D582B3C95F7386601FA195692B35B3D0
:1013F000D2D67FB2CE6270825F23A6916F2A39B6B1
:10140000D2D67CAFD4646D7F5C28AA8E712A3BB79C
:10141000D2D67CAFD4646D7F5C28AA8E712A3BB78C
:10142000D2D678ACD966697B582EAA8A6F2A39B68B
:10143000D2D674A7DD6765785333A9876A2B35B395
:10144000D2D671A2E06662764D37A785612B30ADAA
:10145000D1D56F9DE16260764939A385572B2BA4C6
:10146000D1D37199E05D627646379F854F2B299ADB
:10147000D1CE7498DD59657845339B87482C2892E6
:10148000D1C97899D954697B462E988A452C288CE5
:10149000D0C57B9CD4506C7E4928968D442C288ADC
:1014A000D0C37B9CD4506C7E4928968D442C288ACE
:1014B000D0C382A5C9517386511F9395482C28919A
:1014C000D1C984ABC5537589561C94984E2B299A63
:1014D000D1CE84AFC357758B5B1B989A572B2BA427
:1014E000D1D384B2C55B75895F1C9D98612B30ACEC
:1014F000D1D582B3C95F7386601FA195692B35B3BF
:10150000D2D67FB2CE6270825F23A6916F2A39B69F
:10151000D2D67CAFD4646D7F5C28AA8E712A3BB78B
:10152000D2D67CAFD4646D7F5C28AA8E712A3BB77B
:10153000D2D678ACD966697B582EAA8A6F2A39B67A
:10154000D2D674A7DD6765785333A9876A2B35B384
:10155000D2D671A2E06662764D37A785612B30AD99
:10156000D1D56F9DE16260764939A385572B2BA4B5
:10157000D1D37199E05D627646379F854F2B299ACA
:10158000D1CE7498DD59657845339B87482C2892D5
:10159000D1C97899D954697B462E988A452C288CD4
:1015A000D0C57B9CD4506C7E4928968D442C288ACB
:1015B000D0C37B9CD4506C7E4928968D442C288ABD
:1015C000D0C382A5C9517386511F9395482C289189
:1015D000D1C984ABC5537589561C94984E2B299A52
:1015E000D1CE7DA6E56A6C7E5617968D332F31C716
:1015F000CDCD7DB3C7586C7E4831A38D332F31C715
:10160000CDCD040404040404040404040404040408
:101610000404030303030303030303030303030398
:101620000303020202020202020202020202020298
:10163000020203030303030303030303030303037C
:101640000303020202020202020202020202020278
:101650000202010101010101010101010101010178
:101660000101000000000000000000000000000078
:10167000000000000000000000000000000000006A
:10168000000001010101010101010101010101014C
:10169000010102020202020202020202020202022C
:1016A000020203030303030303030303030303030C
:1016B00003030303030303030303030303030303FA
:1016C00003030303030303030303030303030303EA
:1016D00003030202020202020202020202020202E8
:1016E00002020101010101010101010101010101E8
:1016F00001010000000000000000000000000000E8
:1017000000000000000000000000000000000000D9
:1017100000000101010101010101010101010101BB
:10172000010102020202020202020202020202029B
:10173000020203030303030303030303030303037B
:101740000303030303030303030303030303030369
:101750000303020202020202020202020202020267
:101760000202010101010101010101010101010167
:101770000101000000000000000000000000000067
:101780000000000000000000000000000000000059
:10179000000001010101010101010101010101013B
:1017A000010102020202020202020202020202021B
:1017B00002020303030303030303030303030303FB
:1017C00003030303030303030303030303030303E9
:1017D00003030303030303030303030303030303D9
:1017E00003030202020202020202020202020202D7
:1017F00002020101010101010101010101010101D7
:1018000001010000000000000000000000000000D6
:1018100000000000000000000000000000000000C8
:1018200000000101010101010101010101010101AA
:10183000010102020202020202020202020202028A
:10184000020203030303030303030303030303036A
:101850000303030303030303030303030303030358
:101860000303020202020202020202020202020256
:101870000202010101010101010101010101010156
:10188000010102020202020202020202020202023A
:10189000020204040404040404040404040404040C
:1018A0000404000000000000000000000000000030
:1018B0000000000000000000000000000000000028
:1018C0000000000000000000000000000000000018
:1018D00000000303030303030303030303030303DE
:1018E00003030202020202020202020202020202D6
:1018F00002020101010101010101010101010101D6
:1019000001010000000000000000000000000000D5
:1019100000000000000000000000000000000000C7
:1019200000000101010101010101010101010101A9
:101930000101020202020202020202020202020289
:101940000202030303030303030303030303030369
:101950000303030303030303030303030303030357
:101960000303030303030303030303030303030347
:101970000303020202020202020202020202020245
:101980000202010101010101010101010101010145
:101990000101000000000000000000000000000045
:1019A0000000000000000000000000000000000037
:1019B0000000010101010101010101010101010119
:1019C00001010202020202020202020202020202F9
:1019D00002020303030303030303030303030303D9
:1019E00003030303030303030303030303030303C7
:1019F00003030202020202020202020202020202C5
:101A000002020101010101010101010101010101C4
:101A100001010000000000000000000000000000C4
:101A200000000000000000000000000000000000B6
:101A30000000010101010101010101010101010198
:101A40000101020202020202020202020202020278
:101A50000202030303030303030303030303030358
:101A60000303030303030303030303030303030346
:101A70000303030303030303030303030303030336
:101A80000303020202020202020202020202020234
:101A90000202010101010101010101010101010134
:101AA0000101000000000000000000000000000034
:101AB0000000000000000000000000000000000026
:101AC0000000010101010101010101010101010108
:101AD00001010202020202020202020202020202E8
:101AE00002020303030303030303030303030303C8
:101AF00003030303030303030303030303030303B6
:101B000003030202020202020202020202020202B3
:101B100002020101010101010101010101010101B3
:101B200001010000000000000000000000000000B3
:101B300000000000000000000000000000000000A5
:101B400000002929292929292929292914141414AB
:101B500014143D3D3D3D3D3D3D3D3D3D1E1E1E1E83
:101B60001E1E000000000000000000000000000039
:101B70000000050014000100010001000100010047
:101B8000010001000100010001000100010001004D
:101B9000010001000100010001000100010001003D
:101BA000010001000100010001000100010001002D
:101BB000010001000100010001000100010001001D
:101BC00001000A0014002C019001190019001900ED
:101BD000190019001900190019001900190019003D
:101BE000190019001900190019001900190019002D
:101BF000190019001900190019001900190019001D
:101C0000190019001900190019001900190019000C
:101C1000190019001900900190017DB3C7586C7E1E
:101C20004831A38D332F31C7CDCD7DB3C7586C7EDE
:101C30004831A38D332F31C7CDCD7DA0DC6B6C7EB9
:101C4000581F928D332F31C7CDCD7899DA58697BE3
:101C5000482E978A392B33AED2D67497DF5B6578DE
:101C600046349B873A2B30B1D2D67098E25E6177CA
:101C70004639A0863B2B2DB6D2D66F9BE3636076A8
:101C8000483CA5853F2B29BCD1D570A0E266617682
:101C90004C3AA785442C28BFD1D173A5DF6864785E
:101CA0005234A887492C28C1D1CE78A9DA68697B3B
:101CB000582EA78A4D2C28C2D1CB7BADD4676C7E21
:101CC0005C28A58D4E2B28C2D1CA7BADD4676C7E13
:101CD0005C28A58D4E2B28C2D1CA7FB0CE637082FE
:101CE0005F22A2914D2C28C2D1CB82B2C85F7386ED
:101CF000611D9F954A2C28C1D1CE83B2C35A748AE4
:101D0000601A9C99452C28C0D1D184B0C055758BE0
:101D10005D19979A3F2B29BCD1D584ACC253758AE3
:101D2000581A94993C2B2DB7D2D682A6C8527387E5
:101D3000531D92963A2B30B2D2D67FA0CE537082EA
:101D40004F229291392B33AED2D67C9CD4556D7FE5
:101D50004B28938E392B34ADD1D67C9CD4556D7FD6
:101D60004B28938E392B34ADD1D67497DF5B6578D1
:101D700046349B873A2B30B1D2D67098E25E6177B9
:101D80004639A0863B2B2DB6D2D66F9BE363607697
:101D9000483CA5853F2B29BCD1D570A0E266617671
:101DA0004C3AA785442C28BFD1D173A5DF6864784D
:101DB0005234A887492C28C1D1CE78A9DA68697B2A
:101DC000582EA78A4D2C28C2D1CB7BADD4676C7E10
:101DD0005C28A58D4E2B28C2D1CA7BADD4676C7E02
:101DE0005C28A58D4E2B28C2D1CA7FB0CE637082ED
:101DF0005F22A2914D2C28C2D1CB82B2C85F7386DC
:101E0000611D9F954A2C28C1D1CE83B2C35A748AD2
:101E1000601A9C99452C28C0D1D184B0C055758BCF
:101E20005D19979A3F2B29BCD1D584ACC253758AD2
:101E3000581A94993C2B2DB7D2D682A6C8527387D4
:101E4000531D92963A2B30B2D2D67FA0CE537082D9
:101E50004F229291392B33AED2D67C9CD4556D7FD4
:101E60004B28938E392B34ADD1D67C9CD4556D7FC5
:101E70004B28938E392B34ADD1D67497DF5B6578C0
:101E800046349B873A2B30B1D2D67098E25E6177A8
:101E90004639A0863B2B2DB6D2D66F9BE363607686
:101EA000483CA5853F2B29BCD1D56F9BE36260766A
:101EB00059199B853F2B29BCD1D57DB3C7586C7E62
:101EC0004831A38D332F31C7CDCD141414141414FD
:101ED000141414141414141414141E1E1E1E1E1E86
:101EE0001E1E1E1E1E1E1E1E1E1E000000000000C6
:101EF00000000000000000000000010001000100DF
:101F00000100010001001400140040011400400110
:101F100014007DB3C7586C7E4831A38D332F31C771
:101F2000CDCD7DB3C7586C7E4831A38D332F31C7DB
:101F3000CDCD73B3C7585F744831A380332F31C7F9
:101F4000CDCD63DBCE8254724339A17B22556E76B0
:101F5000C3C96581CB2B55782451B47E82314CCFD7
:101F6000C7E46581CB2A55782451B47B82314CCFAC
:101F7000C7E47DB3C7586C7E4831A38D332F31C77A
:101F8000CDCD02020202020202020202020202029B
:101F90000202020202020200020202000202020225
:101FA000020200000000000000000000000000002D
:101FB0000000000000000000000000000000000021
:101FC0000000000000000000000000000000000011
:101FD00000000202020202020202020202020202E5
:101FE00002020000000000000000000000000000ED
:101FF00000000000000000000000000000000000E1
:1020000000000000000000000000000000000000D0
:1020100000000000000000000000000000000000C0
:1020200000000000000000000000000000000000B0
:1020300000000000000000000000000000000000A0
:102040000000141414141414141414141414141478
:1020500014141E1E1E1E1E1E1E1E1E1E1E1E1E1EB4
:102060001E1E000000000000000000000000000034
:102070000000010001000100010001000A0014003D
:10208000140040011400A401DC007DB3C7586C7E2D
:102090004831A38D332F31C7CDCD7DB3C7586C7E6A
:1020A0004831A38D332F31C7CDCD87B3C758798839
:1020B0004831A39A332F31C7CDCD89B8BF5A7E9806
:1020C000202A78A5843935D8A79083C4B64F7A964C
:1020D0007A2DD0A42B355078CBB283C4B64F8096DE
:1020E0007A2DD0A42B355078CBB27DB3C7586C7EF7
:1020F0004831A38D332F31C7CDCD02020202020237
:1021000002020202020202020202020202020202AF
:1021100002020202020202020202000202020002A3
:10212000020202020202020202020000000000009B
:10213000000000000000000000000000000000009F
:102140000000000000000000000002020202020283
:10215000020202020202020202020000000000006B
:10216000000000000000000000000000000000006F
:10217000000000000000000000000000000000005F
:10218000000000000000000000000000000000004F
:10219000000000000000000000000000000000003F
:1021A000000000000000000000000000000000002F
:1021B000000000000000000000002828282828282F
:1021C000282828281414141414143C3C3C3C3C3C8F
:1021D0003C3C3C3C1E1E1E1E1E1E0000000000005B
:1021E00000000000000000000000050001000100E8
:1021F00003006400DC0064003C007DA8C7556C7ED1
:10220000532FA78F332F31C7CDCD6B92E9635F6C0E
:10221000641B9F83383E28A6CED06B96E9665F8FFD
:102220005726A18C383E28A6CED07E96DE5C6B7DEC
:10223000621B9F904F2C28A6CED07DA5C7556C7EE3
:10224000552FA78F332F31C7CDCD020202020202D4
:102250000202020202020202020202020202020060
:10226000000000000303030303030000000000005C
:10227000000000000404040404030404040404042F
:102280000404040404040404040400000000000026
:102290000000000000000000000001010101010039
:1022A000000000000101010000000000000000002B
:1022B000000000000000000000000000000000001E
:1022C000000000000000000000002828282828281E
:1022D000282828281414141414143C3C3C3C3C3C7E
:1022E0003C3C3C3C1E1E1E1E1E1E0000000000004A
:1022F00000000000000000000000050001000100D7
:1023000003006400DC0064003C007DA5C7556C7EC2
:10231000572FA78F332F31C7CDCD8B96E661788E9F
:1023200065109A9C4F2C28B7BCD0649AE0616B8EE4
:1023300064139AA14F2C28B7BCD0799ADE5F5D7DDB
:102340005E209C904F2C28A6CED07DA7C7556C7ED2
:10235000542FA78F332F31C7CDCD020202020202C4
:102360000202020202020202020200000000000257
:10237000020202020404040404040000000000023B
:102380000202020204040404040404040404040415
:102390000404040404040404040400000000000015
:1023A000000000000000000000000000000000012C
:1023B0000101010100000001010100000000000016
:1023C000000000000000000000000000000000000D
:1023D0000000000000000000000014141414141485
:1023E000141414141414141414141E1E1E1E1E1E71
:1023F0001E1E1E1E1E1E1E1E1E1E000000000000B1
:1024000000000000000000000000010001000100C9
:102410000A000A001400080240012C0108027DB3E2
:10242000C7586C7E4831A38D332F31C7CDCD7DB3D6
:10243000C7586C7E4831A38D332F31C7CDCD7D5E1B
:10244000CD596C7A9933A88C0A6769F1928F77DF3E
:10245000F9726B7C1D028E8F0B3169E9CA8B7DB9D5
:10246000F9826C7C43017C912D4145C9BDAF7DB3A0
:10247000C7586C7E4831A38D332F31C7CDCD0202B2
:10248000020202020202020202020202020202022C
:102490000202020202020202020202020202000020
:1024A000000000000000000000000000000000002C
:1024B0000000000000000000000000000000020218
:1024C00002020202020202020202020202020000F0
:1024D00000000000000000000000000000000000FC
:1024E00000000000000000000000000000000000EC
:1024F00000000000000000000000000000000000DC
:1025000000000000000000000000000000000000CB
:102510000000000000000000000000000000141493
:1025200014141414141414141414141414141E1E57
:102530001E1E1E1E1E1E1E1E1E1E1E1E1E1E0000F7
:10254000000000000000000000000000000001008A
:102550000100010001001E001400DC00A4015E0166
:1025600058027DB3C7586C7E4831A38D332F31C7D5
:10257000CDCD7DB3C7586C7E4831A38D332F31C785
:10258000CDCD7AB3C8576C7A4630A38D14832AEE2A
:102590006FC97A85C86E6780762F8D8D16C86CE8F6
:1025A0002F857459ED516884A010AD9201D277FE49
:1025B00027797DB3C7586C7E4831A38D332F31C73F
:1025C000CDCD020202020202020202020202020255
:1025D00002020000000000000000000000000000F7
:1025E00000000000000000000000000000000000EB
:1025F00000000000000000000000000000000000DB
:1026000000000202020202020202020202020202AE
:1026100002020000000000000000000000000000B6
:1026200000000000000000000000000000000000AA
:10263000000000000000000000000000000000009A
:10264000000000000000000000000000000000008A
:10265000000000000000000000000000000000007A
:102660000000141414141414141414141414141452
:1026700014141E1E1E1E1E1E1E1E1E1E1E1E1E1E8E
:102680001E1E00000000000000000000000000000E
:1026900000000A0028000A002800F401E803D0071F
:1026A000E8037DB3C7586C7E4831A38D332F31C703
:1026B000CDCD7DB3C7586C7E4831A38D332F31C744
:1026C000CDCD7D93F76A6C7E6604918D332F31C733
:1026D000CDCD7D93F76A6C7E6604918D332F31C723
:1026E000CDCD7DB3C7586C7E4831A38D332F31C714
:1026F000CDCD020202020202020202020202020224
:1027000002020202020202020202020202020202A9
:1027100002020000000000000000000000000000B5
:102720000000040404040404040404040404040471
:102730000404000000000000000000000000000091
:10274000000001010101010101010101010101017B
:10275000010103030303030303030303030303034D
:102760000303000000000000000000000000000063
:102770000000141414141414141414141414141441
:1027800014141E1E1E1E1E1E1E1E1E1E1E1E1E1E7D
:102790001E1E0000000000000000000000000000FD
:1027A00000000A0028000A000A002800F401E803DB
:1027B000F401F401E8037DB3C7586C7E4831A38D62
:1027C000332F31C7CDCD7DB3C7586C7E4831A38D33
:1027D000332F31C7CDCD7DB3C7586C7E4831A38D23
:1027E000BB3A2EC7CDCD7DB3C7586C7E4831A38D83
:1027F000BA672EC7CDCD7DB3C7586C7E4831A38D47
:10280000BB3A2EC7CDCD7DB3C7586C7E4831A38D62
:10281000332F31C7CDCD02020202020202020202B0
:102820000202020202020202020202020202020288
:102830000202020202020202020202020202020278
:102840000202020202020202020202020202020268
:102850000202020202020404040404040404040444
:102860000404040404040000000000000000000050
:102870000000000000000000000000000000000058
:102880000000000000000000000000000000000048
:102890000000000000000000000000000000000038
:1028A0000000000000000000000000000000000028
:1028B0000000000000001414141414141414141450
:1028C0001414141414141E1E1E1E1E1E1E1E1E1E64
:1028D0001E1E1E1E1E1E0000000000000000000044
:1028E00000000000000028000A001400140001008D
:1028F00001000A000A001900140014001E008403DD
:10290000C800900190017800080290019001F40144
:102910009001900158027DB3C7586C7E4831A38D59
:10292000332F31C7CDCD7DB3C7586C7E4831A38DD1
:10293000332F31C7CDCD7DB0F7796C7E4702828DC4
:10294000332F31C7CDCD81B4EC6A4B8B47028274F3
:1029500003324DEF9DA033B4EC6A5F8B4702827463
:1029600001324AE89EA03398ED2D5F8B47028274B6
:10297000023231E898A03385952D5F8B470282742F
:10298000023233E88FA0338EEA305F8B47028274C5
:10299000023231E89AA07BC2D256528B470282742F
:1029A000023231E895A084CADC695B903F047D8ADD
:1029B000443431E8AAA07BAEF8766A814C04878F54
:1029C000343231DBC2D57B9BF8766A815F04878F16
:1029D000343231DBC2D57DB3C7586C7E4831A38D0C
:1029E000332F31C7CDCD04040404040404040404CB
:1029F0000404040404040404040404040404040497
:102A00000404040404040404040404040404040486
:102A10000404040404040404040404040404040476
:102A2000040404040404000000000004040404047A
:102A3000040404040404000000000004040404046A
:102A4000040404040404000000000004040404045A
:102A50000404040404040404040304040404040437
:102A60000404040404040404040304040404040427
:102A70000404040404040404040304040404040417
:102A80000404040404040404040304040404040407
:102A900004040404040404040404040404040404F6
:102AA000040404040404000000000000000000000E
:102AB000000000000000020202020200000000000C
:102AC0000000000000000000000000000000000006
:102AD00000000000000002020202020000000000EC
:102AE00000000000000003030303030000000000D7
:102AF00000000000000003030303030000000000C7
:102B000000000000000002020202020000000000BB
:102B100000000000000002020202020000000000AB
:102B200000000000000000000000000000000000A5
:102B30000000000000000000000000000000000095
:102B40000000000000000000000000000000000085
:102B50000000000000000000000000000000000075
:102B600000000000000028282828282828282828D5
:102B70001414141414143C3C3C3C3C3C3C3C3C3C85
:102B80001E1E1E1E1E1E0000000000000000000091
:102B900000000000000014001400140014001400D1
:102BA00014001400010001000A0028000F000F00AB
:102BB000050032003200320001002D002D000A0015
:102BC0000A000A000A002D000A000A000A000A0092
:102BD0002D0050001E000F000F000F000F000F000F
:102BE0000F000F000F008403840384038403840315
:102BF0008403840308020802F401400658025802C4
:102C00003408FC03FC03FC03E40784038403F4019D
:102C1000F401F401F4018403F401F401F401F4017A
:102C200084034006400658025802580258025802CF
:102C30005802580258027DB3C7586C7E4831A38DA4
:102C4000332F31C7CDCD7DB3C7586C7E4831A38DAE
:102C5000332F31C7CDCD7CB5F77C6C7E47047F8D9B
:102C6000332F31C7CDCD7C77F77C6C7E83047F8D8D
:102C700087304C6CCDA77C4EF77C6C7EB9047F8D81
:102C80008730046CCDEF79DDFA686C7E9F429B8DB6
:102C9000BE300436CDEF79DDFA686C7E9F5AC68D62
:102CA000CE390835B6F479DDFA686C7E9F42B98D6D
:102CB000BE30040F5E8D79DDFA686C7E9F42B98D5F
:102CC000BE3004AE7D8D79DDFA686C7E9F42B98D91
:102CD000BE3004B472E379DDFA686C7E9F6CCA8DF5
:102CE000CD3004AB32CA369FFA686C7E1C0E9C8DC8
:102CF000CD3004AB32CA7E9FFA686C811C0E9C8D6D
:102D0000CD2B049728E67EC6C66D6C81373E9C8D20
:102D1000CD2B049728E658D9817E6CA71C717F8D36
:102D2000CD2B049728E635D9897E6CC41C717F8D24
:102D3000CD2B049728E616D98A7E6CEA1C717F8D0C
:102D4000CD2B049728E658D9867E6CA71C717F8D01
:102D5000CD2B049728E658D9867E6CA71C717F8DF1
:102D6000CD2B049728E67CC2F76D6B8138049390D5
:102D7000CD2B049728E67CCBD96D6B812F239390C4
:102D8000CD2B049728E67CB0B2616B811D14939023
:102D9000CF2B048F28E67CBDCB616B8116319390DD
:102DA000CD2B049728E67CD8C9626B813C2A9F9082
:102DB000CD2B049728E67CE4D2686B81533AB3901C
:102DC000CD2B049728E67CCBD96D6B812F23939074
:102DD000CD2B049728E67CB0B2616B811D149390D3
:102DE000CF2B048F28E67CBDCB616B81163193908D
:102DF000CD2B049728E67CD8C9626B813C2A9F9032
:102E0000CD2B049728E67CE4D2686B81533AB390CB
:102E1000CD2B049728E67CCBD96D6B812F23939023
:102E2000CD2B049728E681BFF76D6B829A7983904A
:102E3000CD2B049728E6815E813A6E80A271C4880A
:102E4000CD4E049779E6815E8A3B6E809978C4887E
:102E5000CD4E04C2848D815C81396E80A279C48894
:102E6000CD4E0440848D815A84386E80A279C48806
:102E7000D0242E34D0DE815EB7646E80A26EBA8814
:102E8000A72D575ACAA78157C5476E80A239BA8F56
:102E9000822D5374CBA7817DC5476E80783BB88F58
:102EA0008F245974CBA77BA6DF5E6A7D5123A28D48
:102EB0008F245974CBA77DB3C7586C7E4831A38D3E
:102EC000332F31C7CDCD04040404040404040404E6
:102ED00004040404040404040404040404040404B2
:102EE00004040404040404040404040404040404A2
:102EF0000404040404040404040404040404040492
:102F00000404040404040404040404040404000089
:102F10000404040404040404040404040404000079
:102F20000404040404040404040404040404000069
:102F30000404040404040404040404040404000059
:102F4000010101010101040404040404040400005B
:102F5000010101010101040404040404040400004B
:102F60000101010101010101010101010101000053
:102F70000101010101010101010101010101000043
:102F8000010101010101040404040404040400001B
:102F900004040404040404040404040404040000F9
:102FA000010101010101000000000000000000001B
:102FB0000000000000000000000000000000000011
:102FC0000000000000000000000000000000000001
:102FD00000000000000000000000000000000000F1
:102FE00000000000000002020202020202020202CD
:102FF00004040404040402020202020202020202A5
:103000000404040404040202020202020202020294
:103010000404040404040202020202020202020284
:103020000404040404040202020202020202020274
:103030000404040404040202020202020202020264
:103040000404040404040202020202020202020254
:103050000404040404040202020202020202020244
:103060000404040404040202020202020202020234
:103070000404040404040202020202020202020224
:103080000404040404040202020202020202020214
:103090000404040404040202020202020202020204
:1030A00004040404040402020202020202020202F4
:1030B00004040404040402020202020202020202E4
:1030C00004040404040402020202020202020202D4
:1030D00004040404040402020202020202020202C4
:1030E00004040404040402020202020202020202B4
:1030F00004040404040402020202020202020202A4
:103100000404040404040202020202020202020293
:103110000404040404040202020202020202020283
:103120000404040404040202020202020202020273
:103130000404040404040202020202020202020263
:103140000404040404040000000000000000000067
:10315000000000000000000000000000000000006F
:10316000000000000000000000000000000000005F
:10317000000000000000000000000000000000004F
:10318000000000000000000000000000000000003F
:10319000000000000000000000000000000000002F
:1031A000000000000000000000000000000000001F
:1031B000000000000000000000000000000000000F
:1031C00000000000000000000000000000000000FF
:1031D00000000000000000000000000000000000EF
:1031E00000000000000000000000000000000000DF
:1031F00000000000000000000000000000000000CF
:1032000000000000000000000000000000000000BE
:1032100000000000000001010101010101010101A4
:10322000010101010101030303030303030303037A
:103230000303030303030101010101010101010172
:103240000101010101010000000000000000000078
:103250000000000000000303030303030303030350
:10326000030303030303000000000000000000004C
:10327000000000000000000002000000000200004A
:10328000000000000000000000000000000000003E
:103290000000000000000003000003000300000322
:1032A000000000000000020000000002000000001A
:1032B000000000000000000000000000000000000E
:1032C00000000000000000000000000000000000FE
:1032D00000000000000000000000000000000000EE
:1032E00000000000000000000000000000000000DE
:1032F00000000000000000000000000000000000CE
:1033000000000000000000000000000000000000BD
:1033100000000000000000000000000000000000AD
:10332000000000000000000000000000000000009D
:10333000000000000000000000000000000000008D
:10334000000000000000000000000000000000007D
:10335000000000000000000000000000000000006D
:10336000000000000000000000000000000000005D
:10337000000000000000000000000000000000004D
:10338000000000000000000000000000000000003D
:10339000000000000000000000000000000000002D
:1033A000000000000000000000000000000000001D
:1033B000000000000000000000000000000000000D
:1033C00000000000000000010203040506070809D0
:1033D0000A0B0C0D0E0F0D0A002025642025782CF9
:1033E0000030313233343536373839414243444581
:1033F000460025640D0A00204D49433D0025646DBB
:10340000560020564F4C543D002578005053443D03
:1034100000207A3D25640D0A002C20793D25642C7E
:103420000056616C75657320783D202564000D0A97
:10343000002564002563002320002564203D200032
:10344000504F52543A25633A2563002563203D20AE
:103450000020002564200025782000257820002504
:1034600078200025782000436C6561726564202512
:1034700064206279746573200D0A00256400557319
:10348000657220427265616B206F6E206C696E659B
:103490002025640D0A003A202564202D2000527555
:1034A0006E74696D65206572726F722025640D0AF5
:1034B000003F207370656369616C20256420697327
:1034C0002072656164206F6E6C790D0A00476F741D
:1034D0006F206C696E65206D697373696E67203F3C
:1034E0003F0D0A006576616C206572726F7220254F
:1034F000642C2025640D0A0070616E69632065727A
:10350000726F720D0A000D0A2564206C696E657376
:1035100020656E74657265642C205B25642F2564BC
:103520005D2042797465730D0A0050616E696320F5
:1035300025640D0A00506F733D2564205B25635D93
:103540000D0A0050726F6772616D20656E7472793A
:10355000206D6F646520282E20746F206578697453
:10356000290D0A000D0A004255533D25640D0A003D
:1035700011241FBECFEFD0E1DEBFCDBF15E0A0E02C
:10358000B1E0EEE4F2E900E00BBF02C007900D925B
:10359000AC35B107D9F71DE0ACE5B5E001C01D922F
:1035A000A03BB107E1F70E941B1C0C9425490C9429
:1035B000000090937C0A80937B0AFFCF1F920F92AA
:1035C0000FB60F9211242F938F939F9389E182BF9F
:1035D00080917B0A90917C0A892B49F080917B0A2B
:1035E00090917C0A019790937C0A80937B0A80914A
:1035F0007F0A9091800A01969093800A80937F0AB7
:1036000080917F0A9091800A885E934008F443C0BD
:103610001092800A10927F0A80917D0A90917E0A12
:10362000892B49F080917D0A90917E0A01979093B1
:103630007E0A80937D0A80917A0A8F5F80937A0A4E
:1036400080917A0A8C3338F110927A0A8091850A37
:103650009091860A892B49F08091850A9091860A7B
:1036600001979093860A8093850A80915E0A8F5F06
:1036700080935E0A80915E0A8C3368F010925E0A35
:103680008091750A8F5F8093750A8091750A8831E1
:1036900010F01092750A9F918F912F910F900FBE8D
:1036A0000F901F9018951F920F920FB60F92112432
:1036B0002F933F938F939F932091DE053091DF05E9
:1036C0008091A90A9091AA0A2817390761F41092EB
:1036D000DF051092DE05DD9A1092890A87B78B7F8D
:1036E00087BF1EBC0FC08091E0059091E1059DBD94
:1036F0008CBD86B7846086BF87B7846087BF8FEF35
:1037000080938A0A9F918F913F912F910F900FBEC6
:103710000F901F90189593E09BBB8CEF8ABB18BA53
:1037200084E787BB15BA40E844BB92BB11BA80E777
:1037300083B988E082B91092620010926100109201
:10374000650084E08093640010BE83BF12BE11BE8A
:103750001FBC85E08EBD1DBC1CBC17BC16BC1BBCB1
:103760001ABC19BC18BC109279001092780085BD63
:1037700014BC13BC10928B0090938A0010928900A5
:1037800010928800109281001092800010928700A1
:10379000109286001092850010928400109283008F
:1037A0001092820010926A0030E23ABF80E489BF32
:1037B00017BE10927D001BB888E58AB926E02093D9
:1037C00095001092900097E099B910929B0088E1C3
:1037D00080939A0020939D001092980090939900F6
:1037E00048B910BC37B916B8109274000895DA9A27
:1037F000DB9ADC9AE5E6F0E0808184608083AF9A12
:10380000DD9ADE9ADF9A1092890A10928A0A109243
:10381000B50C1092AD0AC5981092660D1092680D05
:103820001092800A10927F0A10927A0A10925E0A11
:103830001092750A08950E948B1B0E94F71B0E942C
:10384000561D60E072EC81E090E00E94421C85E62B
:103850009CE10E947524789487B7816087BF80912E
:1038600065008B7F809365000E94562988EC90E06C
:1038700090937C0A80937B0AFFCF9093DD05809321
:10388000DC0508959B01AC016B54704E834E9F4F35
:10389000F3E0660F771F881F991FFA95D1F7E4E0D0
:1038A000220F331F441F551FEA95D1F70E949248FB
:1038B00021503040209399003093980008958CE86F
:1038C0009AE0089585E99AE00895982F80918B0AEF
:1038D0008823E1F390939C0010928B0A0895109234
:1038E000910A1092900A08958091900A9091910AFD
:1038F000892B11F080E008958FEF08951F920F92A9
:103900000FB60F920BB60F9211242F933F934F9344
:103910005F936F937F938F939F93AF93BF93EF9337
:10392000FF9360919C008091DC059091DD05892BCF
:1039300039F0E091DC05F091DD05862F09950FC087
:103940008CE89AE00E94E61D882349F480919D0A44
:1039500090919E0A019690939E0A80939D0AFF91F2
:10396000EF91BF91AF919F918F917F916F915F91F7
:103970004F913F912F910F900BBE0F900FBE0F9064
:103980001F901895682F85E99AE00E94E61D08951A
:103990001F920F920FB60F920BB60F9211242F9316
:1039A0003F934F935F936F937F938F939F93AF93C7
:1039B000BF93EF93FF938091940A882379F08091CD
:1039C000990A90919A0A892B39F085E99AE00E9428
:1039D0007D1D80939C0005C01092940A8FEF809308
:1039E0008B0AFF91EF91BF91AF919F918F917F9142
:1039F0006F915F914F913F912F910F900BBE0F9060
:103A00000FBE0F901F9018958FEF8093940A85E951
:103A10009AE00E947D1D982F80918B0A8823E1F304
:103A200090939C0010928B0A0895CF93DF93EC0142
:103A300080918E0A90918F0A892B69F08091900A6B
:103A40009091910A892B39F08CE89AE00E947D1DB3
:103A500088838FEF01C080E0DF91CF910895DF93DD
:103A6000CF930F92CDB7DEB7CE0101960E94151D00
:103A7000882319F42FEF3FEF03C08981282F30E00E
:103A8000C9010F90CF91DF91089540E450E06CE5BB
:103A900075E08CE89AE00E94701D40E450E06CE90B
:103AA00075E085E99AE00E94701D08950E94451D09
:103AB0001092DD051092DC0588ED80939A0060E895
:103AC00075E280E090E00E94421C8FEF80938B0AA9
:103AD0001092940A10929E0A10929D0A789408956A
:103AE000FC018FB7F89471836083538342831782FC
:103AF0001682158214828FBF0895DC014FB7F894A7
:103B000014968D919C911597892B11F4E0E025C0B6
:103B100016968D919C911797ED91FC911197E80F56
:103B2000F91FE081019617969C938E931697129633
:103B30002D913C9113978217930730F0821B930BC2
:103B400017969C938E93169714968D919C9115972A
:103B5000019715969C938E9314974FBF8E2F0895BF
:103B6000FC014FB7F8948481958168177907B0F408
:103B700086819781860F971F978386832281338161
:103B80008217930720F0821B930B9783868384818F
:103B90009581861B970B9583848302C015821482BE
:103BA0004FBF0895FC01CB012FB7F8942FBF26819A
:103BB000378162817381820F931F0E946B4801904D
:103BC000F081E02DE80FF91F808108951F93CF93B6
:103BD000DF93EC01162F4FB7F8942C813D816A8159
:103BE0007B812617370798F48E819F81820F931F60
:103BF0000E946B48E881F981E80FF91F10838C81DE
:103C00009D8101969D838C834FBF8FEF02C04FBF74
:103C100080E0DF91CF911F910895FC018FB7F89458
:103C20008FBF2281338184819581281B390BC90183
:103C30000895FC018FB7F894158214828FBF089500
:103C40008091920290919302825E954019F022EE4B
:103C500035E002C02CE138E03093930220939202C9
:103C6000C90108955D9BFECF8CB9089520917F0A0C
:103C70003091800A17C080917F0A9091800A821744
:103C8000930738F480917F0A9091800A88519C4F65
:103C900004C080917F0A9091800A821B930B853625
:103CA000910510F45F9BE7CF8CB108955D9BFECF2B
:103CB0008FEF8CB95D9BFECF8FED8CB95D9BFECFF6
:103CC00080E28CB95D9BFECF8FE78CB920917F0A93
:103CD0003091800A17C080917F0A9091800A8217E4
:103CE000930738F480917F0A9091800A88519C4F05
:103CF00004C080917F0A9091800A821B930B8536C5
:103D0000910510F45F9BE7CF8CB120917F0A309131
:103D1000800A17C080917F0A9091800A82179307CA
:103D200038F480917F0A9091800A88519C4F04C09A
:103D300080917F0A9091800A821B930B85369105B2
:103D400010F45F9BE7CF8CB10895EF92FF920F9331
:103D50001F93CF93DF932091BC0C3091BD0CC09189
:103D6000BA0CD091BB0CC901BE010E946B486431F2
:103D70007105C8F1B90180E090E00E94F84426E6A0
:103D800036E646E651E40E9412427B018C01BE01F8
:103D900080E090E00E94F8449B01AC01C801B701AB
:103DA0000E940C430E943C4024ED3FEF261B370B42
:103DB0003093E1052093E005DD9881E08093890A46
:103DC00085E08EBD8FEF263E380718F4C9014A966C
:103DD00002C08FEF9FEF9DBD8CBD86B7846086BF0C
:103DE00087B7846087BFDF91CF911F910F91FF90BC
:103DF000EF9008954F925F926F927F928F929F9271
:103E0000AF92BF92CF92DF92EF92FF920F931F93E8
:103E1000CF93DF938091BA0C9091BB0C2EEBC22E06
:103E20002CE0D22ECDE7DBE04C01AA24BB240F2EE0
:103E3000F0E04F2EF0E05F2EFEE76F2EF3E47F2ED2
:103E4000F02DD6018C91882309F446C011968C91EF
:103E5000119712966C918617B9F170E0681B710981
:103E6000882777FD8095982F0E9446447B018C011E
:103E7000C501B4010E94F8449B01AC01C801B7011F
:103E80000E940C437B018C01688379838A839B8326
:103E900020E030E04DE753E40E94B64318162CF4BE
:103EA000488259826A827B8217C020E030E04DE769
:103EB00053ECC801B7010E94164488236CF480E0DB
:103EC00090E0AEE7B3EC04C080E090E0A0E0B0E0AA
:103ED00088839983AA83BB83A5E0B0E0CA0EDB1E6A
:103EE0002496B9E5CB16BDE0DB0609F0AACF109207
:103EF000DF051092DE05DF91CF911F910F91FF90AA
:103F0000EF90DF90CF90BF90AF909F908F907F9079
:103F10006F905F904F900895FF920F931F93CF93F0
:103F2000DF938091B50C8823E1F78091DE059091B5
:103F3000DF0501969093DF058093DE059091C10C1B
:103F40009295990F907E9F61E091B50CF0E0E7505B
:103F5000F44F8FEF80838091B50C8F5F8093B50C09
:103F6000E091B50CF0E0E750F44F90838091B50CF0
:103F70008F5F8093B50CE091B50CF0E0E750F44F03
:103F800080E180838091B50C8F5F8093B50CCEEB80
:103F9000DCE00DE71BE0FF248881882359F1609164
:103FA000DE057091DF0580E090E00E94F844F801A2
:103FB00020813181428153810E9412420E94A44497
:103FC0008981680F711D6F3F71051CF06EEF70E005
:103FD00005C01616170614F061E070E0E091B50C0C
:103FE000F0E0E750F44F60838091B50C8F5F8093D1
:103FF000B50CF62625960C5F1F4FFDE0C935DF078F
:1040000059F68FE7F822E091B50CF0E0E750F44F55
:10401000F0828091B50C8F5F8093B50CDF91CF91CA
:104020001F910F91FF900895EF92FF921F93CF93EE
:10403000DF93FC0170930101609300014091BF0A7E
:104040005091C00A2091000130910101C0910001FE
:10405000D0910101CC0FDD1FCC0FDD1F2296CA01CC
:10406000880F991F840F951F2F5F3F4FBC01629FE0
:10407000C001639F900D729F900D1124C80FD91F2E
:10408000CE0FDF1F8A819B819093BB0C8093BA0C6B
:104090009093AA0A8093A90A888199819093BD0C74
:1040A0008093BC0C8091000190910101892B71F4E7
:1040B0007E01BE01640F751FDA011296AA0FBB1FA5
:1040C000AC0FBD1F20E030E011E057C0809100012F
:1040D000909101012091000130910101BC01469FA6
:1040E000C001479F900D569F900D1124DC01AA0F2F
:1040F000BB1FA80FB91F2150304C220F331F220FB6
:10410000331FA20FB31F1296AE0FBF1F20E030E087
:1041100015C0F901EA53FC4CE4918E2F90E0FC01AC
:10412000EE0FFF1FEE0FFF1FE80FF91FE854F34FCC
:1041300013968C91139787832F5F3F4F1196241707
:10414000350738F3B5CFF901EA53FC4CE4918E2FD3
:1041500090E0FC01EE0FFF1FEE0FFF1FE80FF91FAD
:10416000E854F34F1683E7018B818087EB018B8145
:1041700081878D9182872F5F3F4F0894E11CF11C4E
:104180006F5F7F4F24173507F0F25798569A88EBE8
:1041900092E10197F1F70E94A51E0E94FA1E0E946B
:1041A0008C1F8091B50C882371F08091AD0A8F5FD0
:1041B0008093AD0AE091AD0AF0E0E850F44FE08161
:1041C0005D9BFECFECB9DF91CF911F91FF90EF90F7
:1041D000089580918A0A8823B1F00E948C1F8091F3
:1041E000B50C882371F08091AD0A8F5F8093AD0A82
:1041F000E091AD0AF0E0E850F44FE0815D9BFECF26
:10420000ECB910928A0A08950F931F93CF93DF930E
:10421000EC0106E61EE002C00E94E9208091890AB6
:104220008823D1F720910001309101012F5F3F4F8A
:10423000888190E02817390768F460910001709137
:1042400001016F5F7F4FCE010E941420C8010197CA
:10425000F1F7E4CFDF91CF911F910F910895EF9285
:10426000FF920F931F93CF93DF93DA985798569A44
:10427000E091B50CF0E0E750F44F8FEF8083809130
:10428000B50C8F5F8093B50CE091B50CF0E0E75072
:10429000F44F8FE780838091B50C8F5F8093B50CCE
:1042A000E091B50CF0E0E750F44F80E1808380911D
:1042B000B50C8F5F8093B50C10E0C0E0D0E0E9ED65
:1042C000EE2EE3E3FE2E01E0FE01E253FF4F949158
:1042D000E091B50CF0E0E750F44F90838091B50C7D
:1042E0008F5F8093B50C1927892F90E09F938F9350
:1042F000DF93CF93FF92EF920F930E94D0252196E8
:104300008DB79EB707960FB6F8949EBF0FBE8DBFB0
:10431000C031D105C9F61F77E091B50CF0E0E75048
:10432000F44F10838091B50C8F5F8093B50C809112
:10433000AD0A8F5F8093AD0AE091AD0AF0E0E850DE
:10434000F44FE0815D9BFECFECB9DA9A86ED93E302
:104350009F938F9381E08F930E94D0250F900F90B1
:104360000F90DF91CF911F910F91FF90EF900895E3
:104370001F93CF93DF93CEEBDCE010E0888188239E
:1043800079F04C81242F64E6812F806E0E94B83B27
:104390008AEF90E00E94863B8AEF90E00E94863B85
:1043A00025961F5F1F3151F7DF91CF911F9108951F
:1043B0000F931F93CF93DF93C1ECDAE000E0888185
:1043C0008823F1F0102F106E2A8149816BE0812F34
:1043D0000E94B83B8AEF90E00E94863B8AEF90E013
:1043E0000E94863B4B81242F68E1812F0E94B83BBD
:1043F0008AEF90E00E94863B8AEF90E00E94863B25
:1044000026960F5F0F31D9F6DF91CF911F910F9153
:104410000895DF92EF92FF920F931F93CF93DF9354
:10442000DC01E1ECFAE01082118212821382148224
:10443000158236968BE0EB37F807A9F78C918093BD
:10444000BD0A1092BE0A11968C911197482F50E028
:104450005093C00A4093BF0A1296BD01640F751FA6
:1044600012977B01E40EF51E0091B50A1091B60A71
:10447000ED0120E030E0DD24D3942FC0F901EA53B0
:10448000FC4CE4918E2F90E0DC01AA0FBB1FA80F1B
:10449000B91FAA0FBB1FA954B54F1A96DC921A97E1
:1044A00089811B968C931B97FB01E20FF31F808180
:1044B0001C968C931C97F701E20FF31F80811D96C9
:1044C0008C931D971E96DC921E97F801E20FF31F46
:1044D000E4911F96EC932F5F3F4F219624173507E9
:1044E00068F2C0E0D0E014C0FE01EA53FC4C149125
:1044F000812F0E941E3C212F30E0F901EE0FFF1F9B
:10450000EE0FFF1FE20FF31FE854F34F878321964E
:104510008091BF0A9091C00AC817D90728F30E945A
:10452000D821DF91CF911F910F91FF90EF90DF90F5
:104530000895BF92CF92DF92EF92FF920F931F9355
:10454000CF93DF93E1ECFAE01082118212821382A2
:104550001482158236968BE0EB37F807A9F7E090C6
:10456000BF0AF090C00A0091B30C1091B40CC09136
:10457000590DD0915A0D6091AB0A7091AC0A4091DF
:10458000B50A5091B60A20E030E0DD24D39432C061
:10459000F901EA53FC4CE4918E2F90E0DC01AA0F64
:1045A000BB1FA80FB91FAA0FBB1FA954B54F1A965E
:1045B000DC921A97F801E20FF31FE4911B96EC933B
:1045C0001B97FE01E20FF31FE4911C96EC931C97DE
:1045D000FB01E20FF31FE4911D96EC931D971E96CD
:1045E000DC921E97FA01E20FF31FE4911F96EC9301
:1045F0002F5F3F4F2E153F0508F4CACF0E94D821E8
:10460000C0E0D0E0BB24B39408EBC02E02E1D02E72
:10461000D8C0D0930101C093000180910001909116
:104620000101880F991FE091A70AF091A80AE80FED
:10463000F91F859194919093BB0C8093BA0C909341
:10464000AA0A8093A90A8091000190910101880F24
:10465000991FE091B60CF091B70CE80FF91F859106
:1046600094919093BD0C8093BC0C4091BF0A5091E3
:10467000C00AEEEBFCE0CA01880F991F880F991F52
:10468000840F951F8E0F9F1F06C010821182128209
:10469000138214823596E817F907B9F76091B00ACA
:1046A0007091B10AE090B30AF090B40A0091AE0A9A
:1046B0001091AF0A20E030E060C0F901EA53FC4CF1
:1046C000E4918E2F90E0DC01AA0FBB1FAA0FBB1F45
:1046D000A80FB91FA854B34F1696BC921697809195
:1046E000000190910101489FF001499FF00D589FF2
:1046F000F00D1124E20FF31FE60FF71FE491179658
:10470000EC93179780910001909101010196849F8D
:10471000F001859FF00D949FF00D1124E20FF31F1F
:10472000E60FF71FE4911896EC931897809100011B
:1047300090910101489FF001499FF00D589FF00DA5
:104740001124E20FF31FEE0DFF1DE4911996EC9377
:1047500019978091000190910101489FF001499FB4
:10476000F00D589FF00D1124E20FF31FE00FF11F21
:10477000E4911A96EC932F5F3F4F2417350708F406
:104780009CCF5798569AC6010197F1F70E94B8211D
:104790000E94A51E0E94FA1E0E948C1F8091B50CDB
:1047A000882371F08091AD0A8F5F8093AD0AE0910C
:1047B000AD0AF0E0E850F44FE0815D9BFECFECB92C
:1047C00021968091BD0A9091BE0AC817D90708F4B6
:1047D00020CFDF91CF911F910F91FF90EF90DF904D
:1047E000CF90BF900895DC9842E051E024E130E0A2
:1047F000829FD001839FB00D929FB00D1124A40F12
:10480000B51F2D913C9111973093B40A2093B30AB0
:10481000FC01EE0FFF1F9C0163E0220F331F6A951E
:10482000E1F7E20FF31F3196EE0FFF1FE40FF51FC4
:10483000208131813093AF0A2093AE0A9C01220F70
:10484000331F220F331F280F391F2F5F3F4F220FB7
:10485000331F220F331F420F531FFA0180819181B2
:104860009093B40C8093B30C16968D919C911797EE
:1048700090935A0D8093590D18968D919C9119978C
:104880009093AC0A8093AB0A1A968D919C911B97DA
:104890009093A80A8093A70A1C968D919C911D97CE
:1048A0009093B70C8093B60C1E968D919C911F9798
:1048B0009093B10A8093B00A8EEB90E09093B60A81
:1048C0008093B50A50968D919C9151979093BE0A12
:1048D0008093BD0A52968D919C9153979093C00AF4
:1048E0008093BF0A0E94992208959093570A80935B
:1048F000560A08951F93182F8A3031F4E091560A12
:10490000F091570A8DE00995E091560AF091570A07
:10491000812F09951F910895CF93DF93EC010097A4
:1049200021F406C021960E947A2488818823D1F739
:10493000DF91CF910895EF92FF920F931F93CF9342
:10494000DF938C017A010097E9F020E030E0261730
:10495000370738F4F80181918F012F5F3F4F88238B
:10496000B1F7C0E0D0E00BC0F8018081882319F0D6
:104970000F5F1F4F01C080E20E947A242196CE155E
:10498000DF0590F3DF91CF911F910F91FF90EF9092
:104990000895CF93DF93EC01009719F407C00E94AC
:1049A0007A24FE01219684918823C9F7DF91CF9163
:1049B00008958AE00E947A240895E82FF0E0EF70CD
:1049C000F070EF51FC4CE4918E2F0E947A240895F0
:1049D0001F93182F82958F700E94DD24812F0E94D3
:1049E000DD241F9108951F93182F892F0E94E8241A
:1049F000812F0E94E8241F910895EF92FF920F9358
:104A00001F937B018C01C801AA27BB270E94F324B6
:104A1000C7010E94F3241F910F91FF90EF9008951A
:104A20002F923F924F925F926F927F928F929F92BE
:104A3000AF92BF92CF92DF92EF92FF920F931F93AC
:104A4000DF93CF93CDB7DEB7A3970FB6F894DEBF51
:104A50000FBECDBF6AA3242E2BA3370148014423E8
:104A600051F017FF08C0EE24FF248701E618F7086D
:104A70000809190902C0840173012AA1215090E09C
:104A8000211091E0291B29A318A2A82EBB24CC2415
:104A9000DD24C801B701A60195010E949248FB01DF
:104AA000EF70F070EF51FC4C64916F8FC801B7014B
:104AB000A60195010E949248C901DA017C018D018D
:104AC0009EE1492E512C4C0E5D1E39A025C0E114EB
:104AD000F10401051105C9F0C801B701A60195014E
:104AE0000E949248FB01EF70F070EF51FC4C649112
:104AF000F2016083C801B701A60195010E949248A6
:104B0000C901DA017C018D0103C02BA1F2012083D0
:104B10003A940894410851083320C9F6CE014F96C3
:104B20008C01E9A10E1B11092220F1F097FE05C0AE
:104B30008DE2F80182938F0117C0C80101976114BB
:104B400071048104910419F08C018BE202C08C0184
:104B500080E2F801808308C0F80181918F010E94F2
:104B60007A24FAA1F150FAA32AA12223A9F7A39645
:104B70000FB6F894DEBF0FBECDBFCF91DF911F916E
:104B80000F91FF90EF90DF90CF90BF90AF909F90EC
:104B90008F907F906F905F904F903F902F900895EF
:104BA0007F928F929F92AF92BF92CF92DF92EF92BD
:104BB000FF920F931F93DF93CF93CDB7DEB7788823
:104BC000C988DA8853E1E52EF12CEC0EFD1E14C0E5
:104BD000882381F480E090E0CF91DF911F910F91C5
:104BE000FF90EF90DF90CF90BF90AF909F908F900D
:104BF0007F9008950E947A2496012F5F3F4F77207F
:104C000021F0F6016901849103C0F60180816901F8
:104C10008532F1F62F5F3F4F772021F0F6016901D1
:104C2000849103C0F60180816901843629F08837B8
:104C300081F08336F9F606C000E117E24AE0A42EBF
:104C4000B12C0CC0F701808122E030E0E20EF31EAF
:104C5000D1CF00E010E130E1A32EB12C22E0822E72
:104C6000912C8E0C9F1CF701E080F1808436B1F40A
:104C7000F7FE11C0F094E194F108F3948DE20E94E4
:104C80007A2409C0C8016AE070E00E946B488B0179
:104C90006230710518F0E016F106A0F3C701B80103
:104CA0000E946B48862F0E94DD24C701B8010E9434
:104CB0006B487C01C801B5010E946B488B016115EE
:104CC000710561F7740198CF8091590A882369F4BE
:104CD00081E080935F0D8093580A81E287B98CED63
:104CE00086B98091580A8823E1F720915B0D3091B5
:104CF0005C0DC90108951F920F920FB60F921124F7
:104D00008F939F9395B190935E0D80915F0D81304D
:104D100041F0813018F08F30A1F40CC090935D0DFC
:104D200010C089E3989FC001112490935C0D80937B
:104D30005B0D07C0963E18F49093600D02C0109270
:104D4000600D1092580A9F918F910F900FBE0F9097
:104D50001F90189590915F0D906297B986B908954C
:104D6000C59A84EF91E020E731E0F9013197F1F73E
:104D70000197D9F70895C5980895EF92FF920F9380
:104D80001F9389B78F7B89BF10925F0D81E080935D
:104D9000580A80E287B98CED86B98091580A882339
:104DA000E1F760915D0D29B7206429BF70E0882785
:104DB00077FD8095982F0E94464420E030E040E047
:104DC00050E00E94E54121EE3AE74CED50E40E94AC
:104DD000B4419B01AC0166E676EA8BE894E40E945C
:104DE0000C437B018C0120E030E040E050E00E9469
:104DF00016448823FCF020E030E040E251E4C80192
:104E0000B7010E94164488235CF40F2EF0E0EF2EC9
:104E1000F0E0FF2EF0E20F2FF1E41F2FF02D14C071
:104E200020E030E048E452E4C801B7010E94B643F4
:104E3000181654F40F2EF0E0EF2EF0E0FF2EF8E4F9
:104E40000F2FF2E41F2FF02DC801B7010E943C4044
:104E50006093620D1F910F91FF90EF900895C59A96
:104E600084EF91E020E731E0F9013197F1F7019704
:104E7000D9F70E94BD26C5988091620D0895BF9212
:104E8000CF92DF92EF92FF920F931F93CF93DF9316
:104E90008FE080935F0DC0E0D0E00F2EF0E0EF2EAA
:104EA000F0E0FF2EF0E00F2FF0E01F2FF02DBB24DD
:104EB000B3949FE2C92E8CEDD82EB092580AC7B891
:104EC000D6B88091580A8823E1F76091600D70E0B0
:104ED000882777FD8095982F0E9446449B01AC015E
:104EE000C801B7010E94E5417B018C012196C233C4
:104EF000D10519F720E030E040E251E40E940C4374
:104F00000E943C406093610DDF91CF911F910F9102
:104F1000FF90EF90DF90CF90BF9008950E943F27C1
:104F20008091610D08958091590A882369F481E088
:104F300080935F0D8093580A81E287B98CED86B922
:104F40008091580A8823E1F708951F93182F88232A
:104F500059F08CE094E39F938F9381E08F930E94AC
:104F6000D0250F900F900F900E942F27112391F0C2
:104F70008091620D90E09F938F9389E094E39F93DB
:104F80008F9381E08F930E94D0250F900F900F9008
:104F90000F900F9084EF91E020E731E0F901319715
:104FA000F1F70197D9F7112359F082E094E39F9329
:104FB0008F9381E08F930E94D0250F900F900F90D8
:104FC0008091590A882369F481E080935F0D809372
:104FD000580A81E287B98CED86B98091580A8823F6
:104FE000E1F780915B0D90915C0D112399F0809118
:104FF0005B0D90915C0D9F938F938DEF93E39F9347
:105000008F9381E08F930E94D0250F900F900F9087
:105010000F900F9084EF91E020E731E0F901319794
:10502000F1F70197D9F7112359F087EF93E39F9395
:105030008F9381E08F930E94D0250F900F900F9057
:105040000E943F278091610D112391F08091610DA5
:1050500090E09F938F9382EF93E39F938F9381E0F0
:105060008F930E94D0250F900F900F900F900F906C
:1050700080E090E01F9108951F920F920FB60F925B
:1050800011248F9387B78F7B87BF1092680D8F9104
:105090000F900FBE0F901F9018951F920F920FB692
:1050A0000F920BB60F9211248F939F93EF93FF9360
:1050B0008091680D813059F0813020F0823009F004
:1050C00061C023C014BC81E08093680D55C084B5D5
:1050D0008093650D14BC8A53893108F04AC0109240
:1050E000640D1092670D82E08093680D86B780642E
:1050F00086BF87B7806487BF10926A0D10926B0DD0
:1051000010926C0D10926D0D3DC094B59093650D8D
:1051100014BC892F8D508E3060F5E091670D94316D
:1051200038F0F0E0E659F24F80818695806805C03E
:10513000F0E0E659F24F8081869580838091640D7E
:105140008F5F8093640D8830B9F41092640D809164
:10515000670D8F5F8093670D843071F480916A0DC5
:105160008093630D80916D0D8093690D8FEF809317
:10517000660D1092680D06C086B7806486BF87B73B
:10518000806487BFFF91EF919F918F910F900BBE2D
:105190000F900FBE0F901F9018958091660D882379
:1051A00019F42FEF3FEF06C01092660D8091690D44
:1051B000282F30E0C9010895149A159A1D9A1C9A57
:1051C000000000001D98000000001C980000000076
:1051D0000895149A159A1D981C9A000000001D9AB3
:1051E00000000000149815980895159890E080E04C
:1051F000880F00000000000000001C9A0000000062
:105200000D998160000000001C989F5F983081F725
:10521000159A0895159A90E087FF02C01D9A01C063
:105220001D98000000001C9A000000000000000013
:105230001C98000000009F5F983011F0880FECCFA1
:1052400008951598000000001D9A000000001C9AA7
:10525000000000001C9800000000159A00000000EB
:105260000895159A000000001D98000000001C9A87
:10527000000000001C98000000001D9A00000000C3
:105280000895159A000000001D9A000000001C9A65
:10529000000000001C98000000000895282F30E056
:1052A00087FF02C020503140C90108950E94DC28C8
:1052B00080E70E940A290E94212984E10E940A298C
:1052C0000E94212983E00E940A290E9421290E942C
:1052D000E9280895159A149A1D9A1C9A0000000056
:1052E0001D98000000001C98000000000895159A09
:1052F000149A1D981C9A000000001D9A00000000DE
:10530000159814980895159A90E087FF02C01D9A89
:1053100001C01D98000000001C9A00000000000061
:1053200000001C98000000009F5F983011F0880F6B
:10533000ECCF0895159890E080E0880F0000000001
:10534000000000001C9A000000000D998160000020
:1053500000001C989F5F983081F7159A0895159862
:10536000000000001D9A000000001C9A00000000D0
:105370001C9800000000159A000000000895159A7E
:10538000000000001D98000000001C9A00000000B2
:105390001C98000000001D9A000000000895159A56
:1053A000000000001D9A000000001C9A0000000090
:1053B0001C980000000008950E946A2980E70E945E
:1053C00083290E94AF2984E10E9483290E94AF298A
:1053D00083E00E9483290E94AF290E9477290895C3
:1053E0000F931F930E946A2980E70E9483290E94DD
:1053F000AF2982E00E9483290E94AF290E94772969
:1054000000000000000000000E946A2981E70E945D
:1054100083290E94AF290E949A290E94BF290E94D5
:105420009A29082F0E94BF29112707FD1095109374
:10543000730D0093720D0E949A290E94BF290E9449
:105440009A29082F0E94BF29112707FD1095109354
:10545000750D0093740D0E949A290E94BF290E9425
:105460009A29082F0E94CF29112707FD1095109324
:10547000770D0093760D0E9477291F910F91089563
:105480001F93182F0E94DC2880E70E940A290E949F
:10549000212982E00E940A290E9421290E94E928EC
:1054A00000000000000000000E94DC2881E70E944C
:1054B0000A290E9421290E94F5280E9431290E9470
:1054C000F528282F30E087FF04C0C90180509140A3
:1054D00001C0C90190936F0D80936E0D112399F057
:1054E00080916E0D90916F0D9F938F9381E294E365
:1054F0009F938F9381E08F930E94D0250F900F9000
:105500000F900F900F900E9431290E94F5280E9461
:1055100031290E94F528282F30E087FF04C0C901F7
:105520008050914001C0C9019093710D8093700D1E
:10553000112399F08091700D9091710D9F938F932D
:1055400089E194E39F938F9381E08F930E94D0250C
:105550000F900F900F900F900F900E9431290E9492
:10556000F5280E9431290E94F528282F30E087FF76
:1055700004C0C9018050914001C0C9019093790DC8
:105580008093780D0E9441290E94E928112399F007
:105590008091780D9091790D9F938F9381E194E3A1
:1055A0009F938F9381E08F930E94D0250F900F904F
:1055B0000F900F900F901F9108959C01E199FECFDD
:1055C0003FBB2EBBE09A8DB308959C01E199FECFBD
:1055D0003FBB2EBB6DBB0FB6F894E29AE19A0FBEAB
:1055E0000895282FE199FECF80E490E09FBB8EBB09
:1055F0002DBB0FB6F894E29AE19A0FBE0895E19997
:10560000FECF80E490E09FBB8EBBE09A8DB30895FF
:10561000E199FECF80E490E09FBB8EBBE09A8DB312
:10562000813059F0813018F0823021F409C080E1D6
:1056300090E0089580E090E0089583E190E008957F
:1056400082E190E00895DC01ED91FC911197E081F9
:1056500009C0ED91FC91119731961196FC93EE9350
:105660003197E181E032A9F3EE2331F08D919C91E5
:10567000119701968D939C938E2F0895DC01ED91E7
:10568000FC911197E08109C0ED91FC911197319641
:105690001196FC93EE933197E181E032A9F3EE236A
:1056A00031F08D919C91119701968D939C938E2F43
:1056B00081548A3118F0EFEFFFEF03C0F0E0E154BE
:1056C000F040CF010895DC01ED91FC9111974081EC
:1056D00009C0ED91FC91119731961196FC93EE93D0
:1056E000319741814032A9F3442339F08D919C9147
:1056F0001197019611969C938E9320E030E012C092
:10570000C90163E0880F991F6A95E1F7220F331FE3
:10571000280F391F240F311D20533040419111961D
:10572000FC93EE93842F8053ED91FC9111978A3076
:1057300038F33197ED93FC93C9010895FC01DB0127
:1057400020E030E008C0892F81548A3138F4319646
:105750009D932F5F3F4F90819923A9F71C92C90118
:10576000089583309105E9F0843091054CF481303F
:10577000910599F08230910594F4892B61F008C06D
:105780008530910591F0853091056CF0069779F0A0
:1057900020E030E01CC089B30CC086B30AC083B3DC
:1057A00008C080B306C081B104C080B102C080913E
:1057B0006300282F30E0683071054CF481E090E000
:1057C00002C0880F991F6A95E2F728233923C9017F
:1057D00008959C014D3309F456C04E3390F44B327A
:1057E000E9F04C3230F4453259F14A3209F053C0F5
:1057F0001BC04F3209F14C3371F14D3209F04BC0EF
:1058000010C04C3671F14D3630F44E33F1F047365E
:1058100009F041C02CC04E36F1F52FC0260F371FBE
:105820003AC0261B370B37C0869F9001879F300DEB
:10583000969F300D11242FC00E947F489B0103C00A
:105840000E947F489C01C90125C080E090E062175A
:10585000730704F51DC080E090E026173707D4F4E5
:1058600017C080E090E062177307A4F011C080E0D9
:1058700090E02617370774F00BC080E090E0261701
:10588000370731F407C080E090E06217730711F426
:1058900081E090E09C01C90108959C01FC0101C0D8
:1058A000319680818232E1F7CF01821B930B0895FC
:1058B0002F923F924F925F926F927F928F929F9220
:1058C000AF92BF92CF92DF92EF92FF920F931F930E
:1058D000DF93CF93CDB7DEB729970FB6F894DEBF2D
:1058E0000FBECDBFAA24BB24ABE52A2EA4E33A2EDB
:1058F000EE24E3944E010894811C911CF7E54F2E91
:10590000F4E35F2EE9E06E2E712C6C0E7D1EBF92CB
:10591000AF923F922F92EF920E94D025840170E0C7
:10592000C72E70E0D72ECA0CDB1C0F900F900F9083
:105930000F900F90E199FECFDFBACEBAE09AFDB298
:105940008F2D90E09F938F935F924F92EF920E94E2
:10595000D0258F2D8C510F900F900F900F900F909E
:10596000833618F4F801F08203C08EE2F8018083D8
:105970000F5F1F4F0894C11CD11C06151705D1F6E7
:105980001986C4010E948C2484E992E00E948C2430
:10599000E8E0F0E0AE0EBF1EF0E4AF16B10409F08F
:1059A000B6CF29960FB6F894DEBF0FBECDBFCF910C
:1059B000DF911F910F91FF90EF90DF90CF90BF90FC
:1059C000AF909F908F907F906F905F904F903F909F
:1059D0002F9008952F923F924F925F926F927F92F5
:1059E0008F929F92AF92BF92CF92DF92EF92FF92EF
:1059F0000F931F93DF93CF93CDB7DEB729970FB6E1
:105A0000F894DEBF0FBECDBFAA24BB2483E6282EA8
:105A100084E3382EEE24E3944E010894811C911CFB
:105A20000FE5402E04E3502E19E0612E712C6C0E10
:105A30007D1EBF92AF923F922F92EF920E94D0258F
:105A40008401B1E4CB2EB0E0DB2ECA0CDB1C0F903E
:105A50000F900F900F900F90E199FECFDFBACEBA62
:105A6000E09AFDB28F2D90E09F938F935F924F92BB
:105A7000EF920E94D0258F2D8C510F900F900F9098
:105A80000F900F90833618F4F801F08203C08EE275
:105A9000F80180830F5F1F4F0894C11CD11C0615AD
:105AA0001705D1F61986C4010E948C2484E992E07E
:105AB0000E948C24E8E0F0E0AE0EBF1EF0E0AF16CE
:105AC000F4E0BF0609F0B5CF29960FB6F894DEBF13
:105AD0000FBECDBFCF91DF911F910F91FF90EF903F
