:100000000C9449210C9468210C9468210C9468216B
:100010000C9468210C9468210C9468210C94652F31
:100020000C9468210C9468210C94442F0C94682142
:100030000C9468210C9468210C9441220C94682142
:100040000C9495210C9468210C9468210C946821DF
:100050000C9468210C94CA2D0C9468210C9468218E
:100060000C9468210C9468210C9468210C946821EC
:100070000C9468210C9468210C94FA250C94682146
:100080000C94BE250C9468210C9468216F286C2771
:1000900073278027832786278B2797279B279E27D1
:1000A000A327B827BD27C427E727F3272A283A28FC
:1000B000523552358E36E336E336D4360036DB36EB
:1000C0009635E9361636DB36DB36DE36D535DB36A9
:1000D000D436E9368135DB36D436DB36DB36DB36F3
:1000E000DB36DB36D535DB36DB36DB360036DB366A
:1000F000DB36DB361636DB36DB36DB36DB36DB363D
:10010000DB36DB36BE36DB364E6F7420706C7567BF
:1001100067656420696E0D0A00436F6D706C6574CD
:10012000650D0A00506C756767656420696E202D47
:10013000206368617267696E670D0A002564206D2F
:10014000560D0A00636861726765206D6F646520F3
:100150000D0A00446F6E652025646D560D0A00255A
:100160003032643A253032642066756C6C206368E6
:100170006172676520706F7765722025646D560D1A
:100180000A00253032643A253032642073686F7279
:10019000742034306D7320636861726765207075F8
:1001A0006C7365732025646D560D0A00537461727B
:1001B00074202E2E2025646D560D0A0044434D50A8
:1001C000204D4F44450D0A00303132333435363737
:1001D00038394142434445460025642C2025642C8F
:1001E0002025640A004C455400000000464F520090
:1001F000000000494600000000005448454E000041
:1002000000454C5345000000474F544F000000503C
:1002100052494E54000047455400000000505554C8
:1002200000000000454E44000000004C49535400BB
:100230000000584143540000005741495400000059
:100240004E455854000000534552564F00004D4F44
:100250005645000000474F53554200005245545543
:10026000524E00504F4B450000005354414E440045
:1002700000504C41590000004F5554000000004F01
:1002800046465345540052554E0000000049324343
:100290004F000000493243490000005354455000CC
:1002A0000000535045454400004D5459504500004E
:1002B0004C494748545300534F525400000046469F
:1002C000540000000053414D504C45005343414CF5
:1002D00045000044415441000000534554000000D3
:1002E00000494E534552540044454C45544500473F
:1002F000454E000000004E4554574F520053454CA8
:1003000045435400210000000000004F4E00000053
:1003100000004D4154000000004558495420444518
:100320004D4F204D4F44450D0A0025640D0A003EF7
:100330003A200044454D4F204D4F44450D0A002CB6
:1003400020256400256400557074696D653A2000AD
:100350002564206C696E65732073746F7265640D1B
:100360000A00256420736572766F7320636F6E6E6A
:1003700065637465640D0A004445425547204F4645
:10038000460A004445425547204F4E0A0025642046
:100390006C696E6573206C6F616465640D0A00762C
:1003A0003D245265766973696F6E3A203632392082
:1003B000240D0A0074657374696E67206368617246
:1003C00067650D0A00505344206F66660D0A006F82
:1003D0006B0D0A005374616E642025640D0A003FA2
:1003E000204E6F2073756368206C696E65202564EC
:1003F0000A00456C61707365642054696D65202541
:100400003032643A253032642D253033640A0025B9
:1004100064206C696E657320696E206D656D6F7206
:10042000790D0A00256420736572766F7320636FFF
:100430006E6E65637465640D0A00426173696320C2
:10044000763D245265766973696F6E3A203632398B
:1004500020240D0A436F6D6D616E64733A2069202C
:1004600072206C2063207A20712073205620522045
:100470004620240D0A0072657365740D0A0025304C
:1004800032643A253032643A253032642D253033D7
:100490006400737461727420646F776E6C6F616452
:1004A0000D0A002564002C256400256400256300E6
:1004B00020474F535542200020454C5345200020F3
:1004C0005448454E200040200023200025633D0075
:1004D00025643D00504F52543A25633A256300216C
:1004E000203D20002563203D2000200025642000C1
:1004F0004E6F2070726F6772616D206C6F61646502
:10050000640D0A004C6973742050726F6772616DDC
:10051000200D0A002578200025782000257820006D
:1005200025782000436C6561722050726F6772619C
:100530006D200D0A002563203D20256C640D0A0006
:10054000202A2A205573657220427265616B0D0A5C
:10055000005452414345203A3A202564202D200082
:10056000456E640D0A005573657220427265616BB9
:10057000206F6E206C696E652025640D0A0052752F
:100580006E74696D65206572726F72202564206FCC
:100590006E206C696E652025640D0A0052756E2010
:1005A00050726F6772616D200D0A004E6F2070727D
:1005B0006F6772616D206C6F616465640D0A004540
:1005C0006C61707365642054696D652025646D737A
:1005D0000D0A00436F6D6D616E64206E6F74206153
:1005E0007661696C61626C6520696E20696D6D650C
:1005F0006469617465206D6F64650D0A0044656C03
:10060000657465202D2025640D0A000D0A256420DF
:100610006C696E657320656E74657265642C205B11
:1006200025642F25645D2042797465730D0A00509E
:10063000616E69632025640D0A00506F733D256467
:10064000205B25635D0D0A00270D0A004572726F5D
:1006500072202D202700456E7465722050726F67DE
:1006600072616D20272E2720746F2046696E697392
:10067000680D0A0050726F6772616D20656E74724A
:1006800079206D6F646520282E20746F206578694D
:1006900074290D0A000D0A00496E73657274206C8E
:1006A000696E650D0A0045646974206C696E650D9C
:1006B0000A007DC9A3436C7D3059B88E59277CA2AE
:1006C000D37F7DB3C7586C7E4831A38D332F31C79C
:1006D000CDCD040404040404040404040404040448
:1006E00004040202020202020202020200000000EE
:1006F00000000101010101010101010101010101EC
:1007000001010202020202020202020202020202CB
:10071000020204040404040404040404040404049D
:1007200004040101010101000000000001010100B9
:1007300000000101010101000000000001010100B1
:100740000000030303030300000000000303030091
:100750000000030303030300000000000303030081
:100760000000000000000000000000000000000089
:100770000000282828282828282828281414141499
:1007800014143C3C3C3C3C3C3C3C3C3C1E1E1E1E71
:100790001E1E00000000000000000000000000001D
:1007A000000001000800010005000F0046003601AE
:1007B000A401C8002C017DB3C7586C7E4831A38DBD
:1007C000332F31C7CDCD7DB3C7586C7E4831A38D53
:1007D000332F31C7CDCD6BA4E96A5F6C501D9B816F
:1007E000383E28A6CED06BA4E96A5F914A28A39A26
:1007F000757C72A6CED07EA4DE646B7D501D9B8E70
:100800004F2C28A6CED07DB3C7586C7E4831A38D1F
:10081000332F31C7CDCD04040404040404040404BC
:10082000040404040404020202020202020202029C
:1008300000000000000001010101010101010101AE
:10084000010101010101020202020202020202028E
:100850000202020202020404040404040404040464
:10086000040404040404000000000001010101016B
:10087000000000010101000000000002020202026B
:100880000000000202020000000000030303030254
:100890000000000303030000000000030303030340
:1008A000000000030303000000000000000000003F
:1008B00000000000000028282828282828282828A8
:1008C0001414141414143C3C3C3C3C3C3C3C3C3C58
:1008D0001E1E1E1E1E1E0000000000000000000064
:1008E00000000000000001000800010005000F00EA
:1008F00046003601A401C8002C017DB3C7586C7EA8
:100900004831A38D332F31C7CDCD7DB3C7586C7E11
:100910004831A38D332F31C7CDCD8BA3E664788EBC
:10092000570E969F4F2C28B7BCD06CA4E0616A97F5
:10093000501C99A74F2C289170837EA4DE646B7D98
:10094000501D9B8E4F2C28A6CED07DB3C7586C7EF1
:100950004831A38D332F31C7CDCD040404040404E2
:100960000404040404040404040404040404040447
:100970000404040404040404040402020202020243
:100980000202020200000000000002020202020055
:100990000000000003030303030300000000000045
:1009A0000000000004040404040304040404040418
:1009B000040404040404040404040000000000000F
:1009C0000000000000000000000001010101010022
:1009D0000000000001010100000000000000000014
:1009E0000000000000000000000001010101010002
:1009F00000000000010101000000000000000000F4
:100A000000000000000000000000000000000000E6
:100A100000000000000000000000282828282828E6
:100A2000282828281414141414143C3C3C3C3C3C46
:100A30003C3C3C3C1E1E1E1E1E1E00000000000012
:100A40000000000000000000000001000500080098
:100A5000030001000F00460096003601FA007800FE
:100A60002C017DB3C7586C7E4831A38D332F31C71D
:100A7000CDCD7DB3C7586C7E4831A38D332F31C7A0
:100A8000CDCD7EA7DE626E7D541D9B8E4F2C28A699
:100A9000CED06BA4E9665F6C501D9B81383E28A6C2
:100AA000CED06BA4E9695F914A289D9A383E28A66A
:100AB000CED07EA4DE5F6B7D541D9B8E4F2C28A66E
:100AC000CED07DB3C7586C7E4831A38D332F31C74C
:100AD000CDCD040404040404040404040404040444
:100AE00004040404040404040404040404040404C6
:100AF00004040202020202020202020204040404CA
:100B000004040000000000020202020204040404C3
:100B100004040000000000020202020204040404B3
:100B20000404040404040404040404040404040485
:100B300004040000000000000000000000000000AD
:100B4000000000000000000101010101000000019F
:100B50000101000000000000000000000000000093
:100B6000000000000000000101010101000000017F
:100B70000101000000000000000000000000000073
:100B80000000000000000000000000000000000065
:100B90000000282828282828282828281414141475
:100BA00014143C3C3C3C3C3C3C3C3C3C1E1E1E1E4D
:100BB0001E1E0000000000000000000000000000F9
:100BC0000000010005000800030001000F004600BE
:100BD00096003601C80078002C017DB3C7586C7EA2
:100BE0004831A38D332F31C7CDCD7DB3C7586C7E2F
:100BF0004831A38D332F31C7CDCD7EA7DE626E7D08
:100C0000541D9B8E4F2C28A6CED08BA3E664788EE5
:100C1000570E969F4F2C28B7BCD06CA4E0616A9702
:100C2000501C99A74F2C28B7BCD07EA6DE62717DE0
:100C3000541D9B8E4F2C28A6CED07DB3C7586C7EFA
:100C40004831A38D332F31C7CDCD040404040404EF
:100C50000404040404040404040401010101010166
:100C60000101010104040404040401010101010162
:100C7000010101010404040404040202020202024C
:100C8000020202020404040404040101010101013E
:100C90000101010104040404040403030303030326
:100CA000030303030404040404040101010101001B
:100CB000000000000101010000000101010101002C
:100CC0000000000001010100000000000000000021
:100CD0000000000000000000000000000000000014
:100CE0000000000000000000000000000000000004
:100CF00000000000000000000000000000000000F4
:100D0000000000000000000000001414141414146B
:100D1000141414141414141414141E1E1E1E1E1E57
:100D20001E1E1E1E1E1E1E1E1E1E00000000000097
:100D3000000000000000000000000A0005000A009A
:100D4000010005000A00C800C80090017800C80032
:100D500090017DB3C7586C7E4831A38D332F31C7C6
:100D6000CDCD7DB3C7586C7E4831A38D332F31C7AD
:100D7000CDCD7DA2C7486C7E3B31978D332F31C7D7
:100D8000CDCD88A9D25D798B243D909D332F31C77D
:100D9000CDCD7DADD25D7B8B500E899D332F31C77C
:100DA000CDCD86ADD25D7B8B501F9D9D332F31C73E
:100DB000CDCD7DB3C7586C7E4831A38D332F31C75D
:100DC000CDCD040404040404040404040404040451
:100DD00004040101010101010101010104040404F1
:100DE00004040101010101010101010104040404E1
:100DF00004040202020202020202020204040404C7
:100E000004040202020202020202020204040404B6
:100E100004040303030303030303030303030303A0
:100E200003030000000000010101010100000001B6
:100E300001010000000000010101010100000001AA
:100E400001000000000000000000000000000000A1
:100E50000000000000000000000000000000000092
:100E60000000000000000000000000000000000082
:100E70000000000000000000000000000000000072
:100E8000000014141414141414141414141414144A
:100E900014141E1E1E1E1E1E1E1E1E1E1E1E1E1E86
:100EA0001E1E000000000000000000000000000006
:100EB00000000A0005000A00010005000A00C80041
:100EC000C80090017800C80090017DB3C7586C7EBF
:100ED0004831A38D332F31C7CDCD7DB3C7586C7E3C
:100EE0004831A38D332F31C7CDCD7DC1CD6B6C7E05
:100EF0005931B48D332F31C7CDCD77D1C36A6077E7
:100F0000511F9D84332F31C7CDCD75A2E362677D1C
:100F10004E31A37F332F31C7CDCD6EA8CC555C7534
:100F20005131A380332F31C7CDCD7DB3C7586C7EEF
:100F30004831A38D332F31C7CDCD040404040404FC
:100F40000404040404040404040404040404040461
:100F50000404040404040404040403030303030357
:100F60000303030303030303030300000000000063
:100F70000000000004040404040403030303030347
:100F80000303030303030303030302020202020237
:100F90000202020204040404040402020202020225
:100FA0000202020204040404040402020202020215
:100FB0000202020204040404040402020202020205
:100FC00002020202040404040404030303030303EF
:100FD00003030303030303030303000000000000F3
:100FE00000000000000000000000030303030303EF
:100FF00003030303030303030303000000000000D3
:1010000000000000000000000000020202020202D4
:1010100002020202020202020202000000000000BC
:1010200000000000000000000000010101010101BA
:1010300001010101010101010101000000000000A6
:10104000000000000000000000000303030303038E
:101050000303030303030303030300000000000072
:101060000000000000000000000000000000000080
:101070000000000000000000000028282828282880
:10108000282828281E1E1E1E1E1E3C3C3C3C3C3CA4
:101090003C3C3C3C32323232323200000000000034
:1010A000000000000000000000000F001E002D00E6
:1010B0002D002D001E001E001E001E001E002C0113
:1010C00058028403840384035802580258025802C9
:1010D00058027DB3C7586C7E4831A38D332F31C77A
:1010E000CDCD7DB3C7586C7E4831A38D332F31C72A
:1010F000CDCD7CDCF77D6C7E1D047F8C332F31C71A
:10110000CDCD7BDCF656707E1D07A98B013B4AFDD9
:10111000BFB58253903F6C7DAA67BF8B013BA3FD97
:10112000BF588253903F6C7DAA67BF8BEA7D5A05FA
:1011300081A6815EB7646E80A26EBA88A02D515AD6
:10114000CDA78157BF3C6E80A23BC1888A2E5974BF
:10115000CBA78181BE416E80783BBB8C852D5174BD
:10116000CBA781A1C5476E805935B58F8F2459749F
:10117000CBA77DB3C7586C7E4831A38D332F31C7C1
:10118000CDCD04040404040404040404040404048D
:10119000040401010101010101010101040404042D
:1011A00004040404040404040404040404040404FF
:1011B0000404010101010101010101010101010119
:1011C000010101010101010101010101010101010F
:1011D00001010202020202020202020202020202F1
:1011E00002020202020202020202020202020202DF
:1011F00002020202020202020202020202020202CF
:1012000002020404040404040404040404040404A2
:1012100004040000000000000000000000000000C6
:101220000000030303030303030303030303030394
:1012300003030000000000000000000000000000A8
:101240000000020202020202020202020202020282
:10125000020200000000000000000000000000008A
:101260000000010101010101010101010101010170
:10127000010100000000000000000000000000006C
:101280000000030303030303030303030303030334
:101290000303000000000000000000000000000048
:1012A000000028282828282828282828141414145E
:1012B00014143C3C3C3C3C3C3C3C3C3C1E1E1E1E36
:1012C0001E1E0000000000000000000000000000E2
:1012D00000000A000A000A000A00010023001E00A4
:1012E00028001E002C01F401F401BC023403BC02EE
:1012F0005802200358027DB3C7586C7E4831A38D35
:10130000332F31C7CDCD7DB3C7586C7E4831A38D07
:10131000332F31C7CDCD7D52D6596C7E4831A38D48
:101320008F2F3172CDCD7D52DA65727DA622978FD7
:101330008D2F3172CDCD7DD2E450717C2319AC8ECE
:10134000A72F2F52CDCC7DDAF756717B1F05A88DC4
:10135000095792FEA26C7DDCF47A6D7B1D05808DB1
:10136000212A92DED26C7DDCDE7A717B1D1C878D9A
:1013700062324E92C5A97DA0F272717B5708878DAB
:10138000522F45ADCDBF7DB3C7586C7E4831A38D7C
:10139000332F31C7CDCD030303030303030303033B
:1013A000030303030303030303030303030303030D
:1013B00003030303030303030303030303030303FD
:1013C00003030303030302020202020202020202F7
:1013D00002020202020201010101010101010101F7
:1013E00001010101010100000000000000000000F7
:1013F00000000000000000000000000000000000ED
:1014000000000000000001010101010101010101D2
:1014100001010101010102020202020202020202B2
:101420000202020202020303030303030303030392
:10143000030303030303030303030303030303037C
:10144000030303030303030303030303030303036C
:101450000303030303030202020202020202020266
:101460000202020202020101010101010101010166
:101470000101010101010000000000000000000066
:10148000000000000000000000000000000000005C
:101490000000000000000101010101010101010142
:1014A0000101010101010202020202020202020222
:1014B0000202020202020303030303030303030302
:1014C00003030303030303030303030303030303EC
:1014D00003030303030302020202020202020202E6
:1014E00002020202020201010101010101010101E6
:1014F00001010101010100000000000000000000E6
:1015000000000000000000000000000000000000DB
:1015100000000000000001010101010101010101C1
:1015200001010101010102020202020202020202A1
:101530000202020202020303030303030303030381
:10154000030303030303030303030303030303036B
:10155000030303030303030303030303030303035B
:101560000303030303030202020202020202020255
:101570000202020202020101010101010101010155
:101580000101010101010000000000000000000055
:10159000000000000000000000000000000000004B
:1015A0000000000000000101010101010101010131
:1015B0000101010101010202020202020202020211
:1015C00002020202020203030303030303030303F1
:1015D00003030303030303030303030303030303DB
:1015E00003030303030302020202020202020202D5
:1015F00002020202020201010101010101010101D5
:1016000001010101010104040404040404040404AC
:1016100004040404040400000000000000000000B2
:10162000000000000000030303030303030303039C
:10163000030303030303030303030303030303037A
:101640000303030303030202020202020202020274
:101650000202020202020101010101010101010174
:101660000101010101010000000000000000000074
:10167000000000000000000000000000000000006A
:101680000000000000000101010101010101010150
:101690000101010101010202020202020202020230
:1016A0000202020202020303030303030303030310
:1016B00003030303030303030303030303030303FA
:1016C00003030303030303030303030303030303EA
:1016D00003030303030302020202020202020202E4
:1016E00002020202020201010101010101010101E4
:1016F00001010101010100000000000000000000E4
:1017000000000000000000000000000000000000D9
:1017100000000000000001010101010101010101BF
:10172000010101010101020202020202020202029F
:10173000020202020202030303030303030303037F
:101740000303030303030303030303030303030369
:101750000303030303030202020202020202020263
:101760000202020202020101010101010101010163
:101770000101010101010000000000000000000063
:101780000000000000000000000000000000000059
:10179000000000000000010101010101010101013F
:1017A000010101010101020202020202020202021F
:1017B00002020202020203030303030303030303FF
:1017C00003030303030303030303030303030303E9
:1017D00003030303030303030303030303030303D9
:1017E00003030303030302020202020202020202D3
:1017F00002020202020201010101010101010101D3
:1018000001010101010100000000000000000000D2
:1018100000000000000000000000000000000000C8
:1018200000000000000001010101010101010101AE
:10183000010101010101020202020202020202028E
:10184000020202020202030303030303030303036E
:101850000303030303030303030303030303030358
:101860000303030303030202020202020202020252
:101870000202020202020101010101010101010152
:101880000101010101010000000000000000000052
:1018900000000000000029292929292929292929AE
:1018A0001414141414143D3D3D3D3D3D3D3D3D3D5E
:1018B0001E1E1E1E1E1E0000000000000000000074
:1018C000000000000000050001000100010001000F
:1018D0000100010001000100010001000100010000
:1018E00001000100010001000100010001000100F0
:1018F00001000100010001000100010001000100E0
:1019000001000100010001000100010001000100CF
:1019100001000A000F00C800190019001900190081
:1019200019001900190019001900190019001900EF
:1019300019001900190019001900190019001900DF
:1019400019001900190019001900190019001900CF
:1019500019001900190019001900190019001900BF
:101960001900C8002C017DB3C7586C7E4831A38D87
:10197000332F31C7CDCD7DB3C7586C7E4831A38D91
:10198000332F31C7CDCD7DB3C7586C7E4831A38D81
:10199000332F31C7CDCD82A5C9517386511F939581
:1019A000482C2891D1C984ABC5537589561C94988D
:1019B0004E2B299AD1CE84AFC357758B5B1B989A57
:1019C000572B2BA4D1D384B2C55B75895F1C9D981E
:1019D000612B30ACD1D582B3C95F7386601FA195EE
:1019E000692B35B3D2D67FB2CE6270825F23A691C7
:1019F0006F2A39B6D2D67CAFD4646D7F5C28AA8EAC
:101A0000712A3BB7D2D67CAFD4646D7F5C28AA8E96
:101A1000712A3BB7D2D678ACD966697B582EAA8A90
:101A20006F2A39B6D2D674A7DD6765785333A98794
:101A30006A2B35B3D2D671A2E06662764D37A785A0
:101A4000612B30ADD1D56F9DE16260764939A385B8
:101A5000572B2BA4D1D37199E05D627646379F85D1
:101A60004F2B299AD1CE7498DD59657845339B87E1
:101A7000482C2892D1C97899D954697B462E988AE6
:101A8000452C288CD0C57B9CD4506C7E4928968DE3
:101A9000442C288AD0C37B9CD4506C7E4928968DD8
:101AA000442C288AD0C382A5C9517386511F9395AF
:101AB000482C2891D1C984ABC5537589561C94987C
:101AC0004E2B299AD1CE84AFC357758B5B1B989A46
:101AD000572B2BA4D1D384B2C55B75895F1C9D980D
:101AE000612B30ACD1D582B3C95F7386601FA195DD
:101AF000692B35B3D2D67FB2CE6270825F23A691B6
:101B00006F2A39B6D2D67CAFD4646D7F5C28AA8E9A
:101B1000712A3BB7D2D67CAFD4646D7F5C28AA8E85
:101B2000712A3BB7D2D678ACD966697B582EAA8A7F
:101B30006F2A39B6D2D674A7DD6765785333A98783
:101B40006A2B35B3D2D671A2E06662764D37A7858F
:101B5000612B30ADD1D56F9DE16260764939A385A7
:101B6000572B2BA4D1D37199E05D627646379F85C0
:101B70004F2B299AD1CE7498DD59657845339B87D0
:101B8000482C2892D1C97899D954697B462E988AD5
:101B9000452C288CD0C57B9CD4506C7E4928968DD2
:101BA000442C288AD0C37B9CD4506C7E4928968DC7
:101BB000442C288AD0C382A5C9517386511F93959E
:101BC000482C2891D1C984ABC5537589561C94986B
:101BD0004E2B299AD1CE7DA6E56A6C7E5617968D3E
:101BE000332F31C7CDCD7DB3C7586C7E4831A38D1F
:101BF000332F31C7CDCD04040404040404040404C9
:101C0000040404040404030303030303030303039E
:101C1000030303030303020202020202020202029E
:101C2000020202020202030303030303030303038A
:101C3000030303030303020202020202020202027E
:101C4000020202020202010101010101010101017E
:101C5000010101010101000000000000000000007E
:101C60000000000000000000000000000000000074
:101C7000000000000000010101010101010101015A
:101C8000010101010101020202020202020202023A
:101C9000020202020202030303030303030303031A
:101CA0000303030303030303030303030303030304
:101CB00003030303030303030303030303030303F4
:101CC00003030303030302020202020202020202EE
:101CD00002020202020201010101010101010101EE
:101CE00001010101010100000000000000000000EE
:101CF00000000000000000000000000000000000E4
:101D000000000000000001010101010101010101C9
:101D100001010101010102020202020202020202A9
:101D20000202020202020303030303030303030389
:101D30000303030303030303030303030303030373
:101D4000030303030303020202020202020202026D
:101D5000020202020202010101010101010101016D
:101D6000010101010101000000000000000000006D
:101D70000000000000000000000000000000000063
:101D80000000000000000101010101010101010149
:101D90000101010101010202020202020202020229
:101DA0000202020202020303030303030303030309
:101DB00003030303030303030303030303030303F3
:101DC00003030303030303030303030303030303E3
:101DD00003030303030302020202020202020202DD
:101DE00002020202020201010101010101010101DD
:101DF00001010101010100000000000000000000DD
:101E000000000000000000000000000000000000D2
:101E100000000000000001010101010101010101B8
:101E20000101010101010202020202020202020298
:101E30000202020202020303030303030303030378
:101E40000303030303030303030303030303030362
:101E5000030303030303020202020202020202025C
:101E6000020202020202010101010101010101015C
:101E70000101010101010202020202020202020248
:101E8000020202020202040404040404040404041E
:101E9000040404040404000000000000000000002A
:101EA0000000000000000000000000000000000032
:101EB0000000000000000000000000000000000022
:101EC00000000000000003030303030303030303F4
:101ED00003030303030302020202020202020202DC
:101EE00002020202020201010101010101010101DC
:101EF00001010101010100000000000000000000DC
:101F000000000000000000000000000000000000D1
:101F100000000000000001010101010101010101B7
:101F20000101010101010202020202020202020297
:101F30000202020202020303030303030303030377
:101F40000303030303030303030303030303030361
:101F50000303030303030303030303030303030351
:101F6000030303030303020202020202020202024B
:101F7000020202020202010101010101010101014B
:101F8000010101010101000000000000000000004B
:101F90000000000000000000000000000000000041
:101FA0000000000000000101010101010101010127
:101FB0000101010101010202020202020202020207
:101FC00002020202020203030303030303030303E7
:101FD00003030303030303030303030303030303D1
:101FE00003030303030302020202020202020202CB
:101FF00002020202020201010101010101010101CB
:1020000001010101010100000000000000000000CA
:1020100000000000000000000000000000000000C0
:1020200000000000000001010101010101010101A6
:102030000101010101010202020202020202020286
:102040000202020202020303030303030303030366
:102050000303030303030303030303030303030350
:102060000303030303030303030303030303030340
:10207000030303030303020202020202020202023A
:10208000020202020202010101010101010101013A
:10209000010101010101000000000000000000003A
:1020A0000000000000000000000000000000000030
:1020B0000000000000000101010101010101010116
:1020C00001010101010102020202020202020202F6
:1020D00002020202020203030303030303030303D6
:1020E00003030303030303030303030303030303C0
:1020F00003030303030302020202020202020202BA
:1021000002020202020201010101010101010101B9
:1021100001010101010100000000000000000000B9
:1021200000000000000000000000000000000000AF
:102130000000000000002929292929292929292905
:102140001414141414143D3D3D3D3D3D3D3D3D3DB5
:102150001E1E1E1E1E1E00000000000000000000CB
:102160000000000000000500140001000100010053
:102170000100010001000100010001000100010057
:102180000100010001000100010001000100010047
:102190000100010001000100010001000100010037
:1021A0000100010001000100010001000100010027
:1021B0000100010001000A0014002C019001190027
:1021C0001900190019001900190019001900190047
:1021D0001900190019001900190019001900190037
:1021E0001900190019001900190019001900190027
:1021F0001900190019001900190019001900190017
:1022000019001900190019001900900190017DB3FF
:10221000C7586C7E4831A38D332F31C7CDCD7DB3E8
:10222000C7586C7E4831A38D332F31C7CDCD7DA0EB
:10223000DC6B6C7E581F928D332F31C7CDCD7899D2
:10224000DA58697B482E978A392B33AED2D67497E9
:10225000DF5B657846349B873A2B30B1D2D67098D5
:10226000E25E61774639A0863B2B2DB6D2D66F9BB6
:10227000E3636076483CA5853F2B29BCD1D570A08F
:10228000E26661764C3AA785442C28BFD1D173A56C
:10229000DF6864785234A887492C28C1D1CE78A948
:1022A000DA68697B582EA78A4D2C28C2D1CB7BAD2A
:1022B000D4676C7E5C28A58D4E2B28C2D1CA7BAD1D
:1022C000D4676C7E5C28A58D4E2B28C2D1CA7FB006
:1022D000CE6370825F22A2914D2C28C2D1CB82B2F4
:1022E000C85F7386611D9F954A2C28C1D1CE83B2E9
:1022F000C35A748A601A9C99452C28C0D1D184B0E5
:10230000C055758B5D19979A3F2B29BCD1D584ACEC
:10231000C253758A581A94993C2B2DB7D2D682A6EF
:10232000C8527387531D92963A2B30B2D2D67FA0F3
:10233000CE5370824F229291392B33AED2D67C9CF1
:10234000D4556D7F4B28938E392B34ADD1D67C9CE0
:10235000D4556D7F4B28938E392B34ADD1D67497DD
:10236000DF5B657846349B873A2B30B1D2D67098C4
:10237000E25E61774639A0863B2B2DB6D2D66F9BA5
:10238000E3636076483CA5853F2B29BCD1D570A07E
:10239000E26661764C3AA785442C28BFD1D173A55B
:1023A000DF6864785234A887492C28C1D1CE78A937
:1023B000DA68697B582EA78A4D2C28C2D1CB7BAD19
:1023C000D4676C7E5C28A58D4E2B28C2D1CA7BAD0C
:1023D000D4676C7E5C28A58D4E2B28C2D1CA7FB0F5
:1023E000CE6370825F22A2914D2C28C2D1CB82B2E3
:1023F000C85F7386611D9F954A2C28C1D1CE83B2D8
:10240000C35A748A601A9C99452C28C0D1D184B0D3
:10241000C055758B5D19979A3F2B29BCD1D584ACDB
:10242000C253758A581A94993C2B2DB7D2D682A6DE
:10243000C8527387531D92963A2B30B2D2D67FA0E2
:10244000CE5370824F229291392B33AED2D67C9CE0
:10245000D4556D7F4B28938E392B34ADD1D67C9CCF
:10246000D4556D7F4B28938E392B34ADD1D67497CC
:10247000DF5B657846349B873A2B30B1D2D67098B3
:10248000E25E61774639A0863B2B2DB6D2D66F9B94
:10249000E3636076483CA5853F2B29BCD1D56F9B73
:1024A000E362607659199B853F2B29BCD1D57DB35A
:1024B000C7586C7E4831A38D332F31C7CDCD14144E
:1024C00014141414141414141414141414141E1EB8
:1024D0001E1E1E1E1E1E1E1E1E1E1E1E1E1E000058
:1024E00000000000000000000000000000000100EB
:1024F000010001000100010001001400140040016E
:102500001400400114007DB3C7586C7E4831A38D80
:10251000332F31C7CDCD7DB3C7586C7E4831A38DE5
:10252000332F31C7CDCD73B3C7585F744831A38003
:10253000332F31C7CDCD63DBCE8254724339A17BBB
:1025400022556E76C3C96581CB2B55782451B47E54
:1025500082314CCFC7E46581CB2A55782451B47BB6
:1025600082314CCFC7E47DB3C7586C7E4831A38D10
:10257000332F31C7CDCD0202020202020202020253
:10258000020202020202020202020200020202002F
:10259000020202020202000000000000000000002F
:1025A000000000000000000000000000000000002B
:1025B000000000000000000000000000000000001B
:1025C00000000000000002020202020202020202F7
:1025D00002020202020200000000000000000000EF
:1025E00000000000000000000000000000000000EB
:1025F00000000000000000000000000000000000DB
:1026000000000000000000000000000000000000CA
:1026100000000000000000000000000000000000BA
:1026200000000000000000000000000000000000AA
:1026300000000000000014141414141414141414D2
:102640001414141414141E1E1E1E1E1E1E1E1E1EE6
:102650001E1E1E1E1E1E00000000000000000000C6
:102660000000000000000100010001000100010065
:102670000A001400140040011400A401DC007DB322
:10268000C7586C7E4831A38D332F31C7CDCD7DB374
:10269000C7586C7E4831A38D332F31C7CDCD87B35A
:1026A000C75879884831A39A332F31C7CDCD89B81F
:1026B000BF5A7E98202A78A5843935D8A79083C43C
:1026C000B64F7A967A2DD0A42B355078CBB283C4EE
:1026D000B64F80967A2DD0A42B355078CBB27DB3EF
:1026E000C7586C7E4831A38D332F31C7CDCD020240
:1026F00002020202020202020202020202020202BA
:1027000002020202020202020202020202020002AB
:10271000020200020202020202020202020200009F
:1027200000000000000000000000000000000000A9
:102730000000000000000000000000000000020295
:10274000020202020202020202020202020200006D
:102750000000000000000000000000000000000079
:102760000000000000000000000000000000000069
:102770000000000000000000000000000000000059
:102780000000000000000000000000000000000049
:102790000000000000000000000000000000000039
:1027A00000000000000000000000000000002828D9
:1027B00028282828282828281414141414143C3CE9
:1027C0003C3C3C3C3C3C3C3C1E1E1E1E1E1E000075
:1027D00000000000000000000000000000000500F4
:1027E0000100010003006400DC0064003C007DA8DF
:1027F000C7556C7E532FA78F332F31C7CDCD6B922A
:10280000E9635F6C641B9F83383E28A6CED06B962D
:10281000E9665F8F5726A18C383E28A6CED07E96DB
:10282000DE5C6B7D621B9F904F2C28A6CED07DA5D1
:10283000C7556C7E552FA78F332F31C7CDCD0202E0
:102840000202020202020202020202020202020268
:102850000202020000000000030303030303000060
:102860000000000000000000040404040403040449
:102870000404040404040404040404040404000020
:102880000000000000000000000000000000010146
:102890000101010000000000010101000000000032
:1028A0000000000000000000000000000000000028
:1028B00000000000000000000000000000002828C8
:1028C00028282828282828281414141414143C3CD8
:1028D0003C3C3C3C3C3C3C3C1E1E1E1E1E1E000064
:1028E00000000000000000000000000000000500E3
:1028F0000100010003006400DC0064003C007DA5D1
:10290000C7556C7E572FA78F332F31C7CDCD8B96F0
:10291000E661788E65109A9C4F2C28B7BCD0649ADB
:10292000E0616B8E64139AA14F2C28B7BCD0799AC2
:10293000DE5F5D7D5E209C904F2C28A6CED07DA7CB
:10294000C7556C7E542FA78F332F31C7CDCD0202D0
:10295000020202020202020202020202020200005B
:102960000000000202020202040404040404000045
:10297000000000020202020204040404040404042D
:10298000040404040404040404040404040400000F
:102990000000000000000000000000000000000037
:1029A000000000010101010100000001010100001F
:1029B0000000000000000000000000000000000017
:1029C00000000000000000000000000000001414DF
:1029D00014141414141414141414141414141E1EA3
:1029E0001E1E1E1E1E1E1E1E1E1E1E1E1E1E000043
:1029F00000000000000000000000000000000100D6
:102A0000010001000A000A001400080240012C0124
:102A100008027DB3C7586C7E4831A38D332F31C770
:102A2000CDCD7DB3C7586C7E4831A38D332F31C7D0
:102A3000CDCD7D5ECD596C7A9933A88C0A6769F14A
:102A4000928F77DFF9726B7C1D028E8F0B3169E9F3
:102A5000CA8B7DB9F9826C7C43017C912D4145C9BB
:102A6000BDAF7DB3C7586C7E4831A38D332F31C7BE
:102A7000CDCD0202020202020202020202020202A0
:102A80000202020202020202020202020202020226
:102A90000202000000000000000000000000000032
:102AA0000000000000000000000000000000000026
:102AB00000000202020202020202020202020202FA
:102AC0000202000000000000000000000000000002
:102AD00000000000000000000000000000000000F6
:102AE00000000000000000000000000000000000E6
:102AF00000000000000000000000000000000000D6
:102B000000000000000000000000000000000000C5
:102B1000000014141414141414141414141414149D
:102B200014141E1E1E1E1E1E1E1E1E1E1E1E1E1ED9
:102B30001E1E000000000000000000000000000059
:102B4000000001000100010001001E001400DC0073
:102B5000A4015E0158027DB3C7586C7E4831A38D35
:102B6000332F31C7CDCD7DB3C7586C7E4831A38D8F
:102B7000332F31C7CDCD7AB3C8576C7A4630A38D89
:102B800014832AEE6FC97A85C86E6780762F8D8D83
:102B900016C86CE82F857459ED516884A010AD9269
:102BA00001D277FE27797DB3C7586C7E4831A38D5B
:102BB000332F31C7CDCD020202020202020202020D
:102BC00002020202020200000000000000000000F9
:102BD00000000000000000000000000000000000F5
:102BE00000000000000000000000000000000000E5
:102BF00000000000000002020202020202020202C1
:102C000002020202020200000000000000000000B8
:102C100000000000000000000000000000000000B4
:102C200000000000000000000000000000000000A4
:102C30000000000000000000000000000000000094
:102C40000000000000000000000000000000000084
:102C500000000000000014141414141414141414AC
:102C60001414141414141E1E1E1E1E1E1E1E1E1EC0
:102C70001E1E1E1E1E1E00000000000000000000A0
:102C80000000000000000A0028000A002800F401EB
:102C9000E803D007E8037DB3C7586C7E4831A38DA5
:102CA000332F31C7CDCD7DB3C7586C7E4831A38D4E
:102CB000332F31C7CDCD7D93F76A6C7E6604918D3D
:102CC000332F31C7CDCD7D93F76A6C7E6604918D2D
:102CD000332F31C7CDCD7DB3C7586C7E4831A38D1E
:102CE000332F31C7CDCD02020202020202020202DC
:102CF00002020202020202020202020202020202B4
:102D000002020202020200000000000000000000B7
:102D1000000000000000040404040404040404048B
:102D2000040404040404000000000000000000008B
:102D30000000000000000101010101010101010189
:102D4000010101010101030303030303030303035F
:102D50000303030303030000000000000000000061
:102D6000000000000000141414141414141414149B
:102D70001414141414141E1E1E1E1E1E1E1E1E1EAF
:102D80001E1E1E1E1E1E000000000000000000008F
:102D90000000000000000A0028000A000A002800C5
:102DA000F401E803F401F401E8037DB3C7586C7E35
:102DB0004831A38D332F31C7CDCD7DB3C7586C7E3D
:102DC0004831A38D332F31C7CDCD7DB3C7586C7E2D
:102DD0004831A38DBB3A2EC7CDCD7DB3C7586C7E8D
:102DE0004831A38DBA672EC7CDCD7DB3C7586C7E51
:102DF0004831A38DBB3A2EC7CDCD7DB3C7586C7E6D
:102E00004831A38D332F31C7CDCD02020202020219
:102E10000202020202020202020202020202020292
:102E20000202020202020202020202020202020282
:102E30000202020202020202020202020202020272
:102E40000202020202020202020204040404040456
:102E5000040404040404040404040000000000004A
:102E60000000000000000000000000000000000062
:102E70000000000000000000000000000000000052
:102E80000000000000000000000000000000000042
:102E90000000000000000000000000000000000032
:102EA00000000000000000000000141414141414AA
:102EB000141414141414141414141E1E1E1E1E1E96
:102EC0001E1E1E1E1E1E1E1E1E1E000000000000D6
:102ED0000000000000000000000028000A001400AC
:102EE0001400010001000A000A0019001400140077
:102EF0001E008403C8009001900178000802900130
:102F00009001F4019001900158027DB3C7586C7E86
:102F10004831A38D332F31C7CDCD7DB3C7586C7EDB
:102F20004831A38D332F31C7CDCD7DB0F7796C7E7D
:102F30004702828D332F31C7CDCD81B4EC6A4B8BE4
:102F40004702827403324DEF9DA033B4EC6A5F8B6D
:102F50004702827401324AE89EA03398ED2D5F8BC0
:102F600047028274023231E898A03385952D5F8B39
:102F700047028274023233E88FA0338EEA305F8BCF
:102F800047028274023231E89AA07BC2D256528B39
:102F900047028274023231E895A084CADC695B90F2
:102FA0003F047D8A443431E8AAA07BAEF8766A817A
:102FB0004C04878F343231DBC2D57B9BF8766A8133
:102FC0005F04878F343231DBC2D57DB3C7586C7E46
:102FD0004831A38D332F31C7CDCD0404040404043C
:102FE00004040404040404040404040404040404A1
:102FF0000404040404040404040404040404040491
:103000000404040404040404040404040404040480
:103010000404040404040404040400000000000484
:103020000404040404040404040400000000000474
:103030000404040404040404040400000000000464
:103040000404040404040404040404040403040441
:103050000404040404040404040404040403040431
:103060000404040404040404040404040403040421
:103070000404040404040404040404040403040411
:103080000404040404040404040404040404040400
:103090000404040404040404040400000000000008
:1030A0000000000000000000000002020202020016
:1030B0000000000000000000000000000000000010
:1030C00000000000000000000000020202020200F6
:1030D00000000000000000000000030303030300E1
:1030E00000000000000000000000030303030300D1
:1030F00000000000000000000000020202020200C6
:1031000000000000000000000000020202020200B5
:1031100000000000000000000000000000000000AF
:10312000000000000000000000000000000000009F
:10313000000000000000000000000000000000008F
:10314000000000000000000000000000000000007F
:10315000000000000000000000002828282828287F
:10316000282828281414141414143C3C3C3C3C3CDF
:103170003C3C3C3C1E1E1E1E1E1E000000000000AB
:103180000000000000000000000014001400140003
:103190001400140014001400010001000A002800AB
:1031A0000F000F00050032003200320001002D0038
:1031B0002D000A000A000A000A002D000A000A0079
:1031C0000A000A002D0050001E000F000F000F0023
:1031D0000F000F000F000F000F008403840384030F
:1031E000840384038403840308020802F401400674
:1031F000580258023408FC03FC03FC03E407840370
:103200008403F401F401F401F4018403F401F401F2
:10321000F401F401840340064006580258025802A3
:10322000580258025802580258027DB3C7586C7EA3
:103230004831A38D332F31C7CDCD7DB3C7586C7EB8
:103240004831A38D332F31C7CDCD7CB5F77C6C7E53
:1032500047047F8D332F31C7CDCD7C77F77C6C7ED3
:1032600083047F8D87304C6CCDA77C4EF77C6C7EC1
:10327000B9047F8D8730046CCDEF79DDFA686C7E00
:103280009F429B8DBE300436CDEF79DDFA686C7EAF
:103290009F5AC68DCE390835B6F479DDFA686C7E52
:1032A0009F42B98DBE30040F5E8D79DDFA686C7E69
:1032B0009F42B98DBE3004AE7D8D79DDFA686C7E9B
:1032C0009F42B98DBE3004B472E379DDFA686C7E3A
:1032D0009F6CCA8DCD3004AB32CA369FFA686C7EC3
:1032E0001C0E9C8DCD3004AB32CA7E9FFA686C8177
:1032F0001C0E9C8DCD2B049728E67EC6C66D6C8176
:10330000373E9C8DCD2B049728E658D9817E6CA73B
:103310001C717F8DCD2B049728E635D9897E6CC42E
:103320001C717F8DCD2B049728E616D98A7E6CEA16
:103330001C717F8DCD2B049728E658D9867E6CA70B
:103340001C717F8DCD2B049728E658D9867E6CA7FB
:103350001C717F8DCD2B049728E67CC2F76D6B81A5
:1033600038049390CD2B049728E67CCBD96D6B81E4
:103370002F239390CD2B049728E67CB0B2616B810C
:103380001D149390CF2B048F28E67CBDCB616B81FD
:1033900016319390CD2B049728E67CD8C9626B81B7
:1033A0003C2A9F90CD2B049728E67CE4D2686B8161
:1033B000533AB390CD2B049728E67CCBD96D6B8123
:1033C0002F239390CD2B049728E67CB0B2616B81BC
:1033D0001D149390CF2B048F28E67CBDCB616B81AD
:1033E00016319390CD2B049728E67CD8C9626B8167
:1033F0003C2A9F90CD2B049728E67CE4D2686B8111
:10340000533AB390CD2B049728E67CCBD96D6B81D2
:103410002F239390CD2B049728E681BFF76D6B8205
:103420009A798390CD2B049728E6815E813A6E804D
:10343000A271C488CD4E049779E6815E8A3B6E8086
:103440009978C488CD4E04C2848D815C81396E80A8
:10345000A279C488CD4E0440848D815A84386E8010
:10346000A279C488D0242E34D0DE815EB7646E8009
:10347000A26EBA88A72D575ACAA78157C5476E8032
:10348000A239BA8F822D5374CBA7817DC5476E8038
:10349000783BB88F8F245974CBA77BA6DF5E6A7DFB
:1034A0005123A28D8F245974CBA77DB3C7586C7E4E
:1034B0004831A38D332F31C7CDCD04040404040457
:1034C00004040404040404040404040404040404BC
:1034D00004040404040404040404040404040404AC
:1034E000040404040404040404040404040404049C
:1034F000040404040404040404040404040404048C
:103500000404000004040404040404040404040483
:103510000404000004040404040404040404040473
:103520000404000004040404040404040404040463
:103530000404000001010101010104040404040465
:103540000404000001010101010104040404040455
:103550000404000001010101010101010101010157
:10356000010100000101010101010101010101014D
:10357000010100000101010101010404040404042B
:103580000404000004040404040404040404040403
:10359000040400000101010101010000000000001D
:1035A000000000000000000000000000000000001B
:1035B000000000000000000000000000000000000B
:1035C00000000000000000000000000000000000FB
:1035D00000000000000000000000020202020202DF
:1035E00002020202040404040404020202020202AF
:1035F000020202020404040404040202020202029F
:10360000020202020404040404040202020202028E
:10361000020202020404040404040202020202027E
:10362000020202020404040404040202020202026E
:10363000020202020404040404040202020202025E
:10364000020202020404040404040202020202024E
:10365000020202020404040404040202020202023E
:10366000020202020404040404040202020202022E
:10367000020202020404040404040202020202021E
:10368000020202020404040404040202020202020E
:1036900002020202040404040404020202020202FE
:1036A00002020202040404040404020202020202EE
:1036B00002020202040404040404020202020202DE
:1036C00002020202040404040404020202020202CE
:1036D00002020202040404040404020202020202BE
:1036E00002020202040404040404020202020202AE
:1036F000020202020404040404040202020202029E
:10370000020202020404040404040202020202028D
:10371000020202020404040404040202020202027D
:10372000020202020404040404040202020202026D
:103730000202020204040404040400000000000069
:103740000000000000000000000000000000000079
:103750000000000000000000000000000000000069
:103760000000000000000000000000000000000059
:103770000000000000000000000000000000000049
:103780000000000000000000000000000000000039
:103790000000000000000000000000000000000029
:1037A0000000000000000000000000000000000019
:1037B0000000000000000000000000000000000009
:1037C00000000000000000000000000000000000F9
:1037D00000000000000000000000000000000000E9
:1037E00000000000000000000000000000000000D9
:1037F00000000000000000000000000000000000C9
:1038000000000000000000000000010101010101B2
:10381000010101010101010101010303030303038C
:103820000303030303030303030301010101010174
:10383000010101010101010101010000000000007E
:103840000000000000000000000003030303030366
:10385000030303030303030303030000000000004A
:103860000000000000000000000000000200000056
:103870000002000000000000000000000000000046
:103880000000000000000000000000030000030032
:10389000030000030000000000000200000000021E
:1038A0000000000000000000000000000000000018
:1038B0000000000000000000000000000000000008
:1038C00000000000000000000000000000000000F8
:1038D00000000000000000000000000000000000E8
:1038E00000000000000000000000000000000000D8
:1038F00000000000000000000000000000000000C8
:1039000000000000000000000000000000000000B7
:1039100000000000000000000000000000000000A7
:103920000000000000000000000000000000000097
:103930000000000000000000000000000000000087
:103940000000000000000000000000000000000077
:103950000000000000000000000000000000000067
:103960000000000000000000000000000000000057
:103970000000000000000000000000000000000047
:103980000000000000000000000000000000000037
:103990000000000000000000000000000000000027
:1039A0000000000000000000000000000000000017
:1039B000000000000000000000004255533D256457
:1039C0000D0A000000240348066A098C0CAB0FC8DE
:1039D00012E215F9180B1C1A1F2322282526281F6E
:1039E0002B112EFB30DF33BA368C39563C173FCEC5
:1039F000417A441C47B4493F4CBF4E33519B53F569
:103A0000554258825AB45CD75EEC60F162E864CFEC
:103A100066A6686D6A246CCA6D5F6FE2705572B5F8
:103A200073047541766C7784788A797D7A5D7B2A18
:103A30007CE47C8A7D1D7E9D7E097F627FA77FD886
:103A40007FF67F564F4C54000000495200000000A2
:103A5000004B424400000000524E4400000000535E
:103A60004552564F00005449434B000000504F52FE
:103A700054000000524F4D000000005459504500C2
:103A80000000414253000000004D415049520000E7
:103A90004B49520000000046494E44000000435686
:103AA00042324900004E4500000000004E53000025
:103AB0000000004D41580000000053554D0000002B
:103AC000004D494E000000004E4F524D0000005383
:103AD00051525400000053494E00000000434F5320
:103AE00000000000494D415800000048414D0000D1
:103AF000000052414E474500005349470000000076
:103B0000445349470000005354414E4400005A4575
:103B1000524F5300004D4943000000005800000080
:103B2000000000590000000000005A0000000000E2
:103B30000050534400000000475245590000005413
:103B40005552544C45004556454E5400004D415089
:103B500000000000534855460000005343414C45C7
:103B60000000000000000000000000000000000055
:103B7000457272202D2064697620300D0A0065762A
:103B8000616C20737461636B20706F70206572725A
:103B90006F722025642C202564205B25642C25640D
:103BA0005D0D0A006576616C20737461636B20653E
:103BB00072726F722025642C2025640D0A006576D0
:103BC000616C20737461636B206572722025642CB4
:103BD00025640A004576616C203D25730A006576F0
:103BE000616C20737461636B206572726F720A007E
:103BF0006576616C20737461636B206572726F729D
:103C00000A006576616C20737461636B2065727263
:103C10006F720A002564202D2025640A00737461E8
:103C2000636B2025640A002564202D205B25635DDD
:103C30000A004F70732025640A002563203D20256B
:103C40006C642020002563203D20256C642020002A
:103C50002563203D20256C6420200070616E69631F
:103C6000206572726F720D0A004D4150202564204C
:103C700025640D0A00256420256420256420256C18
:103C8000640D0A004576616C20256320256420259B
:103C9000730A004661696C20437265617465206F28
:103CA0007574206F66207370616365202D20256414
:103CB0000A00437265617465202D2D20256420253E
:103CC000640A004661696C20437265617465202D49
:103CD0002D2025640A0040256320416C72656164D3
:103CE00079206578697374732025640A00437265CE
:103CF0006174652025632025640A0044657374722D
:103D00006F792025630A000A002025640021205BCA
:103D10002533645D000A00202564002563205B25AF
:103D200033645D00426164204D617472697820647F
:103D30006566696E6974696F6E0A0043616E277407
:103D400020637265617465206D61747269780A0020
:103D5000426164204D61747269782073697A6520CC
:103D60002825642C256429202A202825642C2564F4
:103D700029200A00204D6174726978204D756C7499
:103D80002025632825642C256429202A20202563EA
:103D90002825642C256429200A004572723A206C7B
:103DA000697374637265617465206661696C6564CA
:103DB0000A0025336420006D61747269782027251C
:103DC00063272025647825640A0043726561746561
:103DD000206D617472697820272563272025647817
:103DE00025640A00446F6E650D0A004D6F766520EC
:103DF0002564203D2025640A00696E76616C696443
:103E000020736572766F2069642025640A00446F10
:103E10006E650D0A00576169742025640A004D6FB4
:103E20007665202564203D2025640A0045727220B5
:103E30002D20736572766F2069642025640A004521
:103E40007272202D207365747570206172726179B1
:103E5000205B25642C25645D0A00256420004572E2
:103E600072202D736572766F2069642025640A00C4
:103E700025643A2000446F6E650A005072657373C2
:103E800020616E79206B657920746F207265636F95
:103E90007264206F7220276573632720746F206619
:103EA000696E6973680A00506173736976652025CD
:103EB000640A00457272202D20736572766F206946
:103EC000642025640A00457272202D207365747584
:103ED00070206172726179205B25642C25645D0A13
:103EE000003F20436D64206E6F7420617661696CC1
:103EF00061626C650D0A00434F20707432202020EF
:103F0000203D2025640A00434F207074312020207A
:103F1000203D2025640A004D75742072616E67652E
:103F2000203D202B2F2D25640A004D7574207261D1
:103F3000746520203D2025640A0047656E65726126
:103F4000746520203D2025640A006C656E677468E6
:103F5000202020203D2025640A005479706520200F
:103F6000202020203D2025640A004572726F7220B7
:103F70002D206D75746174696F6E2072616E676556
:103F8000206D757374206265203E300A0025642917
:103F9000203D20282564202564292025640D0A0061
:103FA0004646542028256429203D2025640D0A001A
:103FB0002C256400256400496E76616C6964207369
:103FC000616D706C652073697A65206D75737420FE
:103FD0006265206F6E65206F6620382C31362C3379
:103FE00032206F722036340A005365742074696D74
:103FF000657220256C642C2025640A004442473AEF
:104000003A204D4F56452025643D25640A00456EF3
:1040100064206F662070726F6772616D0D0A006BAD
:1040200065793D25640A0056616C69642072616E91
:1040300067653A20302D31380D0A00506C617920C7
:104040004D6F74696F6E2025640D0A002C25640085
:10405000256400256C640044756D6D79202D5B2509
:10406000635D205B25735D0A004572723A3A206CED
:10407000617965722033206E6575726F6E73206D85
:10408000757374206D61746368206F7574707574D6
:1040900020286F72206265207A65726F290A0045B8
:1040A00072723A3A20496E70757420616E64206FA6
:1040B0007574707574206D757374206265206774F3
:1040C00020300A00743D25640A000A0025642C2073
:1040D00000743D25640A0025642C2000743D25648D
:1040E0000A0025642C2000743D25640A00464F25F3
:1040F000643D25640A003F4E6F204C332073657287
:10410000766F207370656369666965640A0053653C
:1041100072766F2025643D25640A004F4F3D25646B
:104120000A0054683D2D282564290A0028256429A1
:104130002054683D25640A534F3D25640A005365A9
:1041400072766F2072656164206661696C0A00494D
:104150006E7075743D2564202825642078202564C0
:10416000290A00496E7075743D2564202825642055
:1041700078202564290A004F5554505554204E4547
:1041800055524F4E203D2025640A004D4F544F524A
:10419000204E4555524F4E203D2025640A004F4881
:1041A0003D25640A0054683D2D282564290A0049EC
:1041B0006E7075743D256420282564207820256460
:1041C000290A0048494444454E204E4555524F4E19
:1041D000203D2025640A004F25643D25640A002502
:1041E000642D282564290A0025643C3D282564297E
:1041F0000A00496E7075743D256420282564207876
:10420000202564290A00494E505554204E455552E8
:104210004F4E203D2025640A00436F6E6E2050658E
:104220007220494E505554204E4555524F4E203D18
:104230002025640A004F6666736574203D2025645E
:1042400020282564290A0A004E4F204C33203D20A7
:1042500025640A0A004E4F204C32203D2025640A76
:10426000004E4F204C31203D2025640A00466C61F1
:104270006773203D2025640A004E4F4F2020203DCB
:104280002025640A004E4F492020203D2025640A45
:10429000000011241FBECFEFD0E1DEBFCDBF16E07E
:1042A000A0E0B1E0ECE4F3E401E00BBF02C0079052
:1042B0000D92AE33B107D9F71DE0AEE3B6E001C011
:1042C0001D92AB3BB107E1F70E94F2240C94A4A12C
:1042D0000C9400008091DC089091DD08883C9105E9
:1042E00010F4DA9814C08091DC089091DD08893CC4
:1042F000910560F08091DC089091DD0821E0803923
:10430000920720F4DA9ADB9ADC980895DA9ADB9A1D
:10431000DC9A08959093D9088093D8088091D808A2
:104320009091D9080097D1F708951F920F920FB678
:104330000F920BB60F9211242F933F934F935F93DD
:104340006F937F938F939F93AF93BF93EF93FF935D
:1043500089E182BF8091EA089091EB0801969093E1
:10436000EB088093EA088091D8089091D9080097CB
:1043700049F08091D8089091D90801979093D90875
:104380008093D8080E946A218091CF06882389F003
:104390008091DC089091DD086091060170E00E9438
:1043A000889F009731F48FE0809398098CED0E94EC
:1043B000682E8091DC089091DD0801969093DD08CD
:1043C0008093DC088091DC089091DD0823E0883E32
:1043D000920708F443C01092DD081092DC08809127
:1043E000DA089091DB08009749F08091DA08909103
:1043F000DB0801979093DB088093DA088091D70857
:104400008F5F8093D7088091D7088C3338F1109252
:10441000D7088091E4089091E508009749F08091D1
:10442000E4089091E50801979093E5088093E408EB
:104430008091CB088F5F8093CB088091CB088C3321
:1044400068F01092CB088091CF088F5F8093CF08DF
:104450008091CF08883110F01092CF08FF91EF9132
:10446000BF91AF919F918F917F916F915F914F918C
:104470003F912F910F900BBE0F900FBE0F901F908A
:1044800018951F920F920FB60F9211240F900FBE26
:104490000F901F9018958091C808882321F1809172
:1044A00014099091150925E28C31920728F0109299
:1044B000E7081092E60809C08091E6089091E708A5
:1044C00001969093E7088093E6088091E608909122
:1044D000E7088730910578F11092C8081092E70834
:1044E0001092E6080895809114099091150925E22B
:1044F0008C31920770F01092E7081092E6088091D4
:10450000D2089091D30801969093D3088093D20853
:1045100004C01092D3081092D2088091D2089091D2
:10452000D3088330910538F081E08093C808109259
:10453000D3081092D20808950F931F93CF93DF935F
:1045400021E02093CC0885E090E09093E5088093EB
:10455000E408809114099091150900D000D00F92C1
:10456000EDB7FEB73196ADB7BEB711962C932CEAD6
:1045700031E032832183948383830E94AC2A0F909D
:104580000F900F900F900F9005E011E0C2E8D1E07E
:1045900063C00E948A2597FF66C00E94FF2F97FF85
:1045A00062C08091D708602F0E947C9F992359F5A3
:1045B0003091CB082091D70880911409909115096A
:1045C0004DB75EB7495050400FB6F8945EBF0FBE6E
:1045D0004DBFEDB7FEB73196ADB7BEB711961C9380
:1045E000D283C18333831482258316829087878385
:1045F0000E94AC2A4DB75EB7475F5F4F0FB6F89485
:104600005EBF0FBE4DBFAF9A809165008B7F8093D8
:1046100065000E94332F0E944B228091C808882396
:1046200011F1C49A88E290E00E948A21C4988CEC2F
:1046300091E00E948A2180916500846080936500EA
:104640000E94332F0E944B228091C808882359F082
:1046500084EF91E00E948A218091E4089091E5081E
:10466000009709F096CF85E590E09093E508809358
:10467000E40805E011E0CFE5D1E053C00E948A25AF
:1046800097FF56C00E94FF2F97FF52C0C49A809197
:1046900065008B7F8093650084EF91E00E948A2102
:1046A00080916500846080936500C49884EF91E0F8
:1046B0000E948A210E94332F0E944B228091D708AA
:1046C000602F0E947C9F992341F53091CB08209167
:1046D000D7088091140990911509ADB7BEB7199705
:1046E0000FB6F894BEBF0FBEADBFEDB7FEB73196A3
:1046F00011961C93D283C18333831482258316823F
:10470000908787830E94AC2A4DB75EB7475F5F4FA3
:104710000FB6F8945EBF0FBE4DBF8091C8088823C6
:1047200039F08091E4089091E508009709F0A6CF50
:10473000C4981092CC08809114099091150900D06A
:1047400000D00F92EDB7FEB7319621E0ADB7BEB7FE
:1047500011962C9323E531E0328321839483838364
:104760000E94AC2A0F900F900F900F900F90DF9146
:10477000CF911F910F91089589B38370823059F4BE
:104780008AE090E00E948A2189B38370823019F414
:1047900081E08093D40889B38370813059F48AE032
:1047A00090E00E948A2189B38370813019F483E0FC
:1047B0008093D4080895FF920F931F93CF93DF93B4
:1047C00000D00F9281E0ADB7BEB711968C931197D0
:1047D00084E491E013969C938E9312970E94AC2AE6
:1047E0000F900F900F90CAE0D0E0FF24F3940CE3F9
:1047F00011E0AF9882E390E00E948A210E94332F5B
:104800000E944B22809114099091150900D000D08C
:104810000F92EDB7FEB73196ADB7BEB71196FC92C9
:1048200012830183948383830E94AC2AAF9A0F90F2
:104830000F900F900F900F9082E390E00E948A21DA
:104840002197B9F68091C808882311F100D00F9202
:10485000EDB7FEB7F18284E291E0938382830E94F8
:10486000AC2A0F900F900F900E9410450E949C223E
:1048700000D00F92ADB7BEB71196FC92119789E1A7
:1048800091E013969C938E9312970E94AC2A0CC0D1
:1048900000D00F92EDB7FEB7F18288E091E09383EC
:1048A00082830E94AC2AAF980F900F900F90DF91F7
:1048B000CF911F910F91FF9008958091D40881307E
:1048C00011F40E94DB238091D408833011F40E94FC
:1048D0008D28089593E09BBB8CEF8ABB18BA84E7C0
:1048E00087BB15BA80E884BB23E822BB81BB20E3E9
:1048F00023B928E022B91092620010926100109250
:10490000650024E02093640010BE23BF12BE11BED8
:104910001FBC25E02EBD1DBC1CBC17BC16BC1BBC9F
:104920001ABC19BC18BC109279001092780025BDF1
:1049300014BC13BC10928B0090938A0010928900D3
:1049400010928800109281001092800010928700CF
:1049500010928600109285001092840010928300BD
:104960001092820010926A0090E29ABF20E429BF60
:1049700017BE10927D001BB848E14AB936E030936B
:1049800095001092900027E029B910929B00409367
:104990009A0030939D00109298002093990088B956
:1049A00010BC97B916B8109274000895DA9ADB9A81
:1049B000DC9AE5E6F0E0808184608083AF9ADD9A3E
:1049C000DE9ADF9AC5981092A5091092A709109255
:1049D000DD081092DC081092D7081092CB081092D4
:1049E000CF0808950E946A240E94D6240E94472579
:1049F00060E072EC81E090E00E942A2587E695E273
:104A00000E944629789487B7816087BF80916500AE
:104A10008B7F809365000E941A310E94BC230E9404
:104A20005D240E94083EFFCF8DEE98E060E476E0C2
:104A300040E450E00E94AA2886EF98E060E876E023
:104A400040E450E00E94AA28089590933F06809386
:104A50003E0608959B01AC016B54704E834E9F4FF0
:104A6000F3E0660F771F881F991FFA95D1F7E4E0EE
:104A7000220F331F441F551FEA95D1F70E94AF9FA5
:104A800021503040209399003093980008950E945F
:104A9000142510923F0610923E0688ED80939A00EE
:104AA00060E875E280E090E00E942A258FEF809315
:104AB000EC081092F5081092FF081092FE08789406
:104AC00008958DEE98E0089586EF98E0089590910E
:104AD000EC089923E1F380939C001092EC08089570
:104AE000CF93DF93EC018091EF089091F00800974D
:104AF00069F08091F1089091F208009739F08DEEFD
:104B000098E00E94B72888838FEF01C080E0DF9192
:104B1000CF910895DF93CF930F92CDB7DEB7CE013B
:104B200001960E947025882319F0298130E002C087
:104B30002FEF3FEFC9010F90CF91DF9108951092B1
:104B4000F2081092F10808958091F1089091F2080E
:104B5000009711F48FEF089580E00895682F86EF95
:104B600098E00E940F2908958FEF8093F50886EF53
:104B700098E00E94B7280E94672508951F920F921F
:104B80000FB60F920BB60F9211242F933F934F93B2
:104B90005F936F937F938F939F93AF93BF93EF93A5
:104BA000FF938091F508882379F08091FA0890911D
:104BB000FB08009739F086EF98E00E94B7288093B1
:104BC0009C0005C01092F5088FEF8093EC08FF91D0
:104BD000EF91BF91AF919F918F917F916F915F9175
:104BE0004F913F912F910F900BBE0F900FBE0F90E2
:104BF0001F9018951F920F920FB60F920BB60F923F
:104C000011242F933F934F935F936F937F938F93D1
:104C10009F93AF93BF93EF93FF9360919C0020917C
:104C20003E0630913F062115310539F0E0913E06F0
:104C3000F0913F06862F09950FC08DEE98E00E94F7
:104C40000F29882349F48091FE089091FF0801966E
:104C50009093FF088093FE08FF91EF91BF91AF9171
:104C60009F918F917F916F915F914F913F912F9184
:104C70000F900BBE0F900FBE0F901F901895CF9204
:104C8000DF92EF92FF920F931F93DF93CF93CDB7F5
:104C9000DEB72A970FB6F894DEBF0FBECDBF8C01EA
:104CA0008F3F910519F481E090E049C0809101099E
:104CB000909102098330910509F468C08430910510
:104CC00040F48130910581F08230910509F016C2DF
:104CD00016C08530910569F18530910528F186303F
:104CE000910509F00BC232C00E3B110519F482E0A8
:104CF00090E010C010920209109201090FC00093B9
:104D00000509802F8D50823018F484E090E002C0B5
:104D100083E090E090930209809301098091120949
:104D2000802780931209EAC10093000985E090E092
:104D300028C0009310091092110986E090E090932A
:104D400002098093010910921209D8C180911109BA
:104D500020911009821768F490911209902790937E
:104D60001209E82FF0E0EA5FF64F00838F5F80932F
:104D7000110980911109821709F0C0C1DB9A83E003
:104D800090E09093020980930109B8C18091D50603
:104D90009091D606009709F0DA9880911209282F91
:104DA00030E02F7730700217130709F09CC1809113
:104DB0000509982F9154993108F449C1982F9052C0
:104DC000983038F0282F2053283008F075C09031E3
:104DD00000F580FF02C0DE9801C0DE9A80910509CF
:104DE00081FF02C0DD9801C0DD9A8091050982FF34
:104DF00004C0809165008B7F03C080916500846052
:104E0000809365008091050983FF02C0AF9801C0BF
:104E1000AF9A80910509982F90539031D0F480FF7C
:104E200002C0DF9801C0DF9A8091050981FF02C0AE
:104E3000DA9801C0DA9A8091050982FF02C0DB98F6
:104E400001C0DB9A8091050983FF02C0DC9801C094
:104E5000DC9A81E0DE9B80E0DD9B02C092E001C035
:104E600090E0C92EC80E95B3991F9927991F990FE5
:104E7000990FC90E8091650082FF02C088E001C0D1
:104E800080E0C80E9BB3991F9927991F9295907F38
:104E9000C90EDB9B02C090E201C090E0C90EDA9B14
:104EA00002C090E401C090E0C90EDC9B02C090E813
:104EB00001C090E0C90E01C0CC24E0910509F0E0EA
:104EC000E231F10508F0D4C0EA5BFF4FEE0FFF1F9F
:104ED0000590F491E02D09940E942E318091AF0944
:104EE0009091B00906C00E942E318091AD09909139
:104EF000AE09C82EE090B109F090B2090E2DF2C0B3
:104F00000E946E2EB5C00E947B2EB2C00E947D2EE4
:104F1000C0909D09ADC00E94332F809114099091DB
:104F20001509C92EE0901409F0901509E7CF0E94E9
:104F3000FF2FC82ED1C081E090E002C080E090E059
:104F40000E94AC2D95C006E119E0EE24FF24F80183
:104F5000808190E00E948B2DF8018081E80EF11C89
:104F600011928F01F9E006391F0789F7CF2CC6CFC0
:104F7000C090D7080091CB08B5C00E94F02E809158
:104F80009A0990E00E948B2DC0900609DD24609163
:104F9000100970E0615070408091000990E047E096
:104FA00059E096017E010894E11CF11C87010E94E2
:104FB000BF3000E010E007C0F70181917F010E943F
:104FC0004B290F5F1F4F0C151D05B4F340C06091B6
:104FD00010098091000990E070E046E059E00E94DD
:104FE0008530C82E45C00E947D2E80919D090E946B
:104FF0004B290E942E318091AD099091AE090E94FB
:105000004B298091AF099091B0090E944B29809162
:10501000B1099091B2090E944B290E94FF2F0E9472
:105020004B2989B383700E944B29E6E1F9E080E0C7
:1050300090E02081820F911D119229E0E639F2075C
:10504000C1F70E944B291092020910920109109297
:10505000050954C080E80E944B2906E119E0F801D7
:1050600081918F010E944B29F9E006391F07B9F79A
:1050700000E038C081E0DE9B80E0DD9B02C092E072
:1050800001C090E0C92EC80E95B3991F9927991FAA
:10509000990F990FC90E8091650082FF02C088E0C8
:1050A00001C080E0C80E9BB3991F9927991F929564
:1050B000907FC90EDB9B02C090E201C090E0C90E58
:1050C000DA9B02C090E401C090E0C90EDC9B02C0F4
:1050D00090E801C090E0C90E09B3037003C004E179
:1050E00083E0C82E8C2D0E944B29802F0E944B29D3
:1050F0001092050910920209109201092A960FB622
:10510000F894DEBF0FBECDBFCF91DF911F910F91FD
:10511000FF90EF90DF90CF900895CF93DF938CEBCB
:1051200091E00E9498290E948A25EC0197FD05C014
:105130000E947E44CE010E943F2680E090E00E94C3
:10514000824497FD02C00E944B2981E090E00E94BA
:105150008A21E9CFFC018FB7F89471836083538370
:10516000428317821682158214828FBF0895FC0134
:105170009FB7F8944481558141155105C9F02681A6
:105180003781A081B181A20FB31F8C912F5F3F4F58
:1051900037832683628173812617370720F0261B09
:1051A000370B37832683415050405583448301C0D9
:1051B00080E09FBF0895FC01AFB7F894248135814A
:1051C00062177307A0F486819781860F971F9783D4
:1051D0008683428153818417950720F0841B950BA9
:1051E00097838683261B370B3583248302C0158261
:1051F0001482AFBF0895FC01CB012FB7F89446810C
:105200005781840F951F628173810E94889F01904E
:10521000F081E02DE80FF91F80812FBF08951F93C3
:10522000FC01162F4FB7F894A481B58122813381F8
:10523000A217B307A0F4868197818A0F9B1FB9013B
:105240000E94889FA081B181A80FB91F1C938481FF
:1052500095810196958384834FBF8FEF02C04FBF26
:1052600080E01F910895FC014FB7F89422813381AB
:1052700084819581281B390B4FBFC90108952FB731
:10528000F894FC01158214822FBF08959093CD06E7
:105290008093CC0608951F93182F8A3031F4E09143
:1052A000CC06F091CD068DE00995E091CC06F09109
:1052B000CD06812F09951F910895CF93DF93009715
:1052C00039F0EC0102C00E944B2989918823D9F75B
:1052D000DF91CF910895EF92FF920F931F93CF9399
:1052E000DF937A010097E9F0FC0180E090E0EF01A4
:1052F0008617970718F000E010E010C02191EF0129
:1053000001962223A1F7F7CF8881882311F02196F7
:1053100001C080E20E944B290F5F1F4F0E151F0531
:1053200098F3DF91CF911F910F91FF90EF90089527
:10533000CF93DF93EC01009719F407C00E944B292B
:10534000FE01219684918823C9F7DF91CF910895BA
:105350008AE00E944B290895E82FF0E0EF70F0708A
:10536000E853FE4F84910E944B2908951F93182FF4
:1053700082958F700E94AC29812F0E94AC291F91C9
:1053800008951F93182F892F0E94B629812F0E94FC
:10539000B6291F910895EF92FF920F931F937B01FF
:1053A0008C01C8010E94C129C7010E94C1291F9117
:1053B0000F91FF90EF9008952F923F924F925F923E
:1053C0007F928F929F92AF92BF92CF92DF92EF9295
:1053D000FF920F931F93DF93CF93CDB7DEB7A297C2
:1053E0000FB6F894DEBF0FBECDBF282E862E942EAA
:1053F000722E57016801442351F017FF08C0662739
:105400007727CB016E197F09800B910B02C0C60173
:10541000B50118A2332444245524A20191010E940D
:10542000AF9F6F70707068537E4FFB0164916F8FF8
:10543000B901CA018E01025E1F4F382D315021E0A3
:10544000992009F420E0321BA801431B51095AA3FB
:1054500049A318C0611571058105910579F0A20174
:1054600091010E94AF9F6F70707068537E4FFB0177
:105470006491F8016083B901CA0102C0F801708229
:105480000150104078010894E11CF11C29A13AA1B7
:1054900002171307F9F69920C1F0D7FE03C078016F
:1054A0008DE20AC0A114B104C104D10419F078013D
:1054B0008BE202C0780180E2F701808306C0F70129
:1054C00081917F010E944B298A948820C1F7A2967E
:1054D0000FB6F894DEBF0FBECDBFCF91DF911F9105
:1054E0000F91FF90EF90DF90CF90BF90AF909F9083
:1054F0008F907F905F904F903F902F9008958053B2
:105500008A3010F48FEF089580E00895E62FF72F8A
:1055100020E030E00AC0649101C0608170E0605317
:1055200070409A01260F371F3196882311F094910D
:1055300001C0908190539A3068F4A901440F551F1F
:1055400093E0220F331F9A95E1F7420F531F8823F0
:1055500011F7E3CFC90108952F923F924F925F92C6
:105560006F927F928F929F92AF92BF92CF92DF9273
:10557000EF92FF920F931F93DF93CF9300D0CDB79D
:10558000DEB77F886AE1E62EF12CEC0EFD1E988DC9
:10559000898D092F182F50E3652E67016BC2D80142
:1055A0008C91853209F062C20F5F1F4F772019F08E
:1055B000F801849102C0D8018C918D3231F40F5FD3
:1055C0001F4F41E0242E312C02C0222433247720A7
:1055D00029F0F8018491803331F40CC0D8018C910A
:1055E000803331F407C08E3229F030E2432E08C0F8
:1055F0008E3259F40F5F1F4F772051F020E3422E77
:10560000F80184918A32B9F409C090E2492E02C0AF
:1056100080E3482ED8018C918A3279F4F60101900A
:10562000F081E02DFA83E9830F5F1F4F22E030E025
:10563000C20ED31E1CC0772011F4D8018C91805368
:105640008A3088F4872DB8010E94862A9A8389833C
:10565000F801772011F0849101C0808180538A3055
:1056600028F43196F6CF1A82198201C08F01772073
:1056700019F0F801849102C0D8018C918E3261F545
:105680000F5F1F4F772029F0F80184918A3289F447
:1056900004C0D8018C918A3251F4F6018080918047
:1056A0000F5F1F4F22E030E0C20ED31E1BC0D80197
:1056B0008C9180538A3080F4872DB8010E94862A0D
:1056C0004C01F801772011F0849101C08081805352
:1056D0008A3038F43196F6CFBEEF8B2EBFE79B2E83
:1056E00001C08F01772019F0F801849102C0D80120
:1056F0008C91833229F40F5F1F4FA1E0B0E002C00C
:10570000A0E0B0E0772019F0F801849102C0F80120
:1057100080818C3629F40F5F1F4F81E090E002C03A
:1057200080E090E0772019F0F801249102C0F801A0
:10573000208130E02F36310509F493C02037310540
:1057400064F42336310509F43DC12436310591F066
:105750002532310509F08CC188C12537310509F49E
:1057600080C02837310509F47CC02337310509F0A2
:105770007FC133C1009749F0D6016D917D918D9124
:105780009C911397E4E0F0E00AC0D6016D917C9102
:105790001197882777FD8095982FE2E0F0E0CE0EF4
:1057A000DF1E97FF0BC090958095709561957F4F98
:1057B0008F4F9F4FA1E08A2E912C02C088249924FC
:1057C000F0ECAF2EF6E0BF2E2AE030E040E050E0F3
:1057D0000E94D19F605DF50161935F01B901CA012B
:1057E00016161706180619067CF37F01811491041A
:1057F00021F0DF01EDE2ED937D01A980BA8020EC7C
:1058000036E0A20EB31EAE18BF082114310491F485
:1058100003C0842D0E944B290894A108B10895016A
:105820002F5F3F4F12161306A4F304C0D7018C91CB
:105830000E944B290894E108F108B0ECEB16B6E0A1
:10584000FB06A0F72114310409F412C106C080E25E
:105850000E944B290894A108B1081A141B04BCF338
:1058600007C1009741F0F6016081718182819381C7
:1058700044E050E007C0F6016081718180E090E073
:1058800042E050E0C40ED51E25373105B9F4E0ECF6
:10589000AE2EE6E0BE2E2AE030E040E050E00E946E
:1058A000AF9F605DD5016D935D017D01B901CA01B6
:1058B000611571058105910571F750C02F363105CD
:1058C000D1F420EC36E0462F4770405DF90141935A
:1058D0009F0153E096958795779567955A95D1F7EF
:1058E000611571058105910571F77F011097B1F17F
:1058F00061927F0133C02837310561F521EC36E034
:10590000F9013197AB014F7050704A30510514F4D2
:10591000405D01C0495A4083790144E096958795DE
:10592000779567954A95D1F72F5F3F4F319661156F
:1059300071058105910531F7109781F0F70128E78E
:105940002193D70111966C9211977F010894E11C65
:10595000F11C04C0F0ECEF2EF6E0FF2EA980BA8017
:10596000E0ECF6E0AE0EBF1EAE18BF082114310405
:1059700091F403C0842D0E944B290894A108B1081A
:1059800095012F5F3F4F12161306A4F304C0D701F1
:105990008C910E944B290894E108F108B0ECEB16B9
:1059A000B6E0FB06A0F72114310409F461C006C07B
:1059B00080E20E944B290894A108B1081A141B0424
:1059C000BCF356C0E2E0EE2EF12CEC0CFD1CF6010F
:1059D00080810E944B2967014BC0F60122E030E034
:1059E000C20ED31EE080F180E114F10421F470E0D6
:1059F000E72E71E0F72EF70101900020E9F73197CB
:105A0000EE19FF09A980BA80AE1ABF0A2114310429
:105A100069F403C0842D0E944B290894A108B108A1
:105A200095012F5F3F4F12161306A4F32701EE24B2
:105A3000FF2405C00E944B290894E11CF11CD201EF
:105A40008D912D01882319F0E814F9049CF3211499
:105A5000310471F006C080E20E944B290894A1082D
:105A6000B1081A141B04BCF303C085E20E944B2941
:105A70000F5F1F4F772031F0F8018491882309F0E0
:105A800090CD05C0D8018C91882309F088CD80E0A5
:105A900090E00F900F90CF91DF911F910F91FF90A9
:105AA000EF90DF90CF90BF90AF909F908F907F90BE
:105AB0006F905F904F903F902F900895FB01DD9A7B
:105AC000DE9ADF9A20916500246020936500AF9AEA
:105AD00020813181281739070CF4DF982281338126
