:100000000C94FD1A0C941C1B0C941C1B0C941C1BB4
:100010000C941C1B0C941C1B0C941C1B0C940A228F
:100020000C941C1B0C941C1B0C94F9210C941C1B91
:100030000C941C1B0C941C1B0C94481B0C941C1B38
:100040000C94F71B0C941C1B0C941C1B0C941C1B79
:100050000C941C1B0C94B2200C941C1B0C941C1BA9
:100060000C941C1B0C941C1B0C941C1B0C941C1B34
:100070000C941C1B0C941C1B0C94E01C0C941C1B5F
:100080000C942A1D0C941C1B0C941C1B1D2B202B48
:10009000322B3C2B442B4C2B512B5D2B642B742B84
:1000A000AF2B2D2B0E2C9B2B582B882B772B6B2BB0
:1000B000BC2B7930C82F983166336633C430D130C9
:1000C000303062302433633271328632EE2F923018
:1000D000B8312B3349334230BF302033EE328B32CC
:1000E000713262356235FC36893789373737B13638
:1000F0006235E9358F37C136BE3637373E378E36F3
:10010000BE3637378F37CB3537373737BE36BE3603
:10011000BE363031323334353637383941424344D4
:10012000454600207A3D25640D0A002C20793D25A6
:10013000642C0056616C75657320783D2025640041
:100140002564206C696E65732073746F7265640D2D
:100150000A002564206C696E6573206C6F616465AC
:10016000640D0A00456C61707365642054696D65A7
:100170002025646D730D0A002564206C696E65731B
:1001800020696E206D656D6F72790D0A00256420FF
:10019000736572766F7320636F6E6E6563746564EA
:1001A0000D0A000D0A0025640025630023200025A8
:1001B00064203D2000504F52543A25633A25630095
:1001C0002563203D200020002564200025782000A4
:1001D0002578200025782000257820002C25640033
:1001E0002564002564005573657220427265616B59
:1001F000206F6E206C696E652025640D0A005452D4
:10020000414345203A3A202564202D200052756E46
:1002100074696D65206572726F722025640D0A0025
:100220003F207370656369616C20256420697320C9
:1002300072656164206F6E6C790D0A006576616C81
:10024000206572726F722025642C2025640D0A00CF
:1002500070616E6963206572726F720D0A000D0A1B
:100260002564206C696E657320656E7465726564C3
:100270002C205B25642F25645D2042797465730D05
:100280000A0050616E69632025640D0A00506F7387
:100290003D2564205B25635D0D0A0050726F677217
:1002A000616D20656E747279206D6F646520282EF3
:1002B00020746F2065786974290D0A000D0A004DBD
:1002C0006F74696F6E2072616E67653A202030200E
:1002D0002D2031380D0A00506C6179204D6F746902
:1002E0006F6E2025640D0A007DC9A3436C7D3059D3
:1002F000B88E59277CA2D37F7DB3C7586C7E483116
:10030000A38D332F31C7CDCD0404040404040404A9
:1003100004040404040404040202020202020202AD
:1003200002020000000000000101010101010101C1
:1003300001010101010101010202020202020202A5
:10034000020202020202020204040404040404047D
:100350000404040404040404010101010100000078
:100360000000010101000000010101010100000085
:10037000000001010100000003030303030000006B
:100380000000030303000000030303030300000055
:100390000000030303000000000000000000000054
:1003A000000000000000000028282828282828280D
:1003B00028281414141414143C3C3C3C3C3C3C3C95
:1003C0003C3C1E1E1E1E1E1E000000000000000001
:1003D000000000000000000001000800010005000E
:1003E0000F0046003601A401C8002C017DB3C75898
:1003F0006C7E4831A38D332F31C7CDCD7DB3C75827
:100400006C7E4831A38D332F31C7CDCD6BA4E96A03
:100410005F6C501D9B81383E28A6CED06BA4E96A44
:100420005F914A28A39A757C72A6CED07EA4DE6422
:100430006B7D501D9B8E4F2C28A6CED07DB3C75808
:100440006C7E4831A38D332F31C7CDCD0404040415
:100450000404040404040404040404040202020264
:10046000020202020202000000000000010101017C
:100470000101010101010101010101010202020268
:100480000202020202020202020202020404040444
:10049000040404040404040404040404000000002C
:1004A0000001010101010000000101010000000044
:1004B000000202020202000000020202000000002C
:1004C0000003030303020000000303030000000015
:1004D0000003030303030000000303030000000004
:1004E000000000000000000000000000282828286C
:1004F0002828282828281414141414143C3C3C3CA4
:100500003C3C3C3C3C3C1E1E1E1E1E1E00000000CF
:1005100000000000000000000000000001000800D2
:10052000010005000F0046003601A401C8002C019F
:100530007DB3C7586C7E4831A38D332F31C7CDCDE5
:100540007DB3C7586C7E4831A38D332F31C7CDCDD5
:100550008BA3E664788E570E969F4F2C28B7BCD09D
:100560006CA4E0616A97501C99A74F2C2891708366
:100570007EA4DE646B7D501D9B8E4F2C28A6CED0B2
:100580007DB3C7586C7E4831A38D332F31C7CDCD95
:10059000040404040404040404040404040404041B
:1005A000040404040404040404040404040404040B
:1005B0000202020202020202020200000000000027
:1005C000020202020200000000000303030303030F
:1005D0000000000000000000000004040404040304
:1005E00004040404040404040404040404040404CB
:1005F00000000000000000000000000000000000FB
:1006000001010101010000000000010101000000E2
:1006100000000000000000000000000000000000DA
:1006200001010101010000000000010101000000C2
:1006300000000000000000000000000000000000BA
:1006400000000000000000000000000000000000AA
:100650002828282828282828282814141414141492
:100660003C3C3C3C3C3C3C3C3C3C1E1E1E1E1E1E7E
:10067000000000000000000000000000000000007A
:10068000010005000800030001000F00460096006D
:100690003601FA0078002C017DB3C7586C7E4831D2
:1006A000A38D332F31C7CDCD7DB3C7586C7E483174
:1006B000A38D332F31C7CDCD7EA7DE626E7D541D55
:1006C0009B8E4F2C28A6CED06BA4E9665F6C501D84
:1006D0009B81383E28A6CED06BA4E9695F914A2859
:1006E0009D9A383E28A6CED07EA4DE5F6B7D541D39
:1006F0009B8E4F2C28A6CED07DB3C7586C7E483138
:10070000A38D332F31C7CDCD0404040404040404A5
:100710000404040404040404040404040404040499
:100720000404040404040404020202020202020299
:100730000202040404040404000000000002020297
:100740000202040404040404000000000002020287
:10075000020204040404040404040404040404045D
:100760000404040404040404000000000000000069
:100770000000000000000000000000000001010176
:100780000101000000010101000000000000000064
:100790000000000000000000000000000001010156
:1007A0000101000000010101000000000000000044
:1007B0000000000000000000000000000000000039
:1007C00000000000000000002828282828282828E9
:1007D00028281414141414143C3C3C3C3C3C3C3C71
:1007E0003C3C1E1E1E1E1E1E0000000000000000DD
:1007F00000000000000000000100050008000300E8
:1008000001000F00460096003601C80078002C0158
:100810007DB3C7586C7E4831A38D332F31C7CDCD02
:100820007DB3C7586C7E4831A38D332F31C7CDCDF2
:100830007EA7DE626E7D541D9B8E4F2C28A6CED0E7
:100840008BA3E664788E570E969F4F2C28B7BCD0AA
:100850006CA4E0616A97501C99A74F2C28B7BCD0B4
:100860007EA6DE62717D541D9B8E4F2C28A6CED0B5
:100870007DB3C7586C7E4831A38D332F31C7CDCDA2
:100880000404040404040404040404040404040428
:100890000101010101010101010104040404040436
:1008A0000101010101010101010104040404040426
:1008B000020202020202020202020404040404040C
:1008C0000101010101010101010104040404040406
:1008D00003030303030303030303040404040404E2
:1008E0000101010101000000000001010100000000
:1008F00001010101010000000000010101000000F0
:1009000000000000000000000000000000000000E7
:1009100000000000000000000000000000000000D7
:1009200000000000000000000000000000000000C7
:1009300000000000000000000000000000000000B7
:100940001414141414141414141414141414141467
:100950001E1E1E1E1E1E1E1E1E1E1E1E1E1E1E1EB7
:100960000000000000000000000000000000000087
:100970000A0005000A00010005000A00C800C800BE
:1009800090017800C80090017DB3C7586C7E483153
:10099000A38D332F31C7CDCD7DB3C7586C7E483181
:1009A000A38D332F31C7CDCD7DA2C7486C7E3B319F
:1009B000978D332F31C7CDCD88A9D25D798B243D5A
:1009C000909D332F31C7CDCD7DADD25D7B8B500E49
:1009D000899D332F31C7CDCD86ADD25D7B8B501F26
:1009E0009D9D332F31C7CDCD7DB3C7586C7E483127
:1009F000A38D332F31C7CDCD0404040404040404B3
:100A000004040404040404040101010101010101BE
:100A100001010404040404040101010101010101B4
:100A2000010104040404040402020202020202029C
:100A3000020204040404040402020202020202028A
:100A40000202040404040404030303030303030372
:100A5000030303030303030300000000000101017B
:100A6000010100000001010100000000000101017E
:100A70000101000000010100000000000000000072
:100A80000000000000000000000000000000000066
:100A90000000000000000000000000000000000056
:100AA0000000000000000000000000000000000046
:100AB0000000000000000000141414141414141496
:100AC00014141414141414141E1E1E1E1E1E1E1E96
:100AD0001E1E1E1E1E1E1E1E000000000000000026
:100AE00000000000000000000A0005000A000100EC
:100AF00005000A00C800C80090017800C8009001F5
:100B00007DB3C7586C7E4831A38D332F31C7CDCD0F
:100B10007DB3C7586C7E4831A38D332F31C7CDCDFF
:100B20007DC1CD6B6C7E5931B48D332F31C7CDCDA6
:100B300077D1C36A6077511F9D84332F31C7CDCDE4
:100B400075A2E362677D4E31A37F332F31C7CDCDD0
:100B50006EA8CC555C755131A380332F31C7CDCDF4
:100B60007DB3C7586C7E4831A38D332F31C7CDCDAF
:100B70000404040404040404040404040404040435
:100B80000404040404040404040404040404040425
:100B90000303030303030303030303030303030325
:100BA000000000000000000000000404040404042D
:100BB0000303030303030303030303030303030305
:100BC00002020202020202020202040404040404F9
:100BD00002020202020202020202040404040404E9
:100BE00002020202020202020202040404040404D9
:100BF00002020202020202020202040404040404C9
:100C000003030303030303030303030303030303B4
:100C100000000000000000000000000000000000D4
:100C20000303030303030303030303030303030394
:100C300000000000000000000000000000000000B4
:100C40000202020202020202020202020202020284
:100C50000000000000000000000000000000000094
:100C60000101010101010101010101010101010174
:100C70000000000000000000000000000000000074
:100C80000303030303030303030303030303030334
:100C90000000000000000000000000000000000054
:100CA0000000000000000000000000000000000044
:100CB000282828282828282828281E1E1E1E1E1EF0
:100CC0003C3C3C3C3C3C3C3C3C3C323232323232A0
:100CD0000000000000000000000000000000000014
:100CE0000F001E002D002D002D001E001E001E00F6
:100CF0001E001E002C015802840384038403580242
:100D000058025802580258027DB3C7586C7E4831C9
:100D1000A38D332F31C7CDCD7DB3C7586C7E4831FD
:100D2000A38D332F31C7CDCD7CDCF77D6C7E1D04C8
:100D30007F8C332F31C7CDCD7BDCF656707E1D07FF
:100D4000A98B013B4AFDBFB58253903F6C7DAA67DA
:100D5000BF8B013BA3FDBF588253903F6C7DAA67B8
:100D6000BF8BEA7D5A0581A6815EB7646E80A26E54
:100D7000BA88A02D515ACDA78157BF3C6E80A23BA7
:100D8000C1888A2E5974CBA78181BE416E80783B81
:100D9000BB8C852D5174CBA781A1C5476E80593579
:100DA000B58F8F245974CBA77DB3C7586C7E48315B
:100DB000A38D332F31C7CDCD0404040404040404EF
:100DC00004040404040404040101010101010101FB
:100DD00001010404040404040404040404040404D9
:100DE00004040404040404040101010101010101DB
:100DF00001010101010101010101010101010101E3
:100E000001010101010101010202020202020202CA
:100E100002020202020202020202020202020202B2
:100E200002020202020202020202020202020202A2
:100E30000202020202020202040404040404040482
:100E40000404040404040404000000000000000082
:100E5000000000000000000003030303030303037A
:100E6000030303030303030300000000000000006A
:100E70000000000000000000020202020202020262
:100E80000202020202020202000000000000000052
:100E9000000000000000000001010101010101014A
:100EA000010101010101010100000000000000003A
:100EB000000000000000000003030303030303031A
:100EC000030303030303030300000000000000000A
:100ED00000000000000000002828282828282828D2
:100EE00028281414141414143C3C3C3C3C3C3C3C5A
:100EF0003C3C1E1E1E1E1E1E0000000000000000C6
:100F000000000000000000000A000A000A000A00B9
:100F1000010023001E0028001E002C01F401F40132
:100F2000BC023403BC025802200358027DB3C758E8
:100F30006C7E4831A38D332F31C7CDCD7DB3C758DB
:100F40006C7E4831A38D332F31C7CDCD7D52D6591C
:100F50006C7E4831A38D8F2F3172CDCD7D52DA65F5
:100F6000727DA622978F8D2F3172CDCD7DD2E45028
:100F7000717C2319AC8EA72F2F52CDCC7DDAF7567A
:100F8000717B1F05A88D095792FEA26C7DDCF47A57
:100F90006D7B1D05808D212A92DED26C7DDCDE7A90
:100FA000717B1D1C878D62324E92C5A97DA0F272A5
:100FB000717B5708878D522F45ADCDBF7DB3C75884
:100FC0006C7E4831A38D332F31C7CDCD030303038E
:100FD00003030303030303030303030303030303E1
:100FE00003030303030303030303030303030303D1
:100FF00003030303030303030303030302020202C5
:1010000002020202020202020202020201010101C4
:1010100001010101010101010101010100000000C4
:1010200000000000000000000000000000000000C0
:1010300000000000000000000000000001010101AC
:10104000010101010101010101010101020202028C
:10105000020202020202020202020202030303036C
:101060000303030303030303030303030303030350
:101070000303030303030303030303030303030340
:101080000303030303030303030303030202020234
:101090000202020202020202020202020101010134
:1010A0000101010101010101010101010000000034
:1010B0000000000000000000000000000000000030
:1010C000000000000000000000000000010101011C
:1010D00001010101010101010101010102020202FC
:1010E00002020202020202020202020203030303DC
:1010F00003030303030303030303030303030303C0
:1011000003030303030303030303030302020202B3
:1011100002020202020202020202020201010101B3
:1011200001010101010101010101010100000000B3
:1011300000000000000000000000000000000000AF
:10114000000000000000000000000000010101019B
:10115000010101010101010101010101020202027B
:10116000020202020202020202020202030303035B
:10117000030303030303030303030303030303033F
:10118000030303030303030303030303030303032F
:101190000303030303030303030303030202020223
:1011A0000202020202020202020202020101010123
:1011B0000101010101010101010101010000000023
:1011C000000000000000000000000000000000001F
:1011D000000000000000000000000000010101010B
:1011E00001010101010101010101010102020202EB
:1011F00002020202020202020202020203030303CB
:1012000003030303030303030303030303030303AE
:1012100003030303030303030303030302020202A2
:1012200002020202020202020202020201010101A2
:101230000101010101010101010101010404040492
:10124000040404040404040404040404000000006E
:101250000000000000000000000000000303030382
:10126000030303030303030303030303030303034E
:101270000303030303030303030303030202020242
:101280000202020202020202020202020101010142
:101290000101010101010101010101010000000042
:1012A000000000000000000000000000000000003E
:1012B000000000000000000000000000010101012A
:1012C000010101010101010101010101020202020A
:1012D00002020202020202020202020203030303EA
:1012E00003030303030303030303030303030303CE
:1012F00003030303030303030303030303030303BE
:1013000003030303030303030303030302020202B1
:1013100002020202020202020202020201010101B1
:1013200001010101010101010101010100000000B1
:1013300000000000000000000000000000000000AD
:101340000000000000000000000000000101010199
:101350000101010101010101010101010202020279
:101360000202020202020202020202020303030359
:10137000030303030303030303030303030303033D
:101380000303030303030303030303030202020231
:101390000202020202020202020202020101010131
:1013A0000101010101010101010101010000000031
:1013B000000000000000000000000000000000002D
:1013C0000000000000000000000000000101010119
:1013D00001010101010101010101010102020202F9
:1013E00002020202020202020202020203030303D9
:1013F00003030303030303030303030303030303BD
:1014000003030303030303030303030303030303AC
:1014100003030303030303030303030302020202A0
:1014200002020202020202020202020201010101A0
:1014300001010101010101010101010100000000A0
:10144000000000000000000000000000000000009C
:101450000000000000000000000000000101010188
:101460000101010101010101010101010202020268
:101470000202020202020202020202020303030348
:10148000030303030303030303030303030303032C
:101490000303030303030303030303030202020220
:1014A0000202020202020202020202020101010120
:1014B0000101010101010101010101010000000020
:1014C0000000000000000000000000002929292978
:1014D0002929292929291414141414143D3D3D3DAA
:1014E0003D3D3D3D3D3D1E1E1E1E1E1E00000000DA
:1014F00000000000000000000000000005000100E6
:1015000001000100010001000100010001000100D3
:1015100001000100010001000100010001000100C3
:1015200001000100010001000100010001000100B3
:1015300001000100010001000100010001000100A3
:1015400001000100010001000A000F00C80019009D
:1015500019001900190019001900190019001900C3
:1015600019001900190019001900190019001900B3
:1015700019001900190019001900190019001900A3
:101580001900190019001900190019001900190093
:101590001900190019001900C8002C017DB3C758A3
:1015A0006C7E4831A38D332F31C7CDCD7DB3C75865
:1015B0006C7E4831A38D332F31C7CDCD7DB3C75855
:1015C0006C7E4831A38D332F31C7CDCD82A5C95153
:1015D0007386511F9395482C2891D1C984ABC5536C
:1015E0007589561C94984E2B299AD1CE84AFC35737
:1015F000758B5B1B989A572B2BA4D1D384B2C55BF8
:1016000075895F1C9D98612B30ACD1D582B3C95FC1
:101610007386601FA195692B35B3D2D67FB2CE6297
:1016200070825F23A6916F2A39B6D2D67CAFD4647C
:101630006D7F5C28AA8E712A3BB7D2D67CAFD4646A
:101640006D7F5C28AA8E712A3BB7D2D678ACD9665A
:10165000697B582EAA8A6F2A39B6D2D674A7DD675D
:1016600065785333A9876A2B35B3D2D671A2E06669
:1016700062764D37A785612B30ADD1D56F9DE16284
:1016800060764939A385572B2BA4D1D37199E05D9E
:10169000627646379F854F2B299AD1CE7498DD59B3
:1016A000657845339B87482C2892D1C97899D954BD
:1016B000697B462E988A452C288CD0C57B9CD450BB
:1016C0006C7E4928968D442C288AD0C37B9CD450AC
:1016D0006C7E4928968D442C288AD0C382A5C95196
:1016E0007386511F9395482C2891D1C984ABC5535B
:1016F0007589561C94984E2B299AD1CE84AFC35726
:10170000758B5B1B989A572B2BA4D1D384B2C55BE6
:1017100075895F1C9D98612B30ACD1D582B3C95FB0
:101720007386601FA195692B35B3D2D67FB2CE6286
:1017300070825F23A6916F2A39B6D2D67CAFD4646B
:101740006D7F5C28AA8E712A3BB7D2D67CAFD46459
:101750006D7F5C28AA8E712A3BB7D2D678ACD96649
:10176000697B582EAA8A6F2A39B6D2D674A7DD674C
:1017700065785333A9876A2B35B3D2D671A2E06658
:1017800062764D37A785612B30ADD1D56F9DE16273
:1017900060764939A385572B2BA4D1D37199E05D8D
:1017A000627646379F854F2B299AD1CE7498DD59A2
:1017B000657845339B87482C2892D1C97899D954AC
:1017C000697B462E988A452C288CD0C57B9CD450AA
:1017D0006C7E4928968D442C288AD0C37B9CD4509B
:1017E0006C7E4928968D442C288AD0C382A5C95185
:1017F0007386511F9395482C2891D1C984ABC5534A
:101800007589561C94984E2B299AD1CE7DA6E56AEF
:101810006C7E5617968D332F31C7CDCD7DB3C7580B
:101820006C7E4831A38D332F31C7CDCD0404040421
:10183000040404040404040404040404030303036C
:10184000030303030303030303030303020202026C
:101850000202020202020202020202020303030364
:10186000030303030303030303030303020202024C
:10187000020202020202020202020202010101014C
:10188000010101010101010101010101000000004C
:101890000000000000000000000000000000000048
:1018A0000000000000000000000000000101010134
:1018B0000101010101010101010101010202020214
:1018C00002020202020202020202020203030303F4
:1018D00003030303030303030303030303030303D8
:1018E00003030303030303030303030303030303C8
:1018F00003030303030303030303030302020202BC
:1019000002020202020202020202020201010101BB
:1019100001010101010101010101010100000000BB
:1019200000000000000000000000000000000000B7
:1019300000000000000000000000000001010101A3
:101940000101010101010101010101010202020283
:101950000202020202020202020202020303030363
:101960000303030303030303030303030303030347
:10197000030303030303030303030303020202023B
:10198000020202020202020202020202010101013B
:10199000010101010101010101010101000000003B
:1019A0000000000000000000000000000000000037
:1019B0000000000000000000000000000101010123
:1019C0000101010101010101010101010202020203
:1019D00002020202020202020202020203030303E3
:1019E00003030303030303030303030303030303C7
:1019F00003030303030303030303030303030303B7
:101A000003030303030303030303030302020202AA
:101A100002020202020202020202020201010101AA
:101A200001010101010101010101010100000000AA
:101A300000000000000000000000000000000000A6
:101A40000000000000000000000000000101010192
:101A50000101010101010101010101010202020272
:101A60000202020202020202020202020303030352
:101A70000303030303030303030303030303030336
:101A8000030303030303030303030303020202022A
:101A9000020202020202020202020202010101012A
:101AA0000101010101010101010101010202020222
:101AB00002020202020202020202020204040404FE
:101AC00004040404040404040404040400000000E6
:101AD0000000000000000000000000000000000006
:101AE00000000000000000000000000000000000F6
:101AF00000000000000000000000000003030303DA
:101B000003030303030303030303030302020202A9
:101B100002020202020202020202020201010101A9
:101B200001010101010101010101010100000000A9
:101B300000000000000000000000000000000000A5
:101B40000000000000000000000000000101010191
:101B50000101010101010101010101010202020271
:101B60000202020202020202020202020303030351
:101B70000303030303030303030303030303030335
:101B80000303030303030303030303030303030325
:101B90000303030303030303030303030202020219
:101BA0000202020202020202020202020101010119
:101BB0000101010101010101010101010000000019
:101BC0000000000000000000000000000000000015
:101BD0000000000000000000000000000101010101
:101BE00001010101010101010101010102020202E1
:101BF00002020202020202020202020203030303C1
:101C000003030303030303030303030303030303A4
:101C10000303030303030303030303030202020298
:101C20000202020202020202020202020101010198
:101C30000101010101010101010101010000000098
:101C40000000000000000000000000000000000094
:101C50000000000000000000000000000101010180
:101C60000101010101010101010101010202020260
:101C70000202020202020202020202020303030340
:101C80000303030303030303030303030303030324
:101C90000303030303030303030303030303030314
:101CA0000303030303030303030303030202020208
:101CB0000202020202020202020202020101010108
:101CC0000101010101010101010101010000000008
:101CD0000000000000000000000000000000000004
:101CE00000000000000000000000000001010101F0
:101CF00001010101010101010101010102020202D0
:101D000002020202020202020202020203030303AF
:101D10000303030303030303030303030303030393
:101D20000303030303030303030303030202020287
:101D30000202020202020202020202020101010187
:101D40000101010101010101010101010000000087
:101D50000000000000000000000000000000000083
:101D600000000000000000000000000029292929CF
:101D70002929292929291414141414143D3D3D3D01
:101D80003D3D3D3D3D3D1E1E1E1E1E1E0000000031
:101D9000000000000000000000000000050014002A
:101DA000010001000100010001000100010001002B
:101DB000010001000100010001000100010001001B
:101DC000010001000100010001000100010001000B
:101DD00001000100010001000100010001000100FB
:101DE0000100010001000100010001000A001400CF
:101DF0002C0190011900190019001900190019008F
:101E0000190019001900190019001900190019000A
:101E100019001900190019001900190019001900FA
:101E200019001900190019001900190019001900EA
:101E300019001900190019001900190019001900DA
:101E4000900190017DB3C7586C7E4831A38D332F2C
:101E500031C7CDCD7DB3C7586C7E4831A38D332FAC
:101E600031C7CDCD7DA0DC6B6C7E581F928D332F9A
:101E700031C7CDCD7899DA58697B482E978A392BAE
:101E800033AED2D67497DF5B657846349B873A2BA6
:101E900030B1D2D67098E25E61774639A0863B2B8E
:101EA0002DB6D2D66F9BE3636076483CA5853F2B69
:101EB00029BCD1D570A0E26661764C3AA785442C46
:101EC00028BFD1D173A5DF6864785234A887492C24
:101ED00028C1D1CE78A9DA68697B582EA78A4D2C03
:101EE00028C2D1CB7BADD4676C7E5C28A58D4E2BF0
:101EF00028C2D1CA7BADD4676C7E5C28A58D4E2BE1
:101F000028C2D1CA7FB0CE6370825F22A2914D2CCD
:101F100028C2D1CB82B2C85F7386611D9F954A2CBF
:101F200028C1D1CE83B2C35A748A601A9C99452CB9
:101F300028C0D1D184B0C055758B5D19979A3F2BBD
:101F400029BCD1D584ACC253758A581A94993C2BBC
:101F50002DB7D2D682A6C8527387531D92963A2BBC
:101F600030B2D2D67FA0CE5370824F229291392BBD
:101F700033AED2D67C9CD4556D7F4B28938E392BB3
:101F800034ADD1D67C9CD4556D7F4B28938E392BA4
:101F900034ADD1D67497DF5B657846349B873A2B96
:101FA00030B1D2D67098E25E61774639A0863B2B7D
:101FB0002DB6D2D66F9BE3636076483CA5853F2B58
:101FC00029BCD1D570A0E26661764C3AA785442C35
:101FD00028BFD1D173A5DF6864785234A887492C13
:101FE00028C1D1CE78A9DA68697B582EA78A4D2CF2
:101FF00028C2D1CB7BADD4676C7E5C28A58D4E2BDF
:1020000028C2D1CA7BADD4676C7E5C28A58D4E2BCF
:1020100028C2D1CA7FB0CE6370825F22A2914D2CBC
:1020200028C2D1CB82B2C85F7386611D9F954A2CAE
:1020300028C1D1CE83B2C35A748A601A9C99452CA8
:1020400028C0D1D184B0C055758B5D19979A3F2BAC
:1020500029BCD1D584ACC253758A581A94993C2BAB
:102060002DB7D2D682A6C8527387531D92963A2BAB
:1020700030B2D2D67FA0CE5370824F229291392BAC
:1020800033AED2D67C9CD4556D7F4B28938E392BA2
:1020900034ADD1D67C9CD4556D7F4B28938E392B93
:1020A00034ADD1D67497DF5B657846349B873A2B85
:1020B00030B1D2D67098E25E61774639A0863B2B6C
:1020C0002DB6D2D66F9BE3636076483CA5853F2B47
:1020D00029BCD1D56F9BE362607659199B853F2B54
:1020E00029BCD1D57DB3C7586C7E4831A38D332F21
:1020F00031C7CDCD1414141414141414141414145E
:10210000141414141E1E1E1E1E1E1E1E1E1E1E1E17
:102110001E1E1E1E00000000000000000000000047
:1021200000000000010001000100010001000100A9
:102130001400140040011400400114007DB3C7587E
:102140006C7E4831A38D332F31C7CDCD7DB3C758B9
:102150006C7E4831A38D332F31C7CDCD73B3C758B3
:102160005F744831A380332F31C7CDCD63DBCE827E
:1021700054724339A17B22556E76C3C96581CB2B3E
:1021800055782451B47E82314CCFC7E46581CB2A87
:1021900055782451B47B82314CCFC7E47DB3C75806
:1021A0006C7E4831A38D332F31C7CDCD02020202A0
:1021B00002020202020202020202020202020202FF
:1021C00002000202020002020202020200000000FB
:1021D00000000000000000000000000000000000FF
:1021E00000000000000000000000000000000000EF
:1021F00000000000000000000000000002020202D7
:1022000002020202020202020202020200000000B6
:1022100000000000000000000000000000000000BE
:1022200000000000000000000000000000000000AE
:10223000000000000000000000000000000000009E
:10224000000000000000000000000000000000008E
:10225000000000000000000000000000000000007E
:10226000000000000000000000000000141414141E
:102270001414141414141414141414141E1E1E1EF6
:102280001E1E1E1E1E1E1E1E1E1E1E1E00000000E6
:10229000000000000000000000000000010001003C
:1022A0000100010001000A001400140040011400A4
:1022B000A401DC007DB3C7586C7E4831A38D332F59
:1022C00031C7CDCD7DB3C7586C7E4831A38D332F38
:1022D00031C7CDCD87B3C75879884831A39A332FFA
:1022E00031C7CDCD89B8BF5A7E98202A78A58439C8
:1022F00035D8A79083C4B64F7A967A2DD0A42B35C3
:102300005078CBB283C4B64F80967A2DD0A42B35AB
:102310005078CBB27DB3C7586C7E4831A38D332F34
:1023200031C7CDCD02020202020202020202020203
:10233000020202020202020202020202020202027D
:102340000202020200020202000202020202020271
:102350000202020200000000000000000000000075
:10236000000000000000000000000000000000006D
:102370000000000002020202020202020202020245
:102380000202020200000000000000000000000045
:10239000000000000000000000000000000000003D
:1023A000000000000000000000000000000000002D
:1023B000000000000000000000000000000000001D
:1023C000000000000000000000000000000000000D
:1023D00000000000000000000000000000000000FD
:1023E0000000000028282828282828282828141435
:1023F000141414143C3C3C3C3C3C3C3C3C3C1E1EF9
:102400001E1E1E1E00000000000000000000000054
:102410000000000005000100010003006400DC0072
:1024200064003C007DA8C7556C7E532FA78F332FC7
:1024300031C7CDCD6B92E9635F6C641B9F83383EDF
:1024400028A6CED06B96E9665F8F5726A18C383EC2
:1024500028A6CED07E96DE5C6B7D621B9F904F2CB3
:1024600028A6CED07DA5C7556C7E552FA78F332FBC
:1024700031C7CDCD020202020202020202020202B2
:102480000202020202020202020000000000030334
:102490000303030300000000000000000000040428
:1024A00004040403040404040404040404040404ED
:1024B000040404040000000000000000000000000C
:1024C0000000000001010101010000000000010105
:1024D00001000000000000000000000000000000FB
:1024E00000000000000000000000000000000000EC
:1024F0000000000028282828282828282828141424
:10250000141414143C3C3C3C3C3C3C3C3C3C1E1EE7
:102510001E1E1E1E00000000000000000000000043
:102520000000000005000100010003006400DC0061
:1025300064003C007DA5C7556C7E572FA78F332FB5
:1025400031C7CDCD8B96E661788E65109A9C4F2C65
:1025500028B7BCD0649AE0616B8E64139AA14F2CAB
:1025600028B7BCD0799ADE5F5D7D5E209C904F2CB1
:1025700028A6CED07DA7C7556C7E542FA78F332FAA
:1025800031C7CDCD020202020202020202020202A1
:102590000202020200000000000202020202040421
:1025A0000404040400000000000202020202040409
:1025B00004040404040404040404040404040404DB
:1025C00004040404000000000000000000000000FB
:1025D00000000000000000000001010101010000F6
:1025E00000010101000000000000000000000000E8
:1025F00000000000000000000000000000000000DB
:1026000000000000141414141414141414141414DA
:10261000141414141E1E1E1E1E1E1E1E1E1E1E1E02
:102620001E1E1E1E00000000000000000000000032
:10263000000000000100010001000A000A0014006F
:10264000080240012C0108027DB3C7586C7E483156
:10265000A38D332F31C7CDCD7DB3C7586C7E4831A4
:10266000A38D332F31C7CDCD7D5ECD596C7A993393
:10267000A88C0A6769F1928F77DFF9726B7C1D0273
:102680008E8F0B3169E9CA8B7DB9F9826C7C43016D
:102690007C912D4145C9BDAF7DB3C7586C7E483193
:1026A000A38D332F31C7CDCD0202020202020202F6
:1026B00002020202020202020202020202020202FA
:1026C00002020202020202020000000000000000FA
:1026D00000000000000000000000000000000000FA
:1026E00000000000000000000202020202020202DA
:1026F00002020202020202020000000000000000CA
:1027000000000000000000000000000000000000C9
:1027100000000000000000000000000000000000B9
:1027200000000000000000000000000000000000A9
:102730000000000000000000000000000000000099
:1027400000000000000000001414141414141414E9
:1027500014141414141414141E1E1E1E1E1E1E1EE9
:102760001E1E1E1E1E1E1E1E000000000000000079
:102770000000000000000000010001000100010055
:102780001E001400DC00A4015E0158027DB3C7588E
:102790006C7E4831A38D332F31C7CDCD7DB3C75863
:1027A0006C7E4831A38D332F31C7CDCD7AB3C85756
:1027B0006C7A4630A38D14832AEE6FC97A85C86E71
:1027C0006780762F8D8D16C86CE82F857459ED5172
:1027D0006884A010AD9201D277FE27797DB3C758E7
:1027E0006C7E4831A38D332F31C7CDCD020202025A
:1027F00002020202020202020202020200000000C1
:1028000000000000000000000000000000000000C8
:1028100000000000000000000000000000000000B8
:1028200000000000000000000000000002020202A0
:102830000202020202020202020202020000000080
:102840000000000000000000000000000000000088
:102850000000000000000000000000000000000078
:102860000000000000000000000000000000000068
:102870000000000000000000000000000000000058
:1028800000000000000000000000000014141414F8
:102890001414141414141414141414141E1E1E1ED0
:1028A0001E1E1E1E1E1E1E1E1E1E1E1E00000000C0
:1028B0000000000000000000000000000A002800E6
:1028C0000A002800F401E803D007E8037DB3C758E5
:1028D0006C7E4831A38D332F31C7CDCD7DB3C75822
:1028E0006C7E4831A38D332F31C7CDCD7D93F76AF0
:1028F0006C7E6604918D332F31C7CDCD7D93F76A01
:102900006C7E6604918D332F31C7CDCD7DB3C75812
:102910006C7E4831A38D332F31C7CDCD0202020228
:102920000202020202020202020202020202020287
:10293000020202020202020202020202000000007F
:102940000000000000000000000000000404040477
:102950000404040404040404040404040000000047
:102960000000000000000000000000000101010163
:10297000010101010101010101010101030303033F
:102980000303030303030303030303030000000023
:1029900000000000000000000000000014141414E7
:1029A0001414141414141414141414141E1E1E1EBF
:1029B0001E1E1E1E1E1E1E1E1E1E1E1E00000000AF
:1029C0000000000000000000000000000A002800D5
:1029D0000A000A002800F401E803F401F401E80306
:1029E0007DB3C7586C7E4831A38D332F31C7CDCD11
:1029F0007DB3C7586C7E4831A38D332F31C7CDCD01
:102A00007DB3C7586C7E4831A38DBB3A2EC7CDCD60
:102A10007DB3C7586C7E4831A38DBA672EC7CDCD24
:102A20007DB3C7586C7E4831A38DBB3A2EC7CDCD40
:102A30007DB3C7586C7E4831A38D332F31C7CDCDC0
:102A40000202020202020202020202020202020266
:102A50000202020202020202020202020202020256
:102A60000202020202020202020202020202020246
:102A70000202020202020202020202020202020236
:102A80000404040404040404040404040404040406
:102A90000000000000000000000000000000000036
:102AA0000000000000000000000000000000000026
:102AB0000000000000000000000000000000000016
:102AC0000000000000000000000000000000000006
:102AD00000000000000000000000000000000000F6
:102AE00014141414141414141414141414141414A6
:102AF0001E1E1E1E1E1E1E1E1E1E1E1E1E1E1E1EF6
:102B000000000000000000000000000000000000C5
:102B100028000A0014001400010001000A000A0045
:102B20001900140014001E008403C80090019001D5
:102B30007800080290019001F40190019001580280
:102B40007DB3C7586C7E4831A38D332F31C7CDCDAF
:102B50007DB3C7586C7E4831A38D332F31C7CDCD9F
:102B60007DB0F7796C7E4702828D332F31C7CDCD92
:102B700081B4EC6A4B8B4702827403324DEF9DA007
:102B800033B4EC6A5F8B4702827401324AE89EA03C
:102B90003398ED2D5F8B47028274023231E898A0A2
:102BA0003385952D5F8B47028274023233E88FA004
:102BB000338EEA305F8B47028274023231E89AA08A
:102BC0007BC2D256528B47028274023231E895A002
:102BD00084CADC695B903F047D8A443431E8AAA052
:102BE0007BAEF8766A814C04878F343231DBC2D5F4
:102BF0007B9BF8766A815F04878F343231DBC2D5E4
:102C00007DB3C7586C7E4831A38D332F31C7CDCDEE
:102C10000404040404040404040404040404040474
:102C20000404040404040404040404040404040464
:102C30000404040404040404040404040404040454
:102C40000404040404040404040404040404040444
:102C50000000000000040404040404040404040448
:102C60000000000000040404040404040404040438
:102C70000000000000040404040404040404040428
:102C80000404040304040404040404040404040405
:102C900004040403040404040404040404040404F5
:102CA00004040403040404040404040404040404E5
:102CB00004040403040404040404040404040404D5
:102CC00004040404040404040404040404040404C4
:102CD00000000000000000000000000000000000F4
:102CE00002020202020000000000000000000000DA
:102CF00000000000000000000000000000000000D4
:102D000002020202020000000000000000000000B9
:102D100003030303030000000000000000000000A4
:102D20000303030303000000000000000000000094
:102D30000202020202000000000000000000000089
:102D40000202020202000000000000000000000079
:102D50000000000000000000000000000000000073
:102D60000000000000000000000000000000000063
:102D70000000000000000000000000000000000053
:102D80000000000000000000000000000000000043
:102D9000282828282828282828281414141414142B
:102DA0003C3C3C3C3C3C3C3C3C3C1E1E1E1E1E1E17
:102DB0000000000000000000000000000000000013
:102DC0001400140014001400140014001400010076
:102DD00001000A0028000F000F0005003200320039
:102DE000320001002D002D000A000A000A000A002E
:102DF0002D000A000A000A000A002D0050001E00E3
:102E00000F000F000F000F000F000F000F000F004A
:102E100084038403840384038403840384030802F7
:102E20000802F4014006580258023408FC03FC036F
:102E3000FC03E40784038403F401F401F401F401C6
:102E40008403F401F401F401F40184034006400614
:102E500058025802580258025802580258025802A2
:102E60007DB3C7586C7E4831A38D332F31C7CDCD8C
:102E70007DB3C7586C7E4831A38D332F31C7CDCD7C
:102E80007CB5F77C6C7E47047F8D332F31C7CDCD69
:102E90007C77F77C6C7E83047F8D87304C6CCDA76C
:102EA0007C4EF77C6C7EB9047F8D8730046CCDEF4F
:102EB00079DDFA686C7E9F429B8DBE300436CDEF83
:102EC00079DDFA686C7E9F5AC68DCE390835B6F426
:102ED00079DDFA686C7E9F42B98DBE30040F5E8D3D
:102EE00079DDFA686C7E9F42B98DBE3004AE7D8D6F
:102EF00079DDFA686C7E9F42B98DBE3004B472E30E
:102F000079DDFA686C7E9F6CCA8DCD3004AB32CA15
:102F1000369FFA686C7E1C0E9C8DCD3004AB32CA95
:102F20007E9FFA686C811C0E9C8DCD2B049728E641
:102F30007EC6C66D6C81373E9C8DCD2B049728E6EE
:102F400058D9817E6CA71C717F8DCD2B049728E604
:102F500035D9897E6CC41C717F8DCD2B049728E6F2
:102F600016D98A7E6CEA1C717F8DCD2B049728E6DA
:102F700058D9867E6CA71C717F8DCD2B049728E6CF
:102F800058D9867E6CA71C717F8DCD2B049728E6BF
:102F90007CC2F76D6B8138049390CD2B049728E6A3
:102FA0007CCBD96D6B812F239390CD2B049728E692
:102FB0007CB0B2616B811D149390CF2B048F28E6F7
:102FC0007CBDCB616B8116319390CD2B049728E6A5
:102FD0007CD8C9626B813C2A9F90CD2B049728E650
:102FE0007CE4D2686B81533AB390CD2B049728E6EA
:102FF0007CCBD96D6B812F239390CD2B049728E642
:103000007CB0B2616B811D149390CF2B048F28E6A6
:103010007CBDCB616B8116319390CD2B049728E654
:103020007CD8C9626B813C2A9F90CD2B049728E6FF
:103030007CE4D2686B81533AB390CD2B049728E699
:103040007CCBD96D6B812F239390CD2B049728E6F1
:1030500081BFF76D6B829A798390CD2B049728E618
:10306000815E813A6E80A271C488CD4E049779E664
:10307000815E8A3B6E809978C488CD4E04C2848D6F
:10308000815C81396E80A279C488CD4E0440848DE4
:10309000815A84386E80A279C488D0242E34D0DE40
:1030A000815EB7646E80A26EBA88A72D575ACAA7F0
:1030B0008157C5476E80A239BA8F822D5374CBA732
:1030C000817DC5476E80783BB88F8F245974CBA71C
:1030D0007BA6DF5E6A7D5123A28D8F245974CBA716
:1030E0007DB3C7586C7E4831A38D332F31C7CDCD0A
:1030F0000404040404040404040404040404040490
:10310000040404040404040404040404040404047F
:10311000040404040404040404040404040404046F
:10312000040404040404040404040404040404045F
:103130000404040404040404000004040404040457
:103140000404040404040404000004040404040447
:103150000404040404040404000004040404040437
:103160000404040404040404000001010101010139
:103170000404040404040404000001010101010129
:103180000404040404040404000001010101010119
:103190000101010101010101000001010101010121
:1031A0000101010101010101000001010101010111
:1031B00004040404040404040000040404040404D7
:1031C00004040404040404040000010101010101D9
:1031D00000000000000000000000000000000000EF
:1031E00000000000000000000000000000000000DF
:1031F00000000000000000000000000000000000CF
:1032000000000000000000000000000000000000BE
:103210000202020202020202020204040404040482
:103220000202020202020202020204040404040472
:103230000202020202020202020204040404040462
:103240000202020202020202020204040404040452
:103250000202020202020202020204040404040442
:103260000202020202020202020204040404040432
:103270000202020202020202020204040404040422
:103280000202020202020202020204040404040412
:103290000202020202020202020204040404040402
:1032A00002020202020202020202040404040404F2
:1032B00002020202020202020202040404040404E2
:1032C00002020202020202020202040404040404D2
:1032D00002020202020202020202040404040404C2
:1032E00002020202020202020202040404040404B2
:1032F00002020202020202020202040404040404A2
:103300000202020202020202020204040404040491
:103310000202020202020202020204040404040481
:103320000202020202020202020204040404040471
:103330000202020202020202020204040404040461
:103340000202020202020202020204040404040451
:103350000202020202020202020204040404040441
:103360000202020202020202020204040404040431
:10337000000000000000000000000000000000004D
:10338000000000000000000000000000000000003D
:10339000000000000000000000000000000000002D
:1033A000000000000000000000000000000000001D
:1033B000000000000000000000000000000000000D
:1033C00000000000000000000000000000000000FD
:1033D00000000000000000000000000000000000ED
:1033E00000000000000000000000000000000000DD
:1033F00000000000000000000000000000000000CD
:1034000000000000000000000000000000000000BC
:1034100000000000000000000000000000000000AC
:10342000000000000000000000000000000000009C
:10343000000000000000000000000000000000008C
:10344000010101010101010101010101010101016C
:10345000030303030303030303030303030303033C
:10346000010101010101010101010101010101014C
:10347000000000000000000000000000000000004C
:10348000030303030303030303030303030303030C
:10349000000000000000000000000000000000002C
:1034A0000000020000000002000000000000000018
:1034B000000000000000000000000000000000000C
:1034C00000030000030003000003000000000000F0
:1034D00002000000000200000000000000000000E8
:1034E00000000000000000000000000000000000DC
:1034F00000000000000000000000000000000000CC
:1035000000000000000000000000000000000000BB
:1035100000000000000000000000000000000000AB
:10352000000000000000000000000000000000009B
:10353000000000000000000000000000000000008B
:10354000000000000000000000000000000000007B
:10355000000000000000000000000000000000006B
:10356000000000000000000000000000000000005B
:10357000000000000000000000000000000000004B
:10358000000000000000000000000000000000003B
:10359000000000000000000000000000000000002B
:1035A000000000000000000000000000000000001B
:1035B000000000000000000000000000000000000B
:1035C00000000000000000000000000000000000FB
:1035D00000000000000000000000000000000000EB
:1035E00000000000000000000000000000000000DB
:1035F0004255533D25640D0A000011241FBECFEF34
:10360000D0E1DEBFCDBF16E0A0E0B1E0EAEDFBE91E
:1036100000E00BBF02C007900D92A037B107D9F7A9
:1036200019E0A0E7B6E001C01D92AA3EB107E1F79C
:103630000E94D91B0C94EB4D0C9400008091300734
:1036400090913107883C910510F4DA9813C080916D
:10365000300790913107893C910558F080913007EF
:10366000909131078059914020F4DA9ADB9ADC98E6
:103670000895DA9ADB9ADC9A089590932D07809347
:103680002C0780912C0790912D07892BD1F7089555
:103690001F920F920FB60F9211240F900FBE0F9032
:1036A0001F90189593E09BBB8CEF8ABB18BA84E7F8
:1036B00087BB15BA40E844BB92BB11BA80E783B917
:1036C00088E082B910926200109261001092650049
:1036D00084E08093640010BE83BF12BE11BE1FBC85
:1036E00085E08EBD1DBC1CBC17BC16BC1BBC1ABC27
:1036F00019BC18BC109279001092780085BD14BCDA
:1037000013BC10928B0090938A0010928900109243
:103710008800109281001092800010928700109211
:1037200086001092850010928400109283001092FF
:10373000820010926A0030E23ABF80E489BF17BE6F
:1037400010927D001BB828E12AB996E0909395006D
:103750001092900087E089B910929B0020939A0004
:1037600090939D00109298008093990048B910BCE6
:1037700037B916B8109274000895DA9ADB9ADC9A79
:10378000E5E6F0E0808184608083AF9ADD9ADE9A7E
:10379000DF9AC59810926D0710926F07109231074B
:1037A0001092300710922B071092230710922607D1
:1037B00008950E94521B0E94BD1B0E94B81D60E02C
:1037C00072EC81E090E00E94A41C87EC9CE10E94D6
:1037D000821E789487B7816087BF809165008B7F58
:1037E000809365000E9413230E94E337FFCF1F924E
:1037F0000F920FB60F920BB60F9211242F933F9397
:103800004F935F936F937F938F939F93AF93BF93E8
:10381000EF93FF9389E182BF80913A0790913B0734
:10382000019690933B0780933A0780912C079091E3
:103830002D07892B49F080912C0790912D07019736
:1038400090932D0780932C070E941E1B8091F506F4
:10385000882371F0809130079091310783709070C8
:10386000892B31F48FE0809364078CED0E9417213F
:1038700080913007909131070196909331078093A2
:1038800030078091300790913107885E934008F4AB
:1038900043C0109231071092300780912E0790910B
:1038A0002F07892B49F080912E0790912F070197C0
:1038B00090932F0780932E0780912B078F5F809323
:1038C0002B0780912B078C3338F110922B078091B6
:1038D000360790913707892B49F0809136079091F0
:1038E0003707019790933707809336078091230716
:1038F0008F5F80932307809123078C3368F01092A9
:103900002307809126078F5F8093260780912607E3
:10391000883110F010922607FF91EF91BF91AF917F
:103920009F918F917F916F915F914F913F912F91D7
:103930000F900BBE0F900FBE0F901F901895909395
:10394000F1068093F00608959B01AC016B54704E14
:10395000834E9F4FF3E0660F771F881F991FFA95DC
:10396000D1F7E4E0220F331F441F551FEA95D1F72A
:103970000E94584D21503040209399003093980078
:1039800008958DE397E0089586E497E00895982FD1
:1039900080913C078823E1F390939C0010923C07B0
:1039A00008951092420710924107089580914107AF
:1039B00090914207892B11F080E008958FEF0895D0
:1039C0001F920F920FB60F920BB60F9211242F93E6
:1039D0003F934F935F936F937F938F939F93AF9397
:1039E000BF93EF93FF9360919C008091F0069091BC
:1039F000F106892B39F0E091F006F091F106862F5F
:103A000009950FC08DE397E00E94481E882349F472
:103A100080914E0790914F07019690934F078093A6
:103A20004E07FF91EF91BF91AF919F918F917F9141
:103A30006F915F914F913F912F910F900BBE0F901F
:103A40000FBE0F901F901895682F86E497E00E9494
:103A5000481E08951F920F920FB60F920BB60F9249
:103A600011242F933F934F935F936F937F938F9383
:103A70009F93AF93BF93EF93FF9380914507882364
:103A800079F080914A0790914B07892B39F086E4B1
:103A900097E00E94DF1D80939C0005C010924507AF
:103AA0008FEF80933C07FF91EF91BF91AF919F9172
:103AB0008F917F916F915F914F913F912F910F90D7
:103AC0000BBE0F900FBE0F901F9018958FEF809335
:103AD000450786E497E00E94DF1D982F80913C0700
:103AE0008823E1F390939C0010923C070895CF93B4
:103AF000DF93EC0180913F0790914007892B69F09B
:103B00008091410790914207892B39F08DE397E02E
:103B10000E94DF1D88838FEF01C080E0DF91CF918D
:103B20000895DF93CF930F92CDB7DEB7CE01019604
:103B30000E94771D882319F42FEF3FEF03C089817E
:103B4000282F30E0C9010F90CF91DF91089540E414
:103B500050E060E776E08DE397E00E94D21D40E4FC
:103B600050E060EB76E086E497E00E94D21D089575
:103B70000E94A71D1092F1061092F00688ED809326
:103B80009A0060E875E280E090E00E94A41C8FEF4C
:103B900080933C071092450710924F0710924E07F2
:103BA00078940895FC018FB7F894718360835383F0
:103BB000428317821682158214828FBF0895DC011A
:103BC0004FB7F89414968D919C911597892B11F409
:103BD000E0E025C016968D919C911797ED91FC9190
:103BE0001197E80FF91FE081019617969C938E9329
:103BF000169712962D913C9113978217930730F0E8
:103C0000821B930B17969C938E93169714968D9107
:103C10009C911597019715969C938E9314974FBF7F
:103C20008E2F0895FC014FB7F89484819581681711
:103C30007907B0F486819781860F971F97838683D3
:103C4000228133818217930720F0821B930B978385
:103C5000868384819581861B970B9583848302C01C
:103C6000158214824FBF0895FC01CB012FB7F89441
:103C70002FBF2681378162817381820F931F0E943B
:103C8000314D0190F081E02DE80FF91F80810895FA
:103C90001F93CF93DF93EC01162F4FB7F8942C812D
:103CA0003D816A817B812617370798F48E819F8139
:103CB000820F931F0E94314DE881F981E80FF91FAF
:103CC00010838C819D8101969D838C834FBF8FEFE4
:103CD00002C04FBF80E0DF91CF911F910895FC019A
:103CE0008FB7F8948FBF2281338184819581281BFF
:103CF000390BC9010895FC018FB7F894158214821D
:103D00008FBF08959093F3068093F20608951F9352
:103D1000182F8A3031F4E091F206F091F3068DE02D
:103D20000995E091F206F091F306812F09951F9114
:103D30000895CF93DF93EC01009721F406C02196FC
:103D40000E94871E88818823D1F7DF91CF91089543
:103D5000EF92FF920F931F93CF93DF938C017A0121
:103D60000097E9F020E030E02617370738F4F80133
:103D700081918F012F5F3F4F8823B1F7C0E0D0E0E2
:103D80000BC0F8018081882319F00F5F1F4F01C01D
:103D900080E20E94871E2196CE15DF0590F3DF9109
:103DA000CF911F910F91FF90EF900895CF93DF93E4
:103DB000EC01009719F407C00E94871EFE012196AE
:103DC00084918823C9F7DF91CF9108958AE00E94FA
:103DD000871E0895E82FF0E0EF70F070EE5EFE4F62
:103DE000E4918E2F0E94871E08951F93182F8295AD
:103DF0008F700E94EA1E812F0E94EA1E1F91089573
:103E00001F93182F892F0E94F51E812F0E94F51EE7
:103E10001F910895EF92FF920F931F937B018C01E6
:103E2000C801AA27BB270E94001FC7010E94001FCC
:103E30001F910F91FF90EF9008952F923F924F9214
:103E40005F926F927F928F929F92AF92BF92CF922A
:103E5000DF92EF92FF920F931F93DF93CF93CDB733
:103E6000DEB7A3970FB6F894DEBF0FBECDBF6AA32F
:103E7000242E2BA337014801442351F017FF08C01B
:103E8000EE24FF248701E618F7080809190902C083
:103E9000840173012AA1215090E0211091E0291B97
:103EA00029A318A2A82EBB24CC24DD24C801B70165
:103EB000A60195010E94584DFB01EF70F070EE5E77
:103EC000FE4F64916F8FC801B701A60195010E9452
:103ED000584DC901DA017C018D019EE1492E512C1A
:103EE0004C0E5D1E39A025C0E114F1040105110539
:103EF000C9F0C801B701A60195010E94584DFB0108
:103F0000EF70F070EE5EFE4F6491F2016083C801C5
:103F1000B701A60195010E94584DC901DA017C0143
:103F20008D0103C02BA1F20120833A94089441082B
:103F300051083320C9F6CE014F968C01E9A10E1B22
:103F400011092220F1F097FE05C08DE2F80182935D
:103F50008F0117C0C8010197611471048104910495
:103F600019F08C018BE202C08C0180E2F8018083A1
:103F700008C0F80181918F010E94871EFAA1F150BB
:103F8000FAA32AA12223A9F7A3960FB6F894DEBFBD
:103F90000FBECDBFCF91DF911F910F91FF90EF909A
:103FA000DF90CF90BF90AF909F908F907F906F9059
:103FB0005F904F903F902F9008957F928F929F92A5
:103FC000AF92BF92CF92DF92EF92FF920F931F9327
:103FD000DF93CF93CDB7DEB77888C988DA8853E10D
:103FE000E52EF12CEC0EFD1E14C0882381F480E038
:103FF00090E0CF91DF911F910F91FF90EF90DF90B4
:10400000CF90BF90AF909F908F907F9008950E9427
:10401000871E96012F5F3F4F772021F0F60169013F
:10402000849103C0F601808169018532F1F62F5F2A
:104030003F4F772021F0F6016901849103C0F6011A
:1040400080816901843629F0883781F08336F9F65A
:1040500006C000E117E24AE0A42EB12C0CC0F70123
:10406000808122E030E0E20EF31ED1CF00E010E1CB
:1040700030E1A32EB12C22E0822E912C8E0C9F1CBD
:10408000F701E080F1808436B1F4F7FE11C0F094BE
:10409000E194F108F3948DE20E94871E09C0C801E3
:1040A0006AE070E00E94314D8B016230710518F0BA
:1040B000E016F106A0F3C701B8010E94314D862F2A
:1040C0000E94EA1EC701B8010E94314D7C01C8015F
:1040D000B5010E94314D8B016115710561F77401C5
:1040E00098CF9C01DD9ADE9ADF9A8091650084600A
:1040F00080936500AF9A22303105ACF0DF9825300F
:1041000031058CF0DD98293031056CF0DE982131D5
:1041100031054CF0809165008B7F809365002132E2
:1041200031050CF0AF980895892B79F0109268074B
:104130001092670787B7816087BF89B7806489BF9E
:10414000DD9881E08093F506089587B78E7F87BF5D
:1041500089B78F7B89BF80E090E00E947120109228
:10416000F50608951F920F920FB60F920BB60F929D
:1041700011242F933F934F935F936F937F938F936C
:104180009F93AF93BF93EF93FF9395B19093630782
:1041900080916407813041F0813018F08F3091F5C3
:1041A0000CC0909362072EC089E3989FC001112430
:1041B000909351078093500725C0963E18F4909332
:1041C000650702C0109265078091650790E00E9424
:1041D00071208091670790916807FC01EE5AF84FB3
:1041E00040812091650730E0240F311D35952795DA
:1041F0002083019660E170E00E94454D909368072E
:10420000809367071092F406FF91EF91BF91AF91F1
:104210009F918F917F916F915F914F913F912F91DE
:104220000F900BBE0F900FBE0F901F90189590919E
:104230006407906297B986B90895C59A84EF91E0B2
:1042400020E731E0F9013197F1F70197D9F70895A7
:10425000C5980895EF92FF920F931F93C5990AC0D6
:10426000C59A84EF91E020E731E0F9013197F1F749
:104270000197D9F789B78F7B89BF1092640780E2D5
:1042800087B98CED86B93699FECF6091620770E0F0
:10429000882777FD8095982F0E94D84620E030E04F
:1042A00040E050E00E94774421EE3AE74CED50E4C4
:1042B0000E9446449B01AC0166E676EA8BE894E4F2
:1042C0000E949E457B018C0120E030E040E050E000
:1042D0000E94A8468823FCF020E030E040E251E450
:1042E000C801B7010E94A84688235CF40F2EF0E0B5
:1042F000EF2EF0E0FF2EF0E20F2FF1E41F2FF02D54
:1043000014C020E030E048E452E4C801B7010E9444
:104310004846181654F40F2EF0E0EF2EF0E0FF2E72
:10432000F8E40F2FF2E41F2FF02DC801B7010E940F
:10433000CE42609369071F910F91FF90EF9008950F
:10434000BF92CF92DF92EF92FF920F931F93CF9382
:10435000DF938FE080936407C0E0D0E00F2EF0E0A1
:10436000EF2EF0E0FF2EF0E00F2FF0E01F2FF02DEA
:10437000BB24B3946FE2C62E5CEDD52EB092F4064A
:10438000C7B8D6B88091F4068823E1F76091650735
:1043900070E0882777FD8095982F0E94D8469B0172
:1043A000AC01C801B7010E9477447B018C012196C2
:1043B000C233D10519F720E030E040E251E40E9419
:1043C0009E450E94CE4260936607DF91CF911F9178
:1043D0000F91FF90EF90DF90CF90BF90089581E014
:1043E0008093640781E287B98CED86B93699FECF58
:1043F00008951F920F920FB60F9211248F9387B7D3
:104400008F7B87BF10926F078F910F900FBE0F9019
:104410001F9018951F920F920FB60F920BB60F9226
:1044200011248F939F93EF93FF9380916F078130B7
:1044300059F0813020F0823009F061C023C014BCF3
:1044400081E080936F0755C084B580936C0714BCDE
:104450008A53893108F04AC010926B0710926E0798
:1044600082E080936F0786B7806486BF87B78064D9
:1044700087BF109271071092720710927307109203
:1044800074073DC094B590936C0714BC892F8D5070
:104490008E3060F5E0916E07943138F0F0E0EF581F
:1044A000F84F80818695806805C0F0E0EF58F84F9E
:1044B00080818695808380916B078F5F80936B07E7
:1044C0008830B9F410926B0780916E078F5F8093EC
:1044D0006E07843071F48091710780936A07809130
:1044E0007407809370078FEF80936D0710926F07AA
:1044F00006C086B7806486BF87B7806487BFFF9198
:10450000EF919F918F910F900BBE0F900FBE0F9068
:104510001F90189580916D07882319F42FEF3FEFB6
:1045200006C010926D0780917007282F30E0C901F6
:104530000895149A159A1D9A1C9A000000001D985F
:10454000000000001C98000000000895149A159ABD
:104550001D981C9A000000001D9A0000000014988D
:1045600015980895159890E080E0880F00000000ED
:10457000000000001C9A000000000D9981600000FE
:1045800000001C989F5F983081F7159A0895159A3E
:1045900090E087FF02C01D9A01C01D980000000036
:1045A0001C9A00000000000000001C9800000000A1
:1045B0009F5F983011F0880FECCF08951598000098
:1045C00000001D9A000000001C9A000000001C98CA
:1045D00000000000159A000000000895159A0000E0
:1045E00000001D98000000001C9A000000001C98AC
:1045F000000000001D9A000000000895159A0000B8
:1046000000001D9A000000001C9A000000001C9889
:10461000000000000895282F30E087FF02C02050DE
:104620003140C90108950E94992280E70E94C72263
:104630000E94DE2284E10E94C7220E94DE2283E0E3
:104640000E94C7220E94DE220E94A6220895159A87
:10465000149A1D9A1C9A000000001D98000000008A
:104660001C98000000000895159A149A1D981C9A31
:10467000000000001D9A000000001598149808958D
:10468000159A90E087FF02C01D9A01C01D98000096
:1046900000001C9A00000000000000001C980000B0
:1046A00000009F5F983011F0880FECCF08951598A7
:1046B00090E080E0880F00000000000000001C9ADD
:1046C000000000000D998160000000001C989F5FB1
:1046D000983081F7159A08951598000000001D9AEA
:1046E000000000001C9A000000001C980000000060
:1046F000159A000000000895159A000000001D980A
:10470000000000001C9A000000001C98000000003F
:104710001D9A000000000895159A000000001D9ADF
:10472000000000001C9A000000001C98000000001F
:1047300008950E94272380E70E9440230E946C2353
:1047400084E10E9440230E946C2383E00E94402366
:104750000E946C230E94342308950F931F930E949C
:10476000272380E70E9440230E946C2382E00E945E
:1047700040230E946C230E943423000000000000AC
:1047800000000E94272381E70E9440230E946C239F
:104790000E9457230E947C230E945723082F0E94C7
:1047A0007C23112707FD109510937A070093790752
:1047B0000E9457230E947C230E945723082F0E94A7
:1047C0007C23112707FD109510937C0700937B072E
:1047D0000E9457230E947C230E945723082F0E9487
:1047E0008C23112707FD109510937E0700937D07FA
:1047F0000E9434231F910F9108951F93182F0E9438
:10480000992280E70E94C7220E94DE2282E00E9455
:10481000C7220E94DE220E94A622000000000000A3
:1048200000000E94992281E70E94C7220E94DE2296
:104830000E94B2220E94EE220E94B222282F30E073
:1048400087FF04C0C9018050914001C0C901909305
:10485000760780937507112399F0809175079091E1
:1048600076079F938F9383E391E09F938F9381E0EB
:104870008F930E94DD1F0F900F900F900F900F905D
:104880000E94EE220E94B2220E94EE220E94B222D8
:10489000282F30E087FF04C0C9018050914001C03B
:1048A000C9019093780780937707112399F080913D
:1048B0007707909178079F938F938BE291E09F9376
:1048C0008F9381E08F930E94DD1F0F900F900F90C8
:1048D0000F900F900E94EE220E94B2220E94EE22C0
:1048E0000E94B222282F30E087FF04C0C901805007
:1048F000914001C0C9019093800780937F070E9477
:10490000FE220E94A622112399F080917F079091A8
:1049100080079F938F9383E291E09F938F9381E031
:104920008F930E94DD1F0F900F900F900F900F90AC
:104930001F910895DC01ED91FC911197E08109C070
:10494000ED91FC91119731961196FC93EE9331976E
:10495000E181E032A9F3EE2331F08D919C91119722
:1049600001968D939C938E2F0895DC01ED91FC911F
:104970001197E08109C0ED91FC9111973196119644
:10498000FC93EE933197E181E032A9F3EE2331F00D
:104990008D919C91119701968D939C938E2F8154AC
:1049A0008A3118F0EFEFFFEF03C0F0E0E154F04080
:1049B000CF010895DC01ED91FC911197408109C070
:1049C000ED91FC91119731961196FC93EE933197EE
:1049D00041814032A9F3442339F08D919C91119784
:1049E000019611969C938E9320E030E012C0C9018D
:1049F00063E0880F991F6A95E1F7220F331F280F94
:104A0000391F240F311D2053304041911196FC93E2
:104A1000EE93842F8053ED91FC9111978A3038F3F7
:104A20003197ED93FC93C9010895FC01DB0120E06F
:104A300030E008C0892F81548A3138F431969D9333
:104A40002F5F3F4F90819923A9F71C92C9010895C8
:104A500083309105E9F0843091054CF48130910563
:104A600099F08230910594F4892B61F008C085306B
:104A7000910591F0853091056CF0069779F020E072
:104A800030E01CC089B30CC086B30AC083B308C031
:104A900080B306C081B104C080B102C080916300C0
:104AA000282F30E0683071054CF481E090E002C0BE
:104AB000880F991F6A95E2F728233923C9010895C1
:104AC0009C014D3309F472C04E33A8F44B3229F1E6
:104AD0004C3240F4463299F14A3229F1453209F01C
:104AE0006DC041C04F3239F14C3309F447C04D32EB
:104AF00009F064C015C04C3609F446C04D3630F498
:104B00004E33B1F1473609F059C044C04E3609F46E
:104B100047C04C3709F052C01AC0260F371F4EC08D
:104B2000261B370B4BC0869F9001879F300D969FA9
:104B3000300D112443C00E94454D9B0117C0672BC7
:104B400019F420E030E03AC00097C1F102C00097AC
:104B500019F021E030E032C06115710511F061E01B
:104B600070E09B012BC00E94454D9C01C90125C0EE
:104B700080E090E06217730704F51DC080E090E0CC
:104B800026173707D4F417C080E090E06217730748
:104B9000A4F011C080E090E02617370774F00BC036
:104BA00080E090E02617370731F407C080E090E0FE
:104BB0006217730711F481E090E09C01C901089528
:104BC000DC018C91882319F420E030E009C0FD015C
:104BD00001C0319680818232E1F79F012A1B3B0B95
:104BE000C90108952F923F924F925F926F927F92E8
:104BF0008F929F92AF92BF92CF92DF92EF92FF92ED
:104C00000F931F93DF93CF93CDB7DEB729970FB6DE
:104C1000F894DEBF0FBECDBFAA24BB24A0ED2A2E80
:104C2000A1E03A2EEE24E3944E010894811C911CDD
:104C3000FCEC4F2EF1E05F2EE9E06E2E712C6C0E35
:104C40007D1EBF92AF923F922F92EF920E94DD1F86
:104C5000840170E0C72E70E0D72ECA0CDB1C0F90C9
:104C60000F900F900F900F90E199FECFDFBACEBA60
:104C7000E09AFDB28F2D90E09F938F935F924F92B9
:104C8000EF920E94DD1F8F2D8C510F900F900F908F
:104C90000F900F90833618F4F801F08203C08EE273
:104CA000F80180830F5F1F4F0894C11CD11C0615AB
:104CB0001705D1F61986C4010E94991E80E091E083
:104CC0000E94991EE8E0F0E0AE0EBF1EF0E4AF16C1
:104CD000B10409F0B6CF29960FB6F894DEBF0FBE27
:104CE000CDBFCF91DF911F910F91FF90EF90DF909B
:104CF000CF90BF90AF909F908F907F906F905F907C
:104D00004F903F902F9008952F923F924F925F9235
:104D10006F927F928F929F92AF92BF92CF92DF92CB
:104D2000EF92FF920F931F93DF93CF93CDB7DEB730
:104D300029970FB6F894DEBF0FBECDBF3C01882483
:104D40009924EE24E3942E010894411C511C14ED87
:104D5000212E11E0312E9F928F9288ED91E09F934A
:104D60008F93EF920E94DD1FB0E4AB2EB0E0BB2E1C
:104D7000A80CB91C8201CC24DD240F900F900F9059
:104D80000F900F902AC0E199FECFBFBAAEBAE09A59
:104D9000FDB28F2D90E09F938F933F922F92EF92D1
:104DA0000E94DD1F0F900F900F900F900F9098E0D2
:104DB0006916710451F48F2D8C51833618F4F80163
:104DC000F08203C08EE2F80180830894C11CD11CDC
:104DD0000894A11CB11C0F5F1F4FC614D7049CF28E
:104DE00098E06916710421F41986C2010E94991E87
:104DF00080E091E00E94991E860C971CE0E08E16E0
:104E0000ECE09E060CF4A7CF29960FB6F894DEBF0F
:104E10000FBECDBFCF91DF911F910F91FF90EF900B
:104E2000DF90CF90BF90AF909F908F907F906F90CA
:104E30005F904F903F902F9008956930710508F072
:104E400050C083309105D9F0843091054CF4813005
:104E5000910579F0823091057CF4892B41F11BC0DA
:104E60008530910591F08530910564F0069799F4AD
:104E70000FC0E8E3F0E01DC0E5E3F0E01AC0E2E3B4
:104E8000F0E017C0E3E2F0E014C0E2E6F0E011C0A9
:104E9000E5E6F0E00EC080E592E09F938F9381E01D
:104EA0008F930E94DD1F0F900F900F900895EBE3FA
:104EB000F0E06830710519F431974083089581E07E
:104EC00090E002C0880F991F6A95E2F7982F452B52
:104ED00029F4808190958923808308958081892B8E
:104EE00080830895CF93DF93FC01EB018E31910510
:104EF0008CF06AE070E00E94454D9C01CF014E9716
:104F00006AE070E00E94454DCB01AE01B9010E94FC
:104F10001D2723C0009721F08530910579F407C043
:104F20006115710511F0DA9818C0DA9A16C061158A
:104F3000710511F0C59A11C0C5980FC09F938F934A
:104F400080E292E09F938F9381E08F930E94DD1F18
:104F50000F900F900F900F900F9080E090E0DF91F6
:104F6000CF910895EF92FF920F931F93E82EF62EA4
:104F700005E610E0F80180818B7F80838AEE0E9435
:104F8000871E8E2D0E94871E8F2D0E94871EFE2455
:104F90008F2D8F770E94871EF80180818460808327
:104FA0001F910F91FF90EF9008952F923F924F9293
:104FB0005F926F927F928F929F92AF92BF92CF92A9
:104FC000DF92EF92FF920F931F93DF93CF93CDB7B2
:104FD000DEB7C450D1400FB6F894DEBF0FBECDBFD0
:104FE0001092FF061092FE0683E091E00E94991E47
:104FF0000E94CA388A3A29F083E191E00E94991E02
:105000004EC10E94F2380E94CA38A82EBB24B39425
:1050100035E4232E3CE4332E33E5432E35E4532E82
:1050200024E5622E28E4722E25E4822E2EE4922EB0
:105030002BC1BE0161597F4FCE0101960E947D397F
:10504000C984DA84EE80FD8009811A810E94CA3801
:10505000A82E0115110509F417C11F930F9388ECB1
:1050600091E09F938F93BF920E94DD1FEF2DF0E0A0
:10507000EE0FFF1FEE53FD4F808191810E94991E1C
:10508000A6ECB1E0BF93AF93BF920E94DD1F8DB736
:105090009EB708960FB6F8949EBF0FBE8DBFFF2037
:1050A00049F097E0F91631F0A1E0FA1619F0BAE0EC
:1050B000FB1691F48E2D90E08F5B9F4F9F938F9303
:1050C00080EC91E09F938F93BF920E94DD1F0F9021
:1050D0000F900F900F900F9098E0F916A9F5EE2D14
:1050E000F0E0ADE1AE1548F0EE0FFF1FE75CFC4FBE
:1050F000808191810E94991E22C08E2D6AE00E94BB
:10510000254D892F805D90E09F938F93CF014E971F
:105110006AE070E00E94454D6F5B70E07F936F9393
:1051200085EB91E09F938F93BF920E94DD1FADB7F7
:10513000BEB717960FB6F894BEBF0FBEADBF87E2DD
:1051400091E00E94991E7AC0BEE0FB1689F48E2D74
:1051500090E09F938F938FEA91E09F938F93BF92FC
:105160000E94DD1F0F900F900F900F900F9066C060
:1051700096E0F91679F4A1E0EA1609F05FC08CEA2E
:1051800091E09F938F93EF920E94DD1F0F900F90FD
:105190000F9054C092E0F916F1F46BE271E0C60191
:1051A0000E94FB498C0160E371E0C6010E94FB494B
:1051B000FC010115110531F0D8016D927D928D929F
:1051C0009C921397309721F0208231824282538241
:1051D000C60101964DC0BDE0FB1699F48E2D90E0FE
:1051E0008F5B9F4F9F938F9389EA91E09F938F935B
:1051F000BF920E94DD1F0F900F900F900F900F90A5
:1052000039C095E0F91649F0ACE0FA1631F0B3E197
:10521000FB1619F024E1F21689F48F8198859F938B
:105220008F9386EA91E09F938F93BF920E94DD1F38
:105230000F900F900F900F900F9003C0C6010E9427
:10524000991E91E0F916B1F485E391E00E94991E50
:10525000EE2DF0E0EE0FFF1FED53F84F80819181AE
:10526000BE01655F7F4F08960E94DC38CE010B9629
:105270000E94991EA3EAB1E0BF93AF93BF920E9430
:10528000DD1F0F900F900F90BCECAB1641F080919A
:10529000FE069091FF0680509C4008F4CACECC5F79
:1052A000DE4F0FB6F894DEBF0FBECDBFCF91DF91BA
:1052B0001F910F91FF90EF90DF90CF90BF90AF9034
:1052C0009F908F907F906F905F904F903F902F9026
:1052D00008958AE391E00E94991E0E942E3A089553
:1052E00080E490E02FEFE199FECF9FBB8EBB2DBBFA
:1052F0000FB6F894E29AE19A0FBE01963CE0803432
:10530000930789F70E9469290895CF92DF92EF925F
:10531000FF920F931F93CF93DF937C018BE491E077
:105320000E94991E870141E0C42ED12C0E94911D3C
:10533000EC0197FDFBCF0E94871ECD30D10551F0C7
:10534000E016F10671F5CE32D10579F48EE2F7015F
:1053500081938F01F80110828CEB92E09F938F93E1
:1053600081E08F930E94DD1F0CC0CF33D105C9F4BB
:105370008BE992E09F938F9381E08F930E94DD1FD2
:1053800087010F900F900F9098012E193F09C901C6
:10539000DF91CF911F910F91FF90EF90DF90CF9011
:1053A0000895C232D10539F480E090E0CD2811F49F
:1053B00081E090E06C01CE01815690404A9720F444
:1053C000C114D10409F0A097C830D10519F0CF3726
:1053D000D10539F4E016F10608F0A8CF01501040CD
:1053E000A5CFF801C1938F01A1CF0F931F93CF9346
:1053F000DF938C010E94B739EC01833091052CF0CA
:105400000E941F3A8017910711F0CFEFDFEFCE0116
:10541000DF91CF911F910F910895DD9A0E94911D08
:105420009C0197FF06C00E948A229C01181619064B
:10543000ACF7DD98C9010895EF92FF920F931F9387
:10544000CF93DF930E940D2A8C010E940D2AF82E23
:10545000EE24E02AF12A08271927C0E0D0E018C07E
:105460000E940D2A9C01E199FECF02271327CE014D
:10547000805C9F4F9FBB8EBBC90160E071E00E94C2
:10548000454D8DBB0FB6F894E29AE19A0FBE219676
:10549000CE15DF052CF30E940D2A20E030E00F77B7
:1054A00010708017910711F421E030E0C901DF91FD
:1054B000CF911F910F91FF90EF900895CF93DF93BD
:1054C0000E940D2A8D3C910569F40E940D2AEC0181
:1054D0008C36910539F40E941C2A892B29F4C7E0E7
:1054E000D0E002C0C4E0D0E0CE01DF91CF910895BA
:1054F0008EE491E00E94991EDE980E945E2A8C360E
:10550000910519F462E18CE602C0682F8AE70E94D7
:10551000B227DE9A08956F927F928F929F92AF92F8
:10552000BF92CF92DF92EF92FF920F931F93DF9380
:10553000CF93CDB7DEB728970FB6F894DEBF0FBE76
:10554000CDBF9C016B014A01FB01A081B181EE241A
:10555000FF24FE01319609C0892F81548A3140F41D
:10556000119691930894E11CF11C9C919923A1F749
:105570001082590100E010E03E010894611C711C8A
:105580000BC0F501619171915F01C3010E94EB496C
:10559000009759F00F5F1F4F0815190594F3081570
:1055A000190519F40FEF1FEF07C0F60180819181F3
:1055B0008E0D9F1D91838083C80128960FB6F894A5
:1055C000DEBF0FBECDBFCF91DF911F910F91FF9036
:1055D000EF90DF90CF90BF90AF909F908F907F9093
:1055E0006F900895AF92BF92CF92DF92EF92FF92A9
:1055F0000F931F93DF93CF9300D0CDB7DEB78C010D
:105600006B01DC01ED90FC9043E150E0BC0189E3CB
:1056100093E00E948B2A5C011A821982FC0183317B
:10562000910540F4EA5BFF4FEE0FFF1F0590F491E8
:10563000E02D0994AFEFBFEF4EC11A82198237C136
:10564000E2E5F7E020E030E08081280F311D119283
:10565000B7E0E236FB07C1F728C180913A07909185
:105660003B0707C080E00E94FD2380917507909161
:1056700076079A8389831BC180E00E94FD23809175
:10568000770790917807F5CF80E00E94FD23809105
:105690007F0790918007EDCF0E942A2180916907B2
:1056A00009C00E94EF218091500790915107E1CFEE
:1056B0008091000789831A82FAC00E948A229A8305
:1056C000898397FDFACFF3C00E94911D9A83898345
:1056D00097FDFACFECC00E94911D9A83898397FFB2
:1056E000E6C00E948A22C5CF0E94D049C2CF1A824A
:1056F0001982BE016F5F7F4FC8010E94542F892B12
:1057000009F4D5C0E981FA81E15AFC4F8081D2CFFA
:105710001A821982BE016F5F7F4FC8010E94542F09
:10572000892B09F4C4C089819A8197FFA2CF9095F3
:1057300081959F4F9ECFBE016F5F7F4FC8010E9432
:10574000542F892B09F4B3C089819A81E199FECF46
:10575000805090409FBB8EBBE09A8DB3ABCFBE0113
:105760006F5F7F4FC8010E94542F892B09F49FC09F
:1057700089810E949F3C7DCFD801ED91FC911197CA
:105780008081883209F093C03196ED93FC93B60185
:10579000C8010E94792CD801ED91FC9180818C3256
:1057A00009F085C0D601ED90FC903196D801ED93BB
:1057B000FC93B601C8010E94792C823009F077C0B1
:1057C0001A8219824091F6065091F706EDEFF7E044
:1057D00080E090E00EC0208131812E153F0581F0E0
:1057E0003296E216F30624F41816190644F00AC09D
:1057F0000196841795077CF38417950719F4019790
:105800009A838983D801ED91FC9111978081893227
:1058100009F04DC03196ED93FC9349C01A8219826C
:10582000D801ED91FC91119780818A3319F431965A
:10583000ED93FC93D801ED91FC9111979081892F04
:105840008154873048F4892F90E0815490409A83A6
:1058500089833196ED93FC93D801ED91FC911197DA
:1058600080818A3399F49F012F5F3F4F11963C93BB
:105870002E936181862F8053883040F470E0605D04
:105880007F4F2F5F3F4F2D933C9302C068E070E045
:1058900089819A810E942825F60191838083F801ED
:1058A000A081B181AE19BF0916C03A8329838981CD
:1058B0009A81D6018D939C93D501AA0FBB1FA75C3B
:1058C000BC4FEC911196FC91DF010D900020E9F79F
:1058D0001197AE1BBF0BCD010F900F90CF91DF91B1
:1058E0001F910F91FF90EF90DF90CF90BF90AF90FE
:1058F00008952F923F924F925F926F927F928F9274
:105900009F92AF92BF92CF92DF92EF92FF920F934E
:105910001F93DF93CF93CDB7DEB7C75BD0400FB6F1
:10592000F894DEBF0FBECDBF8C012B011A82198205
:105930001C821B82EE24FF24CC24DD24882499249D
:10594000B3E02B2E312C2C0E3D1EA4E56A2E712CBB
:105950006C0E7D1E78C1493209F47FC19F012F5F13
:105960003F4FD8012D933C93842F80538A3098F475
:1059700089819A819C01F3E0220F331FFA95E1F7A8
:10598000880F991F280F391F20533040240F311DD5
:105990003A83298358C1842F81548A3158F4E42FE3
:1059A000F0E0EE0FFF1FE35FF84F808191819A8353
:1059B000898349C14C32A0F44A3270F5443209F46B
:1059C00035C1453238F4403209F43DC1423209F064
:1059D00034C119C0473200F1483209F02EC115C058
:1059E000403450F44C33C0F44F32B1F04A33A1F09C
:1059F0004D3209F022C110C0403409F44AC04C377E
:105A000009F01BC109C080E0BFC1B101C8010E94FB
:105A1000792C8B819C81ACC04E3351F481818D33C4
:105A2000D9F42F5F3F4FD8012D933C9347E614C024
:105A30004C3391F481818D3339F42F5F3F4FF8015E
:105A4000318320834CE608C08E3331F42F5F3F4F03
:105A5000D8012D933C934EE6E5E0F0E0EC0FFD1FFE
:105A6000EC0DFD1D40830894C11CD11CF701EE0F05
:105A7000FF1F21E030E02C0F3D1FE20FF31F898153
:105A80009A81928781870894E11CF11C1A821982FD
:105A9000DAC081818332E9F42F5F3F4FD8012D9323
:105AA0003C9320E030E0F901E350F84FD901AD5FBD
:105AB000B64F8D919C91918380832E5F3F4F203410
:105AC000310589F7E0E2F0E0F093F706E093F6069F
:105AD00038C08B37C1F4C9010196D8018D939C93CE
