:100000000C9425210C9444210C9444210C944421FB
:100010000C9444210C9444210C9444210C94DE2C27
:100020000C9444210C9444210C94BD2C0C94442138
:100030000C9444210C9444210C941D220C944421D2
:100040000C9471210C9444210C9444210C9444216F
:100050000C9444210C94432B0C9444210C94442183
:100060000C9444210C9444210C9444210C9444217C
:100070000C9444210C9444210C94DE250C944421CE
:100080000C94A2250C9444210C944421CB32CB3205
:1000900007345C345C344D34793354340F33623478
:1000A0008F335434543457344E3354344D346234D3
:1000B000FA3254344D345434543454345434543463
:1000C0004E335434543454347933543454345434D3
:1000D0008F335434543454345434543454345434A6
:1000E000373454344E6F7420706C756767656420C4
:1000F000696E0D0A00436F6D706C6574650D0A00C2
:10010000506C756767656420696E202D2063686197
:100110007267696E670D0A002564206D560D0A002E
:10012000636861726765206D6F6465200D0A004425
:100130006F6E652025646D560D0A0025643A2564AE
:100140002066756C6C2063686172676520706F77DC
:1001500065722025646D560D0A0025643A256420D9
:1001600073686F72742034306D73206368617267D6
:10017000652070756C7365732025646D560D0A00DB
:100180005374617274202E2E2025646D560D0A0062
:1001900030313233343536373839414243444546BD
:1001A0000025642C2025642C2025640A004C45542D
:1001B00000000000464F52000000004946000000C9
:1001C00000005448454E000000454C5345000000D7
:1001D000474F544F0000005052494E5400004745CD
:1001E000540000000050555400000000454E4400EB
:1001F0000000004C49535400000058414354000093
:1002000000574149540000004E4558540000005327
:100210004552564F00004D4F5645000000474F5382
:100220005542000052455455524E00504F4B450028
:1002300000005354414E440000504C41590000000E
:100240004F5554000000004F464653455400525548
:100250004E000000004932434F000000493243493C
:1002600000000053544550000000535045454400E1
:10027000004D5459504500004C49474854530053D1
:100280004F52540000004646540000000053414DB8
:10029000504C45005343414C4500004441544100FB
:1002A000000053455400000000494E53455254008D
:1002B00044454C4554450047454E000000004E451E
:1002C00054574F520053454C454354002100000001
:1002D0000000004F4E00000000004D41540000009F
:1002E00000455849542044454D4F204D4F44450D3D
:1002F0000A0025640D0A003E3A200044454D4F2077
:100300004D4F44450D0A002C2025640025640055FE
:100310007074696D653A20002564206C696E6573A0
:100320002073746F7265640D0A0025642073657212
:10033000766F7320636F6E6E65637465640D0A007B
:100340004445425547204F4E0A002564206C696E93
:100350006573206C6F616465640D0A00763D2452FC
:1003600065766973696F6E3A2035363820240D0A38
:100370000074657374696E67206368617267650DE8
:100380000A00505344206F66660D0A006F6B0D0A19
:10039000005374616E642025640D0A003F204E6F87
:1003A0002073756368206C696E652025640A0045BA
:1003B0006C61707365642054696D6520253032640A
:1003C0003A253032642D253033640A002564206CD0
:1003D000696E657320696E206D656D6F72790D0AA7
:1003E00000256420736572766F7320636F6E6E658F
:1003F000637465640D0A00426173696320763D246D
:100400005265766973696F6E3A2035363820240D4F
:100410000A436F6D6D616E64733A20692072206CBF
:100420002063207A207120732056205220462024F9
:100430000D0A0072657365740D0A00253032643A46
:10044000253032643A253032642D25303364007310
:100450007461727420646F776E6C6F61640D0A0052
:100460002564002C25640025640025630020474F87
:10047000535542200020454C534520002054484508
:100480004E200040200023200025633D0025643DD0
:1004900000504F52543A25633A25630021203D20F5
:1004A000002563203D20002000256420004E6F20A1
:1004B00070726F6772616D206C6F616465640D0AA4
:1004C000004C6973742050726F6772616D200D0A61
:1004D0000025782000257820002578200025782028
:1004E00000436C6561722050726F6772616D200D00
:1004F0000A002563203D20256C640D0A00202A2A6D
:10050000205573657220427265616B0D0A0054526A
:10051000414345203A3A202564202D2000456E6451
:100520000D0A005573657220427265616B206F6E13
:10053000206C696E652025640D0A0052756E746921
:100540006D65206572726F72202564206F6E206C5D
:10055000696E652025640D0A0052756E2050726F19
:100560006772616D200D0A004E6F2070726F6772A6
:10057000616D206C6F616465640D0A00456C61708B
:100580007365642054696D652025646D730D0A00E0
:10059000436F6D6D616E64206E6F7420617661696A
:1005A0006C61626C6520696E20696D6D656469615E
:1005B0007465206D6F64650D0A0044656C65746533
:1005C000202D2025640D0A000D0A2564206C696E1B
:1005D000657320656E74657265642C205B25642FDD
:1005E00025645D2042797465730D0A0050616E695F
:1005F000632025640D0A00506F733D2564205B2540
:10060000635D0D0A00270D0A004572726F72202D7E
:10061000202700456E7465722050726F6772616D9D
:1006200020272E2720746F2046696E6973680D0A93
:100630000050726F6772616D20656E747279206D03
:100640006F646520282E20746F2065786974290DE9
:100650000A000D0A00496E73657274206C696E653C
:100660000D0A0045646974206C696E650D0A007D91
:10067000C9A3436C7D3059B88E59277CA2D37F7DA6
:10068000B3C7586C7E4831A38D332F31C7CDCD040D
:10069000040404040404040404040404040404021C
:1006A0000202020202020202020000000000000137
:1006B0000101010101010101010101010101010229
:1006C0000202020202020202020202020202020408
:1006D00004040404040404040404040404040401DD
:1006E0000101010100000000000101010000000102
:1006F00001010101000000000001010100000003F0
:1007000003030303000000000003030300000003D1
:1007100003030303000000000003030300000000C4
:1007200000000000000000000000000000000028A1
:100730002828282828282828281414141414143C9D
:100740003C3C3C3C3C3C3C3C3C1E1E1E1E1E1E00D9
:100750000000000000000000000000000000000198
:10076000000800010005000F0046003601A401C882
:10077000002C017DB3C7586C7E4831A38D332F31D7
:10078000C7CDCD7DB3C7586C7E4831A38D332F3193
:10079000C7CDCD6BA4E96A5F6C501D9B81383E28A4
:1007A000A6CED06BA4E96A5F914A28A39A757C72A1
:1007B000A6CED07EA4DE646B7D501D9B8E4F2C2870
:1007C000A6CED07DB3C7586C7E4831A38D332F3170
:1007D000C7CDCD0404040404040404040404040484
:1007E00004040402020202020202020202000000E9
:1007F00000000001010101010101010101010101EC
:1008000001010102020202020202020202020202CB
:10081000020202040404040404040404040404049E
:1008200004040400000000000101010101000000B7
:1008300001010100000000000202020202000000AB
:100840000202020000000000030303030200000094
:100850000303030000000000030303030300000080
:10086000030303000000000000000000000000007F
:1008700000000028282828282828282828141414AC
:100880001414143C3C3C3C3C3C3C3C3C3C1E1E1E7A
:100890001E1E1E00000000000000000000000000FE
:1008A00000000001000800010005000F00460036AE
:1008B00001A401C8002C017DB3C7586C7E4831A348
:1008C0008D332F31C7CDCD7DB3C7586C7E4831A352
:1008D0008D332F31C7CDCD8BA3E664788E570E961E
:1008E0009F4F2C28B7BCD06CA4E0616A97501C992C
:1008F000A74F2C289170837EA4DE646B7D501D9BD6
:100900008E4F2C28A6CED07DB3C7586C7E4831A31D
:100910008D332F31C7CDCD04040404040404040432
:100920000404040404040404040404040404040487
:100930000404040404040402020202020202020289
:10094000020000000000000202020202000000009B
:100950000003030303030300000000000000000085
:10096000000404040404030404040404040404044C
:10097000040404040404040000000000000000005B
:100980000000000000000001010101010000000062
:100990000001010100000000000000000000000054
:1009A0000000000000000001010101010000000042
:1009B0000001010100000000000000000000000034
:1009C0000000000000000000000000000000000027
:1009D00000000000000000282828282828282828AF
:1009E000281414141414143C3C3C3C3C3C3C3C3C4B
:1009F0003C1E1E1E1E1E1E00000000000000000007
:100A000000000000000000010005000800030001D4
:100A1000000F00460096003601FA0078002C017D98
:100A2000B3C7586C7E4831A38D332F31C7CDCD7DF0
:100A3000B3C7586C7E4831A38D332F31C7CDCD7EDF
:100A4000A7DE626E7D541D9B8E4F2C28A6CED06BE8
:100A5000A4E9665F6C501D9B81383E28A6CED06B02
:100A6000A4E9695F914A289D9A383E28A6CED07E97
:100A7000A4DE5F6B7D541D9B8E4F2C28A6CED07DAF
:100A8000B3C7586C7E4831A38D332F31C7CDCD0409
:100A90000404040404040404040404040404040416
:100AA0000404040404040404040404040404040208
:100AB000020202020202020202040404040404000C
:100AC0000000000002020202020404040404040004
:100AD00000000000020202020204040404040404F0
:100AE00004040404040404040404040404040400CA
:100AF00000000000000000000000000000000000F6
:100B000000000000010101010100000001010100DD
:100B100000000000000000000000000000000000D5
:100B200000000000010101010100000001010100BD
:100B300000000000000000000000000000000000B5
:100B4000000000000000000000000000000000287D
:100B50002828282828282828281414141414143C79
:100B60003C3C3C3C3C3C3C3C3C1E1E1E1E1E1E00B5
:100B70000000000000000000000000000000000174
:100B80000005000800030001000F00460096003633
:100B900001C80078002C017DB3C7586C7E4831A392
:100BA0008D332F31C7CDCD7DB3C7586C7E4831A36F
:100BB0008D332F31C7CDCD7EA7DE626E7D541D9B58
:100BC0008E4F2C28A6CED08BA3E664788E570E9637
:100BD0009F4F2C28B7BCD06CA4E0616A97501C9939
:100BE000A74F2C28B7BCD07EA6DE62717D541D9B1A
:100BF0008E4F2C28A6CED07DB3C7586C7E4831A32B
:100C00008D332F31C7CDCD0404040404040404043F
:100C100004040404040404010101010101010101AF
:100C200001040404040404010101010101010101A2
:100C30000104040404040402020202020202020289
:100C40000204040404040401010101010101010181
:100C50000104040404040403030303030303030360
:100C60000304040404040401010101010000000064
:100C7000000101010000000101010101000000006C
:100C80000001010100000000000000000000000061
:100C90000000000000000000000000000000000054
:100CA0000000000000000000000000000000000044
:100CB0000000000000000000000000000000000034
:100CC0000000000000000014141414141414141470
:100CD000141414141414141E1E1E1E1E1E1E1E1E7A
:100CE0001E1E1E1E1E1E1E00000000000000000032
:100CF000000000000000000A0005000A00010005D5
:100D0000000A00C800C80090017800C80090017D6A
:100D1000B3C7586C7E4831A38D332F31C7CDCD7DFD
:100D2000B3C7586C7E4831A38D332F31C7CDCD7DED
:100D3000A2C7486C7E3B31978D332F31C7CDCD880C
:100D4000A9D25D798B243D909D332F31C7CDCD7DC8
:100D5000ADD25D7B8B500E899D332F31C7CDCD86B3
:100D6000ADD25D7B8B501F9D9D332F31C7CDCD7D87
:100D7000B3C7586C7E4831A38D332F31C7CDCD0416
:100D80000404040404040404040404040404040126
:100D90000101010101010101010404040404040131
:100DA0000101010101010101010404040404040220
:100DB0000202020202020202020404040404040207
:100DC00002020202020202020204040404040403F6
:100DD00003030303030303030303030303030300E6
:100DE00000000000010101010100000001010100FB
:100DF00000000000010101010100000001010000EC
:100E000000000000000000000000000000000000E2
:100E100000000000000000000000000000000000D2
:100E200000000000000000000000000000000000C2
:100E3000000000000000000000000000000000149E
:100E40001414141414141414141414141414141E58
:100E50001E1E1E1E1E1E1E1E1E1E1E1E1E1E1E00D0
:100E60000000000000000000000000000000000A78
:100E70000005000A00010005000A00C800C8009033
:100E8000017800C80090017DB3C7586C7E4831A33B
:100E90008D332F31C7CDCD7DB3C7586C7E4831A37C
:100EA0008D332F31C7CDCD7DC1CD6B6C7E5931B423
:100EB0008D332F31C7CDCD77D1C36A6077511F9D58
:100EC00084332F31C7CDCD75A2E362677D4E31A348
:100ED0007F332F31C7CDCD6EA8CC555C755131A372
:100EE00080332F31C7CDCD7DB3C7586C7E4831A339
:100EF0008D332F31C7CDCD0404040404040404044D
:100F000004040404040404040404040404040404A1
:100F1000040404040404040303030303030303039A
:100F200003030303030303000000000000000000AC
:100F3000000404040404040303030303030303037E
:100F4000030303030303030202020202020202027A
:100F50000204040404040402020202020202020265
:100F60000204040404040402020202020202020255
:100F70000204040404040402020202020202020245
:100F8000020404040404040303030303030303032C
:100F9000030303030303030000000000000000003C
:100FA0000000000000000003030303030303030326
:100FB000030303030303030000000000000000001C
:100FC000000000000000000202020202020202020F
:100FD0000202020202020200000000000000000003
:100FE00000000000000000010101010101010101F8
:100FF00001010101010101000000000000000000EA
:1010000000000000000000030303030303030303C5
:1010100003030303030303000000000000000000BB
:1010200000000000000000000000000000000000C0
:101030000000000000000028282828282828282848
:10104000281E1E1E1E1E1E3C3C3C3C3C3C3C3C3CA8
:101050003C32323232323200000000000000000028
:10106000000000000000000F001E002D002D002DCC
:10107000001E001E001E001E001E002C01580284CF
:101080000384038403580258025802580258027D10
:10109000B3C7586C7E4831A38D332F31C7CDCD7D7A
:1010A000B3C7586C7E4831A38D332F31C7CDCD7C6B
:1010B000DCF77D6C7E1D047F8C332F31C7CDCD7B5B
:1010C000DCF656707E1D07A98B013B4AFDBFB58239
:1010D00053903F6C7DAA67BF8B013BA3FDBF588235
:1010E00053903F6C7DAA67BF8BEA7D5A0581A6812C
:1010F0005EB7646E80A26EBA88A02D515ACDA781CA
:1011000057BF3C6E80A23BC1888A2E5974CBA78101
:1011100081BE416E80783BBB8C852D5174CBA781FD
:10112000A1C5476E805935B58F8F245974CBA77DE3
:10113000B3C7586C7E4831A38D332F31C7CDCD0452
:101140000404040404040404040404040404040162
:10115000010101010101010101040404040404046A
:101160000404040404040404040404040404040142
:10117000010101010101010101010101010101015F
:10118000010101010101010101010101010101024E
:10119000020202020202020202020202020202022F
:1011A000020202020202020202020202020202021F
:1011B000020202020202020202020202020202040D
:1011C00004040404040404040404040404040400E3
:1011D000000000000000000000000000000000030C
:1011E00003030303030303030303030303030300D2
:1011F00000000000000000000000000000000002ED
:1012000002020202020202020202020202020200C0
:1012100000000000000000000000000000000001CD
:1012200001010101010101010101010101010100AF
:1012300000000000000000000000000000000003AB
:101240000303030303030303030303030303030071
:101250000000000000000000000000000000002866
:101260002828282828282828281414141414143C62
:101270003C3C3C3C3C3C3C3C3C1E1E1E1E1E1E009E
:101280000000000000000000000000000000000A54
:10129000000A000A000A00010023001E0028001EA8
:1012A000002C01F401F401BC023403BC02580220FA
:1012B0000358027DB3C7586C7E4831A38D332F315C
:1012C000C7CDCD7DB3C7586C7E4831A38D332F3148
:1012D000C7CDCD7D52D6596C7E4831A38D8F2F312D
:1012E00072CDCD7D52DA65727DA622978F8D2F311A
:1012F00072CDCD7DD2E450717C2319AC8EA72F2FF7
:1013000052CDCC7DDAF756717B1F05A88D09579217
:10131000FEA26C7DDCF47A6D7B1D05808D212A9206
:10132000DED26C7DDCDE7A717B1D1C878D62324ED5
:1013300092C5A97DA0F272717B5708878D522F4507
:10134000ADCDBF7DB3C7586C7E4831A38D332F31EF
:10135000C7CDCD0303030303030303030303030305
:10136000030303030303030303030303030303034D
:10137000030303030303030303030303030303033D
:10138000030303020202020202020202020202023A
:10139000020202010101010101010101010101013A
:1013A000010101000000000000000000000000003A
:1013B000000000000000000000000000000000002D
:1013C0000000000101010101010101010101010110
:1013D00001010102020202020202020202020202F0
:1013E00002020203030303030303030303030303D0
:1013F00003030303030303030303030303030303BD
:1014000003030303030303030303030303030303AC
:1014100003030302020202020202020202020202A9
:1014200002020201010101010101010101010101A9
:1014300001010100000000000000000000000000A9
:10144000000000000000000000000000000000009C
:10145000000000010101010101010101010101017F
:10146000010101020202020202020202020202025F
:10147000020202030303030303030303030303033F
:10148000030303030303030303030303030303032C
:101490000303030202020202020202020202020229
:1014A0000202020101010101010101010101010129
:1014B0000101010000000000000000000000000029
:1014C000000000000000000000000000000000001C
:1014D00000000001010101010101010101010101FF
:1014E00001010102020202020202020202020202DF
:1014F00002020203030303030303030303030303BF
:1015000003030303030303030303030303030303AB
:10151000030303030303030303030303030303039B
:101520000303030202020202020202020202020298
:101530000202020101010101010101010101010198
:101540000101010000000000000000000000000098
:10155000000000000000000000000000000000008B
:10156000000000010101010101010101010101016E
:10157000010101020202020202020202020202024E
:10158000020202030303030303030303030303032E
:10159000030303030303030303030303030303031B
:1015A0000303030202020202020202020202020218
:1015B0000202020101010101010101010101010118
:1015C00001010104040404040404040404040404E4
:1015D00004040400000000000000000000000000FF
:1015E00000000003030303030303030303030303D4
:1015F00003030303030303030303030303030303BB
:1016000003030302020202020202020202020202B7
:1016100002020201010101010101010101010101B7
:1016200001010100000000000000000000000000B7
:1016300000000000000000000000000000000000AA
:10164000000000010101010101010101010101018D
:10165000010101020202020202020202020202026D
:10166000020202030303030303030303030303034D
:10167000030303030303030303030303030303033A
:10168000030303030303030303030303030303032A
:101690000303030202020202020202020202020227
:1016A0000202020101010101010101010101010127
:1016B0000101010000000000000000000000000027
:1016C000000000000000000000000000000000001A
:1016D00000000001010101010101010101010101FD
:1016E00001010102020202020202020202020202DD
:1016F00002020203030303030303030303030303BD
:1017000003030303030303030303030303030303A9
:1017100003030302020202020202020202020202A6
:1017200002020201010101010101010101010101A6
:1017300001010100000000000000000000000000A6
:101740000000000000000000000000000000000099
:10175000000000010101010101010101010101017C
:10176000010101020202020202020202020202025C
:10177000020202030303030303030303030303033C
:101780000303030303030303030303030303030329
:101790000303030303030303030303030303030319
:1017A0000303030202020202020202020202020216
:1017B0000202020101010101010101010101010116
:1017C0000101010000000000000000000000000016
:1017D0000000000000000000000000000000000009
:1017E00000000001010101010101010101010101EC
:1017F00001010102020202020202020202020202CC
:1018000002020203030303030303030303030303AB
:101810000303030303030303030303030303030398
:101820000303030202020202020202020202020295
:101830000202020101010101010101010101010195
:101840000101010000000000000000000000000095
:1018500000000029292929292929292929141414B2
:101860001414143D3D3D3D3D3D3D3D3D3D1E1E1E80
:101870001E1E1E000000000000000000000000000E
:10188000000000050001000100010001000100014D
:101890000001000100010001000100010001000140
:1018A0000001000100010001000100010001000130
:1018B0000001000100010001000100010001000120
:1018C0000001000100010001000100010001000A07
:1018D000000F00C80019001900190019001900199B
:1018E0000019001900190019001900190019001930
:1018F0000019001900190019001900190019001920
:10190000001900190019001900190019001900190F
:10191000001900190019001900190019001900C850
:10192000002C017DB3C7586C7E4831A38D332F3115
:10193000C7CDCD7DB3C7586C7E4831A38D332F31D1
:10194000C7CDCD7DB3C7586C7E4831A38D332F31C1
:10195000C7CDCD82A5C9517386511F9395482C28B8
:1019600091D1C984ABC5537589561C94984E2B29C7
:101970009AD1CE84AFC357758B5B1B989A572B2B8C
:10198000A4D1D384B2C55B75895F1C9D98612B304F
:10199000ACD1D582B3C95F7386601FA195692B3521
:1019A000B3D2D67FB2CE6270825F23A6916F2A39FE
:1019B000B6D2D67CAFD4646D7F5C28AA8E712A3BE8
:1019C000B7D2D67CAFD4646D7F5C28AA8E712A3BD7
:1019D000B7D2D678ACD966697B582EAA8A6F2A39D5
:1019E000B6D2D674A7DD6765785333A9876A2B35DD
:1019F000B3D2D671A2E06662764D37A785612B30EF
:101A0000ADD1D56F9DE16260764939A385572B2B07
:101A1000A4D1D37199E05D627646379F854F2B291B
:101A20009AD1CE7498DD59657845339B87482C2828
:101A300092D1C97899D954697B462E988A452C2829
:101A40008CD0C57B9CD4506C7E4928968D442C2824
:101A50008AD0C37B9CD4506C7E4928968D442C2818
:101A60008AD0C382A5C9517386511F9395482C28EB
:101A700091D1C984ABC5537589561C94984E2B29B6
:101A80009AD1CE84AFC357758B5B1B989A572B2B7B
:101A9000A4D1D384B2C55B75895F1C9D98612B303E
:101AA000ACD1D582B3C95F7386601FA195692B3510
:101AB000B3D2D67FB2CE6270825F23A6916F2A39ED
:101AC000B6D2D67CAFD4646D7F5C28AA8E712A3BD7
:101AD000B7D2D67CAFD4646D7F5C28AA8E712A3BC6
:101AE000B7D2D678ACD966697B582EAA8A6F2A39C4
:101AF000B6D2D674A7DD6765785333A9876A2B35CC
:101B0000B3D2D671A2E06662764D37A785612B30DD
:101B1000ADD1D56F9DE16260764939A385572B2BF6
:101B2000A4D1D37199E05D627646379F854F2B290A
:101B30009AD1CE7498DD59657845339B87482C2817
:101B400092D1C97899D954697B462E988A452C2818
:101B50008CD0C57B9CD4506C7E4928968D442C2813
:101B60008AD0C37B9CD4506C7E4928968D442C2807
:101B70008AD0C382A5C9517386511F9395482C28DA
:101B800091D1C984ABC5537589561C94984E2B29A5
:101B90009AD1CE7DA6E56A6C7E5617968D332F318D
:101BA000C7CDCD7DB3C7586C7E4831A38D332F315F
:101BB000C7CDCD0404040404040404040404040490
:101BC00004040403030303030303030303030303E2
:101BD00003030302020202020202020202020202E2
:101BE00002020203030303030303030303030303C8
:101BF00003030302020202020202020202020202C2
:101C000002020201010101010101010101010101C1
:101C100001010100000000000000000000000000C1
:101C200000000000000000000000000000000000B4
:101C30000000000101010101010101010101010197
:101C40000101010202020202020202020202020277
:101C50000202020303030303030303030303030357
:101C60000303030303030303030303030303030344
:101C70000303030303030303030303030303030334
:101C80000303030202020202020202020202020231
:101C90000202020101010101010101010101010131
:101CA0000101010000000000000000000000000031
:101CB0000000000000000000000000000000000024
:101CC0000000000101010101010101010101010107
:101CD00001010102020202020202020202020202E7
:101CE00002020203030303030303030303030303C7
:101CF00003030303030303030303030303030303B4
:101D000003030302020202020202020202020202B0
:101D100002020201010101010101010101010101B0
:101D200001010100000000000000000000000000B0
:101D300000000000000000000000000000000000A3
:101D40000000000101010101010101010101010186
:101D50000101010202020202020202020202020266
:101D60000202020303030303030303030303030346
:101D70000303030303030303030303030303030333
:101D80000303030303030303030303030303030323
:101D90000303030202020202020202020202020220
:101DA0000202020101010101010101010101010120
:101DB0000101010000000000000000000000000020
:101DC0000000000000000000000000000000000013
:101DD00000000001010101010101010101010101F6
:101DE00001010102020202020202020202020202D6
:101DF00002020203030303030303030303030303B6
:101E000003030303030303030303030303030303A2
:101E1000030303020202020202020202020202029F
:101E2000020202010101010101010101010101019F
:101E30000101010202020202020202020202020285
:101E40000202020404040404040404040404040458
:101E50000404040000000000000000000000000076
:101E60000000000000000000000000000000000072
:101E70000000000000000000000000000000000062
:101E8000000000030303030303030303030303032B
:101E9000030303020202020202020202020202021F
:101EA000020202010101010101010101010101011F
:101EB000010101000000000000000000000000001F
:101EC0000000000000000000000000000000000012
:101ED00000000001010101010101010101010101F5
:101EE00001010102020202020202020202020202D5
:101EF00002020203030303030303030303030303B5
:101F000003030303030303030303030303030303A1
:101F10000303030303030303030303030303030391
:101F2000030303020202020202020202020202028E
:101F3000020202010101010101010101010101018E
:101F4000010101000000000000000000000000008E
:101F50000000000000000000000000000000000081
:101F60000000000101010101010101010101010164
:101F70000101010202020202020202020202020244
:101F80000202020303030303030303030303030324
:101F90000303030303030303030303030303030311
:101FA000030303020202020202020202020202020E
:101FB000020202010101010101010101010101010E
:101FC000010101000000000000000000000000000E
:101FD0000000000000000000000000000000000001
:101FE00000000001010101010101010101010101E4
:101FF00001010102020202020202020202020202C4
:1020000002020203030303030303030303030303A3
:102010000303030303030303030303030303030390
:102020000303030303030303030303030303030380
:10203000030303020202020202020202020202027D
:10204000020202010101010101010101010101017D
:10205000010101000000000000000000000000007D
:102060000000000000000000000000000000000070
:102070000000000101010101010101010101010153
:102080000101010202020202020202020202020233
:102090000202020303030303030303030303030313
:1020A0000303030303030303030303030303030300
:1020B00003030302020202020202020202020202FD
:1020C00002020201010101010101010101010101FD
:1020D00001010100000000000000000000000000FD
:1020E00000000000000000000000000000000000F0
:1020F000000000292929292929292929291414140A
:102100001414143D3D3D3D3D3D3D3D3D3D1E1E1ED7
:102110001E1E1E0000000000000000000000000065
:102120000000000500140001000100010001000191
:102130000001000100010001000100010001000197
:102140000001000100010001000100010001000187
:102150000001000100010001000100010001000177
:102160000001000100010001000100010001000167
:102170000001000A0014002C019001190019001937
:102180000019001900190019001900190019001987
:102190000019001900190019001900190019001977
:1021A0000019001900190019001900190019001967
:1021B0000019001900190019001900190019001957
:1021C00000190019001900900190017DB3C7586CE7
:1021D0007E4831A38D332F31C7CDCD7DB3C7586C29
:1021E0007E4831A38D332F31C7CDCD7DA0DC6B6C04
:1021F0007E581F928D332F31C7CDCD7899DA58692B
:102200007B482E978A392B33AED2D67497DF5B6525
:102210007846349B873A2B30B1D2D67098E25E6113
:10222000774639A0863B2B2DB6D2D66F9BE36360F1
:1022300076483CA5853F2B29BCD1D570A0E26661CC
:10224000764C3AA785442C28BFD1D173A5DF6864AA
:10225000785234A887492C28C1D1CE78A9DA686988
:102260007B582EA78A4D2C28C2D1CB7BADD4676C6E
:102270007E5C28A58D4E2B28C2D1CA7BADD4676C5D
:102280007E5C28A58D4E2B28C2D1CA7FB0CE63704C
:10229000825F22A2914D2C28C2D1CB82B2C85F733B
:1022A00086611D9F954A2C28C1D1CE83B2C35A7432
:1022B0008A601A9C99452C28C0D1D184B0C055752C
:1022C0008B5D19979A3F2B29BCD1D584ACC253752D
:1022D0008A581A94993C2B2DB7D2D682A6C852732D
:1022E00087531D92963A2B30B2D2D67FA0CE537030
:1022F000824F229291392B33AED2D67C9CD4556D2D
:102300007F4B28938E392B34ADD1D67C9CD4556D20
:102310007F4B28938E392B34ADD1D67497DF5B6514
:102320007846349B873A2B30B1D2D67098E25E6102
:10233000774639A0863B2B2DB6D2D66F9BE36360E0
:1023400076483CA5853F2B29BCD1D570A0E26661BB
:10235000764C3AA785442C28BFD1D173A5DF686499
:10236000785234A887492C28C1D1CE78A9DA686977
:102370007B582EA78A4D2C28C2D1CB7BADD4676C5D
:102380007E5C28A58D4E2B28C2D1CA7BADD4676C4C
:102390007E5C28A58D4E2B28C2D1CA7FB0CE63703B
:1023A000825F22A2914D2C28C2D1CB82B2C85F732A
:1023B00086611D9F954A2C28C1D1CE83B2C35A7421
:1023C0008A601A9C99452C28C0D1D184B0C055751B
:1023D0008B5D19979A3F2B29BCD1D584ACC253751C
:1023E0008A581A94993C2B2DB7D2D682A6C852731C
:1023F00087531D92963A2B30B2D2D67FA0CE53701F
:10240000824F229291392B33AED2D67C9CD4556D1B
:102410007F4B28938E392B34ADD1D67C9CD4556D0F
:102420007F4B28938E392B34ADD1D67497DF5B6503
:102430007846349B873A2B30B1D2D67098E25E61F1
:10244000774639A0863B2B2DB6D2D66F9BE36360CF
:1024500076483CA5853F2B29BCD1D56F9BE36260B4
:102460007659199B853F2B29BCD1D57DB3C7586CB4
:102470007E4831A38D332F31C7CDCD1414141414DD
:1024800014141414141414141414141E1E1E1E1EDA
:102490001E1E1E1E1E1E1E1E1E1E1E0000000000F2
:1024A0000000000000000000000000010001000129
:1024B000000100010001001400140040011400405C
:1024C0000114007DB3C7586C7E4831A38D332F3182
:1024D000C7CDCD7DB3C7586C7E4831A38D332F3126
:1024E000C7CDCD73B3C7585F744831A380332F3144
:1024F000C7CDCD63DBCE8254724339A17B22556EAA
:1025000076C3C96581CB2B55782451B47E82314C7A
:10251000CFC7E46581CB2A55782451B47B82314CF6
:10252000CFC7E47DB3C7586C7E4831A38D332F31BC
:10253000C7CDCD0202020202020202020202020220
:10254000020202020202020200020202000202026F
:102550000202020000000000000000000000000075
:10256000000000000000000000000000000000006B
:10257000000000000000000000000000000000005B
:102580000000000202020202020202020202020231
:102590000202020000000000000000000000000035
:1025A000000000000000000000000000000000002B
:1025B000000000000000000000000000000000001B
:1025C000000000000000000000000000000000000B
:1025D00000000000000000000000000000000000FB
:1025E00000000000000000000000000000000000EB
:1025F00000000014141414141414141414141414D7
:102600001414141E1E1E1E1E1E1E1E1E1E1E1E1E08
:102610001E1E1E0000000000000000000000000060
:10262000000000010001000100010001000A001487
:1026300000140040011400A401DC007DB3C7586CF5
:102640007E4831A38D332F31C7CDCD7DB3C7586CB4
:102650007E4831A38D332F31C7CDCD87B3C758798D
:10266000884831A39A332F31C7CDCD89B8BF5A7E60
:1026700098202A78A5843935D8A79083C4B64F7A94
:10268000967A2DD0A42B355078CBB283C4B64F8028
:10269000967A2DD0A42B355078CBB27DB3C7586C29
:1026A0007E4831A38D332F31C7CDCD020202020205
:1026B00002020202020202020202020202020202FA
:1026C00002020202020202020202020002020200EE
:1026D00002020202020202020202020000000000E4
:1026E00000000000000000000000000000000000EA
:1026F00000000000000000000000000202020202D0
:1027000002020202020202020202020000000000B3
:1027100000000000000000000000000000000000B9
:1027200000000000000000000000000000000000A9
:102730000000000000000000000000000000000099
:102740000000000000000000000000000000000089
:102750000000000000000000000000000000000079
:1027600000000000000000000000002828282828A1
:1027700028282828281414141414143C3C3C3C3CED
:102780003C3C3C3C3C1E1E1E1E1E1E000000000069
:102790000000000000000000000000050001000132
:1027A0000003006400DC0064003C007DA8C7556C99
:1027B0007E532FA78F332F31C7CDCD6B92E9635F47
:1027C0006C641B9F83383E28A6CED06B96E9665F6B
:1027D0008F5726A18C383E28A6CED07E96DE5C6B25
:1027E0007D621B9F904F2C28A6CED07DA5C7556C2F
:1027F0007E552FA78F332F31C7CDCD0202020202A3
:1028000002020202020202020202020202020202A8
:1028100000000000000303030303030000000000A6
:10282000000000000004040404040304040404047D
:10283000040404040404040404040400000000006C
:102840000000000000000000000000010101010183
:102850000000000000010101000000000000000075
:102860000000000000000000000000000000000068
:102870000000000000000000000000282828282890
:1028800028282828281414141414143C3C3C3C3CDC
:102890003C3C3C3C3C1E1E1E1E1E1E000000000058
:1028A0000000000000000000000000050001000121
:1028B0000003006400DC0064003C007DA5C7556C8B
:1028C0007E572FA78F332F31C7CDCD8B96E66178FA
:1028D0008E65109A9C4F2C28B7BCD0649AE0616B2F
:1028E0008E64139AA14F2C28B7BCD0799ADE5F5D15
:1028F0007D5E209C904F2C28A6CED07DA7C7556C1E
:102900007E542FA78F332F31C7CDCD020202020292
:1029100002020202020202020202020000000000A1
:102920000202020202040404040404000000000085
:102930000202020202040404040404040404040461
:10294000040404040404040404040400000000005B
:102950000000000000000000000000000000000077
:10296000010101010100000001010100000000005F
:102970000000000000000000000000000000000057
:1029800000000000000000000000001414141414E3
:1029900014141414141414141414141E1E1E1E1EC5
:1029A0001E1E1E1E1E1E1E1E1E1E1E0000000000DD
:1029B0000000000000000000000000010001000114
:1029C000000A000A001400080240012C0108027DE0
:1029D000B3C7586C7E4831A38D332F31C7CDCD7D21
:1029E000B3C7586C7E4831A38D332F31C7CDCD7D11
:1029F0005ECD596C7A9933A88C0A6769F1928F770A
:102A0000DFF9726B7C1D028E8F0B3169E9CA8B7DF9
:102A1000B9F9826C7C43017C912D4145C9BDAF7DE4
:102A2000B3C7586C7E4831A38D332F31C7CDCD024B
:102A30000202020202020202020202020202020276
:102A40000202020202020202020202020202020068
:102A50000000000000000000000000000000000076
:102A60000000000000000000000000000000000264
:102A70000202020202020202020202020202020038
:102A80000000000000000000000000000000000046
:102A90000000000000000000000000000000000036
:102AA0000000000000000000000000000000000026
:102AB0000000000000000000000000000000000016
:102AC00000000000000000000000000000000014F2
:102AD0001414141414141414141414141414141EAC
:102AE0001E1E1E1E1E1E1E1E1E1E1E1E1E1E1E0024
:102AF00000000000000000000000000000000001D5
:102B0000000100010001001E001400DC00A4015EB1
:102B10000158027DB3C7586C7E4831A38D332F31E5
:102B2000C7CDCD7DB3C7586C7E4831A38D332F31CF
:102B3000C7CDCD7AB3C8576C7A4630A38D14832A9B
:102B4000EE6FC97A85C86E6780762F8D8D16C86C3A
:102B5000E82F857459ED516884A010AD9201D277A9
:102B6000FE27797DB3C7586C7E4831A38D332F3152
:102B7000C7CDCD02020202020202020202020202DA
:102B8000020202000000000000000000000000003F
:102B90000000000000000000000000000000000035
:102BA0000000000000000000000000000000000025
:102BB00000000002020202020202020202020202FB
:102BC00002020200000000000000000000000000FF
:102BD00000000000000000000000000000000000F5
:102BE00000000000000000000000000000000000E5
:102BF00000000000000000000000000000000000D5
:102C000000000000000000000000000000000000C4
:102C100000000014141414141414141414141414B0
:102C20001414141E1E1E1E1E1E1E1E1E1E1E1E1EE2
:102C30001E1E1E000000000000000000000000003A
:102C40000000000A0028000A002800F401E803D070
:102C500007E8037DB3C7586C7E4831A38D332F310D
:102C6000C7CDCD7DB3C7586C7E4831A38D332F318E
:102C7000C7CDCD7D93F76A6C7E6604918D332F317D
:102C8000C7CDCD7D93F76A6C7E6604918D332F316D
:102C9000C7CDCD7DB3C7586C7E4831A38D332F315E
:102CA000C7CDCD02020202020202020202020202A9
:102CB00002020202020202020202020202020202F4
:102CC00002020200000000000000000000000000FE
:102CD00000000004040404040404040404040404C0
:102CE00004040400000000000000000000000000D8
:102CF00000000001010101010101010101010101C7
:102D00000101010303030303030303030303030399
:102D100003030300000000000000000000000000AA
:102D2000000000141414141414141414141414149F
:102D30001414141E1E1E1E1E1E1E1E1E1E1E1E1ED1
:102D40001E1E1E0000000000000000000000000029
:102D50000000000A0028000A000A002800F401E828
:102D600003F401F401E8037DB3C7586C7E4831A336
:102D70008D332F31C7CDCD7DB3C7586C7E4831A37D
:102D80008D332F31C7CDCD7DB3C7586C7E4831A36D
:102D90008DBB3A2EC7CDCD7DB3C7586C7E4831A3CD
:102DA0008DBA672EC7CDCD7DB3C7586C7E4831A391
:102DB0008DBB3A2EC7CDCD7DB3C7586C7E4831A3AD
:102DC0008D332F31C7CDCD02020202020202020270
:102DD00002020202020202020202020202020202D3
:102DE00002020202020202020202020202020202C3
:102DF00002020202020202020202020202020202B3
:102E00000202020202020204040404040404040490
:102E10000404040404040400000000000000000096
:102E200000000000000000000000000000000000A2
:102E30000000000000000000000000000000000092
:102E40000000000000000000000000000000000082
:102E50000000000000000000000000000000000072
:102E600000000000000000141414141414141414AE
:102E7000141414141414141E1E1E1E1E1E1E1E1EB8
:102E80001E1E1E1E1E1E1E00000000000000000070
:102E90000000000000000028000A001400140001D7
:102EA0000001000A000A001900140014001E00842A
:102EB00003C800900190017800080290019001F48D
:102EC000019001900158027DB3C7586C7E4831A330
:102ED0008D332F31C7CDCD7DB3C7586C7E4831A31C
:102EE0008D332F31C7CDCD7DB0F7796C7E4702820F
:102EF0008D332F31C7CDCD81B4EC6A4B8B47028225
:102F00007403324DEF9DA033B4EC6A5F8B470282AD
:102F10007401324AE89EA03398ED2D5F8B47028200
:102F200074023231E898A03385952D5F8B47028279
:102F300074023233E88FA0338EEA305F8B4702820F
:102F400074023231E89AA07BC2D256528B47028279
:102F500074023231E895A084CADC695B903F047D3D
:102F60008A443431E8AAA07BAEF8766A814C0487A3
:102F70008F343231DBC2D57B9BF8766A815F048760
:102F80008F343231DBC2D57DB3C7586C7E4831A354
:102F90008D332F31C7CDCD0404040404040404048C
:102FA00004040404040404040404040404040404E1
:102FB00004040404040404040404040404040404D1
:102FC00004040404040404040404040404040404C1
:102FD00004040404040404000000000004040404C5
:102FE00004040404040404000000000004040404B5
:102FF00004040404040404000000000004040404A5
:103000000404040404040404040403040404040481
:103010000404040404040404040403040404040471
:103020000404040404040404040403040404040461
:103030000404040404040404040403040404040451
:103040000404040404040404040404040404040440
:103050000404040404040400000000000000000054
:103060000000000000000002020202020000000056
:103070000000000000000000000000000000000050
:103080000000000000000002020202020000000036
:103090000000000000000003030303030000000021
:1030A0000000000000000003030303030000000011
:1030B0000000000000000002020202020000000006
:1030C00000000000000000020202020200000000F6
:1030D00000000000000000000000000000000000F0
:1030E00000000000000000000000000000000000E0
:1030F00000000000000000000000000000000000D0
:1031000000000000000000000000000000000000BF
:103110000000000000000028282828282828282847
:10312000281414141414143C3C3C3C3C3C3C3C3CE3
:103130003C1E1E1E1E1E1E0000000000000000009F
:10314000000000000000001400140014001400141B
:103150000014001400010001000A0028000F000FF5
:1031600000050032003200320001002D002D000A5F
:10317000000A000A000A002D000A000A000A000ADC
:10318000002D0050001E000F000F000F000F000F59
:10319000000F000F000F0084038403840384038462
:1031A000038403840308020802F40140065802580D
:1031B000023408FC03FC03FC03E40784038403F4E7
:1031C00001F401F401F4018403F401F401F401F4C5
:1031D000018403400640065802580258025802581B
:1031E000025802580258027DB3C7586C7E4831A37A
:1031F0008D332F31C7CDCD7DB3C7586C7E4831A3F9
:103200008D332F31C7CDCD7CB5F77C6C7E47047FE5
:103210008D332F31C7CDCD7C77F77C6C7E83047FD7
:103220008D87304C6CCDA77C4EF77C6C7EB9047FCB
:103230008D8730046CCDEF79DDFA686C7E9F429B00
:103240008DBE300436CDEF79DDFA686C7E9F5AC6AC
:103250008DCE390835B6F479DDFA686C7E9F42B9B7
:103260008DBE30040F5E8D79DDFA686C7E9F42B9A9
:103270008DBE3004AE7D8D79DDFA686C7E9F42B9DB
:103280008DBE3004B472E379DDFA686C7E9F6CCA3F
:103290008DCD3004AB32CA369FFA686C7E1C0E9C12
:1032A0008DCD3004AB32CA7E9FFA686C811C0E9CB7
:1032B0008DCD2B049728E67EC6C66D6C81373E9C6B
:1032C0008DCD2B049728E658D9817E6CA71C717F81
:1032D0008DCD2B049728E635D9897E6CC41C717F6F
:1032E0008DCD2B049728E616D98A7E6CEA1C717F57
:1032F0008DCD2B049728E658D9867E6CA71C717F4C
:103300008DCD2B049728E658D9867E6CA71C717F3B
:103310008DCD2B049728E67CC2F76D6B8138049322
:1033200090CD2B049728E67CCBD96D6B812F23930E
:1033300090CD2B049728E67CB0B2616B811D14936D
:1033400090CF2B048F28E67CBDCB616B8116319327
:1033500090CD2B049728E67CD8C9626B813C2A9FCC
:1033600090CD2B049728E67CE4D2686B81533AB366
:1033700090CD2B049728E67CCBD96D6B812F2393BE
:1033800090CD2B049728E67CB0B2616B811D14931D
:1033900090CF2B048F28E67CBDCB616B81163193D7
:1033A00090CD2B049728E67CD8C9626B813C2A9F7C
:1033B00090CD2B049728E67CE4D2686B81533AB316
:1033C00090CD2B049728E67CCBD96D6B812F23936E
:1033D00090CD2B049728E681BFF76D6B829A798395
:1033E00090CD2B049728E6815E813A6E80A271C44D
:1033F00088CD4E049779E6815E8A3B6E809978C4C9
:1034000088CD4E04C2848D815C81396E80A279C4DE
:1034100088CD4E0440848D815A84386E80A279C450
:1034200088D0242E34D0DE815EB7646E80A26EBA5E
:1034300088A72D575ACAA78157C5476E80A239BAA7
:103440008F822D5374CBA7817DC5476E80783BB8A2
:103450008F8F245974CBA77BA6DF5E6A7D5123A290
:103460008D8F245974CBA77DB3C7586C7E4831A388
:103470008D332F31C7CDCD040404040404040404A7
:1034800004040404040404040404040404040404FC
:1034900004040404040404040404040404040404EC
:1034A00004040404040404040404040404040404DC
:1034B00004040404040404040404040404040400D0
:1034C00000040404040404040404040404040400C4
:1034D00000040404040404040404040404040400B4
:1034E00000040404040404040404040404040400A4
:1034F00000010101010101040404040404040400A6
:103500000001010101010104040404040404040095
:10351000000101010101010101010101010101009D
:10352000000101010101010101010101010101008D
:103530000001010101010104040404040404040065
:103540000004040404040404040404040404040043
:103550000001010101010100000000000000000065
:10356000000000000000000000000000000000005B
:10357000000000000000000000000000000000004B
:10358000000000000000000000000000000000003B
:103590000000000000000002020202020202020219
:1035A00002040404040404020202020202020202EF
:1035B00002040404040404020202020202020202DF
:1035C00002040404040404020202020202020202CF
:1035D00002040404040404020202020202020202BF
:1035E00002040404040404020202020202020202AF
:1035F000020404040404040202020202020202029F
:10360000020404040404040202020202020202028E
:10361000020404040404040202020202020202027E
:10362000020404040404040202020202020202026E
:10363000020404040404040202020202020202025E
:10364000020404040404040202020202020202024E
:10365000020404040404040202020202020202023E
:10366000020404040404040202020202020202022E
:10367000020404040404040202020202020202021E
:10368000020404040404040202020202020202020E
:1036900002040404040404020202020202020202FE
:1036A00002040404040404020202020202020202EE
:1036B00002040404040404020202020202020202DE
:1036C00002040404040404020202020202020202CE
:1036D00002040404040404020202020202020202BE
:1036E00002040404040404020202020202020202AE
:1036F00002040404040404000000000000000000B0
:1037000000000000000000000000000000000000B9
:1037100000000000000000000000000000000000A9
:103720000000000000000000000000000000000099
:103730000000000000000000000000000000000089
:103740000000000000000000000000000000000079
:103750000000000000000000000000000000000069
:103760000000000000000000000000000000000059
:103770000000000000000000000000000000000049
:103780000000000000000000000000000000000039
:103790000000000000000000000000000000000029
:1037A0000000000000000000000000000000000019
:1037B0000000000000000000000000000000000009
:1037C00000000000000000010101010101010101F0
:1037D00001010101010101030303030303030303C7
:1037E00003030303030303010101010101010101BB
:1037F00001010101010101000000000000000000C2
:10380000000000000000000303030303030303039D
:103810000303030303030300000000000000000093
:103820000000000000000000000200000000020094
:103830000000000000000000000000000000000088
:10384000000000000000000003000003000300006F
:103850000300000000000002000000000200000061
:103860000000000000000000000000000000000058
:103870000000000000000000000000000000000048
:103880000000000000000000000000000000000038
:103890000000000000000000000000000000000028
:1038A0000000000000000000000000000000000018
:1038B0000000000000000000000000000000000008
:1038C00000000000000000000000000000000000F8
:1038D00000000000000000000000000000000000E8
:1038E00000000000000000000000000000000000D8
:1038F00000000000000000000000000000000000C8
:1039000000000000000000000000000000000000B7
:1039100000000000000000000000000000000000A7
:103920000000000000000000000000000000000097
:103930000000000000000000000000000000000087
:103940000000000000000000000000000000000077
:103950000000000000000000000000000000000067
:103960000000000000000000000000000000000057
:10397000000000000000004255533D25640D0A0080
:103980000000240348066A098C0CAB0FC812E2152C
:10399000F9180B1C1A1F2322282526281F2B112E4D
:1039A000FB30DF33BA368C39563C173FCE417A4470
:1039B0001C47B4493F4CBF4E33519B53F5554258B9
:1039C000825AB45CD75EEC60F162E864CF66A668A8
:1039D0006D6A246CCA6D5F6FE2705572B5730475C1
:1039E00041766C7784788A797D7A5D7B2A7CE47C69
:1039F0008A7D1D7E9D7E097F627FA77FD87FF67FAF
:103A0000564F4C54000000495200000000004B4249
:103A10004400000000524E4400000000534552563E
:103A20004F00005449434B000000504F52540000D7
:103A300000524F4D00000000545950450000004115
:103A40004253000000004D4150495200004B495282
:103A50000000000046494E440000004356423249EF
:103A600000004E4500000000004E53000000000022
:103A70004D41580000000053554D000000004D49D5
:103A80004E000000004E4F524D0000005351525462
:103A900000000053494E00000000434F5300000057
:103AA00000494D415800000048414D0000000052BF
:103AB000414E474500005349470000000044534928
:103AC000470000005354414E4400005A45524F53A2
:103AD00000004D49430000000058000000000000B5
:103AE000590000000000005A000000000000505380
:103AF00044000000004752455900000054555254FC
:103B00004C45004556454E5400004D4150000000C4
:103B100000534855460000005343414C4500000007
:103B2000000000000000000000000000004572726C
:103B3000202D2064697620300D0A006576616C20A6
:103B4000737461636B20706F70206572726F722086
:103B500025642C202564205B25642C25645D0D0ADA
:103B6000006576616C20737461636B206572726F9F
:103B7000722025642C2025640D0A006576616C2076
:103B8000737461636B206572722025642C25640A4E
:103B9000004576616C203D25730A006576616C20D6
:103BA000737461636B206572726F720A006576616F
:103BB0006C20737461636B206572726F720A0065AA
:103BC00076616C20737461636B206572726F720A28
:103BD000002564202D2025640A00737461636B2026
:103BE00025640A002564202D205B25635D0A004FB3
:103BF00070732025640A002563203D20256C642015
:103C000020002563203D20256C64202000256320B2
:103C10003D20256C6420200070616E696320657210
:103C2000726F720D0A004D41502025642025640DED
:103C30000A00256420256420256420256C640D0A73
:103C4000004576616C2025632025642025730A00D9
:103C50004661696C20437265617465206F757420DC
:103C60006F66207370616365202D2025640A004310
:103C70007265617465202D2D2025642025640A005D
:103C80004661696C20437265617465202D2D202585
:103C9000640A0040256320416C7265616479206587
:103CA00078697374732025640A00437265617465D2
:103CB0002025632025640A0044657374726F79209F
:103CC00025630A000A002025640021205B25336457
:103CD0005D000A00202564002563205B2533645DB8
:103CE00000426164204D6174726978206465666980
:103CF0006E6974696F6E0A0043616E277420637287
:103D000065617465206D61747269780A004261644E
:103D1000204D61747269782073697A652028256462
:103D20002C256429202A202825642C256429200A92
:103D300000204D6174726978204D756C7420256384
:103D40002825642C256429202A2020256328256421
:103D50002C256429200A004572723A206C6973741C
:103D6000637265617465206661696C65640A00252B
:103D7000336420006D6174726978202725632720E1
:103D800025647825640A00437265617465206D615D
:103D90007472697820272563272025647825640AB2
:103DA00000446F6E650D0A004D6F76652025642016
:103DB0003D2025640A00696E76616C696420736534
:103DC00072766F2069642025640A00446F6E650D69
:103DD0000A00576169742025640A004D6F766520DA
:103DE0002564203D2025640A00457272202D207331
:103DF0006572766F2069642025640A00457272201E
:103E00002D207365747570206172726179205B2555
:103E1000642C25645D0A0025642000457272202D03
:103E2000736572766F2069642025640A0025643A00
:103E30002000446F6E650A00507265737320616ED6
:103E400079206B657920746F207265636F726420CE
:103E50006F7220276573632720746F2066696E690F
:103E600073680A00506173736976652025640A00DF
:103E7000457272202D20736572766F20696420254B
:103E8000640A00457272202D20736574757020617C
:103E900072726179205B25642C25645D0A003F20E5
:103EA000436D64206E6F7420617661696C61626C31
:103EB000650D0A00434F20707432202020203D20E1
:103EC00025640A00434F20707431202020203D20BB
:103ED00025640A004D75742072616E6765203D206F
:103EE0002B2F2D25640A004D757420726174652096
:103EF000203D2025640A0047656E65726174652067
:103F0000203D2025640A006C656E677468202020BF
:103F1000203D2025640A005479706520202020204F
:103F2000203D2025640A004572726F72202D206D9D
:103F300075746174696F6E2072616E6765206D754E
:103F40007374206265203E300A00256429203D20DC
:103F5000282564202564292025640D0A004646543E
:103F60002028256429203D2025640D0A002C256485
:103F700000256400496E76616C69642073616D7020
:103F80006C652073697A65206D7573742062652095
:103F90006F6E65206F6620382C31362C3332206FDF
:103FA000722036340A005365742074696D6572207E
:103FB000256C642C2025640A004442473A3A204D7F
:103FC0004F56452025643D25640A00456E64206FE8
:103FD000662070726F6772616D0D0A004D6F7469B3
:103FE0006F6E2072616E67653A202030202D20317F
:103FF000380D0A00506C6179204D6F74696F6E2026
:1040000025640D0A002C256400256400256C6400DD
:1040100044756D6D79202D5B25635D205B25735D97
:104020000A004572723A3A206C6179657220332039
:104030006E6575726F6E73206D757374206D61742B
:104040006368206F757470757420286F72206265C4
:10405000207A65726F290A004572723A3A20496ED9
:1040600070757420616E64206F7574707574206D46
:1040700075737420626520677420300A00743D25D2
:10408000640A000A0025642C2000743D25640A009F
:1040900025642C2000743D25640A0025642C200032
:1040A000743D25640A00464F25643D25640A003F9F
:1040B0004E6F204C3320736572766F20737065638A
:1040C00069666965640A00536572766F2025643DF0
:1040D00025640A004F4F3D25640A0054683D2D2891
:1040E0002564290A00282564292054683D25640A8E
:1040F000534F3D25640A00536572766F20726561E7
:1041000064206661696C0A00496E7075743D2564AF
:10411000202825642078202564290A00496E7075BE
:10412000743D2564202825642078202564290A0010
:104130004F5554505554204E4555524F4E203D201A
:1041400025640A004D4F544F52204E4555524F4E54
:10415000203D2025640A004F483D25640A0054682C
:104160003D2D282564290A00496E7075743D25642B
:10417000202825642078202564290A0048494444E1
:10418000454E204E4555524F4E203D2025640A0095
:104190004F25643D25640A0025642D282564290ADD
:1041A0000025643C3D282564290A00496E70757419
:1041B0003D2564202825642078202564290A0049AB
:1041C0004E505554204E4555524F4E203D202564AB
:1041D0000A00436F6E6E2050657220494E50555450
:1041E000204E4555524F4E203D2025640A004F6613
:1041F00066736574203D20256420282564290A0AF9
:10420000004E4F204C33203D2025640A0A004E4FBB
:10421000204C32203D2025640A004E4F204C312096
:104220003D2025640A00466C616773203D202564AB
:104230000A004E4F4F2020203D2025640A004E4F9B
:10424000492020203D2025640A0011241FBECFEF05
:10425000D0E1DEBFCDBF16E0A0E0B1E0E6ECFBE3CD
:1042600001E00BBF02C007900D92A035B107D9F74E
:104270001DE0A0E5B6E001C01D92A93BB107E1F742
:104280000E94D6240C94E19D0C9400008091EE08CD
:104290009091EF08883C910510F4DA9814C0809151
:1042A000EE089091EF08893C910560F08091EE084E
:1042B0009091EF0821E08039920720F4DA9ADB9A96
:1042C000DC980895DA9ADB9ADC9A08959093EB08CB
:1042D0008093EA088091EA089091EB080097D1F763
:1042E00008951F920F920FB60F920BB60F921124E2
:1042F0002F933F934F935F936F937F938F939F93EE
:10430000AF93BF93EF93FF9389E182BF8091FC0845
:104310009091FD0801969093FD088093FC08809190
:10432000EA089091EB08009749F08091EA08909193
:10433000EB0801979093EB088093EA080E944621CE
:104340008091E106882389F08091EE089091EF0832
:104350006091060170E00E94C59B009731F48FE0E8
:10436000809396098CED0E94E12B8091EE0890914C
:10437000EF0801969093EF088093EE088091EE0885
:104380009091EF0823E0883E920708F443C0109212
:10439000EF081092EE088091EC089091ED080097DC
:1043A00049F08091EC089091ED0801979093ED0809
:1043B0008093EC088091E9088F5F8093E9088091F1
:1043C000E9088C3338F11092E9088091F608909151
:1043D000F708009749F08091F6089091F708019747
:1043E0009093F7088093F6088091DD088F5F8093A3
:1043F000DD088091DD088C3368F01092DD08809133
:10440000E1088F5F8093E1088091E108883110F026
:104410001092E108FF91EF91BF91AF919F918F9121
:104420007F916F915F914F913F912F910F900BBEB4
:104430000F900FBE0F901F9018951F920F920FB6FE
:104440000F9211240F900FBE0F901F90189580911E
:10445000DA08882321F1809112099091130925E24D
:104460008C31920728F01092F9081092F80809C0D0
:104470008091F8089091F90801969093F90880933B
:10448000F8088091F8089091F9088730910578F143
:104490001092DA081092F9081092F80808958091A5
:1044A00012099091130925E28C31920770F0109255
:1044B000F9081092F8088091E4089091E5080196B7
:1044C0009093E5088093E40804C01092E5081092E8
:1044D000E4088091E4089091E5088330910538F074
:1044E00081E08093DA081092E5081092E4080895BC
:1044F0000F931F93CF93DF9321E02093DE0885E095
:1045000090E09093F7088093F608809112099091BB
:10451000130900D000D00F92EDB7FEB73196ADB7BA
:10452000BEB711962C9320E831E032832183948327
:1045300083830E9425280F900F900F900F900F906B
:1045400005E011E0CAE5D1E063C00E946E2597FF47
:1045500066C00E94782D97FF62C08091E908602FA5
:104560000E94B99B992359F53091DD082091E90803
:1045700080911209909113094DB75EB74950504090
:104580000FB6F8945EBF0FBE4DBFEDB7FEB73196C4
:10459000ADB7BEB711961C93D283C1833383148207
:1045A00025831682908787830E9425284DB75EB7A2
:1045B000475F5F4F0FB6F8945EBF0FBE4DBFAF9A17
:1045C000809165008B7F809365000E94AC2C0E94D7
:1045D00027228091DA08882311F1C49A88E290E0BA
:1045E0000E946621C4988CEC91E00E946621809123
:1045F00065008460809365000E94AC2C0E94272295
:104600008091DA08882359F084EF91E00E946621B6
:104610008091F6089091F708009709F096CF85E50C
:1046200090E09093F7088093F60805E011E0CBE363
:10463000D1E063C00E946E2597FF66C00E94782D6E
:1046400097FF62C0AF9A8091E7089091E80851E027
:10465000853F950720F0809165008B7F03C0809196
:1046600065008460809365008091E7089091E80878
:10467000009741F08091E7089091E808A1E0843F1D
:104680009A07B1F50E94AC2C0E9427228091E9087C
:10469000602F0E94B99B992359F53091DD08209134
:1046A000E90880911209909113094DB75EB74950FE
:1046B00050400FB6F8945EBF0FBE4DBFEDB7FEB7CA
:1046C0003196ADB7BEB711961C93D283C1833383A5
:1046D000148225831682908787830E9425284DB7F0
:1046E0005EB7475F5F4F0FB6F8945EBF0FBE4DBF1A
:1046F0008091DA08882341F0C49A8091F60890915D
:10470000F708009709F096CFC4981092DE088091C0
:1047100012099091130900D000D00F92EDB7FEB7A7
:10472000319621E0ADB7BEB711962C932FE231E060
:1047300032832183948383830E9425280F900F90D6
:104740000F900F900F90DF91CF911F910F910895CF
:1047500089B38370813049F48AE090E00E94662139
:10476000C89B03C081E08093E60889B383708230E0
:1047700059F48AE090E00E94662189B38370823008
:1047800019F483E08093E6080895FF920F931F9336
:10479000CF93DF9300D00F9281E0ADB7BEB71196F3
:1047A0008C93119780E291E013969C938E931297CD
:1047B0000E9425280F900F900F90CAE0D0E0FF24B0
:1047C000F39408E111E0AF9882E390E00E94662143
:1047D0000E94AC2C0E94272280911209909113090B
:1047E00000D000D00F92EDB7FEB73196ADB7BEB78F
:1047F0001196FC9212830183948383830E9425285F
:10480000AF9A0F900F900F900F900F9082E390E06F
:104810000E9466212197B9F68091DA08882311F168
:1048200000D00F92EDB7FEB7F18280E091E0938364
:1048300082830E9425280F900F900F900E94804243
:104840000E94782200D00F92ADB7BEB71196FC92AD
:10485000119785EF90E013969C938E9312970E9488
:1048600025280CC000D00F92EDB7FEB7F18284EE80
:1048700090E0938382830E942528AF980F900F9039
:104880000F90DF91CF911F910F91FF90089580912C
:10489000E608813011F40E94C523089593E09BBB84
:1048A0008CEF8ABB18BA84E787BB15BA80E884BB53
:1048B00023E822BB81BB20E323B928E022B9109270
:1048C0006200109261001092650024E02093640061
:1048D00010BE23BF12BE11BE1FBC25E02EBD1DBCE5
:1048E0001CBC17BC16BC1BBC1ABC19BC18BC109253
:1048F00079001092780025BD14BC13BC10928B0077
:1049000090938A0010928900109288001092810082
:1049100010928000109287001092860010928500FD
:1049200010928400109283001092820010926A000C
:1049300090E29ABF20E429BF17BE10927D001BB8F9
:1049400048E14AB936E0309395001092900027E094
:1049500029B910929B0040939A0030939D001092C9
:1049600098002093990088B910BC97B916B8109296
:1049700074000895DA9ADB9ADC9AE5E6F0E080812B
:1049800084608083AF9ADD9ADE9ADF9AC598109290
:10499000A3091092A5091092EF081092EE08109248
:1049A000E9081092DD081092E10808950E944E2453
:1049B0000E94BA240E942B2560E072EC81E090E016
:1049C0000E940E258BE495E20E94BF26789487B75B
:1049D000816087BF809165008B7F809365000E9416
:1049E000932E0E94A8230E9447240E94813BFFCF60
:1049F0008FEF98E062E576E040E450E00E942326E5
:104A000088E099E062E976E040E450E00E942326E5
:104A10000895909351068093500608959B01AC0130
:104A20006B54704E834E9F4FF3E0660F771F881FC5
:104A3000991FFA95D1F7E4E0220F331F441F551F49
:104A4000EA95D1F70E94EC9B2150304020939900C9
:104A50003093980008950E94F82410925106109205
:104A6000500688ED80939A0060E875E280E090E05F
:104A70000E940E258FEF8093FE0810920709109276
:104A8000110910921009789408958FEF98E0089515
:104A900088E099E008959091FE089923E1F38093CE
:104AA0009C001092FE080895CF93DF93EC01809153
:104AB000010990910209009769F080910309909192
:104AC0000409009739F08FEF98E00E943026888320
:104AD0008FEF01C080E0DF91CF910895DF93CF93F6
:104AE0000F92CDB7DEB7CE0101960E9454258823E0
:104AF00019F0298130E002C02FEF3FEFC9010F907C
:104B0000CF91DF910895109204091092030908953E
:104B10008091030990910409009711F48FEF089593
:104B200080E00895682F88E099E00E948826089523
:104B30008FEF8093070988E099E00E9430260E9459
:104B40004B2508951F920F920FB60F920BB60F923E
:104B500011242F933F934F935F936F937F938F9382
:104B60009F93AF93BF93EF93FF938091070988239F
:104B700079F080910C0990910D09009739F088E047
:104B800099E00E94302680939C0005C0109207098E
:104B90008FEF8093FE08FF91EF91BF91AF919F91AE
:104BA0008F917F916F915F914F913F912F910F90D6
:104BB0000BBE0F900FBE0F901F9018951F920F9273
:104BC0000FB60F920BB60F9211242F933F934F9372
:104BD0005F936F937F938F939F93AF93BF93EF9365
:104BE000FF9360919C002091500630915106211551
:104BF000310539F0E0915006F0915106862F099564
:104C00000FC08FEF98E00E948826882349F4809196
:104C10001009909111090196909311098093100940
:104C2000FF91EF91BF91AF919F918F917F916F9184
:104C30005F914F913F912F910F900BBE0F900FBE40
:104C40000F901F901895FC018FB7F89471836083C3
:104C50005383428317821682158214828FBF089570
:104C6000FC019FB7F8944481558141155105C9F065
:104C700026813781A081B181A20FB31F8C912F5F54
:104C80003F4F37832683628173812617370720F0D1
:104C9000261B370B3783268341505040558344836E
:104CA00001C080E09FBF0895FC01AFB7F894248154
:104CB000358162177307A0F486819781860F971F4D
:104CC00097838683428153818417950720F0841B44
:104CD000950B97838683261B370B3583248302C06D
:104CE00015821482AFBF0895FC01CB012FB7F89451
:104CF00046815781840F951F628173810E94C59BF5
:104D00000190F081E02DE80FF91F80812FBF0895F9
:104D10001F93FC01162F4FB7F894A481B58122810F
:104D20003381A217B307A0F4868197818A0F9B1F56
:104D3000B9010E94C59BA081B181A80FB91F1C9326
:104D4000848195810196958384834FBF8FEF02C044
:104D50004FBF80E01F910895FC014FB7F894228166
:104D6000338184819581281B390B4FBFC901089578
:104D70002FB7F894FC01158214822FBF08959093E9
:104D8000DF068093DE0608951F93182F8A3031F4D2
:104D9000E091DE06F091DF068DE00995E091DE06F8
:104DA000F091DF06812F09951F910895CF93DF932E
:104DB000009739F0EC0102C00E94C4268991882333
:104DC000D9F7DF91CF910895EF92FF920F931F9340
:104DD000CF93DF937A010097E9F0FC0180E090E047
:104DE000EF018617970718F000E010E010C021913E
:104DF000EF0101962223A1F7F7CF8881882311F0D4
:104E0000219601C080E20E94C4260F5F1F4F0E153D
:104E10001F0598F3DF91CF911F910F91FF90EF90B5
:104E20000895CF93DF93EC01009719F407C00E9417
:104E3000C426FE01219684918823C9F7DF91CF9182
:104E400008958AE00E94C4260895E82FF0E0EF70EC
:104E5000F070E057FE4F84910E94C42608951F937E
:104E6000182F82958F700E942527812F0E94252759
:104E70001F9108951F93182F892F0E942F27812F8C
:104E80000E942F271F910895EF92FF920F931F9377
:104E90007B018C01C8010E943A27C7010E943A2772
:104EA0001F910F91FF90EF9008952F923F924F9294
:104EB0005F927F928F929F92AF92BF92CF92DF923A
:104EC000EF92FF920F931F93DF93CF93CDB7DEB78F
:104ED000A2970FB6F894DEBF0FBECDBF282E862E48
:104EE000942E722E57016801442351F017FF08C019
:104EF00066277727CB016E197F09800B910B02C0C3
:104F0000C601B50118A2332444245524A2019101FD
:104F10000E94EC9B6F70707060577E4FFB01649134
:104F20006F8FB901CA018E01025E1F4F382D3150BB
:104F300021E0992009F420E0321BA801431B51090C
:104F40005AA349A318C0611571058105910579F02F
:104F5000A20191010E94EC9B6F70707060577E4FB0
:104F6000FB016491F8016083B901CA0102C0F80134
:104F700070820150104078010894E11CF11C29A1B5
:104F80003AA102171307F9F69920C1F0D7FE03C022
:104F900078018DE20AC0A114B104C104D10419F052
:104FA00078018BE202C0780180E2F701808306C0BD
:104FB000F70181917F010E94C4268A948820C1F75D
:104FC000A2960FB6F894DEBF0FBECDBFCF91DF9192
:104FD0001F910F91FF90EF90DF90CF90BF90AF9017
:104FE0009F908F907F905F904F903F902F9008956B
:104FF00080538A3010F48FEF089580E00895E62FF3
:10500000F72F20E030E00AC0649101C0608170E0B9
:10501000605370409A01260F371F3196882311F094
:10502000949101C0908190539A3068F4A901440F83
:10503000551F93E0220F331F9A95E1F7420F531F3C
:10504000882311F7E3CFC90108952F923F924F9221
:105050005F926F927F928F929F92AF92BF92CF9208
:10506000DF92EF92FF920F931F93DF93CF9300D0C5
:10507000CDB7DEB77F886AE1E62EF12CEC0EFD1E7F
:10508000988D898D092F182F50E3652E67016BC20B
:10509000D8018C91853209F062C20F5F1F4F7720D3
:1050A00019F0F801849102C0D8018C918D3231F44D
:1050B0000F5F1F4F41E0242E312C02C022243324E5
:1050C000772029F0F8018491803331F40CC0D801A5
:1050D0008C91803331F407C08E3229F030E2432EB8
:1050E00008C08E3259F40F5F1F4F772051F020E334
:1050F000422EF80184918A32B9F409C090E2492E17
:1051000002C080E3482ED8018C918A3279F4F601EE
:105110000190F081E02DFA83E9830F5F1F4F22E0B9
:1051200030E0C20ED31E1CC0772011F4D8018C9140
:1051300080538A3088F4872DB8010E94FF279A8314
:105140008983F801772011F0849101C08081805318
:105150008A3028F43196F6CF1A82198201C08F0165
:10516000772019F0F801849102C0D8018C918E3219
:1051700061F50F5F1F4F772029F0F80184918A3283
:1051800089F404C0D8018C918A3251F4F6018080F0
:1051900091800F5F1F4F22E030E0C20ED31E1BC074
:1051A000D8018C9180538A3080F4872DB8010E94F9
:1051B000FF274C01F801772011F0849101C0808114
:1051C00080538A3038F43196F6CFBEEF8B2EBFE78E
:1051D0009B2E01C08F01772019F0F801849102C045
:1051E000D8018C91833229F40F5F1F4FA1E0B0E00A
:1051F00002C0A0E0B0E0772019F0F801849102C06D
:10520000F80180818C3629F40F5F1F4F81E090E018
:1052100002C080E090E0772019F0F801249102C0EC
:10522000F801208130E02F36310509F493C0203792
:10523000310564F42336310509F43DC124363105C6
:1052400091F02532310509F08CC188C1253731052F
:1052500009F480C02837310509F47CC023373105B3
:1052600009F07FC133C1009749F0D6016D917D915E
:105270008D919C911397E4E0F0E00AC0D6016D9106
:105280007C911197882777FD8095982FE2E0F0E0D8
:10529000CE0EDF1E97FF0BC090958095709561959F
:1052A0007F4F8F4F9F4FA1E08A2E912C02C0882400
:1052B0009924F2EDAF2EF6E0BF2E2AE030E040E078
:1052C00050E00E940E9C605DF50161935F01B901A1
:1052D000CA0116161706180619067CF37F018114F9
:1052E000910421F0DF01EDE2ED937D01A980BA8008
:1052F00022ED36E0A20EB31EAE18BF082114310411
:1053000091F403C0842D0E94C4260894A108B1081A
:1053100095012F5F3F4F12161306A4F304C0D70167
:105320008C910E94C4260894E108F108B2EDEB16B6
:10533000B6E0FB06A0F72114310409F412C106C03F
:1053400080E20E94C4260894A108B1081A141B0424
:10535000BCF307C1009741F0F60160817181828141
:10536000938144E050E007C0F6016081718180E0E4
:1053700090E042E050E0C40ED51E25373105B9F467
:10538000E2EDAE2EE6E0BE2E2AE030E040E050E056
:105390000E94EC9B605DD5016D935D017D01B901BB
:1053A000CA01611571058105910571F750C02F364D
:1053B0003105D1F422ED36E0462F4770405DF9010A
:1053C00041939F0153E096958795779567955A95F8
:1053D000D1F7611571058105910571F77F0110976E
:1053E000B1F161927F0133C02837310561F523EDBA
:1053F00036E0F9013197AB014F7050704A305105DA
:1054000014F4405D01C0495A4083790144E0969507
:105410008795779567954A95D1F72F5F3F4F3196DE
:10542000611571058105910531F7109781F0F7013C
:1054300028E72193D70111966C9211977F01089468
:10544000E11CF11C04C0F2EDEF2EF6E0FF2EA98066
:10545000BA80E2EDF6E0AE0EBF1EAE18BF08211412
:10546000310491F403C0842D0E94C4260894A1083D
:10547000B10895012F5F3F4F12161306A4F304C025
:10548000D7018C910E94C4260894E108F108B2ED7E
:10549000EB16B6E0FB06A0F72114310409F461C055
:1054A00006C080E20E94C4260894A108B1081A141C
:1054B0001B04BCF356C0E2E0EE2EF12CEC0CFD1CFC
:1054C000F60180810E94C42667014BC0F60122E0EC
:1054D00030E0C20ED31EE080F180E114F10421F42B
:1054E00070E0E72E71E0F72EF70101900020E9F758
:1054F0003197EE19FF09A980BA80AE1ABF0A2114AC
:10550000310469F403C0842D0E94C4260894A108C4
:10551000B10895012F5F3F4F12161306A4F3270120
:10552000EE24FF2405C00E94C4260894E11CF11C4F
:10553000D2018D912D01882319F0E814F9049CF310
:105540002114310471F006C080E20E94C426089440
:10555000A108B1081A141B04BCF303C085E20E9421
:10556000C4260F5F1F4F772031F0F8018491882304
:1055700009F090CD05C0D8018C91882309F088CD21
:1055800080E090E00F900F90CF91DF911F910F91ED
:10559000FF90EF90DF90CF90BF90AF909F908F9053
:1055A0007F906F905F904F903F902F900895FB01F8
:1055B000DD9ADE9ADF9A20916500246020936500D1
:1055C000AF9A20813181281739070CF4DF982281A6
:1055D0003381281739070CF4DD9824813581281789
:1055E00039070CF4DE9826813781281739072CF407
:1055F000209165002B7F2093650020853185281739
:1056000039070CF4AF980895DF93CF93CDB7DEB789
:105610002A970FB6F894DEBF0FBECDBFDE011196FC
:10562000E8E0F1E02AE001900D922150E1F7BE019F
:105630006F5F7F4F0E94D72A2A960FB6F894DEBF7D
:105640000FBECDBFCF91DF910895009779F01092F2
:105650009A091092990987B7816087BF89B78064DA
:1056600089BFDD9881E08093E106089587B78E7F3A
:1056700087BF89B78F7B89BF80E090E00E94042BB1
:105680001092E10608951F920F920FB60F920BB67B
:105690000F9211242F933F934F935F936F937F93B8
:1056A0008F939F93AF93BF93EF93FF9385B18093B5
:1056B000950990919609913049F0913020F09F30F2
:1056C00009F06AC00CC08093940966C099E3899F71
:1056D000C001112490931309809312095DC0863E86
:1056E00018F48093970902C0109297098091970946
:1056F00090E00E94042B8091990990919A0900975B
:10570000F1F42091E2062223D1F030919709209103
:10571000E2062317A0F08091E3069091E40601973A
:105720009093E4068093E3068091E3069091E4066B
:10573000009791F51092E5061092E1062DC0209198
:10574000E206FC01EC5EF64F222319F02091970946
:1057500008C040812091970930E0240F311D359514
:10576000279520832091070130E021503040821797
:10577000930741F42091E506213021F41092E506CB
:105780001092E10660910701019670E00E94D99B9A
:1057900090939A09809399091092E006FF91EF91F6
:1057A000BF91AF919F918F917F916F915F914F9139
:1057B0003F912F910F900BBE0F900FBE0F901F9037
:1057C000189590919609906297B986B90895C599F0
:1057D0000AC0C59A89EF9FE3A2E081509040A040A3
:1057E000E1F700C00000089588B30895EF92FF929A
:1057F0000F931F938091A5098823E1F789B78F7BC9
:1058000089BF0E94E72B1092960981E08093E00601
:105810008CED0E94E12B8091E0068823E1F76091F6
:105820009409C59889B7806489BF70E0882777FD9F
:105830008095982F0E94FE9820E030E0A9010E94F8
:10584000689621EE3AE74CED50E40E9495969B0154
:10585000AC0166E676EA8BE894E40E94C0977B018F
:105860008C017F2D912F20E030E0A9010E94CE987D
:1058700087FD1EC06E2D7F2D802F912F20E030E000
:1058800040E251E40E94CE9887FD0DC06E2D7F2D21
:10589000802F912F20E030E048E452E40E946E987F
:1058A000181634F009C0EE24FF2400E211E404C00D
:1058B000EE24FF2408E412E46E2D7F2D802F912F1B
:1058C0000E94F29460939B091F910F91FF90EF90BB
:1058D0000895DF92EF92FF920F931F93CF93DF9380
:1058E0008FE080939609C2E3D0E0DD24EE24FF240C
:1058F00000E011E01093E0068CED0E94E12B809116
:10590000E0068823E1F76091970970E0882777FD2A
:105910008095982F0E94FE989B01AC016D2D7E2DE5
:105920008F2D902F0E946896D62EE72EF82E092FE5
:10593000219701F720E030E040E251E40E94C09757
:105940000E94F29460939809DF91CF911F910F917B
:10595000FF90EF90DF9008951F931091E106109251
:10596000E10681E0809396098CED0E94E12B369947
:10597000FECF1093E1061F9108951F920F920FB66C
:105980000F920BB60F9211248F93EF93FF9387B76B
:105990008F7B87BF1092A509E5E6F0E080818460E7
:1059A0008083AF9ADD9ADE98FF91EF918F910F90EF
:1059B0000BBE0F900FBE0F901F9018951F920F9265
:1059C0000FB60F920BB60F9211248F939F93EF9304
:1059D000FF938091A5098130B1F0813020F08230B1
:1059E00009F07BC036C014BC81E08093A50986B75E
:1059F000806486BF87B7806487BF809165008B7F96
:105A0000809365006AC084B58093A20914BC8A5350
:105A1000893118F01092A50915C010929D091092B5
:105A2000A40982E08093A50986B7806486BF87B702
:105A3000806487BF1092A7091092A8091092A90943
:105A40001092AA0980916500846080936500AF98E8
:105A500044C0DD9880916500846080936500AF9AB2
:105A600084B58093A20914BC982F9D509E3060F598
:105A7000E091A409843138F0F0E0E955F64F8081D7
:105A80008695806805C0F0E0E955F64F80818695DF
:105A9000808380919D098F5F80939D098830B9F440
:105AA00010929D098091A4098F5F8093A40984308E
:105AB00071F48091A70980939C098091AA09809331
:105AC000A6098FEF8093A3091092A50906C086B797
:105AD000806486BF87B7806487BFFF91EF919F91F5
