:100000000C94B71F0C94D61F0C94D61F0C94D61FBB
:100010000C94D61F0C94D61F0C94D61F0C94702BE6
:100020000C94D61F0C94D61F0C944F2B0C94D61FF7
:100030000C94D61F0C94D61F0C94AF200C94D61F92
:100040000C9403200C94D61F0C94D61F0C94D61F2E
:100050000C94D61F0C94D5290C94D61F0C94D61F43
:100060000C94D61F0C94D61F0C94D61F0C94D61F3C
:100070000C94D61F0C94D61F0C9470240C94D61F8D
:100080000C9434240C94D61F0C94D61F5D315D3132
:100090009C32ED32ED32E2320B322132A131F332B9
:1000A000243221322132E832E0312132E232F3329D
:1000B0008C312132E232213221322132213221327D
:1000C000E0312132213221320B32213221322132F0
:1000D0002432213221322132213221322132213285
:1000E000CC324E6F7420706C756767656420696EE2
:1000F0000D0A00436F6D706C6574650D0A00506CDD
:10010000756767656420696E202D2063686172677A
:10011000696E670D0A002564206D560D0A0063683C
:1001200061726765206D6F6465200D0A00446F6E13
:10013000652025646D560D0A0025643A2564206605
:10014000756C6C2063686172676520706F7765728B
:100150002025646D560D0A0025643A2564207368D5
:100160006F72742034306D7320636861726765202C
:1001700070756C7365732025646D560D0A00537499
:10018000617274202E2E2025646D560D0A003031C8
:1001900032333435363738394142434445460025F9
:1001A000642C2025642C2025640A004C4554000052
:1001B0000000464F520000000049460000000000C9
:1001C0005448454E000000454C5345000000474F41
:1001D000544F0000005052494E540000474554000F
:1001E00000000050555400000000454E440000003F
:1001F000004C49535400000058414354000000573C
:100200004149540000004E455854000000534552E7
:10021000564F00004D4F5645000000474F53554282
:10022000000052455455524E00504F4B45000000BF
:100230005354414E440000504C41590000004F556A
:1002400054000000004F46465345540052554E009E
:100250000000004932434F0000004932434900008A
:100260000053544550000000535045454400004D94
:100270005459504500004C494748545300534F527D
:10028000540000004646540000000053414D504CBD
:1002900045005343414C4500004441544100000097
:1002A00053455400000000494E5345525400444504
:1002B0004C4554450047454E000000004E455457FC
:1002C0004F520053454C45435400210000000000AC
:1002D000004F4E0000000000455849542044454D51
:1002E0004F204D4F44450D0A0025640D0A003E3A4B
:1002F000200044454D4F204D4F44450D0A00557098
:1003000074696D653A20002564206C696E65732000
:1003100073746F7265640D0A0025642073657276CC
:100320006F7320636F6E6E65637465640D0A0044BD
:1003300045425547204F4E0A002564206C696E6582
:1003400073206C6F616465640D0A00763D2452650C
:10035000766973696F6E3A2034393220240D0A00B1
:1003600074657374696E67206368617267650D0AEE
:1003700000505344206F66660D0A006F6B0D0A0033
:100380005374616E642025640D0A003F204E6F2077
:1003900073756368206C696E652025640A00456C7E
:1003A00061707365642054696D6520253032643A4C
:1003B000253032642D253033640A002564206C69B1
:1003C0006E657320696E206D656D6F72790D0A0020
:1003D000256420736572766F7320636F6E6E65633C
:1003E0007465640D0A00426173696320763D24528E
:1003F00065766973696F6E3A2034393220240D0AAC
:10040000436F6D6D616E64733A20692072206C20B9
:1004100063207A2071207320562052204620240D1C
:100420000A0072657365740D0A00253032643A253E
:100430003032643A253032642D25303364007374D1
:1004400061727420646F776E6C6F61640D0A0025B1
:1004500064002C25640025640025630020474F5369
:100460005542200020454C53452000205448454E1D
:10047000200040200023200025633D0025643D002E
:10048000504F52543A25633A25630021203D200005
:100490002563203D20002000256420004E6F207041
:1004A000726F6772616D206C6F616465640D0A0024
:1004B0004C6973742050726F6772616D200D0A0071
:1004C0002578200025782000257820002578200038
:1004D000436C6561722050726F6772616D200D0A06
:1004E000002563203D20256C640D0A00202A2A2067
:1004F0005573657220427265616B0D0A005452415A
:100500004345203A3A202564202D2000456E640D95
:100510000A005573657220427265616B206F6E2010
:100520006C696E652025640D0A0052756E74696DE4
:1005300065206572726F72202564206F6E206C6971
:100540006E652025640D0A0052756E2050726F672B
:1005500072616D200D0A004E6F2070726F677261BC
:100560006D206C6F616465640D0A00456C61707389
:1005700065642054696D652025646D730D0A004320
:100580006F6D6D616E64206E6F7420617661696C51
:1005900061626C6520696E20696D6D656469617466
:1005A00065206D6F64650D0A0044656C6574652097
:1005B0002D2025640D0A000D0A2564206C696E65E6
:1005C0007320656E74657265642C205B25642F252D
:1005D000645D2042797465730D0A0050616E696331
:1005E0002025640D0A00506F733D2564205B256350
:1005F0005D0D0A00270D0A004572726F72202D20D2
:100600002700456E7465722050726F6772616D20AD
:10061000272E2720746F2046696E6973680D0A00C3
:1006200050726F6772616D20656E747279206D6FA4
:10063000646520282E20746F2065786974290D0A5E
:10064000000D0A00496E73657274206C696E650D49
:100650000A0045646974206C696E650D0A007DC9E5
:10066000A3436C7D3059B88E59277CA2D37F7DB3CC
:10067000C7586C7E4831A38D332F31C7CDCD0404CC
:10068000040404040404040404040404040402022E
:100690000202020202020202000000000000010148
:1006A0000101010101010101010101010101020238
:1006B0000202020202020202020202020202040416
:1006C00004040404040404040404040404040101F0
:1006D0000101010000000000010101000000010112
:1006E00001010100000000000101010000000303FE
:1006F00003030300000000000303030000000303E2
:1007000003030300000000000303030000000000D7
:100710000000000000000000000000000000282889
:1007200028282828282828281414141414143C3C99
:100730003C3C3C3C3C3C3C3C1E1E1E1E1E1E000025
:1007400000000000000000000000000000000100A8
:100750000800010005000F0046003601A401C80092
:100760002C017DB3C7586C7E4831A38D332F31C720
:10077000CDCD7DB3C7586C7E4831A38D332F31C7A3
:10078000CDCD6BA4E96A5F6C501D9B81383E28A6D5
:10079000CED06BA4E96A5F914A28A39A757C72A6B1
:1007A000CED07EA4DE646B7D501D9B8E4F2C28A680
:1007B000CED07DB3C7586C7E4831A38D332F31C75F
:1007C000CDCD040404040404040404040404040457
:1007D00004040202020202020202020200000000FD
:1007E00000000101010101010101010101010101FB
:1007F00001010202020202020202020202020202DB
:1008000002020404040404040404040404040404AC
:1008100004040000000000010101010100000001CA
:1008200001010000000000020202020200000002BA
:1008300002020000000000030303030200000003A3
:100840000303000000000003030303030000000390
:100850000303000000000000000000000000000092
:1008600000002828282828282828282814141414A8
:1008700014143C3C3C3C3C3C3C3C3C3C1E1E1E1E80
:100880001E1E00000000000000000000000000002C
:10089000000001000800010005000F0046003601BD
:1008A000A401C8002C017DB3C7586C7E4831A38DCC
:1008B000332F31C7CDCD7DB3C7586C7E4831A38D62
:1008C000332F31C7CDCD8BA3E664788E570E969F1C
:1008D0004F2C28B7BCD06CA4E0616A97501C99A734
:1008E0004F2C289170837EA4DE646B7D501D9B8EFF
:1008F0004F2C28A6CED07DB3C7586C7E4831A38D2F
:10090000332F31C7CDCD04040404040404040404CB
:100910000404040404040404040404040404040497
:10092000040404040404020202020202020202029B
:1009300000000000000002020202020000000000AD
:100940000303030303030000000000000000000095
:100950000404040404030404040404040404040458
:10096000040404040404000000000000000000006F
:100970000000000000000101010101000000000072
:100980000101010000000000000000000000000064
:100990000000000000000101010101000000000052
:1009A0000101010000000000000000000000000044
:1009B0000000000000000000000000000000000037
:1009C0000000000000002828282828282828282897
:1009D0001414141414143C3C3C3C3C3C3C3C3C3C47
:1009E0001E1E1E1E1E1E0000000000000000000053
:1009F00000000000000001000500080003000100E5
:100A00000F00460096003601FA0078002C017DB3F5
:100A1000C7586C7E4831A38D332F31C7CDCD7DB300
:100A2000C7586C7E4831A38D332F31C7CDCD7EA7FB
:100A3000DE626E7D541D9B8E4F2C28A6CED06BA4FB
:100A4000E9665F6C501D9B81383E28A6CED06BA412
:100A5000E9695F914A289D9A383E28A6CED07EA4A7
:100A6000DE5F6B7D541D9B8E4F2C28A6CED07DB3B0
:100A7000C7586C7E4831A38D332F31C7CDCD0404C8
:100A80000404040404040404040404040404040426
:100A9000040404040404040404040404040402021A
:100AA000020202020202020204040404040400001E
:100AB0000000000202020202040404040404000014
:100AC00000000002020202020404040404040404FC
:100AD00004040404040404040404040404040000DE
:100AE0000000000000000000000000000000000006
:100AF00000000001010101010000000101010000EE
:100B000000000000000000000000000000000000E5
:100B100000000001010101010000000101010000CD
:100B200000000000000000000000000000000000C5
:100B30000000000000000000000000000000282865
:100B400028282828282828281414141414143C3C75
:100B50003C3C3C3C3C3C3C3C1E1E1E1E1E1E000001
:100B60000000000000000000000000000000010084
:100B700005000800030001000F0046009600360142
:100B8000C80078002C017DB3C7586C7E4831A38D16
:100B9000332F31C7CDCD7DB3C7586C7E4831A38D7F
:100BA000332F31C7CDCD7EA7DE626E7D541D9B8E67
:100BB0004F2C28A6CED08BA3E664788E570E969F36
:100BC0004F2C28B7BCD06CA4E0616A97501C99A741
:100BD0004F2C28B7BCD07EA6DE62717D541D9B8E43
:100BE0004F2C28A6CED07DB3C7586C7E4831A38D3C
:100BF000332F31C7CDCD04040404040404040404D9
:100C000004040404040401010101010101010101C2
:100C100004040404040401010101010101010101B2
:100C20000404040404040202020202020202020298
:100C30000404040404040101010101010101010192
:100C4000040404040404030303030303030303036E
:100C50000404040404040101010101000000000077
:100C6000010101000000010101010100000000007C
:100C70000101010000000000000000000000000071
:100C80000000000000000000000000000000000064
:100C90000000000000000000000000000000000054
:100CA0000000000000000000000000000000000044
:100CB000000000000000141414141414141414146C
:100CC0001414141414141E1E1E1E1E1E1E1E1E1E80
:100CD0001E1E1E1E1E1E0000000000000000000060
:100CE0000000000000000A0005000A0001000500E5
:100CF0000A00C800C80090017800C80090017DB3C8
:100D0000C7586C7E4831A38D332F31C7CDCD7DB30D
:100D1000C7586C7E4831A38D332F31C7CDCD7DA20E
:100D2000C7486C7E3B31978D332F31C7CDCD88A915
:100D3000D25D798B243D909D332F31C7CDCD7DADD4
:100D4000D25D7B8B500E899D332F31C7CDCD86ADC3
:100D5000D25D7B8B501F9D9D332F31C7CDCD7DB391
:100D6000C7586C7E4831A38D332F31C7CDCD0404D5
:100D70000404040404040404040404040404010139
:100D80000101010101010101040404040404010141
:100D9000010101010101010104040404040402022F
:100DA0000202020202020202040404040404020217
:100DB0000202020202020202040404040404030305
:100DC00003030303030303030303030303030000F9
:100DD000000000010101010100000001010100000B
:100DE00000000001010101010000000101000000FC
:100DF00000000000000000000000000000000000F3
:100E000000000000000000000000000000000000E2
:100E100000000000000000000000000000000000D2
:100E2000000000000000000000000000000014149A
:100E300014141414141414141414141414141E1E5E
:100E40001E1E1E1E1E1E1E1E1E1E1E1E1E1E0000FE
:100E500000000000000000000000000000000A0088
:100E600005000A00010005000A00C800C800900142
:100E70007800C80090017DB3C7586C7E4831A38DBF
:100E8000332F31C7CDCD7DB3C7586C7E4831A38D8C
:100E9000332F31C7CDCD7DC1CD6B6C7E5931B48D33
:100EA000332F31C7CDCD77D1C36A6077511F9D8471
:100EB000332F31C7CDCD75A2E362677D4E31A37F5D
:100EC000332F31C7CDCD6EA8CC555C755131A38081
:100ED000332F31C7CDCD7DB3C7586C7E4831A38D3C
:100EE000332F31C7CDCD04040404040404040404E6
:100EF00004040404040404040404040404040404B2
:100F000004040404040403030303030303030303AB
:100F100003030303030300000000000000000000BF
:100F2000040404040404030303030303030303038B
:100F3000030303030303020202020202020202028B
:100F40000404040404040202020202020202020275
:100F50000404040404040202020202020202020265
:100F60000404040404040202020202020202020255
:100F7000040404040404030303030303030303033B
:100F8000030303030303000000000000000000004F
:100F90000000000000000303030303030303030333
:100FA000030303030303000000000000000000002F
:100FB000000000000000020202020202020202021D
:100FC0000202020202020000000000000000000015
:100FD0000000000000000101010101010101010107
:100FE00001010101010100000000000000000000FB
:100FF00000000000000003030303030303030303D3
:1010000003030303030300000000000000000000CE
:1010100000000000000000000000000000000000D0
:101020000000000000002828282828282828282830
:101030001E1E1E1E1E1E3C3C3C3C3C3C3C3C3C3CA4
:101040003232323232320000000000000000000074
:101050000000000000000F001E002D002D002D00DC
:101060001E001E001E001E001E002C0158028403DC
:1010700084038403580258025802580258027DB370
:10108000C7586C7E4831A38D332F31C7CDCD7DB38A
:10109000C7586C7E4831A38D332F31C7CDCD7CDC52
:1010A000F77D6C7E1D047F8C332F31C7CDCD7BDC6B
:1010B000F656707E1D07A98B013B4AFDBFB58253D2
:1010C000903F6C7DAA67BF8B013BA3FDBF58825345
:1010D000903F6C7DAA67BF8BEA7D5A0581A6815E31
:1010E000B7646E80A26EBA88A02D515ACDA78157E1
:1010F000BF3C6E80A23BC1888A2E5974CBA78181E8
:10110000BE416E80783BBB8C852D5174CBA781A1ED
:10111000C5476E805935B58F8F245974CBA77DB3E1
:10112000C7586C7E4831A38D332F31C7CDCD040411
:101130000404040404040404040404040404010175
:101140000101010101010101040404040404040477
:101150000404040404040404040404040404010155
:10116000010101010101010101010101010101016F
:10117000010101010101010101010101010102025D
:10118000020202020202020202020202020202023F
:10119000020202020202020202020202020202022F
:1011A000020202020202020202020202020204041B
:1011B00004040404040404040404040404040000F7
:1011C0000000000000000000000000000000030319
:1011D00003030303030303030303030303030000E5
:1011E00000000000000000000000000000000202FB
:1011F00002020202020202020202020202020000D3
:1012000000000000000000000000000000000101DC
:1012100001010101010101010101010101010000C0
:1012200000000000000000000000000000000303B8
:101230000303030303030303030303030303000084
:10124000000000000000000000000000000028284E
:1012500028282828282828281414141414143C3C5E
:101260003C3C3C3C3C3C3C3C1E1E1E1E1E1E0000EA
:1012700000000000000000000000000000000A0064
:101280000A000A000A00010023001E0028001E00B8
:101290002C01F401F401BC023403BC025802200307
:1012A00058027DB3C7586C7E4831A38D332F31C7A8
:1012B000CDCD7DB3C7586C7E4831A38D332F31C758
:1012C000CDCD7D52D6596C7E4831A38D8F2F317292
:1012D000CDCD7D52DA65727DA622978F8D2F31722A
:1012E000CDCD7DD2E450717C2319AC8EA72F2F5227
:1012F000CDCC7DDAF756717B1F05A88D095792FE7C
:10130000A26C7DDCF47A6D7B1D05808D212A92DE36
:10131000D26C7DDCDE7A717B1D1C878D62324E9231
:10132000C5A97DA0F272717B5708878D522F45ADFC
:10133000CDBF7DB3C7586C7E4831A38D332F31C7E5
:10134000CDCD0303030303030303030303030303D9
:10135000030303030303030303030303030303035D
:10136000030303030303030303030303030303034D
:10137000030302020202020202020202020202024B
:10138000020201010101010101010101010101014B
:10139000010100000000000000000000000000004B
:1013A000000000000000000000000000000000003D
:1013B000000001010101010101010101010101011F
:1013C00001010202020202020202020202020202FF
:1013D00002020303030303030303030303030303DF
:1013E00003030303030303030303030303030303CD
:1013F00003030303030303030303030303030303BD
:1014000003030202020202020202020202020202BA
:1014100002020101010101010101010101010101BA
:1014200001010000000000000000000000000000BA
:1014300000000000000000000000000000000000AC
:10144000000001010101010101010101010101018E
:10145000010102020202020202020202020202026E
:10146000020203030303030303030303030303034E
:10147000030303030303030303030303030303033C
:10148000030302020202020202020202020202023A
:10149000020201010101010101010101010101013A
:1014A000010100000000000000000000000000003A
:1014B000000000000000000000000000000000002C
:1014C000000001010101010101010101010101010E
:1014D00001010202020202020202020202020202EE
:1014E00002020303030303030303030303030303CE
:1014F00003030303030303030303030303030303BC
:1015000003030303030303030303030303030303AB
:1015100003030202020202020202020202020202A9
:1015200002020101010101010101010101010101A9
:1015300001010000000000000000000000000000A9
:10154000000000000000000000000000000000009B
:10155000000001010101010101010101010101017D
:10156000010102020202020202020202020202025D
:10157000020203030303030303030303030303033D
:10158000030303030303030303030303030303032B
:101590000303020202020202020202020202020229
:1015A0000202010101010101010101010101010129
:1015B00001010404040404040404040404040404F1
:1015C0000404000000000000000000000000000013
:1015D00000000303030303030303030303030303E1
:1015E00003030303030303030303030303030303CB
:1015F00003030202020202020202020202020202C9
:1016000002020101010101010101010101010101C8
:1016100001010000000000000000000000000000C8
:1016200000000000000000000000000000000000BA
:10163000000001010101010101010101010101019C
:10164000010102020202020202020202020202027C
:10165000020203030303030303030303030303035C
:10166000030303030303030303030303030303034A
:10167000030303030303030303030303030303033A
:101680000303020202020202020202020202020238
:101690000202010101010101010101010101010138
:1016A0000101000000000000000000000000000038
:1016B000000000000000000000000000000000002A
:1016C000000001010101010101010101010101010C
:1016D00001010202020202020202020202020202EC
:1016E00002020303030303030303030303030303CC
:1016F00003030303030303030303030303030303BA
:1017000003030202020202020202020202020202B7
:1017100002020101010101010101010101010101B7
:1017200001010000000000000000000000000000B7
:1017300000000000000000000000000000000000A9
:10174000000001010101010101010101010101018B
:10175000010102020202020202020202020202026B
:10176000020203030303030303030303030303034B
:101770000303030303030303030303030303030339
:101780000303030303030303030303030303030329
:101790000303020202020202020202020202020227
:1017A0000202010101010101010101010101010127
:1017B0000101000000000000000000000000000027
:1017C0000000000000000000000000000000000019
:1017D00000000101010101010101010101010101FB
:1017E00001010202020202020202020202020202DB
:1017F00002020303030303030303030303030303BB
:1018000003030303030303030303030303030303A8
:1018100003030202020202020202020202020202A6
:1018200002020101010101010101010101010101A6
:1018300001010000000000000000000000000000A6
:1018400000002929292929292929292914141414AE
:1018500014143D3D3D3D3D3D3D3D3D3D1E1E1E1E86
:101860001E1E00000000000000000000000000003C
:10187000000005000100010001000100010001005D
:101880000100010001000100010001000100010050
:101890000100010001000100010001000100010040
:1018A0000100010001000100010001000100010030
:1018B00001000100010001000100010001000A0017
:1018C0000F00C800190019001900190019001900AB
:1018D0001900190019001900190019001900190040
:1018E0001900190019001900190019001900190030
:1018F0001900190019001900190019001900190020
:101900001900190019001900190019001900C80060
:101910002C017DB3C7586C7E4831A38D332F31C75E
:10192000CDCD7DB3C7586C7E4831A38D332F31C7E1
:10193000CDCD7DB3C7586C7E4831A38D332F31C7D1
:10194000CDCD82A5C9517386511F9395482C2891FE
:10195000D1C984ABC5537589561C94984E2B299ACE
:10196000D1CE84AFC357758B5B1B989A572B2BA492
:10197000D1D384B2C55B75895F1C9D98612B30AC57
:10198000D1D582B3C95F7386601FA195692B35B32A
:10199000D2D67FB2CE6270825F23A6916F2A39B60B
:1019A000D2D67CAFD4646D7F5C28AA8E712A3BB7F7
:1019B000D2D67CAFD4646D7F5C28AA8E712A3BB7E7
:1019C000D2D678ACD966697B582EAA8A6F2A39B6E6
:1019D000D2D674A7DD6765785333A9876A2B35B3F0
:1019E000D2D671A2E06662764D37A785612B30AD05
:1019F000D1D56F9DE16260764939A385572B2BA421
:101A0000D1D37199E05D627646379F854F2B299A35
:101A1000D1CE7498DD59657845339B87482C289240
:101A2000D1C97899D954697B462E988A452C288C3F
:101A3000D0C57B9CD4506C7E4928968D442C288A36
:101A4000D0C37B9CD4506C7E4928968D442C288A28
:101A5000D0C382A5C9517386511F9395482C2891F4
:101A6000D1C984ABC5537589561C94984E2B299ABD
:101A7000D1CE84AFC357758B5B1B989A572B2BA481
:101A8000D1D384B2C55B75895F1C9D98612B30AC46
:101A9000D1D582B3C95F7386601FA195692B35B319
:101AA000D2D67FB2CE6270825F23A6916F2A39B6FA
:101AB000D2D67CAFD4646D7F5C28AA8E712A3BB7E6
:101AC000D2D67CAFD4646D7F5C28AA8E712A3BB7D6
:101AD000D2D678ACD966697B582EAA8A6F2A39B6D5
:101AE000D2D674A7DD6765785333A9876A2B35B3DF
:101AF000D2D671A2E06662764D37A785612B30ADF4
:101B0000D1D56F9DE16260764939A385572B2BA40F
:101B1000D1D37199E05D627646379F854F2B299A24
:101B2000D1CE7498DD59657845339B87482C28922F
:101B3000D1C97899D954697B462E988A452C288C2E
:101B4000D0C57B9CD4506C7E4928968D442C288A25
:101B5000D0C37B9CD4506C7E4928968D442C288A17
:101B6000D0C382A5C9517386511F9395482C2891E3
:101B7000D1C984ABC5537589561C94984E2B299AAC
:101B8000D1CE7DA6E56A6C7E5617968D332F31C770
:101B9000CDCD7DB3C7586C7E4831A38D332F31C76F
:101BA000CDCD040404040404040404040404040463
:101BB00004040303030303030303030303030303F3
:101BC00003030202020202020202020202020202F3
:101BD00002020303030303030303030303030303D7
:101BE00003030202020202020202020202020202D3
:101BF00002020101010101010101010101010101D3
:101C000001010000000000000000000000000000D2
:101C100000000000000000000000000000000000C4
:101C200000000101010101010101010101010101A6
:101C30000101020202020202020202020202020286
:101C40000202030303030303030303030303030366
:101C50000303030303030303030303030303030354
:101C60000303030303030303030303030303030344
:101C70000303020202020202020202020202020242
:101C80000202010101010101010101010101010142
:101C90000101000000000000000000000000000042
:101CA0000000000000000000000000000000000034
:101CB0000000010101010101010101010101010116
:101CC00001010202020202020202020202020202F6
:101CD00002020303030303030303030303030303D6
:101CE00003030303030303030303030303030303C4
:101CF00003030202020202020202020202020202C2
:101D000002020101010101010101010101010101C1
:101D100001010000000000000000000000000000C1
:101D200000000000000000000000000000000000B3
:101D30000000010101010101010101010101010195
:101D40000101020202020202020202020202020275
:101D50000202030303030303030303030303030355
:101D60000303030303030303030303030303030343
:101D70000303030303030303030303030303030333
:101D80000303020202020202020202020202020231
:101D90000202010101010101010101010101010131
:101DA0000101000000000000000000000000000031
:101DB0000000000000000000000000000000000023
:101DC0000000010101010101010101010101010105
:101DD00001010202020202020202020202020202E5
:101DE00002020303030303030303030303030303C5
:101DF00003030303030303030303030303030303B3
:101E000003030202020202020202020202020202B0
:101E100002020101010101010101010101010101B0
:101E20000101020202020202020202020202020294
:101E30000202040404040404040404040404040466
:101E4000040400000000000000000000000000008A
:101E50000000000000000000000000000000000082
:101E60000000000000000000000000000000000072
:101E70000000030303030303030303030303030338
:101E80000303020202020202020202020202020230
:101E90000202010101010101010101010101010130
:101EA0000101000000000000000000000000000030
:101EB0000000000000000000000000000000000022
:101EC0000000010101010101010101010101010104
:101ED00001010202020202020202020202020202E4
:101EE00002020303030303030303030303030303C4
:101EF00003030303030303030303030303030303B2
:101F000003030303030303030303030303030303A1
:101F1000030302020202020202020202020202029F
:101F2000020201010101010101010101010101019F
:101F3000010100000000000000000000000000009F
:101F40000000000000000000000000000000000091
:101F50000000010101010101010101010101010173
:101F60000101020202020202020202020202020253
:101F70000202030303030303030303030303030333
:101F80000303030303030303030303030303030321
:101F9000030302020202020202020202020202021F
:101FA000020201010101010101010101010101011F
:101FB000010100000000000000000000000000001F
:101FC0000000000000000000000000000000000011
:101FD00000000101010101010101010101010101F3
:101FE00001010202020202020202020202020202D3
:101FF00002020303030303030303030303030303B3
:1020000003030303030303030303030303030303A0
:102010000303030303030303030303030303030390
:10202000030302020202020202020202020202028E
:10203000020201010101010101010101010101018E
:10204000010100000000000000000000000000008E
:102050000000000000000000000000000000000080
:102060000000010101010101010101010101010162
:102070000101020202020202020202020202020242
:102080000202030303030303030303030303030322
:102090000303030303030303030303030303030310
:1020A000030302020202020202020202020202020E
:1020B000020201010101010101010101010101010E
:1020C000010100000000000000000000000000000E
:1020D0000000000000000000000000000000000000
:1020E0000000292929292929292929291414141406
:1020F00014143D3D3D3D3D3D3D3D3D3D1E1E1E1EDE
:102100001E1E000000000000000000000000000093
:1021100000000500140001000100010001000100A1
:1021200001000100010001000100010001000100A7
:102130000100010001000100010001000100010097
:102140000100010001000100010001000100010087
:102150000100010001000100010001000100010077
:1021600001000A0014002C01900119001900190047
:102170001900190019001900190019001900190097
:102180001900190019001900190019001900190087
:102190001900190019001900190019001900190077
:1021A0001900190019001900190019001900190067
:1021B000190019001900900190017DB3C7586C7E79
:1021C0004831A38D332F31C7CDCD7DB3C7586C7E39
:1021D0004831A38D332F31C7CDCD7DA0DC6B6C7E14
:1021E000581F928D332F31C7CDCD7899DA58697B3E
:1021F000482E978A392B33AED2D67497DF5B657839
:1022000046349B873A2B30B1D2D67098E25E617724
:102210004639A0863B2B2DB6D2D66F9BE363607602
:10222000483CA5853F2B29BCD1D570A0E2666176DC
:102230004C3AA785442C28BFD1D173A5DF686478B8
:102240005234A887492C28C1D1CE78A9DA68697B95
:10225000582EA78A4D2C28C2D1CB7BADD4676C7E7B
:102260005C28A58D4E2B28C2D1CA7BADD4676C7E6D
:102270005C28A58D4E2B28C2D1CA7FB0CE63708258
:102280005F22A2914D2C28C2D1CB82B2C85F738647
:10229000611D9F954A2C28C1D1CE83B2C35A748A3E
:1022A000601A9C99452C28C0D1D184B0C055758B3B
:1022B0005D19979A3F2B29BCD1D584ACC253758A3E
:1022C000581A94993C2B2DB7D2D682A6C852738740
:1022D000531D92963A2B30B2D2D67FA0CE53708245
:1022E0004F229291392B33AED2D67C9CD4556D7F40
:1022F0004B28938E392B34ADD1D67C9CD4556D7F31
:102300004B28938E392B34ADD1D67497DF5B65782B
:1023100046349B873A2B30B1D2D67098E25E617713
:102320004639A0863B2B2DB6D2D66F9BE3636076F1
:10233000483CA5853F2B29BCD1D570A0E2666176CB
:102340004C3AA785442C28BFD1D173A5DF686478A7
:102350005234A887492C28C1D1CE78A9DA68697B84
:10236000582EA78A4D2C28C2D1CB7BADD4676C7E6A
:102370005C28A58D4E2B28C2D1CA7BADD4676C7E5C
:102380005C28A58D4E2B28C2D1CA7FB0CE63708247
:102390005F22A2914D2C28C2D1CB82B2C85F738636
:1023A000611D9F954A2C28C1D1CE83B2C35A748A2D
:1023B000601A9C99452C28C0D1D184B0C055758B2A
:1023C0005D19979A3F2B29BCD1D584ACC253758A2D
:1023D000581A94993C2B2DB7D2D682A6C85273872F
:1023E000531D92963A2B30B2D2D67FA0CE53708234
:1023F0004F229291392B33AED2D67C9CD4556D7F2F
:102400004B28938E392B34ADD1D67C9CD4556D7F1F
:102410004B28938E392B34ADD1D67497DF5B65781A
:1024200046349B873A2B30B1D2D67098E25E617702
:102430004639A0863B2B2DB6D2D66F9BE3636076E0
:10244000483CA5853F2B29BCD1D56F9BE3626076C4
:1024500059199B853F2B29BCD1D57DB3C7586C7EBC
:102460004831A38D332F31C7CDCD14141414141457
:10247000141414141414141414141E1E1E1E1E1EE0
:102480001E1E1E1E1E1E1E1E1E1E00000000000020
:102490000000000000000000000001000100010039
:1024A000010001000100140014004001140040016B
:1024B00014007DB3C7586C7E4831A38D332F31C7CC
:1024C000CDCD7DB3C7586C7E4831A38D332F31C736
:1024D000CDCD73B3C7585F744831A380332F31C754
:1024E000CDCD63DBCE8254724339A17B22556E760B
:1024F000C3C96581CB2B55782451B47E82314CCF32
:10250000C7E46581CB2A55782451B47B82314CCF06
:10251000C7E47DB3C7586C7E4831A38D332F31C7D4
:10252000CDCD0202020202020202020202020202F5
:10253000020202020202020002020200020202027F
:102540000202000000000000000000000000000087
:10255000000000000000000000000000000000007B
:10256000000000000000000000000000000000006B
:10257000000002020202020202020202020202023F
:102580000202000000000000000000000000000047
:10259000000000000000000000000000000000003B
:1025A000000000000000000000000000000000002B
:1025B000000000000000000000000000000000001B
:1025C000000000000000000000000000000000000B
:1025D00000000000000000000000000000000000FB
:1025E00000001414141414141414141414141414D3
:1025F00014141E1E1E1E1E1E1E1E1E1E1E1E1E1E0F
:102600001E1E00000000000000000000000000008E
:102610000000010001000100010001000A00140097
:10262000140040011400A401DC007DB3C7586C7E87
:102630004831A38D332F31C7CDCD7DB3C7586C7EC4
:102640004831A38D332F31C7CDCD87B3C758798893
:102650004831A39A332F31C7CDCD89B8BF5A7E9860
:10266000202A78A5843935D8A79083C4B64F7A96A6
:102670007A2DD0A42B355078CBB283C4B64F809638
:102680007A2DD0A42B355078CBB27DB3C7586C7E51
:102690004831A38D332F31C7CDCD02020202020291
:1026A000020202020202020202020202020202020A
:1026B00002020202020202020202000202020002FE
:1026C00002020202020202020202000000000000F6
:1026D00000000000000000000000000000000000FA
:1026E00000000000000000000000020202020202DE
:1026F00002020202020202020202000000000000C6
:1027000000000000000000000000000000000000C9
:1027100000000000000000000000000000000000B9
:1027200000000000000000000000000000000000A9
:102730000000000000000000000000000000000099
:102740000000000000000000000000000000000089
:102750000000000000000000000028282828282889
:10276000282828281414141414143C3C3C3C3C3CE9
:102770003C3C3C3C1E1E1E1E1E1E000000000000B5
:102780000000000000000000000005000100010042
:1027900003006400DC0064003C007DA8C7556C7E2B
:1027A000532FA78F332F31C7CDCD6B92E9635F6C69
:1027B000641B9F83383E28A6CED06B96E9665F8F58
:1027C0005726A18C383E28A6CED07E96DE5C6B7D47
:1027D000621B9F904F2C28A6CED07DA5C7556C7E3E
:1027E000552FA78F332F31C7CDCD0202020202022F
:1027F00002020202020202020202020202020200BB
:1028000000000000030303030303000000000000B6
:102810000000000004040404040304040404040489
:102820000404040404040404040400000000000080
:102830000000000000000000000001010101010093
:102840000000000001010100000000000000000085
:102850000000000000000000000000000000000078
:102860000000000000000000000028282828282878
:10287000282828281414141414143C3C3C3C3C3CD8
:102880003C3C3C3C1E1E1E1E1E1E000000000000A4
:102890000000000000000000000005000100010031
:1028A00003006400DC0064003C007DA5C7556C7E1D
:1028B000572FA78F332F31C7CDCD8B96E661788EFA
:1028C00065109A9C4F2C28B7BCD0649AE0616B8E3F
:1028D00064139AA14F2C28B7BCD0799ADE5F5D7D36
:1028E0005E209C904F2C28A6CED07DA7C7556C7E2D
:1028F000542FA78F332F31C7CDCD0202020202021F
:1029000002020202020202020202000000000002B1
:102910000202020204040404040400000000000295
:10292000020202020404040404040404040404046F
:10293000040404040404040404040000000000006F
:102940000000000000000000000000000000000186
:102950000101010100000001010100000000000070
:102960000000000000000000000000000000000067
:1029700000000000000000000000141414141414DF
:10298000141414141414141414141E1E1E1E1E1ECB
:102990001E1E1E1E1E1E1E1E1E1E0000000000000B
:1029A0000000000000000000000001000100010024
:1029B0000A000A001400080240012C0108027DB33D
:1029C000C7586C7E4831A38D332F31C7CDCD7DB331
:1029D000C7586C7E4831A38D332F31C7CDCD7D5E76
:1029E000CD596C7A9933A88C0A6769F1928F77DF99
:1029F000F9726B7C1D028E8F0B3169E9CA8B7DB930
:102A0000F9826C7C43017C912D4145C9BDAF7DB3FA
:102A1000C7586C7E4831A38D332F31C7CDCD02020C
:102A20000202020202020202020202020202020286
:102A3000020202020202020202020202020200007A
:102A40000000000000000000000000000000000086
:102A50000000000000000000000000000000020272
:102A6000020202020202020202020202020200004A
:102A70000000000000000000000000000000000056
:102A80000000000000000000000000000000000046
:102A90000000000000000000000000000000000036
:102AA0000000000000000000000000000000000026
:102AB00000000000000000000000000000001414EE
:102AC00014141414141414141414141414141E1EB2
:102AD0001E1E1E1E1E1E1E1E1E1E1E1E1E1E000052
:102AE00000000000000000000000000000000100E5
:102AF0000100010001001E001400DC00A4015E01C1
:102B000058027DB3C7586C7E4831A38D332F31C72F
:102B1000CDCD7DB3C7586C7E4831A38D332F31C7DF
:102B2000CDCD7AB3C8576C7A4630A38D14832AEE84
:102B30006FC97A85C86E6780762F8D8D16C86CE850
:102B40002F857459ED516884A010AD9201D277FEA3
:102B500027797DB3C7586C7E4831A38D332F31C799
:102B6000CDCD0202020202020202020202020202AF
:102B70000202000000000000000000000000000051
:102B80000000000000000000000000000000000045
:102B90000000000000000000000000000000000035
:102BA0000000020202020202020202020202020209
:102BB0000202000000000000000000000000000011
:102BC0000000000000000000000000000000000005
:102BD00000000000000000000000000000000000F5
:102BE00000000000000000000000000000000000E5
:102BF00000000000000000000000000000000000D5
:102C000000001414141414141414141414141414AC
:102C100014141E1E1E1E1E1E1E1E1E1E1E1E1E1EE8
:102C20001E1E000000000000000000000000000068
:102C300000000A0028000A002800F401E803D00779
:102C4000E8037DB3C7586C7E4831A38D332F31C75D
:102C5000CDCD7DB3C7586C7E4831A38D332F31C79E
:102C6000CDCD7D93F76A6C7E6604918D332F31C78D
:102C7000CDCD7D93F76A6C7E6604918D332F31C77D
:102C8000CDCD7DB3C7586C7E4831A38D332F31C76E
:102C9000CDCD02020202020202020202020202027E
:102CA0000202020202020202020202020202020204
:102CB0000202000000000000000000000000000010
:102CC00000000404040404040404040404040404CC
:102CD00004040000000000000000000000000000EC
:102CE00000000101010101010101010101010101D6
:102CF00001010303030303030303030303030303A8
:102D000003030000000000000000000000000000BD
:102D1000000014141414141414141414141414149B
:102D200014141E1E1E1E1E1E1E1E1E1E1E1E1E1ED7
:102D30001E1E000000000000000000000000000057
:102D400000000A0028000A000A002800F401E80335
:102D5000F401F401E8037DB3C7586C7E4831A38DBC
:102D6000332F31C7CDCD7DB3C7586C7E4831A38D8D
:102D7000332F31C7CDCD7DB3C7586C7E4831A38D7D
:102D8000BB3A2EC7CDCD7DB3C7586C7E4831A38DDD
:102D9000BA672EC7CDCD7DB3C7586C7E4831A38DA1
:102DA000BB3A2EC7CDCD7DB3C7586C7E4831A38DBD
:102DB000332F31C7CDCD020202020202020202020B
:102DC00002020202020202020202020202020202E3
:102DD00002020202020202020202020202020202D3
:102DE00002020202020202020202020202020202C3
:102DF000020202020202040404040404040404049F
:102E000004040404040400000000000000000000AA
:102E100000000000000000000000000000000000B2
:102E200000000000000000000000000000000000A2
:102E30000000000000000000000000000000000092
:102E40000000000000000000000000000000000082
:102E500000000000000014141414141414141414AA
:102E60001414141414141E1E1E1E1E1E1E1E1E1EBE
:102E70001E1E1E1E1E1E000000000000000000009E
:102E800000000000000028000A00140014000100E7
:102E900001000A000A001900140014001E00840337
:102EA000C800900190017800080290019001F4019F
:102EB0009001900158027DB3C7586C7E4831A38DB4
:102EC000332F31C7CDCD7DB3C7586C7E4831A38D2C
:102ED000332F31C7CDCD7DB0F7796C7E4702828D1F
:102EE000332F31C7CDCD81B4EC6A4B8B470282744E
:102EF00003324DEF9DA033B4EC6A5F8B47028274BE
:102F000001324AE89EA03398ED2D5F8B4702827410
:102F1000023231E898A03385952D5F8B4702827489
:102F2000023233E88FA0338EEA305F8B470282741F
:102F3000023231E89AA07BC2D256528B4702827489
:102F4000023231E895A084CADC695B903F047D8A37
:102F5000443431E8AAA07BAEF8766A814C04878FAE
:102F6000343231DBC2D57B9BF8766A815F04878F70
:102F7000343231DBC2D57DB3C7586C7E4831A38D66
:102F8000332F31C7CDCD0404040404040404040425
:102F900004040404040404040404040404040404F1
:102FA00004040404040404040404040404040404E1
:102FB00004040404040404040404040404040404D1
:102FC00004040404040400000000000404040404D5
:102FD00004040404040400000000000404040404C5
:102FE00004040404040400000000000404040404B5
:102FF0000404040404040404040304040404040492
:103000000404040404040404040304040404040481
:103010000404040404040404040304040404040471
:103020000404040404040404040304040404040461
:103030000404040404040404040404040404040450
:103040000404040404040000000000000000000068
:103050000000000000000202020202000000000066
:103060000000000000000000000000000000000060
:103070000000000000000202020202000000000046
:103080000000000000000303030303000000000031
:103090000000000000000303030303000000000021
:1030A0000000000000000202020202000000000016
:1030B0000000000000000202020202000000000006
:1030C0000000000000000000000000000000000000
:1030D00000000000000000000000000000000000F0
:1030E00000000000000000000000000000000000E0
:1030F00000000000000000000000000000000000D0
:10310000000000000000282828282828282828282F
:103110001414141414143C3C3C3C3C3C3C3C3C3CDF
:103120001E1E1E1E1E1E00000000000000000000EB
:10313000000000000000140014001400140014002B
:1031400014001400010001000A0028000F000F0005
:10315000050032003200320001002D002D000A006F
:103160000A000A000A002D000A000A000A000A00EC
:103170002D0050001E000F000F000F000F000F0069
:103180000F000F000F00840384038403840384036F
:103190008403840308020802F4014006580258021E
:1031A0003408FC03FC03FC03E40784038403F401F8
:1031B000F401F401F4018403F401F401F401F401D5
:1031C000840340064006580258025802580258022A
:1031D0005802580258027DB3C7586C7E4831A38DFF
:1031E000332F31C7CDCD7DB3C7586C7E4831A38D09
:1031F000332F31C7CDCD7CB5F77C6C7E47047F8DF6
:10320000332F31C7CDCD7C77F77C6C7E83047F8DE7
:1032100087304C6CCDA77C4EF77C6C7EB9047F8DDB
:103220008730046CCDEF79DDFA686C7E9F429B8D10
:10323000BE300436CDEF79DDFA686C7E9F5AC68DBC
:10324000CE390835B6F479DDFA686C7E9F42B98DC7
:10325000BE30040F5E8D79DDFA686C7E9F42B98DB9
:10326000BE3004AE7D8D79DDFA686C7E9F42B98DEB
:10327000BE3004B472E379DDFA686C7E9F6CCA8D4F
:10328000CD3004AB32CA369FFA686C7E1C0E9C8D22
:10329000CD3004AB32CA7E9FFA686C811C0E9C8DC7
:1032A000CD2B049728E67EC6C66D6C81373E9C8D7B
:1032B000CD2B049728E658D9817E6CA71C717F8D91
:1032C000CD2B049728E635D9897E6CC41C717F8D7F
:1032D000CD2B049728E616D98A7E6CEA1C717F8D67
:1032E000CD2B049728E658D9867E6CA71C717F8D5C
:1032F000CD2B049728E658D9867E6CA71C717F8D4C
:10330000CD2B049728E67CC2F76D6B81380493902F
:10331000CD2B049728E67CCBD96D6B812F2393901E
:10332000CD2B049728E67CB0B2616B811D1493907D
:10333000CF2B048F28E67CBDCB616B811631939037
:10334000CD2B049728E67CD8C9626B813C2A9F90DC
:10335000CD2B049728E67CE4D2686B81533AB39076
:10336000CD2B049728E67CCBD96D6B812F239390CE
:10337000CD2B049728E67CB0B2616B811D1493902D
:10338000CF2B048F28E67CBDCB616B8116319390E7
:10339000CD2B049728E67CD8C9626B813C2A9F908C
:1033A000CD2B049728E67CE4D2686B81533AB39026
:1033B000CD2B049728E67CCBD96D6B812F2393907E
:1033C000CD2B049728E681BFF76D6B829A798390A5
:1033D000CD2B049728E6815E813A6E80A271C48865
:1033E000CD4E049779E6815E8A3B6E809978C488D9
:1033F000CD4E04C2848D815C81396E80A279C488EF
:10340000CD4E0440848D815A84386E80A279C48860
:10341000D0242E34D0DE815EB7646E80A26EBA886E
:10342000A72D575ACAA78157C5476E80A239BA8FB0
:10343000822D5374CBA7817DC5476E80783BB88FB2
:103440008F245974CBA77BA6DF5E6A7D5123A28DA2
:103450008F245974CBA77DB3C7586C7E4831A38D98
:10346000332F31C7CDCD0404040404040404040440
:10347000040404040404040404040404040404040C
:1034800004040404040404040404040404040404FC
:1034900004040404040404040404040404040404EC
:1034A00004040404040404040404040404040000E4
:1034B00004040404040404040404040404040000D4
:1034C00004040404040404040404040404040000C4
:1034D00004040404040404040404040404040000B4
:1034E00001010101010104040404040404040000B6
:1034F00001010101010104040404040404040000A6
:1035000001010101010101010101010101010000AD
:10351000010101010101010101010101010100009D
:103520000101010101010404040404040404000075
:103530000404040404040404040404040404000053
:103540000101010101010000000000000000000075
:10355000000000000000000000000000000000006B
:10356000000000000000000000000000000000005B
:10357000000000000000000000000000000000004B
:103580000000000000000202020202020202020227
:1035900004040404040402020202020202020202FF
:1035A00004040404040402020202020202020202EF
:1035B00004040404040402020202020202020202DF
:1035C00004040404040402020202020202020202CF
:1035D00004040404040402020202020202020202BF
:1035E00004040404040402020202020202020202AF
:1035F000040404040404020202020202020202029F
:10360000040404040404020202020202020202028E
:10361000040404040404020202020202020202027E
:10362000040404040404020202020202020202026E
:10363000040404040404020202020202020202025E
:10364000040404040404020202020202020202024E
:10365000040404040404020202020202020202023E
:10366000040404040404020202020202020202022E
:10367000040404040404020202020202020202021E
:10368000040404040404020202020202020202020E
:1036900004040404040402020202020202020202FE
:1036A00004040404040402020202020202020202EE
:1036B00004040404040402020202020202020202DE
:1036C00004040404040402020202020202020202CE
:1036D00004040404040402020202020202020202BE
:1036E00004040404040400000000000000000000C2
:1036F00000000000000000000000000000000000CA
:1037000000000000000000000000000000000000B9
:1037100000000000000000000000000000000000A9
:103720000000000000000000000000000000000099
:103730000000000000000000000000000000000089
:103740000000000000000000000000000000000079
:103750000000000000000000000000000000000069
:103760000000000000000000000000000000000059
:103770000000000000000000000000000000000049
:103780000000000000000000000000000000000039
:103790000000000000000000000000000000000029
:1037A0000000000000000000000000000000000019
:1037B00000000000000001010101010101010101FF
:1037C00001010101010103030303030303030303D5
:1037D00003030303030301010101010101010101CD
:1037E00001010101010100000000000000000000D3
:1037F00000000000000003030303030303030303AB
:1038000003030303030300000000000000000000A6
:1038100000000000000000000200000000020000A4
:103820000000000000000000000000000000000098
:10383000000000000000000300000300030000037C
:103840000000000000000200000000020000000074
:103850000000000000000000000000000000000068
:103860000000000000000000000000000000000058
:103870000000000000000000000000000000000048
:103880000000000000000000000000000000000038
:103890000000000000000000000000000000000028
:1038A0000000000000000000000000000000000018
:1038B0000000000000000000000000000000000008
:1038C00000000000000000000000000000000000F8
:1038D00000000000000000000000000000000000E8
:1038E00000000000000000000000000000000000D8
:1038F00000000000000000000000000000000000C8
:1039000000000000000000000000000000000000B7
:1039100000000000000000000000000000000000A7
:103920000000000000000000000000000000000097
:103930000000000000000000000000000000000087
:103940000000000000000000000000000000000077
:103950000000000000000000000000000000000067
:103960000000000000004255533D25640D0A000090
:1039700000240348066A098C0CAB0FC812E215F943
:10398000180B1C1A1F2322282526281F2B112EFB5B
:1039900030DF33BA368C39563C173FCE417A441C5F
:1039A00047B4493F4CBF4E33519B53F55542588263
:1039B0005AB45CD75EEC60F162E864CF66A6686DCD
:1039C0006A246CCA6D5F6FE2705572B573047541FD
:1039D000766C7784788A797D7A5D7B2A7CE47C8A30
:1039E0007D1D7E9D7E097F627FA77FD87FF67F56F3
:1039F0004F4C54000000495200000000004B42446C
:103A000000000000524E4400000000534552564F43
:103A100000005449434B000000504F525400000036
:103A2000524F4D00000000545950450000004142E3
:103A300053000000004D4150495200004B495200D4
:103A400000000046494E44000000435642324900FF
:103A5000004E4500000000004E5300000000004DE5
:103A600041580000000053554D000000004D494EE4
:103A7000000000004E4F524D0000005351525400C0
:103A8000000053494E00000000434F530000000067
:103A9000494D415800000048414D0000000052418E
:103AA0004E47450000534947000000004453494732
:103AB0000000005354414E4400005A45524F5300F9
:103AC000004D49430000000058000000000000596C
:103AD0000000000000005A000000000000505344A5
:103AE0000000000047524559000000545552544C04
:103AF00045004556454E5400004D41500000000021
:103B000053485546000000457272202D20646976A6
:103B100020300D0A006576616C20737461636B2040
:103B2000706F70206572726F722025642C2025647E
:103B3000205B25642C25645D0D0A006576616C2090
:103B4000737461636B206572726F722025642C2020
:103B500025640D0A006576616C20737461636B20C7
:103B60006572722025642C25640A004576616C20FC
:103B70003D25730A006576616C20737461636B2068
:103B80006572726F720A006576616C20737461638E
:103B90006B206572726F720A002564202D202564E7
:103BA0000A00737461636B2025640A002564202D6C
:103BB000205B25635D0A004F70732025640A002591
:103BC00063203D20256C642020002563203D2025B6
:103BD0006C642020002563203D20256C642020009B
:103BE00070616E6963206572726F720D0A004D41DB
:103BF000502025642025640D0A00256420256420BA
:103C0000256420256C640D0A004576616C202563CF
:103C10000A004372656174652025630A0044657378
:103C200074726F792025630A000A00202564002140
:103C3000205B2533645D000A002025640025632095
:103C40005B2533645D003F20436D64206E6F7420FC
:103C5000617661696C61626C650D0A00464F25648E
:103C60003D25640A004F4F3D25640A0054683D2DF0
:103C7000282564290A00496E7075743D2564202842
:103C800025642078202564290A00496E7075743DEA
:103C90002564202825642078202564290A004F55B2
:103CA00054505554204E4555524F4E203D202564CA
:103CB0000A004F483D25640A0054683D2D282564BC
:103CC000290A00496E7075743D25642028256420FA
:103CD00078202564290A0048494444454E204E4531
:103CE00055524F4E203D2025640A004F25643D2546
:103CF000640A0025642D282564290A0025643C3DBA
:103D0000282564290A00496E7075743D25642028B1
:103D100025642078202564290A00494E50555420F6
:103D20004E4555524F4E203D2025640A00436F6E8C
:103D30006E2050657220494E505554204E455552C4
:103D40004F4E203D2025640A004F6666736574203F
:103D50003D20256420282564290A0A004E4F204C66
:103D600033203D2025640A0A004E4F204C32203D6E
:103D70002025640A004E4F204C31203D2025640A46
:103D800000466C616773203D2025640A004E4F4F4A
:103D90002020203D2025640A004E4F492020203D50
:103DA0002025640A004572723A3A206C6179657286
:103DB0002033206E6575726F6E73206D757374207D
:103DC0006D61746368206F757470757420286F72EC
:103DD000206265207A65726F290A004572723A3A4C
:103DE00020496E70757420616E64206F75747075F3
:103DF00074206D75737420626520677420300A002A
:103E0000434F20707432202020203D2025640A007A
:103E1000434F20707431202020203D2025640A006B
:103E20004D75742072616E6765203D202B2F2D2506
:103E3000640A004D7574207261746520203D202550
:103E4000640A0047656E657261746520203D202517
:103E5000640A006C656E677468202020203D202570
:103E6000640A00547970652020202020203D202500
:103E7000640A004572726F72202D206D7574617432
:103E8000696F6E2072616E6765206D757374206254
:103E900065203E300A00256429203D202825642025
:103EA0002564292025640D0A0046465420282564EF
:103EB00029203D2025640D0A002C2564002564007E
:103EC000496E76616C69642073616D706C652073F6
:103ED000697A65206D757374206265206F6E652048
:103EE0006F6620382C31362C3332206F72203634F6
:103EF0000A005365742074696D657220256C642C0A
:103F00002025640A004442473A3A204D4F56452046
:103F100025643D25640A00456E64206F662070723A
:103F20006F6772616D0D0A004D6F74696F6E20725C
:103F3000616E67653A202030202D2031380D0A004F
:103F4000506C6179204D6F74696F6E2025640D0A85
:103F5000002C256400256400256C640044756D6D9B
:103F600079202D5B25635D205B25735D0A0011249C
:103F70001FBECFEFD0E1DEBFCDBF16E0A0E0B1E0C5
:103F8000E8E2F1E101E00BBF02C007900D92AC3016
:103F9000B107D9F71CE0ACE0B6E001C01D92A93E24
:103FA000B107E1F70E9468230C9492880C940000FA
:103FB00080911E0990911F09883C910510F4DA98B0
:103FC00014C080911E0990911F09893C910560F0F1
:103FD00080911E0990911F0921E08039920720F4F9
:103FE000DA9ADB9ADC980895DA9ADB9ADC9A0895DB
:103FF00090931B0980931A0980911A0990911B09CB
:104000000097D1F708951F920F920FB60F920BB63B
:104010000F9211242F933F934F935F936F937F934E
:104020008F939F93AF93BF93EF93FF9389E182BFE9
:1040300080912C0990912D09019690932D098093E0
:104040002C0980911A0990911B09009749F08091E1
:104050001A0990911B09019790931B0980931A09E3
:104060000E94D81F80919D06882389F080911E09A7
:1040700090911F096091060170E00E94768600977A
:1040800031F48FE08093C6098CED0E94732A8091F1
:104090001E0990911F09019690931F0980931E0994
:1040A00080911E0990911F0923E0883E920708F431
:1040B00043C010921F0910921E0980911C09909113
:1040C0001D09009749F080911C0990911D090197E5
:1040D00090931D0980931C09809119098F5F80932B
:1040E0001909809119098C3338F1109219098091BE
:1040F000260990912709009749F08091260990910F
:1041000027090197909327098093260980910D092B
:104110008F5F80930D0980910D098C3368F01092A8
:104120000D09809111098F5F809311098091110908
:10413000883110F010921109FF91EF91BF91AF916A
:104140009F918F917F916F915F914F913F912F91AF
:104150000F900BBE0F900FBE0F901F9018951F92DF
:104160000F920FB60F9211240F900FBE0F901F9059
:10417000189580910A09882321F180914209909134
:10418000430925E28C31920728F0109229091092F8
:10419000280909C0809128099091290901969093D6
:1041A000290980932809809128099091290987304D
:1041B000910578F110920A091092290910922809A4
:1041C0000895809142099091430925E28C3192072C
:1041D00070F0109229091092280980911409909189
:1041E00015090196909315098093140904C0109243
:1041F00015091092140980911409909115098330C2
:10420000910538F081E080930A0910921509109207
:10421000140908950F931F93CF93DF9321E0209308
:104220000E0985E090E090932709809326098091FC
:1042300042099091430900D000D00F92EDB7FEB72C
:104240003196ADB7BEB711962C932EE731E032838D
:104250002183948383830E94B7260F900F900F9041
:104260000F900F9005E011E0C8E5D1E063C00E9417
:10427000002497FF66C00E940A2C97FF62C08091BD
:104280001909602F0E946A86992359F530910D090A
:104290002091190980914209909143094DB75EB769
:1042A000495050400FB6F8945EBF0FBE4DBFEDB7FA
:1042B000FEB73196ADB7BEB711961C93D283C183BA
:1042C0003383148225831682908787830E94B726C2
:1042D0004DB75EB7475F5F4F0FB6F8945EBF0FBE36
:1042E0004DBFAF9A809165008B7F809365000E94DF
:1042F0003E2B0E94B92080910A09882311F1C49AAB
:1043000088E290E00E94F81FC4988CEC91E00E9433
:10431000F81F809165008460809365000E943E2BA9
:104320000E94B92080910A09882359F084EF91E016
:104330000E94F81F8091260990912709009709F0A3
:1043400096CF85E590E0909327098093260905E0B4
:1043500011E0C9E3D1E063C00E94002497FF66C06A
:104360000E940A2C97FF62C0AF9A80911709909122
:10437000180951E0853F950720F0809165008B7FFB
:1043800003C0809165008460809365008091170967
:1043900090911809009741F08091170990911809A0
:1043A000A1E0843F9A07B1F50E943E2B0E94B920FC
:1043B00080911909602F0E946A86992359F53091DE
:1043C0000D092091190980914209909143094DB737
:1043D0005EB7495050400FB6F8945EBF0FBE4DBF58
:1043E000EDB7FEB73196ADB7BEB711961C93D28329
:1043F000C1833383148225831682908787830E942A
:10440000B7264DB75EB7475F5F4F0FB6F8945EBFF4
:104410000FBE4DBF80910A09882341F0C49A809154
:10442000260990912709009709F096CFC498109219
:104430000E09809142099091430900D000D00F925B
:10444000EDB7FEB7319621E0ADB7BEB711962C930C
:104450002DE231E032832183948383830E94B72647
:104460000F900F900F900F900F90DF91CF911F91B1
:104470000F91089589B38370813049F48AE090E008
:104480000E94F81FC89B03C081E08093160989B37E
:104490008370823059F48AE090E00E94F81F89B35B
:1044A0008370823019F483E0809316090895FF9297
:1044B0000F931F93CF93DF9300D00F9281E0ADB79E
:1044C000BEB711968C9311978EE191E013969C9351
:1044D0008E9312970E94B7260F900F900F90CAE00C
:1044E000D0E0FF24F39406E111E0AF9882E390E07E
:1044F0000E94F81F0E943E2B0E94B9208091420921
:104500009091430900D000D00F92EDB7FEB73196DD
:10451000ADB7BEB71196FC92128301839483838357
:104520000E94B726AF9A0F900F900F900F900F90A8
:1045300082E390E00E94F81F2197B9F680910A0962
:10454000882311F100D00F92EDB7FEB7F1828EEF04
:1045500090E0938382830E94B7260F900F900F9074
:104560000E94B6400E940A2100D00F92ADB7BEB79C
:104570001196FC92119783EF90E013969C938E9383
:1045800012970E94B7260CC000D00F92EDB7FEB76D
:10459000F18282EE90E0938382830E94B726AF98E7
:1045A0000F900F900F90DF91CF911F910F91FF907F
:1045B000089580911609813011F40E9457220895C0
:1045C00093E09BBB8CEF8ABB18BA84E787BB15BA14
:1045D00080E884BB23E822BB81BB20E323B928E029
:1045E00022B910926200109261001092650024E0DE
:1045F0002093640010BE23BF12BE11BE1FBC25E075
:104600002EBD1DBC1CBC17BC16BC1BBC1ABC19BCE7
:1046100018BC109279001092780025BD14BC13BC10
:1046200010928B0090938A0010928900109288005B
:1046300010928100109280001092870010928600E4
:1046400010928500109284001092830010928200D4
:1046500010926A0090E29ABF20E429BF17BE109220
:104660007D001BB848E14AB936E0309395001092BE
:10467000900027E029B910929B0040939A00309354
:104680009D00109298002093990088B910BC97B9AA
:1046900016B8109274000895DA9ADB9ADC9AE5E66F
:1046A000F0E0808184608083AF9ADD9ADE9ADF9AA1
:1046B000C5981092D3091092D50910921F09109233
:1046C0001E091092190910920D09109211090895EE
:1046D0000E94E0220E944C230E94BD2360E072EC05
:1046E00081E090E00E94A0238DED93E20E9451258D
:1046F000789487B7816087BF809165008B7F8093B6
:1047000065000E94252D0E943A220E94D9220E9413
:10471000073AFFCF8FE299E06EE076E040E450E0A8
:104720000E94B52488E399E06EE476E040E450E02E
:104730000E94B524089590930D0680930C06089569
:104740009B01AC016B54704E834E9F4FF3E0660F9C
:10475000771F881F991FFA95D1F7E4E0220F331FC6
:10476000441F551FEA95D1F70E949D862150304085
:10477000209399003093980008950E948A23109204
:104780000D0610920C0688ED80939A0060E875E2A1
:1047900080E090E00E94A0238FEF80932E0910927A
:1047A00037091092410910924009789408958FE2D8
:1047B00099E0089588E399E0089590912E0999234E
:1047C000E1F380939C0010922E090895CF93DF931C
:1047D000EC018091310990913209009769F0809144
:1047E000330990913409009739F08FE299E00E94E3
:1047F000C22488838FEF01C080E0DF91CF910895BC
:10480000DF93CF930F92CDB7DEB7CE0101960E9412
:10481000E623882319F0298130E002C02FEF3FEF13
:10482000C9010F90CF91DF91089510923409109231
:10483000330908958091330990913409009711F458
:104840008FEF089580E00895682F88E399E00E9433
:104850001A2508958FEF8093370988E399E00E9425
:10486000C2240E94DD2308951F920F920FB60F926B
:104870000BB60F9211242F933F934F935F936F9337
:104880007F938F939F93AF93BF93EF93FF93809109
:104890003709882379F080913C0990913D09009770
:1048A00039F088E399E00E94C22480939C0005C0FF
:1048B000109237098FEF80932E09FF91EF91BF91EE
:1048C000AF919F918F917F916F915F914F913F91A8
:1048D0002F910F900BBE0F900FBE0F901F90189549
:1048E0001F920F920FB60F920BB60F9211242F93B7
:1048F0003F934F935F936F937F938F939F93AF9368
:10490000BF93EF93FF9360919C0020910C06309130
:104910000D062115310539F0E0910C06F0910D06D8
:10492000862F09950FC08FE299E00E941A258823EF
:1049300049F4809140099091410901969093410971
:1049400080934009FF91EF91BF91AF919F918F911B
:104950007F916F915F914F913F912F910F900BBE7F
:104960000F900FBE0F901F901895FC018FB7F89411
:104970007183608353834283178216821582148267
:104980008FBF0895FC019FB7F8944481558141156C
:104990005105C9F026813781A081B181A20FB31FD3
:1049A0008C912F5F3F4F3783268362817381261757
:1049B000370720F0261B370B3783268341505040A2
:1049C0005583448301C080E09FBF0895FC01AFB7C9
:1049D000F8942481358162177307A0F4868197814A
:1049E000860F971F9783868342815381841795078B
:1049F00020F0841B950B97838683261B370B35830A
:104A0000248302C015821482AFBF0895FC01CB013C
:104A10002FB7F89446815781840F951F6281738167
:104A20000E9476860190F081E02DE80FF91F8081C9
:104A30002FBF08951F93FC01162F4FB7F894A48140
:104A4000B58122813381A217B307A0F486819781B3
:104A50008A0F9B1FB9010E947686A081B181A80FA1
:104A6000B91F1C93848195810196958384834FBFE0
:104A70008FEF02C04FBF80E01F910895FC014FB738
:104A8000F8942281338184819581281B390B4FBF93
:104A9000C90108952FB7F894FC01158214822FBF25
:104AA000089590939B0680939A0608951F93182F5C
:104AB0008A3031F4E0919A06F0919B068DE00995D9
:104AC000E0919A06F0919B06812F09951F91089518
:104AD000CF93DF93009739F0EC0102C00E94562576
:104AE00089918823D9F7DF91CF910895EF92FF92B2
:104AF0000F931F93CF93DF937A010097E9F0FC01A6
:104B000080E090E0EF018617970718F000E010E0D2
:104B100010C02191EF0101962223A1F7F7CF8881E0
:104B2000882311F0219601C080E20E9456250F5F74
:104B30001F4F0E151F0598F3DF91CF911F910F9115
:104B4000FF90EF900895CF93DF93EC01009719F455
:104B500007C00E945625FE01219684918823C9F73B
:104B6000DF91CF9108958AE00E9456250895E82F9D
:104B7000F0E0EF70F070E257FE4F84910E945625EE
:104B800008951F93182F82958F700E94B725812F4B
:104B90000E94B7251F9108951F93182F892F0E94F7
:104BA000C125812F0E94C1251F910895EF92FF9288
:104BB0000F931F937B018C01C8010E94CC25C70174
:104BC0000E94CC251F910F91FF90EF9008952F9296
:104BD0003F924F925F927F928F929F92AF92BF923D
:104BE000CF92DF92EF92FF920F931F93DF93CF93B9
:104BF000CDB7DEB7A2970FB6F894DEBF0FBECDBF1C
:104C0000282E862E942E722E57016801442351F0CF
:104C100017FF08C066277727CB016E197F09800B25
:104C2000910B02C0C601B50118A2332444245524B7
:104C3000A20191010E949D866F70707062577E4F35
:104C4000FB0164916F8FB901CA018E01025E1F4F93
:104C5000382D315021E0992009F420E0321BA801C1
:104C6000431B51095AA349A318C061157105810559
:104C7000910579F0A20191010E949D866F7070707C
:104C800062577E4FFB016491F8016083B901CA014C
:104C900002C0F80170820150104078010894E11CB4
:104CA000F11C29A13AA102171307F9F69920C1F0C6
:104CB000D7FE03C078018DE20AC0A114B104C1047B
:104CC000D10419F078018BE202C0780180E2F7018B
:104CD000808306C0F70181917F010E9456258A9446
:104CE0008820C1F7A2960FB6F894DEBF0FBECDBFE5
:104CF000CF91DF911F910F91FF90EF90DF90CF90B8
:104D0000BF90AF909F908F907F905F904F903F901B
:104D10002F90089580538A3010F48FEF089580E02B
:104D20000895E62FF72F20E030E00AC0649101C01B
:104D3000608170E0605370409A01260F371F3196F2
:104D4000882311F0949101C0908190539A3068F4B7
:104D5000A901440F551F93E0220F331F9A95E1F7E5
:104D6000420F531F882311F7E3CFC90108952F92F3
:104D70003F924F925F926F927F928F929F92AF92EB
:104D8000BF92CF92DF92EF92FF920F931F93DF9328
:104D9000CF9300D0CDB7DEB77F886AE1E62EF12C45
:104DA000EC0EFD1E988D898D092F182F50E3652E6E
:104DB00067016BC2D8018C91853209F062C20F5F26
:104DC0001F4F772019F0F801849102C0D8018C910F
:104DD0008D3231F40F5F1F4F41E0242E312C02C081
:104DE00022243324772029F0F8018491803331F490
:104DF0000CC0D8018C91803331F407C08E3229F079
:104E000030E2432E08C08E3259F40F5F1F4F7720D7
:104E100051F020E3422EF80184918A32B9F409C09E
:104E200090E2492E02C080E3482ED8018C918A324C
:104E300079F4F6010190F081E02DFA83E9830F5FA8
:104E40001F4F22E030E0C20ED31E1CC0772011F4A9
:104E5000D8018C9180538A3088F4872DB8010E9444
:104E600091269A838983F801772011F0849101C0FB
:104E7000808180538A3028F43196F6CF1A821982C5
:104E800001C08F01772019F0F801849102C0D80188
:104E90008C918E3261F50F5F1F4F772029F0F8015A
:104EA00084918A3289F404C0D8018C918A3251F4F9
:104EB000F601808091800F5F1F4F22E030E0C20E2C
:104EC000D31E1BC0D8018C9180538A3080F4872D6B
:104ED000B8010E9491264C01F801772011F08491CD
:104EE00001C0808180538A3038F43196F6CFBEEF0E
:104EF0008B2EBFE79B2E01C08F01772019F0F801A0
:104F0000849102C0D8018C91833229F40F5F1F4F26
:104F1000A1E0B0E002C0A0E0B0E0772019F0F80115
:104F2000849102C0F80180818C3629F40F5F1F4FF5
:104F300081E090E002C080E090E0772019F0F80175
:104F4000249102C0F801208130E02F36310509F4A8
:104F500093C02037310564F42336310509F43DC18F
:104F60002436310591F02532310509F08CC188C114
:104F70002537310509F480C02837310509F47CC094
:104F80002337310509F07FC133C1009749F0D601BD
:104F90006D917D918D919C911397E4E0F0E00AC0B2
:104FA000D6016D917C911197882777FD8095982F78
:104FB000E2E0F0E0CE0EDF1E97FF0BC090958095EB
:104FC000709561957F4F8F4F9F4FA1E08A2E912C56
:104FD00002C088249924FEE8AF2EF6E0BF2E2AE016
:104FE00030E040E050E00E94BF86605DF5016193D3
:104FF0005F01B901CA0116161706180619067CF3D7
:105000007F018114910421F0DF01EDE2ED937D0138
:10501000A980BA802EE836E0A20EB31EAE18BF08F3
:105020002114310491F403C0842D0E945625089464
:10503000A108B10895012F5F3F4F12161306A4F384
:1050400004C0D7018C910E9456250894E108F1080C
:10505000BEE8EB16B6E0FB06A0F72114310409F414
:1050600012C106C080E20E9456250894A108B1082A
:105070001A141B04BCF307C1009741F0F6016081CC
:1050800071818281938144E050E007C0F601608124
:10509000718180E090E042E050E0C40ED51E2537DB
:1050A0003105B9F4EEE8AE2EE6E0BE2E2AE030E09F
:1050B00040E050E00E949D86605DD5016D935D01EA
:1050C0007D01B901CA01611571058105910571F76D
:1050D00050C02F363105D1F42EE836E0462F477008
:1050E000405DF90141939F0153E09695879577952F
:1050F00067955A95D1F7611571058105910571F78D
:105100007F011097B1F161927F0133C028373105DB
:1051100061F52FE836E0F9013197AB014F7050701F
:105120004A30510514F4405D01C0495A4083790169
:1051300044E096958795779567954A95D1F72F5FC7
:105140003F4F3196611571058105910531F7109733
:1051500081F0F70128E72193D70111966C921197FE
:105160007F010894E11CF11C04C0FEE8EF2EF6E07C
:10517000FF2EA980BA80EEE8F6E0AE0EBF1EAE1894
:10518000BF082114310491F403C0842D0E945625D8
:105190000894A108B10895012F5F3F4F121613061E
:1051A000A4F304C0D7018C910E9456250894E1080D
:1051B000F108BEE8EB16B6E0FB06A0F721143104B7
:1051C00009F461C006C080E20E9456250894A10837
:1051D000B1081A141B04BCF356C0E2E0EE2EF12C09
:1051E000EC0CFD1CF60180810E94562567014BC026
:1051F000F60122E030E0C20ED31EE080F180E1141F
:10520000F10421F470E0E72E71E0F72EF701019030
:105210000020E9F73197EE19FF09A980BA80AE1A8C
:10522000BF0A2114310469F403C0842D0E9456255D
:105230000894A108B10895012F5F3F4F121613067D
:10524000A4F32701EE24FF2405C00E9456250894EC
:10525000E11CF11CD2018D912D01882319F0E81475
:10526000F9049CF32114310471F006C080E20E941D
:1052700056250894A108B1081A141B04BCF303C0F6
:1052800085E20E9456250F5F1F4F772031F0F8010D
:105290008491882309F090CD05C0D8018C91882392
:1052A00009F088CD80E090E00F900F90CF91DF91D2
:1052B0001F910F91FF90EF90DF90CF90BF90AF9034
:1052C0009F908F907F906F905F904F903F902F9026
:1052D0000895FB01DD9ADE9ADF9A20916500246033
:1052E00020936500AF9A20813181281739070CF48B
:1052F000DF9822813381281739070CF4DD98248147
:105300003581281739070CF4DE9826813781281754
:1053100039072CF4209165002B7F209365002085B0
:105320003185281739070CF4AF980895DF93CF9390
:10533000CDB7DEB72A970FB6F894DEBF0FBECDBF4C
:10534000DE011196E8E0F1E02AE001900D92215093
:10535000E1F7BE016F5F7F4F0E9469292A960FB661
:10536000F894DEBF0FBECDBFCF91DF9108950097B7
:1053700079F01092CA091092C90987B7816087BF76
:1053800089B7806489BFDD9881E080939D06089588
:1053900087B78E7F87BF89B78F7B89BF80E090E01A
:1053A0000E94962910929D0608951F920F920FB6A3
:1053B0000F920BB60F9211242F933F934F935F934D
:1053C0006F937F938F939F93AF93BF93EF93FF93CD
:1053D00085B18093C5099091C609913049F091300B
:1053E00020F09F3009F06AC00CC08093C40966C0E9
:1053F00099E3899FC0011124909343098093420946
:105400005DC0863E18F48093C70902C01092C70998
:105410008091C70990E00E9496298091C9099091D6
:10542000CA090097F1F420919E062223D1F0309111
:10543000C70920919E062317A0F080919F069091A6
:10544000A00601979093A00680939F0680919F06E7
:105450009091A006009791F51092A10610929D06DA
:105460002DC020919E06FC01EC5BF64F222319F023
:105470002091C70908C040812091C70930E0240F5E
:10548000311D3595279520832091070130E021506B
:1054900030408217930741F42091A106213021F476
:1054A0001092A10610929D0660910701019670E08E
:1054B0000E948A869093CA098093C90910929C061B
:1054C000FF91EF91BF91AF919F918F917F916F91DC
:1054D0005F914F913F912F910F900BBE0F900FBE98
:1054E0000F901F9018959091C609906297B986B950
:1054F0000895C5990AC0C59A89EF9FE3A2E081503B
:105500009040A040E1F700C00000089588B30895DE
:10551000EF92FF920F931F938091D5098823E1F7B3
:1055200089B78F7B89BF0E94792A1092C60981E0D2
:1055300080939C068CED0E94732A80919C068823A0
:10554000E1F76091C409C59889B7806489BF70E0AC
:10555000882777FD8095982F0E94AF8320E030E068
:10556000A9010E94198121EE3AE74CED50E40E9416
:1055700046819B01AC0166E676EA8BE894E40E94E2
:1055800071827B018C017F2D912F20E030E0A901F9
:105590000E947F8387FD1EC06E2D7F2D802F912F4F
:1055A00020E030E040E251E40E947F8387FD0DC09F
:1055B0006E2D7F2D802F912F20E030E048E452E4C3
:1055C0000E941F83181634F009C0EE24FF2400E265
:1055D00011E404C0EE24FF2408E412E46E2D7F2DB4
:1055E000802F912F0E94A37F6093CB091F910F9171
:1055F000FF90EF900895DF92EF92FF920F931F9329
:10560000CF93DF938FE08093C609C2E3D0E0DD241F
:10561000EE24FF2400E011E010939C068CED0E9424
:10562000732A80919C068823E1F76091C70970E096
:10563000882777FD8095982F0E94AF839B01AC014E
:105640006D2D7E2D8F2D902F0E941981D62EE72E45
:10565000F82E092F219701F720E030E040E251E4D5
:105660000E9471820E94A37F6093C809DF91CF914D
:105670001F910F91FF90EF90DF9008951F9310916D
:105680009D0610929D0681E08093C6098CED0E94D4
:10569000732A3699FECF10939D061F9108951F928D
:1056A0000F920FB60F920BB60F9211248F93EF93B8
:1056B000FF9387B78F7B87BF1092D509E5E6F0E0AF
:1056C000808184608083AF9ADD9ADE98FF91EF91AC
:1056D0008F910F900BBE0F900FBE0F901F901895DB
:1056E0001F920F920FB60F920BB60F9211248F9349
:1056F0009F93EF93FF938091D5098130B1F0813072
:1057000020F0823009F07BC036C014BC81E0809369
:10571000D50986B7806486BF87B7806487BF8091CC
:1057200065008B7F809365006AC084B58093D20941
:1057300014BC8A53893118F01092D50915C0109203
:10574000CD091092D40982E08093D50986B7806490
:1057500086BF87B7806487BF1092D7091092D80997
:105760001092D9091092DA098091650084608093C3
:105770006500AF9844C0DD98809165008460809397
:105780006500AF9A84B58093D20914BC982F9D50C0
:105790009E3060F5E091D409843138F0F0E0E952B0
:1057A000F64F80818695806805C0F0E0E952F64F9B
:1057B0008081869580838091CD098F5F8093CD090C
:1057C0008830B9F41092CD098091D4098F5F80930D
:1057D000D409843071F48091D7098093CC098091E9
:1057E000DA098093D6098FEF8093D3091092D509F7
:1057F00006C086B7806486BF87B7806487BFFF9185
:10580000EF919F918F910F900BBE0F900FBE0F9055
:105810001F9018958091D309882331F01092D309F5
:105820002091D60930E002C02FEF3FEFC901089563
:10583000282F30E087FF02C020503140C901089571
:10584000159A149A1D9A1C9A000000001D980000D9
:1058500000001C98000000000895159A149A1D98E5
:105860001C9A000000001D9A000000001598149872
:105870000895159A98E087FF02C01D9A01C01D98EF
:10588000000000001C9A00000000000000001C98AE
:1058900000000000915011F0880FEDCF0895159889
:1058A00098E080E0880F00000000000000001C9AD3
:1058B000000000000D998160000000001C989150CC
:1058C00089F7159A08951598000000001D9A0000A8
:1058D00000001C9A000000001C9800000000159AAF
:1058E000000000000895159A000000001D980000B7
:1058F00000001C9A000000001C98000000001D9A87
:10590000000000000895159A000000001D9A000094
:1059100000001C9A000000001C9800000000089580
:10592000CF92DF92EF92FF920F931F93DF93CF936B
:1059300000D00F92CDB7DEB76B014A835B838983BA
:105940000E94202C89810E94392C0E94632C4A815C
:105950005B81E42EF52E00E010E009C0F701819193
:105960007F010E94392C0E94632C0F5F1F4F0C1582
:105970001D05A4F30E942D2C81E090E00F900F9064
:105980000F90CF91DF911F910F91FF90EF90DF90DB
:10599000CF9008958F929F92AF92BF92CF92DF9255
:1059A000EF92FF920F931F93DF93CF9300D00F924C
:1059B000CDB7DEB75B0169014A835B8389830E94AF
:1059C000202C89810E94392C0E94632C4A815B81A2
:1059D000E42EF52E882499240AC0F70181917F01D5
:1059E0000E94392C0E94632C0894811C911C8A14FB
:1059F0009B049CF3AA24BB2476010894E108F108D7
:105A00000DC00E944F2CF80181938F01AE14BF048A
:105A100014F40E94732C0894A11CB11CAC14BD0496
:105A200084F30E94832C0E942D2C0F900F900F90D6
:105A3000CF91DF911F910F91FF90EF90DF90CF906A
:105A4000BF90AF909F908F9008950E94202C80E788
:105A50000E94392C0E94632C84E10E94392C0E9400
:105A6000632C83E00E94392C0E94632C0E942D2C11
:105A700008951F930E94202C80E70E94392C0E94D9
:105A8000632C82E00E94392C0E94632C0E942D2CF2
:105A900000000000000000000E94202C81E70E940E
:105AA000392C0E94632C0E944F2C0E94732C0E9460
:105AB0004F2C182F0E94732C812F90E017FF02C0EB
:105AC000805091409093DC098093DB090E944F2C19
:105AD0000E94732C0E944F2C182F0E94732C812F30
