:100000000C94BA1C0C94D91C0C94D91C0C94D91CBB
:100010000C94D91C0C94D91C0C94D91C0C94C72694
:100020000C94D91C0C94D91C0C94A6260C94D91CA5
:100030000C94D91C0C94D91C0C94051D0C94D91C3F
:100040000C9426200C94D91C0C94D91C0C94D91C0B
:100050000C94D91C0C9410250C94D91C0C94D91C0C
:100060000C94D91C0C94D91C0C94D91C0C94D91C3C
:100070000C94D91C0C94D91C0C9412210C94D91CEE
:100080000C945C210C94D91C0C94D91C3B33AC34DB
:10009000B334BA34C934CE34D534DC34EC346736B6
:1000A0004D3326370D36C634A735EF34E334D43616
:1000B000FE35C134C6345233CD33AA338134BA3518
:1000C000D435E8355233ED3381361A3500354B35AA
:1000D0008835A43D7B3CBE3F23522352233E333E12
:1000E000733C843D1C4479418B41A441D63CC63DC0
:1000F0000A40244443442F3D0F3E97432A42C341C4
:100100008B41BD4001417E42F743DC439F4369453B
:100110008647694617477941FE44FE445D447F495E
:10012000E54B5D4405550555EF563D573D57215765
:1001300043564557625543575B56455745572757D2
:10014000FD55455721574357425545572157455768
:100150004557455745574557FD5545574557455709
:1001600043564557455745575B564557455745579D
:100170004557455745574E6F7420706C75676765D6
:100180006420696E0D0A00436F6D706C6574650DB7
:100190000A00506C756767656420696E202D2063C6
:1001A00068617267696E670D0A002564206D560DDF
:1001B0000A00636861726765206D6F6465200D0ACF
:1001C00000446F6E652025646D560D0A0025643A63
:1001D00025642066756C6C206368617267652070A9
:1001E0006F7765722025646D560D0A0025643A25E7
:1001F000642073686F72742034306D73206368619B
:100200007267652070756C7365732025646D560D7B
:100210000A005374617274202E2E2025646D560DD1
:100220000A003031323334353637383941424344AD
:1002300045460025642C2025642C2025640A0045B1
:100240005849542044454D4F204D4F44450D0A0018
:1002500025640D0A003E3A200044454D4F204D4F85
:1002600044450D0A000D0A00557074696D653A2009
:10027000002564206C696E65732073746F72656409
:100280000D0A00256420736572766F7320636F6EAC
:100290006E65637465640D0A002564206C696E6583
:1002A00073206C6F616465640D0A00746573746912
:1002B0006E67206368617267650D0A0050534420C1
:1002C0006F66660D0A006F6B0D0A005374616E64F1
:1002D0002025640D0A003F204E6F2073756368204F
:1002E0006C696E652025640A00476F287375622962
:1002F000202564203D2025640A000D0A00456C611C
:10030000707365642054696D6520002564206C69F4
:100310006E657320696E206D656D6F72790D0A00D0
:10032000256420736572766F7320636F6E6E6563EC
:100330007465640D0A0072657365740D0A000D0A18
:10034000002564002C2564002564002563004020FE
:100350000023200025633D0025643D00504F52548A
:100360003A25633A2563002563203D2000200025BF
:10037000642000257820002578200025782000259D
:100380007820004F3D25640A004F3D25640A005443
:10039000683D2D282564290A00496E7075743D2535
:1003A00064202825642078202564290A00496E707D
:1003B00075743D2564202825642078202564290A49
:1003C000004F5554505554204E4555524F4E203DE8
:1003D0002025640A004F3D25640A0054683D2D28FD
:1003E0002564290A0048494444454E204E4555524B
:1003F0004F4E203D2025640A004F3D25640A0054DD
:10040000683D2D282564290A00496E7075743D25C4
:1004100064202825642078202564290A00494E504C
:100420005554204E4555524F4E203D2025640A001C
:100430004F6666736574203D2025640A0A004E4F9E
:10044000204C33203D2025640A0A004E4F204C32B8
:10045000203D2025640A004E4F204C31203D2025B0
:10046000640A00466C616773203D2025640A004ED3
:100470004F4F2020203D2025640A004E4F49202068
:10048000203D2025640A00434F2070743220202034
:10049000203D2025640A00434F2070743120202025
:1004A000203D2025640A004D75742072617465201A
:1004B000203D202564250A0047656E6572617465DC
:1004C00020203D2025640A006C656E67746820203A
:1004D00020203D2025640A005479706520202020CA
:1004E00020203D2025640A00256429203D20282560
:1004F00064202564292025640D0A004646542028DE
:10050000256429203D2025640D0A002C2564002542
:100510006400496E76616C69642073616D706C650E
:100520002073697A65206D757374206265206F6E23
:1005300065206F6620382C31362C3332206F7220C4
:1005400036340A002C2564002564002564002563E8
:10055000203D2025640D0A005573657220427265A6
:10056000616B206F6E206C696E652025640D0A003A
:100570005452414345203A3A202564202D2000451D
:100580006E640D0A0052756E74696D652065727235
:100590006F72202564206F6E206C696E6520256463
:1005A0000D0A006576616C206572726F7220256499
:1005B0002C2025640D0A0070616E696320657272DB
:1005C0006F720D0A00456C61707365642054696D2B
:1005D000652025646D730D0A000D0A2564206C6981
:1005E0006E657320656E74657265642C205B25648E
:1005F0002F25645D2042797465730D0A0050616E89
:1006000069632025640D0A00506F733D2564205BEB
:1006100025635D0D0A0050726F6772616D20656E13
:10062000747279206D6F646520282E20746F2065A8
:10063000786974290D0A000D0A004D6F74696F6E98
:100640002072616E67653A202030202D2031380DF0
:100650000A00506C6179204D6F74696F6E202564BB
:100660000D0A007DC9A3436C7D3059B88E59277C93
:10067000A2D37F7DB3C7586C7E4831A38D332F3111
:10068000C7CDCD04040404040404040404040404D5
:10069000040404020202020202020202020000003A
:1006A000000000010101010101010101010101013D
:1006B000010101020202020202020202020202021D
:1006C00002020204040404040404040404040404F0
:1006D0000404040101010101000000000001010106
:1006E0000000000101010101000000000001010102
:1006F00000000003030303030000000000030303E2
:1007000000000003030303030000000000030303D1
:1007100000000000000000000000000000000000D9
:1007200000000028282828282828282828141414FD
:100730001414143C3C3C3C3C3C3C3C3C3C1E1E1ECB
:100740001E1E1E000000000000000000000000004F
:1007500000000001000800010005000F00460036FF
:1007600001A401C8002C017DB3C7586C7E4831A399
:100770008D332F31C7CDCD7DB3C7586C7E4831A3A3
:100780008D332F31C7CDCD6BA4E96A5F6C501D9BB3
:1007900081383E28A6CED06BA4E96A5F914A28A38F
:1007A0009A757C72A6CED07EA4DE646B7D501D9BB4
:1007B0008E4F2C28A6CED07DB3C7586C7E4831A36F
:1007C0008D332F31C7CDCD04040404040404040484
:1007D00004040404040404020202020202020202EB
:1007E00002000000000000010101010101010101FE
:1007F00001010101010101020202020202020202E0
:1008000002020202020202040404040404040404B6
:1008100004040404040404000000000001010101B8
:1008200001000000010101000000000002020202BC
:1008300002000000020202000000000003030303A4
:100840000200000003030300000000000303030391
:10085000030000000303030000000000000000008C
:100860000000000000000028282828282828282820
:10087000281414141414143C3C3C3C3C3C3C3C3CBC
:100880003C1E1E1E1E1E1E00000000000000000078
:100890000000000000000001000800010005000F3A
:1008A0000046003601A401C8002C017DB3C7586C76
:1008B0007E4831A38D332F31C7CDCD7DB3C7586C62
:1008C0007E4831A38D332F31C7CDCD8BA3E664781D
:1008D0008E570E969F4F2C28B7BCD06CA4E0616A4F
:1008E00097501C99A74F2C289170837EA4DE646BCF
:1008F0007D501D9B8E4F2C28A6CED07DB3C7586C43
:100900007E4831A38D332F31C7CDCD0404040404B8
:100910000404040404040404040404040404040497
:100920000404040404040404040404020202020291
:1009300002020202020000000000000202020202A3
:100940000000000000030303030303000000000095
:10095000000000000004040404040304040404046C
:10096000040404040404040404040400000000005B
:100970000000000000000000000000010101010172
:100980000000000000010101000000000000000064
:100990000000000000000000000000010101010152
:1009A0000000000000010101000000000000000044
:1009B0000000000000000000000000000000000037
:1009C000000000000000000000000028282828285F
:1009D00028282828281414141414143C3C3C3C3CAB
:1009E0003C3C3C3C3C1E1E1E1E1E1E000000000027
:1009F00000000000000000000000000100050008E9
:100A000000030001000F00460096003601FA00784E
:100A1000002C017DB3C7586C7E4831A38D332F3134
:100A2000C7CDCD7DB3C7586C7E4831A38D332F31F0
:100A3000C7CDCD7EA7DE626E7D541D9B8E4F2C28C8
:100A4000A6CED06BA4E9665F6C501D9B81383E2812
:100A5000A6CED06BA4E9695F914A289D9A383E28BA
:100A6000A6CED07EA4DE5F6B7D541D9B8E4F2C28BE
:100A7000A6CED07DB3C7586C7E4831A38D332F31BD
:100A8000C7CDCD04040404040404040404040404D1
:100A90000404040404040404040404040404040416
:100AA000040404020202020202020202020404041A
:100AB0000404040000000000020202020204040414
:100AC0000404040000000000020202020204040404
:100AD00004040404040404040404040404040404D6
:100AE00004040400000000000000000000000000FA
:100AF00000000000000000000101010101000000F1
:100B000001010100000000000000000000000000E2
:100B100000000000000000000101010101000000D0
:100B200001010100000000000000000000000000C2
:100B300000000000000000000000000000000000B5
:100B400000000028282828282828282828141414D9
:100B50001414143C3C3C3C3C3C3C3C3C3C1E1E1EA7
:100B60001E1E1E000000000000000000000000002B
:100B7000000000010005000800030001000F00460E
:100B80000096003601C80078002C017DB3C7586C70
:100B90007E4831A38D332F31C7CDCD7DB3C7586C7F
:100BA0007E4831A38D332F31C7CDCD7EA7DE626E57
:100BB0007D541D9B8E4F2C28A6CED08BA3E6647847
:100BC0008E570E969F4F2C28B7BCD06CA4E0616A5C
:100BD00097501C99A74F2C28B7BCD07EA6DE627117
:100BE0007D541D9B8E4F2C28A6CED07DB3C7586C4C
:100BF0007E4831A38D332F31C7CDCD0404040404C6
:100C000004040404040404040404040101010101B3
:100C100001010101010404040404040101010101B2
:100C2000010101010104040404040402020202029D
:100C3000020202020204040404040401010101018D
:100C40000101010101040404040404030303030378
:100C50000303030303040404040404010101010168
:100C6000000000000001010100000001010101017C
:100C70000000000000010101000000000000000071
:100C80000000000000000000000000000000000064
:100C90000000000000000000000000000000000054
:100CA0000000000000000000000000000000000044
:100CB00000000000000000000000001414141414D0
:100CC00014141414141414141414141E1E1E1E1EB2
:100CD0001E1E1E1E1E1E1E1E1E1E1E0000000000CA
:100CE00000000000000000000000000A0005000AEB
:100CF00000010005000A00C800C80090017800C883
:100D00000090017DB3C7586C7E4831A38D332F31DD
:100D1000C7CDCD7DB3C7586C7E4831A38D332F31FD
:100D2000C7CDCD7DA2C7486C7E3B31978D332F3127
:100D3000C7CDCD88A9D25D798B243D909D332F31CD
:100D4000C7CDCD7DADD25D7B8B500E899D332F31CC
:100D5000C7CDCD86ADD25D7B8B501F9D9D332F318E
:100D6000C7CDCD7DB3C7586C7E4831A38D332F31AD
:100D7000C7CDCD04040404040404040404040404DE
:100D80000404040101010101010101010104040441
:100D90000404040101010101010101010104040431
:100DA0000404040202020202020202020204040417
:100DB0000404040202020202020202020204040407
:100DC00004040403030303030303030303030303F0
:100DD0000303030000000000010101010100000005
:100DE00001010100000000000101010101000000FB
:100DF00001010000000000000000000000000000F1
:100E000000000000000000000000000000000000E2
:100E100000000000000000000000000000000000D2
:100E200000000000000000000000000000000000C2
:100E300000000014141414141414141414141414AE
:100E40001414141E1E1E1E1E1E1E1E1E1E1E1E1EE0
:100E50001E1E1E0000000000000000000000000038
:100E60000000000A0005000A00010005000A00C891
:100E700000C80090017800C80090017DB3C7586C8D
:100E80007E4831A38D332F31C7CDCD7DB3C7586C8C
:100E90007E4831A38D332F31C7CDCD7DC1CD6B6C55
:100EA0007E5931B48D332F31C7CDCD77D1C36A6030
:100EB00077511F9D84332F31C7CDCD75A2E3626773
:100EC0007D4E31A37F332F31C7CDCD6EA8CC555C7D
:100ED000755131A380332F31C7CDCD7DB3C7586C49
:100EE0007E4831A38D332F31C7CDCD0404040404D3
:100EF00004040404040404040404040404040404B2
:100F000004040404040404040404040303030303A6
:100F100003030303030303030303030000000000B0
:100F2000000000000004040404040403030303039A
:100F30000303030303030303030303020202020286
:100F40000202020202040404040404020202020275
:100F50000202020202040404040404020202020265
:100F60000202020202040404040404020202020255
:100F70000202020202040404040404030303030340
:100F80000303030303030303030303000000000040
:100F90000000000000000000000000030303030342
:100FA0000303030303030303030303000000000020
:100FB0000000000000000000000000020202020227
:100FC000020202020202020202020200000000000B
:100FD000000000000000000000000001010101010C
:100FE00001010101010101010101010000000000F6
:100FF00000000000000000000000000303030303E2
:1010000003030303030303030303030000000000BF
:1010100000000000000000000000000000000000D0
:1010200000000000000000000000002828282828F8
:1010300028282828281E1E1E1E1E1E3C3C3C3C3C08
:101040003C3C3C3C3C323232323232000000000048
:1010500000000000000000000000000F001E002D36
:10106000002D002D001E001E001E001E001E002C64
:10107000015802840384038403580258025802581A
:101080000258027DB3C7586C7E4831A38D332F318F
:10109000C7CDCD7DB3C7586C7E4831A38D332F317A
:1010A000C7CDCD7CDCF77D6C7E1D047F8C332F316A
:1010B000C7CDCD7BDCF656707E1D07A98B013B4A60
:1010C000FDBFB58253903F6C7DAA67BF8B013BA3E8
:1010D000FDBF588253903F6C7DAA67BF8BEA7D5A53
:1010E0000581A6815EB7646E80A26EBA88A02D517C
:1010F0005ACDA78157BF3C6E80A23BC1888A2E592A
:1011000074CBA78181BE416E80783BBB8C852D510D
:1011100074CBA781A1C5476E805935B58F8F2459EF
:1011200074CBA77DB3C7586C7E4831A38D332F3164
:10113000C7CDCD040404040404040404040404041A
:10114000040404010101010101010101010404047D
:10115000040404040404040404040404040404044F
:101160000404040101010101010101010101010166
:10117000010101010101010101010101010101015F
:101180000101010202020202020202020202020242
:10119000020202020202020202020202020202022F
:1011A000020202020202020202020202020202021F
:1011B00002020204040404040404040404040404F5
:1011C0000404040000000000000000000000000013
:1011D00000000003030303030303030303030303E8
:1011E00003030300000000000000000000000000F6
:1011F00000000002020202020202020202020202D5
:1012000002020200000000000000000000000000D8
:1012100000000001010101010101010101010101C1
:1012200001010100000000000000000000000000BB
:101230000000000303030303030303030303030387
:101240000303030000000000000000000000000095
:1012500000000028282828282828282828141414C2
:101260001414143C3C3C3C3C3C3C3C3C3C1E1E1E90
:101270001E1E1E0000000000000000000000000014
:101280000000000A000A000A000A00010023001EF4
:101290000028001E002C01F401F401BC023403BC40
:1012A000025802200358027DB3C7586C7E4831A310
:1012B0008D332F31C7CDCD7DB3C7586C7E4831A358
:1012C0008D332F31C7CDCD7D52D6596C7E4831A399
:1012D0008D8F2F3172CDCD7D52DA65727DA622972A
:1012E0008F8D2F3172CDCD7DD2E450717C2319AC1E
:1012F0008EA72F2F52CDCC7DDAF756717B1F05A814
:101300008D095792FEA26C7DDCF47A6D7B1D058001
:101310008D212A92DED26C7DDCDE7A717B1D1C87EA
:101320008D62324E92C5A97DA0F272717B570887FB
:101330008D522F45ADCDBF7DB3C7586C7E4831A3CC
:101340008D332F31C7CDCD03030303030303030301
:10135000030303030303030303030303030303035D
:10136000030303030303030303030303030303034D
:101370000303030303030302020202020202020246
:101380000202020202020201010101010101010146
:101390000101010101010100000000000000000046
:1013A000000000000000000000000000000000003D
:1013B0000000000000000001010101010101010124
:1013C0000101010101010102020202020202020204
:1013D00002020202020202030303030303030303E4
:1013E00003030303030303030303030303030303CD
:1013F00003030303030303030303030303030303BD
:1014000003030303030303020202020202020202B5
:1014100002020202020202010101010101010101B5
:1014200001010101010101000000000000000000B5
:1014300000000000000000000000000000000000AC
:101440000000000000000001010101010101010193
:101450000101010101010102020202020202020273
:101460000202020202020203030303030303030353
:10147000030303030303030303030303030303033C
:101480000303030303030302020202020202020235
:101490000202020202020201010101010101010135
:1014A0000101010101010100000000000000000035
:1014B000000000000000000000000000000000002C
:1014C0000000000000000001010101010101010113
:1014D00001010101010101020202020202020202F3
:1014E00002020202020202030303030303030303D3
:1014F00003030303030303030303030303030303BC
:1015000003030303030303030303030303030303AB
:1015100003030303030303020202020202020202A4
:1015200002020202020202010101010101010101A4
:1015300001010101010101000000000000000000A4
:10154000000000000000000000000000000000009B
:101550000000000000000001010101010101010182
:101560000101010101010102020202020202020262
:101570000202020202020203030303030303030342
:10158000030303030303030303030303030303032B
:101590000303030303030302020202020202020224
:1015A0000202020202020201010101010101010124
:1015B0000101010101010104040404040404040400
:1015C00004040404040404000000000000000000FF
:1015D00000000000000000030303030303030303F0
:1015E00003030303030303030303030303030303CB
:1015F00003030303030303020202020202020202C4
:1016000002020202020202010101010101010101C3
:1016100001010101010101000000000000000000C3
:1016200000000000000000000000000000000000BA
:1016300000000000000000010101010101010101A1
:101640000101010101010102020202020202020281
:101650000202020202020203030303030303030361
:10166000030303030303030303030303030303034A
:10167000030303030303030303030303030303033A
:101680000303030303030302020202020202020233
:101690000202020202020201010101010101010133
:1016A0000101010101010100000000000000000033
:1016B000000000000000000000000000000000002A
:1016C0000000000000000001010101010101010111
:1016D00001010101010101020202020202020202F1
:1016E00002020202020202030303030303030303D1
:1016F00003030303030303030303030303030303BA
:1017000003030303030303020202020202020202B2
:1017100002020202020202010101010101010101B2
:1017200001010101010101000000000000000000B2
:1017300000000000000000000000000000000000A9
:101740000000000000000001010101010101010190
:101750000101010101010102020202020202020270
:101760000202020202020203030303030303030350
:101770000303030303030303030303030303030339
:101780000303030303030303030303030303030329
:101790000303030303030302020202020202020222
:1017A0000202020202020201010101010101010122
:1017B0000101010101010100000000000000000022
:1017C0000000000000000000000000000000000019
:1017D0000000000000000001010101010101010100
:1017E00001010101010101020202020202020202E0
:1017F00002020202020202030303030303030303C0
:1018000003030303030303030303030303030303A8
:1018100003030303030303020202020202020202A1
:1018200002020202020202010101010101010101A1
:1018300001010101010101000000000000000000A1
:101840000000000000000029292929292929292927
:10185000291414141414143D3D3D3D3D3D3D3D3DC2
:101860003D1E1E1E1E1E1E00000000000000000087
:10187000000000000000000500010001000100015F
:101880000001000100010001000100010001000150
:101890000001000100010001000100010001000140
:1018A0000001000100010001000100010001000130
:1018B0000001000100010001000100010001000120
:1018C0000001000A000F00C80019001900190019D2
:1018D0000019001900190019001900190019001940
:1018E0000019001900190019001900190019001930
:1018F0000019001900190019001900190019001920
:10190000001900190019001900190019001900190F
:10191000001900C8002C017DB3C7586C7E4831A364
:101920008D332F31C7CDCD7DB3C7586C7E4831A3E1
:101930008D332F31C7CDCD7DB3C7586C7E4831A3D1
:101940008D332F31C7CDCD82A5C9517386511F93D9
:1019500095482C2891D1C984ABC5537589561C94E0
:10196000984E2B299AD1CE84AFC357758B5B1B98A9
:101970009A572B2BA4D1D384B2C55B75895F1C9D6C
:1019800098612B30ACD1D582B3C95F7386601FA13B
:1019900095692B35B3D2D67FB2CE6270825F23A613
:1019A000916F2A39B6D2D67CAFD4646D7F5C28AAF9
:1019B0008E712A3BB7D2D67CAFD4646D7F5C28AAE7
:1019C0008E712A3BB7D2D678ACD966697B582EAADD
:1019D0008A6F2A39B6D2D674A7DD6765785333A9E2
:1019E000876A2B35B3D2D671A2E06662764D37A7EF
:1019F00085612B30ADD1D56F9DE16260764939A309
:101A000085572B2BA4D1D37199E05D627646379F21
:101A1000854F2B299AD1CE7498DD59657845339B33
:101A200087482C2892D1C97899D954697B462E9839
:101A30008A452C288CD0C57B9CD4506C7E49289636
:101A40008D442C288AD0C37B9CD4506C7E49289628
:101A50008D442C288AD0C382A5C9517386511F9307
:101A600095482C2891D1C984ABC5537589561C94CF
:101A7000984E2B299AD1CE84AFC357758B5B1B9898
:101A80009A572B2BA4D1D384B2C55B75895F1C9D5B
:101A900098612B30ACD1D582B3C95F7386601FA12A
:101AA00095692B35B3D2D67FB2CE6270825F23A602
:101AB000916F2A39B6D2D67CAFD4646D7F5C28AAE8
:101AC0008E712A3BB7D2D67CAFD4646D7F5C28AAD6
:101AD0008E712A3BB7D2D678ACD966697B582EAACC
:101AE0008A6F2A39B6D2D674A7DD6765785333A9D1
:101AF000876A2B35B3D2D671A2E06662764D37A7DE
:101B000085612B30ADD1D56F9DE16260764939A3F7
:101B100085572B2BA4D1D37199E05D627646379F10
:101B2000854F2B299AD1CE7498DD59657845339B22
:101B300087482C2892D1C97899D954697B462E9828
:101B40008A452C288CD0C57B9CD4506C7E49289625
:101B50008D442C288AD0C37B9CD4506C7E49289617
:101B60008D442C288AD0C382A5C9517386511F93F6
:101B700095482C2891D1C984ABC5537589561C94BE
:101B8000984E2B299AD1CE7DA6E56A6C7E56179683
:101B90008D332F31C7CDCD7DB3C7586C7E4831A36F
:101BA0008D332F31C7CDCD04040404040404040490
:101BB00004040404040404030303030303030303EE
:101BC00003030303030303020202020202020202EE
:101BD00002020202020202030303030303030303DC
:101BE00003030303030303020202020202020202CE
:101BF00002020202020202010101010101010101CE
:101C000001010101010101000000000000000000CD
:101C100000000000000000000000000000000000C4
:101C200000000000000000010101010101010101AB
:101C3000010101010101010202020202020202028B
:101C4000020202020202020303030303030303036B
:101C50000303030303030303030303030303030354
:101C60000303030303030303030303030303030344
:101C7000030303030303030202020202020202023D
:101C8000020202020202020101010101010101013D
:101C9000010101010101010000000000000000003D
:101CA0000000000000000000000000000000000034
:101CB000000000000000000101010101010101011B
:101CC00001010101010101020202020202020202FB
:101CD00002020202020202030303030303030303DB
:101CE00003030303030303030303030303030303C4
:101CF00003030303030303020202020202020202BD
:101D000002020202020202010101010101010101BC
:101D100001010101010101000000000000000000BC
:101D200000000000000000000000000000000000B3
:101D3000000000000000000101010101010101019A
:101D4000010101010101010202020202020202027A
:101D5000020202020202020303030303030303035A
:101D60000303030303030303030303030303030343
:101D70000303030303030303030303030303030333
:101D8000030303030303030202020202020202022C
:101D9000020202020202020101010101010101012C
:101DA000010101010101010000000000000000002C
:101DB0000000000000000000000000000000000023
:101DC000000000000000000101010101010101010A
:101DD00001010101010101020202020202020202EA
:101DE00002020202020202030303030303030303CA
:101DF00003030303030303030303030303030303B3
:101E000003030303030303020202020202020202AB
:101E100002020202020202010101010101010101AB
:101E20000101010101010102020202020202020299
:101E30000202020202020204040404040404040470
:101E40000404040404040400000000000000000076
:101E50000000000000000000000000000000000082
:101E60000000000000000000000000000000000072
:101E70000000000000000003030303030303030347
:101E8000030303030303030202020202020202022B
:101E9000020202020202020101010101010101012B
:101EA000010101010101010000000000000000002B
:101EB0000000000000000000000000000000000022
:101EC0000000000000000001010101010101010109
:101ED00001010101010101020202020202020202E9
:101EE00002020202020202030303030303030303C9
:101EF00003030303030303030303030303030303B2
:101F000003030303030303030303030303030303A1
:101F1000030303030303030202020202020202029A
:101F2000020202020202020101010101010101019A
:101F3000010101010101010000000000000000009A
:101F40000000000000000000000000000000000091
:101F50000000000000000001010101010101010178
:101F60000101010101010102020202020202020258
:101F70000202020202020203030303030303030338
:101F80000303030303030303030303030303030321
:101F9000030303030303030202020202020202021A
:101FA000020202020202020101010101010101011A
:101FB000010101010101010000000000000000001A
:101FC0000000000000000000000000000000000011
:101FD00000000000000000010101010101010101F8
:101FE00001010101010101020202020202020202D8
:101FF00002020202020202030303030303030303B8
:1020000003030303030303030303030303030303A0
:102010000303030303030303030303030303030390
:102020000303030303030302020202020202020289
:102030000202020202020201010101010101010189
:102040000101010101010100000000000000000089
:102050000000000000000000000000000000000080
:102060000000000000000001010101010101010167
:102070000101010101010102020202020202020247
:102080000202020202020203030303030303030327
:102090000303030303030303030303030303030310
:1020A0000303030303030302020202020202020209
:1020B0000202020202020201010101010101010109
:1020C0000101010101010100000000000000000009
:1020D0000000000000000000000000000000000000
:1020E000000000000000002929292929292929297F
:1020F000291414141414143D3D3D3D3D3D3D3D3D1A
:102100003D1E1E1E1E1E1E000000000000000000DE
:1021100000000000000000050014000100010001A3
:1021200000010001000100010001000100010001A7
:102130000001000100010001000100010001000197
:102140000001000100010001000100010001000187
:102150000001000100010001000100010001000177
:10216000000100010001000A0014002C0190011977
:102170000019001900190019001900190019001997
:102180000019001900190019001900190019001987
:102190000019001900190019001900190019001977
:1021A0000019001900190019001900190019001967
:1021B0000019001900190019001900900190017D03
:1021C000B3C7586C7E4831A38D332F31C7CDCD7D39
:1021D000B3C7586C7E4831A38D332F31C7CDCD7D29
:1021E000A0DC6B6C7E581F928D332F31C7CDCD781C
:1021F00099DA58697B482E978A392B33AED2D67438
:1022000097DF5B657846349B873A2B30B1D2D67026
:1022100098E25E61774639A0863B2B2DB6D2D66F09
:102220009BE3636076483CA5853F2B29BCD1D570E4
:10223000A0E26661764C3AA785442C28BFD1D173C1
:10224000A5DF6864785234A887492C28C1D1CE789C
:10225000A9DA68697B582EA78A4D2C28C2D1CB7B7E
:10226000ADD4676C7E5C28A58D4E2B28C2D1CA7B6D
:10227000ADD4676C7E5C28A58D4E2B28C2D1CA7F59
:10228000B0CE6370825F22A2914D2C28C2D1CB8246
:10229000B2C85F7386611D9F954A2C28C1D1CE8339
:1022A000B2C35A748A601A9C99452C28C0D1D18433
:1022B000B0C055758B5D19979A3F2B29BCD1D58439
:1022C000ACC253758A581A94993C2B2DB7D2D6823A
:1022D000A6C8527387531D92963A2B30B2D2D67F3E
:1022E000A0CE5370824F229291392B33AED2D67C3E
:1022F0009CD4556D7F4B28938E392B34ADD1D67C31
:102300009CD4556D7F4B28938E392B34ADD1D67428
:1023100097DF5B657846349B873A2B30B1D2D67015
:1023200098E25E61774639A0863B2B2DB6D2D66FF8
:102330009BE3636076483CA5853F2B29BCD1D570D3
:10234000A0E26661764C3AA785442C28BFD1D173B0
:10235000A5DF6864785234A887492C28C1D1CE788B
:10236000A9DA68697B582EA78A4D2C28C2D1CB7B6D
:10237000ADD4676C7E5C28A58D4E2B28C2D1CA7B5C
:10238000ADD4676C7E5C28A58D4E2B28C2D1CA7F48
:10239000B0CE6370825F22A2914D2C28C2D1CB8235
:1023A000B2C85F7386611D9F954A2C28C1D1CE8328
:1023B000B2C35A748A601A9C99452C28C0D1D18422
:1023C000B0C055758B5D19979A3F2B29BCD1D58428
:1023D000ACC253758A581A94993C2B2DB7D2D68229
:1023E000A6C8527387531D92963A2B30B2D2D67F2D
:1023F000A0CE5370824F229291392B33AED2D67C2D
:102400009CD4556D7F4B28938E392B34ADD1D67C1F
:102410009CD4556D7F4B28938E392B34ADD1D67417
:1024200097DF5B657846349B873A2B30B1D2D67004
:1024300098E25E61774639A0863B2B2DB6D2D66FE7
:102440009BE3636076483CA5853F2B29BCD1D56FC3
:102450009BE362607659199B853F2B29BCD1D57DC2
:10246000B3C7586C7E4831A38D332F31C7CDCD14FF
:102470001414141414141414141414141414141E12
:102480001E1E1E1E1E1E1E1E1E1E1E1E1E1E1E008A
:10249000000000000000000000000000000000013B
:1024A00000010001000100010001001400140040BF
:1024B000011400400114007DB3C7586C7E4831A35D
:1024C0008D332F31C7CDCD7DB3C7586C7E4831A336
:1024D0008D332F31C7CDCD73B3C7585F744831A347
:1024E00080332F31C7CDCD63DBCE8254724339A107
:1024F0007B22556E76C3C96581CB2B55782451B4A8
:102500007E82314CCFC7E46581CB2A55782451B403
:102510007B82314CCFC7E47DB3C7586C7E4831A372
:102520008D332F31C7CDCD02020202020202020218
:10253000020202020202020202020202000202027D
:10254000000202020202020000000000000000007F
:10255000000000000000000000000000000000007B
:10256000000000000000000000000000000000006B
:102570000000000000000002020202020202020249
:10258000020202020202020000000000000000003D
:10259000000000000000000000000000000000003B
:1025A000000000000000000000000000000000002B
:1025B000000000000000000000000000000000001B
:1025C000000000000000000000000000000000000B
:1025D00000000000000000000000000000000000FB
:1025E0000000000000000014141414141414141437
:1025F000141414141414141E1E1E1E1E1E1E1E1E41
:102600001E1E1E1E1E1E1E000000000000000000F8
:1026100000000000000000010001000100010001B5
:10262000000A001400140040011400A401DC007D25
:10263000B3C7586C7E4831A38D332F31C7CDCD7DC4
:10264000B3C7586C7E4831A38D332F31C7CDCD87AA
:10265000B3C75879884831A39A332F31C7CDCD8974
:10266000B8BF5A7E98202A78A5843935D8A7908398
:10267000C4B64F7A967A2DD0A42B355078CBB2833E
:10268000C4B64F80967A2DD0A42B355078CBB27D2E
:10269000B3C7586C7E4831A38D332F31C7CDCD02DF
:1026A000020202020202020202020202020202020A
:1026B00002020202020202020202020202020200FC
:1026C00002020200020202020202020202020200EE
:1026D00000000000000000000000000000000000FA
:1026E00000000000000000000000000000000002E8
:1026F00002020202020202020202020202020200BC
:1027000000000000000000000000000000000000C9
:1027100000000000000000000000000000000000B9
:1027200000000000000000000000000000000000A9
:102730000000000000000000000000000000000099
:102740000000000000000000000000000000000089
:102750000000000000000000000000000000002851
:102760002828282828282828281414141414143C4D
:102770003C3C3C3C3C3C3C3C3C1E1E1E1E1E1E0089
:102780000000000000000000000000000000000544
:10279000000100010003006400DC0064003C007DD7
:1027A000A8C7556C7E532FA78F332F31C7CDCD6B64
:1027B00092E9635F6C641B9F83383E28A6CED06B82
:1027C00096E9665F8F5726A18C383E28A6CED07E2C
:1027D00096DE5C6B7D621B9F904F2C28A6CED07D31
:1027E000A5C7556C7E552FA78F332F31C7CDCD028E
:1027F00002020202020202020202020202020202B9
:1028000002020202000000000003030303030300AE
:10281000000000000000000000040404040403049D
:10282000040404040404040404040404040404006C
:102830000000000000000000000000000000000197
:102840000101010100000000000101010000000081
:102850000000000000000000000000000000000078
:102860000000000000000000000000000000002840
:102870002828282828282828281414141414143C3C
:102880003C3C3C3C3C3C3C3C3C1E1E1E1E1E1E0078
:102890000000000000000000000000000000000533
:1028A000000100010003006400DC0064003C007DC6
:1028B000A5C7556C7E572FA78F332F31C7CDCD8B32
:1028C00096E661788E65109A9C4F2C28B7BCD06430
:1028D0009AE0616B8E64139AA14F2C28B7BCD07913
:1028E0009ADE5F5D7D5E209C904F2C28A6CED07D29
:1028F000A7C7556C7E542FA78F332F31C7CDCD027C
:1029000002020202020202020202020202020200A9
:102910000000000002020202020404040404040095
:102920000000000002020202020404040404040481
:10293000040404040404040404040404040404005B
:102940000000000000000000000000000000000087
:10295000000000000101010101000000010101006F
:102960000000000000000000000000000000000067
:102970000000000000000000000000000000001443
:102980001414141414141414141414141414141EFD
:102990001E1E1E1E1E1E1E1E1E1E1E1E1E1E1E0075
:1029A0000000000000000000000000000000000126
:1029B00000010001000A000A001400080240012C76
:1029C0000108027DB3C7586C7E4831A38D332F3187
:1029D000C7CDCD7DB3C7586C7E4831A38D332F3121
:1029E000C7CDCD7D5ECD596C7A9933A88C0A6769C5
:1029F000F1928F77DFF9726B7C1D028E8F0B31693C
:102A0000E9CA8B7DB9F9826C7C43017C912D4145EB
:102A1000C9BDAF7DB3C7586C7E4831A38D332F310C
:102A2000C7CDCD020202020202020202020202022B
:102A30000202020202020202020202020202020276
:102A40000202020000000000000000000000000080
:102A50000000000000000000000000000000000076
:102A6000000000020202020202020202020202024C
:102A70000202020000000000000000000000000050
:102A80000000000000000000000000000000000046
:102A90000000000000000000000000000000000036
:102AA0000000000000000000000000000000000026
:102AB0000000000000000000000000000000000016
:102AC0000000001414141414141414141414141402
:102AD0001414141E1E1E1E1E1E1E1E1E1E1E1E1E34
:102AE0001E1E1E000000000000000000000000008C
:102AF00000000001000100010001001E001400DCC4
:102B000000A4015E0158027DB3C7586C7E4831A312
:102B10008D332F31C7CDCD7DB3C7586C7E4831A3DF
:102B20008D332F31C7CDCD7AB3C8576C7A4630A3D9
:102B30008D14832AEE6FC97A85C86E6780762F8DD3
:102B40008D16C86CE82F857459ED516884A010ADBE
:102B50009201D277FE27797DB3C7586C7E4831A3A6
:102B60008D332F31C7CDCD020202020202020202D2
:102B70000202020202020200000000000000000047
:102B80000000000000000000000000000000000045
:102B90000000000000000000000000000000000035
:102BA0000000000000000002020202020202020213
:102BB0000202020202020200000000000000000007
:102BC0000000000000000000000000000000000005
:102BD00000000000000000000000000000000000F5
:102BE00000000000000000000000000000000000E5
:102BF00000000000000000000000000000000000D5
:102C00000000000000000014141414141414141410
:102C1000141414141414141E1E1E1E1E1E1E1E1E1A
:102C20001E1E1E1E1E1E1E000000000000000000D2
:102C3000000000000000000A0028000A002800F43C
:102C400001E803D007E8037DB3C7586C7E4831A381
:102C50008D332F31C7CDCD7DB3C7586C7E4831A39E
:102C60008D332F31C7CDCD7D93F76A6C7E6604918D
:102C70008D332F31C7CDCD7D93F76A6C7E6604917D
:102C80008D332F31C7CDCD7DB3C7586C7E4831A36E
:102C90008D332F31C7CDCD020202020202020202A1
:102CA0000202020202020202020202020202020204
:102CB0000202020202020200000000000000000006
:102CC00000000000000000040404040404040404E0
:102CD00004040404040404000000000000000000D8
:102CE00000000000000000010101010101010101DB
:102CF00001010101010101030303030303030303B2
:102D000003030303030303000000000000000000AE
:102D100000000000000000141414141414141414FF
:102D2000141414141414141E1E1E1E1E1E1E1E1E09
:102D30001E1E1E1E1E1E1E000000000000000000C1
:102D4000000000000000000A0028000A000A002815
:102D500000F401E803F401F401E8037DB3C7586C03
:102D60007E4831A38D332F31C7CDCD7DB3C7586C8D
:102D70007E4831A38D332F31C7CDCD7DB3C7586C7D
:102D80007E4831A38DBB3A2EC7CDCD7DB3C7586CDD
:102D90007E4831A38DBA672EC7CDCD7DB3C7586CA1
:102DA0007E4831A38DBB3A2EC7CDCD7DB3C7586CBD
:102DB0007E4831A38D332F31C7CDCD0202020202EE
:102DC00002020202020202020202020202020202E3
:102DD00002020202020202020202020202020202D3
:102DE00002020202020202020202020202020202C3
:102DF00002020202020202020202020404040404A9
:102E00000404040404040404040404000000000096
:102E100000000000000000000000000000000000B2
:102E200000000000000000000000000000000000A2
:102E30000000000000000000000000000000000092
:102E40000000000000000000000000000000000082
:102E5000000000000000000000000014141414140E
:102E600014141414141414141414141E1E1E1E1EF0
:102E70001E1E1E1E1E1E1E1E1E1E1E000000000008
:102E8000000000000000000000000028000A0014FC
:102E9000001400010001000A000A001900140014C7
:102EA000001E008403C80090019001780008029081
:102EB000019001F4019001900158027DB3C7586C54
:102EC0007E4831A38D332F31C7CDCD7DB3C7586C2C
:102ED0007E4831A38D332F31C7CDCD7DB0F7796CCE
:102EE0007E4702828D332F31C7CDCD81B4EC6A4B42
:102EF0008B4702827403324DEF9DA033B4EC6A5FBE
:102F00008B4702827401324AE89EA03398ED2D5F10
:102F10008B47028274023231E898A03385952D5F89
:102F20008B47028274023233E88FA0338EEA305F1F
:102F30008B47028274023231E89AA07BC2D2565289
:102F40008B47028274023231E895A084CADC695B47
:102F5000903F047D8A443431E8AAA07BAEF8766ABB
:102F6000814C04878F343231DBC2D57B9BF8766A83
:102F7000815F04878F343231DBC2D57DB3C7586C93
:102F80007E4831A38D332F31C7CDCD040404040412
:102F900004040404040404040404040404040404F1
:102FA00004040404040404040404040404040404E1
:102FB00004040404040404040404040404040404D1
:102FC00004040404040404040404040000000000D5
:102FD00004040404040404040404040000000000C5
:102FE00004040404040404040404040000000000B5
:102FF0000404040404040404040404040404030492
:103000000404040404040404040404040404030481
:103010000404040404040404040404040404030471
:103020000404040404040404040404040404030461
:103030000404040404040404040404040404040450
:103040000404040404040404040404000000000054
:103050000000000000000000000000020202020266
:103060000000000000000000000000000000000060
:103070000000000000000000000000020202020246
:103080000000000000000000000000030303030331
:103090000000000000000000000000030303030321
:1030A0000000000000000000000000020202020216
:1030B0000000000000000000000000020202020206
:1030C0000000000000000000000000000000000000
:1030D00000000000000000000000000000000000F0
:1030E00000000000000000000000000000000000E0
:1030F00000000000000000000000000000000000D0
:1031000000000000000000000000002828282828F7
:1031100028282828281414141414143C3C3C3C3C43
:103120003C3C3C3C3C1E1E1E1E1E1E0000000000BF
:103130000000000000000000000000140014001453
:10314000001400140014001400010001000A0028FB
:10315000000F000F00050032003200320001002D88
:10316000002D000A000A000A000A002D000A000AC9
:10317000000A000A002D0050001E000F000F000F73
:10318000000F000F000F000F000F00840384038462
:1031900003840384038403840308020802F40140C7
:1031A00006580258023408FC03FC03FC03E40784BD
:1031B000038403F401F401F401F4018403F401F441
:1031C00001F401F4018403400640065802580258F5
:1031D00002580258025802580258027DB3C7586C70
:1031E0007E4831A38D332F31C7CDCD7DB3C7586C09
:1031F0007E4831A38D332F31C7CDCD7CB5F77C6CA4
:103200007E47047F8D332F31C7CDCD7C77F77C6C23
:103210007E83047F8D87304C6CCDA77C4EF77C6C11
:103220007EB9047F8D8730046CCDEF79DDFA686C50
:103230007E9F429B8DBE300436CDEF79DDFA686CFF
:103240007E9F5AC68DCE390835B6F479DDFA686CA2
:103250007E9F42B98DBE30040F5E8D79DDFA686CB9
:103260007E9F42B98DBE3004AE7D8D79DDFA686CEB
:103270007E9F42B98DBE3004B472E379DDFA686C8A
:103280007E9F6CCA8DCD3004AB32CA369FFA686C13
:103290007E1C0E9C8DCD3004AB32CA7E9FFA686CCA
:1032A000811C0E9C8DCD2B049728E67EC6C66D6CC6
:1032B00081373E9C8DCD2B049728E658D9817E6CB2
:1032C000A71C717F8DCD2B049728E635D9897E6C9C
:1032D000C41C717F8DCD2B049728E616D98A7E6C8D
:1032E000EA1C717F8DCD2B049728E658D9867E6C19
:1032F000A71C717F8DCD2B049728E658D9867E6C4C
:10330000A71C717F8DCD2B049728E67CC2F76D6BCF
:103310008138049390CD2B049728E67CCBD96D6B34
:10332000812F239390CD2B049728E67CB0B2616B5C
:10333000811D149390CF2B048F28E67CBDCB616B4D
:103340008116319390CD2B049728E67CD8C9626B07
:10335000813C2A9F90CD2B049728E67CE4D2686BB1
:1033600081533AB390CD2B049728E67CCBD96D6B73
:10337000812F239390CD2B049728E67CB0B2616B0C
:10338000811D149390CF2B048F28E67CBDCB616BFD
:103390008116319390CD2B049728E67CD8C9626BB7
:1033A000813C2A9F90CD2B049728E67CE4D2686B61
:1033B00081533AB390CD2B049728E67CCBD96D6B23
:1033C000812F239390CD2B049728E681BFF76D6B57
:1033D000829A798390CD2B049728E6815E813A6E9C
:1033E00080A271C488CD4E049779E6815E8A3B6ED7
:1033F000809978C488CD4E04C2848D815C81396EF9
:1034000080A279C488CD4E0440848D815A84386E60
:1034100080A279C488D0242E34D0DE815EB7646E59
:1034200080A26EBA88A72D575ACAA78157C5476E82
:1034300080A239BA8F822D5374CBA7817DC5476E88
:1034400080783BB88F8F245974CBA77BA6DF5E6A48
:103450007D5123A28D8F245974CBA77DB3C7586C9F
:103460007E4831A38D332F31C7CDCD04040404042D
:10347000040404040404040404040404040404040C
:1034800004040404040404040404040404040404FC
:1034900004040404040404040404040404040404EC
:1034A00004040404040404040404040404040404DC
:1034B00004040400000404040404040404040404D4
:1034C00004040400000404040404040404040404C4
:1034D00004040400000404040404040404040404B4
:1034E00004040400000101010101010404040404B6
:1034F00004040400000101010101010404040404A6
:1035000004040400000101010101010101010101A4
:10351000010101000001010101010101010101019D
:10352000010101000001010101010104040404047E
:103530000404040000040404040404040404040453
:103540000404040000010101010101000000000069
:10355000000000000000000000000000000000006B
:10356000000000000000000000000000000000005B
:10357000000000000000000000000000000000004B
:103580000000000000000000000000020202020231
:1035900002020202020404040404040202020202FF
:1035A00002020202020404040404040202020202EF
:1035B00002020202020404040404040202020202DF
:1035C00002020202020404040404040202020202CF
:1035D00002020202020404040404040202020202BF
:1035E00002020202020404040404040202020202AF
:1035F000020202020204040404040402020202029F
:10360000020202020204040404040402020202028E
:10361000020202020204040404040402020202027E
:10362000020202020204040404040402020202026E
:10363000020202020204040404040402020202025E
:10364000020202020204040404040402020202024E
:10365000020202020204040404040402020202023E
:10366000020202020204040404040402020202022E
:10367000020202020204040404040402020202021E
:10368000020202020204040404040402020202020E
:1036900002020202020404040404040202020202FE
:1036A00002020202020404040404040202020202EE
:1036B00002020202020404040404040202020202DE
:1036C00002020202020404040404040202020202CE
:1036D00002020202020404040404040202020202BE
:1036E00002020202020404040404040000000000B8
:1036F00000000000000000000000000000000000CA
:1037000000000000000000000000000000000000B9
:1037100000000000000000000000000000000000A9
:103720000000000000000000000000000000000099
:103730000000000000000000000000000000000089
:103740000000000000000000000000000000000079
:103750000000000000000000000000000000000069
:103760000000000000000000000000000000000059
:103770000000000000000000000000000000000049
:103780000000000000000000000000000000000039
:103790000000000000000000000000000000000029
:1037A0000000000000000000000000000000000019
:1037B0000000000000000000000000010101010104
:1037C00001010101010101010101010303030303DF
:1037D00003030303030303030303030101010101C3
:1037E00001010101010101010101010000000000CE
:1037F00000000000000000000000000303030303BA
:103800000303030303030303030303000000000097
:1038100000000000000000000000000000020000A6
:103820000000020000000000000000000000000096
:103830000000000000000000000000000300000382
:103840000003000003000000000000020000000070
:103850000200000000000000000000000000000066
:103860000000000000000000000000000000000058
:103870000000000000000000000000000000000048
:103880000000000000000000000000000000000038
:103890000000000000000000000000000000000028
:1038A0000000000000000000000000000000000018
:1038B0000000000000000000000000000000000008
:1038C00000000000000000000000000000000000F8
:1038D00000000000000000000000000000000000E8
:1038E00000000000000000000000000000000000D8
:1038F00000000000000000000000000000000000C8
:1039000000000000000000000000000000000000B7
:1039100000000000000000000000000000000000A7
:103920000000000000000000000000000000000097
:103930000000000000000000000000000000000087
:103940000000000000000000000000000000000077
:103950000000000000000000000000000000000067
:1039600000000000000000000000004255533D250B
:10397000640D0A0011241FBECFEFD0E1DEBFCDBF22
:1039800019E0A0E0B1E0ECE6FEEE00E00BBF02C003
:1039900007900D92A834B107D9F71EE0A8E4B9E06A
:1039A00001C01D92A436B107E1F70E9404200C94D7
:1039B00034770C9400008091F6099091F709883CC7
:1039C000910510F4DA9813C08091F6099091F709E7
:1039D000893C910558F08091F6099091F70980593A
:1039E000914020F4DA9ADB9ADC980895DA9ADB9A0F
:1039F000DC9A08959093F3098093F2098091F2097B
:103A00009091F309892BD1F708951F920F920FB669
:103A10000F9211240F900FBE0F901F901895809158
:103A2000E209882311F180911A0A90911B0A8C51A6
:103A3000954228F01092010A1092000A09C0809164
:103A4000000A9091010A01969093010A8093000A5E
:103A50008091000A9091010A079768F11092E2099B
:103A60001092010A1092000A089580911A0A90910A
:103A70001B0A8C51954270F01092010A1092000AB4
:103A80008091EC099091ED0901969093ED09809356
:103A9000EC0904C01092ED091092EC098091EC0938
:103AA0009091ED09039738F081E08093E20910923C
:103AB000ED091092EC09089589B38370813089F47F
:103AC0008AE090E09093F3098093F2098091F209E3
:103AD0009091F309892BD1F7C89B03C081E08093B3
:103AE000EE0989B38370823099F48AE090E0909374
:103AF000F3098093F2098091F2099091F309892BDF
:103B0000D1F789B38370823019F483E08093EE0992
:103B1000089593E09BBB8CEF8ABB18BA84E787BB00
:103B200015BA40E844BB83E882BB41BB80E383B95C
:103B300088E082B9109262001092610010926500D4
:103B400084E08093640010BE83BF12BE11BE1FBC10
:103B500085E08EBD1DBC1CBC17BC16BC1BBC1ABCB2
:103B600019BC18BC109279001092780085BD14BC65
:103B700013BC10928B0090938A00109289001092CF
:103B8000880010928100109280001092870010929D
:103B9000860010928500109284001092830010928B
:103BA000820010926A0030E23ABF80E489BF17BEFB
:103BB00010927D001BB828E12AB996E090939500F9
:103BC0001092900087E089B910929B0020939A0090
:103BD00090939D00109298008093990048B910BC72
:103BE00037B916B8109274000895DA9ADB9ADC9A05
:103BF000E5E6F0E0808184608083AF9ADD9ADE9A0A
:103C0000DF9AC5981092AB0A1092AD0A1092F7098C
:103C10001092F6091092F1091092E5091092E90943
:103C20000895BF92CF92DF92EF92FF920F931F936E
:103C3000CF93DF9341E04093E60985E090E09093D5
:103C4000FF098093FE0920911A0A30911B0A00D0C7
:103C500000D00F92EDB7FEB73196ADB7BEB7119653
:103C60004C9382E192E092838183348323830E9488
:103C70000F240F900F900F900F900F90BB24B394D0
:103C80009CEEC92E91E0D92E88E2E82EF12C0CECA6
:103C900011E0C4EFD1E075C00E94C32197FF78C046
:103CA0000E94612797FF74C08091F10965E00E942E
:103CB0004272992359F52091E5093091F1098091DB
:103CC0001A0A90911B0A4DB75EB7495050400FB683
:103CD000F8945EBF0FBE4DBFEDB7FEB73196ADB7DE
:103CE000BEB71196BC92D282C182238314823583DF
:103CF0001682908787830E940F244DB75EB7475F77
:103D00005F4F0FB6F8945EBF0FBE4DBFAF9A809164
:103D100065008B7F809365000E9496260E940F1D90
:103D20008091E2098823A1F1C49AF092F309E0920C
:103D3000F2098091F2099091F309892BD1F7C49887
:103D40001093F3090093F2098091F2099091F3091D
:103D5000892BD1F7809165008460809365000E9473
:103D600096260E940F1D8091E209882389F0D09346
:103D7000F309C093F2098091F2099091F309892B1C
:103D8000D1F78091FE099091FF09892B09F084CF2A
:103D900085E590E09093FF098093FE0911E0CDEC5A
:103DA000D1E061C00E94C32197FF64C00E946127D7
:103DB00097FF60C0AF9A8091EF099091F009855FFD
:103DC000914020F0809165008B7F03C08091650059
:103DD0008460809365008091EF099091F009892BB0
:103DE00039F08091EF099091F009845F9140B1F52D
:103DF0000E9496260E940F1D8091F10965E00E94A5
:103E00004272992359F52091E5093091F109809189
:103E10001A0A90911B0A4DB75EB7495050400FB631
:103E2000F8945EBF0FBE4DBFEDB7FEB73196ADB78C
:103E3000BEB711961C93D283C1832383148235832A
:103E40001682908787830E940F244DB75EB7475F25
:103E50005F4F0FB6F8945EBF0FBE4DBF8091E20971
:103E6000882341F0C49A8091FE099091FF09892B23
:103E700009F098CFC4981092E60920911A0A30915F
:103E80001B0A00D000D00F92EDB7FEB7319681E04B
:103E9000ADB7BEB711968C9381EC91E0928381838C
:103EA000348323830E940F240F900F900F900F9064
:103EB0000F90DF91CF911F910F91FF90EF90DF90C6
:103EC000CF90BF900895DF92EF92FF920F931F93D0
:103ED000CF93DF9300D00F9281E0ADB7BEB71196BC
:103EE0008C93119782EB91E013969C938E9312978B
:103EF0000E940F24C0E0D0E00F900F900F9002E3DB
:103F000010E0DD24D3942AEAE22E21E0F22EAF98CD
:103F10001093F3090093F2098091F2099091F3094B
:103F2000892BD1F70E9496260E940F1D80911A0AB4
:103F300090911B0A00D000D00F92EDB7FEB73196DA
:103F4000ADB7BEB71196DC92F282E182948383838F
:103F50000E940F24AF9A1093F3090093F2090F9077
:103F60000F900F900F900F908091F2099091F309AC
:103F7000892BD1F72196CA30D10549F68091E20903
:103F8000882319F100D00F9211E0EDB7FEB711832D
:103F900082E991E0938382830E940F240F900F9017
:103FA0000F900E94045F0E94111E00D00F92ADB7C7
:103FB000BEB711961C93119787E891E013969C93D6
:103FC0008E9312970E940F240DC000D00F9281E0B3
:103FD000EDB7FEB7818386E791E0938382830E94E9
:103FE0000F24AF980F900F900F90DF91CF911F91FA
:103FF0000F91FF90EF90DF9008958091EE0981304E
:1040000011F40E94631F08950E94891D0E94F51DEE
:104010000E94EA2160E072EC81E090E00E94D620EC
:1040200089EF90E20E94B422789487B7816087BFBD
:10403000809165008B7F809365000E9465280E94B7
:104040005C1D0E94FD1F0E94CA57FFCF1F920F9256
:104050000FB60F920BB60F9211242F933F934F93ED
:104060005F936F937F938F939F93AF93BF93EF93E0
:10407000FF9389E182BF8091040A9091050A01961D
:104080009093050A8093040A8091F2099091F309B4
:10409000892B49F08091F2099091F309019790934F
:1040A000F3098093F2090E94DB1C8091CD098823DB
:1040B00089F08091F6099091F7096091000170E014
:1040C0000E944E72892B31F48FE080939E0A8CED12
:1040D0000E94AF258091F6099091F709019690937F
:1040E000F7098093F6098091F6099091F709885EA7
:1040F000934008F443C01092F7091092F60980919A
:10410000F4099091F509892B49F08091F409909177
:10411000F50901979093F5098093F4098091F109CD
:104120008F5F8093F1098091F1098C3338F11092FF
:10413000F1098091FE099091FF09892B49F0809146
:10414000FE099091FF0901979093FF098093FE0962
:104150008091E5098F5F8093E5098091E5098C33B3
:1041600068F01092E5098091E9098F5F8093E90971
:104170008091E909883110F01092E909FF91EF91DF
:10418000BF91AF919F918F917F916F915F914F916F
:104190003F912F910F900BBE0F900FBE0F901F906D
:1041A00018959093C9098093C80908959B01AC01A3
:1041B0006B54704E834E9F4FF3E0660F771F881F3E
:1041C000991FFA95D1F7E4E0220F331F441F551FC2
:1041D000EA95D1F70E9475722150304020939900E2
:1041E00030939800089587E09AE0089580E19AE07E
:1041F0000895982F8091060A8823E1F390939C00FC
:104200001092060A089510920C0A10920B0A089553
:1042100080910B0A90910C0A892B11F080E008958F
:104220008FEF08951F920F920FB60F920BB60F9259
:1042300011242F933F934F935F936F937F938F93AB
:104240009F93AF93BF93EF93FF9360919C008091F6
:10425000C8099091C909892B39F0E091C809F091FA
:10426000C909862F09950FC087E09AE00E947A223B
:10427000882349F48091180A9091190A0196909325
:10428000190A8093180AFF91EF91BF91AF919F9106
:104290008F917F916F915F914F913F912F910F90EF
:1042A0000BBE0F900FBE0F901F901895682F80E1E6
:1042B0009AE00E947A2208951F920F920FB60F92F1
:1042C0000BB60F9211242F933F934F935F936F93ED
:1042D0007F938F939F93AF93BF93EF93FF938091BF
:1042E0000F0A882379F08091140A9091150A892B7E
:1042F00039F080E19AE00E94112280939C0005C071
:1043000010920F0A8FEF8093060AFF91EF91BF91F1
:10431000AF919F918F917F916F915F914F913F915D
:104320002F910F900BBE0F900FBE0F901F901895FE
:104330008FEF80930F0A80E19AE00E941122982F5C
:104340008091060A8823E1F390939C001092060A5C
:104350000895CF93DF93EC018091090A90910A0AA6
:10436000892B69F080910B0A90910C0A892B39F006
:1043700087E09AE00E94112288838FEF01C080E0DD
:10438000DF91CF910895DF93CF930F92CDB7DEB732
:10439000CE0101960E94A921882319F42FEF3FEF47
:1043A00003C08981282F30E0C9010F90CF91DF91A0
:1043B000089587E09AE068E479E040E450E00E94E4
:1043C000042280E19AE068E879E040E450E00E944D
:1043D000042208950E94D9211092C9091092C80997
:1043E00088ED80939A0060E875E280E090E00E949A
:1043F000D6208FEF8093060A10920F0A1092190AA6
:104400001092180A78940895FC018FB7F89471837C
:1044100060835383428317821682158214828FBF72
:104420000895DC014FB7F89414968D919C911597DF
:10443000892B11F4E0E025C016968D919C91179779
:10444000ED91FC911197E80FF91FE0810196179605
:104450009C938E93169712962D913C9113978217E9
:10446000930730F0821B930B17969C938E931697AD
:1044700014968D919C911597019715969C938E9308
:1044800014974FBF8E2F0895FC014FB7F894848185
:10449000958168177907B0F486819781860F971FF9
:1044A00097838683228133818217930720F0821BB2
:1044B000930B9783868384819581861B970B9583C5
:1044C000848302C0158214824FBF0895FC01CB0182
:1044D0002FB7F8942FBF2681378162817381820FB5
:1044E000931F0E944E720190F081E02DE80FF91F9A
:1044F000808108951F93CF93DF93EC01162F4FB760
:10450000F8942C813D816A817B812617370798F4C6
:104510008E819F81820F931F0E944E72E881F981E4
:10452000E80FF91F10838C819D8101969D838C83F8
:104530004FBF8FEF02C04FBF80E0DF91CF911F913F
:104540000895FC018FB7F8948FBF22813381848155
:104550009581281B390BC9010895FC018FB7F89488
:10456000158214828FBF08959093CB098093CA0956
:1045700008951F93182F8A3031F4E091CA09F09101
:10458000CB098DE00995E091CA09F091CB09812F03
:1045900009951F910895CF93DF93EC01009721F4C3
:1045A00006C021960E94B92288818823D1F7DF9125
:1045B000CF910895EF92FF920F931F93CF93DF93C4
:1045C0008C017A010097E9F020E030E026173707E8
:1045D00038F4F80181918F012F5F3F4F8823B1F7A5
:1045E000C0E0D0E00BC0F8018081882319F00F5F94
:1045F0001F4F01C080E20E94B9222196CE15DF052F
:1046000090F3DF91CF911F910F91FF90EF9008955C
:10461000CF93DF93EC01009719F407C00E94B922F1
:10462000FE01219684918823C9F7DF91CF910895E7
:104630008AE00E94B9220895E82FF0E0EF70F07050
:10464000EE5DFD4FE4918E2F0E94B92208951F93D5
:10465000182F82958F700E941C23812F0E941C238B
:104660001F9108951F93182F892F0E942723812FB0
:104670000E9427231F910895EF92FF920F931F939B
:104680007B018C01C801AA27BB270E943223C701E6
:104690000E9432231F910F91FF90EF9008952F9267
:1046A0003F924F925F926F927F928F929F92AF92C2
:1046B000BF92CF92DF92EF92FF920F931F93DF93FF
:1046C000CF93CDB7DEB7A3970FB6F894DEBF0FBE7A
:1046D000CDBF6AA3242E2BA337014801442351F0F8
:1046E00017FF08C0EE24FF248701E618F708080921
:1046F000190902C0840173012AA1215090E0211000
:1047000091E0291B29A318A2A82EBB24CC24DD24C8
:10471000C801B701A60195010E947572FB01EF70F7
:10472000F070EE5DFD4F64916F8FC801B701A60177
:1047300095010E947572C901DA017C018D019EE12B
:10474000492E512C4C0E5D1E39A025C0E114F104F8
:1047500001051105C9F0C801B701A60195010E9424
:104760007572FB01EF70F070EE5DFD4F6491F20128
:104770006083C801B701A60195010E947572C90145
:10478000DA017C018D0103C02BA1F20120833A9450
:104790000894410851083320C9F6CE014F968C0188
:1047A000E9A10E1B11092220F1F097FE05C08DE250
:1047B000F80182938F0117C0C80101976114710439
:1047C0008104910419F08C018BE202C08C0180E21B
:1047D000F801808308C0F80181918F010E94B922FD
:1047E000FAA1F150FAA32AA12223A9F7A3960FB6A2
:1047F000F894DEBF0FBECDBFCF91DF911F910F9117
:10480000FF90EF90DF90CF90BF90AF909F908F90F0
:104810007F906F905F904F903F902F9008957F9280
:104820008F929F92AF92BF92CF92DF92EF92FF92C0
:104830000F931F93DF93CF93CDB7DEB77888C988E6
:10484000DA8853E1E52EF12CEC0EFD1E14C088230E
:1048500081F480E090E0CF91DF911F910F91FF9064
:10486000EF90DF90CF90BF90AF909F908F907F9010
:1048700008950E94B92296012F5F3F4F772021F0C3
:10488000F6016901849103C0F601808169018532D6
:10489000F1F62F5F3F4F772021F0F60169018491F7
:1048A00003C0F60180816901843629F0883781F0E0
:1048B0008336F9F606C000E117E24AE0A42EB12CD7
:1048C0000CC0F701808122E030E0E20EF31ED1CF70
:1048D00000E010E130E1A32EB12C22E0822E912CD9
:1048E0008E0C9F1CF701E080F1808436B1F4F7FE56
:1048F00011C0F094E194F108F3948DE20E94B92282
:1049000009C0C8016AE070E00E944E728B016230FB
:10491000710518F0E016F106A0F3C701B8010E9476
:104920004E72862F0E941C23C701B8010E944E724E
:104930007C01C801B5010E944E728B0161157105A1
:1049400061F7740198CF9C01FB01DD9ADE9ADF9A32
:1049500080916500846080936500AF9A8081918129
:10496000821793070CF4DF98828193818217930753
:104970000CF4DD9884819581821793070CF4DE98FE
:1049800086819781821793072CF4809165008B7F35
:104990008093650080859185821793070CF4AF980A
:1049A0000895DF93CF93CDB7DEB72A970FB6F8946B
:1049B000DEBF0FBECDBFDE011196E2E0F1E02AE0DE
:1049C00001900D922150E1F7BE016F5F7F4F0E9471
:1049D000A3242A960FB6F894DEBF0FBECDBFCF91A9
:1049E000DF910895892B79F01092A20A1092A10A02
:1049F00087B7816087BF89B7806489BFDD9881E010
:104A00008093CD09089587B78E7F87BF89B78F7B45
:104A100089BF80E090E00E94D1241092CD090895D2
:104A20001F920F920FB60F920BB60F9211242F9375
:104A30003F934F935F936F937F938F939F93AF9326
:104A4000BF93EF93FF9395B190939D0A80919E0A37
:104A5000813049F0813020F08F3009F06BC00CC0FC
:104A600090939C0A67C089E3989FC001112490939A
:104A70001B0A80931A0A5EC0963E18F490939F0A10
:104A800002C010929F0A80919F0A90E00E94D12458
:104A90004091A10A5091A20A41155105F1F480916B
:104AA000CE098823D1F090919F0A8091CE09891771
:104AB000A0F08091CF099091D00901979093D009EF
:104AC0008093CF098091CF099091D009892B91F5DE
:104AD0001092D1091092CD092DC08091CE09FA0112
:104AE000E45EF54F882319F080919F0A08C0208169
:104AF00080919F0A90E0820F911D95958795808304
:104B00008091010190E001974817590741F4809185
:104B1000D109813021F41092D1091092CD09609110
:104B20000101CA01019670E00E9462729093A20A8C
:104B30008093A10A1092CC09FF91EF91BF91AF91A0
:104B40009F918F917F916F915F914F913F912F91A5
:104B50000F900BBE0F900FBE0F901F901895909165
:104B60009E0A906297B986B90895C5990AC0C59AF8
:104B700084EF91E020E731E0F9013197F1F70197F7
:104B8000D9F7089588B30895EF92FF920F931F937A
:104B90008091AD0A8823E1F789B78F7B89BFC599DA
:104BA0000AC0C59A84EF91E020E731E0F90131971E
:104BB000F1F70197D9F710929E0A81E08093CC0912
:104BC00080E287B98CED86B98091CC098823E1F722
:104BD00060919C0AC59829B7206429BF70E0882796
:104BE00077FD8095982F0E947C6F20E030E040E0B8
:104BF00050E00E94196D21EE3AE74CED50E40E941E
:104C0000E86C9B01AC0166E676EA8BE894E40E94CE
:104C1000406E7B018C0120E030E040E050E00E94DB
:104C20004C6F8823FCF0C801B70120E030E040E27F
:104C300051E40E944C6F88235CF40F2EF0E0EF2EBD
:104C4000F0E0FF2EF0E20F2FF1E41F2FF02D14C043
:104C5000C801B70120E030E048E452E40E94EC6E65
:104C6000181654F40F2EF0E0EF2EF0E0FF2EF8E4CB
:104C70000F2FF2E41F2FF02DC801B7010E94706BB7
:104C80006093A30A1F910F91FF90EF900895BF9238
:104C9000CF92DF92EF92FF920F931F93CF93DF9308
:104CA0008FE080939E0AC0E0D0E00F2EF0E0EF2E60
:104CB000F0E0FF2EF0E00F2FF0E01F2FF02DBB24CF
:104CC000B3944FE2C42E3CEDD32EB092CC09C7B8BA
:104CD000D6B88091CC098823E1F760919F0A70E0F3
:104CE000882777FD8095982F0E947C6F9B01AC01EF
:104CF000C801B7010E94196D7B018C012196C23356
:104D0000D10519F720E030E040E251E40E94406E06
:104D10000E94706B6093A00ADF91CF911F910F9159
:104D2000FF90EF90DF90CF90BF9008959091CD09C4
:104D30001092CD0981E080939E0A81E287B98CEDC3
:104D400086B93699FECF9093CD0908951F920F92A0
:104D50000FB60F920BB60F9211248F93EF93FF9320
:104D600087B78F7B87BF1092AD0AE5E6F0E08081C0
:104D700084608083AF9ADD9ADE98FF91EF918F91E6
:104D80000F900BBE0F900FBE0F901F9018951F92A3
:104D90000F920FB60F920BB60F9211248F939F9321
:104DA000EF93FF938091AD0A8130B1F0813020F014
:104DB000823009F07BC036C014BC81E08093AD0A1C
:104DC00086B7806486BF87B7806487BF809165009F
:104DD0008B7F809365006AC084B58093AA0A14BC57
:104DE0008A53893118F01092AD0A15C01092A50AA5
:104DF0001092AC0A82E08093AD0A86B7806486BFC9
:104E000087B7806487BF1092AF0A1092B00A1092E1
:104E1000B10A1092B20A80916500846080936500A7
:104E2000AF9844C0DD9880916500846080936500F0
:104E3000AF9A94B59093AA0A14BC892F8D508E30E6
:104E400060F5E091AC0A943138F0F0E0E155F54FAF
:104E500080818695806805C0F0E0E155F54F80813E
:104E6000869580838091A50A8F5F8093A50A8830FC
:104E7000B9F41092A50A8091AC0A8F5F8093AC0AB6
:104E8000843071F48091AF0A8093A40A8091B20AB1
:104E90008093AE0A8FEF8093AB0A1092AD0A06C0E2
:104EA00086B7806486BF87B7806487BFFF91EF9124
:104EB0009F918F910F900BBE0F900FBE0F901F9080
:104EC00018958091AB0A882319F42FEF3FEF06C0A5
:104ED0001092AB0A8091AE0A282F30E0C9010895E4
:104EE000282F30E087FF02C020503140C9010895CB
:104EF000159A149A1D9A1C9A000000001D98000033
:104F000000001C98000000000895159A149A1D983E
:104F10001C9A000000001D9A0000000015981498CB
:104F20000895159A90E087FF02C01D9A01C01D9850
:104F3000000000001C9A00000000000000001C9807
:104F4000000000009F5F983011F0880FECCF0895AB
:104F5000159890E080E0880F00000000000000003D
:104F60001C9A000000000D998160000000001C9850
:104F70009F5F983081F7159A0895159800000000FA
:104F80001D9A000000001C9A000000001C98000000
:104F90000000159A000000000895159A0000000016
:104FA0001D98000000001C9A000000001C980000E2
:104FB00000001D9A000000000895159A00000000EE
:104FC0001D9A000000001C9A000000001C980000C0
:104FD00000000895CF92DF92EF92FF921F93CF933C
:104FE000DF93182F6B017A010E947827812F0E948E
:104FF00091270E94BD27C0E0D0E009C0F701EC0F67
:10500000FD1F80810E9491270E94BD272196CC150B
:10501000DD05A4F30E94852781E090E0DF91CF9128
:105020001F91FF90EF90DF90CF9008956F927F9245
:105030008F929F92AF92BF92CF92DF92FF920F9387
:105040001F93CF93DF93F82E5B016A01490138016A
:105050000E9478278F2D0E9491270E94BD27C0E0D3
:10506000D0E009C0F601EC0FFD1F80810E9491275E
:105070000E94BD272196CA15DB05A4F3C0E0D0E04D
:105080008401015010400CC00E94A827F301EC0FCE
:10509000FD1F8083C017D10714F40E94CD272196ED
:1050A000C815D9058CF30E94DD270E948527DF9162
:1050B000CF911F910F91FF90DF90CF90BF90AF9055
:1050C0009F908F907F906F9008950E94782780E73F
:1050D0000E9491270E94BD2784E10E9491270E948F
:1050E000BD2783E00E9491270E94BD270E9485274B
:1050F00008951F930E94782780E70E9491270E94BD
:10510000BD2782E00E9491270E94BD270E9485272B
:1051100000000000000000000E94782781E70E9444
:1051200091270E94BD270E94A8270E94CD270E9498
:10513000A827182F0E94CD27812F90E017FF02C0CB
:10514000805091409093B40A8093B30A0E94A8279C
:105150000E94CD270E94A827182F0E94CD27812FBB
:1051600090E017FF02C0805091409093B60A809360
:10517000B50A0E94A8270E94CD270E94A827182FB1
:105180000E94DD27812F90E017FF02C080509140E0
:105190009093B80A8093B70A0E9485271F910895BB
:1051A0006F927F928F929F92AF92BF92CF92DF9237
:1051B000EF92FF920F931F93DF93CF93CDB7DEB79C
:1051C00064970FB6F894DEBF0FBECDBF8CE091E0C0
:1051D0000E94CB2284E1898383E08A8380E790E088
:1051E00062E070E08E010F5F1F4FA8010E94EA2766
:1051F000EE24FF2422E0622E68019BE0892E912C90
:105200008C0E9D1E7724739483E3A82E82E0B82E23
:10521000698280E790E061E070E0A6010E94EA27E1
:1052200081E790E060E070E0A60126E030E08401D4
:105230000E9416288C85282F30E087FF04C0B90112
:105240006050714001C0B9018E85282F30E087FF82
:1052500004C0A9014050514001C0A9018889282FEC
:1052600030E087FF04C0C9018050914001C0C901EE
:105270002DB73EB7295030400FB6F8943EBF0FBE51
:105280002DBFEDB7FEB73196ADB7BEB711967C9284
:10529000B282A18274836383568345839087878318
:1052A0000E940F242DB73EB7275F3F4F0FB6F894EB
:1052B0003EBF0FBE2DBF8AEF90E00E94FA1C0894FB
:1052C000E11CF11C34E1E316F10409F0A1CF64966E
:1052D0000FB6F894DEBF0FBECDBFCF91DF911F9107
:1052E0000F91FF90EF90DF90CF90BF90AF909F9085
:1052F0008F907F906F900895DC01ED91FC91119754
:10530000E08109C0ED91FC91119731961196FC93C3
:10531000EE933197E181E032A9F3EE2331F08D91E4
:105320009C91119701968D939C938E2F0895DC018B
:10533000ED91FC911197E08109C0ED91FC911197DD
:1053400031961196FC93EE933197E181E032A9F307
:10535000EE2331F08D919C91119701968D939C9342
:105360008E2F81548A3118F0EFEFFFEF03C0F0E089
:10537000E154F040CF010895DC01ED91FC911197CB
:10538000408109C0ED91FC91119731961196FC93E3
:10539000EE93319741814032A9F3442339F08D9146
:1053A0009C911197019611969C938E9320E030E08A
:1053B00012C0C90163E0880F991F6A95E1F7220FB7
:1053C000331F280F391F240F311D205330404191C6
:1053D0001196FC93EE93842F8053ED91FC911197DD
:1053E0008A3038F33197ED93FC93C9010895FC019D
:1053F000DB0120E030E00BC0892F81548A3118F0A6
:105400008F5E8A3038F431969D932F5F3F4F9081A5
:10541000992391F71C92C9010895AC012091D509F7
:105420003091D609A7E3BBE0E0E0F0E00FC08D913A
:105430009C91119714968417950739F4EE0FFF1F6E
:10544000E75CF44F2081318106C03296E217F30702
:1054500074F320E030E0C9010895AC012091D50932
:105460003091D609A7E3BBE0E0E0F0E011C08D91F8
:105470009C91119714968417950749F4EE0FFF1F1E
:10548000E75CF44F80819181892BE1F404C032966E
:10549000E217F30764F322313105A4F4F901EE0FAA
:1054A000FF1FE95CF44F51834083F901EE0FFF1FAA
:1054B000E75CF44F718360832E5F3F4F3093D609D2
:1054C0002093D5090895FC01DB01208131818D9164
:1054D0009C911197918380832D933C930895860F1F
:1054E000971F62E070E00E946272CB010895AF9254
:1054F000BF92CF92DF92EF92FF920F931F93CF93C1
:10550000DF937C016B015A01CA14DB040CF07AC0F2
:105510008601000F111F0E0D1F1DC6018A0D9B1D58
:1055200062E070E00E946272FB01EE0FFF1FEE0D61
:10553000FF1DD8012D913C91119780819181119689
:105540009C938E93318320834D915C9196012F5FC4
:105550003F4FE50133C02F5F3F4FA216B3063CF427
:10556000B901FE01EE0FFF1FEE0DFF1D07C0819177
:105570009191481759077CF7F3CF2197CC15DD059A
:1055800034F080819181329748175907B4F32C1772
:105590003D079CF4D901AA0FBB1FAE0DBF1DFE0134
:1055A000EE0FFF1FEE0DFF1D2D913C911197808195
:1055B00091818D939C93318320839B01C217D307E4
:1055C00034F0F901EE0FFF1FEE0DFF1DC6CFFE01F7
:1055D000EE0FFF1FEE0DFF1DD8012D913C9111978D
:1055E000808191818D939C93318320832197C70182
:1055F000B601AE010E94772A92E0C92ED12CCC0EC2
:10560000DD1E82CFDF91CF911F910F91FF90EF9020
:10561000DF90CF90BF90AF900895DF93CF93CDB739
:10562000DEB7C055D0400FB6F894DEBF0FBECDBF79
:10563000FC019E012F5F3F4F4BE555E080E5DA010D
:105640000D90AD01D9010D929D018150C1F76230DD
:105650007105B9F0633071053CF461157105F1F124
:1056600061307105C1F507C06330710581F06430A8
:10567000710589F514C01E161F0674F1E0E0F0E014
:105680002DC01E161F0644F1E6EFFFEF27C080E095
:1056900090E01E161F06ECF481E090E01AC0BFEF08
:1056A000EC3EFB071CF4ECEEFFEF05C0E431F10526
:1056B00014F0E3E1F0E07496EE0FFF1FEC0FFD1F16
:1056C000818192818F57904064E070E00E94627205
:1056D000CB01FC0103C003C0EAE0F0E0CF01C05BF6
:1056E000DF4F0FB6F894DEBF0FBECDBFCF91DF9175
:1056F000089583309105E9F0843091054CF48130B0
:10570000910599F08230910594F4892B61F008C0DD
:105710008530910591F0853091056CF0069779F010
:1057200020E030E01CC089B30CC086B30AC083B34C
:1057300008C080B306C081B104C080B102C08091AE
:105740006300282F30E0683071054CF481E090E070
:1057500002C0880F991F6A95E2F728233923C901EF
:1057600008959C014D3309F472C04E33A8F44B32B6
:1057700029F14C3240F4463299F14A3229F145324E
:1057800009F06DC041C04F3239F14C3309F447C0C4
:105790004D3209F064C015C04C3609F446C04D3690
:1057A00030F44E33B1F1473609F059C044C04E369B
:1057B00009F447C04C3709F052C01AC0260F371FF2
:1057C0004EC0261B370B4BC0869F9001879F300D24
:1057D000969F300D112443C00E9462729B0117C036
:1057E000672B19F420E030E03AC00097C1F102C005
:1057F000009719F021E030E032C06115710511F019
:1058000061E070E09B012BC00E9462729C01C901A3
:1058100025C080E090E06217730704F51DC080E0AA
:1058200090E026173707D4F417C080E090E06217A5
:105830007307A4F011C080E090E02617370774F0DA
:105840000BC080E090E02617370731F407C080E0F6
:1058500090E06217730711F481E090E09C01C901A8
:105860000895DC018C91882319F420E030E009C010
:10587000FD0101C0319680818232E1F79F012A1B30
:105880003B0BC9010895FF920F931F93DF93CF93B2
:1058900000D000D000D0CDB7DEB7F82E492FFB01E5
:1058A0006530710534F48E01060F171F20E030E0DB
:1058B00018C08FEF9FEF1FC08F2D942F6AE070E00C
:1058C0000E946272805DD8018C938F2D942F6AE0C4
:1058D00070E00E946272F62E472F2F5F3F4F0150FB
:1058E00010402E173F0744F3CE010196E80FF91F31
:1058F00010820E94CB2226960FB6F894DEBF0FBE10
:10590000CDBFCF91DF911F910F91FF900895693026
:10591000710508F054C083309105D9F084309105A9
:105920004CF48130910579F0823091057CF4892B1B
:1059300061F11BC08530910591F08530910564F0CF
:10594000069799F40FC0E8E3F0E021C0E5E3F0E04A
:105950001EC0E2E3F0E01BC0E3E2F0E018C0E2E6C4
:10596000F0E015C0E5E6F0E012C000D00F9281E053
:10597000EDB7FEB7818387EB95E0938382830E9426
:105980000F240F900F900F900895EBE3F0E0683034
:10599000710519F431974083089581E090E002C0C9
:1059A000880F991F6A95E2F7982F452B29F480817B
:1059B00090958923808308958081892B8083089521
:1059C000CF93DF93FC01EB018E31910584F04E976C
:1059D0006AE070E00E9462729B01CF016AE070E0B1
:1059E0000E946272BC01C901AE010E94872C80E056
:1059F00090E0DF91CF9108958091E90990E062E015
:105A000070E00E94432C8AE30E94B9228091E5094C
:105A100090E062E070E00E94432C8AE30E94B92289
:105A20008091F10990E062E070E00E94432C8DE2E9
:105A30000E94B9228091F6099091F70963E070E025
:105A40000E94432C0895EF92FF920F931F93E82E2C
:105A5000F62E05E610E0F80180818B7F80838AEEC8
:105A60000E94B9228E2D0E94B9228F2D0E94B92248
:105A7000FE248F2D8F770E94B922F80180818460E7
:105A800080831F910F91FF90EF9008952F923F9286
:105A90004F925F926F927F928F929F92AF92BF923E
:105AA000CF92DF92EF92FF920F931F93DF93CF93EA
:105AB000CDB7DEB7CC58D0400FB6F894DEBF0FBEDE
:105AC000CDBF1092DE091092DD0985E191E00E94C0
:105AD000CB220E94E55A8A3A29F085E291E00E94A1
