:100000000C94721D0C94911D0C94911D0C94911DD7
:100010000C94911D0C94911D0C94911D0C942B2902
:100020000C94911D0C94911D0C940A290C94911D13
:100030000C94911D0C94911D0C946A1E0C94911DAE
:100040000C94BE1D0C94911D0C94911D0C94911D4B
:100050000C94911D0C9490270C94911D0C94911D5F
:100060000C94911D0C94911D0C94911D0C94911D58
:100070000C94911D0C94911D0C942B220C94911DA9
:100080000C94EF210C94911D0C94911DB2318F2F83
:100090006B34E748E74864327A32C1408831B23A7B
:1000A00014373E3759372930E731CE34B83ADC3A85
:1000B00021314B32FA39063881373E372D369036AA
:1000C0007E387E3A573A033A0C3CF23EA93D703EE8
:1000D00029378E3B8E3BFC3AE4401743FC3AE1481B
:1000E000FF4BFF4B3E4D794D794D6E4DAD4CC34CA2
:1000F000434C7F4DC64CC34CC34C744D824CC34CD7
:100100006E4D7F4D2E4CC34C6E4DC34CC34CC34CF7
:10011000C34CC34C824CC34CC34CC34CAD4CC34CBE
:10012000C34CC34CC64CC34CC34CC34CC34CC34C54
:10013000C34CC34CFC6D036E0D6E286E656D236E53
:10014000F06E386FF46DD26C056D176EC56EE96C8C
:10015000EF6DF46D3F6FB56C286DAC6C236DC16CA9
:10016000DD6C3F6F666FA76E946E586D846DA76CE3
:10017000746DD66DDD6DE86DF76DED6CF96C4E6FDD
:100180007420706C756767656420696E0D0A0043A2
:100190006F6D706C6574650D0A00506C75676765EE
:1001A0006420696E202D206368617267696E670D37
:1001B0000A002564206D560D0A0063686172676548
:1001C000206D6F6465200D0A00446F6E6520256404
:1001D0006D560D0A0025643A25642066756C6C2006
:1001E00063686172676520706F7765722025646D42
:1001F000560D0A0025643A25642073686F727420D6
:1002000034306D73206368617267652070756C733C
:1002100065732025646D560D0A0053746172742055
:100220002E2E2025646D560D0A00303132333435C0
:10023000363738394142434445460025642C202551
:10024000642C2025640A00455849542044454D4FEC
:10025000204D4F44450D0A0025640D0A003E3A200A
:100260000044454D4F204D4F44450D0A000D0A00F6
:10027000557074696D653A20002564206C696E655F
:10028000732073746F7265640D0A002564207365B2
:1002900072766F7320636F6E6E65637465640D0AAA
:1002A000004445425547204F4E0A002564206C69A2
:1002B0006E6573206C6F616465640D0A007465730C
:1002C00074696E67206368617267650D0A00505338
:1002D00044206F66660D0A006F6B0D0A005374614F
:1002E0006E642025640D0A003F204E6F20737563F5
:1002F00068206C696E652025640A000D0A00456C53
:1003000061707365642054696D6520002564206CFC
:10031000696E657320696E206D656D6F72790D0A67
:1003200000256420736572766F7320636F6E6E654F
:10033000637465640D0A0072657365740D0A000DBF
:100340000A002564002C2564002564002563004014
:10035000200023200025633D0025643D00504F52BE
:10036000543A25633A2563002563203D2000200090
:10037000256420002578200025782000257820009D
:10038000257820004F3D25640A004F3D25640A0072
:1003900054683D2D282564290A00496E7075743D06
:1003A0002564202825642078202564290A00496EC8
:1003B0007075743D256420282564207820256429E3
:1003C0000A004F5554505554204E4555524F4E201B
:1003D0003D2025640A004F3D25640A0054683D2DE8
:1003E000282564290A00496E7075743D256420280B
:1003F00025642078202564290A0048494444454E54
:10040000204E4555524F4E203D2025640A004F3D59
:1004100025640A0054683D2D282564290A00496E88
:100420007075743D25642028256420782025642972
:100430000A00494E505554204E4555524F4E203DCE
:100440002025640A004F6666736574203D2025648C
:1004500020282564290A0A004E4F204C33203D20D5
:1004600025640A0A004E4F204C32203D2025640AA4
:10047000004E4F204C31203D2025640A00466C611F
:100480006773203D2025640A004E4F4F2020203DF9
:100490002025640A004E4F492020203D2025640A73
:1004A00000434F20707432202020203D2025640A14
:1004B00000434F20707431202020203D2025640A05
:1004C000004D75742072616E6765203D202B2F2DC5
:1004D00025640A004D7574207261746520203D20EA
:1004E00025640A0047656E657261746520203D20B1
:1004F00025640A006C656E677468202020203D200A
:1005000025640A00547970652020202020203D2099
:1005100025640A00256429203D20282564202564BF
:10052000292025640D0A00464654202825642920E8
:100530003D2025640D0A002C256400256400496EC9
:1005400076616C69642073616D706C652073697A83
:1005500065206D757374206265206F6E65206F660F
:1005600020382C31362C3332206F722036340A007A
:100570004442473A3A204D4F56452025643D256474
:100580000A002C256400256400256C640044424761
:100590003A205641522025632020256C643C3D20A2
:1005A000256C640A004442473A204E4558542025A1
:1005B000642D3E2025642020256420256C640A00DB
:1005C0004442473A20666F722025642D3E20256400
:1005D0000A002563203D20256C640D0A00557365D3
:1005E0007220427265616B206F6E206C696E6520AF
:1005F00025640D0A005452414345203A3A202564AF
:10060000202D2000456E640D0A0052756E74696DD0
:1006100065206572726F72202564206F6E206C6990
:100620006E652025640D0A00456C61707365642059
:1006300054696D652025646D730D0A00436F6D6DFF
:10064000616E64206E6F7420617661696C61626CAA
:100650006520696E20696D6D656469617465206DE2
:100660006F64650D0A0044656C657465202D202556
:10067000640D0A000D0A2564206C696E657320659F
:100680006E74657265642C205B25642F25645D2083
:1006900042797465730D0A0050616E6963202564A8
:1006A0000D0A00506F733D2564205B25635D0D0AC4
:1006B0000050726F6772616D20656E747279206D83
:1006C0006F646520282E20746F2065786974290D69
:1006D0000A000D0A004D6F74696F6E2072616E67BB
:1006E000653A202030202D2031380D0A00506C61F1
:1006F00079204D6F74696F6E2025640D0A007DC9E5
:10070000A3436C7D3059B88E59277CA2D37F7DB32B
:10071000C7586C7E4831A38D332F31C7CDCD04042B
:10072000040404040404040404040404040402028D
:1007300002020202020202020000000000000101A7
:100740000101010101010101010101010101020297
:100750000202020202020202020202020202040475
:10076000040404040404040404040404040401014F
:100770000101010000000000010101000000010171
:10078000010101000000000001010100000003035D
:100790000303030000000000030303000000030341
:1007A0000303030000000000030303000000000037
:1007B00000000000000000000000000000002828E9
:1007C00028282828282828281414141414143C3CF9
:1007D0003C3C3C3C3C3C3C3C1E1E1E1E1E1E000085
:1007E0000000000000000000000000000000010008
:1007F0000800010005000F0046003601A401C800F2
:100800002C017DB3C7586C7E4831A38D332F31C77F
:10081000CDCD7DB3C7586C7E4831A38D332F31C702
:10082000CDCD6BA4E96A5F6C501D9B81383E28A634
:10083000CED06BA4E96A5F914A28A39A757C72A610
:10084000CED07EA4DE646B7D501D9B8E4F2C28A6DF
:10085000CED07DB3C7586C7E4831A38D332F31C7BE
:10086000CDCD0404040404040404040404040404B6
:10087000040402020202020202020202000000005C
:10088000000001010101010101010101010101015A
:10089000010102020202020202020202020202023A
:1008A000020204040404040404040404040404040C
:1008B000040400000000000101010101000000012A
:1008C000010100000000000202020202000000021A
:1008D0000202000000000003030303020000000303
:1008E00003030000000000030303030300000003F0
:1008F00003030000000000000000000000000000F2
:100900000000282828282828282828281414141407
:1009100014143C3C3C3C3C3C3C3C3C3C1E1E1E1EDF
:100920001E1E00000000000000000000000000008B
:10093000000001000800010005000F00460036011C
:10094000A401C8002C017DB3C7586C7E4831A38D2B
:10095000332F31C7CDCD7DB3C7586C7E4831A38DC1
:10096000332F31C7CDCD8BA3E664788E570E969F7B
:100970004F2C28B7BCD06CA4E0616A97501C99A793
:100980004F2C289170837EA4DE646B7D501D9B8E5E
:100990004F2C28A6CED07DB3C7586C7E4831A38D8E
:1009A000332F31C7CDCD040404040404040404042B
:1009B00004040404040404040404040404040404F7
:1009C00004040404040402020202020202020202FB
:1009D000000000000000020202020200000000000D
:1009E00003030303030300000000000000000000F5
:1009F00004040404040304040404040404040404B8
:100A000004040404040400000000000000000000CE
:100A100000000000000001010101010000000000D1
:100A200001010100000000000000000000000000C3
:100A300000000000000001010101010000000000B1
:100A400001010100000000000000000000000000A3
:100A50000000000000000000000000000000000096
:100A600000000000000028282828282828282828F6
:100A70001414141414143C3C3C3C3C3C3C3C3C3CA6
:100A80001E1E1E1E1E1E00000000000000000000B2
:100A90000000000000000100050008000300010044
:100AA0000F00460096003601FA0078002C017DB355
:100AB000C7586C7E4831A38D332F31C7CDCD7DB360
:100AC000C7586C7E4831A38D332F31C7CDCD7EA75B
:100AD000DE626E7D541D9B8E4F2C28A6CED06BA45B
:100AE000E9665F6C501D9B81383E28A6CED06BA472
:100AF000E9695F914A289D9A383E28A6CED07EA407
:100B0000DE5F6B7D541D9B8E4F2C28A6CED07DB30F
:100B1000C7586C7E4831A38D332F31C7CDCD040427
:100B20000404040404040404040404040404040485
:100B30000404040404040404040404040404020279
:100B4000020202020202020204040404040400007D
:100B50000000000202020202040404040404000073
:100B6000000000020202020204040404040404045B
:100B7000040404040404040404040404040400003D
:100B80000000000000000000000000000000000065
:100B9000000000010101010100000001010100004D
:100BA0000000000000000000000000000000000045
:100BB000000000010101010100000001010100002D
:100BC0000000000000000000000000000000000025
:100BD00000000000000000000000000000002828C5
:100BE00028282828282828281414141414143C3CD5
:100BF0003C3C3C3C3C3C3C3C1E1E1E1E1E1E000061
:100C000000000000000000000000000000000100E3
:100C100005000800030001000F00460096003601A1
:100C2000C80078002C017DB3C7586C7E4831A38D75
:100C3000332F31C7CDCD7DB3C7586C7E4831A38DDE
:100C4000332F31C7CDCD7EA7DE626E7D541D9B8EC6
:100C50004F2C28A6CED08BA3E664788E570E969F95
:100C60004F2C28B7BCD06CA4E0616A97501C99A7A0
:100C70004F2C28B7BCD07EA6DE62717D541D9B8EA2
:100C80004F2C28A6CED07DB3C7586C7E4831A38D9B
:100C9000332F31C7CDCD0404040404040404040438
:100CA0000404040404040101010101010101010122
:100CB0000404040404040101010101010101010112
:100CC00004040404040402020202020202020202F8
:100CD00004040404040401010101010101010101F2
:100CE00004040404040403030303030303030303CE
:100CF00004040404040401010101010000000000D7
:100D000001010100000001010101010000000000DB
:100D100001010100000000000000000000000000D0
:100D200000000000000000000000000000000000C3
:100D300000000000000000000000000000000000B3
:100D400000000000000000000000000000000000A3
:100D500000000000000014141414141414141414CB
:100D60001414141414141E1E1E1E1E1E1E1E1E1EDF
:100D70001E1E1E1E1E1E00000000000000000000BF
:100D80000000000000000A0005000A000100050044
:100D90000A00C800C80090017800C80090017DB327
:100DA000C7586C7E4831A38D332F31C7CDCD7DB36D
:100DB000C7586C7E4831A38D332F31C7CDCD7DA26E
:100DC000C7486C7E3B31978D332F31C7CDCD88A975
:100DD000D25D798B243D909D332F31C7CDCD7DAD34
:100DE000D25D7B8B500E899D332F31C7CDCD86AD23
:100DF000D25D7B8B501F9D9D332F31C7CDCD7DB3F1
:100E0000C7586C7E4831A38D332F31C7CDCD040434
:100E10000404040404040404040404040404010198
:100E200001010101010101010404040404040101A0
:100E3000010101010101010104040404040402028E
:100E40000202020202020202040404040404020276
:100E50000202020202020202040404040404030364
:100E60000303030303030303030303030303000058
:100E7000000000010101010100000001010100006A
:100E8000000000010101010100000001010000005B
:100E90000000000000000000000000000000000052
:100EA0000000000000000000000000000000000042
:100EB0000000000000000000000000000000000032
:100EC00000000000000000000000000000001414FA
:100ED00014141414141414141414141414141E1EBE
:100EE0001E1E1E1E1E1E1E1E1E1E1E1E1E1E00005E
:100EF00000000000000000000000000000000A00E8
:100F000005000A00010005000A00C800C8009001A1
:100F10007800C80090017DB3C7586C7E4831A38D1E
:100F2000332F31C7CDCD7DB3C7586C7E4831A38DEB
:100F3000332F31C7CDCD7DC1CD6B6C7E5931B48D92
:100F4000332F31C7CDCD77D1C36A6077511F9D84D0
:100F5000332F31C7CDCD75A2E362677D4E31A37FBC
:100F6000332F31C7CDCD6EA8CC555C755131A380E0
:100F7000332F31C7CDCD7DB3C7586C7E4831A38D9B
:100F8000332F31C7CDCD0404040404040404040445
:100F90000404040404040404040404040404040411
:100FA000040404040404030303030303030303030B
:100FB000030303030303000000000000000000001F
:100FC00004040404040403030303030303030303EB
:100FD00003030303030302020202020202020202EB
:100FE00004040404040402020202020202020202D5
:100FF00004040404040402020202020202020202C5
:1010000004040404040402020202020202020202B4
:10101000040404040404030303030303030303039A
:1010200003030303030300000000000000000000AE
:101030000000000000000303030303030303030392
:10104000030303030303000000000000000000008E
:10105000000000000000020202020202020202027C
:101060000202020202020000000000000000000074
:101070000000000000000101010101010101010166
:10108000010101010101000000000000000000005A
:101090000000000000000303030303030303030332
:1010A000030303030303000000000000000000002E
:1010B0000000000000000000000000000000000030
:1010C0000000000000002828282828282828282890
:1010D0001E1E1E1E1E1E3C3C3C3C3C3C3C3C3C3C04
:1010E00032323232323200000000000000000000D4
:1010F0000000000000000F001E002D002D002D003C
:101100001E001E001E001E001E002C01580284033B
:1011100084038403580258025802580258027DB3CF
:10112000C7586C7E4831A38D332F31C7CDCD7DB3E9
:10113000C7586C7E4831A38D332F31C7CDCD7CDCB1
:10114000F77D6C7E1D047F8C332F31C7CDCD7BDCCA
:10115000F656707E1D07A98B013B4AFDBFB5825331
:10116000903F6C7DAA67BF8B013BA3FDBF588253A4
:10117000903F6C7DAA67BF8BEA7D5A0581A6815E90
:10118000B7646E80A26EBA88A02D515ACDA7815740
:10119000BF3C6E80A23BC1888A2E5974CBA7818147
:1011A000BE416E80783BBB8C852D5174CBA781A14D
:1011B000C5476E805935B58F8F245974CBA77DB341
:1011C000C7586C7E4831A38D332F31C7CDCD040471
:1011D00004040404040404040404040404040101D5
:1011E00001010101010101010404040404040404D7
:1011F00004040404040404040404040404040101B5
:1012000001010101010101010101010101010101CE
:1012100001010101010101010101010101010202BC
:10122000020202020202020202020202020202029E
:10123000020202020202020202020202020202028E
:10124000020202020202020202020202020204047A
:101250000404040404040404040404040404000056
:101260000000000000000000000000000000030378
:101270000303030303030303030303030303000044
:10128000000000000000000000000000000002025A
:101290000202020202020202020202020202000032
:1012A000000000000000000000000000000001013C
:1012B0000101010101010101010101010101000020
:1012C0000000000000000000000000000000030318
:1012D00003030303030303030303030303030000E4
:1012E00000000000000000000000000000002828AE
:1012F00028282828282828281414141414143C3CBE
:101300003C3C3C3C3C3C3C3C1E1E1E1E1E1E000049
:1013100000000000000000000000000000000A00C3
:101320000A000A000A00010023001E0028001E0017
:101330002C01F401F401BC023403BC025802200366
:1013400058027DB3C7586C7E4831A38D332F31C707
:10135000CDCD7DB3C7586C7E4831A38D332F31C7B7
:10136000CDCD7D52D6596C7E4831A38D8F2F3172F1
:10137000CDCD7D52DA65727DA622978F8D2F317289
:10138000CDCD7DD2E450717C2319AC8EA72F2F5286
:10139000CDCC7DDAF756717B1F05A88D095792FEDB
:1013A000A26C7DDCF47A6D7B1D05808D212A92DE96
:1013B000D26C7DDCDE7A717B1D1C878D62324E9291
:1013C000C5A97DA0F272717B5708878D522F45AD5C
:1013D000CDBF7DB3C7586C7E4831A38D332F31C745
:1013E000CDCD030303030303030303030303030339
:1013F00003030303030303030303030303030303BD
:1014000003030303030303030303030303030303AC
:1014100003030202020202020202020202020202AA
:1014200002020101010101010101010101010101AA
:1014300001010000000000000000000000000000AA
:10144000000000000000000000000000000000009C
:10145000000001010101010101010101010101017E
:10146000010102020202020202020202020202025E
:10147000020203030303030303030303030303033E
:10148000030303030303030303030303030303032C
:10149000030303030303030303030303030303031C
:1014A000030302020202020202020202020202021A
:1014B000020201010101010101010101010101011A
:1014C000010100000000000000000000000000001A
:1014D000000000000000000000000000000000000C
:1014E00000000101010101010101010101010101EE
:1014F00001010202020202020202020202020202CE
:1015000002020303030303030303030303030303AD
:10151000030303030303030303030303030303039B
:101520000303020202020202020202020202020299
:101530000202010101010101010101010101010199
:101540000101000000000000000000000000000099
:10155000000000000000000000000000000000008B
:10156000000001010101010101010101010101016D
:10157000010102020202020202020202020202024D
:10158000020203030303030303030303030303032D
:10159000030303030303030303030303030303031B
:1015A000030303030303030303030303030303030B
:1015B0000303020202020202020202020202020209
:1015C0000202010101010101010101010101010109
:1015D0000101000000000000000000000000000009
:1015E00000000000000000000000000000000000FB
:1015F00000000101010101010101010101010101DD
:1016000001010202020202020202020202020202BC
:10161000020203030303030303030303030303039C
:10162000030303030303030303030303030303038A
:101630000303020202020202020202020202020288
:101640000202010101010101010101010101010188
:101650000101040404040404040404040404040450
:101660000404000000000000000000000000000072
:101670000000030303030303030303030303030340
:10168000030303030303030303030303030303032A
:101690000303020202020202020202020202020228
:1016A0000202010101010101010101010101010128
:1016B0000101000000000000000000000000000028
:1016C000000000000000000000000000000000001A
:1016D00000000101010101010101010101010101FC
:1016E00001010202020202020202020202020202DC
:1016F00002020303030303030303030303030303BC
:1017000003030303030303030303030303030303A9
:101710000303030303030303030303030303030399
:101720000303020202020202020202020202020297
:101730000202010101010101010101010101010197
:101740000101000000000000000000000000000097
:101750000000000000000000000000000000000089
:10176000000001010101010101010101010101016B
:10177000010102020202020202020202020202024B
:10178000020203030303030303030303030303032B
:101790000303030303030303030303030303030319
:1017A0000303020202020202020202020202020217
:1017B0000202010101010101010101010101010117
:1017C0000101000000000000000000000000000017
:1017D0000000000000000000000000000000000009
:1017E00000000101010101010101010101010101EB
:1017F00001010202020202020202020202020202CB
:1018000002020303030303030303030303030303AA
:101810000303030303030303030303030303030398
:101820000303030303030303030303030303030388
:101830000303020202020202020202020202020286
:101840000202010101010101010101010101010186
:101850000101000000000000000000000000000086
:101860000000000000000000000000000000000078
:10187000000001010101010101010101010101015A
:10188000010102020202020202020202020202023A
:10189000020203030303030303030303030303031A
:1018A0000303030303030303030303030303030308
:1018B0000303020202020202020202020202020206
:1018C0000202010101010101010101010101010106
:1018D0000101000000000000000000000000000006
:1018E000000029292929292929292929141414140E
:1018F00014143D3D3D3D3D3D3D3D3D3D1E1E1E1EE6
:101900001E1E00000000000000000000000000009B
:1019100000000500010001000100010001000100BC
:1019200001000100010001000100010001000100AF
:10193000010001000100010001000100010001009F
:10194000010001000100010001000100010001008F
:1019500001000100010001000100010001000A0076
:101960000F00C8001900190019001900190019000A
:10197000190019001900190019001900190019009F
:10198000190019001900190019001900190019008F
:10199000190019001900190019001900190019007F
:1019A0001900190019001900190019001900C800C0
:1019B0002C017DB3C7586C7E4831A38D332F31C7BE
:1019C000CDCD7DB3C7586C7E4831A38D332F31C741
:1019D000CDCD7DB3C7586C7E4831A38D332F31C731
:1019E000CDCD82A5C9517386511F9395482C28915E
:1019F000D1C984ABC5537589561C94984E2B299A2E
:101A0000D1CE84AFC357758B5B1B989A572B2BA4F1
:101A1000D1D384B2C55B75895F1C9D98612B30ACB6
:101A2000D1D582B3C95F7386601FA195692B35B389
:101A3000D2D67FB2CE6270825F23A6916F2A39B66A
:101A4000D2D67CAFD4646D7F5C28AA8E712A3BB756
:101A5000D2D67CAFD4646D7F5C28AA8E712A3BB746
:101A6000D2D678ACD966697B582EAA8A6F2A39B645
:101A7000D2D674A7DD6765785333A9876A2B35B34F
:101A8000D2D671A2E06662764D37A785612B30AD64
:101A9000D1D56F9DE16260764939A385572B2BA480
:101AA000D1D37199E05D627646379F854F2B299A95
:101AB000D1CE7498DD59657845339B87482C2892A0
:101AC000D1C97899D954697B462E988A452C288C9F
:101AD000D0C57B9CD4506C7E4928968D442C288A96
:101AE000D0C37B9CD4506C7E4928968D442C288A88
:101AF000D0C382A5C9517386511F9395482C289154
:101B0000D1C984ABC5537589561C94984E2B299A1C
:101B1000D1CE84AFC357758B5B1B989A572B2BA4E0
:101B2000D1D384B2C55B75895F1C9D98612B30ACA5
:101B3000D1D582B3C95F7386601FA195692B35B378
:101B4000D2D67FB2CE6270825F23A6916F2A39B659
:101B5000D2D67CAFD4646D7F5C28AA8E712A3BB745
:101B6000D2D67CAFD4646D7F5C28AA8E712A3BB735
:101B7000D2D678ACD966697B582EAA8A6F2A39B634
:101B8000D2D674A7DD6765785333A9876A2B35B33E
:101B9000D2D671A2E06662764D37A785612B30AD53
:101BA000D1D56F9DE16260764939A385572B2BA46F
:101BB000D1D37199E05D627646379F854F2B299A84
:101BC000D1CE7498DD59657845339B87482C28928F
:101BD000D1C97899D954697B462E988A452C288C8E
:101BE000D0C57B9CD4506C7E4928968D442C288A85
:101BF000D0C37B9CD4506C7E4928968D442C288A77
:101C0000D0C382A5C9517386511F9395482C289142
:101C1000D1C984ABC5537589561C94984E2B299A0B
:101C2000D1CE7DA6E56A6C7E5617968D332F31C7CF
:101C3000CDCD7DB3C7586C7E4831A38D332F31C7CE
:101C4000CDCD0404040404040404040404040404C2
:101C50000404030303030303030303030303030352
:101C60000303020202020202020202020202020252
:101C70000202030303030303030303030303030336
:101C80000303020202020202020202020202020232
:101C90000202010101010101010101010101010132
:101CA0000101000000000000000000000000000032
:101CB0000000000000000000000000000000000024
:101CC0000000010101010101010101010101010106
:101CD00001010202020202020202020202020202E6
:101CE00002020303030303030303030303030303C6
:101CF00003030303030303030303030303030303B4
:101D000003030303030303030303030303030303A3
:101D100003030202020202020202020202020202A1
:101D200002020101010101010101010101010101A1
:101D300001010000000000000000000000000000A1
:101D40000000000000000000000000000000000093
:101D50000000010101010101010101010101010175
:101D60000101020202020202020202020202020255
:101D70000202030303030303030303030303030335
:101D80000303030303030303030303030303030323
:101D90000303020202020202020202020202020221
:101DA0000202010101010101010101010101010121
:101DB0000101000000000000000000000000000021
:101DC0000000000000000000000000000000000013
:101DD00000000101010101010101010101010101F5
:101DE00001010202020202020202020202020202D5
:101DF00002020303030303030303030303030303B5
:101E000003030303030303030303030303030303A2
:101E10000303030303030303030303030303030392
:101E20000303020202020202020202020202020290
:101E30000202010101010101010101010101010190
:101E40000101000000000000000000000000000090
:101E50000000000000000000000000000000000082
:101E60000000010101010101010101010101010164
:101E70000101020202020202020202020202020244
:101E80000202030303030303030303030303030324
:101E90000303030303030303030303030303030312
:101EA0000303020202020202020202020202020210
:101EB0000202010101010101010101010101010110
:101EC00001010202020202020202020202020202F4
:101ED00002020404040404040404040404040404C6
:101EE00004040000000000000000000000000000EA
:101EF00000000000000000000000000000000000E2
:101F000000000000000000000000000000000000D1
:101F10000000030303030303030303030303030397
:101F2000030302020202020202020202020202028F
:101F3000020201010101010101010101010101018F
:101F4000010100000000000000000000000000008F
:101F50000000000000000000000000000000000081
:101F60000000010101010101010101010101010163
:101F70000101020202020202020202020202020243
:101F80000202030303030303030303030303030323
:101F90000303030303030303030303030303030311
:101FA0000303030303030303030303030303030301
:101FB00003030202020202020202020202020202FF
:101FC00002020101010101010101010101010101FF
:101FD00001010000000000000000000000000000FF
:101FE00000000000000000000000000000000000F1
:101FF00000000101010101010101010101010101D3
:1020000001010202020202020202020202020202B2
:102010000202030303030303030303030303030392
:102020000303030303030303030303030303030380
:10203000030302020202020202020202020202027E
:10204000020201010101010101010101010101017E
:10205000010100000000000000000000000000007E
:102060000000000000000000000000000000000070
:102070000000010101010101010101010101010152
:102080000101020202020202020202020202020232
:102090000202030303030303030303030303030312
:1020A0000303030303030303030303030303030300
:1020B00003030303030303030303030303030303F0
:1020C00003030202020202020202020202020202EE
:1020D00002020101010101010101010101010101EE
:1020E00001010000000000000000000000000000EE
:1020F00000000000000000000000000000000000E0
:1021000000000101010101010101010101010101C1
:1021100001010202020202020202020202020202A1
:102120000202030303030303030303030303030381
:10213000030303030303030303030303030303036F
:10214000030302020202020202020202020202026D
:10215000020201010101010101010101010101016D
:10216000010100000000000000000000000000006D
:10217000000000000000000000000000000000005F
:102180000000292929292929292929291414141465
:1021900014143D3D3D3D3D3D3D3D3D3D1E1E1E1E3D
:1021A0001E1E0000000000000000000000000000F3
:1021B0000000050014000100010001000100010001
:1021C0000100010001000100010001000100010007
:1021D00001000100010001000100010001000100F7
:1021E00001000100010001000100010001000100E7
:1021F00001000100010001000100010001000100D7
:1022000001000A0014002C019001190019001900A6
:1022100019001900190019001900190019001900F6
:1022200019001900190019001900190019001900E6
:1022300019001900190019001900190019001900D6
:1022400019001900190019001900190019001900C6
:10225000190019001900900190017DB3C7586C7ED8
:102260004831A38D332F31C7CDCD7DB3C7586C7E98
:102270004831A38D332F31C7CDCD7DA0DC6B6C7E73
:10228000581F928D332F31C7CDCD7899DA58697B9D
:10229000482E978A392B33AED2D67497DF5B657898
:1022A00046349B873A2B30B1D2D67098E25E617784
:1022B0004639A0863B2B2DB6D2D66F9BE363607662
:1022C000483CA5853F2B29BCD1D570A0E26661763C
:1022D0004C3AA785442C28BFD1D173A5DF68647818
:1022E0005234A887492C28C1D1CE78A9DA68697BF5
:1022F000582EA78A4D2C28C2D1CB7BADD4676C7EDB
:102300005C28A58D4E2B28C2D1CA7BADD4676C7ECC
:102310005C28A58D4E2B28C2D1CA7FB0CE637082B7
:102320005F22A2914D2C28C2D1CB82B2C85F7386A6
:10233000611D9F954A2C28C1D1CE83B2C35A748A9D
:10234000601A9C99452C28C0D1D184B0C055758B9A
:102350005D19979A3F2B29BCD1D584ACC253758A9D
:10236000581A94993C2B2DB7D2D682A6C85273879F
:10237000531D92963A2B30B2D2D67FA0CE537082A4
:102380004F229291392B33AED2D67C9CD4556D7F9F
:102390004B28938E392B34ADD1D67C9CD4556D7F90
:1023A0004B28938E392B34ADD1D67497DF5B65788B
:1023B00046349B873A2B30B1D2D67098E25E617773
:1023C0004639A0863B2B2DB6D2D66F9BE363607651
:1023D000483CA5853F2B29BCD1D570A0E26661762B
:1023E0004C3AA785442C28BFD1D173A5DF68647807
:1023F0005234A887492C28C1D1CE78A9DA68697BE4
:10240000582EA78A4D2C28C2D1CB7BADD4676C7EC9
:102410005C28A58D4E2B28C2D1CA7BADD4676C7EBB
:102420005C28A58D4E2B28C2D1CA7FB0CE637082A6
:102430005F22A2914D2C28C2D1CB82B2C85F738695
:10244000611D9F954A2C28C1D1CE83B2C35A748A8C
:10245000601A9C99452C28C0D1D184B0C055758B89
:102460005D19979A3F2B29BCD1D584ACC253758A8C
:10247000581A94993C2B2DB7D2D682A6C85273878E
:10248000531D92963A2B30B2D2D67FA0CE53708293
:102490004F229291392B33AED2D67C9CD4556D7F8E
:1024A0004B28938E392B34ADD1D67C9CD4556D7F7F
:1024B0004B28938E392B34ADD1D67497DF5B65787A
:1024C00046349B873A2B30B1D2D67098E25E617762
:1024D0004639A0863B2B2DB6D2D66F9BE363607640
:1024E000483CA5853F2B29BCD1D56F9BE362607624
:1024F00059199B853F2B29BCD1D57DB3C7586C7E1C
:102500004831A38D332F31C7CDCD141414141414B6
:10251000141414141414141414141E1E1E1E1E1E3F
:102520001E1E1E1E1E1E1E1E1E1E0000000000007F
:102530000000000000000000000001000100010098
:1025400001000100010014001400400114004001CA
:1025500014007DB3C7586C7E4831A38D332F31C72B
:10256000CDCD7DB3C7586C7E4831A38D332F31C795
:10257000CDCD73B3C7585F744831A380332F31C7B3
:10258000CDCD63DBCE8254724339A17B22556E766A
:10259000C3C96581CB2B55782451B47E82314CCF91
:1025A000C7E46581CB2A55782451B47B82314CCF66
:1025B000C7E47DB3C7586C7E4831A38D332F31C734
:1025C000CDCD020202020202020202020202020255
:1025D00002020202020202000202020002020202DF
:1025E00002020000000000000000000000000000E7
:1025F00000000000000000000000000000000000DB
:1026000000000000000000000000000000000000CA
:10261000000002020202020202020202020202029E
:1026200002020000000000000000000000000000A6
:10263000000000000000000000000000000000009A
:10264000000000000000000000000000000000008A
:10265000000000000000000000000000000000007A
:10266000000000000000000000000000000000006A
:10267000000000000000000000000000000000005A
:102680000000141414141414141414141414141432
:1026900014141E1E1E1E1E1E1E1E1E1E1E1E1E1E6E
:1026A0001E1E0000000000000000000000000000EE
:1026B0000000010001000100010001000A001400F7
:1026C000140040011400A401DC007DB3C7586C7EE7
:1026D0004831A38D332F31C7CDCD7DB3C7586C7E24
:1026E0004831A38D332F31C7CDCD87B3C7587988F3
:1026F0004831A39A332F31C7CDCD89B8BF5A7E98C0
:10270000202A78A5843935D8A79083C4B64F7A9605
:102710007A2DD0A42B355078CBB283C4B64F809697
:102720007A2DD0A42B355078CBB27DB3C7586C7EB0
:102730004831A38D332F31C7CDCD020202020202F0
:102740000202020202020202020202020202020269
:10275000020202020202020202020002020200025D
:102760000202020202020202020200000000000055
:102770000000000000000000000000000000000059
:10278000000000000000000000000202020202023D
:102790000202020202020202020200000000000025
:1027A0000000000000000000000000000000000029
:1027B0000000000000000000000000000000000019
:1027C0000000000000000000000000000000000009
:1027D00000000000000000000000000000000000F9
:1027E00000000000000000000000000000000000E9
:1027F00000000000000000000000282828282828E9
:10280000282828281414141414143C3C3C3C3C3C48
:102810003C3C3C3C1E1E1E1E1E1E00000000000014
:1028200000000000000000000000050001000100A1
:1028300003006400DC0064003C007DA8C7556C7E8A
:10284000532FA78F332F31C7CDCD6B92E9635F6CC8
:10285000641B9F83383E28A6CED06B96E9665F8FB7
:102860005726A18C383E28A6CED07E96DE5C6B7DA6
:10287000621B9F904F2C28A6CED07DA5C7556C7E9D
:10288000552FA78F332F31C7CDCD0202020202028E
:10289000020202020202020202020202020202001A
:1028A0000000000003030303030300000000000016
:1028B00000000000040404040403040404040404E9
:1028C00004040404040404040404000000000000E0
:1028D00000000000000000000000010101010100F3
:1028E00000000000010101000000000000000000E5
:1028F00000000000000000000000000000000000D8
:1029000000000000000000000000282828282828D7
:10291000282828281414141414143C3C3C3C3C3C37
:102920003C3C3C3C1E1E1E1E1E1E00000000000003
:102930000000000000000000000005000100010090
:1029400003006400DC0064003C007DA5C7556C7E7C
:10295000572FA78F332F31C7CDCD8B96E661788E59
:1029600065109A9C4F2C28B7BCD0649AE0616B8E9E
:1029700064139AA14F2C28B7BCD0799ADE5F5D7D95
:102980005E209C904F2C28A6CED07DA7C7556C7E8C
:10299000542FA78F332F31C7CDCD0202020202027E
:1029A0000202020202020202020200000000000211
:1029B00002020202040404040404000000000002F5
:1029C00002020202040404040404040404040404CF
:1029D00004040404040404040404000000000000CF
:1029E00000000000000000000000000000000001E6
:1029F00001010101000000010101000000000000D0
:102A000000000000000000000000000000000000C6
:102A1000000000000000000000001414141414143E
:102A2000141414141414141414141E1E1E1E1E1E2A
:102A30001E1E1E1E1E1E1E1E1E1E0000000000006A
:102A40000000000000000000000001000100010083
:102A50000A000A001400080240012C0108027DB39C
:102A6000C7586C7E4831A38D332F31C7CDCD7DB390
:102A7000C7586C7E4831A38D332F31C7CDCD7D5ED5
:102A8000CD596C7A9933A88C0A6769F1928F77DFF8
:102A9000F9726B7C1D028E8F0B3169E9CA8B7DB98F
:102AA000F9826C7C43017C912D4145C9BDAF7DB35A
:102AB000C7586C7E4831A38D332F31C7CDCD02026C
:102AC00002020202020202020202020202020202E6
:102AD00002020202020202020202020202020000DA
:102AE00000000000000000000000000000000000E6
:102AF00000000000000000000000000000000202D2
:102B000002020202020202020202020202020000A9
:102B100000000000000000000000000000000000B5
:102B200000000000000000000000000000000000A5
:102B30000000000000000000000000000000000095
:102B40000000000000000000000000000000000085
:102B5000000000000000000000000000000014144D
:102B600014141414141414141414141414141E1E11
:102B70001E1E1E1E1E1E1E1E1E1E1E1E1E1E0000B1
:102B80000000000000000000000000000000010044
:102B90000100010001001E001400DC00A4015E0120
:102BA00058027DB3C7586C7E4831A38D332F31C78F
:102BB000CDCD7DB3C7586C7E4831A38D332F31C73F
:102BC000CDCD7AB3C8576C7A4630A38D14832AEEE4
:102BD0006FC97A85C86E6780762F8D8D16C86CE8B0
:102BE0002F857459ED516884A010AD9201D277FE03
:102BF00027797DB3C7586C7E4831A38D332F31C7F9
:102C0000CDCD02020202020202020202020202020E
:102C100002020000000000000000000000000000B0
:102C200000000000000000000000000000000000A4
:102C30000000000000000000000000000000000094
:102C40000000020202020202020202020202020268
:102C50000202000000000000000000000000000070
:102C60000000000000000000000000000000000064
:102C70000000000000000000000000000000000054
:102C80000000000000000000000000000000000044
:102C90000000000000000000000000000000000034
:102CA000000014141414141414141414141414140C
:102CB00014141E1E1E1E1E1E1E1E1E1E1E1E1E1E48
:102CC0001E1E0000000000000000000000000000C8
:102CD00000000A0028000A002800F401E803D007D9
:102CE000E8037DB3C7586C7E4831A38D332F31C7BD
:102CF000CDCD7DB3C7586C7E4831A38D332F31C7FE
:102D0000CDCD7D93F76A6C7E6604918D332F31C7EC
:102D1000CDCD7D93F76A6C7E6604918D332F31C7DC
:102D2000CDCD7DB3C7586C7E4831A38D332F31C7CD
:102D3000CDCD0202020202020202020202020202DD
:102D40000202020202020202020202020202020263
:102D5000020200000000000000000000000000006F
:102D6000000004040404040404040404040404042B
:102D7000040400000000000000000000000000004B
:102D80000000010101010101010101010101010135
:102D90000101030303030303030303030303030307
:102DA000030300000000000000000000000000001D
:102DB00000001414141414141414141414141414FB
:102DC00014141E1E1E1E1E1E1E1E1E1E1E1E1E1E37
:102DD0001E1E0000000000000000000000000000B7
:102DE00000000A0028000A000A002800F401E80395
:102DF000F401F401E8037DB3C7586C7E4831A38D1C
:102E0000332F31C7CDCD7DB3C7586C7E4831A38DEC
:102E1000332F31C7CDCD7DB3C7586C7E4831A38DDC
:102E2000BB3A2EC7CDCD7DB3C7586C7E4831A38D3C
:102E3000BA672EC7CDCD7DB3C7586C7E4831A38D00
:102E4000BB3A2EC7CDCD7DB3C7586C7E4831A38D1C
:102E5000332F31C7CDCD020202020202020202026A
:102E60000202020202020202020202020202020242
:102E70000202020202020202020202020202020232
:102E80000202020202020202020202020202020222
:102E900002020202020204040404040404040404FE
:102EA000040404040404000000000000000000000A
:102EB0000000000000000000000000000000000012
:102EC0000000000000000000000000000000000002
:102ED00000000000000000000000000000000000F2
:102EE00000000000000000000000000000000000E2
:102EF000000000000000141414141414141414140A
:102F00001414141414141E1E1E1E1E1E1E1E1E1E1D
:102F10001E1E1E1E1E1E00000000000000000000FD
:102F200000000000000028000A0014001400010046
:102F300001000A000A001900140014001E00840396
:102F4000C800900190017800080290019001F401FE
:102F50009001900158027DB3C7586C7E4831A38D13
:102F6000332F31C7CDCD7DB3C7586C7E4831A38D8B
:102F7000332F31C7CDCD7DB0F7796C7E4702828D7E
:102F8000332F31C7CDCD81B4EC6A4B8B47028274AD
:102F900003324DEF9DA033B4EC6A5F8B470282741D
:102FA00001324AE89EA03398ED2D5F8B4702827470
:102FB000023231E898A03385952D5F8B47028274E9
:102FC000023233E88FA0338EEA305F8B470282747F
:102FD000023231E89AA07BC2D256528B47028274E9
:102FE000023231E895A084CADC695B903F047D8A97
:102FF000443431E8AAA07BAEF8766A814C04878F0E
:10300000343231DBC2D57B9BF8766A815F04878FCF
:10301000343231DBC2D57DB3C7586C7E4831A38DC5
:10302000332F31C7CDCD0404040404040404040484
:103030000404040404040404040404040404040450
:103040000404040404040404040404040404040440
:103050000404040404040404040404040404040430
:103060000404040404040000000000040404040434
:103070000404040404040000000000040404040424
:103080000404040404040000000000040404040414
:1030900004040404040404040403040404040404F1
:1030A00004040404040404040403040404040404E1
:1030B00004040404040404040403040404040404D1
:1030C00004040404040404040403040404040404C1
:1030D00004040404040404040404040404040404B0
:1030E00004040404040400000000000000000000C8
:1030F00000000000000002020202020000000000C6
:1031000000000000000000000000000000000000BF
:1031100000000000000002020202020000000000A5
:103120000000000000000303030303000000000090
:103130000000000000000303030303000000000080
:103140000000000000000202020202000000000075
:103150000000000000000202020202000000000065
:10316000000000000000000000000000000000005F
:10317000000000000000000000000000000000004F
:10318000000000000000000000000000000000003F
:10319000000000000000000000000000000000002F
:1031A000000000000000282828282828282828288F
:1031B0001414141414143C3C3C3C3C3C3C3C3C3C3F
:1031C0001E1E1E1E1E1E000000000000000000004B
:1031D000000000000000140014001400140014008B
:1031E00014001400010001000A0028000F000F0065
:1031F000050032003200320001002D002D000A00CF
:103200000A000A000A002D000A000A000A000A004B
:103210002D0050001E000F000F000F000F000F00C8
:103220000F000F000F0084038403840384038403CE
:103230008403840308020802F4014006580258027D
:103240003408FC03FC03FC03E40784038403F40157
:10325000F401F401F4018403F401F401F401F40134
:103260008403400640065802580258025802580289
:103270005802580258027DB3C7586C7E4831A38D5E
:10328000332F31C7CDCD7DB3C7586C7E4831A38D68
:10329000332F31C7CDCD7CB5F77C6C7E47047F8D55
:1032A000332F31C7CDCD7C77F77C6C7E83047F8D47
:1032B00087304C6CCDA77C4EF77C6C7EB9047F8D3B
:1032C0008730046CCDEF79DDFA686C7E9F429B8D70
:1032D000BE300436CDEF79DDFA686C7E9F5AC68D1C
:1032E000CE390835B6F479DDFA686C7E9F42B98D27
:1032F000BE30040F5E8D79DDFA686C7E9F42B98D19
:10330000BE3004AE7D8D79DDFA686C7E9F42B98D4A
:10331000BE3004B472E379DDFA686C7E9F6CCA8DAE
:10332000CD3004AB32CA369FFA686C7E1C0E9C8D81
:10333000CD3004AB32CA7E9FFA686C811C0E9C8D26
:10334000CD2B049728E67EC6C66D6C81373E9C8DDA
:10335000CD2B049728E658D9817E6CA71C717F8DF0
:10336000CD2B049728E635D9897E6CC41C717F8DDE
:10337000CD2B049728E616D98A7E6CEA1C717F8DC6
:10338000CD2B049728E658D9867E6CA71C717F8DBB
:10339000CD2B049728E658D9867E6CA71C717F8DAB
:1033A000CD2B049728E67CC2F76D6B81380493908F
:1033B000CD2B049728E67CCBD96D6B812F2393907E
:1033C000CD2B049728E67CB0B2616B811D149390DD
:1033D000CF2B048F28E67CBDCB616B811631939097
:1033E000CD2B049728E67CD8C9626B813C2A9F903C
:1033F000CD2B049728E67CE4D2686B81533AB390D6
:10340000CD2B049728E67CCBD96D6B812F2393902D
:10341000CD2B049728E67CB0B2616B811D1493908C
:10342000CF2B048F28E67CBDCB616B811631939046
:10343000CD2B049728E67CD8C9626B813C2A9F90EB
:10344000CD2B049728E67CE4D2686B81533AB39085
:10345000CD2B049728E67CCBD96D6B812F239390DD
:10346000CD2B049728E681BFF76D6B829A79839004
:10347000CD2B049728E6815E813A6E80A271C488C4
:10348000CD4E049779E6815E8A3B6E809978C48838
:10349000CD4E04C2848D815C81396E80A279C4884E
:1034A000CD4E0440848D815A84386E80A279C488C0
:1034B000D0242E34D0DE815EB7646E80A26EBA88CE
:1034C000A72D575ACAA78157C5476E80A239BA8F10
:1034D000822D5374CBA7817DC5476E80783BB88F12
:1034E0008F245974CBA77BA6DF5E6A7D5123A28D02
:1034F0008F245974CBA77DB3C7586C7E4831A38DF8
:10350000332F31C7CDCD040404040404040404049F
:10351000040404040404040404040404040404046B
:10352000040404040404040404040404040404045B
:10353000040404040404040404040404040404044B
:103540000404040404040404040404040404000043
:103550000404040404040404040404040404000033
:103560000404040404040404040404040404000023
:103570000404040404040404040404040404000013
:103580000101010101010404040404040404000015
:103590000101010101010404040404040404000005
:1035A000010101010101010101010101010100000D
:1035B00001010101010101010101010101010000FD
:1035C00001010101010104040404040404040000D5
:1035D00004040404040404040404040404040000B3
:1035E00001010101010100000000000000000000D5
:1035F00000000000000000000000000000000000CB
:1036000000000000000000000000000000000000BA
:1036100000000000000000000000000000000000AA
:103620000000000000000202020202020202020286
:10363000040404040404020202020202020202025E
:10364000040404040404020202020202020202024E
:10365000040404040404020202020202020202023E
:10366000040404040404020202020202020202022E
:10367000040404040404020202020202020202021E
:10368000040404040404020202020202020202020E
:1036900004040404040402020202020202020202FE
:1036A00004040404040402020202020202020202EE
:1036B00004040404040402020202020202020202DE
:1036C00004040404040402020202020202020202CE
:1036D00004040404040402020202020202020202BE
:1036E00004040404040402020202020202020202AE
:1036F000040404040404020202020202020202029E
:10370000040404040404020202020202020202028D
:10371000040404040404020202020202020202027D
:10372000040404040404020202020202020202026D
:10373000040404040404020202020202020202025D
:10374000040404040404020202020202020202024D
:10375000040404040404020202020202020202023D
:10376000040404040404020202020202020202022D
:10377000040404040404020202020202020202021D
:103780000404040404040000000000000000000021
:103790000000000000000000000000000000000029
:1037A0000000000000000000000000000000000019
:1037B0000000000000000000000000000000000009
:1037C00000000000000000000000000000000000F9
:1037D00000000000000000000000000000000000E9
:1037E00000000000000000000000000000000000D9
:1037F00000000000000000000000000000000000C9
:1038000000000000000000000000000000000000B8
:1038100000000000000000000000000000000000A8
:103820000000000000000000000000000000000098
:103830000000000000000000000000000000000088
:103840000000000000000000000000000000000078
:10385000000000000000010101010101010101015E
:103860000101010101010303030303030303030334
:10387000030303030303010101010101010101012C
:103880000101010101010000000000000000000032
:10389000000000000000030303030303030303030A
:1038A0000303030303030000000000000000000006
:1038B0000000000000000000020000000002000004
:1038C00000000000000000000000000000000000F8
:1038D00000000000000000030000030003000003DC
:1038E00000000000000002000000000200000000D4
:1038F00000000000000000000000000000000000C8
:1039000000000000000000000000000000000000B7
:1039100000000000000000000000000000000000A7
:103920000000000000000000000000000000000097
:103930000000000000000000000000000000000087
:103940000000000000000000000000000000000077
:103950000000000000000000000000000000000067
:103960000000000000000000000000000000000057
:103970000000000000000000000000000000000047
:103980000000000000000000000000000000000037
:103990000000000000000000000000000000000027
:1039A0000000000000000000000000000000000017
:1039B0000000000000000000000000000000000007
:1039C00000000000000000000000000000000000F7
:1039D00000000000000000000000000000000000E7
:1039E00000000000000000000000000000000000D7
:1039F00000000000000000000000000000000000C7
:103A00000000000000004255533D25640D0A0045AA
:103A10007272202D2064697620300D0A006576616F
:103A20006C20737461636B20706F70206572726FAD
:103A3000722025642C202564205B25642C25645D80
:103A40000D0A006576616C20737461636B2065728A
:103A5000726F722025642C2025640D0A0065766142
:103A60006C20737461636B206572722025642C2551
:103A7000640A004576616C203D25730A0065766115
:103A80006C20737461636B206572726F720A0065DB
:103A900076616C20737461636B206572726F720A59
:103AA000002564202D2025640A00737461636B2057
:103AB00025640A002564202D205B25635D0A004FE4
:103AC00070732025640A0070616E696320657272EC
:103AD0006F720D0A000A00202564002563205B2513
:103AE00033645D0011241FBECFEFD0E1DEBFCDBF38
:103AF00019E0A0E0B1E0E2ECFBEF00E00BBF02C098
:103B000007900D92AA37B107D9F711E1AAE7B9E0FA
:103B100001C01D92A731B107E1F70E9423210C9447
:103B2000DF7D0C9400008091020B9091030B883C88
:103B3000910510F4DA9814C08091020B9091030B58
:103B4000893C910560F08091020B9091030B21E07C
:103B50008039920720F4DA9ADB9ADC980895DA9A91
:103B6000DB9ADC9A08959093FF0A8093FE0A809175
:103B7000FE0A9091FF0A0097D1F708951F920F92C5
:103B80000FB60F920BB60F9211242F933F934F93C2
:103B90005F936F937F938F939F93AF93BF93EF93B5
:103BA000FF9389E182BF8091100B9091110B0196D8
:103BB0009093110B8093100B8091FE0A9091FF0A55
:103BC000009749F08091FE0A9091FF0A0197909327
:103BD000FF0A8093FE0A0E94931D80910B0A88239E
:103BE00089F08091020B9091030B6091060170E0C7
:103BF0000E94A37B009731F48FE08093AA0B8CED99
:103C00000E942E288091020B9091030B01969093B5
:103C1000030B8093020B8091020B9091030B23E026
:103C2000883E920708F443C01092030B1092020BD7
:103C30008091000B9091010B009749F08091000B4F
:103C40009091010B01979093010B8093000B809151
:103C5000FD0A8F5F8093FD0A8091FD0A8C3338F155
:103C60001092FD0A80910A0B90910B0B009749F07E
:103C700080910A0B90910B0B019790930B0B809303
:103C80000A0B8091F10A8F5F8093F10A8091F10A0B
:103C90008C3368F01092F10A8091F50A8F5F80935F
:103CA000F50A8091F50A883110F01092F50AFF911B
:103CB000EF91BF91AF919F918F917F916F915F91A4
:103CC0004F913F912F910F900BBE0F900FBE0F9011
:103CD0001F9018951F920F920FB60F9211240F90FC
:103CE0000FBE0F901F9018958091EE0A882321F146
:103CF0008091260B9091270B25E28C31920728F0BA
:103D000010920D0B10920C0B09C080910C0B90912E
:103D10000D0B019690930D0B80930C0B80910C0B67
:103D200090910D0B8730910578F11092EE0A109268
:103D30000D0B10920C0B08958091260B9091270B80
:103D400025E28C31920770F010920D0B10920C0B43
:103D50008091F80A9091F90A01969093F90A80935C
:103D6000F80A04C01092F90A1092F80A8091F80A31
:103D70009091F90A8330910538F081E08093EE0A42
:103D80001092F90A1092F80A08950F931F93CF9397
:103D9000DF9321E02093F20A85E090E090930B0BF3
:103DA00080930A0B8091260B9091270B00D000D0B6
:103DB0000F92EDB7FEB73196ADB7BEB711962C9303
:103DC0002AE132E032832183948383830E94722428
:103DD0000F900F900F900F900F9005E011E0C4EF3F
:103DE000D1E063C00E94BB2197FF66C00E94C52935
:103DF00097FF62C08091FD0A602F0E94977B9923F4
:103E000059F53091F10A2091FD0A8091260B90918D
:103E1000270B4DB75EB7495050400FB6F8945EBFC0
:103E20000FBE4DBFEDB7FEB73196ADB7BEB7119619
:103E30001C93D283C1833383148225831682908797
:103E400087830E9472244DB75EB7475F5F4F0FB6FE
:103E5000F8945EBF0FBE4DBFAF9A809165008B7F17
:103E6000809365000E94F9280E94741E8091EE0ADA
:103E7000882311F1C49A88E290E00E94B31DC4988F
:103E80008CEC91E00E94B31D80916500846080936A
:103E900065000E94F9280E94741E8091EE0A882312
:103EA00059F084EF91E00E94B31D80910A0B90912C
:103EB0000B0B009709F096CF85E590E090930B0BE4
:103EC00080930A0B05E011E0C5EDD1E063C00E94CC
:103ED000BB2197FF66C00E94C52997FF62C0AF9AB9
:103EE0008091FB0A9091FC0A51E0853F950720F0F4
:103EF000809165008B7F03C0809165008460809312
:103F000065008091FB0A9091FC0A009741F0809136
:103F1000FB0A9091FC0AA1E0843F9A07B1F50E9448
:103F2000F9280E94741E8091FD0A602F0E94977BE1
:103F3000992359F53091F10A2091FD0A8091260BC1
:103F40009091270B4DB75EB7495050400FB6F8948B
:103F50005EBF0FBE4DBFEDB7FEB73196ADB7BEB772
:103F600011961C93D283C1833383148225831682D6
:103F7000908787830E9472244DB75EB7475F5F4F7B
:103F80000FB6F8945EBF0FBE4DBF8091EE0A882336
:103F900041F0C49A80910A0B90910B0B009709F0A5
:103FA00096CFC4981092F20A8091260B9091270B1D
:103FB00000D000D00F92EDB7FEB7319621E0ADB73B
:103FC000BEB711962C9329EC31E032832183948380
:103FD00083830E9472240F900F900F900F900F9088
:103FE000DF91CF911F910F91089589B38370813034
:103FF00049F48AE090E00E94B31DC89B03C081E0B1
:104000008093FA0A89B38370823059F48AE090E091
:104010000E94B31D89B38370823019F483E08093CA
:10402000FA0A0895FF920F931F93CF93DF9300D066
:104030000F9281E0ADB7BEB711968C9311978AEBC2
:1040400091E013969C938E9312970E9472240F9086
:104050000F900F90CAE0D0E0FF24F39402EB11E040
:10406000AF9882E390E00E94B31D0E94F9280E945D
:10407000741E8091260B9091270B00D000D00F92D8
:10408000EDB7FEB73196ADB7BEB71196FC9212836D
:104090000183948383830E947224AF9A0F900F90C0
:1040A0000F900F900F9082E390E00E94B31D219734
:1040B000B9F68091EE0A882311F100D00F92EDB786
:1040C000FEB7F1828AE991E0938382830E94722491
:1040D0000F900F900F900E94045A0E94C51E00D0AE
:1040E0000F92ADB7BEB71196FC9211978FE891E091
:1040F00013969C938E9312970E9472240CC000D04A
:104100000F92EDB7FEB7F1828EE791E09383828341
:104110000E947224AF980F900F900F90DF91CF9173
:104120001F910F91FF9008958091FA0A813011F448
:104130000E941220089593E09BBB8CEF8ABB18BAB3
:1041400084E787BB15BA80E884BB23E822BB81BB28
:1041500020E323B928E022B9109262001092610096
:104160001092650024E02093640010BE23BF12BEAD
:1041700011BE1FBC25E02EBD1DBC1CBC17BC16BC4F
:104180001BBC1ABC19BC18BC1092790010927800A4
:1041900025BD14BC13BC10928B0090938A00109222
:1041A0008900109288001092810010928000109275
:1041B0008700109286001092850010928400109261
:1041C00083001092820010926A0090E29ABF20E46D
:1041D00029BF17BE10927D001BB848E14AB936E0EE
:1041E000309395001092900027E029B910929B001F
:1041F00040939A0030939D0010929800209399006C
:1042000088B910BC97B916B8109274000895DA9A5C
:10421000DB9ADC9AE5E6F0E0808184608083AF9AE7
:10422000DD9ADE9ADF9AC5981092B70B1092B90BFF
:104230001092030B1092020B1092FD0A1092F10AD9
:104240001092F50A08950E949B200E9407210E9467
:10425000782160E072EC81E090E00E945B2188E9C7
:1042600091E20E940C23789487B7816087BF809188
:1042700065008B7F809365000E94E02A0E94F51FF5
:104280000E9494200E94E452FFCF83E19BE06CE700
:1042900079E040E450E00E9470228CE19BE06CEBFE
:1042A00079E040E450E00E947022089590937B09E9
:1042B00080937A0908959B01AC016B54704E834E34
:1042C0009F4FF3E0660F771F881F991FFA95D1F76C
:1042D000E4E0220F331F441F551FEA95D1F70E94D7
:1042E000CA7B215030402093990030939800089564
:1042F0000E94452110927B0910927A0988ED8093E3
:104300009A0060E875E280E090E00E945B218FEF08
:104310008093120B10921B0B1092250B1092240B02
:104320007894089583E19BE008958CE19BE00895E3
:104330009091120B9923E1F380939C001092120B41
:104340000895CF93DF93EC018091150B9091160B9C
:10435000009769F08091170B9091180B009739F036
:1043600083E19BE00E947D2288838FEF01C080E083
:10437000DF91CF910895DF93CF930F92CDB7DEB742
:10438000CE0101960E94A121882319F0298130E0F5
:1043900002C02FEF3FEFC9010F90CF91DF91089539
:1043A0001092180B1092170B08958091170B909193
:1043B000180B009711F48FEF089580E00895682F8F
:1043C0008CE19BE00E94D52208958FEF80931B0B18
:1043D0008CE19BE00E947D220E94982108951F920B
:1043E0000F920FB60F920BB60F9211242F933F939B
:1043F0004F935F936F937F938F939F93AF93BF93ED
:10440000EF93FF9380911B0B882379F08091200B11
:104410009091210B009739F08CE19BE00E947D2266
:1044200080939C0005C010921B0B8FEF8093120BA2
:10443000FF91EF91BF91AF919F918F917F916F917C
:104440005F914F913F912F910F900BBE0F900FBE38
:104450000F901F9018951F920F920FB60F920BB6E8
:104460000F9211242F933F934F935F936F937F93FA
:104470008F939F93AF93BF93EF93FF9360919C00B3
:1044800020917A0930917B092115310539F0E091AD
:104490007A09F0917B09862F09950FC083E19BE093
:1044A0000E94D522882349F48091240B9091250BFA
:1044B00001969093250B8093240BFF91EF91BF9170
:1044C000AF919F918F917F916F915F914F913F91AC
:1044D0002F910F900BBE0F900FBE0F901F9018954D
:1044E000FC018FB7F89471836083538342831782F2
:1044F0001682158214828FBF0895FC019FB7F8942D
:104500004481558141155105C9F026813781A0812B
:10451000B181A20FB31F8C912F5F3F4F378326834A
:10452000628173812617370720F0261B370B3783EC
:104530002683415050405583448301C080E09FBF93
:104540000895FC01AFB7F894248135816217730791
:10455000A0F486819781860F971F97838683428177
:1045600053818417950720F0841B950B97838683CE
:10457000261B370B3583248302C015821482AFBFFC
:104580000895FC01CB012FB7F89446815781840F21
:10459000951F628173810E94A37B0190F081E02DC1
:1045A000E80FF91F80812FBF08951F93FC01162F7C
:1045B0004FB7F894A481B58122813381A217B30744
:1045C000A0F4868197818A0F9B1FB9010E94A37B6B
:1045D000A081B181A80FB91F1C9384819581019698
:1045E000958384834FBF8FEF02C04FBF80E01F9140
:1045F0000895FC014FB7F89422813381848195811D
:10460000281B390B4FBFC90108952FB7F894FC013F
:10461000158214822FBF08959093090A8093080A87
:1046200008951F93182F8A3031F4E091080AF09111
:10463000090A8DE00995E091080AF091090A812F95
:1046400009951F910895CF93DF93009739F0EC01FE
:1046500002C00E94112389918823D9F7DF91CF915D
:104660000895EF92FF920F931F93CF93DF937A01F8
:104670000097E9F0FC0180E090E0EF0186179707D2
:1046800018F000E010E010C02191EF010196222304
:10469000A1F7F7CF8881882311F0219601C080E22D
:1046A0000E9411230F5F1F4F0E151F0598F3DF9116
:1046B000CF911F910F91FF90EF900895CF93DF93CB
:1046C000EC01009719F407C00E941123FE01219606
:1046D00084918823C9F7DF91CF9108958AE00E94E1
:1046E00011230895E82FF0E0EF70F070E65DFD4FC4
:1046F00084910E94112308951F93182F82958F7023
:104700000E947223812F0E9472231F9108951F938C
:10471000182F892F0E947C23812F0E947C231F91B8
:104720000895EF92FF920F931F937B018C01C801B4
:104730000E948723C7010E9487231F910F91FF903A
:10474000EF9008952F923F924F925F927F928F92B7
:104750009F92AF92BF92CF92DF92EF92FF920F9310
:104760001F93DF93CF93CDB7DEB7A2970FB6F89420
:10477000DEBF0FBECDBF282E862E942E722E57017F
:104780006801442351F017FF08C066277727CB0143
:104790006E197F09800B910B02C0C601B50118A2EA
:1047A000332444245524A20191010E94CA7B6F70D6
:1047B0007070665D7D4FFB0164916F8FB901CA0116
:1047C0008E01025E1F4F382D315021E0992009F4EF
:1047D00020E0321BA801431B51095AA349A318C06A
:1047E000611571058105910579F0A20191010E9481
:1047F000CA7B6F707070665D7D4FFB016491F8013C
:104800006083B901CA0102C0F801708201501040F2
:1048100078010894E11CF11C29A13AA102171307A1
:10482000F9F69920C1F0D7FE03C078018DE20AC0E5
:10483000A114B104C104D10419F078018BE202C0C3
:10484000780180E2F701808306C0F70181917F0142
:104850000E9411238A948820C1F7A2960FB6F8947B
:10486000DEBF0FBECDBFCF91DF911F910F91FF90A3
:10487000EF90DF90CF90BF90AF909F908F907F9000
:104880005F904F903F902F90089580538A3010F49E
:104890008FEF089580E00895E62FF72F20E030E0B5
:1048A0000AC0649101C0608170E0605370409A0159
:1048B000260F371F3196882311F0949101C0908103
:1048C00090539A3068F4A901440F551F93E0220FCA
:1048D000331F9A95E1F7420F531F882311F7E3CF57
:1048E000C90108952F923F924F925F926F927F92EB
:1048F0008F929F92AF92BF92CF92DF92EF92FF92F0
:104900000F931F93DF93CF9300D0CDB7DEB77F888F
:104910006AE1E62EF12CEC0EFD1E988D898D092F93
:10492000182F50E3652E67016BC2D8018C91853238
:1049300009F062C20F5F1F4F772019F0F8018491D0
:1049400002C0D8018C918D3231F40F5F1F4F41E0CE
:10495000242E312C02C022243324772029F0F801A0
:104960008491803331F40CC0D8018C91803331F4C0
:1049700007C08E3229F030E2432E08C08E3259F43F
:104980000F5F1F4F772051F020E3422EF8018491F2
:104990008A32B9F409C090E2492E02C080E3482E61
:1049A000D8018C918A3279F4F6010190F081E02DE2
:1049B000FA83E9830F5F1F4F22E030E0C20ED31E5F
:1049C0001CC0772011F4D8018C9180538A3088F470
:1049D000872DB8010E944C249A838983F80177209F
:1049E00011F0849101C0808180538A3028F431967F
:1049F000F6CF1A82198201C08F01772019F0F801D1
:104A0000849102C0D8018C918E3261F50F5F1F4FE7
:104A1000772029F0F80184918A3289F404C0D80102
:104A20008C918A3251F4F601808091800F5F1F4F84
:104A300022E030E0C20ED31E1BC0D8018C918053FF
:104A40008A3080F4872DB8010E944C244C01F80173
:104A5000772011F0849101C0808180538A3038F42E
:104A60003196F6CFBEEF8B2EBFE79B2E01C08F0194
:104A7000772019F0F801849102C0D8018C9183321B
:104A800029F40F5F1F4FA1E0B0E002C0A0E0B0E04A
:104A9000772019F0F801849102C0F80180818C36EA
:104AA00029F40F5F1F4F81E090E002C080E090E0AA
:104AB000772019F0F801249102C0F801208130E03C
:104AC0002F36310509F493C02037310564F42336BD
:104AD000310509F43DC12436310591F02532310507
:104AE00009F08CC188C12537310509F480C0283709
:104AF000310509F47CC02337310509F07FC133C18A
:104B0000009749F0D6016D917D918D919C911397FD
:104B1000E4E0F0E00AC0D6016D917C9111978827FE
:104B200077FD8095982FE2E0F0E0CE0EDF1E97FF34
:104B30000BC090958095709561957F4F8F4F9F4FDB
:104B4000A1E08A2E912C02C088249924FCEFAF2E7C
:104B5000F9E0BF2E2AE030E040E050E00E94EC7B1C
:104B6000605DF50161935F01B901CA011616170670
:104B7000180619067CF37F018114910421F0DF01EE
:104B8000EDE2ED937D01A980BA802CEF39E0A20E11
:104B9000B31EAE18BF082114310491F403C0842D54
:104BA0000E9411230894A108B10895012F5F3F4F7F
:104BB00012161306A4F304C0D7018C910E9411238E
:104BC0000894E108F108BCEFEB16B9E0FB06A0F78A
:104BD0002114310409F412C106C080E20E9411239D
:104BE0000894A108B1081A141B04BCF307C100976C
:104BF00041F0F601608171818281938144E050E04F
:104C000007C0F6016081718180E090E042E050E0F1
:104C1000C40ED51E25373105B9F4ECEFAE2EE9E010
:104C2000BE2E2AE030E040E050E00E94CA7B605D8A
:104C3000D5016D935D017D01B901CA016115710551
:104C40008105910571F750C02F363105D1F42CEF55
:104C500039E0462F4770405DF90141939F0153E0D1
:104C600096958795779567955A95D1F76115710552
:104C70008105910571F77F011097B1F161927F0174
:104C800033C02837310561F52DEF39E0F90131974F
:104C9000AB014F7050704A30510514F4405D01C0B3
:104CA000495A4083790144E09695879577956795B1
:104CB0004A95D1F72F5F3F4F3196611571058105F8
:104CC000910531F7109781F0F70128E72193D7017B
:104CD00011966C9211977F010894E11CF11C04C09D
:104CE000FCEFEF2EF9E0FF2EA980BA80ECEFF9E09F
:104CF000AE0EBF1EAE18BF082114310491F403C0DC
:104D0000842D0E9411230894A108B10895012F5FFA
:104D10003F4F12161306A4F304C0D7018C910E94D2
:104D200011230894E108F108BCEFEB16B9E0FB068B
:104D3000A0F72114310409F461C006C080E20E948A
:104D400011230894A108B1081A141B04BCF356C01F
:104D5000E2E0EE2EF12CEC0CFD1CF60180810E94AD
:104D6000112367014BC0F60122E030E0C20ED31ED2
:104D7000E080F180E114F10421F470E0E72E71E0AD
:104D8000F72EF70101900020E9F73197EE19FF099E
:104D9000A980BA80AE1ABF0A2114310469F403C095
:104DA000842D0E9411230894A108B10895012F5F5A
:104DB0003F4F12161306A4F32701EE24FF2405C06B
:104DC0000E9411230894E11CF11CD2018D912D0148
:104DD000882319F0E814F9049CF32114310471F0CC
:104DE00006C080E20E9411230894A108B1081A1499
:104DF0001B04BCF303C085E20E9411230F5F1F4F09
:104E0000772031F0F8018491882309F090CD05C016
:104E1000D8018C91882309F088CD80E090E00F9034
:104E20000F90CF91DF911F910F91FF90EF90DF9046
:104E3000CF90BF90AF909F908F907F906F905F903A
:104E40004F903F902F900895FB01DD9ADE9ADF9AF4
:104E500020916500246020936500AF9A2081318104
:104E6000281739070CF4DF98228133812817390776
:104E70000CF4DD9824813581281739070CF4DE986D
:104E800026813781281739072CF4209165002B7F64
:104E90002093650020853185281739070CF4AF98D9
:104EA0000895DF93CF93CDB7DEB72A970FB6F89466
:104EB000DEBF0FBECDBFDE011196E8E0F1E02AE0D3
:104EC00001900D922150E1F7BE016F5F7F4F0E946C
:104ED00024272A960FB6F894DEBF0FBECDBFCF9120
:104EE000DF910895009779F01092AE0B1092AD0B00
:104EF00087B7816087BF89B7806489BFDD9881E00B
:104F000080930B0A089587B78E7F87BF89B78F7B01
:104F100089BF80E090E00E94512710920B0A08950B
:104F20001F920F920FB60F920BB60F9211242F9370
:104F30003F934F935F936F937F938F939F93AF9321
:104F4000BF93EF93FF9385B18093A90B9091AA0B28
:104F5000913049F0913020F09F3009F06AC00CC0C8
:104F60008093A80B66C099E3899FC0011124909398
:104F7000270B8093260B5DC0863E18F48093AB0B05
:104F800002C01092AB0B8091AB0B90E00E945127B6
:104F90008091AD0B9091AE0B0097F1F420910C0A2B
:104FA0002223D1F03091AB0B20910C0A2317A0F0F3
:104FB00080910D0A90910E0A019790930E0A8093AA
:104FC0000D0A80910D0A90910E0A009791F51092AA
:104FD0000F0A10920B0A2DC020910C0AFC01E85D0B
:104FE000F44F222319F02091AB0B08C0408120918F
:104FF000AB0B30E0240F311D359527952083209190
:10500000070130E0215030408217930741F420918E
:105010000F0A213021F410920F0A10920B0A6091AE
:105020000701019670E00E94B77B9093AE0B8093CE
:10503000AD0B10920A0AFF91EF91BF91AF919F9132
:105040008F917F916F915F914F913F912F910F9031
:105050000BBE0F900FBE0F901F9018959091AA0B4A
:10506000906297B986B90895C5990AC0C59A89EF23
:105070009FE3A2E081509040A040E1F700C0000013
:10508000089588B30895EF92FF920F931F93809134
:10509000B90B8823E1F789B78F7B89BF0E94342839
:1050A0001092AA0B81E080930A0A8CED0E942E28B0
:1050B00080910A0A8823E1F76091A80BC59889B707
:1050C000806489BF70E0882777FD8095982F0E94C3
:1050D000DC7820E030E0A9010E94467621EE3AE734
:1050E0004CED50E40E9473769B01AC0166E676EAD3
:1050F0008BE894E40E949E777B018C017F2D912F99
:1051000020E030E0A9010E94AC7887FD1EC06E2D22
:105110007F2D802F912F20E030E040E251E40E946B
:10512000AC7887FD0DC06E2D7F2D802F912F20E054
:1051300030E048E452E40E944C78181634F009C07C
:10514000EE24FF2400E211E404C0EE24FF2408E46E
:1051500012E46E2D7F2D802F912F0E94D0746093CA
:10516000AF0B1F910F91FF90EF900895DF92EF9298
:10517000FF920F931F93CF93DF938FE08093AA0B3F
:10518000C2E3D0E0DD24EE24FF2400E011E0109320
:105190000A0A8CED0E942E2880910A0A8823E1F7E2
:1051A0006091AB0B70E0882777FD8095982F0E9467
:1051B000DC789B01AC016D2D7E2D8F2D902F0E94F0
:1051C0004676D62EE72EF82E092F219701F720E0FC
:1051D00030E040E251E40E949E770E94D0746093D8
:1051E000AC0BDF91CF911F910F91FF90EF90DF906B
:1051F00008951F9310910B0A10920B0A81E080937F
:10520000AA0B8CED0E942E283699FECF10930B0A24
:105210001F9108951F920F920FB60F920BB60F9227
:1052200011248F93EF93FF9387B78F7B87BF1092E3
:10523000B90BE5E6F0E0808184608083AF9ADD9A67
:10524000DE98FF91EF918F910F900BBE0F900FBEE4
:105250000F901F9018951F920F920FB60F920BB6DA
:105260000F9211248F939F93EF93FF938091B90B2B
:105270008130B1F0813020F0823009F07BC036C03F
:1052800014BC81E08093B90B86B7806486BF87B772
:10529000806487BF809165008B7F809365006AC0C2
:1052A00084B58093B60B14BC8A53893118F01092E0
:1052B000B90B15C01092B10B1092B80B82E080931D
:1052C000B90B86B7806486BF87B7806487BF1092AA
:1052D000BB0B1092BC0B1092BD0B1092BE0B8091B9
:1052E0006500846080936500AF9844C0DD9880912C
:1052F0006500846080936500AF9A84B58093B60B97
:1053000014BC982F9D509E3060F5E091B80B84310D
:1053100038F0F0E0E554F44F80818695806805C050
:10532000F0E0E554F44F8081869580838091B10B45
:105330008F5F8093B10B8830B9F41092B10B8091DC
:10534000B80B8F5F8093B80B843071F48091BB0BE6
:105350008093B00B8091BE0B8093BA0B8FEF80933C
:10536000B70B1092B90B06C086B7806486BF87B7AB
:10537000806487BFFF91EF919F918F910F900BBE3B
:105380000F900FBE0F901F9018958091B70B882338
:1053900031F01092B70B2091BA0B30E002C02FEF22
:1053A0003FEFC9010895282F30E087FF02C0205049
:1053B0003140C9010895159A149A1D9A1C9A00004B
:1053C00000001D98000000001C98000000000895D7
:1053D000159A149A1D981C9A000000001D9A00004E
:1053E0000000159814980895159A98E087FF02C058
:1053F0001D9A01C01D98000000001C9A00000000CA
:10540000000000001C9800000000915011F0880F6F
:10541000EDCF0895159898E080E0880F0000000017
:10542000000000001C9A000000000D99816000003F
:1054300000001C98915089F7159A0895159800005E
:1054400000001D9A000000001C9A000000001C983B
:1054500000000000159A000000000895159A000051
:1054600000001D98000000001C9A000000001C981D
:10547000000000001D9A000000000895159A000029
:1054800000001D9A000000001C9A000000001C98FB
:10549000000000000895CF92DF92EF92FF920F93E9
:1054A0001F93DF93CF9300D00F92CDB7DEB76B0180
:1054B0004A835B8389830E94DB2989810E94F429C6
:1054C0000E941E2A4A815B81E42EF52E00E010E046
:1054D00009C0F70181917F010E94F4290E941E2AD0
:1054E0000F5F1F4F0C151D05A4F30E94E82981E0F2
:1054F00090E00F900F900F90CF91DF911F910F913F
:10550000FF90EF90DF90CF9008958F929F92AF928F
:10551000BF92CF92DF92EF92FF920F931F93DF9390
:10552000CF9300D00F92CDB7DEB75B0169014A83FC
:105530005B8389830E94DB2989810E94F4290E9470
:105540001E2A4A815B81E42EF52E882499240AC004
:10555000F70181917F010E94F4290E941E2A08947C
:10556000811C911C8A149B049CF3AA24BB24760101
:105570000894E108F1080DC00E940A2AF8018193FD
:105580008F01AE14BF0414F40E942E2A0894A11CAB
:10559000B11CAC14BD0484F30E943E2A0E94E82989
:1055A0000F900F900F90CF91DF911F910F91FF906F
:1055B000EF90DF90CF90BF90AF909F908F90089525
:1055C0000E94DB2980E70E94F4290E941E2A84E1C0
:1055D0000E94F4290E941E2A83E00E94F4290E945E
:1055E0001E2A0E94E82908951F930E94DB2980E764
:1055F0000E94F4290E941E2A82E00E94F4290E943F
:105600001E2A0E94E82900000000000000000E94FD
:10561000DB2981E70E94F4290E941E2A0E940A2A9F
:105620000E942E2A0E940A2A182F0E942E2A812FB9
:1056300090E017FF02C0805091409093C00B809380
:10564000BF0B0E940A2A0E942E2A0E940A2A182FA3
:105650000E942E2A812F90E017FF02C080509140B7
:105660009093C20B8093C10B0E940A2A0E942E2A9B
:105670000E940A2A182F0E943E2A812F90E017FFCD
:1056800002C0805091409093C40B8093C30B0E9442
:10569000E8291F9108956F927F928F929F92AF9207
:1056A000BF92CF92DF92EF92FF920F931F93DF93FF
:1056B000CF93CDB7DEB764970FB6F894DEBF0FBEB9
:1056C000CDBF82E191E00E94232384E1898383E0BE
:1056D0008A8380E790E062E070E08E010F5F1F4FE9
:1056E000A8010E944B2A34E1E32EF12C22E0622E25
:1056F000D02EC12E9BE0A92EB12CAC0EBD1E77245E
:1057000073948BE3882E82E0982E698280E790E084
:1057100061E070E04D2D5C2D0E944B2A81E790E006
:1057200060E070E04D2D5C2D26E030E085010E94A8
:10573000852A8C85482F50E087FF02C04050514099
:105740008E85282F30E087FF02C0205031406889C5
:10575000862F90E067FF02C0805091406DB77EB702
:10576000695070400FB6F8947EBF0FBE6DBFEDB7A5
:10577000FEB73196ADB7BEB711967C929282818208
:105780005483438336832583908787830E947224C2
:105790006DB77EB7675F7F4F0FB6F8947EBF0FBEC1
:1057A0006DBF8AEF90E00E94B31D0894E108F108F4
:1057B000E114F10409F0A9CF64960FB6F894DEBFA6
:1057C0000FBECDBFCF91DF911F910F91FF90EF9052
:1057D000DF90CF90BF90AF909F908F907F906F9011
:1057E00008950E94DC780E942D7D0E943C79CB01B7
:1057F0000895DD9A0E94BB219C0197FF06C00E947C
:10580000C5299C0118161906ACF7DD98C901089541
:10581000CF93DF93EC0183319105E0F400D000D009
:105820000F92EDB7FEB7319681E0ADB7BEB71196D6
:105830008C938DEE96E092838183D483C3830E9400
:1058400072240F900F900F900F900F908C2F0E944A
:105850006A5E18C000D000D00F92EDB7FEB7319647
:1058600081E0ADB7BEB711968C9385ED96E092833B
:105870008183D483C3830E9472240F900F900F9072
:105880000F900F90DF91CF910895FC01A081B1811D
:105890008C9109C0A081B181CD0101969183808353
:1058A00011968C9111978032A9F3882331F02081D1
:1058B00031812F5F3F4F3183208308950E94452C13
:1058C000982F91549A3128F4282F30E021543040F9
:1058D00002C02FEF3FEFC9010895CF93DF93EC0192
:1058E0000E94452C20E030E011C0A901440F551F53
:1058F00093E0220F331F9A95E1F7240F351F280FED
:10590000311D205330408191F983E883982F9053C3
:10591000E881F9819A3048F33197F983E883C90126
:10592000DF91CF910895FB01282F392FD90120E075
:1059300030E00AC0982F91549A3118F09F5E9A3047
:1059400030F481932F5F3F4F8D91882399F7108218
:10595000C90108956F927F928F929F92AF92BF92EA
:10596000CF92DF92EF92FF920F931F93DF93CF932B
:10597000CDB7DEB728970FB6F894DEBF0FBECDBF08
:10598000C82E092F7B014A01FB01808191815E01B4
:105990000894A11CB11CB5010E94932C3C01D02E8F
:1059A00000E010E0C501BA2CA92E0CC0F6016191EF
:1059B00071916F018B2D9A2D0E94B27C009741F05E
:1059C0000F5F1F4F081519058CF30815190541F0D5
:1059D000F70180819181860D971D9183808302C09C
:1059E0000FEF1FEFC80128960FB6F894DEBF0FBE69
:1059F000CDBFCF91DF911F910F91FF90EF90DF907E
:105A0000CF90BF90AF909F908F907F906F900895B0
:105A10004F925F926F927F928F929F92AF92BF92BE
:105A2000CF92DF92EF92FF920F931F93DF93CF936A
:105A300000D0CDB7DEB77C018BE191E00E9423233B
:105A4000870120E030E0A1E0CA2ED12CAA24BB249B
:105A5000F4E68F2E912CEAE06E2E712C03C020E02C
:105A600030E0520129833A830E94BB212C01298115
:105A70003A8197FDF7CF2130310561F50E9411235E
:105A800024E64216510444F0C201B4010E94B77BDF
:105A9000605DD8016D938D01C201B4010E94B77B96
:105AA000E82F492F482E592EBAE04B16510444F0E6
:105AB000C201B3010E94B77B605DD8016D938D0177
:105AC0008E2F942FB3010E94B77B805DF8018193E4
:105AD0008F01C5CF8036910531F480E60E941123F5
