:100000000C947E1B0C949D1B0C949D1B0C949D1BAF
:100010000C949D1B0C949D1B0C949D1B0C94EB2429
:100020000C949D1B0C949D1B0C94DA240C949D1B2A
:100030000C949D1B0C949D1B0C94C91B0C949D1B34
:100040000C94681E0C949D1B0C949D1B0C949D1B82
:100050000C949D1B0C9452230C949D1B0C949D1B83
:100060000C949D1B0C949D1B0C949D1B0C949D1B30
:100070000C949D1B0C949D1B0C94541F0C949D1B65
:100080000C949E1F0C949D1B0C949D1BD52EB52F7C
:10009000BE2FC52FD12FD82FE22FE92FF92F853072
:1000A000E72EE4307130DF2F0D30FC2FF02F92302F
:1000B0006230CC2FDF2FEC2E672F442F8A2F203079
:1000C0003A304E30EC2E872FA136CC35F4375A3EDD
:1000D0005A3E1637263747368436DA3B7D398E3915
:1000E000A639F935C0361738E13B003C5E36053796
:1000F000593B123AAE398E39C5380739473AB63BC3
:100100009B3B603B193CD03C313C804080401D42D1
:100110009B429B425642E1418040FD40A142ED415D
:10012000A34256425D429A41A3425642A142DC405C
:10013000A3425642A342A342A342A342A3429A41EE
:10014000A342A342A342A342A342A3424E6F742000
:10015000706C756767656420696E0D0A00436F6D8A
:10016000706C6574650D0A00506C75676765642076
:10017000696E202D206368617267696E670D0A00E1
:100180002564206D5600636861726765206D6F6439
:1001900065202D2074657374696E670D0A00446FC5
:1001A0006E650D0A0025643A25642066756C6C2026
:1001B00063686172676520706F7765720D0A00254C
:1001C000643A25642073686F72742034306D732034
:1001D0006368617267652070756C7365730D0A00E2
:1001E000303132333435363738394142434445466D
:1001F0000025642C2025642C2025640A0025642019
:100200006C696E65732073746F7265640D0A0025E6
:100210006420736572766F7320636F6E6E656374AE
:1002200065640D0A002564206C696E6573206C6F2F
:10023000616465640D0A00456C61707365642054E7
:10024000696D652025646D730D0A002564206C6955
:100250006E657320696E206D656D6F72790D0A0091
:10026000256420736572766F7320636F6E6E6563AD
:100270007465640D0A000D0A0025640025630023DF
:10028000200025633D0025643D00504F52543A251F
:10029000633A2563002563203D200020002564206B
:1002A000002578200025782000257820002578205A
:1002B00000256429203D2028256420256429202547
:1002C000640D0A004646542028256429203D202537
:1002D000640D0A002C2564002564002C256400258B
:1002E00064002564005573657220427265616B205D
:1002F0006F6E206C696E652025640D0A00545241B2
:100300004345203A3A202564202D200052756E7412
:10031000696D65206572726F72202564206F6E2092
:100320006C696E652025640D0A006576616C206538
:1003300072726F722025642C2025640D0A00706192
:100340006E6963206572726F720D0A00456C617090
:100350007365642054696D652025646D730D0A0012
:100360000D0A2564206C696E657320656E74657274
:1003700065642C205B25642F25645D2042797465BB
:10038000730D0A0050616E69632025640D0A0050E8
:100390006F733D2564205B25635D0D0A0050726F0D
:1003A0006772616D20656E747279206D6F6465206F
:1003B000282E20746F2065786974290D0A000D0AB3
:1003C000004D6F74696F6E2072616E67653A202010
:1003D00030202D2031380D0A00506C6179204D6F8E
:1003E00074696F6E2025640D0A007DC9A3436C7D7E
:1003F0003059B88E59277CA2D37F7DB3C7586C7E05
:100400004831A38D332F31C7CDCD04040404040437
:1004100004040404040404040404020202020202A8
:1004200002020202000000000000010101010101BE
:1004300001010101010101010101020202020202A6
:100440000202020202020202020204040404040480
:10045000040404040404040404040101010101006F
:100460000000000001010100000001010101010084
:10047000000000000101010000000303030303006A
:100480000000000003030300000003030303030054
:100490000000000003030300000000000000000053
:1004A000000000000000000000002828282828285C
:1004B000282828281414141414143C3C3C3C3C3CBC
:1004C0003C3C3C3C1E1E1E1E1E1E00000000000088
:1004D0000000000000000000000001000800010012
:1004E00005000F0046003601A401C8002C017DB3B1
:1004F000C7586C7E4831A38D332F31C7CDCD7DB326
:10050000C7586C7E4831A38D332F31C7CDCD6BA436
:10051000E96A5F6C501D9B81383E28A6CED06BA443
:10052000E96A5F914A28A39A757C72A6CED07EA410
:10053000DE646B7D501D9B8E4F2C28A6CED07DB3E4
:10054000C7586C7E4831A38D332F31C7CDCD0404FD
:10055000040404040404040404040404040402025F
:100560000202020202020202000000000000010179
:100570000101010101010101010101010101020269
:100580000202020202020202020202020202040447
:100590000404040404040404040404040404000023
:1005A0000000000101010101000000010101000043
:1005B000000000020202020200000002020200002B
:1005C0000000000303030302000000030303000014
:1005D0000000000303030303000000030303000003
:1005E00000000000000000000000000000002828BB
:1005F00028282828282828281414141414143C3CCB
:100600003C3C3C3C3C3C3C3C1E1E1E1E1E1E000056
:1006100000000000000000000000000000000100D9
:100620000800010005000F0046003601A401C800C3
:100630002C017DB3C7586C7E4831A38D332F31C751
:10064000CDCD7DB3C7586C7E4831A38D332F31C7D4
:10065000CDCD8BA3E664788E570E969F4F2C28B78E
:10066000BCD06CA4E0616A97501C99A74F2C2891CC
:1006700070837EA4DE646B7D501D9B8E4F2C28A65C
:10068000CED07DB3C7586C7E4831A38D332F31C790
:10069000CDCD040404040404040404040404040488
:1006A000040404040404040404040404040404040A
:1006B000040402020202020202020202000000001E
:1006C0000000020202020200000000000303030314
:1006D0000303000000000000000000000404040404
:1006E00004030404040404040404040404040404CB
:1006F00004040000000000000000000000000000F2
:1007000000000101010101000000000001010100E1
:1007100000000000000000000000000000000000D9
:1007200000000101010101000000000001010100C1
:1007300000000000000000000000000000000000B9
:1007400000000000000000000000000000000000A9
:1007500000002828282828282828282814141414B9
:1007600014143C3C3C3C3C3C3C3C3C3C1E1E1E1E91
:100770001E1E00000000000000000000000000003D
:100780000000010005000800030001000F00460002
:1007900096003601FA0078002C017DB3C7586C7EB4
:1007A0004831A38D332F31C7CDCD7DB3C7586C7E73
:1007B0004831A38D332F31C7CDCD7EA7DE626E7D4C
:1007C000541D9B8E4F2C28A6CED06BA4E9665F6C7F
:1007D000501D9B81383E28A6CED06BA4E9695F915D
:1007E0004A289D9A383E28A6CED07EA4DE5F6B7D37
:1007F000541D9B8E4F2C28A6CED07DB3C7586C7E3F
:100800004831A38D332F31C7CDCD04040404040433
:100810000404040404040404040404040404040498
:100820000404040404040404040402020202020294
:100830000202020204040404040400000000000296
:100840000202020204040404040400000000000286
:100850000202020204040404040404040404040460
:100860000404040404040404040400000000000060
:100870000000000000000000000000000000000177
:100880000101010100000001010100000000000061
:100890000000000000000000000000000000000157
:1008A0000101010100000001010100000000000041
:1008B0000000000000000000000000000000000038
:1008C0000000000000000000000028282828282838
:1008D000282828281414141414143C3C3C3C3C3C98
:1008E0003C3C3C3C1E1E1E1E1E1E00000000000064
:1008F00000000000000000000000010005000800EA
:10090000030001000F00460096003601C800780081
:100910002C017DB3C7586C7E4831A38D332F31C76E
:10092000CDCD7DB3C7586C7E4831A38D332F31C7F1
:10093000CDCD7EA7DE626E7D541D9B8E4F2C28A6EA
:10094000CED08BA3E664788E570E969F4F2C28B797
:10095000BCD06CA4E0616A97501C99A74F2C28B7B3
:10096000BCD07EA6DE62717D541D9B8E4F2C28A6C6
:10097000CED07DB3C7586C7E4831A38D332F31C79D
:10098000CDCD040404040404040404040404040495
:100990000404010101010101010101010404040435
:1009A0000404010101010101010101010404040425
:1009B000040402020202020202020202040404040B
:1009C0000404010101010101010101010404040405
:1009D00004040303030303030303030304040404E1
:1009E00004040101010101000000000001010100F7
:1009F00000000101010101000000000001010100EF
:100A000000000000000000000000000000000000E6
:100A100000000000000000000000000000000000D6
:100A200000000000000000000000000000000000C6
:100A300000000000000000000000000000000000B6
:100A4000000014141414141414141414141414148E
:100A500014141E1E1E1E1E1E1E1E1E1E1E1E1E1ECA
:100A60001E1E00000000000000000000000000004A
:100A700000000A0005000A00010005000A00C80085
:100A8000C80090017800C80090017DB3C7586C7E03
:100A90004831A38D332F31C7CDCD7DB3C7586C7E80
:100AA0004831A38D332F31C7CDCD7DA2C7486C7E91
:100AB0003B31978D332F31C7CDCD88A9D25D798B4E
:100AC000243D909D332F31C7CDCD7DADD25D7B8B45
:100AD000500E899D332F31C7CDCD86ADD25D7B8B36
:100AE000501F9D9D332F31C7CDCD7DB3C7586C7E30
:100AF0004831A38D332F31C7CDCD04040404040441
:100B000004040404040404040404010101010101B7
:100B100001010101040404040404010101010101B3
:100B2000010101010404040404040202020202029D
:100B30000202020204040404040402020202020289
:100B40000202020204040404040403030303030373
:100B50000303030303030303030300000000000176
:100B6000010101010000000101010000000000017D
:100B7000010101010000000101000000000000006F
:100B80000000000000000000000000000000000065
:100B90000000000000000000000000000000000055
:100BA0000000000000000000000000000000000045
:100BB00000000000000000000000141414141414BD
:100BC000141414141414141414141E1E1E1E1E1EA9
:100BD0001E1E1E1E1E1E1E1E1E1E000000000000E9
:100BE000000000000000000000000A0005000A00EC
:100BF000010005000A00C800C80090017800C80084
:100C000090017DB3C7586C7E4831A38D332F31C717
:100C1000CDCD7DB3C7586C7E4831A38D332F31C7FE
:100C2000CDCD7DC1CD6B6C7E5931B48D332F31C7A5
:100C3000CDCD77D1C36A6077511F9D84332F31C7E3
:100C4000CDCD75A2E362677D4E31A37F332F31C7CF
:100C5000CDCD6EA8CC555C755131A380332F31C7F3
:100C6000CDCD7DB3C7586C7E4831A38D332F31C7AE
:100C7000CDCD0404040404040404040404040404A2
:100C80000404040404040404040404040404040424
:100C90000404030303030303030303030303030322
:100CA000030300000000000000000000040404042E
:100CB0000404030303030303030303030303030302
:100CC00003030202020202020202020204040404FA
:100CD00004040202020202020202020204040404E8
:100CE00004040202020202020202020204040404D8
:100CF00004040202020202020202020204040404C8
:100D000004040303030303030303030303030303B1
:100D100003030000000000000000000000000000CD
:100D20000000030303030303030303030303030399
:100D300003030000000000000000000000000000AD
:100D40000000020202020202020202020202020287
:100D5000020200000000000000000000000000008F
:100D60000000010101010101010101010101010175
:100D70000101000000000000000000000000000071
:100D80000000030303030303030303030303030339
:100D9000030300000000000000000000000000004D
:100DA0000000000000000000000000000000000043
:100DB0000000282828282828282828281E1E1E1E2B
:100DC0001E1E3C3C3C3C3C3C3C3C3C3C32323232C7
:100DD00032320000000000000000000000000000AF
:100DE00000000F001E002D002D002D001E001E0013
:100DF0001E001E001E002C0158028403840384037D
:100E0000580258025802580258027DB3C7586C7EE7
:100E10004831A38D332F31C7CDCD7DB3C7586C7EFC
:100E20004831A38D332F31C7CDCD7CDCF77D6C7E6F
:100E30001D047F8C332F31C7CDCD7BDCF656707E01
:100E40001D07A98B013B4AFDBFB58253903F6C7DC6
:100E5000AA67BF8B013BA3FDBF588253903F6C7DB7
:100E6000AA67BF8BEA7D5A0581A6815EB7646E8052
:100E7000A26EBA88A02D515ACDA78157BF3C6E8073
:100E8000A23BC1888A2E5974CBA78181BE416E8056
:100E9000783BBB8C852D5174CBA781A1C5476E8053
:100EA0005935B58F8F245974CBA77DB3C7586C7E45
:100EB0004831A38D332F31C7CDCD0404040404047D
:100EC00004040404040404040404010101010101F4
:100ED00001010101040404040404040404040404DE
:100EE00004040404040404040404010101010101D4
:100EF00001010101010101010101010101010101E2
:100F000001010101010101010101020202020202CB
:100F100002020202020202020202020202020202B1
:100F200002020202020202020202020202020202A1
:100F30000202020202020202020204040404040485
:100F40000404040404040404040400000000000079
:100F5000000000000000000000000303030303037F
:100F60000303030303030303030300000000000063
:100F70000000000000000000000002020202020265
:100F8000020202020202020202020000000000004D
:100F9000000000000000000000000101010101014B
:100FA0000101010101010101010100000000000037
:100FB000000000000000000000000303030303031F
:100FC0000303030303030303030300000000000003
:100FD0000000000000000000000028282828282821
:100FE000282828281414141414143C3C3C3C3C3C81
:100FF0003C3C3C3C1E1E1E1E1E1E0000000000004D
:10100000000000000000000000000A000A000A00C2
:101010000A00010023001E0028001E002C01F4011C
:10102000F401BC023403BC025802200358027DB311
:10103000C7586C7E4831A38D332F31C7CDCD7DB3DA
:10104000C7586C7E4831A38D332F31C7CDCD7D522B
:10105000D6596C7E4831A38D8F2F3172CDCD7D5204
:10106000DA65727DA622978F8D2F3172CDCD7DD21C
:10107000E450717C2319AC8EA72F2F52CDCC7DDA92
:10108000F756717B1F05A88D095792FEA26C7DDC77
:10109000F47A6D7B1D05808D212A92DED26C7DDC79
:1010A000DE7A717B1D1C878D62324E92C5A97DA0B0
:1010B000F272717B5708878D522F45ADCDBF7DB33E
:1010C000C7586C7E4831A38D332F31C7CDCD030374
:1010D00003030303030303030303030303030303E0
:1010E00003030303030303030303030303030303D0
:1010F00003030303030303030303030303030202C2
:1011000002020202020202020202020202020101C1
:1011100001010101010101010101010101010000C1
:1011200000000000000000000000000000000000BF
:1011300000000000000000000000000000000101AD
:10114000010101010101010101010101010102028D
:10115000020202020202020202020202020203036D
:10116000030303030303030303030303030303034F
:10117000030303030303030303030303030303033F
:101180000303030303030303030303030303020231
:101190000202020202020202020202020202010131
:1011A0000101010101010101010101010101000031
:1011B000000000000000000000000000000000002F
:1011C000000000000000000000000000000001011D
:1011D00001010101010101010101010101010202FD
:1011E00002020202020202020202020202020303DD
:1011F00003030303030303030303030303030303BF
:1012000003030303030303030303030303030202B0
:1012100002020202020202020202020202020101B0
:1012200001010101010101010101010101010000B0
:1012300000000000000000000000000000000000AE
:10124000000000000000000000000000000001019C
:10125000010101010101010101010101010102027C
:10126000020202020202020202020202020203035C
:10127000030303030303030303030303030303033E
:10128000030303030303030303030303030303032E
:101290000303030303030303030303030303020220
:1012A0000202020202020202020202020202010120
:1012B0000101010101010101010101010101000020
:1012C000000000000000000000000000000000001E
:1012D000000000000000000000000000000001010C
:1012E00001010101010101010101010101010202EC
:1012F00002020202020202020202020202020303CC
:1013000003030303030303030303030303030303AD
:10131000030303030303030303030303030302029F
:10132000020202020202020202020202020201019F
:101330000101010101010101010101010101040497
:101340000404040404040404040404040404000065
:101350000000000000000000000000000000030387
:10136000030303030303030303030303030303034D
:10137000030303030303030303030303030302023F
:10138000020202020202020202020202020201013F
:10139000010101010101010101010101010100003F
:1013A000000000000000000000000000000000003D
:1013B000000000000000000000000000000001012B
:1013C000010101010101010101010101010102020B
:1013D00002020202020202020202020202020303EB
:1013E00003030303030303030303030303030303CD
:1013F00003030303030303030303030303030303BD
:1014000003030303030303030303030303030202AE
:1014100002020202020202020202020202020101AE
:1014200001010101010101010101010101010000AE
:1014300000000000000000000000000000000000AC
:10144000000000000000000000000000000001019A
:10145000010101010101010101010101010102027A
:10146000020202020202020202020202020203035A
:10147000030303030303030303030303030303033C
:10148000030303030303030303030303030302022E
:10149000020202020202020202020202020201012E
:1014A000010101010101010101010101010100002E
:1014B000000000000000000000000000000000002C
:1014C000000000000000000000000000000001011A
:1014D00001010101010101010101010101010202FA
:1014E00002020202020202020202020202020303DA
:1014F00003030303030303030303030303030303BC
:1015000003030303030303030303030303030303AB
:10151000030303030303030303030303030302029D
:10152000020202020202020202020202020201019D
:10153000010101010101010101010101010100009D
:10154000000000000000000000000000000000009B
:101550000000000000000000000000000000010189
:101560000101010101010101010101010101020269
:101570000202020202020202020202020202030349
:10158000030303030303030303030303030303032B
:10159000030303030303030303030303030302021D
:1015A000020202020202020202020202020201011D
:1015B000010101010101010101010101010100001D
:1015C00000000000000000000000000000002929C9
:1015D00029292929292929291414141414143D3DD1
:1015E0003D3D3D3D3D3D3D3D1E1E1E1E1E1E00005F
:1015F00000000000000000000000000000000500E6
:1016000001000100010001000100010001000100D2
:1016100001000100010001000100010001000100C2
:1016200001000100010001000100010001000100B2
:1016300001000100010001000100010001000100A2
:10164000010001000100010001000A000F00C800B4
:1016500019001900190019001900190019001900C2
:1016600019001900190019001900190019001900B2
:1016700019001900190019001900190019001900A2
:101680001900190019001900190019001900190092
:1016900019001900190019001900C8002C017DB3A8
:1016A000C7586C7E4831A38D332F31C7CDCD7DB364
:1016B000C7586C7E4831A38D332F31C7CDCD7DB354
:1016C000C7586C7E4831A38D332F31C7CDCD82A54D
:1016D000C9517386511F9395482C2891D1C984AB69
:1016E000C5537589561C94984E2B299AD1CE84AF38
:1016F000C357758B5B1B989A572B2BA4D1D384B2FD
:10170000C55B75895F1C9D98612B30ACD1D582B3C8
:10171000C95F7386601FA195692B35B3D2D67FB29E
:10172000CE6270825F23A6916F2A39B6D2D67CAF83
:10173000D4646D7F5C28AA8E712A3BB7D2D67CAF69
:10174000D4646D7F5C28AA8E712A3BB7D2D678AC60
:10175000D966697B582EAA8A6F2A39B6D2D674A761
:10176000DD6765785333A9876A2B35B3D2D671A26A
:10177000E06662764D37A785612B30ADD1D56F9D80
:10178000E16260764939A385572B2BA4D1D3719997
:10179000E05D627646379F854F2B299AD1CE7498AB
:1017A000DD59657845339B87482C2892D1C97899B3
:1017B000D954697B462E988A452C288CD0C57B9CB1
:1017C000D4506C7E4928968D442C288AD0C37B9CAB
:1017D000D4506C7E4928968D442C288AD0C382A58B
:1017E000C9517386511F9395482C2891D1C984AB58
:1017F000C5537589561C94984E2B299AD1CE84AF27
:10180000C357758B5B1B989A572B2BA4D1D384B2EB
:10181000C55B75895F1C9D98612B30ACD1D582B3B7
:10182000C95F7386601FA195692B35B3D2D67FB28D
:10183000CE6270825F23A6916F2A39B6D2D67CAF72
:10184000D4646D7F5C28AA8E712A3BB7D2D67CAF58
:10185000D4646D7F5C28AA8E712A3BB7D2D678AC4F
:10186000D966697B582EAA8A6F2A39B6D2D674A750
:10187000DD6765785333A9876A2B35B3D2D671A259
:10188000E06662764D37A785612B30ADD1D56F9D6F
:10189000E16260764939A385572B2BA4D1D3719986
:1018A000E05D627646379F854F2B299AD1CE74989A
:1018B000DD59657845339B87482C2892D1C97899A2
:1018C000D954697B462E988A452C288CD0C57B9CA0
:1018D000D4506C7E4928968D442C288AD0C37B9C9A
:1018E000D4506C7E4928968D442C288AD0C382A57A
:1018F000C9517386511F9395482C2891D1C984AB47
:10190000C5537589561C94984E2B299AD1CE7DA625
:10191000E56A6C7E5617968D332F31C7CDCD7DB3DA
:10192000C7586C7E4831A38D332F31C7CDCD040409
:101930000404040404040404040404040404030369
:101940000303030303030303030303030303020269
:101950000202020202020202020202020202030365
:101960000303030303030303030303030303020249
:101970000202020202020202020202020202010149
:101980000101010101010101010101010101000049
:101990000000000000000000000000000000000047
:1019A0000000000000000000000000000000010135
:1019B0000101010101010101010101010101020215
:1019C00002020202020202020202020202020303F5
:1019D00003030303030303030303030303030303D7
:1019E00003030303030303030303030303030303C7
:1019F00003030303030303030303030303030202B9
:101A000002020202020202020202020202020101B8
:101A100001010101010101010101010101010000B8
:101A200000000000000000000000000000000000B6
:101A300000000000000000000000000000000101A4
:101A40000101010101010101010101010101020284
:101A50000202020202020202020202020202030364
:101A60000303030303030303030303030303030346
:101A70000303030303030303030303030303020238
:101A80000202020202020202020202020202010138
:101A90000101010101010101010101010101000038
:101AA0000000000000000000000000000000000036
:101AB0000000000000000000000000000000010124
:101AC0000101010101010101010101010101020204
:101AD00002020202020202020202020202020303E4
:101AE00003030303030303030303030303030303C6
:101AF00003030303030303030303030303030303B6
:101B000003030303030303030303030303030202A7
:101B100002020202020202020202020202020101A7
:101B200001010101010101010101010101010000A7
:101B300000000000000000000000000000000000A5
:101B40000000000000000000000000000000010193
:101B50000101010101010101010101010101020273
:101B60000202020202020202020202020202030353
:101B70000303030303030303030303030303030335
:101B80000303030303030303030303030303020227
:101B90000202020202020202020202020202010127
:101BA0000101010101010101010101010101020223
:101BB0000202020202020202020202020202040401
:101BC00004040404040404040404040404040000DD
:101BD0000000000000000000000000000000000005
:101BE00000000000000000000000000000000000F5
:101BF00000000000000000000000000000000303DF
:101C000003030303030303030303030303030202A6
:101C100002020202020202020202020202020101A6
:101C200001010101010101010101010101010000A6
:101C300000000000000000000000000000000000A4
:101C40000000000000000000000000000000010192
:101C50000101010101010101010101010101020272
:101C60000202020202020202020202020202030352
:101C70000303030303030303030303030303030334
:101C80000303030303030303030303030303030324
:101C90000303030303030303030303030303020216
:101CA0000202020202020202020202020202010116
:101CB0000101010101010101010101010101000016
:101CC0000000000000000000000000000000000014
:101CD0000000000000000000000000000000010102
:101CE00001010101010101010101010101010202E2
:101CF00002020202020202020202020202020303C2
:101D000003030303030303030303030303030303A3
:101D10000303030303030303030303030303020295
:101D20000202020202020202020202020202010195
:101D30000101010101010101010101010101000095
:101D40000000000000000000000000000000000093
:101D50000000000000000000000000000000010181
:101D60000101010101010101010101010101020261
:101D70000202020202020202020202020202030341
:101D80000303030303030303030303030303030323
:101D90000303030303030303030303030303030313
:101DA0000303030303030303030303030303020205
:101DB0000202020202020202020202020202010105
:101DC0000101010101010101010101010101000005
:101DD0000000000000000000000000000000000003
:101DE00000000000000000000000000000000101F1
:101DF00001010101010101010101010101010202D1
:101E000002020202020202020202020202020303B0
:101E10000303030303030303030303030303030392
:101E20000303030303030303030303030303020284
:101E30000202020202020202020202020202010184
:101E40000101010101010101010101010101000084
:101E50000000000000000000000000000000000082
:101E60000000000000000000000000000000292920
:101E700029292929292929291414141414143D3D28
:101E80003D3D3D3D3D3D3D3D1E1E1E1E1E1E0000B6
:101E9000000000000000000000000000000005003D
:101EA0001400010001000100010001000100010017
:101EB000010001000100010001000100010001001A
:101EC000010001000100010001000100010001000A
:101ED00001000100010001000100010001000100FA
:101EE00001000100010001000100010001000A00E1
:101EF00014002C0190011900190019001900190093
:101F00001900190019001900190019001900190009
:101F100019001900190019001900190019001900F9
:101F200019001900190019001900190019001900E9
:101F300019001900190019001900190019001900D9
:101F40001900900190017DB3C7586C7E4831A38D74
:101F5000332F31C7CDCD7DB3C7586C7E4831A38DAB
:101F6000332F31C7CDCD7DA0DC6B6C7E581F928D99
:101F7000332F31C7CDCD7899DA58697B482E978AAF
:101F8000392B33AED2D67497DF5B657846349B87A6
:101F90003A2B30B1D2D67098E25E61774639A0868E
:101FA0003B2B2DB6D2D66F9BE3636076483CA5856C
:101FB0003F2B29BCD1D570A0E26661764C3AA7854B
:101FC000442C28BFD1D173A5DF6864785234A88728
:101FD000492C28C1D1CE78A9DA68697B582EA78A06
:101FE0004D2C28C2D1CB7BADD4676C7E5C28A58DEF
:101FF0004E2B28C2D1CA7BADD4676C7E5C28A58DE0
:102000004E2B28C2D1CA7FB0CE6370825F22A291CC
:102010004D2C28C2D1CB82B2C85F7386611D9F95BB
:102020004A2C28C1D1CE83B2C35A748A601A9C99B3
:10203000452C28C0D1D184B0C055758B5D19979AB5
:102040003F2B29BCD1D584ACC253758A581A9499B8
:102050003C2B2DB7D2D682A6C8527387531D9296B9
:102060003A2B30B2D2D67FA0CE5370824F229291BB
:10207000392B33AED2D67C9CD4556D7F4B28938EB2
:10208000392B34ADD1D67C9CD4556D7F4B28938EA3
:10209000392B34ADD1D67497DF5B657846349B8796
:1020A0003A2B30B1D2D67098E25E61774639A0867D
:1020B0003B2B2DB6D2D66F9BE3636076483CA5855B
:1020C0003F2B29BCD1D570A0E26661764C3AA7853A
:1020D000442C28BFD1D173A5DF6864785234A88717
:1020E000492C28C1D1CE78A9DA68697B582EA78AF5
:1020F0004D2C28C2D1CB7BADD4676C7E5C28A58DDE
:102100004E2B28C2D1CA7BADD4676C7E5C28A58DCE
:102110004E2B28C2D1CA7FB0CE6370825F22A291BB
:102120004D2C28C2D1CB82B2C85F7386611D9F95AA
:102130004A2C28C1D1CE83B2C35A748A601A9C99A2
:10214000452C28C0D1D184B0C055758B5D19979AA4
:102150003F2B29BCD1D584ACC253758A581A9499A7
:102160003C2B2DB7D2D682A6C8527387531D9296A8
:102170003A2B30B2D2D67FA0CE5370824F229291AA
:10218000392B33AED2D67C9CD4556D7F4B28938EA1
:10219000392B34ADD1D67C9CD4556D7F4B28938E92
:1021A000392B34ADD1D67497DF5B657846349B8785
:1021B0003A2B30B1D2D67098E25E61774639A0866C
:1021C0003B2B2DB6D2D66F9BE3636076483CA5854A
:1021D0003F2B29BCD1D56F9BE362607659199B8553
:1021E0003F2B29BCD1D57DB3C7586C7E4831A38D18
:1021F000332F31C7CDCD1414141414141414141423
:102200001414141414141E1E1E1E1E1E1E1E1E1E2A
:102210001E1E1E1E1E1E000000000000000000000A
:1022200000000000000001000100010001000100A9
:1022300001001400140040011400400114007DB39B
:10224000C7586C7E4831A38D332F31C7CDCD7DB3B8
:10225000C7586C7E4831A38D332F31C7CDCD73B3B2
:10226000C7585F744831A380332F31C7CDCD63DBAE
:10227000CE8254724339A17B22556E76C3C96581E3
:10228000CB2B55782451B47E82314CCFC7E4658185
:10229000CB2A55782451B47B82314CCFC7E47DB32F
:1022A000C7586C7E4831A38D332F31C7CDCD020284
:1022B00002020202020202020202020202020202FE
:1022C00002020200020202000202020202020000F6
:1022D00000000000000000000000000000000000FE
:1022E00000000000000000000000000000000000EE
:1022F00000000000000000000000000000000202DA
:1023000002020202020202020202020202020000B1
:1023100000000000000000000000000000000000BD
:1023200000000000000000000000000000000000AD
:10233000000000000000000000000000000000009D
:10234000000000000000000000000000000000008D
:10235000000000000000000000000000000000007D
:102360000000000000000000000000000000141445
:1023700014141414141414141414141414141E1E09
:102380001E1E1E1E1E1E1E1E1E1E1E1E1E1E0000A9
:10239000000000000000000000000000000001003C
:1023A00001000100010001000A00140014004001B6
:1023B0001400A401DC007DB3C7586C7E4831A38DA6
:1023C000332F31C7CDCD7DB3C7586C7E4831A38D37
:1023D000332F31C7CDCD87B3C75879884831A39AF9
:1023E000332F31C7CDCD89B8BF5A7E98202A78A522
:1023F000843935D8A79083C4B64F7A967A2DD0A465
:102400002B355078CBB283C4B64F80967A2DD0A4AA
:102410002B355078CBB27DB3C7586C7E4831A38D35
:10242000332F31C7CDCD02020202020202020202A4
:10243000020202020202020202020202020202027C
:102440000202020202020002020200020202020270
:102450000202020202020000000000000000000070
:10246000000000000000000000000000000000006C
:102470000000000000000202020202020202020248
:102480000202020202020000000000000000000040
:10249000000000000000000000000000000000003C
:1024A000000000000000000000000000000000002C
:1024B000000000000000000000000000000000001C
:1024C000000000000000000000000000000000000C
:1024D00000000000000000000000000000000000FC
:1024E000000000000000282828282828282828285C
:1024F0001414141414143C3C3C3C3C3C3C3C3C3C0C
:102500001E1E1E1E1E1E0000000000000000000017
:10251000000000000000050001000100030064004D
:10252000DC0064003C007DA8C7556C7E532FA78F4C
:10253000332F31C7CDCD6B92E9635F6C641B9F83F2
:10254000383E28A6CED06B96E9665F8F5726A18CC1
:10255000383E28A6CED07E96DE5C6B7D621B9F90B7
:102560004F2C28A6CED07DA5C7556C7E552FA78FA2
:10257000332F31C7CDCD0202020202020202020253
:102580000202020202020202020202000000000035
:102590000303030303030000000000000000000029
:1025A00004040404040304040404040404040404EC
:1025B0000404040404040000000000000000000003
:1025C0000000000000000101010101000000000006
:1025D00001010100000000000000000000000000F8
:1025E00000000000000000000000000000000000EB
:1025F000000000000000282828282828282828284B
:102600001414141414143C3C3C3C3C3C3C3C3C3CFA
:102610001E1E1E1E1E1E0000000000000000000006
:10262000000000000000050001000100030064003C
:10263000DC0064003C007DA5C7556C7E572FA78F3A
:10264000332F31C7CDCD8B96E661788E65109A9C7D
:102650004F2C28B7BCD0649AE0616B8E64139AA1AA
:102660004F2C28B7BCD0799ADE5F5D7D5E209C90B0
:102670004F2C28A6CED07DA7C7556C7E542FA78F90
:10268000332F31C7CDCD0202020202020202020242
:102690000202020202020000000000020202020224
:1026A0000404040404040000000000020202020208
:1026B00004040404040404040404040404040404DA
:1026C00004040404040400000000000000000000F2
:1026D00000000000000000000000000101010101F5
:1026E00000000001010100000000000000000000E7
:1026F00000000000000000000000000000000000DA
:102700000000000000001414141414141414141401
:102710001414141414141E1E1E1E1E1E1E1E1E1E15
:102720001E1E1E1E1E1E00000000000000000000F5
:102730000000000000000100010001000A000A0082
:102740001400080240012C0108027DB3C7586C7EBA
:102750004831A38D332F31C7CDCD7DB3C7586C7EA3
:102760004831A38D332F31C7CDCD7D5ECD596C7AE5
:102770009933A88C0A6769F1928F77DFF9726B7CC5
:102780001D028E8F0B3169E9CA8B7DB9F9826C7C91
:1027900043017C912D4145C9BDAF7DB3C7586C7EC7
:1027A0004831A38D332F31C7CDCD02020202020280
:1027B00002020202020202020202020202020202F9
:1027C00002020202020202020202000000000000F5
:1027D00000000000000000000000000000000000F9
:1027E00000000000000000000000020202020202DD
:1027F00002020202020202020202000000000000C5
:1028000000000000000000000000000000000000C8
:1028100000000000000000000000000000000000B8
:1028200000000000000000000000000000000000A8
:102830000000000000000000000000000000000098
:102840000000000000000000000014141414141410
:10285000141414141414141414141E1E1E1E1E1EFC
:102860001E1E1E1E1E1E1E1E1E1E0000000000003C
:102870000000000000000000000001000100010055
:1028800001001E001400DC00A4015E0158027DB3AB
:10289000C7586C7E4831A38D332F31C7CDCD7DB362
:1028A000C7586C7E4831A38D332F31C7CDCD7AB355
:1028B000C8576C7A4630A38D14832AEE6FC97A8587
:1028C000C86E6780762F8D8D16C86CE82F85745979
:1028D000ED516884A010AD9201D277FE27797DB3C7
:1028E000C7586C7E4831A38D332F31C7CDCD02023E
:1028F00002020202020202020202020202020000BC
:1029000000000000000000000000000000000000C7
:1029100000000000000000000000000000000000B7
:1029200000000000000000000000000000000202A3
:10293000020202020202020202020202020200007B
:102940000000000000000000000000000000000087
:102950000000000000000000000000000000000077
:102960000000000000000000000000000000000067
:102970000000000000000000000000000000000057
:10298000000000000000000000000000000014141F
:1029900014141414141414141414141414141E1EE3
:1029A0001E1E1E1E1E1E1E1E1E1E1E1E1E1E000083
:1029B00000000000000000000000000000000A000D
:1029C00028000A002800F401E803D007E8037DB3DB
:1029D000C7586C7E4831A38D332F31C7CDCD7DB321
:1029E000C7586C7E4831A38D332F31C7CDCD7D9331
:1029F000F76A6C7E6604918D332F31C7CDCD7D9300
:102A0000F76A6C7E6604918D332F31C7CDCD7DB3CF
:102A1000C7586C7E4831A38D332F31C7CDCD02020C
:102A20000202020202020202020202020202020286
:102A3000020202020202020202020202020200007A
:102A4000000000000000000000000000000004047E
:102A5000040404040404040404040404040400003E
:102A60000000000000000000000000000000010164
:102A70000101010101010101010101010101030342
:102A8000030303030303030303030303030300001C
:102A9000000000000000000000000000000014140E
:102AA00014141414141414141414141414141E1ED2
:102AB0001E1E1E1E1E1E1E1E1E1E1E1E1E1E000072
:102AC00000000000000000000000000000000A00FC
:102AD00028000A000A002800F401E803F401F401C8
:102AE000E8037DB3C7586C7E4831A38D332F31C7BF
:102AF000CDCD7DB3C7586C7E4831A38D332F31C700
:102B0000CDCD7DB3C7586C7E4831A38DBB3A2EC75F
:102B1000CDCD7DB3C7586C7E4831A38DBA672EC723
:102B2000CDCD7DB3C7586C7E4831A38DBB3A2EC73F
:102B3000CDCD7DB3C7586C7E4831A38D332F31C7BF
:102B4000CDCD0202020202020202020202020202CF
:102B50000202020202020202020202020202020255
:102B60000202020202020202020202020202020245
:102B70000202020202020202020202020202020235
:102B80000202040404040404040404040404040409
:102B9000040400000000000000000000000000002D
:102BA0000000000000000000000000000000000025
:102BB0000000000000000000000000000000000015
:102BC0000000000000000000000000000000000005
:102BD00000000000000000000000000000000000F5
:102BE00000001414141414141414141414141414CD
:102BF00014141E1E1E1E1E1E1E1E1E1E1E1E1E1E09
:102C00001E1E000000000000000000000000000088
:102C1000000028000A0014001400010001000A004E
:102C20000A001900140014001E008403C80090015B
:102C300090017800080290019001F4019001900148
:102C400058027DB3C7586C7E4831A38D332F31C7EE
:102C5000CDCD7DB3C7586C7E4831A38D332F31C79E
:102C6000CDCD7DB0F7796C7E4702828D332F31C791
:102C7000CDCD81B4EC6A4B8B4702827403324DEFA9
:102C80009DA033B4EC6A5F8B4702827401324AE83C
:102C90009EA03398ED2D5F8B47028274023231E89B
:102CA00098A03385952D5F8B47028274023233E8FA
:102CB0008FA0338EEA305F8B47028274023231E894
:102CC0009AA07BC2D256528B47028274023231E8FC
:102CD00095A084CADC695B903F047D8A443431E866
:102CE000AAA07BAEF8766A814C04878F343231DB40
:102CF000C2D57B9BF8766A815F04878F343231DBE3
:102D0000C2D57DB3C7586C7E4831A38D332F31C7F0
:102D1000CDCD0404040404040404040404040404E1
:102D20000404040404040404040404040404040463
:102D30000404040404040404040404040404040453
:102D40000404040404040404040404040404040443
:102D50000404000000000004040404040404040447
:102D60000404000000000004040404040404040437
:102D70000404000000000004040404040404040427
:102D80000404040404030404040404040404040404
:102D900004040404040304040404040404040404F4
:102DA00004040404040304040404040404040404E4
:102DB00004040404040304040404040404040404D4
:102DC00004040404040404040404040404040404C3
:102DD00004040000000000000000000000000000EB
:102DE00000000202020202000000000000000000D9
:102DF00000000000000000000000000000000000D3
:102E000000000202020202000000000000000000B8
:102E100000000303030303000000000000000000A3
:102E20000000030303030300000000000000000093
:102E30000000020202020200000000000000000088
:102E40000000020202020200000000000000000078
:102E50000000000000000000000000000000000072
:102E60000000000000000000000000000000000062
:102E70000000000000000000000000000000000052
:102E80000000000000000000000000000000000042
:102E90000000282828282828282828281414141452
:102EA00014143C3C3C3C3C3C3C3C3C3C1E1E1E1E2A
:102EB0001E1E0000000000000000000000000000D6
:102EC0000000140014001400140014001400140076
:102ED000010001000A0028000F000F000500320069
:102EE0003200320001002D002D000A000A000A0005
:102EF0000A002D000A000A000A000A002D005000F6
:102F00001E000F000F000F000F000F000F000F003A
:102F10000F008403840384038403840384038403F1
:102F200008020802F4014006580258023408FC0363
:102F3000FC03FC03E40784038403F401F401F401BB
:102F4000F4018403F401F401F401F4018403400664
:102F500040065802580258025802580258025802B5
:102F600058027DB3C7586C7E4831A38D332F31C7CB
:102F7000CDCD7DB3C7586C7E4831A38D332F31C77B
:102F8000CDCD7CB5F77C6C7E47047F8D332F31C768
:102F9000CDCD7C77F77C6C7E83047F8D87304C6C45
:102FA000CDA77C4EF77C6C7EB9047F8D8730046C96
:102FB000CDEF79DDFA686C7E9F429B8DBE30043682
:102FC000CDEF79DDFA686C7E9F5AC68DCE39083513
:102FD000B6F479DDFA686C7E9F42B98DBE30040F7D
:102FE0005E8D79DDFA686C7E9F42B98DBE3004AE8D
:102FF0007D8D79DDFA686C7E9F42B98DBE3004B458
:1030000072E379DDFA686C7E9F6CCA8DCD3004ABBB
:1030100032CA369FFA686C7E1C0E9C8DCD3004AB94
:1030200032CA7E9FFA686C811C0E9C8DCD2B049752
:1030300028E67EC6C66D6C81373E9C8DCD2B0497ED
:1030400028E658D9817E6CA71C717F8DCD2B049703
:1030500028E635D9897E6CC41C717F8DCD2B0497F1
:1030600028E616D98A7E6CEA1C717F8DCD2B0497D9
:1030700028E658D9867E6CA71C717F8DCD2B0497CE
:1030800028E658D9867E6CA71C717F8DCD2B0497BE
:1030900028E67CC2F76D6B8138049390CD2B0497A2
:1030A00028E67CCBD96D6B812F239390CD2B049791
:1030B00028E67CB0B2616B811D149390CF2B048FF6
:1030C00028E67CBDCB616B8116319390CD2B0497A4
:1030D00028E67CD8C9626B813C2A9F90CD2B04974F
:1030E00028E67CE4D2686B81533AB390CD2B0497E9
:1030F00028E67CCBD96D6B812F239390CD2B049741
:1031000028E67CB0B2616B811D149390CF2B048FA5
:1031100028E67CBDCB616B8116319390CD2B049753
:1031200028E67CD8C9626B813C2A9F90CD2B0497FE
:1031300028E67CE4D2686B81533AB390CD2B049798
:1031400028E67CCBD96D6B812F239390CD2B0497F0
:1031500028E681BFF76D6B829A798390CD2B049717
:1031600028E6815E813A6E80A271C488CD4E0497B4
:1031700079E6815E8A3B6E809978C488CD4E04C220
:10318000848D815C81396E80A279C488CD4E0440E3
:10319000848D815A84386E80A279C488D0242E34DC
:1031A000D0DE815EB7646E80A26EBA88A72D575AB2
:1031B000CAA78157C5476E80A239BA8F822D537432
:1031C000CBA7817DC5476E80783BB88F8F2459741B
:1031D000CBA77BA6DF5E6A7D5123A28D8F24597415
:1031E000CBA77DB3C7586C7E4831A38D332F31C731
:1031F000CDCD0404040404040404040404040404FD
:10320000040404040404040404040404040404047E
:10321000040404040404040404040404040404046E
:10322000040404040404040404040404040404045E
:103230000404040404040404040400000404040456
:103240000404040404040404040400000404040446
:103250000404040404040404040400000404040436
:103260000404040404040404040400000101010132
:103270000101040404040404040400000101010128
:103280000101040404040404040400000101010118
:103290000101010101010101010100000101010120
:1032A0000101010101010101010100000101010110
:1032B00001010404040404040404000004040404DC
:1032C00004040404040404040404000001010101D2
:1032D00001010000000000000000000000000000EC
:1032E00000000000000000000000000000000000DE
:1032F00000000000000000000000000000000000CE
:1033000000000000000000000000000000000000BD
:103310000000020202020202020202020404040489
:103320000404020202020202020202020404040471
:103330000404020202020202020202020404040461
:103340000404020202020202020202020404040451
:103350000404020202020202020202020404040441
:103360000404020202020202020202020404040431
:103370000404020202020202020202020404040421
:103380000404020202020202020202020404040411
:103390000404020202020202020202020404040401
:1033A00004040202020202020202020204040404F1
:1033B00004040202020202020202020204040404E1
:1033C00004040202020202020202020204040404D1
:1033D00004040202020202020202020204040404C1
:1033E00004040202020202020202020204040404B1
:1033F00004040202020202020202020204040404A1
:103400000404020202020202020202020404040490
:103410000404020202020202020202020404040480
:103420000404020202020202020202020404040470
:103430000404020202020202020202020404040460
:103440000404020202020202020202020404040450
:103450000404020202020202020202020404040440
:103460000404020202020202020202020404040430
:103470000404000000000000000000000000000044
:10348000000000000000000000000000000000003C
:10349000000000000000000000000000000000002C
:1034A000000000000000000000000000000000001C
:1034B000000000000000000000000000000000000C
:1034C00000000000000000000000000000000000FC
:1034D00000000000000000000000000000000000EC
:1034E00000000000000000000000000000000000DC
:1034F00000000000000000000000000000000000CC
:1035000000000000000000000000000000000000BB
:1035100000000000000000000000000000000000AB
:10352000000000000000000000000000000000009B
:10353000000000000000000000000000000000008B
:10354000000001010101010101010101010101016D
:10355000010103030303030303030303030303033F
:103560000303010101010101010101010101010147
:103570000101000000000000000000000000000049
:103580000000030303030303030303030303030311
:103590000303000000000000000000000000000025
:1035A0000000000002000000000200000000000017
:1035B000000000000000000000000000000000000B
:1035C00000000003000003000300000300000000EF
:1035D00000000200000000020000000000000000E7
:1035E00000000000000000000000000000000000DB
:1035F00000000000000000000000000000000000CB
:1036000000000000000000000000000000000000BA
:1036100000000000000000000000000000000000AA
:10362000000000000000000000000000000000009A
:10363000000000000000000000000000000000008A
:10364000000000000000000000000000000000007A
:10365000000000000000000000000000000000006A
:10366000000000000000000000000000000000005A
:10367000000000000000000000000000000000004A
:10368000000000000000000000000000000000003A
:10369000000000000000000000000000000000002A
:1036A000000000000000000000000000000000001A
:1036B000000000000000000000000000000000000A
:1036C00000000000000000000000000000000000FA
:1036D00000000000000000000000000000000000EA
:1036E00000000000000000000000000000000000DA
:1036F00000004255533D25640D0A000011241FBEF1
:10370000CFEFD0E1DEBFCDBF17E0A0E0B1E0EAE54A
:10371000F2EC00E00BBF02C007900D92A63AB10791
:10372000D9F71CE0A6EAB7E001C01D92A735B107A2
:10373000E1F70E94461E0C942B610C9400008091CE
:103740004F0890915008883C910510F4DA9813C006
:1037500080914F0890915008893C910558F08091D4
:103760004F08909150088059914020F4DA9ADB9AE2
:10377000DC980895DA9ADB9ADC9A089590934C08C5
:1037800080934B0880914B0890914C08892BD1F77E
:1037900008951F920F920FB60F9211240F900FBE33
:1037A0000F901F90189580913B08882311F180910C
:1037B0007308909174088C51954228F010925A0821
:1037C0001092590809C08091590890915A080196A1
:1037D00090935A08809359088091590890915A08FB
:1037E000079768F110923B0810925A0810925908F6
:1037F000089580917308909174088C51954270F0EF
:1038000010925A08109259088091450890914608E4
:103810000196909346088093450804C0109246088C
:10382000109245088091450890914608039738F01A
:1038300081E080933B081092460810924508089555
:1038400089B38370813089F48AE090E090934C08CA
:1038500080934B0880914B0890914C08892BD1F7AD
:10386000C89B03C081E08093470889B3837082308E
:1038700099F48AE090E090934C0880934B088091F3
:103880004B0890914C08892BD1F789B38370823013
:1038900019F483E080934708089593E09BBB8CEF75
:1038A0008ABB18BA84E787BB15BA40E844BB92BB11
:1038B00011BA80E783B988E082B910926200109251
:1038C00061001092650084E08093640010BE83BFA5
:1038D00012BE11BE1FBC85E08EBD1DBC1CBC17BC3A
:1038E00016BC1BBC1ABC19BC18BC109279001092F3
:1038F000780085BD14BC13BC10928B0090938A0095
:10390000109289001092880010928100109280001D
:103910001092870010928600109285001092840009
:10392000109283001092820010926A0030E23ABF37
:1039300080E489BF17BE10927D001BB828E12AB928
:1039400096E0909395001092900087E089B91092CC
:103950009B0020939A0090939D0010929800809372
:10396000990048B910BC37B916B810927400089580
:10397000DA9ADB9ADC9AE5E6F0E080818460808365
:10398000AF9ADD9ADE9ADF9AC598109200091092DC
:1039900002091092500810924F0810924A08109293
:1039A0003E08109242080895BF92CF92DF92EF92A4
:1039B000FF920F931F93CF93DF9381E080933F0893
:1039C00085E090E090935808809357089FEBC92EAC
:1039D00091E0D92EBB24B39488E2E82EF12C0CECB4
:1039E00011E0C4EFD1E059C080914A0865E00E941F
:1039F000FA5F9923B9F480914A0820913E0890E03B
:103A00009F938F9330E03F932F93DF92CF92BF929B
:103A10000E9451228DB79EB707960FB6F8949EBFAD
:103A20000FBE8DBFAF9A809165008B7F809365003C
:103A30000E94D0240E94D31B80913B088823A1F1CF
:103A4000C49AF0924C08E0924B0880914B089091F8
:103A50004C08892BD1F7C49810934C0800934B085D
:103A600080914B0890914C08892BD1F7809165008B
:103A70008460809365000E94D0240E94D31B8091B3
:103A80003B08882389F0D0934C08C0934B08809161
:103A90004B0890914C08892BD1F780915708909151
:103AA0005808892B09F0A0CF85E590E0909358083D
:103AB00080935708C5EAD1E011E045C080914A08DB
:103AC00065E00E94FA5F9923B9F480914A08209139
:103AD0003E0890E09F938F9330E03F932F93DF93C6
:103AE000CF931F930E9451228DB79EB707960FB6B2
:103AF000F8949EBF0FBE8DBFAF9A809148089091F9
:103B00004908855F914020F0809165008B7F03C05C
:103B10008091650084608093650080914808909151
:103B20004908892B39F08091480890914908845FB1
:103B3000914021F40E94D0240E94D31B80913B0825
:103B4000882341F0C49A8091570890915808892B96
:103B500009F0B4CFC49810923F088EE991E09F938A
:103B60008F9381E08F930E9451220F900F900F90BE
:103B7000DF91CF911F910F91FF90EF90DF90CF9049
:103B8000BF900895DF92EF92FF920F931F93CF9310
:103B9000DF9320914708213009F070C01092470848
:103BA00086E891E09F938F932F930E945122C0E06B
:103BB000D0E00F900F900F9002E310E020E8E22E8B
:103BC00021E0F22EDD24D394AF9810934C0800939B
:103BD0004B0880914B0890914C08892BD1F70E949B
:103BE000D0240E94D31B80917308909174089F93F6
:103BF0008F93FF92EF92DF920E945122AF9A10931F
:103C00004C0800934B080F900F900F900F900F905F
:103C100080914B0890914C08892BD1F72196CA309E
:103C2000D10591F680913B088823E1F088E691E088
:103C30009F938F9311E01F930E9451220E94B448DA
:103C40000E94D41C8DE591E09F938F931F930E9457
:103C500051228DB79EB706960FB6F8949EBF0FBE41
:103C60008DBF0CC08CE491E09F938F9381E08F9384
:103C70000E945122AF980F900F900F90DF91CF913B
:103C80001F910F91FF90EF90DF9008950E944D1CBF
:103C90000E94B81C0E942C2060E072EC81E090E051
:103CA0000E94181F8BE39FE10E94F620789487B74B
:103CB000816087BF809165008B7F809365000E9443
:103CC0006F260E94201C0E94C21D0E941F43FFCF2E
:103CD0001F920F920FB60F920BB60F9211242F93D3
:103CE0003F934F935F936F937F938F939F93AF9384
:103CF000BF93EF93FF9389E182BF80915D0890911C
:103D00005E08019690935E0880935D0880914B0851
:103D100090914C08892B49F080914B0890914C0868
:103D2000019790934C0880934B080E949F1B8091B1
:103D30002B08882389F080914F089091500860915A
:103D4000000170E00E940660892B31F48FE08093BF
:103D5000F7088CED0E94F82380914F08909150084D
:103D600001969093500880934F0880914F0890914E
:103D70005008885E934008F443C010925008109297
:103D80004F0880914D0890914E08892B49F0809101
:103D90004D0890914E08019790934E0880934D08DE
:103DA00080914A088F5F80934A0880914A088C333B
:103DB00038F110924A088091570890915808892B41
:103DC00049F08091570890915808019790935808AE
:103DD0008093570880913E088F5F80933E088091C2
:103DE0003E088C3368F010923E08809142088F5F45
:103DF0008093420880914208883110F01092420866
:103E0000FF91EF91BF91AF919F918F917F916F91B2
:103E10005F914F913F912F910F900BBE0F900FBE6E
:103E20000F901F9018959093270880932608089567
:103E30009B01AC016B54704E834E9F4FF3E0660FB5
:103E4000771F881F991FFA95D1F7E4E0220F331FDF
:103E5000441F551FEA95D1F70E942D602150304034
:103E60002093990030939800089580E698E0089593
:103E700089E698E00895982F80915F088823E1F300
:103E800090939C0010925F0808951092650810921C
:103E9000640808958091640890916508892B11F059
:103EA00080E008958FEF08951F920F920FB60F9242
:103EB0000BB60F9211242F933F934F935F936F9301
:103EC0007F938F939F93AF93BF93EF93FF936091F3
:103ED0009C008091260890912708892B39F0E09169
:103EE0002608F0912708862F09950FC080E698E0F4
:103EF0000E94BC20882349F4809171089091720837
:103F000001969093720880937108FF91EF91BF9191
:103F1000AF919F918F917F916F915F914F913F9161
:103F20002F910F900BBE0F900FBE0F901F90189502
:103F3000682F89E698E00E94BC2008951F920F9296
:103F40000FB60F920BB60F9211242F933F934F93FE
:103F50005F936F937F938F939F93AF93BF93EF93F1
:103F6000FF9380916808882379F080916D08909183
:103F70006E08892B39F089E698E00E9453208093DF
:103F80009C0005C0109268088FEF80935F08FF9136
:103F9000EF91BF91AF919F918F917F916F915F91C1
:103FA0004F913F912F910F900BBE0F900FBE0F902E
:103FB0001F9018958FEF8093680889E698E00E941B
:103FC0005320982F80915F088823E1F390939C0001
:103FD00010925F080895CF93DF93EC0180916208FF
:103FE00090916308892B69F080916408909165082D
:103FF000892B39F080E698E00E94532088838FEF68
:1040000001C080E0DF91CF910895DF93CF930F92AD
:10401000CDB7DEB7CE0101960E94EB1F882319F4BD
:104020002FEF3FEF03C08981282F30E0C9010F90A7
:10403000CF91DF91089540E450E066EA77E080E6B2
:1040400098E00E94462040E450E066EE77E089E682
:1040500098E00E94462008950E941B201092270895
:104060001092260888ED80939A0060E875E280E05F
:1040700090E00E94181F8FEF80935F0810926808ED
:10408000109272081092710878940895FC018FB70D
:10409000F89471836083538342831782168215825A
:1040A00014828FBF0895DC014FB7F89414968D9158
:1040B0009C911597892B11F4E0E025C016968D91FF
:1040C0009C911797ED91FC911197E80FF91FE081F2
:1040D000019617969C938E93169712962D913C916C
:1040E00013978217930730F0821B930B17969C93BC
:1040F0008E93169714968D919C911597019715960E
:104100009C938E9314974FBF8E2F0895FC014FB749
:10411000F8948481958168177907B0F48681978136
:10412000860F971F97838683228133818217930797
:1041300020F0821B930B9783868384819581861B55
:10414000970B9583848302C0158214824FBF089514
:10415000FC01CB012FB7F8942FBF268137816281F4
:104160007381820F931F0E9406600190F081E02D01
:10417000E80FF91F808108951F93CF93DF93EC011F
:10418000162F4FB7F8942C813D816A817B812617C9
:10419000370798F48E819F81820F931F0E940660DB
:1041A000E881F981E80FF91F10838C819D810196C8
:1041B0009D838C834FBF8FEF02C04FBF80E0DF91A4
:1041C000CF911F910895FC018FB7F8948FBF228182
:1041D000338184819581281B390BC9010895FC0125
:1041E0008FB7F894158214828FBF08959093290891
:1041F0008093280808951F93182F8A3031F4E09196
:104200002808F09129088DE00995E0912808F0919F
:104210002908812F09951F910895CF93DF93EC0111
:10422000009721F406C021960E94FB2088818823F4
:10423000D1F7DF91CF910895EF92FF920F931F93E3
:10424000CF93DF938C017A010097E9F020E030E012
:104250002617370738F4F80181918F012F5F3F4F00
:104260008823B1F7C0E0D0E00BC0F801808188233B
:1042700019F00F5F1F4F01C080E20E94FB202196C2
:10428000CE15DF0590F3DF91CF911F910F91FF9035
:10429000EF900895CF93DF93EC01009719F407C0D6
:1042A0000E94FB20FE01219684918823C9F7DF91AB
:1042B000CF9108958AE00E94FB200895E82FF0E056
:1042C000EF70F070E052FE4FE4918E2F0E94FB20C1
:1042D00008951F93182F82958F700E945E21812F61
:1042E0000E945E211F9108951F93182F892F0E940D
:1042F0006921812F0E9469211F910895EF92FF92F9
:104300000F931F937B018C01C801AA27BB270E9432
:104310007421C7010E9474211F910F91FF90EF90AB
:1043200008952F923F924F925F926F927F928F9259
:104330009F92AF92BF92CF92DF92EF92FF920F9334
:104340001F93DF93CF93CDB7DEB7A3970FB6F89443
:10435000DEBF0FBECDBF6AA3242E2BA337014801B9
:10436000442351F017FF08C0EE24FF248701E6180C
:10437000F7080809190902C0840173012AA1215014
:1043800090E0211091E0291B29A318A2A82EBB249C
:10439000CC24DD24C801B701A60195010E942D603F
:1043A000FB01EF70F070E052FE4F64916F8FC80117
:1043B000B701A60195010E942D60C901DA017C01B7
:1043C0008D019EE1492E512C4C0E5D1E39A025C059
:1043D000E114F10401051105C9F0C801B701A601F6
:1043E00095010E942D60FB01EF70F070E052FE4FCE
:1043F0006491F2016083C801B701A60195010E9492
:104400002D60C901DA017C018D0103C02BA1F201ED
:1044100020833A940894410851083320C9F6CE010C
:104420004F968C01E9A10E1B11092220F1F097FE95
:1044300005C08DE2F80182938F0117C0C801019772
:10444000611471048104910419F08C018BE202C0A3
:104450008C0180E2F801808308C0F80181918F010E
:104460000E94FB20FAA1F150FAA32AA12223A9F766
:10447000A3960FB6F894DEBF0FBECDBFCF91DF91EC
:104480001F910F91FF90EF90DF90CF90BF90AF9072
:104490009F908F907F906F905F904F903F902F9064
:1044A00008957F928F929F92AF92BF92CF92DF92A8
:1044B000EF92FF920F931F93DF93CF93CDB7DEB7A9
:1044C0007888C988DA8853E1E52EF12CEC0EFD1EC0
:1044D00014C0882381F480E090E0CF91DF911F9198
:1044E0000F91FF90EF90DF90CF90BF90AF909F9093
:1044F0008F907F9008950E94FB2096012F5F3F4F81
:10450000772021F0F6016901849103C0F6018081D2
:1045100069018532F1F62F5F3F4F772021F0F601D8
:104520006901849103C0F60180816901843629F014
:10453000883781F08336F9F606C000E117E24AE0D9
:10454000A42EB12C0CC0F701808122E030E0E20EF5
:10455000F31ED1CF00E010E130E1A32EB12C22E018
:10456000822E912C8E0C9F1CF701E080F180843606
:10457000B1F4F7FE11C0F094E194F108F3948DE2E8
:104580000E94FB2009C0C8016AE070E00E9406603A
:104590008B016230710518F0E016F106A0F3C70137
:1045A000B8010E940660862F0E945E21C701B801F3
:1045B0000E9406607C01C801B5010E9406608B0163
:1045C0006115710561F7740198CF9C01FB01DD9ABB
:1045D000DE9ADF9A80916500846080936500AF9ACF
:1045E00080819181821793070CF4DF9882819381F7
:1045F000821793070CF4DD988481958182179307C5
:104600000CF4DE9886819781821793072CF48091B1
:1046100065008B7F80936500808591858217930765
:104620000CF4AF980895DF93CF93CDB7DEB72A97F8
:104630000FB6F894DEBF0FBECDBFDE011196E2E0EB
:10464000F1E02AE001900D922150E1F7BE016F5F89
:104650007F4F0E94E5222A960FB6F894DEBF0FBE68
:10466000CDBFCF91DF910895892B79F01092FB088F
:104670001092FA0887B7816087BF89B7806489BFC5
:10468000DD9881E080932B08089587B78E7F87BFE0
:1046900089B78F7B89BF80E090E00E94132310923E
:1046A0002B0808951F920F920FB60F920BB60F9220
:1046B00011242F933F934F935F936F937F938F9327
:1046C0009F93AF93BF93EF93FF9395B19093F608A9
:1046D0008091F708813049F0813020F08F3009F067
:1046E00072C00CC09093F5086EC089E3989FC0011A
:1046F0001124909374088093730865C0963E18F453
:104700009093F80802C01092F8088091F80890E0A1
:104710000E9413234091FA085091FB08411551055E
:1047200001F580912C088823E1F09091F8088091A0
:104730002C088917B0F080912D0890912E080197D0
:1047400090932E0880932D0880912D0890912E082B
:10475000892BC9F510922F0880E090E00E94342345
:1047600032C080912C08FA01EB58F74F882319F0DA
:104770008091F80808C020818091F80890E0820FAD
:10478000911D9595879580838091010190E0019717
:104790004817590751F480912F08813031F4109255
:1047A0002F0880E090E00E94342360910101809105
:1047B000FA089091FB08019670E00E941A609093AD
:1047C000FB088093FA0810922A08FF91EF91BF919D
:1047D000AF919F918F917F916F915F914F913F9199
:1047E0002F910F900BBE0F900FBE0F901F9018953A
:1047F0009091F708906297B986B90895C59A84EFA9
:1048000091E020E731E0F9013197F1F70197D9F70D
:104810000895C5980895EF92FF920F931F93C5993D
:104820000AC0C59A84EF91E020E731E0F9013197A1
:10483000F1F70197D9F789B78F7B89BF1092F708F5
:1048400080E287B98CED86B93699FECF6091F50884
:1048500070E0882777FD8095982F0E948E5920E080
:1048600030E040E050E00E942D5721EE3AE74CED59
:1048700050E40E94FC569B01AC0166E676EA8BE8A8
:1048800094E40E9454587B018C0120E030E040E029
:1048900050E00E945E598823FCF020E030E040E2C6
:1048A00051E4C801B7010E945E5988235CF40F2EC1
:1048B000F0E0EF2EF0E0FF2EF0E20F2FF1E41F2FDB
:1048C000F02D14C020E030E048E452E4C801B70104
:1048D0000E94FE58181654F40F2EF0E0EF2EF0E070
:1048E000FF2EF8E40F2FF2E41F2FF02DC801B701BF
:1048F0000E9484556093FC081F910F91FF90EF90E8
:104900000895BF92CF92DF92EF92FF920F931F9381
:10491000CF93DF938FE08093F708C0E0D0E00F2EB5
:10492000F0E0EF2EF0E0FF2EF0E00F2FF0E01F2F71
:10493000F02DBB24B3944FE2C42E3CEDD32EB092A5
:104940002A08C7B8D6B880912A088823E1F7609171
:10495000F80870E0882777FD8095982F0E948E597F
:104960009B01AC01C801B7010E942D577B018C014E
:104970002196C233D10519F720E030E040E251E43E
:104980000E9454580E9484556093F908DF91CF919A
:104990001F910F91FF90EF90DF90CF90BF900895FF
:1049A00081E08093F70881E287B98CED86B936996A
:1049B000FECF08951F920F920FB60F9211248F937E
:1049C00087B78F7B87BF109202098F910F900FBE20
:1049D0000F901F9018951F920F920FB60F920BB663
:1049E0000F9211248F939F93EF93FF93809102096D
:1049F000813059F0813020F0823009F061C023C04D
:104A000014BC81E08093020955C084B58093FF08EF
:104A100014BC8A53893108F04AC01092FE081092E3
:104A2000010982E08093020986B7806486BF87B758
:104A3000806487BF1092040910920509109206093C
:104A4000109207093DC094B59093FF0814BC892FBC
:104A50008D508E3060F5E0910109943138F0F0E02E
:104A6000EC5FF64F80818695806805C0F0E0EC5FD2
:104A7000F64F8081869580838091FE088F5F8093BA
:104A8000FE088830B9F41092FE08809101098F5F0A
:104A900080930109843071F4809104098093FD08AA
:104AA00080910709809303098FEF8093000910928A
:104AB000020906C086B7806486BF87B7806487BF57
:104AC000FF91EF919F918F910F900BBE0F900FBEB2
:104AD0000F901F90189580910009882319F42FEFEB
:104AE0003FEF06C01092000980910309282F30E0A3
:104AF000C9010895282F30E087FF02C020503140BF
:104B0000C9010895159A149A1D9A1C9A0000000074
:104B10001D98000000001C98000000000895159AE0
:104B2000149A1D981C9A000000001D9A00000000B5
:104B3000159814980895159A90E087FF02C01D9A61
:104B400001C01D98000000001C9A00000000000039
:104B500000001C98000000009F5F983011F0880F43
:104B6000ECCF0895159890E080E0880F00000000D9
:104B7000000000001C9A000000000D9981600000F8
:104B800000001C989F5F983081F7159A089515983A
:104B9000000000001D9A000000001C9A00000000A8
:104BA0001C9800000000159A000000000895159A56
:104BB000000000001D98000000001C9A000000008A
:104BC0001C98000000001D9A000000000895159A2E
:104BD000000000001D9A000000001C9A0000000068
:104BE0001C98000000000895CF92DF92EF92FF9290
:104BF0001F93CF93DF93182F6B017A010E948225B8
:104C0000812F0E949B250E94C725C0E0D0E009C0EB
:104C1000F701EC0FFD1F80810E949B250E94C72594
:104C20002196CC15DD05A4F30E948F2581E090E04C
:104C3000DF91CF911F91FF90EF90DF90CF9008957B
:104C40006F927F928F929F92AF92BF92CF92DF929C
:104C5000FF920F931F93CF93DF93F82E5B016A01AE
:104C6000490138010E9482258F2D0E949B250E94B8
:104C7000C725C0E0D0E009C0F601EC0FFD1F808120
:104C80000E949B250E94C7252196CA15DB05A4F327
:104C9000C0E0D0E08401015010400CC00E94B22559
:104CA000F301EC0FFD1F8083C017D10714F40E949D
:104CB000D7252196C815D9058CF30E94E7250E94B7
:104CC0008F25DF91CF911F910F91FF90DF90CF90B3
:104CD000BF90AF909F908F907F906F9008950E94AB
:104CE000822580E70E949B250E94C72584E10E94BF
:104CF0009B250E94C72583E00E949B250E94C72513
:104D00000E948F2508951F930E94822580E70E94AC
:104D10009B250E94C72582E00E949B250E94C725F3
:104D20000E948F2500000000000000000E948225E4
:104D300081E70E949B250E94C7250E94B2250E9400
:104D4000D7250E94B225182F0E94D725812F90E0E9
:104D500017FF02C080509140909309098093080981
:104D60000E94B2250E94D7250E94B225182F0E94CA
:104D7000D725812F90E017FF02C08050914090937B
:104D80000B0980930A090E94B2250E94D7250E9430
:104D9000B225182F0E94E725812F90E017FF02C04F
:104DA0008050914090930D0980930C090E948F25AB
:104DB0001F9108956F927F928F929F92AF92BF92B0
:104DC000CF92DF92EF92FF920F931F93DF93CF93D7
:104DD000CDB7DEB764970FB6F894DEBF0FBECDBF78
:104DE0008CE091E00E940D2184E1898383E08A8335
:104DF0008E010F5F1F4FA80162E070E080E790E036
:104E00000E94F425EE24FF2422E0622E68019BE03C
:104E1000892E912C8C0E9D1E81EFA82E81E0B82E3C
:104E2000772473946982A60161E070E080E790E0E6
:104E30000E94F425840126E030E0A60160E070E0E5
:104E400081E790E00E9420268889282F30E087FFA4
:104E500004C0B9016050714001C0B9018E85282F8E
:104E600030E087FF04C0A9014050514001C0A901B2
:104E70008C85282F30E087FF04C0C9018050914005
:104E800001C0C9017F936F935F934F939F938F935B
:104E9000BF92AF927F920E9451228AEF90E00E94CF
:104EA000BE1B0894E11CF11C8DB79EB709960FB686
:104EB000F8949EBF0FBE8DBF94E1E916F10409F08E
:104EC000B1CF64960FB6F894DEBF0FBECDBFCF91C1
:104ED000DF911F910F91FF90EF90DF90CF90BF90E7
:104EE000AF909F908F907F906F900895DC01ED912F
:104EF000FC911197E08109C0ED91FC9111973196D9
:104F00001196FC93EE933197E181E032A9F3EE2301
:104F100031F08D919C91119701968D939C938E2FDA
:104F20000895DC01ED91FC911197E08109C0ED91AC
:104F3000FC91119731961196FC93EE933197E18194
:104F4000E032A9F3EE2331F08D919C9111970196F7
:104F50008D939C938E2F81548A3118F0EFEFFFEFE1
:104F600003C0F0E0E154F040CF010895DC01ED9181
:104F7000FC911197408109C0ED91FC9111973196F8
:104F80001196FC93EE93319741814032A9F344236B
:104F900039F08D919C911197019611969C938E9367
:104FA00020E030E012C0C90163E0880F991F6A95C4
:104FB000E1F7220F331F280F391F240F311D205313
:104FC000304041911196FC93EE93842F8053ED91E4
:104FD000FC9111978A3038F33197ED93FC93C90116
:104FE0000895FC01DB0120E030E00BC0892F8154E3
:104FF0008A3118F08F5E8A3038F431969D932F5F96
:105000003F4F9081992391F71C92C9010895FC01AB
:10501000DB01208131818D919C9111979183808357
:105020002D933C930895860F971F62E070E00E94D5
:105030001A60CB010895AF92BF92CF92DF92EF92A8
:10504000FF920F931F93CF93DF938C017B016A0133
:10505000EC14FD040CF07EC0C7018C0D9D1D62E0B8
:1050600070E00E941A60FB01EE0FFF1FE00FF11FBE
:10507000A701440F551F400F511FDA012D913C919C
:1050800011978081918111969C938E933183208317
:105090006D917C9197012F5F3F4FE60137C02F5FE5
:1050A0003F4FC216D30644F4B22EA32EDE01AA0F40
:1050B000BB1FA00FB11F07C081919191681779079D
:1050C00074F7F2CF2197CE15DF053CF08D919C91BE
:1050D0001197129768177907ACF32C173D079CF4CA
:1050E000DE01AA0FBB1FA00FB11FF901EE0FFF1FBA
:1050F000E00FF11F208131818D919C911197918357
:1051000080832D933C938B2D9A2D9C01C217D3073E
:1051100034F0F901EE0FFF1FE00FF11FC2CFFE01C7
:10512000EE0FFF1FE00FF11FDA012D913C91119757
:10513000808191818D939C93318320832197AE014F
:10514000B701C8010E941B2872E0E72EF12CEC0E7B
:10515000FD1E7ECFDF91CF911F910F91FF90EF90B9
:10516000DF90CF90BF90AF90089583309105E9F024
:10517000843091054CF48130910599F0823091058D
:1051800094F4892B61F008C08530910591F0853049
:1051900091056CF0069779F020E030E01CC089B3EF
:1051A0000CC086B30AC083B308C080B306C081B107
:1051B00004C080B102C080916300282F30E06830C5
:1051C00071054CF481E090E002C0880F991F6A9548
:1051D000E2F728233923C90108959C014D3309F4CE
:1051E00072C04E33A8F44B3229F14C3240F44632AF
:1051F00099F14A3229F1453209F06DC041C04F3270
:1052000039F14C3309F447C04D3209F064C015C080
:105210004C3609F446C04D3630F44E33B1F14736C2
:1052200009F059C044C04E3609F447C04C3709F064
:1052300052C01AC0260F371F4EC0261B370B4BC05B
:10524000869F9001879F300D969F300D112443C09B
:105250000E941A609B0117C0672B19F420E030E010
:105260003AC00097C1F102C0009719F021E030E088
:1052700032C06115710511F061E070E09B012BC037
:105280000E941A609C01C90125C080E090E062176D
:10529000730704F51DC080E090E026173707D4F4AB
:1052A00017C080E090E062177307A4F011C080E09F
:1052B00090E02617370774F00BC080E090E02617C7
:1052C000370731F407C080E090E06217730711F4EC
:1052D00081E090E09C01C9010895DC018C91882354
:1052E00019F420E030E009C0FD0101C03196808151
:1052F0008232E1F79F012A1B3B0BC90108952F92CF
:105300003F924F925F926F927F928F929F92AF9255
:10531000BF92CF92DF92EF92FF920F931F93DF9392
:10532000CF93CDB7DEB729970FB6F894DEBF0FBE87
:10533000CDBFAA24BB2435EA232E32E0332EEE243F
:10534000E3944E010894811C911C21EA422E22E034
:10535000522E99E0692E712C6C0E7D1EBF92AF9279
:105360003F922F92EF920E945122840180E0C82E3A
:1053700080E0D82ECA0CDB1C0F900F900F900F907E
:105380000F90E199FECFDFBACEBAE09AFDB28F2D31
:1053900090E09F938F935F924F92EF920E945122E1
:1053A0008F2D8C510F900F900F900F900F90833690
:1053B00018F4F801F08203C08EE2F80180830F5FD9
:1053C0001F4F0894C11CD11C06151705D1F619866C
:1053D000C4010E940D2185E191E00E940D21E8E0C9
:1053E000F0E0AE0EBF1EF0E4AF16B10409F0B6CF88
:1053F00029960FB6F894DEBF0FBECDBFCF91DF91D7
:105400001F910F91FF90EF90DF90CF90BF90AF90E2
:105410009F908F907F906F905F904F903F902F90D4
:1054200008952F923F924F925F926F927F928F9248
:105430009F92AF92BF92CF92DF92EF92FF920F9323
:105440001F93DF93CF93CDB7DEB729970FB6F894AC
:10545000DEBF0FBECDBF3C0188249924EE24E39427
:105460002E010894411C511C59EA252E52E0352E7C
:105470009F928F928DEA92E09F938F93EF920E947A
:10548000512240E4A42E40E0B42EA80CB91C8201A5
:10549000CC24DD240F900F900F900F900F902AC016
:1054A000E199FECFBFBAAEBAE09AFDB28F2D90E07F
:1054B0009F938F933F922F92EF920E9451220F90D1
:1054C0000F900F900F900F9098E06916710451F4AF
:1054D0008F2D8C51833618F4F801F08203C08EE2D0
:1054E000F80180830894C11CD11C0894A11CB11C34
:1054F0000F5F1F4FC614D7049CF298E06916710421
:1055000021F41986C2010E940D2185E191E00E94DB
:105510000D21860C971CE0E08E16ECE09E060CF444
:10552000A7CF29960FB6F894DEBF0FBECDBFCF919F
:10553000DF911F910F91FF90EF90DF90CF90BF9080
:10554000AF909F908F907F906F905F904F903F9023
:105550002F9008956930710508F050C0833091058F
:10556000D9F0843091054CF48130910579F0823086
:1055700091057CF4892B41F11BC08530910591F098
:105580008530910564F0069799F40FC0E8E3F0E0E8
:105590001DC0E5E3F0E01AC0E2E3F0E017C0E3E28B
:1055A000F0E014C0E2E6F0E011C0E5E6F0E00EC085
:1055B0008EE393E09F938F9381E08F930E9451221B
:1055C0000F900F900F900895EBE3F0E068307105B5
:1055D00019F431974083089581E090E002C0880F6C
:1055E000991F6A95E2F7982F452B29F480819095B1
:1055F0008923808308958081892B80830895CF93A8
:10560000DF93FC01EB018E31910584F06AE070E0DC
:105610000E941A609C01CF014E976AE070E00E94E0
:105620001A60CB01AE01B9010E94AA2A80E090E085
:10563000DF91CF910895EF92FF920F931F93E82E81
:10564000F62E05E610E0F80180818B7F80838AEEDC
:105650000E94FB208E2D0E94FB208F2D0E94FB209C
:10566000FE248F2D8F770E94FB20F80180818460BB
:1056700080831F910F91FF90EF9008952F923F929A
:105680004F925F926F927F928F929F92AF92BF9252
:10569000CF92DF92EF92FF920F931F93DF93CF93FE
:1056A000CDB7DEB7C450D1400FB6F894DEBF0FBE01
:1056B000CDBF109239081092380888E191E00E941D
:1056C0000D210E9426448A3A29F088E291E00E9446
:1056D0000D217EC10E948D440E942644A82EBB2429
:1056E000B394F5E42F2EFCE43F2EF3E54F2EF5E4C2
:1056F0005F2EE4E56E2EE8E47E2EE5E48E2EEEE4E9
:105700009E2E5BC1BE0161597F4FCE0101960E9462
:105710001845C984DA84EE80FD8009811A810E94CF
:105720002644A82E0115110509F447C11F930F93B4
:105730008DE992E09F938F93BF920E945122EF2DAB
:10574000F0E0EE0FFF1FE65EFC4F808191810E942A
:105750000D21ABE9B2E0BF93AF93BF920E945122FB
:10576000EDB7FEB738960FB6F894FEBF0FBEEDBF8B
:10577000FF2049F0F7E0FF1631F021E0F21619F0B2
:105780008AE0F81691F48E2D90E08F5B9F4F9F93E7
:105790008F93A5E9B2E0BF93AF93BF920E945122CD
:1057A0000F900F900F900F900F90B8E0FB16A9F597
:1057B000EE2DF0E02DE12E1548F0EE0FFF1FED521B
:1057C000FC4F808191810E940D2122C08E2D6AE0C4
:1057D0000E94FA5F892F805D90E09F938F93CF01A5
:1057E0004E976AE070E00E941A606F5B70E07F93F2
:1057F0006F938AE892E09F938F93BF920E94512209
:10580000ADB7BEB717960FB6F894BEBF0FBEADBF0B
:105810008CE391E00E940D21AAC0BEE0FB1619F0B6
:10582000EAE1FE16E9F4EE2DF0E02FE12E1540F44A
:10583000B097FF93EF9386E892E09F938F9308C011
:10584000EF5BFF4FFF93EF93A2E8B2E0BF93AF93FC
:10585000BF920E9451220F900F900F900F900F90C7
:10586000B6E0FB1679F4E1E0EE1609F080C08FE7B0
:1058700092E09F938F93EF920E9451220F900F908E
:105880000F9075C092E0F916E1F5D6010D90002059
:10589000E9F71197AC19BD09A330B105A4F012972F
:1058A00096012A0F3B1F1296F90180818A3359F421
:1058B000FD013197EC0DFD1D8081803321F480E2E4
:1058C000D9018C93808360E471E0C6010E94B15CD1
:1058D0008C0165E471E0C6010E94B15CFC01011518
:1058E000110531F0D8016D927D928D929C921397A3
:1058F000309721F02082318242825382C601019684
:1059000050C0BDE0FB1699F48E2D90E08F5B9F4F49
:105910009F938F93ECE7F2E0FF93EF93BF920E9487
:1059200051220F900F900F900F900F903CC0F5E018
:10593000FF1661F020E1F21649F08CE0F81631F024
:1059400093E1F91619F0A4E1FA1689F48F8198858C
:105950009F938F93E9E7F2E0FF93EF93BF920E944A
:1059600051220F900F900F900F900F9003C0C6011F
:105970000E940D21F1E0FF16B1F46E2D70E08091D0
:105980003808909139080E944E44BE01655F7F4FF0
:1059900008960E9438448AE491E00E940D21CE01CD
:1059A0000B960E940D2186E792E09F938F93BF9202
:1059B0000E9451220F900F900F909CECA91641F07D
:1059C000809138089091390880509C4008F49ACE14
:1059D000CC5FDE4F0FB6F894DEBF0FBECDBFCF91C8
:1059E000DF911F910F91FF90EF90DF90CF90BF90CC
:1059F000AF909F908F907F906F905F904F903F906F
:105A00002F9008958FE491E00E940D210E94C945D6
:105A1000089580E490E02FEFE199FECF9FBB8EBB0D
:105A20002DBB0FB6F894E29AE19A0FBE01963CE0C6
:105A30008034930789F70E94022D0895CF92DF9258
:105A4000EF92FF920F931F93CF93DF937C0180E639
:105A500091E00E940D21E70100E010E0A1E0CA2ED4
:105A6000D12C0E9405209C0197FDFBCF8930910528
:105A700019F420E230E003C08D30910549F0EC16B6
:105A8000FD06A1F42E32310589F4E7018EE28993F7
:105A90000032110509F4219718828EEB93E09F9351
:105AA0008F9381E08F930E94512218C0C114D104BA
:105AB00031F02032310519F40032110579F2EC167B
:105AC000FD06E1F42F333105C9F48DE993E09F938E
:105AD0008F9381E08F930E945122E7010F900F90E6
